{
	"contracts/VaultShareToken.sol": {
		"VaultShareToken": {
			"abi": [
				{
					"inputs": [
						{
							"internalType": "string",
							"name": "_name",
							"type": "string"
						},
						{
							"internalType": "string",
							"name": "_symbol",
							"type": "string"
						}
					],
					"stateMutability": "nonpayable",
					"type": "constructor"
				},
				{
					"anonymous": false,
					"inputs": [
						{
							"indexed": true,
							"internalType": "address",
							"name": "owner",
							"type": "address"
						},
						{
							"indexed": true,
							"internalType": "address",
							"name": "spender",
							"type": "address"
						},
						{
							"indexed": false,
							"internalType": "uint256",
							"name": "value",
							"type": "uint256"
						}
					],
					"name": "Approval",
					"type": "event"
				},
				{
					"anonymous": false,
					"inputs": [
						{
							"indexed": true,
							"internalType": "address",
							"name": "previousOwner",
							"type": "address"
						},
						{
							"indexed": true,
							"internalType": "address",
							"name": "newOwner",
							"type": "address"
						}
					],
					"name": "OwnershipTransferred",
					"type": "event"
				},
				{
					"anonymous": false,
					"inputs": [
						{
							"indexed": true,
							"internalType": "address",
							"name": "from",
							"type": "address"
						},
						{
							"indexed": true,
							"internalType": "address",
							"name": "to",
							"type": "address"
						},
						{
							"indexed": false,
							"internalType": "uint256",
							"name": "value",
							"type": "uint256"
						}
					],
					"name": "Transfer",
					"type": "event"
				},
				{
					"anonymous": false,
					"inputs": [
						{
							"indexed": true,
							"internalType": "address",
							"name": "oldVault",
							"type": "address"
						},
						{
							"indexed": true,
							"internalType": "address",
							"name": "newVault",
							"type": "address"
						}
					],
					"name": "VaultAddressSet",
					"type": "event"
				},
				{
					"inputs": [
						{
							"internalType": "address",
							"name": "owner",
							"type": "address"
						},
						{
							"internalType": "address",
							"name": "spender",
							"type": "address"
						}
					],
					"name": "allowance",
					"outputs": [
						{
							"internalType": "uint256",
							"name": "",
							"type": "uint256"
						}
					],
					"stateMutability": "view",
					"type": "function"
				},
				{
					"inputs": [
						{
							"internalType": "address",
							"name": "spender",
							"type": "address"
						},
						{
							"internalType": "uint256",
							"name": "amount",
							"type": "uint256"
						}
					],
					"name": "approve",
					"outputs": [
						{
							"internalType": "bool",
							"name": "",
							"type": "bool"
						}
					],
					"stateMutability": "nonpayable",
					"type": "function"
				},
				{
					"inputs": [
						{
							"internalType": "address",
							"name": "account",
							"type": "address"
						}
					],
					"name": "balanceOf",
					"outputs": [
						{
							"internalType": "uint256",
							"name": "",
							"type": "uint256"
						}
					],
					"stateMutability": "view",
					"type": "function"
				},
				{
					"inputs": [
						{
							"internalType": "uint256",
							"name": "amount",
							"type": "uint256"
						}
					],
					"name": "burn",
					"outputs": [],
					"stateMutability": "nonpayable",
					"type": "function"
				},
				{
					"inputs": [
						{
							"internalType": "address",
							"name": "account",
							"type": "address"
						},
						{
							"internalType": "uint256",
							"name": "amount",
							"type": "uint256"
						}
					],
					"name": "burnFrom",
					"outputs": [],
					"stateMutability": "nonpayable",
					"type": "function"
				},
				{
					"inputs": [],
					"name": "decimals",
					"outputs": [
						{
							"internalType": "uint8",
							"name": "",
							"type": "uint8"
						}
					],
					"stateMutability": "view",
					"type": "function"
				},
				{
					"inputs": [
						{
							"internalType": "address",
							"name": "spender",
							"type": "address"
						},
						{
							"internalType": "uint256",
							"name": "subtractedValue",
							"type": "uint256"
						}
					],
					"name": "decreaseAllowance",
					"outputs": [
						{
							"internalType": "bool",
							"name": "",
							"type": "bool"
						}
					],
					"stateMutability": "nonpayable",
					"type": "function"
				},
				{
					"inputs": [
						{
							"internalType": "address",
							"name": "spender",
							"type": "address"
						},
						{
							"internalType": "uint256",
							"name": "addedValue",
							"type": "uint256"
						}
					],
					"name": "increaseAllowance",
					"outputs": [
						{
							"internalType": "bool",
							"name": "",
							"type": "bool"
						}
					],
					"stateMutability": "nonpayable",
					"type": "function"
				},
				{
					"inputs": [
						{
							"internalType": "address",
							"name": "to",
							"type": "address"
						},
						{
							"internalType": "uint256",
							"name": "amount",
							"type": "uint256"
						}
					],
					"name": "mint",
					"outputs": [],
					"stateMutability": "nonpayable",
					"type": "function"
				},
				{
					"inputs": [],
					"name": "name",
					"outputs": [
						{
							"internalType": "string",
							"name": "",
							"type": "string"
						}
					],
					"stateMutability": "view",
					"type": "function"
				},
				{
					"inputs": [],
					"name": "owner",
					"outputs": [
						{
							"internalType": "address",
							"name": "",
							"type": "address"
						}
					],
					"stateMutability": "view",
					"type": "function"
				},
				{
					"inputs": [],
					"name": "renounceOwnership",
					"outputs": [],
					"stateMutability": "nonpayable",
					"type": "function"
				},
				{
					"inputs": [
						{
							"internalType": "address",
							"name": "_vault",
							"type": "address"
						}
					],
					"name": "setVault",
					"outputs": [],
					"stateMutability": "nonpayable",
					"type": "function"
				},
				{
					"inputs": [],
					"name": "symbol",
					"outputs": [
						{
							"internalType": "string",
							"name": "",
							"type": "string"
						}
					],
					"stateMutability": "view",
					"type": "function"
				},
				{
					"inputs": [],
					"name": "totalSupply",
					"outputs": [
						{
							"internalType": "uint256",
							"name": "",
							"type": "uint256"
						}
					],
					"stateMutability": "view",
					"type": "function"
				},
				{
					"inputs": [
						{
							"internalType": "address",
							"name": "to",
							"type": "address"
						},
						{
							"internalType": "uint256",
							"name": "amount",
							"type": "uint256"
						}
					],
					"name": "transfer",
					"outputs": [
						{
							"internalType": "bool",
							"name": "",
							"type": "bool"
						}
					],
					"stateMutability": "nonpayable",
					"type": "function"
				},
				{
					"inputs": [
						{
							"internalType": "address",
							"name": "from",
							"type": "address"
						},
						{
							"internalType": "address",
							"name": "to",
							"type": "address"
						},
						{
							"internalType": "uint256",
							"name": "amount",
							"type": "uint256"
						}
					],
					"name": "transferFrom",
					"outputs": [
						{
							"internalType": "bool",
							"name": "",
							"type": "bool"
						}
					],
					"stateMutability": "nonpayable",
					"type": "function"
				},
				{
					"inputs": [
						{
							"internalType": "address",
							"name": "newOwner",
							"type": "address"
						}
					],
					"name": "transferOwnership",
					"outputs": [],
					"stateMutability": "nonpayable",
					"type": "function"
				},
				{
					"inputs": [],
					"name": "vault",
					"outputs": [
						{
							"internalType": "address",
							"name": "",
							"type": "address"
						}
					],
					"stateMutability": "view",
					"type": "function"
				}
			],
			"devdoc": {
				"details": "代表用户在Vault中的权益份额的ERC20代币 这个代币只能由Vault合约铸造和销毁",
				"events": {
					"Approval(address,address,uint256)": {
						"details": "Emitted when the allowance of a `spender` for an `owner` is set by a call to {approve}. `value` is the new allowance."
					},
					"Transfer(address,address,uint256)": {
						"details": "Emitted when `value` tokens are moved from one account (`from`) to another (`to`). Note that `value` may be zero."
					}
				},
				"kind": "dev",
				"methods": {
					"allowance(address,address)": {
						"details": "See {IERC20-allowance}."
					},
					"approve(address,uint256)": {
						"details": "See {IERC20-approve}. NOTE: If `amount` is the maximum `uint256`, the allowance is not updated on `transferFrom`. This is semantically equivalent to an infinite approval. Requirements: - `spender` cannot be the zero address."
					},
					"balanceOf(address)": {
						"details": "See {IERC20-balanceOf}."
					},
					"burn(uint256)": {
						"details": "重写burn函数，确保只有Vault可以销毁代币",
						"params": {
							"amount": "销毁金额"
						}
					},
					"burnFrom(address,uint256)": {
						"details": "重写burnFrom函数，确保只有Vault可以从指定地址销毁代币",
						"params": {
							"account": "销毁代币的地址",
							"amount": "销毁金额"
						}
					},
					"constructor": {
						"details": "创建一个新的VaultShareToken",
						"params": {
							"_name": "代币名称",
							"_symbol": "代币符号"
						}
					},
					"decimals()": {
						"details": "Returns the number of decimals used to get its user representation. For example, if `decimals` equals `2`, a balance of `505` tokens should be displayed to a user as `5.05` (`505 / 10 ** 2`). Tokens usually opt for a value of 18, imitating the relationship between Ether and Wei. This is the value {ERC20} uses, unless this function is overridden; NOTE: This information is only used for _display_ purposes: it in no way affects any of the arithmetic of the contract, including {IERC20-balanceOf} and {IERC20-transfer}."
					},
					"decreaseAllowance(address,uint256)": {
						"details": "Atomically decreases the allowance granted to `spender` by the caller. This is an alternative to {approve} that can be used as a mitigation for problems described in {IERC20-approve}. Emits an {Approval} event indicating the updated allowance. Requirements: - `spender` cannot be the zero address. - `spender` must have allowance for the caller of at least `subtractedValue`."
					},
					"increaseAllowance(address,uint256)": {
						"details": "Atomically increases the allowance granted to `spender` by the caller. This is an alternative to {approve} that can be used as a mitigation for problems described in {IERC20-approve}. Emits an {Approval} event indicating the updated allowance. Requirements: - `spender` cannot be the zero address."
					},
					"mint(address,uint256)": {
						"details": "铸造新的权益代币",
						"params": {
							"amount": "铸造金额 只有Vault合约可以调用此函数",
							"to": "接收者地址"
						}
					},
					"name()": {
						"details": "Returns the name of the token."
					},
					"owner()": {
						"details": "Returns the address of the current owner."
					},
					"renounceOwnership()": {
						"details": "Leaves the contract without owner. It will not be possible to call `onlyOwner` functions anymore. Can only be called by the current owner. NOTE: Renouncing ownership will leave the contract without an owner, thereby removing any functionality that is only available to the owner."
					},
					"setVault(address)": {
						"details": "设置Vault合约地址",
						"params": {
							"_vault": "Vault合约地址 只有合约拥有者可以调用此函数"
						}
					},
					"symbol()": {
						"details": "Returns the symbol of the token, usually a shorter version of the name."
					},
					"totalSupply()": {
						"details": "See {IERC20-totalSupply}."
					},
					"transfer(address,uint256)": {
						"details": "See {IERC20-transfer}. Requirements: - `to` cannot be the zero address. - the caller must have a balance of at least `amount`."
					},
					"transferFrom(address,address,uint256)": {
						"details": "See {IERC20-transferFrom}. Emits an {Approval} event indicating the updated allowance. This is not required by the EIP. See the note at the beginning of {ERC20}. NOTE: Does not update the allowance if the current allowance is the maximum `uint256`. Requirements: - `from` and `to` cannot be the zero address. - `from` must have a balance of at least `amount`. - the caller must have allowance for ``from``'s tokens of at least `amount`."
					},
					"transferOwnership(address)": {
						"details": "Transfers ownership of the contract to a new account (`newOwner`). Can only be called by the current owner."
					}
				},
				"title": "VaultShareToken",
				"version": 1
			},
			"evm": {
				"assembly": "    /* \"contracts/VaultShareToken.sol\":389:2199  contract VaultShareToken is ERC20, ERC20Burnable, Ownable {... */\n  mstore(0x40, 0x80)\n    /* \"contracts/VaultShareToken.sol\":710:800  constructor(string memory _name, string memory _symbol) ERC20(_name, _symbol) Ownable() {} */\n  callvalue\n  dup1\n  iszero\n  tag_1\n  jumpi\n  revert(0x00, 0x00)\ntag_1:\n  pop\n  mload(0x40)\n  sub(codesize, bytecodeSize)\n  dup1\n  bytecodeSize\n  dup4\n  codecopy\n  dup2\n  add\n  0x40\n  dup2\n  swap1\n  mstore\n  tag_2\n  swap2\n  tag_3\n  jump\t// in\ntag_2:\n    /* \"contracts/VaultShareToken.sol\":772:777  _name */\n  dup2\n    /* \"contracts/VaultShareToken.sol\":779:786  _symbol */\n  dup2\n    /* \"@openzeppelin/contracts/token/ERC20/ERC20.sol\":2044:2049  _name */\n  0x03\n    /* \"@openzeppelin/contracts/token/ERC20/ERC20.sol\":2044:2057  _name = name_ */\n  tag_8\n    /* \"contracts/VaultShareToken.sol\":772:777  _name */\n  dup4\n    /* \"@openzeppelin/contracts/token/ERC20/ERC20.sol\":2044:2049  _name */\n  dup3\n    /* \"@openzeppelin/contracts/token/ERC20/ERC20.sol\":2044:2057  _name = name_ */\n  tag_9\n  jump\t// in\ntag_8:\n  pop\n    /* \"@openzeppelin/contracts/token/ERC20/ERC20.sol\":2067:2074  _symbol */\n  0x04\n    /* \"@openzeppelin/contracts/token/ERC20/ERC20.sol\":2067:2084  _symbol = symbol_ */\n  tag_10\n    /* \"@openzeppelin/contracts/token/ERC20/ERC20.sol\":2077:2084  symbol_ */\n  dup3\n    /* \"@openzeppelin/contracts/token/ERC20/ERC20.sol\":2067:2074  _symbol */\n  dup3\n    /* \"@openzeppelin/contracts/token/ERC20/ERC20.sol\":2067:2084  _symbol = symbol_ */\n  tag_9\n  jump\t// in\ntag_10:\n  pop\n    /* \"@openzeppelin/contracts/token/ERC20/ERC20.sol\":1978:2091  constructor(string memory name_, string memory symbol_) {... */\n  pop\n  pop\n    /* \"@openzeppelin/contracts/access/Ownable.sol\":921:953  _transferOwnership(_msgSender()) */\n  tag_12\n    /* \"@openzeppelin/contracts/access/Ownable.sol\":940:952  _msgSender() */\n  tag_13\n    /* \"@openzeppelin/contracts/access/Ownable.sol\":940:950  _msgSender */\n  shl(0x20, tag_14)\n    /* \"@openzeppelin/contracts/access/Ownable.sol\":940:952  _msgSender() */\n  0x20\n  shr\n  jump\t// in\ntag_13:\n    /* \"@openzeppelin/contracts/access/Ownable.sol\":921:939  _transferOwnership */\n  tag_15\n    /* \"@openzeppelin/contracts/access/Ownable.sol\":921:953  _transferOwnership(_msgSender()) */\n  jump\t// in\ntag_12:\n    /* \"contracts/VaultShareToken.sol\":710:800  constructor(string memory _name, string memory _symbol) ERC20(_name, _symbol) Ownable() {} */\n  pop\n  pop\n    /* \"contracts/VaultShareToken.sol\":389:2199  contract VaultShareToken is ERC20, ERC20Burnable, Ownable {... */\n  jump(tag_26)\n    /* \"@openzeppelin/contracts/utils/Context.sol\":640:736  function _msgSender() internal view virtual returns (address) {... */\ntag_14:\n    /* \"@openzeppelin/contracts/utils/Context.sol\":719:729  msg.sender */\n  caller\n  swap1\n    /* \"@openzeppelin/contracts/utils/Context.sol\":640:736  function _msgSender() internal view virtual returns (address) {... */\n  jump\t// out\n    /* \"@openzeppelin/contracts/access/Ownable.sol\":2270:2457  function _transferOwnership(address newOwner) internal virtual {... */\ntag_15:\n    /* \"@openzeppelin/contracts/access/Ownable.sol\":2362:2368  _owner */\n  0x05\n  dup1\n  sload\n  sub(shl(0xa0, 0x01), 0x01)\n    /* \"@openzeppelin/contracts/access/Ownable.sol\":2378:2395  _owner = newOwner */\n  dup4\n  dup2\n  and\n  not(sub(shl(0xa0, 0x01), 0x01))\n  dup4\n  and\n  dup2\n  or\n  swap1\n  swap4\n  sstore\n    /* \"@openzeppelin/contracts/access/Ownable.sol\":2410:2450  OwnershipTransferred(oldOwner, newOwner) */\n  mload(0x40)\n    /* \"@openzeppelin/contracts/access/Ownable.sol\":2362:2368  _owner */\n  swap2\n  and\n  swap2\n    /* \"@openzeppelin/contracts/access/Ownable.sol\":2378:2395  _owner = newOwner */\n  swap1\n    /* \"@openzeppelin/contracts/access/Ownable.sol\":2362:2368  _owner */\n  dup3\n  swap1\n    /* \"@openzeppelin/contracts/access/Ownable.sol\":2410:2450  OwnershipTransferred(oldOwner, newOwner) */\n  0x8be0079c531659141344cd1fd0a4f28419497f9722a3daafe3b4186f6b6457e0\n  swap1\n    /* \"@openzeppelin/contracts/access/Ownable.sol\":2343:2359  address oldOwner */\n  0x00\n  swap1\n    /* \"@openzeppelin/contracts/access/Ownable.sol\":2410:2450  OwnershipTransferred(oldOwner, newOwner) */\n  log3\n    /* \"@openzeppelin/contracts/access/Ownable.sol\":2333:2457  {... */\n  pop\n    /* \"@openzeppelin/contracts/access/Ownable.sol\":2270:2457  function _transferOwnership(address newOwner) internal virtual {... */\n  pop\n  jump\t// out\n    /* \"#utility.yul\":14:141   */\ntag_20:\n    /* \"#utility.yul\":75:85   */\n  0x4e487b71\n    /* \"#utility.yul\":70:73   */\n  0xe0\n    /* \"#utility.yul\":66:86   */\n  shl\n    /* \"#utility.yul\":63:64   */\n  0x00\n    /* \"#utility.yul\":56:87   */\n  mstore\n    /* \"#utility.yul\":106:110   */\n  0x41\n    /* \"#utility.yul\":103:104   */\n  0x04\n    /* \"#utility.yul\":96:111   */\n  mstore\n    /* \"#utility.yul\":130:134   */\n  0x24\n    /* \"#utility.yul\":127:128   */\n  0x00\n    /* \"#utility.yul\":120:135   */\n  revert\n    /* \"#utility.yul\":146:869   */\ntag_21:\n    /* \"#utility.yul\":200:205   */\n  0x00\n    /* \"#utility.yul\":253:256   */\n  dup3\n    /* \"#utility.yul\":246:250   */\n  0x1f\n    /* \"#utility.yul\":238:244   */\n  dup4\n    /* \"#utility.yul\":234:251   */\n  add\n    /* \"#utility.yul\":230:257   */\n  slt\n    /* \"#utility.yul\":220:275   */\n  tag_29\n  jumpi\n    /* \"#utility.yul\":271:272   */\n  0x00\n    /* \"#utility.yul\":268:269   */\n  0x00\n    /* \"#utility.yul\":261:273   */\n  revert\n    /* \"#utility.yul\":220:275   */\ntag_29:\n    /* \"#utility.yul\":298:311   */\n  dup2\n  mload\n  sub(shl(0x40, 0x01), 0x01)\n    /* \"#utility.yul\":323:353   */\n  dup2\n  gt\n    /* \"#utility.yul\":320:376   */\n  iszero\n  tag_31\n  jumpi\n    /* \"#utility.yul\":356:374   */\n  tag_31\n  tag_20\n  jump\t// in\ntag_31:\n    /* \"#utility.yul\":405:407   */\n  0x40\n    /* \"#utility.yul\":399:408   */\n  mload\n    /* \"#utility.yul\":497:499   */\n  0x1f\n    /* \"#utility.yul\":459:476   */\n  dup3\n  add\n  not(0x1f)\n    /* \"#utility.yul\":455:486   */\n  swap1\n  dup2\n  and\n    /* \"#utility.yul\":488:490   */\n  0x3f\n    /* \"#utility.yul\":451:491   */\n  add\n    /* \"#utility.yul\":447:501   */\n  and\n    /* \"#utility.yul\":435:502   */\n  dup2\n  add\n  sub(shl(0x40, 0x01), 0x01)\n    /* \"#utility.yul\":517:551   */\n  dup2\n  gt\n    /* \"#utility.yul\":553:575   */\n  dup3\n  dup3\n  lt\n    /* \"#utility.yul\":514:576   */\n  or\n    /* \"#utility.yul\":511:599   */\n  iszero\n  tag_33\n  jumpi\n    /* \"#utility.yul\":579:597   */\n  tag_33\n  tag_20\n  jump\t// in\ntag_33:\n    /* \"#utility.yul\":615:617   */\n  0x40\n    /* \"#utility.yul\":608:630   */\n  mstore\n    /* \"#utility.yul\":639:661   */\n  dup2\n  dup2\n  mstore\n    /* \"#utility.yul\":680:699   */\n  dup4\n  dup3\n  add\n    /* \"#utility.yul\":701:705   */\n  0x20\n    /* \"#utility.yul\":676:706   */\n  add\n    /* \"#utility.yul\":673:712   */\n  dup6\n  lt\n    /* \"#utility.yul\":670:729   */\n  iszero\n  tag_34\n  jumpi\n    /* \"#utility.yul\":725:726   */\n  0x00\n    /* \"#utility.yul\":722:723   */\n  0x00\n    /* \"#utility.yul\":715:727   */\n  revert\n    /* \"#utility.yul\":670:729   */\ntag_34:\n    /* \"#utility.yul\":782:788   */\n  dup2\n    /* \"#utility.yul\":775:779   */\n  0x20\n    /* \"#utility.yul\":767:773   */\n  dup6\n    /* \"#utility.yul\":763:780   */\n  add\n    /* \"#utility.yul\":756:760   */\n  0x20\n    /* \"#utility.yul\":748:754   */\n  dup4\n    /* \"#utility.yul\":744:761   */\n  add\n    /* \"#utility.yul\":738:789   */\n  mcopy\n    /* \"#utility.yul\":837:838   */\n  0x00\n    /* \"#utility.yul\":809:828   */\n  swap2\n  dup2\n  add\n    /* \"#utility.yul\":830:834   */\n  0x20\n    /* \"#utility.yul\":805:835   */\n  add\n    /* \"#utility.yul\":798:839   */\n  swap2\n  swap1\n  swap2\n  mstore\n    /* \"#utility.yul\":813:819   */\n  swap4\n    /* \"#utility.yul\":146:869   */\n  swap3\n  pop\n  pop\n  pop\n  jump\t// out\n    /* \"#utility.yul\":874:1431   */\ntag_3:\n    /* \"#utility.yul\":973:979   */\n  0x00\n    /* \"#utility.yul\":981:987   */\n  0x00\n    /* \"#utility.yul\":1034:1036   */\n  0x40\n    /* \"#utility.yul\":1022:1031   */\n  dup4\n    /* \"#utility.yul\":1013:1020   */\n  dup6\n    /* \"#utility.yul\":1009:1032   */\n  sub\n    /* \"#utility.yul\":1005:1037   */\n  slt\n    /* \"#utility.yul\":1002:1054   */\n  iszero\n  tag_36\n  jumpi\n    /* \"#utility.yul\":1050:1051   */\n  0x00\n    /* \"#utility.yul\":1047:1048   */\n  0x00\n    /* \"#utility.yul\":1040:1052   */\n  revert\n    /* \"#utility.yul\":1002:1054   */\ntag_36:\n    /* \"#utility.yul\":1077:1093   */\n  dup3\n  mload\n  sub(shl(0x40, 0x01), 0x01)\n    /* \"#utility.yul\":1105:1135   */\n  dup2\n  gt\n    /* \"#utility.yul\":1102:1152   */\n  iszero\n  tag_37\n  jumpi\n    /* \"#utility.yul\":1148:1149   */\n  0x00\n    /* \"#utility.yul\":1145:1146   */\n  0x00\n    /* \"#utility.yul\":1138:1150   */\n  revert\n    /* \"#utility.yul\":1102:1152   */\ntag_37:\n    /* \"#utility.yul\":1171:1232   */\n  tag_38\n    /* \"#utility.yul\":1224:1231   */\n  dup6\n    /* \"#utility.yul\":1215:1221   */\n  dup3\n    /* \"#utility.yul\":1204:1213   */\n  dup7\n    /* \"#utility.yul\":1200:1222   */\n  add\n    /* \"#utility.yul\":1171:1232   */\n  tag_21\n  jump\t// in\ntag_38:\n    /* \"#utility.yul\":1278:1280   */\n  0x20\n    /* \"#utility.yul\":1263:1281   */\n  dup6\n  add\n    /* \"#utility.yul\":1257:1282   */\n  mload\n    /* \"#utility.yul\":1161:1232   */\n  swap1\n  swap4\n  pop\n    /* \"#utility.yul\":1257:1282   */\n  swap1\n  pop\n  sub(shl(0x40, 0x01), 0x01)\n    /* \"#utility.yul\":1294:1326   */\n  dup2\n  gt\n    /* \"#utility.yul\":1291:1343   */\n  iszero\n  tag_39\n  jumpi\n    /* \"#utility.yul\":1339:1340   */\n  0x00\n    /* \"#utility.yul\":1336:1337   */\n  0x00\n    /* \"#utility.yul\":1329:1341   */\n  revert\n    /* \"#utility.yul\":1291:1343   */\ntag_39:\n    /* \"#utility.yul\":1362:1425   */\n  tag_40\n    /* \"#utility.yul\":1417:1424   */\n  dup6\n    /* \"#utility.yul\":1406:1414   */\n  dup3\n    /* \"#utility.yul\":1395:1404   */\n  dup7\n    /* \"#utility.yul\":1391:1415   */\n  add\n    /* \"#utility.yul\":1362:1425   */\n  tag_21\n  jump\t// in\ntag_40:\n    /* \"#utility.yul\":1352:1425   */\n  swap2\n  pop\n  pop\n    /* \"#utility.yul\":874:1431   */\n  swap3\n  pop\n  swap3\n  swap1\n  pop\n  jump\t// out\n    /* \"#utility.yul\":1436:1816   */\ntag_22:\n    /* \"#utility.yul\":1515:1516   */\n  0x01\n    /* \"#utility.yul\":1511:1523   */\n  dup2\n  dup2\n  shr\n  swap1\n    /* \"#utility.yul\":1558:1570   */\n  dup3\n  and\n  dup1\n    /* \"#utility.yul\":1579:1640   */\n  tag_42\n  jumpi\n    /* \"#utility.yul\":1633:1637   */\n  0x7f\n    /* \"#utility.yul\":1625:1631   */\n  dup3\n    /* \"#utility.yul\":1621:1638   */\n  and\n    /* \"#utility.yul\":1611:1638   */\n  swap2\n  pop\n    /* \"#utility.yul\":1579:1640   */\ntag_42:\n    /* \"#utility.yul\":1686:1688   */\n  0x20\n    /* \"#utility.yul\":1678:1684   */\n  dup3\n    /* \"#utility.yul\":1675:1689   */\n  lt\n    /* \"#utility.yul\":1655:1673   */\n  dup2\n    /* \"#utility.yul\":1652:1690   */\n  sub\n    /* \"#utility.yul\":1649:1810   */\n  tag_43\n  jumpi\n    /* \"#utility.yul\":1732:1742   */\n  0x4e487b71\n    /* \"#utility.yul\":1727:1730   */\n  0xe0\n    /* \"#utility.yul\":1723:1743   */\n  shl\n    /* \"#utility.yul\":1720:1721   */\n  0x00\n    /* \"#utility.yul\":1713:1744   */\n  mstore\n    /* \"#utility.yul\":1767:1771   */\n  0x22\n    /* \"#utility.yul\":1764:1765   */\n  0x04\n    /* \"#utility.yul\":1757:1772   */\n  mstore\n    /* \"#utility.yul\":1795:1799   */\n  0x24\n    /* \"#utility.yul\":1792:1793   */\n  0x00\n    /* \"#utility.yul\":1785:1800   */\n  revert\n    /* \"#utility.yul\":1649:1810   */\ntag_43:\n  pop\n    /* \"#utility.yul\":1436:1816   */\n  swap2\n  swap1\n  pop\n  jump\t// out\n    /* \"#utility.yul\":1947:2465   */\ntag_24:\n    /* \"#utility.yul\":2049:2051   */\n  0x1f\n    /* \"#utility.yul\":2044:2047   */\n  dup3\n    /* \"#utility.yul\":2041:2052   */\n  gt\n    /* \"#utility.yul\":2038:2459   */\n  iszero\n  tag_46\n  jumpi\n    /* \"#utility.yul\":2085:2090   */\n  dup1\n    /* \"#utility.yul\":2082:2083   */\n  0x00\n    /* \"#utility.yul\":2075:2091   */\n  mstore\n    /* \"#utility.yul\":2129:2133   */\n  0x20\n    /* \"#utility.yul\":2126:2127   */\n  0x00\n    /* \"#utility.yul\":2116:2134   */\n  keccak256\n    /* \"#utility.yul\":2199:2201   */\n  0x1f\n    /* \"#utility.yul\":2187:2197   */\n  dup5\n    /* \"#utility.yul\":2183:2202   */\n  add\n    /* \"#utility.yul\":2180:2181   */\n  0x05\n    /* \"#utility.yul\":2176:2203   */\n  shr\n    /* \"#utility.yul\":2170:2174   */\n  dup2\n    /* \"#utility.yul\":2166:2204   */\n  add\n    /* \"#utility.yul\":2235:2239   */\n  0x20\n    /* \"#utility.yul\":2223:2233   */\n  dup6\n    /* \"#utility.yul\":2220:2240   */\n  lt\n    /* \"#utility.yul\":2217:2264   */\n  iszero\n  tag_47\n  jumpi\n  pop\n    /* \"#utility.yul\":2258:2262   */\n  dup1\n    /* \"#utility.yul\":2217:2264   */\ntag_47:\n    /* \"#utility.yul\":2313:2315   */\n  0x1f\n    /* \"#utility.yul\":2308:2311   */\n  dup5\n    /* \"#utility.yul\":2304:2316   */\n  add\n    /* \"#utility.yul\":2301:2302   */\n  0x05\n    /* \"#utility.yul\":2297:2317   */\n  shr\n    /* \"#utility.yul\":2291:2295   */\n  dup3\n    /* \"#utility.yul\":2287:2318   */\n  add\n    /* \"#utility.yul\":2277:2318   */\n  swap2\n  pop\n    /* \"#utility.yul\":2368:2449   */\ntag_48:\n    /* \"#utility.yul\":2386:2388   */\n  dup2\n    /* \"#utility.yul\":2379:2384   */\n  dup2\n    /* \"#utility.yul\":2376:2389   */\n  lt\n    /* \"#utility.yul\":2368:2449   */\n  iszero\n  tag_50\n  jumpi\n    /* \"#utility.yul\":2445:2446   */\n  0x00\n    /* \"#utility.yul\":2431:2447   */\n  dup2\n  sstore\n    /* \"#utility.yul\":2412:2413   */\n  0x01\n    /* \"#utility.yul\":2401:2414   */\n  add\n    /* \"#utility.yul\":2368:2449   */\n  jump(tag_48)\ntag_50:\n    /* \"#utility.yul\":2372:2375   */\n  pop\n  pop\n    /* \"#utility.yul\":2038:2459   */\ntag_46:\n    /* \"#utility.yul\":1947:2465   */\n  pop\n  pop\n  pop\n  jump\t// out\n    /* \"#utility.yul\":2641:3940   */\ntag_9:\n    /* \"#utility.yul\":2761:2771   */\n  dup2\n  mload\n  sub(shl(0x40, 0x01), 0x01)\n    /* \"#utility.yul\":2783:2813   */\n  dup2\n  gt\n    /* \"#utility.yul\":2780:2836   */\n  iszero\n  tag_54\n  jumpi\n    /* \"#utility.yul\":2816:2834   */\n  tag_54\n  tag_20\n  jump\t// in\ntag_54:\n    /* \"#utility.yul\":2845:2942   */\n  tag_55\n    /* \"#utility.yul\":2935:2941   */\n  dup2\n    /* \"#utility.yul\":2895:2933   */\n  tag_56\n    /* \"#utility.yul\":2927:2931   */\n  dup5\n    /* \"#utility.yul\":2921:2932   */\n  sload\n    /* \"#utility.yul\":2895:2933   */\n  tag_22\n  jump\t// in\ntag_56:\n    /* \"#utility.yul\":2889:2893   */\n  dup5\n    /* \"#utility.yul\":2845:2942   */\n  tag_24\n  jump\t// in\ntag_55:\n    /* \"#utility.yul\":2991:2995   */\n  0x20\n    /* \"#utility.yul\":3022:3024   */\n  0x1f\n    /* \"#utility.yul\":3011:3025   */\n  dup3\n  gt\n    /* \"#utility.yul\":3039:3040   */\n  0x01\n    /* \"#utility.yul\":3034:3683   */\n  dup2\n  eq\n  tag_58\n  jumpi\n    /* \"#utility.yul\":3727:3728   */\n  0x00\n    /* \"#utility.yul\":3744:3750   */\n  dup4\n    /* \"#utility.yul\":3741:3830   */\n  iszero\n  tag_59\n  jumpi\n  pop\n    /* \"#utility.yul\":3796:3815   */\n  dup5\n  dup3\n  add\n    /* \"#utility.yul\":3790:3816   */\n  mload\n    /* \"#utility.yul\":3741:3830   */\ntag_59:\n  not(0x00)\n    /* \"#utility.yul\":2598:2599   */\n  0x03\n    /* \"#utility.yul\":2594:2605   */\n  dup6\n  swap1\n  shl\n    /* \"#utility.yul\":2590:2614   */\n  shr\n    /* \"#utility.yul\":2586:2615   */\n  not\n    /* \"#utility.yul\":2576:2616   */\n  and\n    /* \"#utility.yul\":2622:2623   */\n  0x01\n    /* \"#utility.yul\":2618:2629   */\n  dup5\n  swap1\n  shl\n    /* \"#utility.yul\":2573:2630   */\n  or\n    /* \"#utility.yul\":3843:3924   */\n  dup5\n  sstore\n    /* \"#utility.yul\":3004:3934   */\n  jump(tag_50)\n    /* \"#utility.yul\":3034:3683   */\ntag_58:\n    /* \"#utility.yul\":1894:1895   */\n  0x00\n    /* \"#utility.yul\":1887:1901   */\n  dup5\n  dup2\n  mstore\n    /* \"#utility.yul\":1931:1935   */\n  0x20\n    /* \"#utility.yul\":1918:1936   */\n  dup2\n  keccak256\n  not(0x1f)\n    /* \"#utility.yul\":3070:3090   */\n  dup6\n  and\n  swap2\n    /* \"#utility.yul\":3188:3410   */\ntag_62:\n    /* \"#utility.yul\":3202:3209   */\n  dup3\n    /* \"#utility.yul\":3199:3200   */\n  dup2\n    /* \"#utility.yul\":3196:3210   */\n  lt\n    /* \"#utility.yul\":3188:3410   */\n  iszero\n  tag_64\n  jumpi\n    /* \"#utility.yul\":3284:3303   */\n  dup8\n  dup6\n  add\n    /* \"#utility.yul\":3278:3304   */\n  mload\n    /* \"#utility.yul\":3263:3305   */\n  dup3\n  sstore\n    /* \"#utility.yul\":3391:3395   */\n  0x20\n    /* \"#utility.yul\":3376:3396   */\n  swap5\n  dup6\n  add\n  swap5\n    /* \"#utility.yul\":3344:3345   */\n  0x01\n    /* \"#utility.yul\":3332:3346   */\n  swap1\n  swap3\n  add\n  swap2\n    /* \"#utility.yul\":3218:3230   */\n  add\n    /* \"#utility.yul\":3188:3410   */\n  jump(tag_62)\ntag_64:\n    /* \"#utility.yul\":3192:3195   */\n  pop\n    /* \"#utility.yul\":3438:3444   */\n  dup5\n    /* \"#utility.yul\":3429:3436   */\n  dup3\n    /* \"#utility.yul\":3426:3445   */\n  lt\n    /* \"#utility.yul\":3423:3624   */\n  iszero\n  tag_65\n  jumpi\n    /* \"#utility.yul\":3499:3518   */\n  dup7\n  dup5\n  add\n    /* \"#utility.yul\":3493:3519   */\n  mload\n  not(0x00)\n    /* \"#utility.yul\":3582:3583   */\n  0x03\n    /* \"#utility.yul\":3578:3592   */\n  dup8\n  swap1\n  shl\n    /* \"#utility.yul\":3594:3597   */\n  0xf8\n    /* \"#utility.yul\":3574:3598   */\n  and\n    /* \"#utility.yul\":3570:3607   */\n  shr\n    /* \"#utility.yul\":3566:3608   */\n  not\n    /* \"#utility.yul\":3551:3609   */\n  and\n    /* \"#utility.yul\":3536:3610   */\n  dup2\n  sstore\n    /* \"#utility.yul\":3423:3624   */\ntag_65:\n  pop\n  pop\n  pop\n  pop\n    /* \"#utility.yul\":3670:3671   */\n  0x01\n    /* \"#utility.yul\":3654:3668   */\n  swap1\n  dup2\n  shl\n    /* \"#utility.yul\":3650:3672   */\n  add\n    /* \"#utility.yul\":3637:3673   */\n  swap1\n  sstore\n  pop\n    /* \"#utility.yul\":2641:3940   */\n  jump\t// out\ntag_26:\n    /* \"contracts/VaultShareToken.sol\":389:2199  contract VaultShareToken is ERC20, ERC20Burnable, Ownable {... */\n  dataSize(sub_0)\n  dup1\n  dataOffset(sub_0)\n  0x00\n  codecopy\n  0x00\n  return\nstop\n\nsub_0: assembly {\n        /* \"contracts/VaultShareToken.sol\":389:2199  contract VaultShareToken is ERC20, ERC20Burnable, Ownable {... */\n      mstore(0x40, 0x80)\n      callvalue\n      dup1\n      iszero\n      tag_1\n      jumpi\n      revert(0x00, 0x00)\n    tag_1:\n      pop\n      jumpi(tag_2, lt(calldatasize, 0x04))\n      shr(0xe0, calldataload(0x00))\n      dup1\n      0x70a08231\n      gt\n      tag_22\n      jumpi\n      dup1\n      0xa457c2d7\n      gt\n      tag_23\n      jumpi\n      dup1\n      0xa457c2d7\n      eq\n      tag_17\n      jumpi\n      dup1\n      0xa9059cbb\n      eq\n      tag_18\n      jumpi\n      dup1\n      0xdd62ed3e\n      eq\n      tag_19\n      jumpi\n      dup1\n      0xf2fde38b\n      eq\n      tag_20\n      jumpi\n      dup1\n      0xfbfa77cf\n      eq\n      tag_21\n      jumpi\n      revert(0x00, 0x00)\n    tag_23:\n      dup1\n      0x70a08231\n      eq\n      tag_12\n      jumpi\n      dup1\n      0x715018a6\n      eq\n      tag_13\n      jumpi\n      dup1\n      0x79cc6790\n      eq\n      tag_14\n      jumpi\n      dup1\n      0x8da5cb5b\n      eq\n      tag_15\n      jumpi\n      dup1\n      0x95d89b41\n      eq\n      tag_16\n      jumpi\n      revert(0x00, 0x00)\n    tag_22:\n      dup1\n      0x313ce567\n      gt\n      tag_24\n      jumpi\n      dup1\n      0x313ce567\n      eq\n      tag_7\n      jumpi\n      dup1\n      0x39509351\n      eq\n      tag_8\n      jumpi\n      dup1\n      0x40c10f19\n      eq\n      tag_9\n      jumpi\n      dup1\n      0x42966c68\n      eq\n      tag_10\n      jumpi\n      dup1\n      0x6817031b\n      eq\n      tag_11\n      jumpi\n      revert(0x00, 0x00)\n    tag_24:\n      dup1\n      0x06fdde03\n      eq\n      tag_3\n      jumpi\n      dup1\n      0x095ea7b3\n      eq\n      tag_4\n      jumpi\n      dup1\n      0x18160ddd\n      eq\n      tag_5\n      jumpi\n      dup1\n      0x23b872dd\n      eq\n      tag_6\n      jumpi\n    tag_2:\n      revert(0x00, 0x00)\n        /* \"@openzeppelin/contracts/token/ERC20/ERC20.sol\":2156:2254  function name() public view virtual override returns (string memory) {... */\n    tag_3:\n      tag_25\n      tag_26\n      jump\t// in\n    tag_25:\n      mload(0x40)\n      tag_27\n      swap2\n      swap1\n      tag_28\n      jump\t// in\n    tag_27:\n      mload(0x40)\n      dup1\n      swap2\n      sub\n      swap1\n      return\n        /* \"@openzeppelin/contracts/token/ERC20/ERC20.sol\":4433:4630  function approve(address spender, uint256 amount) public virtual override returns (bool) {... */\n    tag_4:\n      tag_29\n      tag_30\n      calldatasize\n      0x04\n      tag_31\n      jump\t// in\n    tag_30:\n      tag_32\n      jump\t// in\n    tag_29:\n      mload(0x40)\n        /* \"#utility.yul\":1085:1099   */\n      swap1\n      iszero\n        /* \"#utility.yul\":1078:1100   */\n      iszero\n        /* \"#utility.yul\":1060:1101   */\n      dup2\n      mstore\n        /* \"#utility.yul\":1048:1050   */\n      0x20\n        /* \"#utility.yul\":1033:1051   */\n      add\n        /* \"@openzeppelin/contracts/token/ERC20/ERC20.sol\":4433:4630  function approve(address spender, uint256 amount) public virtual override returns (bool) {... */\n      tag_27\n        /* \"#utility.yul\":920:1107   */\n      jump\n        /* \"@openzeppelin/contracts/token/ERC20/ERC20.sol\":3244:3350  function totalSupply() public view virtual override returns (uint256) {... */\n    tag_5:\n        /* \"@openzeppelin/contracts/token/ERC20/ERC20.sol\":3331:3343  _totalSupply */\n      sload(0x02)\n        /* \"@openzeppelin/contracts/token/ERC20/ERC20.sol\":3244:3350  function totalSupply() public view virtual override returns (uint256) {... */\n    tag_35:\n      mload(0x40)\n        /* \"#utility.yul\":1258:1283   */\n      swap1\n      dup2\n      mstore\n        /* \"#utility.yul\":1246:1248   */\n      0x20\n        /* \"#utility.yul\":1231:1249   */\n      add\n        /* \"@openzeppelin/contracts/token/ERC20/ERC20.sol\":3244:3350  function totalSupply() public view virtual override returns (uint256) {... */\n      tag_27\n        /* \"#utility.yul\":1112:1289   */\n      jump\n        /* \"@openzeppelin/contracts/token/ERC20/ERC20.sol\":5192:5478  function transferFrom(... */\n    tag_6:\n      tag_29\n      tag_40\n      calldatasize\n      0x04\n      tag_41\n      jump\t// in\n    tag_40:\n      tag_42\n      jump\t// in\n        /* \"@openzeppelin/contracts/token/ERC20/ERC20.sol\":3093:3184  function decimals() public view virtual override returns (uint8) {... */\n    tag_7:\n      mload(0x40)\n        /* \"@openzeppelin/contracts/token/ERC20/ERC20.sol\":3175:3177  18 */\n      0x12\n        /* \"#utility.yul\":1815:1851   */\n      dup2\n      mstore\n        /* \"#utility.yul\":1803:1805   */\n      0x20\n        /* \"#utility.yul\":1788:1806   */\n      add\n        /* \"@openzeppelin/contracts/token/ERC20/ERC20.sol\":3093:3184  function decimals() public view virtual override returns (uint8) {... */\n      tag_27\n        /* \"#utility.yul\":1673:1857   */\n      jump\n        /* \"@openzeppelin/contracts/token/ERC20/ERC20.sol\":5873:6109  function increaseAllowance(address spender, uint256 addedValue) public virtual returns (bool) {... */\n    tag_8:\n      tag_29\n      tag_49\n      calldatasize\n      0x04\n      tag_31\n      jump\t// in\n    tag_49:\n      tag_50\n      jump\t// in\n        /* \"contracts/VaultShareToken.sol\":1373:1536  function mint(address to, uint256 amount) external {... */\n    tag_9:\n      tag_52\n      tag_53\n      calldatasize\n      0x04\n      tag_31\n      jump\t// in\n    tag_53:\n      tag_54\n      jump\t// in\n    tag_52:\n      stop\n        /* \"contracts/VaultShareToken.sol\":1659:1818  function burn(uint256 amount) public override {... */\n    tag_10:\n      tag_52\n      tag_56\n      calldatasize\n      0x04\n      tag_57\n      jump\t// in\n    tag_56:\n      tag_58\n      jump\t// in\n        /* \"contracts/VaultShareToken.sol\":947:1201  function setVault(address _vault) external onlyOwner {... */\n    tag_11:\n      tag_52\n      tag_60\n      calldatasize\n      0x04\n      tag_61\n      jump\t// in\n    tag_60:\n      tag_62\n      jump\t// in\n        /* \"@openzeppelin/contracts/token/ERC20/ERC20.sol\":3408:3533  function balanceOf(address account) public view virtual override returns (uint256) {... */\n    tag_12:\n      tag_35\n      tag_64\n      calldatasize\n      0x04\n      tag_61\n      jump\t// in\n    tag_64:\n      sub(shl(0xa0, 0x01), 0x01)\n        /* \"@openzeppelin/contracts/token/ERC20/ERC20.sol\":3508:3526  _balances[account] */\n      and\n        /* \"@openzeppelin/contracts/token/ERC20/ERC20.sol\":3482:3489  uint256 */\n      0x00\n        /* \"@openzeppelin/contracts/token/ERC20/ERC20.sol\":3508:3526  _balances[account] */\n      swap1\n      dup2\n      mstore\n      0x20\n      dup2\n      swap1\n      mstore\n      0x40\n      swap1\n      keccak256\n      sload\n      swap1\n        /* \"@openzeppelin/contracts/token/ERC20/ERC20.sol\":3408:3533  function balanceOf(address account) public view virtual override returns (uint256) {... */\n      jump\n        /* \"@openzeppelin/contracts/access/Ownable.sol\":1668:1769  function renounceOwnership() public virtual onlyOwner {... */\n    tag_13:\n      tag_52\n      tag_68\n      jump\t// in\n        /* \"contracts/VaultShareToken.sol\":2004:2197  function burnFrom(address account, uint256 amount) public override {... */\n    tag_14:\n      tag_52\n      tag_70\n      calldatasize\n      0x04\n      tag_31\n      jump\t// in\n    tag_70:\n      tag_71\n      jump\t// in\n        /* \"@openzeppelin/contracts/access/Ownable.sol\":1036:1121  function owner() public view virtual returns (address) {... */\n    tag_15:\n        /* \"@openzeppelin/contracts/access/Ownable.sol\":1108:1114  _owner */\n      and(sub(shl(0xa0, 0x01), 0x01), sload(0x05))\n        /* \"@openzeppelin/contracts/access/Ownable.sol\":1036:1121  function owner() public view virtual returns (address) {... */\n    tag_72:\n      mload(0x40)\n      sub(shl(0xa0, 0x01), 0x01)\n        /* \"#utility.yul\":2448:2480   */\n      swap1\n      swap2\n      and\n        /* \"#utility.yul\":2430:2481   */\n      dup2\n      mstore\n        /* \"#utility.yul\":2418:2420   */\n      0x20\n        /* \"#utility.yul\":2403:2421   */\n      add\n        /* \"@openzeppelin/contracts/access/Ownable.sol\":1036:1121  function owner() public view virtual returns (address) {... */\n      tag_27\n        /* \"#utility.yul\":2284:2487   */\n      jump\n        /* \"@openzeppelin/contracts/token/ERC20/ERC20.sol\":2367:2469  function symbol() public view virtual override returns (string memory) {... */\n    tag_16:\n      tag_25\n      tag_77\n      jump\t// in\n        /* \"@openzeppelin/contracts/token/ERC20/ERC20.sol\":6596:7025  function decreaseAllowance(address spender, uint256 subtractedValue) public virtual returns (bool) {... */\n    tag_17:\n      tag_29\n      tag_80\n      calldatasize\n      0x04\n      tag_31\n      jump\t// in\n    tag_80:\n      tag_81\n      jump\t// in\n        /* \"@openzeppelin/contracts/token/ERC20/ERC20.sol\":3729:3918  function transfer(address to, uint256 amount) public virtual override returns (bool) {... */\n    tag_18:\n      tag_29\n      tag_84\n      calldatasize\n      0x04\n      tag_31\n      jump\t// in\n    tag_84:\n      tag_85\n      jump\t// in\n        /* \"@openzeppelin/contracts/token/ERC20/ERC20.sol\":3976:4125  function allowance(address owner, address spender) public view virtual override returns (uint256) {... */\n    tag_19:\n      tag_35\n      tag_88\n      calldatasize\n      0x04\n      tag_89\n      jump\t// in\n    tag_88:\n      sub(shl(0xa0, 0x01), 0x01)\n        /* \"@openzeppelin/contracts/token/ERC20/ERC20.sol\":4091:4109  _allowances[owner] */\n      swap2\n      dup3\n      and\n        /* \"@openzeppelin/contracts/token/ERC20/ERC20.sol\":4065:4072  uint256 */\n      0x00\n        /* \"@openzeppelin/contracts/token/ERC20/ERC20.sol\":4091:4109  _allowances[owner] */\n      swap1\n      dup2\n      mstore\n        /* \"@openzeppelin/contracts/token/ERC20/ERC20.sol\":4091:4102  _allowances */\n      0x01\n        /* \"@openzeppelin/contracts/token/ERC20/ERC20.sol\":4091:4109  _allowances[owner] */\n      0x20\n      swap1\n      dup2\n      mstore\n      0x40\n      dup1\n      dup4\n      keccak256\n        /* \"@openzeppelin/contracts/token/ERC20/ERC20.sol\":4091:4118  _allowances[owner][spender] */\n      swap4\n      swap1\n      swap5\n      and\n      dup3\n      mstore\n      swap2\n      swap1\n      swap2\n      mstore\n      keccak256\n      sload\n      swap1\n        /* \"@openzeppelin/contracts/token/ERC20/ERC20.sol\":3976:4125  function allowance(address owner, address spender) public view virtual override returns (uint256) {... */\n      jump\n        /* \"@openzeppelin/contracts/access/Ownable.sol\":1918:2116  function transferOwnership(address newOwner) public virtual onlyOwner {... */\n    tag_20:\n      tag_52\n      tag_93\n      calldatasize\n      0x04\n      tag_61\n      jump\t// in\n    tag_93:\n      tag_94\n      jump\t// in\n        /* \"contracts/VaultShareToken.sol\":453:473  address public vault */\n    tag_21:\n      sload(0x06)\n      tag_72\n      swap1\n      sub(shl(0xa0, 0x01), 0x01)\n      and\n      dup2\n      jump\n        /* \"@openzeppelin/contracts/token/ERC20/ERC20.sol\":2156:2254  function name() public view virtual override returns (string memory) {... */\n    tag_26:\n        /* \"@openzeppelin/contracts/token/ERC20/ERC20.sol\":2210:2223  string memory */\n      0x60\n        /* \"@openzeppelin/contracts/token/ERC20/ERC20.sol\":2242:2247  _name */\n      0x03\n        /* \"@openzeppelin/contracts/token/ERC20/ERC20.sol\":2235:2247  return _name */\n      dup1\n      sload\n      tag_99\n      swap1\n      tag_100\n      jump\t// in\n    tag_99:\n      dup1\n      0x1f\n      add\n      0x20\n      dup1\n      swap2\n      div\n      mul\n      0x20\n      add\n      mload(0x40)\n      swap1\n      dup2\n      add\n      0x40\n      mstore\n      dup1\n      swap3\n      swap2\n      swap1\n      dup2\n      dup2\n      mstore\n      0x20\n      add\n      dup3\n      dup1\n      sload\n      tag_101\n      swap1\n      tag_100\n      jump\t// in\n    tag_101:\n      dup1\n      iszero\n      tag_102\n      jumpi\n      dup1\n      0x1f\n      lt\n      tag_103\n      jumpi\n      0x0100\n      dup1\n      dup4\n      sload\n      div\n      mul\n      dup4\n      mstore\n      swap2\n      0x20\n      add\n      swap2\n      jump(tag_102)\n    tag_103:\n      dup3\n      add\n      swap2\n      swap1\n      0x00\n      mstore\n      keccak256(0x00, 0x20)\n      swap1\n    tag_104:\n      dup2\n      sload\n      dup2\n      mstore\n      swap1\n      0x01\n      add\n      swap1\n      0x20\n      add\n      dup1\n      dup4\n      gt\n      tag_104\n      jumpi\n      dup3\n      swap1\n      sub\n      0x1f\n      and\n      dup3\n      add\n      swap2\n    tag_102:\n      pop\n      pop\n      pop\n      pop\n      pop\n      swap1\n      pop\n        /* \"@openzeppelin/contracts/token/ERC20/ERC20.sol\":2156:2254  function name() public view virtual override returns (string memory) {... */\n      swap1\n      jump\t// out\n        /* \"@openzeppelin/contracts/token/ERC20/ERC20.sol\":4433:4630  function approve(address spender, uint256 amount) public virtual override returns (bool) {... */\n    tag_32:\n        /* \"@openzeppelin/contracts/token/ERC20/ERC20.sol\":4516:4520  bool */\n      0x00\n        /* \"@openzeppelin/contracts/utils/Context.sol\":719:729  msg.sender */\n      caller\n        /* \"@openzeppelin/contracts/token/ERC20/ERC20.sol\":4570:4602  _approve(owner, spender, amount) */\n      tag_108\n        /* \"@openzeppelin/contracts/utils/Context.sol\":719:729  msg.sender */\n      dup2\n        /* \"@openzeppelin/contracts/token/ERC20/ERC20.sol\":4586:4593  spender */\n      dup6\n        /* \"@openzeppelin/contracts/token/ERC20/ERC20.sol\":4595:4601  amount */\n      dup6\n        /* \"@openzeppelin/contracts/token/ERC20/ERC20.sol\":4570:4578  _approve */\n      tag_109\n        /* \"@openzeppelin/contracts/token/ERC20/ERC20.sol\":4570:4602  _approve(owner, spender, amount) */\n      jump\t// in\n    tag_108:\n        /* \"@openzeppelin/contracts/token/ERC20/ERC20.sol\":4619:4623  true */\n      0x01\n        /* \"@openzeppelin/contracts/token/ERC20/ERC20.sol\":4612:4623  return true */\n      swap2\n      pop\n      pop\n        /* \"@openzeppelin/contracts/token/ERC20/ERC20.sol\":4433:4630  function approve(address spender, uint256 amount) public virtual override returns (bool) {... */\n    tag_105:\n      swap3\n      swap2\n      pop\n      pop\n      jump\t// out\n        /* \"@openzeppelin/contracts/token/ERC20/ERC20.sol\":5192:5478  function transferFrom(... */\n    tag_42:\n        /* \"@openzeppelin/contracts/token/ERC20/ERC20.sol\":5319:5323  bool */\n      0x00\n        /* \"@openzeppelin/contracts/utils/Context.sol\":719:729  msg.sender */\n      caller\n        /* \"@openzeppelin/contracts/token/ERC20/ERC20.sol\":5375:5413  _spendAllowance(from, spender, amount) */\n      tag_113\n        /* \"@openzeppelin/contracts/token/ERC20/ERC20.sol\":5391:5395  from */\n      dup6\n        /* \"@openzeppelin/contracts/utils/Context.sol\":719:729  msg.sender */\n      dup3\n        /* \"@openzeppelin/contracts/token/ERC20/ERC20.sol\":5406:5412  amount */\n      dup6\n        /* \"@openzeppelin/contracts/token/ERC20/ERC20.sol\":5375:5390  _spendAllowance */\n      tag_114\n        /* \"@openzeppelin/contracts/token/ERC20/ERC20.sol\":5375:5413  _spendAllowance(from, spender, amount) */\n      jump\t// in\n    tag_113:\n        /* \"@openzeppelin/contracts/token/ERC20/ERC20.sol\":5423:5450  _transfer(from, to, amount) */\n      tag_115\n        /* \"@openzeppelin/contracts/token/ERC20/ERC20.sol\":5433:5437  from */\n      dup6\n        /* \"@openzeppelin/contracts/token/ERC20/ERC20.sol\":5439:5441  to */\n      dup6\n        /* \"@openzeppelin/contracts/token/ERC20/ERC20.sol\":5443:5449  amount */\n      dup6\n        /* \"@openzeppelin/contracts/token/ERC20/ERC20.sol\":5423:5432  _transfer */\n      tag_116\n        /* \"@openzeppelin/contracts/token/ERC20/ERC20.sol\":5423:5450  _transfer(from, to, amount) */\n      jump\t// in\n    tag_115:\n      pop\n        /* \"@openzeppelin/contracts/token/ERC20/ERC20.sol\":5467:5471  true */\n      0x01\n      swap5\n        /* \"@openzeppelin/contracts/token/ERC20/ERC20.sol\":5192:5478  function transferFrom(... */\n      swap4\n      pop\n      pop\n      pop\n      pop\n      jump\t// out\n        /* \"@openzeppelin/contracts/token/ERC20/ERC20.sol\":5873:6109  function increaseAllowance(address spender, uint256 addedValue) public virtual returns (bool) {... */\n    tag_50:\n        /* \"@openzeppelin/contracts/utils/Context.sol\":719:729  msg.sender */\n      caller\n        /* \"@openzeppelin/contracts/token/ERC20/ERC20.sol\":5961:5965  bool */\n      0x00\n        /* \"@openzeppelin/contracts/token/ERC20/ERC20.sol\":6040:6058  _allowances[owner] */\n      dup2\n      dup2\n      mstore\n        /* \"@openzeppelin/contracts/token/ERC20/ERC20.sol\":6040:6051  _allowances */\n      0x01\n        /* \"@openzeppelin/contracts/token/ERC20/ERC20.sol\":6040:6058  _allowances[owner] */\n      0x20\n      swap1\n      dup2\n      mstore\n      0x40\n      dup1\n      dup4\n      keccak256\n      sub(shl(0xa0, 0x01), 0x01)\n        /* \"@openzeppelin/contracts/token/ERC20/ERC20.sol\":6040:6067  _allowances[owner][spender] */\n      dup8\n      and\n      dup5\n      mstore\n      swap1\n      swap2\n      mstore\n      dup2\n      keccak256\n      sload\n        /* \"@openzeppelin/contracts/token/ERC20/ERC20.sol\":5961:5965  bool */\n      swap1\n      swap2\n        /* \"@openzeppelin/contracts/utils/Context.sol\":719:729  msg.sender */\n      swap1\n        /* \"@openzeppelin/contracts/token/ERC20/ERC20.sol\":6015:6081  _approve(owner, spender, _allowances[owner][spender] + addedValue) */\n      tag_108\n      swap1\n        /* \"@openzeppelin/contracts/utils/Context.sol\":719:729  msg.sender */\n      dup3\n      swap1\n        /* \"@openzeppelin/contracts/token/ERC20/ERC20.sol\":6040:6067  _allowances[owner][spender] */\n      dup7\n      swap1\n        /* \"@openzeppelin/contracts/token/ERC20/ERC20.sol\":6040:6080  _allowances[owner][spender] + addedValue */\n      tag_121\n      swap1\n        /* \"@openzeppelin/contracts/token/ERC20/ERC20.sol\":6070:6080  addedValue */\n      dup8\n      swap1\n        /* \"@openzeppelin/contracts/token/ERC20/ERC20.sol\":6040:6080  _allowances[owner][spender] + addedValue */\n      tag_122\n      jump\t// in\n    tag_121:\n        /* \"@openzeppelin/contracts/token/ERC20/ERC20.sol\":6015:6023  _approve */\n      tag_109\n        /* \"@openzeppelin/contracts/token/ERC20/ERC20.sol\":6015:6081  _approve(owner, spender, _allowances[owner][spender] + addedValue) */\n      jump\t// in\n        /* \"contracts/VaultShareToken.sol\":1373:1536  function mint(address to, uint256 amount) external {... */\n    tag_54:\n        /* \"contracts/VaultShareToken.sol\":1456:1461  vault */\n      and(sub(shl(0xa0, 0x01), 0x01), sload(0x06))\n        /* \"contracts/VaultShareToken.sol\":1442:1452  msg.sender */\n      caller\n        /* \"contracts/VaultShareToken.sol\":1442:1461  msg.sender == vault */\n      eq\n        /* \"contracts/VaultShareToken.sol\":1434:1502  require(msg.sender == vault, \"VaultShareToken: only vault can mint\") */\n      tag_124\n      jumpi\n      mload(0x40)\n      shl(0xe5, 0x461bcd)\n      dup2\n      mstore\n        /* \"#utility.yul\":3606:3608   */\n      0x20\n        /* \"contracts/VaultShareToken.sol\":1434:1502  require(msg.sender == vault, \"VaultShareToken: only vault can mint\") */\n      0x04\n      dup3\n      add\n        /* \"#utility.yul\":3588:3609   */\n      mstore\n        /* \"#utility.yul\":3645:3647   */\n      0x24\n        /* \"#utility.yul\":3625:3643   */\n      dup1\n      dup3\n      add\n        /* \"#utility.yul\":3618:3648   */\n      mstore\n        /* \"#utility.yul\":3684:3718   */\n      0x5661756c745368617265546f6b656e3a206f6e6c79207661756c742063616e20\n        /* \"#utility.yul\":3664:3682   */\n      0x44\n      dup3\n      add\n        /* \"#utility.yul\":3657:3719   */\n      mstore\n      shl(0xe2, 0x1b5a5b9d)\n        /* \"#utility.yul\":3735:3753   */\n      0x64\n      dup3\n      add\n        /* \"#utility.yul\":3728:3762   */\n      mstore\n        /* \"#utility.yul\":3779:3798   */\n      0x84\n      add\n        /* \"contracts/VaultShareToken.sol\":1434:1502  require(msg.sender == vault, \"VaultShareToken: only vault can mint\") */\n    tag_125:\n      mload(0x40)\n      dup1\n      swap2\n      sub\n      swap1\n      revert\n    tag_124:\n        /* \"contracts/VaultShareToken.sol\":1512:1529  _mint(to, amount) */\n      tag_127\n        /* \"contracts/VaultShareToken.sol\":1518:1520  to */\n      dup3\n        /* \"contracts/VaultShareToken.sol\":1522:1528  amount */\n      dup3\n        /* \"contracts/VaultShareToken.sol\":1512:1517  _mint */\n      tag_128\n        /* \"contracts/VaultShareToken.sol\":1512:1529  _mint(to, amount) */\n      jump\t// in\n    tag_127:\n        /* \"contracts/VaultShareToken.sol\":1373:1536  function mint(address to, uint256 amount) external {... */\n      pop\n      pop\n      jump\t// out\n        /* \"contracts/VaultShareToken.sol\":1659:1818  function burn(uint256 amount) public override {... */\n    tag_58:\n        /* \"contracts/VaultShareToken.sol\":1737:1742  vault */\n      and(sub(shl(0xa0, 0x01), 0x01), sload(0x06))\n        /* \"contracts/VaultShareToken.sol\":1723:1733  msg.sender */\n      caller\n        /* \"contracts/VaultShareToken.sol\":1723:1742  msg.sender == vault */\n      eq\n        /* \"contracts/VaultShareToken.sol\":1715:1783  require(msg.sender == vault, \"VaultShareToken: only vault can burn\") */\n      tag_130\n      jumpi\n      mload(0x40)\n      shl(0xe5, 0x461bcd)\n      dup2\n      mstore\n      0x04\n      add\n      tag_125\n      swap1\n      tag_132\n      jump\t// in\n    tag_130:\n        /* \"contracts/VaultShareToken.sol\":1793:1811  super.burn(amount) */\n      tag_133\n        /* \"contracts/VaultShareToken.sol\":1804:1810  amount */\n      dup2\n        /* \"contracts/VaultShareToken.sol\":1793:1803  super.burn */\n      tag_134\n        /* \"contracts/VaultShareToken.sol\":1793:1811  super.burn(amount) */\n      jump\t// in\n    tag_133:\n        /* \"contracts/VaultShareToken.sol\":1659:1818  function burn(uint256 amount) public override {... */\n      pop\n      jump\t// out\n        /* \"contracts/VaultShareToken.sol\":947:1201  function setVault(address _vault) external onlyOwner {... */\n    tag_62:\n        /* \"@openzeppelin/contracts/access/Ownable.sol\":1108:1114  _owner */\n      and(sub(shl(0xa0, 0x01), 0x01), sload(0x05))\n        /* \"@openzeppelin/contracts/utils/Context.sol\":719:729  msg.sender */\n      caller\n        /* \"@openzeppelin/contracts/access/Ownable.sol\":1248:1271  owner() == _msgSender() */\n      eq\n        /* \"@openzeppelin/contracts/access/Ownable.sol\":1240:1308  require(owner() == _msgSender(), \"Ownable: caller is not the owner\") */\n      tag_138\n      jumpi\n      mload(0x40)\n      shl(0xe5, 0x461bcd)\n      dup2\n      mstore\n      0x04\n      add\n      tag_125\n      swap1\n      tag_140\n      jump\t// in\n    tag_138:\n      sub(shl(0xa0, 0x01), 0x01)\n        /* \"contracts/VaultShareToken.sol\":1018:1038  _vault != address(0) */\n      dup2\n      and\n        /* \"contracts/VaultShareToken.sol\":1010:1088  require(_vault != address(0), \"VaultShareToken: vault cannot be zero address\") */\n      tag_142\n      jumpi\n      mload(0x40)\n      shl(0xe5, 0x461bcd)\n      dup2\n      mstore\n        /* \"#utility.yul\":4777:4779   */\n      0x20\n        /* \"contracts/VaultShareToken.sol\":1010:1088  require(_vault != address(0), \"VaultShareToken: vault cannot be zero address\") */\n      0x04\n      dup3\n      add\n        /* \"#utility.yul\":4759:4780   */\n      mstore\n        /* \"#utility.yul\":4816:4818   */\n      0x2d\n        /* \"#utility.yul\":4796:4814   */\n      0x24\n      dup3\n      add\n        /* \"#utility.yul\":4789:4819   */\n      mstore\n        /* \"#utility.yul\":4855:4889   */\n      0x5661756c745368617265546f6b656e3a207661756c742063616e6e6f74206265\n        /* \"#utility.yul\":4835:4853   */\n      0x44\n      dup3\n      add\n        /* \"#utility.yul\":4828:4890   */\n      mstore\n      shl(0x98, 0x207a65726f2061646472657373)\n        /* \"#utility.yul\":4906:4924   */\n      0x64\n      dup3\n      add\n        /* \"#utility.yul\":4899:4942   */\n      mstore\n        /* \"#utility.yul\":4959:4978   */\n      0x84\n      add\n        /* \"contracts/VaultShareToken.sol\":1010:1088  require(_vault != address(0), \"VaultShareToken: vault cannot be zero address\") */\n      tag_125\n        /* \"#utility.yul\":4575:4984   */\n      jump\n        /* \"contracts/VaultShareToken.sol\":1010:1088  require(_vault != address(0), \"VaultShareToken: vault cannot be zero address\") */\n    tag_142:\n        /* \"contracts/VaultShareToken.sol\":1117:1122  vault */\n      0x06\n      dup1\n      sload\n      sub(shl(0xa0, 0x01), 0x01)\n        /* \"contracts/VaultShareToken.sol\":1132:1146  vault = _vault */\n      dup4\n      dup2\n      and\n      not(sub(shl(0xa0, 0x01), 0x01))\n      dup4\n      and\n      dup2\n      or\n      swap1\n      swap4\n      sstore\n        /* \"contracts/VaultShareToken.sol\":1161:1194  VaultAddressSet(oldVault, _vault) */\n      mload(0x40)\n        /* \"contracts/VaultShareToken.sol\":1117:1122  vault */\n      swap2\n      and\n      swap2\n        /* \"contracts/VaultShareToken.sol\":1132:1146  vault = _vault */\n      swap1\n        /* \"contracts/VaultShareToken.sol\":1117:1122  vault */\n      dup3\n      swap1\n        /* \"contracts/VaultShareToken.sol\":1161:1194  VaultAddressSet(oldVault, _vault) */\n      0xa7e0c3d8f7eef668a3772dd695704a83d3c31bac643fa043459f2a016aec83d1\n      swap1\n        /* \"contracts/VaultShareToken.sol\":1098:1114  address oldVault */\n      0x00\n      swap1\n        /* \"contracts/VaultShareToken.sol\":1161:1194  VaultAddressSet(oldVault, _vault) */\n      log3\n        /* \"contracts/VaultShareToken.sol\":1000:1201  {... */\n      pop\n        /* \"contracts/VaultShareToken.sol\":947:1201  function setVault(address _vault) external onlyOwner {... */\n      pop\n      jump\t// out\n        /* \"@openzeppelin/contracts/access/Ownable.sol\":1668:1769  function renounceOwnership() public virtual onlyOwner {... */\n    tag_68:\n        /* \"@openzeppelin/contracts/access/Ownable.sol\":1108:1114  _owner */\n      and(sub(shl(0xa0, 0x01), 0x01), sload(0x05))\n        /* \"@openzeppelin/contracts/utils/Context.sol\":719:729  msg.sender */\n      caller\n        /* \"@openzeppelin/contracts/access/Ownable.sol\":1248:1271  owner() == _msgSender() */\n      eq\n        /* \"@openzeppelin/contracts/access/Ownable.sol\":1240:1308  require(owner() == _msgSender(), \"Ownable: caller is not the owner\") */\n      tag_149\n      jumpi\n      mload(0x40)\n      shl(0xe5, 0x461bcd)\n      dup2\n      mstore\n      0x04\n      add\n      tag_125\n      swap1\n      tag_140\n      jump\t// in\n    tag_149:\n        /* \"@openzeppelin/contracts/access/Ownable.sol\":1732:1762  _transferOwnership(address(0)) */\n      tag_152\n        /* \"@openzeppelin/contracts/access/Ownable.sol\":1759:1760  0 */\n      0x00\n        /* \"@openzeppelin/contracts/access/Ownable.sol\":1732:1750  _transferOwnership */\n      tag_153\n        /* \"@openzeppelin/contracts/access/Ownable.sol\":1732:1762  _transferOwnership(address(0)) */\n      jump\t// in\n    tag_152:\n        /* \"@openzeppelin/contracts/access/Ownable.sol\":1668:1769  function renounceOwnership() public virtual onlyOwner {... */\n      jump\t// out\n        /* \"contracts/VaultShareToken.sol\":2004:2197  function burnFrom(address account, uint256 amount) public override {... */\n    tag_71:\n        /* \"contracts/VaultShareToken.sol\":2103:2108  vault */\n      and(sub(shl(0xa0, 0x01), 0x01), sload(0x06))\n        /* \"contracts/VaultShareToken.sol\":2089:2099  msg.sender */\n      caller\n        /* \"contracts/VaultShareToken.sol\":2089:2108  msg.sender == vault */\n      eq\n        /* \"contracts/VaultShareToken.sol\":2081:2149  require(msg.sender == vault, \"VaultShareToken: only vault can burn\") */\n      tag_155\n      jumpi\n      mload(0x40)\n      shl(0xe5, 0x461bcd)\n      dup2\n      mstore\n      0x04\n      add\n      tag_125\n      swap1\n      tag_132\n      jump\t// in\n    tag_155:\n        /* \"contracts/VaultShareToken.sol\":2159:2190  super.burnFrom(account, amount) */\n      tag_127\n        /* \"contracts/VaultShareToken.sol\":2174:2181  account */\n      dup3\n        /* \"contracts/VaultShareToken.sol\":2183:2189  amount */\n      dup3\n        /* \"contracts/VaultShareToken.sol\":2159:2173  super.burnFrom */\n      tag_158\n        /* \"contracts/VaultShareToken.sol\":2159:2190  super.burnFrom(account, amount) */\n      jump\t// in\n        /* \"@openzeppelin/contracts/token/ERC20/ERC20.sol\":2367:2469  function symbol() public view virtual override returns (string memory) {... */\n    tag_77:\n        /* \"@openzeppelin/contracts/token/ERC20/ERC20.sol\":2423:2436  string memory */\n      0x60\n        /* \"@openzeppelin/contracts/token/ERC20/ERC20.sol\":2455:2462  _symbol */\n      0x04\n        /* \"@openzeppelin/contracts/token/ERC20/ERC20.sol\":2448:2462  return _symbol */\n      dup1\n      sload\n      tag_99\n      swap1\n      tag_100\n      jump\t// in\n        /* \"@openzeppelin/contracts/token/ERC20/ERC20.sol\":6596:7025  function decreaseAllowance(address spender, uint256 subtractedValue) public virtual returns (bool) {... */\n    tag_81:\n        /* \"@openzeppelin/contracts/utils/Context.sol\":719:729  msg.sender */\n      caller\n        /* \"@openzeppelin/contracts/token/ERC20/ERC20.sol\":6689:6693  bool */\n      0x00\n        /* \"@openzeppelin/contracts/token/ERC20/ERC20.sol\":6770:6788  _allowances[owner] */\n      dup2\n      dup2\n      mstore\n        /* \"@openzeppelin/contracts/token/ERC20/ERC20.sol\":6770:6781  _allowances */\n      0x01\n        /* \"@openzeppelin/contracts/token/ERC20/ERC20.sol\":6770:6788  _allowances[owner] */\n      0x20\n      swap1\n      dup2\n      mstore\n      0x40\n      dup1\n      dup4\n      keccak256\n      sub(shl(0xa0, 0x01), 0x01)\n        /* \"@openzeppelin/contracts/token/ERC20/ERC20.sol\":6770:6797  _allowances[owner][spender] */\n      dup8\n      and\n      dup5\n      mstore\n      swap1\n      swap2\n      mstore\n      dup2\n      keccak256\n      sload\n        /* \"@openzeppelin/contracts/token/ERC20/ERC20.sol\":6689:6693  bool */\n      swap1\n      swap2\n        /* \"@openzeppelin/contracts/utils/Context.sol\":719:729  msg.sender */\n      swap1\n        /* \"@openzeppelin/contracts/token/ERC20/ERC20.sol\":6815:6850  currentAllowance >= subtractedValue */\n      dup4\n      dup2\n      lt\n      iszero\n        /* \"@openzeppelin/contracts/token/ERC20/ERC20.sol\":6807:6892  require(currentAllowance >= subtractedValue, \"ERC20: decreased allowance below zero\") */\n      tag_168\n      jumpi\n      mload(0x40)\n      shl(0xe5, 0x461bcd)\n      dup2\n      mstore\n        /* \"#utility.yul\":5191:5193   */\n      0x20\n        /* \"@openzeppelin/contracts/token/ERC20/ERC20.sol\":6807:6892  require(currentAllowance >= subtractedValue, \"ERC20: decreased allowance below zero\") */\n      0x04\n      dup3\n      add\n        /* \"#utility.yul\":5173:5194   */\n      mstore\n        /* \"#utility.yul\":5230:5232   */\n      0x25\n        /* \"#utility.yul\":5210:5228   */\n      0x24\n      dup3\n      add\n        /* \"#utility.yul\":5203:5233   */\n      mstore\n        /* \"#utility.yul\":5269:5303   */\n      0x45524332303a2064656372656173656420616c6c6f77616e63652062656c6f77\n        /* \"#utility.yul\":5249:5267   */\n      0x44\n      dup3\n      add\n        /* \"#utility.yul\":5242:5304   */\n      mstore\n      shl(0xd8, 0x207a65726f)\n        /* \"#utility.yul\":5320:5338   */\n      0x64\n      dup3\n      add\n        /* \"#utility.yul\":5313:5348   */\n      mstore\n        /* \"#utility.yul\":5365:5384   */\n      0x84\n      add\n        /* \"@openzeppelin/contracts/token/ERC20/ERC20.sol\":6807:6892  require(currentAllowance >= subtractedValue, \"ERC20: decreased allowance below zero\") */\n      tag_125\n        /* \"#utility.yul\":4989:5390   */\n      jump\n        /* \"@openzeppelin/contracts/token/ERC20/ERC20.sol\":6807:6892  require(currentAllowance >= subtractedValue, \"ERC20: decreased allowance below zero\") */\n    tag_168:\n        /* \"@openzeppelin/contracts/token/ERC20/ERC20.sol\":6926:6986  _approve(owner, spender, currentAllowance - subtractedValue) */\n      tag_115\n        /* \"@openzeppelin/contracts/token/ERC20/ERC20.sol\":6935:6940  owner */\n      dup3\n        /* \"@openzeppelin/contracts/token/ERC20/ERC20.sol\":6942:6949  spender */\n      dup7\n        /* \"@openzeppelin/contracts/token/ERC20/ERC20.sol\":6970:6985  subtractedValue */\n      dup7\n        /* \"@openzeppelin/contracts/token/ERC20/ERC20.sol\":6951:6967  currentAllowance */\n      dup5\n        /* \"@openzeppelin/contracts/token/ERC20/ERC20.sol\":6951:6985  currentAllowance - subtractedValue */\n      sub\n        /* \"@openzeppelin/contracts/token/ERC20/ERC20.sol\":6926:6934  _approve */\n      tag_109\n        /* \"@openzeppelin/contracts/token/ERC20/ERC20.sol\":6926:6986  _approve(owner, spender, currentAllowance - subtractedValue) */\n      jump\t// in\n        /* \"@openzeppelin/contracts/token/ERC20/ERC20.sol\":3729:3918  function transfer(address to, uint256 amount) public virtual override returns (bool) {... */\n    tag_85:\n        /* \"@openzeppelin/contracts/token/ERC20/ERC20.sol\":3808:3812  bool */\n      0x00\n        /* \"@openzeppelin/contracts/utils/Context.sol\":719:729  msg.sender */\n      caller\n        /* \"@openzeppelin/contracts/token/ERC20/ERC20.sol\":3862:3890  _transfer(owner, to, amount) */\n      tag_108\n        /* \"@openzeppelin/contracts/utils/Context.sol\":719:729  msg.sender */\n      dup2\n        /* \"@openzeppelin/contracts/token/ERC20/ERC20.sol\":3879:3881  to */\n      dup6\n        /* \"@openzeppelin/contracts/token/ERC20/ERC20.sol\":3883:3889  amount */\n      dup6\n        /* \"@openzeppelin/contracts/token/ERC20/ERC20.sol\":3862:3871  _transfer */\n      tag_116\n        /* \"@openzeppelin/contracts/token/ERC20/ERC20.sol\":3862:3890  _transfer(owner, to, amount) */\n      jump\t// in\n        /* \"@openzeppelin/contracts/access/Ownable.sol\":1918:2116  function transferOwnership(address newOwner) public virtual onlyOwner {... */\n    tag_94:\n        /* \"@openzeppelin/contracts/access/Ownable.sol\":1108:1114  _owner */\n      and(sub(shl(0xa0, 0x01), 0x01), sload(0x05))\n        /* \"@openzeppelin/contracts/utils/Context.sol\":719:729  msg.sender */\n      caller\n        /* \"@openzeppelin/contracts/access/Ownable.sol\":1248:1271  owner() == _msgSender() */\n      eq\n        /* \"@openzeppelin/contracts/access/Ownable.sol\":1240:1308  require(owner() == _msgSender(), \"Ownable: caller is not the owner\") */\n      tag_179\n      jumpi\n      mload(0x40)\n      shl(0xe5, 0x461bcd)\n      dup2\n      mstore\n      0x04\n      add\n      tag_125\n      swap1\n      tag_140\n      jump\t// in\n    tag_179:\n      sub(shl(0xa0, 0x01), 0x01)\n        /* \"@openzeppelin/contracts/access/Ownable.sol\":2006:2028  newOwner != address(0) */\n      dup2\n      and\n        /* \"@openzeppelin/contracts/access/Ownable.sol\":1998:2071  require(newOwner != address(0), \"Ownable: new owner is the zero address\") */\n      tag_182\n      jumpi\n      mload(0x40)\n      shl(0xe5, 0x461bcd)\n      dup2\n      mstore\n        /* \"#utility.yul\":5597:5599   */\n      0x20\n        /* \"@openzeppelin/contracts/access/Ownable.sol\":1998:2071  require(newOwner != address(0), \"Ownable: new owner is the zero address\") */\n      0x04\n      dup3\n      add\n        /* \"#utility.yul\":5579:5600   */\n      mstore\n        /* \"#utility.yul\":5636:5638   */\n      0x26\n        /* \"#utility.yul\":5616:5634   */\n      0x24\n      dup3\n      add\n        /* \"#utility.yul\":5609:5639   */\n      mstore\n        /* \"#utility.yul\":5675:5709   */\n      0x4f776e61626c653a206e6577206f776e657220697320746865207a65726f2061\n        /* \"#utility.yul\":5655:5673   */\n      0x44\n      dup3\n      add\n        /* \"#utility.yul\":5648:5710   */\n      mstore\n      shl(0xd0, 0x646472657373)\n        /* \"#utility.yul\":5726:5744   */\n      0x64\n      dup3\n      add\n        /* \"#utility.yul\":5719:5755   */\n      mstore\n        /* \"#utility.yul\":5772:5791   */\n      0x84\n      add\n        /* \"@openzeppelin/contracts/access/Ownable.sol\":1998:2071  require(newOwner != address(0), \"Ownable: new owner is the zero address\") */\n      tag_125\n        /* \"#utility.yul\":5395:5797   */\n      jump\n        /* \"@openzeppelin/contracts/access/Ownable.sol\":1998:2071  require(newOwner != address(0), \"Ownable: new owner is the zero address\") */\n    tag_182:\n        /* \"@openzeppelin/contracts/access/Ownable.sol\":2081:2109  _transferOwnership(newOwner) */\n      tag_133\n        /* \"@openzeppelin/contracts/access/Ownable.sol\":2100:2108  newOwner */\n      dup2\n        /* \"@openzeppelin/contracts/access/Ownable.sol\":2081:2099  _transferOwnership */\n      tag_153\n        /* \"@openzeppelin/contracts/access/Ownable.sol\":2081:2109  _transferOwnership(newOwner) */\n      jump\t// in\n        /* \"@openzeppelin/contracts/token/ERC20/ERC20.sol\":10123:10493  function _approve(... */\n    tag_109:\n      sub(shl(0xa0, 0x01), 0x01)\n        /* \"@openzeppelin/contracts/token/ERC20/ERC20.sol\":10254:10273  owner != address(0) */\n      dup4\n      and\n        /* \"@openzeppelin/contracts/token/ERC20/ERC20.sol\":10246:10314  require(owner != address(0), \"ERC20: approve from the zero address\") */\n      tag_188\n      jumpi\n      mload(0x40)\n      shl(0xe5, 0x461bcd)\n      dup2\n      mstore\n        /* \"#utility.yul\":6004:6006   */\n      0x20\n        /* \"@openzeppelin/contracts/token/ERC20/ERC20.sol\":10246:10314  require(owner != address(0), \"ERC20: approve from the zero address\") */\n      0x04\n      dup3\n      add\n        /* \"#utility.yul\":5986:6007   */\n      mstore\n        /* \"#utility.yul\":6043:6045   */\n      0x24\n        /* \"#utility.yul\":6023:6041   */\n      dup1\n      dup3\n      add\n        /* \"#utility.yul\":6016:6046   */\n      mstore\n        /* \"#utility.yul\":6082:6116   */\n      0x45524332303a20617070726f76652066726f6d20746865207a65726f20616464\n        /* \"#utility.yul\":6062:6080   */\n      0x44\n      dup3\n      add\n        /* \"#utility.yul\":6055:6117   */\n      mstore\n      shl(0xe0, 0x72657373)\n        /* \"#utility.yul\":6133:6151   */\n      0x64\n      dup3\n      add\n        /* \"#utility.yul\":6126:6160   */\n      mstore\n        /* \"#utility.yul\":6177:6196   */\n      0x84\n      add\n        /* \"@openzeppelin/contracts/token/ERC20/ERC20.sol\":10246:10314  require(owner != address(0), \"ERC20: approve from the zero address\") */\n      tag_125\n        /* \"#utility.yul\":5802:6202   */\n      jump\n        /* \"@openzeppelin/contracts/token/ERC20/ERC20.sol\":10246:10314  require(owner != address(0), \"ERC20: approve from the zero address\") */\n    tag_188:\n      sub(shl(0xa0, 0x01), 0x01)\n        /* \"@openzeppelin/contracts/token/ERC20/ERC20.sol\":10332:10353  spender != address(0) */\n      dup3\n      and\n        /* \"@openzeppelin/contracts/token/ERC20/ERC20.sol\":10324:10392  require(spender != address(0), \"ERC20: approve to the zero address\") */\n      tag_191\n      jumpi\n      mload(0x40)\n      shl(0xe5, 0x461bcd)\n      dup2\n      mstore\n        /* \"#utility.yul\":6409:6411   */\n      0x20\n        /* \"@openzeppelin/contracts/token/ERC20/ERC20.sol\":10324:10392  require(spender != address(0), \"ERC20: approve to the zero address\") */\n      0x04\n      dup3\n      add\n        /* \"#utility.yul\":6391:6412   */\n      mstore\n        /* \"#utility.yul\":6448:6450   */\n      0x22\n        /* \"#utility.yul\":6428:6446   */\n      0x24\n      dup3\n      add\n        /* \"#utility.yul\":6421:6451   */\n      mstore\n        /* \"#utility.yul\":6487:6521   */\n      0x45524332303a20617070726f766520746f20746865207a65726f206164647265\n        /* \"#utility.yul\":6467:6485   */\n      0x44\n      dup3\n      add\n        /* \"#utility.yul\":6460:6522   */\n      mstore\n      shl(0xf0, 0x7373)\n        /* \"#utility.yul\":6538:6556   */\n      0x64\n      dup3\n      add\n        /* \"#utility.yul\":6531:6563   */\n      mstore\n        /* \"#utility.yul\":6580:6599   */\n      0x84\n      add\n        /* \"@openzeppelin/contracts/token/ERC20/ERC20.sol\":10324:10392  require(spender != address(0), \"ERC20: approve to the zero address\") */\n      tag_125\n        /* \"#utility.yul\":6207:6605   */\n      jump\n        /* \"@openzeppelin/contracts/token/ERC20/ERC20.sol\":10324:10392  require(spender != address(0), \"ERC20: approve to the zero address\") */\n    tag_191:\n      sub(shl(0xa0, 0x01), 0x01)\n        /* \"@openzeppelin/contracts/token/ERC20/ERC20.sol\":10403:10421  _allowances[owner] */\n      dup4\n      dup2\n      and\n      0x00\n      dup2\n      dup2\n      mstore\n        /* \"@openzeppelin/contracts/token/ERC20/ERC20.sol\":10403:10414  _allowances */\n      0x01\n        /* \"@openzeppelin/contracts/token/ERC20/ERC20.sol\":10403:10421  _allowances[owner] */\n      0x20\n      swap1\n      dup2\n      mstore\n      0x40\n      dup1\n      dup4\n      keccak256\n        /* \"@openzeppelin/contracts/token/ERC20/ERC20.sol\":10403:10430  _allowances[owner][spender] */\n      swap5\n      dup8\n      and\n      dup1\n      dup5\n      mstore\n      swap5\n      dup3\n      mstore\n      swap2\n      dup3\n      swap1\n      keccak256\n        /* \"@openzeppelin/contracts/token/ERC20/ERC20.sol\":10403:10439  _allowances[owner][spender] = amount */\n      dup6\n      swap1\n      sstore\n        /* \"@openzeppelin/contracts/token/ERC20/ERC20.sol\":10454:10486  Approval(owner, spender, amount) */\n      swap1\n      mload\n        /* \"#utility.yul\":1258:1283   */\n      dup5\n      dup2\n      mstore\n        /* \"@openzeppelin/contracts/token/ERC20/ERC20.sol\":10454:10486  Approval(owner, spender, amount) */\n      0x8c5be1e5ebec7d5bd14f71427d1e84f3dd0314c0f7b2291e5b200ac8c7c3b925\n      swap2\n        /* \"#utility.yul\":1231:1249   */\n      add\n        /* \"@openzeppelin/contracts/token/ERC20/ERC20.sol\":10454:10486  Approval(owner, spender, amount) */\n      mload(0x40)\n      dup1\n      swap2\n      sub\n      swap1\n      log3\n        /* \"@openzeppelin/contracts/token/ERC20/ERC20.sol\":10123:10493  function _approve(... */\n      pop\n      pop\n      pop\n      jump\t// out\n        /* \"@openzeppelin/contracts/token/ERC20/ERC20.sol\":10770:11211  function _spendAllowance(... */\n    tag_114:\n      sub(shl(0xa0, 0x01), 0x01)\n        /* \"@openzeppelin/contracts/token/ERC20/ERC20.sol\":4091:4109  _allowances[owner] */\n      dup4\n      dup2\n      and\n        /* \"@openzeppelin/contracts/token/ERC20/ERC20.sol\":10900:10924  uint256 currentAllowance */\n      0x00\n        /* \"@openzeppelin/contracts/token/ERC20/ERC20.sol\":4091:4109  _allowances[owner] */\n      swap1\n      dup2\n      mstore\n        /* \"@openzeppelin/contracts/token/ERC20/ERC20.sol\":4091:4102  _allowances */\n      0x01\n        /* \"@openzeppelin/contracts/token/ERC20/ERC20.sol\":4091:4109  _allowances[owner] */\n      0x20\n      swap1\n      dup2\n      mstore\n      0x40\n      dup1\n      dup4\n      keccak256\n        /* \"@openzeppelin/contracts/token/ERC20/ERC20.sol\":4091:4118  _allowances[owner][spender] */\n      swap4\n      dup7\n      and\n      dup4\n      mstore\n      swap3\n      swap1\n      mstore\n      keccak256\n      sload\n      not(0x00)\n        /* \"@openzeppelin/contracts/token/ERC20/ERC20.sol\":10966:11003  currentAllowance != type(uint256).max */\n      dup2\n      eq\n        /* \"@openzeppelin/contracts/token/ERC20/ERC20.sol\":10962:11205  if (currentAllowance != type(uint256).max) {... */\n      tag_201\n      jumpi\n        /* \"@openzeppelin/contracts/token/ERC20/ERC20.sol\":11047:11053  amount */\n      dup2\n        /* \"@openzeppelin/contracts/token/ERC20/ERC20.sol\":11027:11043  currentAllowance */\n      dup2\n        /* \"@openzeppelin/contracts/token/ERC20/ERC20.sol\":11027:11053  currentAllowance >= amount */\n      lt\n      iszero\n        /* \"@openzeppelin/contracts/token/ERC20/ERC20.sol\":11019:11087  require(currentAllowance >= amount, \"ERC20: insufficient allowance\") */\n      tag_198\n      jumpi\n      mload(0x40)\n      shl(0xe5, 0x461bcd)\n      dup2\n      mstore\n        /* \"#utility.yul\":6812:6814   */\n      0x20\n        /* \"@openzeppelin/contracts/token/ERC20/ERC20.sol\":11019:11087  require(currentAllowance >= amount, \"ERC20: insufficient allowance\") */\n      0x04\n      dup3\n      add\n        /* \"#utility.yul\":6794:6815   */\n      mstore\n        /* \"#utility.yul\":6851:6853   */\n      0x1d\n        /* \"#utility.yul\":6831:6849   */\n      0x24\n      dup3\n      add\n        /* \"#utility.yul\":6824:6854   */\n      mstore\n        /* \"#utility.yul\":6890:6921   */\n      0x45524332303a20696e73756666696369656e7420616c6c6f77616e6365000000\n        /* \"#utility.yul\":6870:6888   */\n      0x44\n      dup3\n      add\n        /* \"#utility.yul\":6863:6922   */\n      mstore\n        /* \"#utility.yul\":6939:6957   */\n      0x64\n      add\n        /* \"@openzeppelin/contracts/token/ERC20/ERC20.sol\":11019:11087  require(currentAllowance >= amount, \"ERC20: insufficient allowance\") */\n      tag_125\n        /* \"#utility.yul\":6610:6963   */\n      jump\n        /* \"@openzeppelin/contracts/token/ERC20/ERC20.sol\":11019:11087  require(currentAllowance >= amount, \"ERC20: insufficient allowance\") */\n    tag_198:\n        /* \"@openzeppelin/contracts/token/ERC20/ERC20.sol\":11129:11180  _approve(owner, spender, currentAllowance - amount) */\n      tag_201\n        /* \"@openzeppelin/contracts/token/ERC20/ERC20.sol\":11138:11143  owner */\n      dup5\n        /* \"@openzeppelin/contracts/token/ERC20/ERC20.sol\":11145:11152  spender */\n      dup5\n        /* \"@openzeppelin/contracts/token/ERC20/ERC20.sol\":11173:11179  amount */\n      dup5\n        /* \"@openzeppelin/contracts/token/ERC20/ERC20.sol\":11154:11170  currentAllowance */\n      dup5\n        /* \"@openzeppelin/contracts/token/ERC20/ERC20.sol\":11154:11179  currentAllowance - amount */\n      sub\n        /* \"@openzeppelin/contracts/token/ERC20/ERC20.sol\":11129:11137  _approve */\n      tag_109\n        /* \"@openzeppelin/contracts/token/ERC20/ERC20.sol\":11129:11180  _approve(owner, spender, currentAllowance - amount) */\n      jump\t// in\n    tag_201:\n        /* \"@openzeppelin/contracts/token/ERC20/ERC20.sol\":10890:11211  {... */\n      pop\n        /* \"@openzeppelin/contracts/token/ERC20/ERC20.sol\":10770:11211  function _spendAllowance(... */\n      pop\n      pop\n      pop\n      jump\t// out\n        /* \"@openzeppelin/contracts/token/ERC20/ERC20.sol\":7488:8139  function _transfer(... */\n    tag_116:\n      sub(shl(0xa0, 0x01), 0x01)\n        /* \"@openzeppelin/contracts/token/ERC20/ERC20.sol\":7614:7632  from != address(0) */\n      dup4\n      and\n        /* \"@openzeppelin/contracts/token/ERC20/ERC20.sol\":7606:7674  require(from != address(0), \"ERC20: transfer from the zero address\") */\n      tag_203\n      jumpi\n      mload(0x40)\n      shl(0xe5, 0x461bcd)\n      dup2\n      mstore\n        /* \"#utility.yul\":7170:7172   */\n      0x20\n        /* \"@openzeppelin/contracts/token/ERC20/ERC20.sol\":7606:7674  require(from != address(0), \"ERC20: transfer from the zero address\") */\n      0x04\n      dup3\n      add\n        /* \"#utility.yul\":7152:7173   */\n      mstore\n        /* \"#utility.yul\":7209:7211   */\n      0x25\n        /* \"#utility.yul\":7189:7207   */\n      0x24\n      dup3\n      add\n        /* \"#utility.yul\":7182:7212   */\n      mstore\n        /* \"#utility.yul\":7248:7282   */\n      0x45524332303a207472616e736665722066726f6d20746865207a65726f206164\n        /* \"#utility.yul\":7228:7246   */\n      0x44\n      dup3\n      add\n        /* \"#utility.yul\":7221:7283   */\n      mstore\n      shl(0xd8, 0x6472657373)\n        /* \"#utility.yul\":7299:7317   */\n      0x64\n      dup3\n      add\n        /* \"#utility.yul\":7292:7327   */\n      mstore\n        /* \"#utility.yul\":7344:7363   */\n      0x84\n      add\n        /* \"@openzeppelin/contracts/token/ERC20/ERC20.sol\":7606:7674  require(from != address(0), \"ERC20: transfer from the zero address\") */\n      tag_125\n        /* \"#utility.yul\":6968:7369   */\n      jump\n        /* \"@openzeppelin/contracts/token/ERC20/ERC20.sol\":7606:7674  require(from != address(0), \"ERC20: transfer from the zero address\") */\n    tag_203:\n      sub(shl(0xa0, 0x01), 0x01)\n        /* \"@openzeppelin/contracts/token/ERC20/ERC20.sol\":7692:7708  to != address(0) */\n      dup3\n      and\n        /* \"@openzeppelin/contracts/token/ERC20/ERC20.sol\":7684:7748  require(to != address(0), \"ERC20: transfer to the zero address\") */\n      tag_206\n      jumpi\n      mload(0x40)\n      shl(0xe5, 0x461bcd)\n      dup2\n      mstore\n        /* \"#utility.yul\":7576:7578   */\n      0x20\n        /* \"@openzeppelin/contracts/token/ERC20/ERC20.sol\":7684:7748  require(to != address(0), \"ERC20: transfer to the zero address\") */\n      0x04\n      dup3\n      add\n        /* \"#utility.yul\":7558:7579   */\n      mstore\n        /* \"#utility.yul\":7615:7617   */\n      0x23\n        /* \"#utility.yul\":7595:7613   */\n      0x24\n      dup3\n      add\n        /* \"#utility.yul\":7588:7618   */\n      mstore\n        /* \"#utility.yul\":7654:7688   */\n      0x45524332303a207472616e7366657220746f20746865207a65726f2061646472\n        /* \"#utility.yul\":7634:7652   */\n      0x44\n      dup3\n      add\n        /* \"#utility.yul\":7627:7689   */\n      mstore\n      shl(0xe8, 0x657373)\n        /* \"#utility.yul\":7705:7723   */\n      0x64\n      dup3\n      add\n        /* \"#utility.yul\":7698:7731   */\n      mstore\n        /* \"#utility.yul\":7748:7767   */\n      0x84\n      add\n        /* \"@openzeppelin/contracts/token/ERC20/ERC20.sol\":7684:7748  require(to != address(0), \"ERC20: transfer to the zero address\") */\n      tag_125\n        /* \"#utility.yul\":7374:7773   */\n      jump\n        /* \"@openzeppelin/contracts/token/ERC20/ERC20.sol\":7684:7748  require(to != address(0), \"ERC20: transfer to the zero address\") */\n    tag_206:\n      sub(shl(0xa0, 0x01), 0x01)\n        /* \"@openzeppelin/contracts/token/ERC20/ERC20.sol\":7830:7845  _balances[from] */\n      dup4\n      and\n        /* \"@openzeppelin/contracts/token/ERC20/ERC20.sol\":7808:7827  uint256 fromBalance */\n      0x00\n        /* \"@openzeppelin/contracts/token/ERC20/ERC20.sol\":7830:7845  _balances[from] */\n      swap1\n      dup2\n      mstore\n      0x20\n      dup2\n      swap1\n      mstore\n      0x40\n      swap1\n      keccak256\n      sload\n        /* \"@openzeppelin/contracts/token/ERC20/ERC20.sol\":7863:7884  fromBalance >= amount */\n      dup2\n      dup2\n      lt\n      iszero\n        /* \"@openzeppelin/contracts/token/ERC20/ERC20.sol\":7855:7927  require(fromBalance >= amount, \"ERC20: transfer amount exceeds balance\") */\n      tag_211\n      jumpi\n      mload(0x40)\n      shl(0xe5, 0x461bcd)\n      dup2\n      mstore\n        /* \"#utility.yul\":7980:7982   */\n      0x20\n        /* \"@openzeppelin/contracts/token/ERC20/ERC20.sol\":7855:7927  require(fromBalance >= amount, \"ERC20: transfer amount exceeds balance\") */\n      0x04\n      dup3\n      add\n        /* \"#utility.yul\":7962:7983   */\n      mstore\n        /* \"#utility.yul\":8019:8021   */\n      0x26\n        /* \"#utility.yul\":7999:8017   */\n      0x24\n      dup3\n      add\n        /* \"#utility.yul\":7992:8022   */\n      mstore\n        /* \"#utility.yul\":8058:8092   */\n      0x45524332303a207472616e7366657220616d6f756e7420657863656564732062\n        /* \"#utility.yul\":8038:8056   */\n      0x44\n      dup3\n      add\n        /* \"#utility.yul\":8031:8093   */\n      mstore\n      shl(0xd0, 0x616c616e6365)\n        /* \"#utility.yul\":8109:8127   */\n      0x64\n      dup3\n      add\n        /* \"#utility.yul\":8102:8138   */\n      mstore\n        /* \"#utility.yul\":8155:8174   */\n      0x84\n      add\n        /* \"@openzeppelin/contracts/token/ERC20/ERC20.sol\":7855:7927  require(fromBalance >= amount, \"ERC20: transfer amount exceeds balance\") */\n      tag_125\n        /* \"#utility.yul\":7778:8180   */\n      jump\n        /* \"@openzeppelin/contracts/token/ERC20/ERC20.sol\":7855:7927  require(fromBalance >= amount, \"ERC20: transfer amount exceeds balance\") */\n    tag_211:\n      sub(shl(0xa0, 0x01), 0x01)\n        /* \"@openzeppelin/contracts/token/ERC20/ERC20.sol\":7961:7976  _balances[from] */\n      dup1\n      dup6\n      and\n        /* \"@openzeppelin/contracts/token/ERC20/ERC20.sol\":7961:7970  _balances */\n      0x00\n        /* \"@openzeppelin/contracts/token/ERC20/ERC20.sol\":7961:7976  _balances[from] */\n      swap1\n      dup2\n      mstore\n      0x20\n      dup2\n      swap1\n      mstore\n      0x40\n      dup1\n      dup3\n      keccak256\n        /* \"@openzeppelin/contracts/token/ERC20/ERC20.sol\":7979:7999  fromBalance - amount */\n      dup6\n      dup6\n      sub\n        /* \"@openzeppelin/contracts/token/ERC20/ERC20.sol\":7961:7999  _balances[from] = fromBalance - amount */\n      swap1\n      sstore\n        /* \"@openzeppelin/contracts/token/ERC20/ERC20.sol\":8019:8032  _balances[to] */\n      swap2\n      dup6\n      and\n      dup2\n      mstore\n      swap1\n      dup2\n      keccak256\n        /* \"@openzeppelin/contracts/token/ERC20/ERC20.sol\":8019:8042  _balances[to] += amount */\n      dup1\n      sload\n        /* \"@openzeppelin/contracts/token/ERC20/ERC20.sol\":7993:7999  amount */\n      dup5\n      swap3\n        /* \"@openzeppelin/contracts/token/ERC20/ERC20.sol\":7961:7970  _balances */\n      swap1\n        /* \"@openzeppelin/contracts/token/ERC20/ERC20.sol\":8019:8042  _balances[to] += amount */\n      tag_214\n      swap1\n        /* \"@openzeppelin/contracts/token/ERC20/ERC20.sol\":7993:7999  amount */\n      dup5\n      swap1\n        /* \"@openzeppelin/contracts/token/ERC20/ERC20.sol\":8019:8042  _balances[to] += amount */\n      tag_122\n      jump\t// in\n    tag_214:\n      swap3\n      pop\n      pop\n      dup2\n      swap1\n      sstore\n      pop\n        /* \"@openzeppelin/contracts/token/ERC20/ERC20.sol\":8073:8075  to */\n      dup3\n      sub(shl(0xa0, 0x01), 0x01)\n        /* \"@openzeppelin/contracts/token/ERC20/ERC20.sol\":8058:8084  Transfer(from, to, amount) */\n      and\n        /* \"@openzeppelin/contracts/token/ERC20/ERC20.sol\":8067:8071  from */\n      dup5\n      sub(shl(0xa0, 0x01), 0x01)\n        /* \"@openzeppelin/contracts/token/ERC20/ERC20.sol\":8058:8084  Transfer(from, to, amount) */\n      and\n      0xddf252ad1be2c89b69c2b068fc378daa952ba7f163c4a11628f55a4df523b3ef\n        /* \"@openzeppelin/contracts/token/ERC20/ERC20.sol\":8077:8083  amount */\n      dup5\n        /* \"@openzeppelin/contracts/token/ERC20/ERC20.sol\":8058:8084  Transfer(from, to, amount) */\n      mload(0x40)\n      tag_215\n      swap2\n        /* \"#utility.yul\":1258:1283   */\n      dup2\n      mstore\n        /* \"#utility.yul\":1246:1248   */\n      0x20\n        /* \"#utility.yul\":1231:1249   */\n      add\n      swap1\n        /* \"#utility.yul\":1112:1289   */\n      jump\n        /* \"@openzeppelin/contracts/token/ERC20/ERC20.sol\":8058:8084  Transfer(from, to, amount) */\n    tag_215:\n      mload(0x40)\n      dup1\n      swap2\n      sub\n      swap1\n      log3\n        /* \"@openzeppelin/contracts/token/ERC20/ERC20.sol\":8095:8132  _afterTokenTransfer(from, to, amount) */\n      tag_201\n        /* \"@openzeppelin/contracts/token/ERC20/ERC20.sol\":11795:11916  function _beforeTokenTransfer(... */\n      jump\n        /* \"@openzeppelin/contracts/token/ERC20/ERC20.sol\":8415:8804  function _mint(address account, uint256 amount) internal virtual {... */\n    tag_128:\n      sub(shl(0xa0, 0x01), 0x01)\n        /* \"@openzeppelin/contracts/token/ERC20/ERC20.sol\":8498:8519  account != address(0) */\n      dup3\n      and\n        /* \"@openzeppelin/contracts/token/ERC20/ERC20.sol\":8490:8555  require(account != address(0), \"ERC20: mint to the zero address\") */\n      tag_219\n      jumpi\n      mload(0x40)\n      shl(0xe5, 0x461bcd)\n      dup2\n      mstore\n        /* \"#utility.yul\":8387:8389   */\n      0x20\n        /* \"@openzeppelin/contracts/token/ERC20/ERC20.sol\":8490:8555  require(account != address(0), \"ERC20: mint to the zero address\") */\n      0x04\n      dup3\n      add\n        /* \"#utility.yul\":8369:8390   */\n      mstore\n        /* \"#utility.yul\":8426:8428   */\n      0x1f\n        /* \"#utility.yul\":8406:8424   */\n      0x24\n      dup3\n      add\n        /* \"#utility.yul\":8399:8429   */\n      mstore\n        /* \"#utility.yul\":8465:8498   */\n      0x45524332303a206d696e7420746f20746865207a65726f206164647265737300\n        /* \"#utility.yul\":8445:8463   */\n      0x44\n      dup3\n      add\n        /* \"#utility.yul\":8438:8499   */\n      mstore\n        /* \"#utility.yul\":8516:8534   */\n      0x64\n      add\n        /* \"@openzeppelin/contracts/token/ERC20/ERC20.sol\":8490:8555  require(account != address(0), \"ERC20: mint to the zero address\") */\n      tag_125\n        /* \"#utility.yul\":8185:8540   */\n      jump\n        /* \"@openzeppelin/contracts/token/ERC20/ERC20.sol\":8490:8555  require(account != address(0), \"ERC20: mint to the zero address\") */\n    tag_219:\n        /* \"@openzeppelin/contracts/token/ERC20/ERC20.sol\":8642:8648  amount */\n      dup1\n        /* \"@openzeppelin/contracts/token/ERC20/ERC20.sol\":8626:8638  _totalSupply */\n      0x02\n      0x00\n        /* \"@openzeppelin/contracts/token/ERC20/ERC20.sol\":8626:8648  _totalSupply += amount */\n      dup3\n      dup3\n      sload\n      tag_223\n      swap2\n      swap1\n      tag_122\n      jump\t// in\n    tag_223:\n      swap1\n      swap2\n      sstore\n      pop\n      pop\n      sub(shl(0xa0, 0x01), 0x01)\n        /* \"@openzeppelin/contracts/token/ERC20/ERC20.sol\":8658:8676  _balances[account] */\n      dup3\n      and\n        /* \"@openzeppelin/contracts/token/ERC20/ERC20.sol\":8658:8667  _balances */\n      0x00\n        /* \"@openzeppelin/contracts/token/ERC20/ERC20.sol\":8658:8676  _balances[account] */\n      swap1\n      dup2\n      mstore\n      0x20\n      dup2\n      swap1\n      mstore\n      0x40\n      dup2\n      keccak256\n        /* \"@openzeppelin/contracts/token/ERC20/ERC20.sol\":8658:8686  _balances[account] += amount */\n      dup1\n      sload\n        /* \"@openzeppelin/contracts/token/ERC20/ERC20.sol\":8680:8686  amount */\n      dup4\n      swap3\n        /* \"@openzeppelin/contracts/token/ERC20/ERC20.sol\":8658:8667  _balances */\n      swap1\n        /* \"@openzeppelin/contracts/token/ERC20/ERC20.sol\":8658:8686  _balances[account] += amount */\n      tag_224\n      swap1\n        /* \"@openzeppelin/contracts/token/ERC20/ERC20.sol\":8680:8686  amount */\n      dup5\n      swap1\n        /* \"@openzeppelin/contracts/token/ERC20/ERC20.sol\":8658:8686  _balances[account] += amount */\n      tag_122\n      jump\t// in\n    tag_224:\n      swap1\n      swap2\n      sstore\n      pop\n      pop\n        /* \"@openzeppelin/contracts/token/ERC20/ERC20.sol\":8701:8738  Transfer(address(0), account, amount) */\n      mload(0x40)\n        /* \"#utility.yul\":1258:1283   */\n      dup2\n      dup2\n      mstore\n      sub(shl(0xa0, 0x01), 0x01)\n        /* \"@openzeppelin/contracts/token/ERC20/ERC20.sol\":8701:8738  Transfer(address(0), account, amount) */\n      dup4\n      and\n      swap1\n        /* \"@openzeppelin/contracts/token/ERC20/ERC20.sol\":8718:8719  0 */\n      0x00\n      swap1\n        /* \"@openzeppelin/contracts/token/ERC20/ERC20.sol\":8701:8738  Transfer(address(0), account, amount) */\n      0xddf252ad1be2c89b69c2b068fc378daa952ba7f163c4a11628f55a4df523b3ef\n      swap1\n        /* \"#utility.yul\":1246:1248   */\n      0x20\n        /* \"#utility.yul\":1231:1249   */\n      add\n        /* \"@openzeppelin/contracts/token/ERC20/ERC20.sol\":8701:8738  Transfer(address(0), account, amount) */\n      mload(0x40)\n      dup1\n      swap2\n      sub\n      swap1\n      log3\n        /* \"contracts/VaultShareToken.sol\":1373:1536  function mint(address to, uint256 amount) external {... */\n      pop\n      pop\n      jump\t// out\n        /* \"@openzeppelin/contracts/token/ERC20/extensions/ERC20Burnable.sol\":578:667  function burn(uint256 amount) public virtual {... */\n    tag_134:\n        /* \"@openzeppelin/contracts/token/ERC20/extensions/ERC20Burnable.sol\":633:660  _burn(_msgSender(), amount) */\n      tag_133\n        /* \"@openzeppelin/contracts/utils/Context.sol\":719:729  msg.sender */\n      caller\n        /* \"@openzeppelin/contracts/token/ERC20/extensions/ERC20Burnable.sol\":653:659  amount */\n      dup3\n        /* \"@openzeppelin/contracts/token/ERC20/extensions/ERC20Burnable.sol\":633:638  _burn */\n      tag_230\n        /* \"@openzeppelin/contracts/token/ERC20/extensions/ERC20Burnable.sol\":633:660  _burn(_msgSender(), amount) */\n      jump\t// in\n        /* \"@openzeppelin/contracts/access/Ownable.sol\":2270:2457  function _transferOwnership(address newOwner) internal virtual {... */\n    tag_153:\n        /* \"@openzeppelin/contracts/access/Ownable.sol\":2362:2368  _owner */\n      0x05\n      dup1\n      sload\n      sub(shl(0xa0, 0x01), 0x01)\n        /* \"@openzeppelin/contracts/access/Ownable.sol\":2378:2395  _owner = newOwner */\n      dup4\n      dup2\n      and\n      not(sub(shl(0xa0, 0x01), 0x01))\n      dup4\n      and\n      dup2\n      or\n      swap1\n      swap4\n      sstore\n        /* \"@openzeppelin/contracts/access/Ownable.sol\":2410:2450  OwnershipTransferred(oldOwner, newOwner) */\n      mload(0x40)\n        /* \"@openzeppelin/contracts/access/Ownable.sol\":2362:2368  _owner */\n      swap2\n      and\n      swap2\n        /* \"@openzeppelin/contracts/access/Ownable.sol\":2378:2395  _owner = newOwner */\n      swap1\n        /* \"@openzeppelin/contracts/access/Ownable.sol\":2362:2368  _owner */\n      dup3\n      swap1\n        /* \"@openzeppelin/contracts/access/Ownable.sol\":2410:2450  OwnershipTransferred(oldOwner, newOwner) */\n      0x8be0079c531659141344cd1fd0a4f28419497f9722a3daafe3b4186f6b6457e0\n      swap1\n        /* \"@openzeppelin/contracts/access/Ownable.sol\":2343:2359  address oldOwner */\n      0x00\n      swap1\n        /* \"@openzeppelin/contracts/access/Ownable.sol\":2410:2450  OwnershipTransferred(oldOwner, newOwner) */\n      log3\n        /* \"@openzeppelin/contracts/access/Ownable.sol\":2333:2457  {... */\n      pop\n        /* \"@openzeppelin/contracts/access/Ownable.sol\":2270:2457  function _transferOwnership(address newOwner) internal virtual {... */\n      pop\n      jump\t// out\n        /* \"@openzeppelin/contracts/token/ERC20/extensions/ERC20Burnable.sol\":973:1134  function burnFrom(address account, uint256 amount) public virtual {... */\n    tag_158:\n        /* \"@openzeppelin/contracts/token/ERC20/extensions/ERC20Burnable.sol\":1049:1095  _spendAllowance(account, _msgSender(), amount) */\n      tag_233\n        /* \"@openzeppelin/contracts/token/ERC20/extensions/ERC20Burnable.sol\":1065:1072  account */\n      dup3\n        /* \"@openzeppelin/contracts/utils/Context.sol\":719:729  msg.sender */\n      caller\n        /* \"@openzeppelin/contracts/token/ERC20/extensions/ERC20Burnable.sol\":1088:1094  amount */\n      dup4\n        /* \"@openzeppelin/contracts/token/ERC20/extensions/ERC20Burnable.sol\":1049:1064  _spendAllowance */\n      tag_114\n        /* \"@openzeppelin/contracts/token/ERC20/extensions/ERC20Burnable.sol\":1049:1095  _spendAllowance(account, _msgSender(), amount) */\n      jump\t// in\n    tag_233:\n        /* \"@openzeppelin/contracts/token/ERC20/extensions/ERC20Burnable.sol\":1105:1127  _burn(account, amount) */\n      tag_127\n        /* \"@openzeppelin/contracts/token/ERC20/extensions/ERC20Burnable.sol\":1111:1118  account */\n      dup3\n        /* \"@openzeppelin/contracts/token/ERC20/extensions/ERC20Burnable.sol\":1120:1126  amount */\n      dup3\n        /* \"@openzeppelin/contracts/token/ERC20/ERC20.sol\":9124:9700  function _burn(address account, uint256 amount) internal virtual {... */\n    tag_230:\n      sub(shl(0xa0, 0x01), 0x01)\n        /* \"@openzeppelin/contracts/token/ERC20/ERC20.sol\":9207:9228  account != address(0) */\n      dup3\n      and\n        /* \"@openzeppelin/contracts/token/ERC20/ERC20.sol\":9199:9266  require(account != address(0), \"ERC20: burn from the zero address\") */\n      tag_239\n      jumpi\n      mload(0x40)\n      shl(0xe5, 0x461bcd)\n      dup2\n      mstore\n        /* \"#utility.yul\":8747:8749   */\n      0x20\n        /* \"@openzeppelin/contracts/token/ERC20/ERC20.sol\":9199:9266  require(account != address(0), \"ERC20: burn from the zero address\") */\n      0x04\n      dup3\n      add\n        /* \"#utility.yul\":8729:8750   */\n      mstore\n        /* \"#utility.yul\":8786:8788   */\n      0x21\n        /* \"#utility.yul\":8766:8784   */\n      0x24\n      dup3\n      add\n        /* \"#utility.yul\":8759:8789   */\n      mstore\n        /* \"#utility.yul\":8825:8859   */\n      0x45524332303a206275726e2066726f6d20746865207a65726f20616464726573\n        /* \"#utility.yul\":8805:8823   */\n      0x44\n      dup3\n      add\n        /* \"#utility.yul\":8798:8860   */\n      mstore\n      shl(0xf8, 0x73)\n        /* \"#utility.yul\":8876:8894   */\n      0x64\n      dup3\n      add\n        /* \"#utility.yul\":8869:8900   */\n      mstore\n        /* \"#utility.yul\":8917:8936   */\n      0x84\n      add\n        /* \"@openzeppelin/contracts/token/ERC20/ERC20.sol\":9199:9266  require(account != address(0), \"ERC20: burn from the zero address\") */\n      tag_125\n        /* \"#utility.yul\":8545:8942   */\n      jump\n        /* \"@openzeppelin/contracts/token/ERC20/ERC20.sol\":9199:9266  require(account != address(0), \"ERC20: burn from the zero address\") */\n    tag_239:\n      sub(shl(0xa0, 0x01), 0x01)\n        /* \"@openzeppelin/contracts/token/ERC20/ERC20.sol\":9362:9380  _balances[account] */\n      dup3\n      and\n        /* \"@openzeppelin/contracts/token/ERC20/ERC20.sol\":9337:9359  uint256 accountBalance */\n      0x00\n        /* \"@openzeppelin/contracts/token/ERC20/ERC20.sol\":9362:9380  _balances[account] */\n      swap1\n      dup2\n      mstore\n      0x20\n      dup2\n      swap1\n      mstore\n      0x40\n      swap1\n      keccak256\n      sload\n        /* \"@openzeppelin/contracts/token/ERC20/ERC20.sol\":9398:9422  accountBalance >= amount */\n      dup2\n      dup2\n      lt\n      iszero\n        /* \"@openzeppelin/contracts/token/ERC20/ERC20.sol\":9390:9461  require(accountBalance >= amount, \"ERC20: burn amount exceeds balance\") */\n      tag_243\n      jumpi\n      mload(0x40)\n      shl(0xe5, 0x461bcd)\n      dup2\n      mstore\n        /* \"#utility.yul\":9149:9151   */\n      0x20\n        /* \"@openzeppelin/contracts/token/ERC20/ERC20.sol\":9390:9461  require(accountBalance >= amount, \"ERC20: burn amount exceeds balance\") */\n      0x04\n      dup3\n      add\n        /* \"#utility.yul\":9131:9152   */\n      mstore\n        /* \"#utility.yul\":9188:9190   */\n      0x22\n        /* \"#utility.yul\":9168:9186   */\n      0x24\n      dup3\n      add\n        /* \"#utility.yul\":9161:9191   */\n      mstore\n        /* \"#utility.yul\":9227:9261   */\n      0x45524332303a206275726e20616d6f756e7420657863656564732062616c616e\n        /* \"#utility.yul\":9207:9225   */\n      0x44\n      dup3\n      add\n        /* \"#utility.yul\":9200:9262   */\n      mstore\n      shl(0xf0, 0x6365)\n        /* \"#utility.yul\":9278:9296   */\n      0x64\n      dup3\n      add\n        /* \"#utility.yul\":9271:9303   */\n      mstore\n        /* \"#utility.yul\":9320:9339   */\n      0x84\n      add\n        /* \"@openzeppelin/contracts/token/ERC20/ERC20.sol\":9390:9461  require(accountBalance >= amount, \"ERC20: burn amount exceeds balance\") */\n      tag_125\n        /* \"#utility.yul\":8947:9345   */\n      jump\n        /* \"@openzeppelin/contracts/token/ERC20/ERC20.sol\":9390:9461  require(accountBalance >= amount, \"ERC20: burn amount exceeds balance\") */\n    tag_243:\n      sub(shl(0xa0, 0x01), 0x01)\n        /* \"@openzeppelin/contracts/token/ERC20/ERC20.sol\":9495:9513  _balances[account] */\n      dup4\n      and\n        /* \"@openzeppelin/contracts/token/ERC20/ERC20.sol\":9495:9504  _balances */\n      0x00\n        /* \"@openzeppelin/contracts/token/ERC20/ERC20.sol\":9495:9513  _balances[account] */\n      swap1\n      dup2\n      mstore\n      0x20\n      dup2\n      swap1\n      mstore\n      0x40\n      dup2\n      keccak256\n        /* \"@openzeppelin/contracts/token/ERC20/ERC20.sol\":9516:9539  accountBalance - amount */\n      dup4\n      dup4\n      sub\n        /* \"@openzeppelin/contracts/token/ERC20/ERC20.sol\":9495:9539  _balances[account] = accountBalance - amount */\n      swap1\n      sstore\n        /* \"@openzeppelin/contracts/token/ERC20/ERC20.sol\":9559:9571  _totalSupply */\n      0x02\n        /* \"@openzeppelin/contracts/token/ERC20/ERC20.sol\":9559:9581  _totalSupply -= amount */\n      dup1\n      sload\n        /* \"@openzeppelin/contracts/token/ERC20/ERC20.sol\":9533:9539  amount */\n      dup5\n      swap3\n        /* \"@openzeppelin/contracts/token/ERC20/ERC20.sol\":9495:9504  _balances */\n      swap1\n        /* \"@openzeppelin/contracts/token/ERC20/ERC20.sol\":9559:9581  _totalSupply -= amount */\n      tag_246\n      swap1\n        /* \"@openzeppelin/contracts/token/ERC20/ERC20.sol\":9533:9539  amount */\n      dup5\n      swap1\n        /* \"@openzeppelin/contracts/token/ERC20/ERC20.sol\":9559:9581  _totalSupply -= amount */\n      tag_247\n      jump\t// in\n    tag_246:\n      swap1\n      swap2\n      sstore\n      pop\n      pop\n        /* \"@openzeppelin/contracts/token/ERC20/ERC20.sol\":9597:9634  Transfer(account, address(0), amount) */\n      mload(0x40)\n        /* \"#utility.yul\":1258:1283   */\n      dup3\n      dup2\n      mstore\n        /* \"@openzeppelin/contracts/token/ERC20/ERC20.sol\":9623:9624  0 */\n      0x00\n      swap1\n      sub(shl(0xa0, 0x01), 0x01)\n        /* \"@openzeppelin/contracts/token/ERC20/ERC20.sol\":9597:9634  Transfer(account, address(0), amount) */\n      dup6\n      and\n      swap1\n      0xddf252ad1be2c89b69c2b068fc378daa952ba7f163c4a11628f55a4df523b3ef\n      swap1\n        /* \"#utility.yul\":1246:1248   */\n      0x20\n        /* \"#utility.yul\":1231:1249   */\n      add\n        /* \"@openzeppelin/contracts/token/ERC20/ERC20.sol\":9597:9634  Transfer(account, address(0), amount) */\n      mload(0x40)\n      dup1\n      swap2\n      sub\n      swap1\n      log3\n        /* \"@openzeppelin/contracts/token/ERC20/ERC20.sol\":11795:11916  function _beforeTokenTransfer(... */\n      pop\n      pop\n      pop\n      jump\t// out\n        /* \"#utility.yul\":14:432   */\n    tag_28:\n        /* \"#utility.yul\":163:165   */\n      0x20\n        /* \"#utility.yul\":152:161   */\n      dup2\n        /* \"#utility.yul\":145:166   */\n      mstore\n        /* \"#utility.yul\":126:130   */\n      0x00\n        /* \"#utility.yul\":195:201   */\n      dup3\n        /* \"#utility.yul\":189:202   */\n      mload\n        /* \"#utility.yul\":238:244   */\n      dup1\n        /* \"#utility.yul\":233:235   */\n      0x20\n        /* \"#utility.yul\":222:231   */\n      dup5\n        /* \"#utility.yul\":218:236   */\n      add\n        /* \"#utility.yul\":211:245   */\n      mstore\n        /* \"#utility.yul\":297:303   */\n      dup1\n        /* \"#utility.yul\":292:294   */\n      0x20\n        /* \"#utility.yul\":284:290   */\n      dup6\n        /* \"#utility.yul\":280:295   */\n      add\n        /* \"#utility.yul\":275:277   */\n      0x40\n        /* \"#utility.yul\":264:273   */\n      dup6\n        /* \"#utility.yul\":260:278   */\n      add\n        /* \"#utility.yul\":254:304   */\n      mcopy\n        /* \"#utility.yul\":353:354   */\n      0x00\n        /* \"#utility.yul\":348:350   */\n      0x40\n        /* \"#utility.yul\":339:345   */\n      dup3\n        /* \"#utility.yul\":328:337   */\n      dup6\n        /* \"#utility.yul\":324:346   */\n      add\n        /* \"#utility.yul\":320:351   */\n      add\n        /* \"#utility.yul\":313:355   */\n      mstore\n        /* \"#utility.yul\":423:425   */\n      0x40\n        /* \"#utility.yul\":416:418   */\n      0x1f\n        /* \"#utility.yul\":412:419   */\n      not\n        /* \"#utility.yul\":407:409   */\n      0x1f\n        /* \"#utility.yul\":399:405   */\n      dup4\n        /* \"#utility.yul\":395:410   */\n      add\n        /* \"#utility.yul\":391:420   */\n      and\n        /* \"#utility.yul\":380:389   */\n      dup5\n        /* \"#utility.yul\":376:421   */\n      add\n        /* \"#utility.yul\":372:426   */\n      add\n        /* \"#utility.yul\":364:426   */\n      swap2\n      pop\n      pop\n        /* \"#utility.yul\":14:432   */\n      swap3\n      swap2\n      pop\n      pop\n      jump\t// out\n        /* \"#utility.yul\":437:610   */\n    tag_250:\n        /* \"#utility.yul\":505:525   */\n      dup1\n      calldataload\n      sub(shl(0xa0, 0x01), 0x01)\n        /* \"#utility.yul\":554:585   */\n      dup2\n      and\n        /* \"#utility.yul\":544:586   */\n      dup2\n      eq\n        /* \"#utility.yul\":534:604   */\n      tag_255\n      jumpi\n        /* \"#utility.yul\":600:601   */\n      0x00\n        /* \"#utility.yul\":597:598   */\n      0x00\n        /* \"#utility.yul\":590:602   */\n      revert\n        /* \"#utility.yul\":534:604   */\n    tag_255:\n        /* \"#utility.yul\":437:610   */\n      swap2\n      swap1\n      pop\n      jump\t// out\n        /* \"#utility.yul\":615:915   */\n    tag_31:\n        /* \"#utility.yul\":683:689   */\n      0x00\n        /* \"#utility.yul\":691:697   */\n      0x00\n        /* \"#utility.yul\":744:746   */\n      0x40\n        /* \"#utility.yul\":732:741   */\n      dup4\n        /* \"#utility.yul\":723:730   */\n      dup6\n        /* \"#utility.yul\":719:742   */\n      sub\n        /* \"#utility.yul\":715:747   */\n      slt\n        /* \"#utility.yul\":712:764   */\n      iszero\n      tag_257\n      jumpi\n        /* \"#utility.yul\":760:761   */\n      0x00\n        /* \"#utility.yul\":757:758   */\n      0x00\n        /* \"#utility.yul\":750:762   */\n      revert\n        /* \"#utility.yul\":712:764   */\n    tag_257:\n        /* \"#utility.yul\":783:812   */\n      tag_258\n        /* \"#utility.yul\":802:811   */\n      dup4\n        /* \"#utility.yul\":783:812   */\n      tag_250\n      jump\t// in\n    tag_258:\n        /* \"#utility.yul\":773:812   */\n      swap5\n        /* \"#utility.yul\":881:883   */\n      0x20\n        /* \"#utility.yul\":866:884   */\n      swap4\n      swap1\n      swap4\n      add\n        /* \"#utility.yul\":853:885   */\n      calldataload\n      swap4\n      pop\n      pop\n      pop\n        /* \"#utility.yul\":615:915   */\n      jump\t// out\n        /* \"#utility.yul\":1294:1668   */\n    tag_41:\n        /* \"#utility.yul\":1371:1377   */\n      0x00\n        /* \"#utility.yul\":1379:1385   */\n      0x00\n        /* \"#utility.yul\":1387:1393   */\n      0x00\n        /* \"#utility.yul\":1440:1442   */\n      0x60\n        /* \"#utility.yul\":1428:1437   */\n      dup5\n        /* \"#utility.yul\":1419:1426   */\n      dup7\n        /* \"#utility.yul\":1415:1438   */\n      sub\n        /* \"#utility.yul\":1411:1443   */\n      slt\n        /* \"#utility.yul\":1408:1460   */\n      iszero\n      tag_262\n      jumpi\n        /* \"#utility.yul\":1456:1457   */\n      0x00\n        /* \"#utility.yul\":1453:1454   */\n      0x00\n        /* \"#utility.yul\":1446:1458   */\n      revert\n        /* \"#utility.yul\":1408:1460   */\n    tag_262:\n        /* \"#utility.yul\":1479:1508   */\n      tag_263\n        /* \"#utility.yul\":1498:1507   */\n      dup5\n        /* \"#utility.yul\":1479:1508   */\n      tag_250\n      jump\t// in\n    tag_263:\n        /* \"#utility.yul\":1469:1508   */\n      swap3\n      pop\n        /* \"#utility.yul\":1527:1565   */\n      tag_264\n        /* \"#utility.yul\":1561:1563   */\n      0x20\n        /* \"#utility.yul\":1550:1559   */\n      dup6\n        /* \"#utility.yul\":1546:1564   */\n      add\n        /* \"#utility.yul\":1527:1565   */\n      tag_250\n      jump\t// in\n    tag_264:\n        /* \"#utility.yul\":1294:1668   */\n      swap3\n      swap6\n        /* \"#utility.yul\":1517:1565   */\n      swap3\n      swap5\n      pop\n      pop\n      pop\n        /* \"#utility.yul\":1634:1636   */\n      0x40\n        /* \"#utility.yul\":1619:1637   */\n      swap2\n      swap1\n      swap2\n      add\n        /* \"#utility.yul\":1606:1638   */\n      calldataload\n      swap1\n        /* \"#utility.yul\":1294:1668   */\n      jump\t// out\n        /* \"#utility.yul\":1862:2088   */\n    tag_57:\n        /* \"#utility.yul\":1921:1927   */\n      0x00\n        /* \"#utility.yul\":1974:1976   */\n      0x20\n        /* \"#utility.yul\":1962:1971   */\n      dup3\n        /* \"#utility.yul\":1953:1960   */\n      dup5\n        /* \"#utility.yul\":1949:1972   */\n      sub\n        /* \"#utility.yul\":1945:1977   */\n      slt\n        /* \"#utility.yul\":1942:1994   */\n      iszero\n      tag_267\n      jumpi\n        /* \"#utility.yul\":1990:1991   */\n      0x00\n        /* \"#utility.yul\":1987:1988   */\n      0x00\n        /* \"#utility.yul\":1980:1992   */\n      revert\n        /* \"#utility.yul\":1942:1994   */\n    tag_267:\n      pop\n        /* \"#utility.yul\":2035:2058   */\n      calldataload\n      swap2\n        /* \"#utility.yul\":1862:2088   */\n      swap1\n      pop\n      jump\t// out\n        /* \"#utility.yul\":2093:2279   */\n    tag_61:\n        /* \"#utility.yul\":2152:2158   */\n      0x00\n        /* \"#utility.yul\":2205:2207   */\n      0x20\n        /* \"#utility.yul\":2193:2202   */\n      dup3\n        /* \"#utility.yul\":2184:2191   */\n      dup5\n        /* \"#utility.yul\":2180:2203   */\n      sub\n        /* \"#utility.yul\":2176:2208   */\n      slt\n        /* \"#utility.yul\":2173:2225   */\n      iszero\n      tag_269\n      jumpi\n        /* \"#utility.yul\":2221:2222   */\n      0x00\n        /* \"#utility.yul\":2218:2219   */\n      0x00\n        /* \"#utility.yul\":2211:2223   */\n      revert\n        /* \"#utility.yul\":2173:2225   */\n    tag_269:\n        /* \"#utility.yul\":2244:2273   */\n      tag_270\n        /* \"#utility.yul\":2263:2272   */\n      dup3\n        /* \"#utility.yul\":2244:2273   */\n      tag_250\n      jump\t// in\n    tag_270:\n        /* \"#utility.yul\":2234:2273   */\n      swap4\n        /* \"#utility.yul\":2093:2279   */\n      swap3\n      pop\n      pop\n      pop\n      jump\t// out\n        /* \"#utility.yul\":2492:2752   */\n    tag_89:\n        /* \"#utility.yul\":2560:2566   */\n      0x00\n        /* \"#utility.yul\":2568:2574   */\n      0x00\n        /* \"#utility.yul\":2621:2623   */\n      0x40\n        /* \"#utility.yul\":2609:2618   */\n      dup4\n        /* \"#utility.yul\":2600:2607   */\n      dup6\n        /* \"#utility.yul\":2596:2619   */\n      sub\n        /* \"#utility.yul\":2592:2624   */\n      slt\n        /* \"#utility.yul\":2589:2641   */\n      iszero\n      tag_273\n      jumpi\n        /* \"#utility.yul\":2637:2638   */\n      0x00\n        /* \"#utility.yul\":2634:2635   */\n      0x00\n        /* \"#utility.yul\":2627:2639   */\n      revert\n        /* \"#utility.yul\":2589:2641   */\n    tag_273:\n        /* \"#utility.yul\":2660:2689   */\n      tag_274\n        /* \"#utility.yul\":2679:2688   */\n      dup4\n        /* \"#utility.yul\":2660:2689   */\n      tag_250\n      jump\t// in\n    tag_274:\n        /* \"#utility.yul\":2650:2689   */\n      swap2\n      pop\n        /* \"#utility.yul\":2708:2746   */\n      tag_275\n        /* \"#utility.yul\":2742:2744   */\n      0x20\n        /* \"#utility.yul\":2731:2740   */\n      dup5\n        /* \"#utility.yul\":2727:2745   */\n      add\n        /* \"#utility.yul\":2708:2746   */\n      tag_250\n      jump\t// in\n    tag_275:\n        /* \"#utility.yul\":2698:2746   */\n      swap1\n      pop\n        /* \"#utility.yul\":2492:2752   */\n      swap3\n      pop\n      swap3\n      swap1\n      pop\n      jump\t// out\n        /* \"#utility.yul\":2757:3137   */\n    tag_100:\n        /* \"#utility.yul\":2836:2837   */\n      0x01\n        /* \"#utility.yul\":2832:2844   */\n      dup2\n      dup2\n      shr\n      swap1\n        /* \"#utility.yul\":2879:2891   */\n      dup3\n      and\n      dup1\n        /* \"#utility.yul\":2900:2961   */\n      tag_277\n      jumpi\n        /* \"#utility.yul\":2954:2958   */\n      0x7f\n        /* \"#utility.yul\":2946:2952   */\n      dup3\n        /* \"#utility.yul\":2942:2959   */\n      and\n        /* \"#utility.yul\":2932:2959   */\n      swap2\n      pop\n        /* \"#utility.yul\":2900:2961   */\n    tag_277:\n        /* \"#utility.yul\":3007:3009   */\n      0x20\n        /* \"#utility.yul\":2999:3005   */\n      dup3\n        /* \"#utility.yul\":2996:3010   */\n      lt\n        /* \"#utility.yul\":2976:2994   */\n      dup2\n        /* \"#utility.yul\":2973:3011   */\n      sub\n        /* \"#utility.yul\":2970:3131   */\n      tag_278\n      jumpi\n        /* \"#utility.yul\":3053:3063   */\n      0x4e487b71\n        /* \"#utility.yul\":3048:3051   */\n      0xe0\n        /* \"#utility.yul\":3044:3064   */\n      shl\n        /* \"#utility.yul\":3041:3042   */\n      0x00\n        /* \"#utility.yul\":3034:3065   */\n      mstore\n        /* \"#utility.yul\":3088:3092   */\n      0x22\n        /* \"#utility.yul\":3085:3086   */\n      0x04\n        /* \"#utility.yul\":3078:3093   */\n      mstore\n        /* \"#utility.yul\":3116:3120   */\n      0x24\n        /* \"#utility.yul\":3113:3114   */\n      0x00\n        /* \"#utility.yul\":3106:3121   */\n      revert\n        /* \"#utility.yul\":2970:3131   */\n    tag_278:\n      pop\n        /* \"#utility.yul\":2757:3137   */\n      swap2\n      swap1\n      pop\n      jump\t// out\n        /* \"#utility.yul\":3142:3269   */\n    tag_251:\n        /* \"#utility.yul\":3203:3213   */\n      0x4e487b71\n        /* \"#utility.yul\":3198:3201   */\n      0xe0\n        /* \"#utility.yul\":3194:3214   */\n      shl\n        /* \"#utility.yul\":3191:3192   */\n      0x00\n        /* \"#utility.yul\":3184:3215   */\n      mstore\n        /* \"#utility.yul\":3234:3238   */\n      0x11\n        /* \"#utility.yul\":3231:3232   */\n      0x04\n        /* \"#utility.yul\":3224:3239   */\n      mstore\n        /* \"#utility.yul\":3258:3262   */\n      0x24\n        /* \"#utility.yul\":3255:3256   */\n      0x00\n        /* \"#utility.yul\":3248:3263   */\n      revert\n        /* \"#utility.yul\":3274:3399   */\n    tag_122:\n        /* \"#utility.yul\":3339:3348   */\n      dup1\n      dup3\n      add\n        /* \"#utility.yul\":3360:3370   */\n      dup1\n      dup3\n      gt\n        /* \"#utility.yul\":3357:3393   */\n      iszero\n      tag_105\n      jumpi\n        /* \"#utility.yul\":3373:3391   */\n      tag_105\n      tag_251\n      jump\t// in\n        /* \"#utility.yul\":3809:4209   */\n    tag_132:\n        /* \"#utility.yul\":4011:4013   */\n      0x20\n        /* \"#utility.yul\":3993:4014   */\n      dup1\n      dup3\n      mstore\n        /* \"#utility.yul\":4050:4052   */\n      0x24\n        /* \"#utility.yul\":4030:4048   */\n      swap1\n      dup3\n      add\n        /* \"#utility.yul\":4023:4053   */\n      mstore\n        /* \"#utility.yul\":4089:4123   */\n      0x5661756c745368617265546f6b656e3a206f6e6c79207661756c742063616e20\n        /* \"#utility.yul\":4084:4086   */\n      0x40\n        /* \"#utility.yul\":4069:4087   */\n      dup3\n      add\n        /* \"#utility.yul\":4062:4124   */\n      mstore\n      shl(0xe1, 0x313ab937)\n        /* \"#utility.yul\":4155:4157   */\n      0x60\n        /* \"#utility.yul\":4140:4158   */\n      dup3\n      add\n        /* \"#utility.yul\":4133:4167   */\n      mstore\n        /* \"#utility.yul\":4199:4202   */\n      0x80\n        /* \"#utility.yul\":4184:4203   */\n      add\n      swap1\n        /* \"#utility.yul\":3809:4209   */\n      jump\t// out\n        /* \"#utility.yul\":4214:4570   */\n    tag_140:\n        /* \"#utility.yul\":4416:4418   */\n      0x20\n        /* \"#utility.yul\":4398:4419   */\n      dup1\n      dup3\n      mstore\n        /* \"#utility.yul\":4435:4453   */\n      dup2\n      dup2\n      add\n        /* \"#utility.yul\":4428:4458   */\n      mstore\n        /* \"#utility.yul\":4494:4528   */\n      0x4f776e61626c653a2063616c6c6572206973206e6f7420746865206f776e6572\n        /* \"#utility.yul\":4489:4491   */\n      0x40\n        /* \"#utility.yul\":4474:4492   */\n      dup3\n      add\n        /* \"#utility.yul\":4467:4529   */\n      mstore\n        /* \"#utility.yul\":4561:4563   */\n      0x60\n        /* \"#utility.yul\":4546:4564   */\n      add\n      swap1\n        /* \"#utility.yul\":4214:4570   */\n      jump\t// out\n        /* \"#utility.yul\":9350:9478   */\n    tag_247:\n        /* \"#utility.yul\":9417:9426   */\n      dup2\n      dup2\n      sub\n        /* \"#utility.yul\":9438:9449   */\n      dup2\n      dup2\n      gt\n        /* \"#utility.yul\":9435:9472   */\n      iszero\n      tag_105\n      jumpi\n        /* \"#utility.yul\":9452:9470   */\n      tag_105\n      tag_251\n      jump\t// in\n\n    auxdata: 0xa2646970667358221220d242fec96130c545f2b1abab7802e973c9c237fe27109b96bc5bb54b9b9ae20a64736f6c634300081e0033\n}\n",
				"bytecode": {
					"linkReferences": {},
					"object": "608060405234801561000f575f5ffd5b5060405161127d38038061127d83398101604081905261002e9161015b565b8181600361003c8382610244565b5060046100498282610244565b50505061006261005d61006960201b60201c565b61006d565b50506102fe565b3390565b600580546001600160a01b038381166001600160a01b0319831681179093556040519116919082907f8be0079c531659141344cd1fd0a4f28419497f9722a3daafe3b4186f6b6457e0905f90a35050565b634e487b7160e01b5f52604160045260245ffd5b5f82601f8301126100e1575f5ffd5b81516001600160401b038111156100fa576100fa6100be565b604051601f8201601f19908116603f011681016001600160401b0381118282101715610128576101286100be565b60405281815283820160200185101561013f575f5ffd5b8160208501602083015e5f918101602001919091529392505050565b5f5f6040838503121561016c575f5ffd5b82516001600160401b03811115610181575f5ffd5b61018d858286016100d2565b602085015190935090506001600160401b038111156101aa575f5ffd5b6101b6858286016100d2565b9150509250929050565b600181811c908216806101d457607f821691505b6020821081036101f257634e487b7160e01b5f52602260045260245ffd5b50919050565b601f82111561023f57805f5260205f20601f840160051c8101602085101561021d5750805b601f840160051c820191505b8181101561023c575f8155600101610229565b50505b505050565b81516001600160401b0381111561025d5761025d6100be565b6102718161026b84546101c0565b846101f8565b6020601f8211600181146102a3575f831561028c5750848201515b5f19600385901b1c1916600184901b17845561023c565b5f84815260208120601f198516915b828110156102d257878501518255602094850194600190920191016102b2565b50848210156102ef57868401515f19600387901b60f8161c191681555b50505050600190811b01905550565b610f728061030b5f395ff3fe608060405234801561000f575f5ffd5b506004361061011c575f3560e01c806370a08231116100a9578063a457c2d71161006e578063a457c2d714610253578063a9059cbb14610266578063dd62ed3e14610279578063f2fde38b146102b1578063fbfa77cf146102c4575f5ffd5b806370a08231146101e3578063715018a61461020b57806379cc6790146102135780638da5cb5b1461022657806395d89b411461024b575f5ffd5b8063313ce567116100ef578063313ce56714610186578063395093511461019557806340c10f19146101a857806342966c68146101bd5780636817031b146101d0575f5ffd5b806306fdde0314610120578063095ea7b31461013e57806318160ddd1461016157806323b872dd14610173575b5f5ffd5b6101286102d7565b6040516101359190610d37565b60405180910390f35b61015161014c366004610d87565b610367565b6040519015158152602001610135565b6002545b604051908152602001610135565b610151610181366004610daf565b610380565b60405160128152602001610135565b6101516101a3366004610d87565b6103a3565b6101bb6101b6366004610d87565b6103e1565b005b6101bb6101cb366004610de9565b61045a565b6101bb6101de366004610e00565b610490565b6101656101f1366004610e00565b6001600160a01b03165f9081526020819052604090205490565b6101bb610577565b6101bb610221366004610d87565b6105ac565b6005546001600160a01b03165b6040516001600160a01b039091168152602001610135565b6101286105e0565b610151610261366004610d87565b6105ef565b610151610274366004610d87565b610680565b610165610287366004610e20565b6001600160a01b039182165f90815260016020908152604080832093909416825291909152205490565b6101bb6102bf366004610e00565b61068d565b600654610233906001600160a01b031681565b6060600380546102e690610e51565b80601f016020809104026020016040519081016040528092919081815260200182805461031290610e51565b801561035d5780601f106103345761010080835404028352916020019161035d565b820191905f5260205f20905b81548152906001019060200180831161034057829003601f168201915b5050505050905090565b5f33610374818585610725565b60019150505b92915050565b5f3361038d858285610848565b6103988585856108d8565b506001949350505050565b335f8181526001602090815260408083206001600160a01b038716845290915281205490919061037490829086906103dc908790610e9d565b610725565b6006546001600160a01b0316331461044c5760405162461bcd60e51b8152602060048201526024808201527f5661756c745368617265546f6b656e3a206f6e6c79207661756c742063616e206044820152631b5a5b9d60e21b60648201526084015b60405180910390fd5b6104568282610aa4565b5050565b6006546001600160a01b031633146104845760405162461bcd60e51b815260040161044390610eb0565b61048d81610b80565b50565b6005546001600160a01b031633146104ba5760405162461bcd60e51b815260040161044390610ef4565b6001600160a01b0381166105265760405162461bcd60e51b815260206004820152602d60248201527f5661756c745368617265546f6b656e3a207661756c742063616e6e6f7420626560448201526c207a65726f206164647265737360981b6064820152608401610443565b600680546001600160a01b038381166001600160a01b0319831681179093556040519116919082907fa7e0c3d8f7eef668a3772dd695704a83d3c31bac643fa043459f2a016aec83d1905f90a35050565b6005546001600160a01b031633146105a15760405162461bcd60e51b815260040161044390610ef4565b6105aa5f610b8a565b565b6006546001600160a01b031633146105d65760405162461bcd60e51b815260040161044390610eb0565b6104568282610bdb565b6060600480546102e690610e51565b335f8181526001602090815260408083206001600160a01b0387168452909152812054909190838110156106735760405162461bcd60e51b815260206004820152602560248201527f45524332303a2064656372656173656420616c6c6f77616e63652062656c6f77604482015264207a65726f60d81b6064820152608401610443565b6103988286868403610725565b5f336103748185856108d8565b6005546001600160a01b031633146106b75760405162461bcd60e51b815260040161044390610ef4565b6001600160a01b03811661071c5760405162461bcd60e51b815260206004820152602660248201527f4f776e61626c653a206e6577206f776e657220697320746865207a65726f206160448201526564647265737360d01b6064820152608401610443565b61048d81610b8a565b6001600160a01b0383166107875760405162461bcd60e51b8152602060048201526024808201527f45524332303a20617070726f76652066726f6d20746865207a65726f206164646044820152637265737360e01b6064820152608401610443565b6001600160a01b0382166107e85760405162461bcd60e51b815260206004820152602260248201527f45524332303a20617070726f766520746f20746865207a65726f206164647265604482015261737360f01b6064820152608401610443565b6001600160a01b038381165f8181526001602090815260408083209487168084529482529182902085905590518481527f8c5be1e5ebec7d5bd14f71427d1e84f3dd0314c0f7b2291e5b200ac8c7c3b925910160405180910390a3505050565b6001600160a01b038381165f908152600160209081526040808320938616835292905220545f1981146108d257818110156108c55760405162461bcd60e51b815260206004820152601d60248201527f45524332303a20696e73756666696369656e7420616c6c6f77616e63650000006044820152606401610443565b6108d28484848403610725565b50505050565b6001600160a01b03831661093c5760405162461bcd60e51b815260206004820152602560248201527f45524332303a207472616e736665722066726f6d20746865207a65726f206164604482015264647265737360d81b6064820152608401610443565b6001600160a01b03821661099e5760405162461bcd60e51b815260206004820152602360248201527f45524332303a207472616e7366657220746f20746865207a65726f206164647260448201526265737360e81b6064820152608401610443565b6001600160a01b0383165f9081526020819052604090205481811015610a155760405162461bcd60e51b815260206004820152602660248201527f45524332303a207472616e7366657220616d6f756e7420657863656564732062604482015265616c616e636560d01b6064820152608401610443565b6001600160a01b038085165f90815260208190526040808220858503905591851681529081208054849290610a4b908490610e9d565b92505081905550826001600160a01b0316846001600160a01b03167fddf252ad1be2c89b69c2b068fc378daa952ba7f163c4a11628f55a4df523b3ef84604051610a9791815260200190565b60405180910390a36108d2565b6001600160a01b038216610afa5760405162461bcd60e51b815260206004820152601f60248201527f45524332303a206d696e7420746f20746865207a65726f2061646472657373006044820152606401610443565b8060025f828254610b0b9190610e9d565b90915550506001600160a01b0382165f9081526020819052604081208054839290610b37908490610e9d565b90915550506040518181526001600160a01b038316905f907fddf252ad1be2c89b69c2b068fc378daa952ba7f163c4a11628f55a4df523b3ef9060200160405180910390a35050565b61048d3382610bec565b600580546001600160a01b038381166001600160a01b0319831681179093556040519116919082907f8be0079c531659141344cd1fd0a4f28419497f9722a3daafe3b4186f6b6457e0905f90a35050565b610be6823383610848565b61045682825b6001600160a01b038216610c4c5760405162461bcd60e51b815260206004820152602160248201527f45524332303a206275726e2066726f6d20746865207a65726f206164647265736044820152607360f81b6064820152608401610443565b6001600160a01b0382165f9081526020819052604090205481811015610cbf5760405162461bcd60e51b815260206004820152602260248201527f45524332303a206275726e20616d6f756e7420657863656564732062616c616e604482015261636560f01b6064820152608401610443565b6001600160a01b0383165f908152602081905260408120838303905560028054849290610ced908490610f29565b90915550506040518281525f906001600160a01b038516907fddf252ad1be2c89b69c2b068fc378daa952ba7f163c4a11628f55a4df523b3ef9060200160405180910390a3505050565b602081525f82518060208401528060208501604085015e5f604082850101526040601f19601f83011684010191505092915050565b80356001600160a01b0381168114610d82575f5ffd5b919050565b5f5f60408385031215610d98575f5ffd5b610da183610d6c565b946020939093013593505050565b5f5f5f60608486031215610dc1575f5ffd5b610dca84610d6c565b9250610dd860208501610d6c565b929592945050506040919091013590565b5f60208284031215610df9575f5ffd5b5035919050565b5f60208284031215610e10575f5ffd5b610e1982610d6c565b9392505050565b5f5f60408385031215610e31575f5ffd5b610e3a83610d6c565b9150610e4860208401610d6c565b90509250929050565b600181811c90821680610e6557607f821691505b602082108103610e8357634e487b7160e01b5f52602260045260245ffd5b50919050565b634e487b7160e01b5f52601160045260245ffd5b8082018082111561037a5761037a610e89565b60208082526024908201527f5661756c745368617265546f6b656e3a206f6e6c79207661756c742063616e20604082015263313ab93760e11b606082015260800190565b6020808252818101527f4f776e61626c653a2063616c6c6572206973206e6f7420746865206f776e6572604082015260600190565b8181038181111561037a5761037a610e8956fea2646970667358221220d242fec96130c545f2b1abab7802e973c9c237fe27109b96bc5bb54b9b9ae20a64736f6c634300081e0033",
					"opcodes": "PUSH1 0x80 PUSH1 0x40 MSTORE CALLVALUE DUP1 ISZERO PUSH2 0xF JUMPI PUSH0 PUSH0 REVERT JUMPDEST POP PUSH1 0x40 MLOAD PUSH2 0x127D CODESIZE SUB DUP1 PUSH2 0x127D DUP4 CODECOPY DUP2 ADD PUSH1 0x40 DUP2 SWAP1 MSTORE PUSH2 0x2E SWAP2 PUSH2 0x15B JUMP JUMPDEST DUP2 DUP2 PUSH1 0x3 PUSH2 0x3C DUP4 DUP3 PUSH2 0x244 JUMP JUMPDEST POP PUSH1 0x4 PUSH2 0x49 DUP3 DUP3 PUSH2 0x244 JUMP JUMPDEST POP POP POP PUSH2 0x62 PUSH2 0x5D PUSH2 0x69 PUSH1 0x20 SHL PUSH1 0x20 SHR JUMP JUMPDEST PUSH2 0x6D JUMP JUMPDEST POP POP PUSH2 0x2FE JUMP JUMPDEST CALLER SWAP1 JUMP JUMPDEST PUSH1 0x5 DUP1 SLOAD PUSH1 0x1 PUSH1 0x1 PUSH1 0xA0 SHL SUB DUP4 DUP2 AND PUSH1 0x1 PUSH1 0x1 PUSH1 0xA0 SHL SUB NOT DUP4 AND DUP2 OR SWAP1 SWAP4 SSTORE PUSH1 0x40 MLOAD SWAP2 AND SWAP2 SWAP1 DUP3 SWAP1 PUSH32 0x8BE0079C531659141344CD1FD0A4F28419497F9722A3DAAFE3B4186F6B6457E0 SWAP1 PUSH0 SWAP1 LOG3 POP POP JUMP JUMPDEST PUSH4 0x4E487B71 PUSH1 0xE0 SHL PUSH0 MSTORE PUSH1 0x41 PUSH1 0x4 MSTORE PUSH1 0x24 PUSH0 REVERT JUMPDEST PUSH0 DUP3 PUSH1 0x1F DUP4 ADD SLT PUSH2 0xE1 JUMPI PUSH0 PUSH0 REVERT JUMPDEST DUP2 MLOAD PUSH1 0x1 PUSH1 0x1 PUSH1 0x40 SHL SUB DUP2 GT ISZERO PUSH2 0xFA JUMPI PUSH2 0xFA PUSH2 0xBE JUMP JUMPDEST PUSH1 0x40 MLOAD PUSH1 0x1F DUP3 ADD PUSH1 0x1F NOT SWAP1 DUP2 AND PUSH1 0x3F ADD AND DUP2 ADD PUSH1 0x1 PUSH1 0x1 PUSH1 0x40 SHL SUB DUP2 GT DUP3 DUP3 LT OR ISZERO PUSH2 0x128 JUMPI PUSH2 0x128 PUSH2 0xBE JUMP JUMPDEST PUSH1 0x40 MSTORE DUP2 DUP2 MSTORE DUP4 DUP3 ADD PUSH1 0x20 ADD DUP6 LT ISZERO PUSH2 0x13F JUMPI PUSH0 PUSH0 REVERT JUMPDEST DUP2 PUSH1 0x20 DUP6 ADD PUSH1 0x20 DUP4 ADD MCOPY PUSH0 SWAP2 DUP2 ADD PUSH1 0x20 ADD SWAP2 SWAP1 SWAP2 MSTORE SWAP4 SWAP3 POP POP POP JUMP JUMPDEST PUSH0 PUSH0 PUSH1 0x40 DUP4 DUP6 SUB SLT ISZERO PUSH2 0x16C JUMPI PUSH0 PUSH0 REVERT JUMPDEST DUP3 MLOAD PUSH1 0x1 PUSH1 0x1 PUSH1 0x40 SHL SUB DUP2 GT ISZERO PUSH2 0x181 JUMPI PUSH0 PUSH0 REVERT JUMPDEST PUSH2 0x18D DUP6 DUP3 DUP7 ADD PUSH2 0xD2 JUMP JUMPDEST PUSH1 0x20 DUP6 ADD MLOAD SWAP1 SWAP4 POP SWAP1 POP PUSH1 0x1 PUSH1 0x1 PUSH1 0x40 SHL SUB DUP2 GT ISZERO PUSH2 0x1AA JUMPI PUSH0 PUSH0 REVERT JUMPDEST PUSH2 0x1B6 DUP6 DUP3 DUP7 ADD PUSH2 0xD2 JUMP JUMPDEST SWAP2 POP POP SWAP3 POP SWAP3 SWAP1 POP JUMP JUMPDEST PUSH1 0x1 DUP2 DUP2 SHR SWAP1 DUP3 AND DUP1 PUSH2 0x1D4 JUMPI PUSH1 0x7F DUP3 AND SWAP2 POP JUMPDEST PUSH1 0x20 DUP3 LT DUP2 SUB PUSH2 0x1F2 JUMPI PUSH4 0x4E487B71 PUSH1 0xE0 SHL PUSH0 MSTORE PUSH1 0x22 PUSH1 0x4 MSTORE PUSH1 0x24 PUSH0 REVERT JUMPDEST POP SWAP2 SWAP1 POP JUMP JUMPDEST PUSH1 0x1F DUP3 GT ISZERO PUSH2 0x23F JUMPI DUP1 PUSH0 MSTORE PUSH1 0x20 PUSH0 KECCAK256 PUSH1 0x1F DUP5 ADD PUSH1 0x5 SHR DUP2 ADD PUSH1 0x20 DUP6 LT ISZERO PUSH2 0x21D JUMPI POP DUP1 JUMPDEST PUSH1 0x1F DUP5 ADD PUSH1 0x5 SHR DUP3 ADD SWAP2 POP JUMPDEST DUP2 DUP2 LT ISZERO PUSH2 0x23C JUMPI PUSH0 DUP2 SSTORE PUSH1 0x1 ADD PUSH2 0x229 JUMP JUMPDEST POP POP JUMPDEST POP POP POP JUMP JUMPDEST DUP2 MLOAD PUSH1 0x1 PUSH1 0x1 PUSH1 0x40 SHL SUB DUP2 GT ISZERO PUSH2 0x25D JUMPI PUSH2 0x25D PUSH2 0xBE JUMP JUMPDEST PUSH2 0x271 DUP2 PUSH2 0x26B DUP5 SLOAD PUSH2 0x1C0 JUMP JUMPDEST DUP5 PUSH2 0x1F8 JUMP JUMPDEST PUSH1 0x20 PUSH1 0x1F DUP3 GT PUSH1 0x1 DUP2 EQ PUSH2 0x2A3 JUMPI PUSH0 DUP4 ISZERO PUSH2 0x28C JUMPI POP DUP5 DUP3 ADD MLOAD JUMPDEST PUSH0 NOT PUSH1 0x3 DUP6 SWAP1 SHL SHR NOT AND PUSH1 0x1 DUP5 SWAP1 SHL OR DUP5 SSTORE PUSH2 0x23C JUMP JUMPDEST PUSH0 DUP5 DUP2 MSTORE PUSH1 0x20 DUP2 KECCAK256 PUSH1 0x1F NOT DUP6 AND SWAP2 JUMPDEST DUP3 DUP2 LT ISZERO PUSH2 0x2D2 JUMPI DUP8 DUP6 ADD MLOAD DUP3 SSTORE PUSH1 0x20 SWAP5 DUP6 ADD SWAP5 PUSH1 0x1 SWAP1 SWAP3 ADD SWAP2 ADD PUSH2 0x2B2 JUMP JUMPDEST POP DUP5 DUP3 LT ISZERO PUSH2 0x2EF JUMPI DUP7 DUP5 ADD MLOAD PUSH0 NOT PUSH1 0x3 DUP8 SWAP1 SHL PUSH1 0xF8 AND SHR NOT AND DUP2 SSTORE JUMPDEST POP POP POP POP PUSH1 0x1 SWAP1 DUP2 SHL ADD SWAP1 SSTORE POP JUMP JUMPDEST PUSH2 0xF72 DUP1 PUSH2 0x30B PUSH0 CODECOPY PUSH0 RETURN INVALID PUSH1 0x80 PUSH1 0x40 MSTORE CALLVALUE DUP1 ISZERO PUSH2 0xF JUMPI PUSH0 PUSH0 REVERT JUMPDEST POP PUSH1 0x4 CALLDATASIZE LT PUSH2 0x11C JUMPI PUSH0 CALLDATALOAD PUSH1 0xE0 SHR DUP1 PUSH4 0x70A08231 GT PUSH2 0xA9 JUMPI DUP1 PUSH4 0xA457C2D7 GT PUSH2 0x6E JUMPI DUP1 PUSH4 0xA457C2D7 EQ PUSH2 0x253 JUMPI DUP1 PUSH4 0xA9059CBB EQ PUSH2 0x266 JUMPI DUP1 PUSH4 0xDD62ED3E EQ PUSH2 0x279 JUMPI DUP1 PUSH4 0xF2FDE38B EQ PUSH2 0x2B1 JUMPI DUP1 PUSH4 0xFBFA77CF EQ PUSH2 0x2C4 JUMPI PUSH0 PUSH0 REVERT JUMPDEST DUP1 PUSH4 0x70A08231 EQ PUSH2 0x1E3 JUMPI DUP1 PUSH4 0x715018A6 EQ PUSH2 0x20B JUMPI DUP1 PUSH4 0x79CC6790 EQ PUSH2 0x213 JUMPI DUP1 PUSH4 0x8DA5CB5B EQ PUSH2 0x226 JUMPI DUP1 PUSH4 0x95D89B41 EQ PUSH2 0x24B JUMPI PUSH0 PUSH0 REVERT JUMPDEST DUP1 PUSH4 0x313CE567 GT PUSH2 0xEF JUMPI DUP1 PUSH4 0x313CE567 EQ PUSH2 0x186 JUMPI DUP1 PUSH4 0x39509351 EQ PUSH2 0x195 JUMPI DUP1 PUSH4 0x40C10F19 EQ PUSH2 0x1A8 JUMPI DUP1 PUSH4 0x42966C68 EQ PUSH2 0x1BD JUMPI DUP1 PUSH4 0x6817031B EQ PUSH2 0x1D0 JUMPI PUSH0 PUSH0 REVERT JUMPDEST DUP1 PUSH4 0x6FDDE03 EQ PUSH2 0x120 JUMPI DUP1 PUSH4 0x95EA7B3 EQ PUSH2 0x13E JUMPI DUP1 PUSH4 0x18160DDD EQ PUSH2 0x161 JUMPI DUP1 PUSH4 0x23B872DD EQ PUSH2 0x173 JUMPI JUMPDEST PUSH0 PUSH0 REVERT JUMPDEST PUSH2 0x128 PUSH2 0x2D7 JUMP JUMPDEST PUSH1 0x40 MLOAD PUSH2 0x135 SWAP2 SWAP1 PUSH2 0xD37 JUMP JUMPDEST PUSH1 0x40 MLOAD DUP1 SWAP2 SUB SWAP1 RETURN JUMPDEST PUSH2 0x151 PUSH2 0x14C CALLDATASIZE PUSH1 0x4 PUSH2 0xD87 JUMP JUMPDEST PUSH2 0x367 JUMP JUMPDEST PUSH1 0x40 MLOAD SWAP1 ISZERO ISZERO DUP2 MSTORE PUSH1 0x20 ADD PUSH2 0x135 JUMP JUMPDEST PUSH1 0x2 SLOAD JUMPDEST PUSH1 0x40 MLOAD SWAP1 DUP2 MSTORE PUSH1 0x20 ADD PUSH2 0x135 JUMP JUMPDEST PUSH2 0x151 PUSH2 0x181 CALLDATASIZE PUSH1 0x4 PUSH2 0xDAF JUMP JUMPDEST PUSH2 0x380 JUMP JUMPDEST PUSH1 0x40 MLOAD PUSH1 0x12 DUP2 MSTORE PUSH1 0x20 ADD PUSH2 0x135 JUMP JUMPDEST PUSH2 0x151 PUSH2 0x1A3 CALLDATASIZE PUSH1 0x4 PUSH2 0xD87 JUMP JUMPDEST PUSH2 0x3A3 JUMP JUMPDEST PUSH2 0x1BB PUSH2 0x1B6 CALLDATASIZE PUSH1 0x4 PUSH2 0xD87 JUMP JUMPDEST PUSH2 0x3E1 JUMP JUMPDEST STOP JUMPDEST PUSH2 0x1BB PUSH2 0x1CB CALLDATASIZE PUSH1 0x4 PUSH2 0xDE9 JUMP JUMPDEST PUSH2 0x45A JUMP JUMPDEST PUSH2 0x1BB PUSH2 0x1DE CALLDATASIZE PUSH1 0x4 PUSH2 0xE00 JUMP JUMPDEST PUSH2 0x490 JUMP JUMPDEST PUSH2 0x165 PUSH2 0x1F1 CALLDATASIZE PUSH1 0x4 PUSH2 0xE00 JUMP JUMPDEST PUSH1 0x1 PUSH1 0x1 PUSH1 0xA0 SHL SUB AND PUSH0 SWAP1 DUP2 MSTORE PUSH1 0x20 DUP2 SWAP1 MSTORE PUSH1 0x40 SWAP1 KECCAK256 SLOAD SWAP1 JUMP JUMPDEST PUSH2 0x1BB PUSH2 0x577 JUMP JUMPDEST PUSH2 0x1BB PUSH2 0x221 CALLDATASIZE PUSH1 0x4 PUSH2 0xD87 JUMP JUMPDEST PUSH2 0x5AC JUMP JUMPDEST PUSH1 0x5 SLOAD PUSH1 0x1 PUSH1 0x1 PUSH1 0xA0 SHL SUB AND JUMPDEST PUSH1 0x40 MLOAD PUSH1 0x1 PUSH1 0x1 PUSH1 0xA0 SHL SUB SWAP1 SWAP2 AND DUP2 MSTORE PUSH1 0x20 ADD PUSH2 0x135 JUMP JUMPDEST PUSH2 0x128 PUSH2 0x5E0 JUMP JUMPDEST PUSH2 0x151 PUSH2 0x261 CALLDATASIZE PUSH1 0x4 PUSH2 0xD87 JUMP JUMPDEST PUSH2 0x5EF JUMP JUMPDEST PUSH2 0x151 PUSH2 0x274 CALLDATASIZE PUSH1 0x4 PUSH2 0xD87 JUMP JUMPDEST PUSH2 0x680 JUMP JUMPDEST PUSH2 0x165 PUSH2 0x287 CALLDATASIZE PUSH1 0x4 PUSH2 0xE20 JUMP JUMPDEST PUSH1 0x1 PUSH1 0x1 PUSH1 0xA0 SHL SUB SWAP2 DUP3 AND PUSH0 SWAP1 DUP2 MSTORE PUSH1 0x1 PUSH1 0x20 SWAP1 DUP2 MSTORE PUSH1 0x40 DUP1 DUP4 KECCAK256 SWAP4 SWAP1 SWAP5 AND DUP3 MSTORE SWAP2 SWAP1 SWAP2 MSTORE KECCAK256 SLOAD SWAP1 JUMP JUMPDEST PUSH2 0x1BB PUSH2 0x2BF CALLDATASIZE PUSH1 0x4 PUSH2 0xE00 JUMP JUMPDEST PUSH2 0x68D JUMP JUMPDEST PUSH1 0x6 SLOAD PUSH2 0x233 SWAP1 PUSH1 0x1 PUSH1 0x1 PUSH1 0xA0 SHL SUB AND DUP2 JUMP JUMPDEST PUSH1 0x60 PUSH1 0x3 DUP1 SLOAD PUSH2 0x2E6 SWAP1 PUSH2 0xE51 JUMP JUMPDEST DUP1 PUSH1 0x1F ADD PUSH1 0x20 DUP1 SWAP2 DIV MUL PUSH1 0x20 ADD PUSH1 0x40 MLOAD SWAP1 DUP2 ADD PUSH1 0x40 MSTORE DUP1 SWAP3 SWAP2 SWAP1 DUP2 DUP2 MSTORE PUSH1 0x20 ADD DUP3 DUP1 SLOAD PUSH2 0x312 SWAP1 PUSH2 0xE51 JUMP JUMPDEST DUP1 ISZERO PUSH2 0x35D JUMPI DUP1 PUSH1 0x1F LT PUSH2 0x334 JUMPI PUSH2 0x100 DUP1 DUP4 SLOAD DIV MUL DUP4 MSTORE SWAP2 PUSH1 0x20 ADD SWAP2 PUSH2 0x35D JUMP JUMPDEST DUP3 ADD SWAP2 SWAP1 PUSH0 MSTORE PUSH1 0x20 PUSH0 KECCAK256 SWAP1 JUMPDEST DUP2 SLOAD DUP2 MSTORE SWAP1 PUSH1 0x1 ADD SWAP1 PUSH1 0x20 ADD DUP1 DUP4 GT PUSH2 0x340 JUMPI DUP3 SWAP1 SUB PUSH1 0x1F AND DUP3 ADD SWAP2 JUMPDEST POP POP POP POP POP SWAP1 POP SWAP1 JUMP JUMPDEST PUSH0 CALLER PUSH2 0x374 DUP2 DUP6 DUP6 PUSH2 0x725 JUMP JUMPDEST PUSH1 0x1 SWAP2 POP POP JUMPDEST SWAP3 SWAP2 POP POP JUMP JUMPDEST PUSH0 CALLER PUSH2 0x38D DUP6 DUP3 DUP6 PUSH2 0x848 JUMP JUMPDEST PUSH2 0x398 DUP6 DUP6 DUP6 PUSH2 0x8D8 JUMP JUMPDEST POP PUSH1 0x1 SWAP5 SWAP4 POP POP POP POP JUMP JUMPDEST CALLER PUSH0 DUP2 DUP2 MSTORE PUSH1 0x1 PUSH1 0x20 SWAP1 DUP2 MSTORE PUSH1 0x40 DUP1 DUP4 KECCAK256 PUSH1 0x1 PUSH1 0x1 PUSH1 0xA0 SHL SUB DUP8 AND DUP5 MSTORE SWAP1 SWAP2 MSTORE DUP2 KECCAK256 SLOAD SWAP1 SWAP2 SWAP1 PUSH2 0x374 SWAP1 DUP3 SWAP1 DUP7 SWAP1 PUSH2 0x3DC SWAP1 DUP8 SWAP1 PUSH2 0xE9D JUMP JUMPDEST PUSH2 0x725 JUMP JUMPDEST PUSH1 0x6 SLOAD PUSH1 0x1 PUSH1 0x1 PUSH1 0xA0 SHL SUB AND CALLER EQ PUSH2 0x44C JUMPI PUSH1 0x40 MLOAD PUSH3 0x461BCD PUSH1 0xE5 SHL DUP2 MSTORE PUSH1 0x20 PUSH1 0x4 DUP3 ADD MSTORE PUSH1 0x24 DUP1 DUP3 ADD MSTORE PUSH32 0x5661756C745368617265546F6B656E3A206F6E6C79207661756C742063616E20 PUSH1 0x44 DUP3 ADD MSTORE PUSH4 0x1B5A5B9D PUSH1 0xE2 SHL PUSH1 0x64 DUP3 ADD MSTORE PUSH1 0x84 ADD JUMPDEST PUSH1 0x40 MLOAD DUP1 SWAP2 SUB SWAP1 REVERT JUMPDEST PUSH2 0x456 DUP3 DUP3 PUSH2 0xAA4 JUMP JUMPDEST POP POP JUMP JUMPDEST PUSH1 0x6 SLOAD PUSH1 0x1 PUSH1 0x1 PUSH1 0xA0 SHL SUB AND CALLER EQ PUSH2 0x484 JUMPI PUSH1 0x40 MLOAD PUSH3 0x461BCD PUSH1 0xE5 SHL DUP2 MSTORE PUSH1 0x4 ADD PUSH2 0x443 SWAP1 PUSH2 0xEB0 JUMP JUMPDEST PUSH2 0x48D DUP2 PUSH2 0xB80 JUMP JUMPDEST POP JUMP JUMPDEST PUSH1 0x5 SLOAD PUSH1 0x1 PUSH1 0x1 PUSH1 0xA0 SHL SUB AND CALLER EQ PUSH2 0x4BA JUMPI PUSH1 0x40 MLOAD PUSH3 0x461BCD PUSH1 0xE5 SHL DUP2 MSTORE PUSH1 0x4 ADD PUSH2 0x443 SWAP1 PUSH2 0xEF4 JUMP JUMPDEST PUSH1 0x1 PUSH1 0x1 PUSH1 0xA0 SHL SUB DUP2 AND PUSH2 0x526 JUMPI PUSH1 0x40 MLOAD PUSH3 0x461BCD PUSH1 0xE5 SHL DUP2 MSTORE PUSH1 0x20 PUSH1 0x4 DUP3 ADD MSTORE PUSH1 0x2D PUSH1 0x24 DUP3 ADD MSTORE PUSH32 0x5661756C745368617265546F6B656E3A207661756C742063616E6E6F74206265 PUSH1 0x44 DUP3 ADD MSTORE PUSH13 0x207A65726F2061646472657373 PUSH1 0x98 SHL PUSH1 0x64 DUP3 ADD MSTORE PUSH1 0x84 ADD PUSH2 0x443 JUMP JUMPDEST PUSH1 0x6 DUP1 SLOAD PUSH1 0x1 PUSH1 0x1 PUSH1 0xA0 SHL SUB DUP4 DUP2 AND PUSH1 0x1 PUSH1 0x1 PUSH1 0xA0 SHL SUB NOT DUP4 AND DUP2 OR SWAP1 SWAP4 SSTORE PUSH1 0x40 MLOAD SWAP2 AND SWAP2 SWAP1 DUP3 SWAP1 PUSH32 0xA7E0C3D8F7EEF668A3772DD695704A83D3C31BAC643FA043459F2A016AEC83D1 SWAP1 PUSH0 SWAP1 LOG3 POP POP JUMP JUMPDEST PUSH1 0x5 SLOAD PUSH1 0x1 PUSH1 0x1 PUSH1 0xA0 SHL SUB AND CALLER EQ PUSH2 0x5A1 JUMPI PUSH1 0x40 MLOAD PUSH3 0x461BCD PUSH1 0xE5 SHL DUP2 MSTORE PUSH1 0x4 ADD PUSH2 0x443 SWAP1 PUSH2 0xEF4 JUMP JUMPDEST PUSH2 0x5AA PUSH0 PUSH2 0xB8A JUMP JUMPDEST JUMP JUMPDEST PUSH1 0x6 SLOAD PUSH1 0x1 PUSH1 0x1 PUSH1 0xA0 SHL SUB AND CALLER EQ PUSH2 0x5D6 JUMPI PUSH1 0x40 MLOAD PUSH3 0x461BCD PUSH1 0xE5 SHL DUP2 MSTORE PUSH1 0x4 ADD PUSH2 0x443 SWAP1 PUSH2 0xEB0 JUMP JUMPDEST PUSH2 0x456 DUP3 DUP3 PUSH2 0xBDB JUMP JUMPDEST PUSH1 0x60 PUSH1 0x4 DUP1 SLOAD PUSH2 0x2E6 SWAP1 PUSH2 0xE51 JUMP JUMPDEST CALLER PUSH0 DUP2 DUP2 MSTORE PUSH1 0x1 PUSH1 0x20 SWAP1 DUP2 MSTORE PUSH1 0x40 DUP1 DUP4 KECCAK256 PUSH1 0x1 PUSH1 0x1 PUSH1 0xA0 SHL SUB DUP8 AND DUP5 MSTORE SWAP1 SWAP2 MSTORE DUP2 KECCAK256 SLOAD SWAP1 SWAP2 SWAP1 DUP4 DUP2 LT ISZERO PUSH2 0x673 JUMPI PUSH1 0x40 MLOAD PUSH3 0x461BCD PUSH1 0xE5 SHL DUP2 MSTORE PUSH1 0x20 PUSH1 0x4 DUP3 ADD MSTORE PUSH1 0x25 PUSH1 0x24 DUP3 ADD MSTORE PUSH32 0x45524332303A2064656372656173656420616C6C6F77616E63652062656C6F77 PUSH1 0x44 DUP3 ADD MSTORE PUSH5 0x207A65726F PUSH1 0xD8 SHL PUSH1 0x64 DUP3 ADD MSTORE PUSH1 0x84 ADD PUSH2 0x443 JUMP JUMPDEST PUSH2 0x398 DUP3 DUP7 DUP7 DUP5 SUB PUSH2 0x725 JUMP JUMPDEST PUSH0 CALLER PUSH2 0x374 DUP2 DUP6 DUP6 PUSH2 0x8D8 JUMP JUMPDEST PUSH1 0x5 SLOAD PUSH1 0x1 PUSH1 0x1 PUSH1 0xA0 SHL SUB AND CALLER EQ PUSH2 0x6B7 JUMPI PUSH1 0x40 MLOAD PUSH3 0x461BCD PUSH1 0xE5 SHL DUP2 MSTORE PUSH1 0x4 ADD PUSH2 0x443 SWAP1 PUSH2 0xEF4 JUMP JUMPDEST PUSH1 0x1 PUSH1 0x1 PUSH1 0xA0 SHL SUB DUP2 AND PUSH2 0x71C JUMPI PUSH1 0x40 MLOAD PUSH3 0x461BCD PUSH1 0xE5 SHL DUP2 MSTORE PUSH1 0x20 PUSH1 0x4 DUP3 ADD MSTORE PUSH1 0x26 PUSH1 0x24 DUP3 ADD MSTORE PUSH32 0x4F776E61626C653A206E6577206F776E657220697320746865207A65726F2061 PUSH1 0x44 DUP3 ADD MSTORE PUSH6 0x646472657373 PUSH1 0xD0 SHL PUSH1 0x64 DUP3 ADD MSTORE PUSH1 0x84 ADD PUSH2 0x443 JUMP JUMPDEST PUSH2 0x48D DUP2 PUSH2 0xB8A JUMP JUMPDEST PUSH1 0x1 PUSH1 0x1 PUSH1 0xA0 SHL SUB DUP4 AND PUSH2 0x787 JUMPI PUSH1 0x40 MLOAD PUSH3 0x461BCD PUSH1 0xE5 SHL DUP2 MSTORE PUSH1 0x20 PUSH1 0x4 DUP3 ADD MSTORE PUSH1 0x24 DUP1 DUP3 ADD MSTORE PUSH32 0x45524332303A20617070726F76652066726F6D20746865207A65726F20616464 PUSH1 0x44 DUP3 ADD MSTORE PUSH4 0x72657373 PUSH1 0xE0 SHL PUSH1 0x64 DUP3 ADD MSTORE PUSH1 0x84 ADD PUSH2 0x443 JUMP JUMPDEST PUSH1 0x1 PUSH1 0x1 PUSH1 0xA0 SHL SUB DUP3 AND PUSH2 0x7E8 JUMPI PUSH1 0x40 MLOAD PUSH3 0x461BCD PUSH1 0xE5 SHL DUP2 MSTORE PUSH1 0x20 PUSH1 0x4 DUP3 ADD MSTORE PUSH1 0x22 PUSH1 0x24 DUP3 ADD MSTORE PUSH32 0x45524332303A20617070726F766520746F20746865207A65726F206164647265 PUSH1 0x44 DUP3 ADD MSTORE PUSH2 0x7373 PUSH1 0xF0 SHL PUSH1 0x64 DUP3 ADD MSTORE PUSH1 0x84 ADD PUSH2 0x443 JUMP JUMPDEST PUSH1 0x1 PUSH1 0x1 PUSH1 0xA0 SHL SUB DUP4 DUP2 AND PUSH0 DUP2 DUP2 MSTORE PUSH1 0x1 PUSH1 0x20 SWAP1 DUP2 MSTORE PUSH1 0x40 DUP1 DUP4 KECCAK256 SWAP5 DUP8 AND DUP1 DUP5 MSTORE SWAP5 DUP3 MSTORE SWAP2 DUP3 SWAP1 KECCAK256 DUP6 SWAP1 SSTORE SWAP1 MLOAD DUP5 DUP2 MSTORE PUSH32 0x8C5BE1E5EBEC7D5BD14F71427D1E84F3DD0314C0F7B2291E5B200AC8C7C3B925 SWAP2 ADD PUSH1 0x40 MLOAD DUP1 SWAP2 SUB SWAP1 LOG3 POP POP POP JUMP JUMPDEST PUSH1 0x1 PUSH1 0x1 PUSH1 0xA0 SHL SUB DUP4 DUP2 AND PUSH0 SWAP1 DUP2 MSTORE PUSH1 0x1 PUSH1 0x20 SWAP1 DUP2 MSTORE PUSH1 0x40 DUP1 DUP4 KECCAK256 SWAP4 DUP7 AND DUP4 MSTORE SWAP3 SWAP1 MSTORE KECCAK256 SLOAD PUSH0 NOT DUP2 EQ PUSH2 0x8D2 JUMPI DUP2 DUP2 LT ISZERO PUSH2 0x8C5 JUMPI PUSH1 0x40 MLOAD PUSH3 0x461BCD PUSH1 0xE5 SHL DUP2 MSTORE PUSH1 0x20 PUSH1 0x4 DUP3 ADD MSTORE PUSH1 0x1D PUSH1 0x24 DUP3 ADD MSTORE PUSH32 0x45524332303A20696E73756666696369656E7420616C6C6F77616E6365000000 PUSH1 0x44 DUP3 ADD MSTORE PUSH1 0x64 ADD PUSH2 0x443 JUMP JUMPDEST PUSH2 0x8D2 DUP5 DUP5 DUP5 DUP5 SUB PUSH2 0x725 JUMP JUMPDEST POP POP POP POP JUMP JUMPDEST PUSH1 0x1 PUSH1 0x1 PUSH1 0xA0 SHL SUB DUP4 AND PUSH2 0x93C JUMPI PUSH1 0x40 MLOAD PUSH3 0x461BCD PUSH1 0xE5 SHL DUP2 MSTORE PUSH1 0x20 PUSH1 0x4 DUP3 ADD MSTORE PUSH1 0x25 PUSH1 0x24 DUP3 ADD MSTORE PUSH32 0x45524332303A207472616E736665722066726F6D20746865207A65726F206164 PUSH1 0x44 DUP3 ADD MSTORE PUSH5 0x6472657373 PUSH1 0xD8 SHL PUSH1 0x64 DUP3 ADD MSTORE PUSH1 0x84 ADD PUSH2 0x443 JUMP JUMPDEST PUSH1 0x1 PUSH1 0x1 PUSH1 0xA0 SHL SUB DUP3 AND PUSH2 0x99E JUMPI PUSH1 0x40 MLOAD PUSH3 0x461BCD PUSH1 0xE5 SHL DUP2 MSTORE PUSH1 0x20 PUSH1 0x4 DUP3 ADD MSTORE PUSH1 0x23 PUSH1 0x24 DUP3 ADD MSTORE PUSH32 0x45524332303A207472616E7366657220746F20746865207A65726F2061646472 PUSH1 0x44 DUP3 ADD MSTORE PUSH3 0x657373 PUSH1 0xE8 SHL PUSH1 0x64 DUP3 ADD MSTORE PUSH1 0x84 ADD PUSH2 0x443 JUMP JUMPDEST PUSH1 0x1 PUSH1 0x1 PUSH1 0xA0 SHL SUB DUP4 AND PUSH0 SWAP1 DUP2 MSTORE PUSH1 0x20 DUP2 SWAP1 MSTORE PUSH1 0x40 SWAP1 KECCAK256 SLOAD DUP2 DUP2 LT ISZERO PUSH2 0xA15 JUMPI PUSH1 0x40 MLOAD PUSH3 0x461BCD PUSH1 0xE5 SHL DUP2 MSTORE PUSH1 0x20 PUSH1 0x4 DUP3 ADD MSTORE PUSH1 0x26 PUSH1 0x24 DUP3 ADD MSTORE PUSH32 0x45524332303A207472616E7366657220616D6F756E7420657863656564732062 PUSH1 0x44 DUP3 ADD MSTORE PUSH6 0x616C616E6365 PUSH1 0xD0 SHL PUSH1 0x64 DUP3 ADD MSTORE PUSH1 0x84 ADD PUSH2 0x443 JUMP JUMPDEST PUSH1 0x1 PUSH1 0x1 PUSH1 0xA0 SHL SUB DUP1 DUP6 AND PUSH0 SWAP1 DUP2 MSTORE PUSH1 0x20 DUP2 SWAP1 MSTORE PUSH1 0x40 DUP1 DUP3 KECCAK256 DUP6 DUP6 SUB SWAP1 SSTORE SWAP2 DUP6 AND DUP2 MSTORE SWAP1 DUP2 KECCAK256 DUP1 SLOAD DUP5 SWAP3 SWAP1 PUSH2 0xA4B SWAP1 DUP5 SWAP1 PUSH2 0xE9D JUMP JUMPDEST SWAP3 POP POP DUP2 SWAP1 SSTORE POP DUP3 PUSH1 0x1 PUSH1 0x1 PUSH1 0xA0 SHL SUB AND DUP5 PUSH1 0x1 PUSH1 0x1 PUSH1 0xA0 SHL SUB AND PUSH32 0xDDF252AD1BE2C89B69C2B068FC378DAA952BA7F163C4A11628F55A4DF523B3EF DUP5 PUSH1 0x40 MLOAD PUSH2 0xA97 SWAP2 DUP2 MSTORE PUSH1 0x20 ADD SWAP1 JUMP JUMPDEST PUSH1 0x40 MLOAD DUP1 SWAP2 SUB SWAP1 LOG3 PUSH2 0x8D2 JUMP JUMPDEST PUSH1 0x1 PUSH1 0x1 PUSH1 0xA0 SHL SUB DUP3 AND PUSH2 0xAFA JUMPI PUSH1 0x40 MLOAD PUSH3 0x461BCD PUSH1 0xE5 SHL DUP2 MSTORE PUSH1 0x20 PUSH1 0x4 DUP3 ADD MSTORE PUSH1 0x1F PUSH1 0x24 DUP3 ADD MSTORE PUSH32 0x45524332303A206D696E7420746F20746865207A65726F206164647265737300 PUSH1 0x44 DUP3 ADD MSTORE PUSH1 0x64 ADD PUSH2 0x443 JUMP JUMPDEST DUP1 PUSH1 0x2 PUSH0 DUP3 DUP3 SLOAD PUSH2 0xB0B SWAP2 SWAP1 PUSH2 0xE9D JUMP JUMPDEST SWAP1 SWAP2 SSTORE POP POP PUSH1 0x1 PUSH1 0x1 PUSH1 0xA0 SHL SUB DUP3 AND PUSH0 SWAP1 DUP2 MSTORE PUSH1 0x20 DUP2 SWAP1 MSTORE PUSH1 0x40 DUP2 KECCAK256 DUP1 SLOAD DUP4 SWAP3 SWAP1 PUSH2 0xB37 SWAP1 DUP5 SWAP1 PUSH2 0xE9D JUMP JUMPDEST SWAP1 SWAP2 SSTORE POP POP PUSH1 0x40 MLOAD DUP2 DUP2 MSTORE PUSH1 0x1 PUSH1 0x1 PUSH1 0xA0 SHL SUB DUP4 AND SWAP1 PUSH0 SWAP1 PUSH32 0xDDF252AD1BE2C89B69C2B068FC378DAA952BA7F163C4A11628F55A4DF523B3EF SWAP1 PUSH1 0x20 ADD PUSH1 0x40 MLOAD DUP1 SWAP2 SUB SWAP1 LOG3 POP POP JUMP JUMPDEST PUSH2 0x48D CALLER DUP3 PUSH2 0xBEC JUMP JUMPDEST PUSH1 0x5 DUP1 SLOAD PUSH1 0x1 PUSH1 0x1 PUSH1 0xA0 SHL SUB DUP4 DUP2 AND PUSH1 0x1 PUSH1 0x1 PUSH1 0xA0 SHL SUB NOT DUP4 AND DUP2 OR SWAP1 SWAP4 SSTORE PUSH1 0x40 MLOAD SWAP2 AND SWAP2 SWAP1 DUP3 SWAP1 PUSH32 0x8BE0079C531659141344CD1FD0A4F28419497F9722A3DAAFE3B4186F6B6457E0 SWAP1 PUSH0 SWAP1 LOG3 POP POP JUMP JUMPDEST PUSH2 0xBE6 DUP3 CALLER DUP4 PUSH2 0x848 JUMP JUMPDEST PUSH2 0x456 DUP3 DUP3 JUMPDEST PUSH1 0x1 PUSH1 0x1 PUSH1 0xA0 SHL SUB DUP3 AND PUSH2 0xC4C JUMPI PUSH1 0x40 MLOAD PUSH3 0x461BCD PUSH1 0xE5 SHL DUP2 MSTORE PUSH1 0x20 PUSH1 0x4 DUP3 ADD MSTORE PUSH1 0x21 PUSH1 0x24 DUP3 ADD MSTORE PUSH32 0x45524332303A206275726E2066726F6D20746865207A65726F20616464726573 PUSH1 0x44 DUP3 ADD MSTORE PUSH1 0x73 PUSH1 0xF8 SHL PUSH1 0x64 DUP3 ADD MSTORE PUSH1 0x84 ADD PUSH2 0x443 JUMP JUMPDEST PUSH1 0x1 PUSH1 0x1 PUSH1 0xA0 SHL SUB DUP3 AND PUSH0 SWAP1 DUP2 MSTORE PUSH1 0x20 DUP2 SWAP1 MSTORE PUSH1 0x40 SWAP1 KECCAK256 SLOAD DUP2 DUP2 LT ISZERO PUSH2 0xCBF JUMPI PUSH1 0x40 MLOAD PUSH3 0x461BCD PUSH1 0xE5 SHL DUP2 MSTORE PUSH1 0x20 PUSH1 0x4 DUP3 ADD MSTORE PUSH1 0x22 PUSH1 0x24 DUP3 ADD MSTORE PUSH32 0x45524332303A206275726E20616D6F756E7420657863656564732062616C616E PUSH1 0x44 DUP3 ADD MSTORE PUSH2 0x6365 PUSH1 0xF0 SHL PUSH1 0x64 DUP3 ADD MSTORE PUSH1 0x84 ADD PUSH2 0x443 JUMP JUMPDEST PUSH1 0x1 PUSH1 0x1 PUSH1 0xA0 SHL SUB DUP4 AND PUSH0 SWAP1 DUP2 MSTORE PUSH1 0x20 DUP2 SWAP1 MSTORE PUSH1 0x40 DUP2 KECCAK256 DUP4 DUP4 SUB SWAP1 SSTORE PUSH1 0x2 DUP1 SLOAD DUP5 SWAP3 SWAP1 PUSH2 0xCED SWAP1 DUP5 SWAP1 PUSH2 0xF29 JUMP JUMPDEST SWAP1 SWAP2 SSTORE POP POP PUSH1 0x40 MLOAD DUP3 DUP2 MSTORE PUSH0 SWAP1 PUSH1 0x1 PUSH1 0x1 PUSH1 0xA0 SHL SUB DUP6 AND SWAP1 PUSH32 0xDDF252AD1BE2C89B69C2B068FC378DAA952BA7F163C4A11628F55A4DF523B3EF SWAP1 PUSH1 0x20 ADD PUSH1 0x40 MLOAD DUP1 SWAP2 SUB SWAP1 LOG3 POP POP POP JUMP JUMPDEST PUSH1 0x20 DUP2 MSTORE PUSH0 DUP3 MLOAD DUP1 PUSH1 0x20 DUP5 ADD MSTORE DUP1 PUSH1 0x20 DUP6 ADD PUSH1 0x40 DUP6 ADD MCOPY PUSH0 PUSH1 0x40 DUP3 DUP6 ADD ADD MSTORE PUSH1 0x40 PUSH1 0x1F NOT PUSH1 0x1F DUP4 ADD AND DUP5 ADD ADD SWAP2 POP POP SWAP3 SWAP2 POP POP JUMP JUMPDEST DUP1 CALLDATALOAD PUSH1 0x1 PUSH1 0x1 PUSH1 0xA0 SHL SUB DUP2 AND DUP2 EQ PUSH2 0xD82 JUMPI PUSH0 PUSH0 REVERT JUMPDEST SWAP2 SWAP1 POP JUMP JUMPDEST PUSH0 PUSH0 PUSH1 0x40 DUP4 DUP6 SUB SLT ISZERO PUSH2 0xD98 JUMPI PUSH0 PUSH0 REVERT JUMPDEST PUSH2 0xDA1 DUP4 PUSH2 0xD6C JUMP JUMPDEST SWAP5 PUSH1 0x20 SWAP4 SWAP1 SWAP4 ADD CALLDATALOAD SWAP4 POP POP POP JUMP JUMPDEST PUSH0 PUSH0 PUSH0 PUSH1 0x60 DUP5 DUP7 SUB SLT ISZERO PUSH2 0xDC1 JUMPI PUSH0 PUSH0 REVERT JUMPDEST PUSH2 0xDCA DUP5 PUSH2 0xD6C JUMP JUMPDEST SWAP3 POP PUSH2 0xDD8 PUSH1 0x20 DUP6 ADD PUSH2 0xD6C JUMP JUMPDEST SWAP3 SWAP6 SWAP3 SWAP5 POP POP POP PUSH1 0x40 SWAP2 SWAP1 SWAP2 ADD CALLDATALOAD SWAP1 JUMP JUMPDEST PUSH0 PUSH1 0x20 DUP3 DUP5 SUB SLT ISZERO PUSH2 0xDF9 JUMPI PUSH0 PUSH0 REVERT JUMPDEST POP CALLDATALOAD SWAP2 SWAP1 POP JUMP JUMPDEST PUSH0 PUSH1 0x20 DUP3 DUP5 SUB SLT ISZERO PUSH2 0xE10 JUMPI PUSH0 PUSH0 REVERT JUMPDEST PUSH2 0xE19 DUP3 PUSH2 0xD6C JUMP JUMPDEST SWAP4 SWAP3 POP POP POP JUMP JUMPDEST PUSH0 PUSH0 PUSH1 0x40 DUP4 DUP6 SUB SLT ISZERO PUSH2 0xE31 JUMPI PUSH0 PUSH0 REVERT JUMPDEST PUSH2 0xE3A DUP4 PUSH2 0xD6C JUMP JUMPDEST SWAP2 POP PUSH2 0xE48 PUSH1 0x20 DUP5 ADD PUSH2 0xD6C JUMP JUMPDEST SWAP1 POP SWAP3 POP SWAP3 SWAP1 POP JUMP JUMPDEST PUSH1 0x1 DUP2 DUP2 SHR SWAP1 DUP3 AND DUP1 PUSH2 0xE65 JUMPI PUSH1 0x7F DUP3 AND SWAP2 POP JUMPDEST PUSH1 0x20 DUP3 LT DUP2 SUB PUSH2 0xE83 JUMPI PUSH4 0x4E487B71 PUSH1 0xE0 SHL PUSH0 MSTORE PUSH1 0x22 PUSH1 0x4 MSTORE PUSH1 0x24 PUSH0 REVERT JUMPDEST POP SWAP2 SWAP1 POP JUMP JUMPDEST PUSH4 0x4E487B71 PUSH1 0xE0 SHL PUSH0 MSTORE PUSH1 0x11 PUSH1 0x4 MSTORE PUSH1 0x24 PUSH0 REVERT JUMPDEST DUP1 DUP3 ADD DUP1 DUP3 GT ISZERO PUSH2 0x37A JUMPI PUSH2 0x37A PUSH2 0xE89 JUMP JUMPDEST PUSH1 0x20 DUP1 DUP3 MSTORE PUSH1 0x24 SWAP1 DUP3 ADD MSTORE PUSH32 0x5661756C745368617265546F6B656E3A206F6E6C79207661756C742063616E20 PUSH1 0x40 DUP3 ADD MSTORE PUSH4 0x313AB937 PUSH1 0xE1 SHL PUSH1 0x60 DUP3 ADD MSTORE PUSH1 0x80 ADD SWAP1 JUMP JUMPDEST PUSH1 0x20 DUP1 DUP3 MSTORE DUP2 DUP2 ADD MSTORE PUSH32 0x4F776E61626C653A2063616C6C6572206973206E6F7420746865206F776E6572 PUSH1 0x40 DUP3 ADD MSTORE PUSH1 0x60 ADD SWAP1 JUMP JUMPDEST DUP2 DUP2 SUB DUP2 DUP2 GT ISZERO PUSH2 0x37A JUMPI PUSH2 0x37A PUSH2 0xE89 JUMP INVALID LOG2 PUSH5 0x6970667358 0x22 SLT KECCAK256 0xD2 TIMESTAMP INVALID 0xC9 PUSH2 0x30C5 GASLIMIT CALLCODE 0xB1 0xAB 0xAB PUSH25 0x2E973C9C237FE27109B96BC5BB54B9B9AE20A64736F6C6343 STOP ADDMOD 0x1E STOP CALLER "
				},
				"gasEstimates": {
					"creation": {
						"codeDepositCost": "790800",
						"executionCost": "infinite",
						"totalCost": "infinite"
					},
					"external": {
						"allowance(address,address)": "infinite",
						"approve(address,uint256)": "24646",
						"balanceOf(address)": "2560",
						"burn(uint256)": "infinite",
						"burnFrom(address,uint256)": "infinite",
						"decimals()": "199",
						"decreaseAllowance(address,uint256)": "26917",
						"increaseAllowance(address,uint256)": "infinite",
						"mint(address,uint256)": "infinite",
						"name()": "infinite",
						"owner()": "2408",
						"renounceOwnership()": "28159",
						"setVault(address)": "28391",
						"symbol()": "infinite",
						"totalSupply()": "2348",
						"transfer(address,uint256)": "infinite",
						"transferFrom(address,address,uint256)": "infinite",
						"transferOwnership(address)": "28397",
						"vault()": "2446"
					}
				},
				"methodIdentifiers": {
					"allowance(address,address)": "dd62ed3e",
					"approve(address,uint256)": "095ea7b3",
					"balanceOf(address)": "70a08231",
					"burn(uint256)": "42966c68",
					"burnFrom(address,uint256)": "79cc6790",
					"decimals()": "313ce567",
					"decreaseAllowance(address,uint256)": "a457c2d7",
					"increaseAllowance(address,uint256)": "39509351",
					"mint(address,uint256)": "40c10f19",
					"name()": "06fdde03",
					"owner()": "8da5cb5b",
					"renounceOwnership()": "715018a6",
					"setVault(address)": "6817031b",
					"symbol()": "95d89b41",
					"totalSupply()": "18160ddd",
					"transfer(address,uint256)": "a9059cbb",
					"transferFrom(address,address,uint256)": "23b872dd",
					"transferOwnership(address)": "f2fde38b",
					"vault()": "fbfa77cf"
				}
			},
			"storageLayout": {
				"storage": [
					{
						"astId": 120,
						"contract": "contracts/VaultShareToken.sol:VaultShareToken",
						"label": "_balances",
						"offset": 0,
						"slot": "0",
						"type": "t_mapping(t_address,t_uint256)"
					},
					{
						"astId": 126,
						"contract": "contracts/VaultShareToken.sol:VaultShareToken",
						"label": "_allowances",
						"offset": 0,
						"slot": "1",
						"type": "t_mapping(t_address,t_mapping(t_address,t_uint256))"
					},
					{
						"astId": 128,
						"contract": "contracts/VaultShareToken.sol:VaultShareToken",
						"label": "_totalSupply",
						"offset": 0,
						"slot": "2",
						"type": "t_uint256"
					},
					{
						"astId": 130,
						"contract": "contracts/VaultShareToken.sol:VaultShareToken",
						"label": "_name",
						"offset": 0,
						"slot": "3",
						"type": "t_string_storage"
					},
					{
						"astId": 132,
						"contract": "contracts/VaultShareToken.sol:VaultShareToken",
						"label": "_symbol",
						"offset": 0,
						"slot": "4",
						"type": "t_string_storage"
					},
					{
						"astId": 7,
						"contract": "contracts/VaultShareToken.sol:VaultShareToken",
						"label": "_owner",
						"offset": 0,
						"slot": "5",
						"type": "t_address"
					},
					{
						"astId": 875,
						"contract": "contracts/VaultShareToken.sol:VaultShareToken",
						"label": "vault",
						"offset": 0,
						"slot": "6",
						"type": "t_address"
					}
				],
				"types": {
					"t_address": {
						"encoding": "inplace",
						"label": "address",
						"numberOfBytes": "20"
					},
					"t_mapping(t_address,t_mapping(t_address,t_uint256))": {
						"encoding": "mapping",
						"key": "t_address",
						"label": "mapping(address => mapping(address => uint256))",
						"numberOfBytes": "32",
						"value": "t_mapping(t_address,t_uint256)"
					},
					"t_mapping(t_address,t_uint256)": {
						"encoding": "mapping",
						"key": "t_address",
						"label": "mapping(address => uint256)",
						"numberOfBytes": "32",
						"value": "t_uint256"
					},
					"t_string_storage": {
						"encoding": "bytes",
						"label": "string",
						"numberOfBytes": "32"
					},
					"t_uint256": {
						"encoding": "inplace",
						"label": "uint256",
						"numberOfBytes": "32"
					}
				}
			},
			"userdoc": {
				"kind": "user",
				"methods": {},
				"version": 1
			}
		}
	}
}