{
	"contracts/PrizePool.sol": {
		"PrizePool": {
			"abi": [
				{
					"inputs": [
						{
							"internalType": "address",
							"name": "_lottery",
							"type": "address"
						},
						{
							"internalType": "uint256",
							"name": "_feeRate",
							"type": "uint256"
						}
					],
					"stateMutability": "nonpayable",
					"type": "constructor"
				},
				{
					"anonymous": false,
					"inputs": [
						{
							"indexed": false,
							"internalType": "uint256",
							"name": "amount",
							"type": "uint256"
						}
					],
					"name": "FeeCollected",
					"type": "event"
				},
				{
					"anonymous": false,
					"inputs": [
						{
							"indexed": false,
							"internalType": "uint256",
							"name": "oldFeeRate",
							"type": "uint256"
						},
						{
							"indexed": false,
							"internalType": "uint256",
							"name": "newFeeRate",
							"type": "uint256"
						}
					],
					"name": "FeeRateUpdated",
					"type": "event"
				},
				{
					"anonymous": false,
					"inputs": [
						{
							"indexed": true,
							"internalType": "address",
							"name": "previousOwner",
							"type": "address"
						},
						{
							"indexed": true,
							"internalType": "address",
							"name": "newOwner",
							"type": "address"
						}
					],
					"name": "OwnershipTransferred",
					"type": "event"
				},
				{
					"anonymous": false,
					"inputs": [
						{
							"indexed": true,
							"internalType": "address",
							"name": "winner",
							"type": "address"
						},
						{
							"indexed": true,
							"internalType": "uint256",
							"name": "lotteryId",
							"type": "uint256"
						},
						{
							"indexed": false,
							"internalType": "uint256",
							"name": "amount",
							"type": "uint256"
						}
					],
					"name": "PrizeClaimed",
					"type": "event"
				},
				{
					"anonymous": false,
					"inputs": [
						{
							"indexed": true,
							"internalType": "address",
							"name": "vault",
							"type": "address"
						}
					],
					"name": "VaultSet",
					"type": "event"
				},
				{
					"anonymous": false,
					"inputs": [
						{
							"indexed": true,
							"internalType": "address",
							"name": "oldYieldAggregator",
							"type": "address"
						},
						{
							"indexed": true,
							"internalType": "address",
							"name": "newYieldAggregator",
							"type": "address"
						}
					],
					"name": "YieldAggregatorSet",
					"type": "event"
				},
				{
					"inputs": [],
					"name": "MAX_FEE_RATE",
					"outputs": [
						{
							"internalType": "uint256",
							"name": "",
							"type": "uint256"
						}
					],
					"stateMutability": "view",
					"type": "function"
				},
				{
					"inputs": [],
					"name": "addToPrizePool",
					"outputs": [],
					"stateMutability": "payable",
					"type": "function"
				},
				{
					"inputs": [
						{
							"internalType": "uint256",
							"name": "lotteryId",
							"type": "uint256"
						}
					],
					"name": "claimPrize",
					"outputs": [],
					"stateMutability": "nonpayable",
					"type": "function"
				},
				{
					"inputs": [],
					"name": "feeRate",
					"outputs": [
						{
							"internalType": "uint256",
							"name": "",
							"type": "uint256"
						}
					],
					"stateMutability": "view",
					"type": "function"
				},
				{
					"inputs": [],
					"name": "getPrizePoolAmount",
					"outputs": [
						{
							"internalType": "uint256",
							"name": "",
							"type": "uint256"
						}
					],
					"stateMutability": "view",
					"type": "function"
				},
				{
					"inputs": [],
					"name": "lottery",
					"outputs": [
						{
							"internalType": "contract ILottery",
							"name": "",
							"type": "address"
						}
					],
					"stateMutability": "view",
					"type": "function"
				},
				{
					"inputs": [],
					"name": "owner",
					"outputs": [
						{
							"internalType": "address",
							"name": "",
							"type": "address"
						}
					],
					"stateMutability": "view",
					"type": "function"
				},
				{
					"inputs": [],
					"name": "renounceOwnership",
					"outputs": [],
					"stateMutability": "nonpayable",
					"type": "function"
				},
				{
					"inputs": [
						{
							"internalType": "uint256",
							"name": "_feeRate",
							"type": "uint256"
						}
					],
					"name": "setFeeRate",
					"outputs": [],
					"stateMutability": "nonpayable",
					"type": "function"
				},
				{
					"inputs": [
						{
							"internalType": "address",
							"name": "_vault",
							"type": "address"
						}
					],
					"name": "setVault",
					"outputs": [],
					"stateMutability": "nonpayable",
					"type": "function"
				},
				{
					"inputs": [
						{
							"internalType": "address",
							"name": "_weth",
							"type": "address"
						}
					],
					"name": "setWETH",
					"outputs": [],
					"stateMutability": "nonpayable",
					"type": "function"
				},
				{
					"inputs": [
						{
							"internalType": "address",
							"name": "_yieldAggregator",
							"type": "address"
						}
					],
					"name": "setYieldAggregator",
					"outputs": [],
					"stateMutability": "nonpayable",
					"type": "function"
				},
				{
					"inputs": [
						{
							"internalType": "address",
							"name": "newOwner",
							"type": "address"
						}
					],
					"name": "transferOwnership",
					"outputs": [],
					"stateMutability": "nonpayable",
					"type": "function"
				},
				{
					"inputs": [],
					"name": "vault",
					"outputs": [
						{
							"internalType": "address",
							"name": "",
							"type": "address"
						}
					],
					"stateMutability": "view",
					"type": "function"
				},
				{
					"inputs": [],
					"name": "weth",
					"outputs": [
						{
							"internalType": "address",
							"name": "",
							"type": "address"
						}
					],
					"stateMutability": "view",
					"type": "function"
				},
				{
					"inputs": [],
					"name": "yieldAggregator",
					"outputs": [
						{
							"internalType": "contract IYieldAggregator",
							"name": "",
							"type": "address"
						}
					],
					"stateMutability": "view",
					"type": "function"
				}
			],
			"devdoc": {
				"kind": "dev",
				"methods": {
					"addToPrizePool()": {
						"details": "现在已经不再接受ETH，而是接受WETH，所以这个函数会revert"
					},
					"claimPrize(uint256)": {
						"params": {
							"lotteryId": "The ID of the lottery round to claim prize for"
						}
					},
					"getPrizePoolAmount()": {
						"returns": {
							"_0": "The current amount of ETH in the prize pool (in wei)"
						}
					},
					"owner()": {
						"details": "Returns the address of the current owner."
					},
					"renounceOwnership()": {
						"details": "Leaves the contract without owner. It will not be possible to call `onlyOwner` functions anymore. Can only be called by the current owner. NOTE: Renouncing ownership will leave the contract without an owner, thereby removing any functionality that is only available to the owner."
					},
					"setFeeRate(uint256)": {
						"params": {
							"_feeRate": "新的费率（以基点表示，例如 500 表示 5%）"
						}
					},
					"setVault(address)": {
						"params": {
							"_vault": "The address of the vault"
						}
					},
					"setWETH(address)": {
						"params": {
							"_weth": "The address of the WETH token"
						}
					},
					"setYieldAggregator(address)": {
						"params": {
							"_yieldAggregator": "The address of the yield aggregator"
						}
					},
					"transferOwnership(address)": {
						"details": "Transfers ownership of the contract to a new account (`newOwner`). Can only be called by the current owner."
					}
				},
				"stateVariables": {
					"feeRate": {
						"return": "The fee rate in basis points",
						"returns": {
							"_0": "The fee rate in basis points"
						}
					}
				},
				"version": 1
			},
			"evm": {
				"assembly": "    /* \"contracts/PrizePool.sol\":420:4504  contract PrizePool is IPrizePool, Ownable {... */\n  mstore(0x40, 0x80)\n    /* \"contracts/PrizePool.sol\":695:698  500 */\n  0x01f4\n    /* \"contracts/PrizePool.sol\":670:698  uint256 public feeRate = 500 */\n  0x05\n  sstore\n    /* \"contracts/PrizePool.sol\":799:991  constructor(address _lottery, uint256 _feeRate) {... */\n  callvalue\n  dup1\n  iszero\n  tag_1\n  jumpi\n  revert(0x00, 0x00)\ntag_1:\n  pop\n  mload(0x40)\n  sub(codesize, bytecodeSize)\n  dup1\n  bytecodeSize\n  dup4\n  codecopy\n  dup2\n  dup2\n  add\n  0x40\n  mstore\n  dup2\n  add\n  swap1\n  tag_2\n  swap2\n  swap1\n  tag_3\n  jump\t// in\ntag_2:\n    /* \"@openzeppelin/contracts/access/Ownable.sol\":921:953  _transferOwnership(_msgSender()) */\n  tag_7\n    /* \"@openzeppelin/contracts/access/Ownable.sol\":940:952  _msgSender() */\n  tag_8\n    /* \"@openzeppelin/contracts/access/Ownable.sol\":940:950  _msgSender */\n  shl(0x20, tag_9)\n    /* \"@openzeppelin/contracts/access/Ownable.sol\":940:952  _msgSender() */\n  0x20\n  shr\n  jump\t// in\ntag_8:\n    /* \"@openzeppelin/contracts/access/Ownable.sol\":921:939  _transferOwnership */\n  shl(0x20, tag_10)\n    /* \"@openzeppelin/contracts/access/Ownable.sol\":921:953  _transferOwnership(_msgSender()) */\n  0x20\n  shr\n  jump\t// in\ntag_7:\n    /* \"contracts/PrizePool.sol\":885:886  0 */\n  0x00\n    /* \"contracts/PrizePool.sol\":865:887  _lottery != address(0) */\n  0xffffffffffffffffffffffffffffffffffffffff\n  and\n    /* \"contracts/PrizePool.sol\":865:873  _lottery */\n  dup3\n    /* \"contracts/PrizePool.sol\":865:887  _lottery != address(0) */\n  0xffffffffffffffffffffffffffffffffffffffff\n  and\n  sub\n    /* \"contracts/PrizePool.sol\":857:915  require(_lottery != address(0), \"Invalid lottery address\") */\n  tag_12\n  jumpi\n  mload(0x40)\n  0x08c379a000000000000000000000000000000000000000000000000000000000\n  dup2\n  mstore\n  0x04\n  add\n  tag_13\n  swap1\n  tag_14\n  jump\t// in\ntag_13:\n  mload(0x40)\n  dup1\n  swap2\n  sub\n  swap1\n  revert\ntag_12:\n    /* \"contracts/PrizePool.sol\":944:952  _lottery */\n  dup2\n    /* \"contracts/PrizePool.sol\":925:932  lottery */\n  0x03\n  0x00\n    /* \"contracts/PrizePool.sol\":925:953  lottery = ILottery(_lottery) */\n  0x0100\n  exp\n  dup2\n  sload\n  dup2\n  0xffffffffffffffffffffffffffffffffffffffff\n  mul\n  not\n  and\n  swap1\n  dup4\n  0xffffffffffffffffffffffffffffffffffffffff\n  and\n  mul\n  or\n  swap1\n  sstore\n  pop\n    /* \"contracts/PrizePool.sol\":963:984  _setFeeRate(_feeRate) */\n  tag_15\n    /* \"contracts/PrizePool.sol\":975:983  _feeRate */\n  dup2\n    /* \"contracts/PrizePool.sol\":963:974  _setFeeRate */\n  shl(0x20, tag_16)\n    /* \"contracts/PrizePool.sol\":963:984  _setFeeRate(_feeRate) */\n  0x20\n  shr\n  jump\t// in\ntag_15:\n    /* \"contracts/PrizePool.sol\":799:991  constructor(address _lottery, uint256 _feeRate) {... */\n  pop\n  pop\n    /* \"contracts/PrizePool.sol\":420:4504  contract PrizePool is IPrizePool, Ownable {... */\n  jump(tag_17)\n    /* \"@openzeppelin/contracts/utils/Context.sol\":640:736  function _msgSender() internal view virtual returns (address) {... */\ntag_9:\n    /* \"@openzeppelin/contracts/utils/Context.sol\":693:700  address */\n  0x00\n    /* \"@openzeppelin/contracts/utils/Context.sol\":719:729  msg.sender */\n  caller\n    /* \"@openzeppelin/contracts/utils/Context.sol\":712:729  return msg.sender */\n  swap1\n  pop\n    /* \"@openzeppelin/contracts/utils/Context.sol\":640:736  function _msgSender() internal view virtual returns (address) {... */\n  swap1\n  jump\t// out\n    /* \"@openzeppelin/contracts/access/Ownable.sol\":2270:2457  function _transferOwnership(address newOwner) internal virtual {... */\ntag_10:\n    /* \"@openzeppelin/contracts/access/Ownable.sol\":2343:2359  address oldOwner */\n  0x00\n    /* \"@openzeppelin/contracts/access/Ownable.sol\":2362:2368  _owner */\n  0x00\n  0x00\n  swap1\n  sload\n  swap1\n  0x0100\n  exp\n  swap1\n  div\n  0xffffffffffffffffffffffffffffffffffffffff\n  and\n    /* \"@openzeppelin/contracts/access/Ownable.sol\":2343:2368  address oldOwner = _owner */\n  swap1\n  pop\n    /* \"@openzeppelin/contracts/access/Ownable.sol\":2387:2395  newOwner */\n  dup2\n    /* \"@openzeppelin/contracts/access/Ownable.sol\":2378:2384  _owner */\n  0x00\n  0x00\n    /* \"@openzeppelin/contracts/access/Ownable.sol\":2378:2395  _owner = newOwner */\n  0x0100\n  exp\n  dup2\n  sload\n  dup2\n  0xffffffffffffffffffffffffffffffffffffffff\n  mul\n  not\n  and\n  swap1\n  dup4\n  0xffffffffffffffffffffffffffffffffffffffff\n  and\n  mul\n  or\n  swap1\n  sstore\n  pop\n    /* \"@openzeppelin/contracts/access/Ownable.sol\":2441:2449  newOwner */\n  dup2\n    /* \"@openzeppelin/contracts/access/Ownable.sol\":2410:2450  OwnershipTransferred(oldOwner, newOwner) */\n  0xffffffffffffffffffffffffffffffffffffffff\n  and\n    /* \"@openzeppelin/contracts/access/Ownable.sol\":2431:2439  oldOwner */\n  dup2\n    /* \"@openzeppelin/contracts/access/Ownable.sol\":2410:2450  OwnershipTransferred(oldOwner, newOwner) */\n  0xffffffffffffffffffffffffffffffffffffffff\n  and\n  0x8be0079c531659141344cd1fd0a4f28419497f9722a3daafe3b4186f6b6457e0\n  mload(0x40)\n  mload(0x40)\n  dup1\n  swap2\n  sub\n  swap1\n  log3\n    /* \"@openzeppelin/contracts/access/Ownable.sol\":2333:2457  {... */\n  pop\n    /* \"@openzeppelin/contracts/access/Ownable.sol\":2270:2457  function _transferOwnership(address newOwner) internal virtual {... */\n  pop\n  jump\t// out\n    /* \"contracts/PrizePool.sol\":2349:2585  function _setFeeRate(uint256 _feeRate) internal {... */\ntag_16:\n    /* \"contracts/PrizePool.sol\":788:792  2000 */\n  0x07d0\n    /* \"contracts/PrizePool.sol\":2415:2423  _feeRate */\n  dup2\n    /* \"contracts/PrizePool.sol\":2415:2439  _feeRate <= MAX_FEE_RATE */\n  gt\n  iszero\n    /* \"contracts/PrizePool.sol\":2407:2461  require(_feeRate <= MAX_FEE_RATE, \"Fee rate too high\") */\n  tag_21\n  jumpi\n  mload(0x40)\n  0x08c379a000000000000000000000000000000000000000000000000000000000\n  dup2\n  mstore\n  0x04\n  add\n  tag_22\n  swap1\n  tag_23\n  jump\t// in\ntag_22:\n  mload(0x40)\n  dup1\n  swap2\n  sub\n  swap1\n  revert\ntag_21:\n    /* \"contracts/PrizePool.sol\":2471:2489  uint256 oldFeeRate */\n  0x00\n    /* \"contracts/PrizePool.sol\":2492:2499  feeRate */\n  sload(0x05)\n    /* \"contracts/PrizePool.sol\":2471:2499  uint256 oldFeeRate = feeRate */\n  swap1\n  pop\n    /* \"contracts/PrizePool.sol\":2519:2527  _feeRate */\n  dup2\n    /* \"contracts/PrizePool.sol\":2509:2516  feeRate */\n  0x05\n    /* \"contracts/PrizePool.sol\":2509:2527  feeRate = _feeRate */\n  dup2\n  swap1\n  sstore\n  pop\n    /* \"contracts/PrizePool.sol\":2542:2578  FeeRateUpdated(oldFeeRate, _feeRate) */\n  0x14914da2bf76024616fbe1859783fcd4dbddcb179b1f3a854949fbf920dcb957\n    /* \"contracts/PrizePool.sol\":2557:2567  oldFeeRate */\n  dup2\n    /* \"contracts/PrizePool.sol\":2569:2577  _feeRate */\n  dup4\n    /* \"contracts/PrizePool.sol\":2542:2578  FeeRateUpdated(oldFeeRate, _feeRate) */\n  mload(0x40)\n  tag_24\n  swap3\n  swap2\n  swap1\n  tag_25\n  jump\t// in\ntag_24:\n  mload(0x40)\n  dup1\n  swap2\n  sub\n  swap1\n  log1\n    /* \"contracts/PrizePool.sol\":2397:2585  {... */\n  pop\n    /* \"contracts/PrizePool.sol\":2349:2585  function _setFeeRate(uint256 _feeRate) internal {... */\n  pop\n  jump\t// out\n    /* \"#utility.yul\":88:205   */\ntag_27:\n    /* \"#utility.yul\":197:198   */\n  0x00\n    /* \"#utility.yul\":194:195   */\n  0x00\n    /* \"#utility.yul\":187:199   */\n  revert\n    /* \"#utility.yul\":334:460   */\ntag_29:\n    /* \"#utility.yul\":371:378   */\n  0x00\n    /* \"#utility.yul\":411:453   */\n  0xffffffffffffffffffffffffffffffffffffffff\n    /* \"#utility.yul\":404:409   */\n  dup3\n    /* \"#utility.yul\":400:454   */\n  and\n    /* \"#utility.yul\":389:454   */\n  swap1\n  pop\n    /* \"#utility.yul\":334:460   */\n  swap2\n  swap1\n  pop\n  jump\t// out\n    /* \"#utility.yul\":466:562   */\ntag_30:\n    /* \"#utility.yul\":503:510   */\n  0x00\n    /* \"#utility.yul\":532:556   */\n  tag_48\n    /* \"#utility.yul\":550:555   */\n  dup3\n    /* \"#utility.yul\":532:556   */\n  tag_29\n  jump\t// in\ntag_48:\n    /* \"#utility.yul\":521:556   */\n  swap1\n  pop\n    /* \"#utility.yul\":466:562   */\n  swap2\n  swap1\n  pop\n  jump\t// out\n    /* \"#utility.yul\":568:690   */\ntag_31:\n    /* \"#utility.yul\":641:665   */\n  tag_50\n    /* \"#utility.yul\":659:664   */\n  dup2\n    /* \"#utility.yul\":641:665   */\n  tag_30\n  jump\t// in\ntag_50:\n    /* \"#utility.yul\":634:639   */\n  dup2\n    /* \"#utility.yul\":631:666   */\n  eq\n    /* \"#utility.yul\":621:684   */\n  tag_51\n  jumpi\n    /* \"#utility.yul\":680:681   */\n  0x00\n    /* \"#utility.yul\":677:678   */\n  0x00\n    /* \"#utility.yul\":670:682   */\n  revert\n    /* \"#utility.yul\":621:684   */\ntag_51:\n    /* \"#utility.yul\":568:690   */\n  pop\n  jump\t// out\n    /* \"#utility.yul\":696:839   */\ntag_32:\n    /* \"#utility.yul\":753:758   */\n  0x00\n    /* \"#utility.yul\":784:790   */\n  dup2\n    /* \"#utility.yul\":778:791   */\n  mload\n    /* \"#utility.yul\":769:791   */\n  swap1\n  pop\n    /* \"#utility.yul\":800:833   */\n  tag_53\n    /* \"#utility.yul\":827:832   */\n  dup2\n    /* \"#utility.yul\":800:833   */\n  tag_31\n  jump\t// in\ntag_53:\n    /* \"#utility.yul\":696:839   */\n  swap3\n  swap2\n  pop\n  pop\n  jump\t// out\n    /* \"#utility.yul\":845:922   */\ntag_33:\n    /* \"#utility.yul\":882:889   */\n  0x00\n    /* \"#utility.yul\":911:916   */\n  dup2\n    /* \"#utility.yul\":900:916   */\n  swap1\n  pop\n    /* \"#utility.yul\":845:922   */\n  swap2\n  swap1\n  pop\n  jump\t// out\n    /* \"#utility.yul\":928:1050   */\ntag_34:\n    /* \"#utility.yul\":1001:1025   */\n  tag_56\n    /* \"#utility.yul\":1019:1024   */\n  dup2\n    /* \"#utility.yul\":1001:1025   */\n  tag_33\n  jump\t// in\ntag_56:\n    /* \"#utility.yul\":994:999   */\n  dup2\n    /* \"#utility.yul\":991:1026   */\n  eq\n    /* \"#utility.yul\":981:1044   */\n  tag_57\n  jumpi\n    /* \"#utility.yul\":1040:1041   */\n  0x00\n    /* \"#utility.yul\":1037:1038   */\n  0x00\n    /* \"#utility.yul\":1030:1042   */\n  revert\n    /* \"#utility.yul\":981:1044   */\ntag_57:\n    /* \"#utility.yul\":928:1050   */\n  pop\n  jump\t// out\n    /* \"#utility.yul\":1056:1199   */\ntag_35:\n    /* \"#utility.yul\":1113:1118   */\n  0x00\n    /* \"#utility.yul\":1144:1150   */\n  dup2\n    /* \"#utility.yul\":1138:1151   */\n  mload\n    /* \"#utility.yul\":1129:1151   */\n  swap1\n  pop\n    /* \"#utility.yul\":1160:1193   */\n  tag_59\n    /* \"#utility.yul\":1187:1192   */\n  dup2\n    /* \"#utility.yul\":1160:1193   */\n  tag_34\n  jump\t// in\ntag_59:\n    /* \"#utility.yul\":1056:1199   */\n  swap3\n  swap2\n  pop\n  pop\n  jump\t// out\n    /* \"#utility.yul\":1205:1712   */\ntag_3:\n    /* \"#utility.yul\":1284:1290   */\n  0x00\n    /* \"#utility.yul\":1292:1298   */\n  0x00\n    /* \"#utility.yul\":1341:1343   */\n  0x40\n    /* \"#utility.yul\":1329:1338   */\n  dup4\n    /* \"#utility.yul\":1320:1327   */\n  dup6\n    /* \"#utility.yul\":1316:1339   */\n  sub\n    /* \"#utility.yul\":1312:1344   */\n  slt\n    /* \"#utility.yul\":1309:1428   */\n  iszero\n  tag_61\n  jumpi\n    /* \"#utility.yul\":1347:1426   */\n  tag_62\n  tag_27\n  jump\t// in\ntag_62:\n    /* \"#utility.yul\":1309:1428   */\ntag_61:\n    /* \"#utility.yul\":1467:1468   */\n  0x00\n    /* \"#utility.yul\":1492:1556   */\n  tag_63\n    /* \"#utility.yul\":1548:1555   */\n  dup6\n    /* \"#utility.yul\":1539:1545   */\n  dup3\n    /* \"#utility.yul\":1528:1537   */\n  dup7\n    /* \"#utility.yul\":1524:1546   */\n  add\n    /* \"#utility.yul\":1492:1556   */\n  tag_32\n  jump\t// in\ntag_63:\n    /* \"#utility.yul\":1482:1556   */\n  swap3\n  pop\n    /* \"#utility.yul\":1438:1566   */\n  pop\n    /* \"#utility.yul\":1605:1607   */\n  0x20\n    /* \"#utility.yul\":1631:1695   */\n  tag_64\n    /* \"#utility.yul\":1687:1694   */\n  dup6\n    /* \"#utility.yul\":1678:1684   */\n  dup3\n    /* \"#utility.yul\":1667:1676   */\n  dup7\n    /* \"#utility.yul\":1663:1685   */\n  add\n    /* \"#utility.yul\":1631:1695   */\n  tag_35\n  jump\t// in\ntag_64:\n    /* \"#utility.yul\":1621:1695   */\n  swap2\n  pop\n    /* \"#utility.yul\":1576:1705   */\n  pop\n    /* \"#utility.yul\":1205:1712   */\n  swap3\n  pop\n  swap3\n  swap1\n  pop\n  jump\t// out\n    /* \"#utility.yul\":1718:1887   */\ntag_36:\n    /* \"#utility.yul\":1802:1813   */\n  0x00\n    /* \"#utility.yul\":1836:1842   */\n  dup3\n    /* \"#utility.yul\":1831:1834   */\n  dup3\n    /* \"#utility.yul\":1824:1843   */\n  mstore\n    /* \"#utility.yul\":1876:1880   */\n  0x20\n    /* \"#utility.yul\":1871:1874   */\n  dup3\n    /* \"#utility.yul\":1867:1881   */\n  add\n    /* \"#utility.yul\":1852:1881   */\n  swap1\n  pop\n    /* \"#utility.yul\":1718:1887   */\n  swap3\n  swap2\n  pop\n  pop\n  jump\t// out\n    /* \"#utility.yul\":1893:2066   */\ntag_37:\n    /* \"#utility.yul\":2033:2058   */\n  0x496e76616c6964206c6f74746572792061646472657373000000000000000000\n    /* \"#utility.yul\":2029:2030   */\n  0x00\n    /* \"#utility.yul\":2021:2027   */\n  dup3\n    /* \"#utility.yul\":2017:2031   */\n  add\n    /* \"#utility.yul\":2010:2059   */\n  mstore\n    /* \"#utility.yul\":1893:2066   */\n  pop\n  jump\t// out\n    /* \"#utility.yul\":2072:2438   */\ntag_38:\n    /* \"#utility.yul\":2214:2217   */\n  0x00\n    /* \"#utility.yul\":2235:2302   */\n  tag_68\n    /* \"#utility.yul\":2299:2301   */\n  0x17\n    /* \"#utility.yul\":2294:2297   */\n  dup4\n    /* \"#utility.yul\":2235:2302   */\n  tag_36\n  jump\t// in\ntag_68:\n    /* \"#utility.yul\":2228:2302   */\n  swap2\n  pop\n    /* \"#utility.yul\":2311:2404   */\n  tag_69\n    /* \"#utility.yul\":2400:2403   */\n  dup3\n    /* \"#utility.yul\":2311:2404   */\n  tag_37\n  jump\t// in\ntag_69:\n    /* \"#utility.yul\":2429:2431   */\n  0x20\n    /* \"#utility.yul\":2424:2427   */\n  dup3\n    /* \"#utility.yul\":2420:2432   */\n  add\n    /* \"#utility.yul\":2413:2432   */\n  swap1\n  pop\n    /* \"#utility.yul\":2072:2438   */\n  swap2\n  swap1\n  pop\n  jump\t// out\n    /* \"#utility.yul\":2444:2863   */\ntag_14:\n    /* \"#utility.yul\":2610:2614   */\n  0x00\n    /* \"#utility.yul\":2648:2650   */\n  0x20\n    /* \"#utility.yul\":2637:2646   */\n  dup3\n    /* \"#utility.yul\":2633:2651   */\n  add\n    /* \"#utility.yul\":2625:2651   */\n  swap1\n  pop\n    /* \"#utility.yul\":2697:2706   */\n  dup2\n    /* \"#utility.yul\":2691:2695   */\n  dup2\n    /* \"#utility.yul\":2687:2707   */\n  sub\n    /* \"#utility.yul\":2683:2684   */\n  0x00\n    /* \"#utility.yul\":2672:2681   */\n  dup4\n    /* \"#utility.yul\":2668:2685   */\n  add\n    /* \"#utility.yul\":2661:2708   */\n  mstore\n    /* \"#utility.yul\":2725:2856   */\n  tag_71\n    /* \"#utility.yul\":2851:2855   */\n  dup2\n    /* \"#utility.yul\":2725:2856   */\n  tag_38\n  jump\t// in\ntag_71:\n    /* \"#utility.yul\":2717:2856   */\n  swap1\n  pop\n    /* \"#utility.yul\":2444:2863   */\n  swap2\n  swap1\n  pop\n  jump\t// out\n    /* \"#utility.yul\":2869:3036   */\ntag_39:\n    /* \"#utility.yul\":3009:3028   */\n  0x466565207261746520746f6f2068696768000000000000000000000000000000\n    /* \"#utility.yul\":3005:3006   */\n  0x00\n    /* \"#utility.yul\":2997:3003   */\n  dup3\n    /* \"#utility.yul\":2993:3007   */\n  add\n    /* \"#utility.yul\":2986:3029   */\n  mstore\n    /* \"#utility.yul\":2869:3036   */\n  pop\n  jump\t// out\n    /* \"#utility.yul\":3042:3408   */\ntag_40:\n    /* \"#utility.yul\":3184:3187   */\n  0x00\n    /* \"#utility.yul\":3205:3272   */\n  tag_74\n    /* \"#utility.yul\":3269:3271   */\n  0x11\n    /* \"#utility.yul\":3264:3267   */\n  dup4\n    /* \"#utility.yul\":3205:3272   */\n  tag_36\n  jump\t// in\ntag_74:\n    /* \"#utility.yul\":3198:3272   */\n  swap2\n  pop\n    /* \"#utility.yul\":3281:3374   */\n  tag_75\n    /* \"#utility.yul\":3370:3373   */\n  dup3\n    /* \"#utility.yul\":3281:3374   */\n  tag_39\n  jump\t// in\ntag_75:\n    /* \"#utility.yul\":3399:3401   */\n  0x20\n    /* \"#utility.yul\":3394:3397   */\n  dup3\n    /* \"#utility.yul\":3390:3402   */\n  add\n    /* \"#utility.yul\":3383:3402   */\n  swap1\n  pop\n    /* \"#utility.yul\":3042:3408   */\n  swap2\n  swap1\n  pop\n  jump\t// out\n    /* \"#utility.yul\":3414:3833   */\ntag_23:\n    /* \"#utility.yul\":3580:3584   */\n  0x00\n    /* \"#utility.yul\":3618:3620   */\n  0x20\n    /* \"#utility.yul\":3607:3616   */\n  dup3\n    /* \"#utility.yul\":3603:3621   */\n  add\n    /* \"#utility.yul\":3595:3621   */\n  swap1\n  pop\n    /* \"#utility.yul\":3667:3676   */\n  dup2\n    /* \"#utility.yul\":3661:3665   */\n  dup2\n    /* \"#utility.yul\":3657:3677   */\n  sub\n    /* \"#utility.yul\":3653:3654   */\n  0x00\n    /* \"#utility.yul\":3642:3651   */\n  dup4\n    /* \"#utility.yul\":3638:3655   */\n  add\n    /* \"#utility.yul\":3631:3678   */\n  mstore\n    /* \"#utility.yul\":3695:3826   */\n  tag_77\n    /* \"#utility.yul\":3821:3825   */\n  dup2\n    /* \"#utility.yul\":3695:3826   */\n  tag_40\n  jump\t// in\ntag_77:\n    /* \"#utility.yul\":3687:3826   */\n  swap1\n  pop\n    /* \"#utility.yul\":3414:3833   */\n  swap2\n  swap1\n  pop\n  jump\t// out\n    /* \"#utility.yul\":3839:3957   */\ntag_41:\n    /* \"#utility.yul\":3926:3950   */\n  tag_79\n    /* \"#utility.yul\":3944:3949   */\n  dup2\n    /* \"#utility.yul\":3926:3950   */\n  tag_33\n  jump\t// in\ntag_79:\n    /* \"#utility.yul\":3921:3924   */\n  dup3\n    /* \"#utility.yul\":3914:3951   */\n  mstore\n    /* \"#utility.yul\":3839:3957   */\n  pop\n  pop\n  jump\t// out\n    /* \"#utility.yul\":3963:4295   */\ntag_25:\n    /* \"#utility.yul\":4084:4088   */\n  0x00\n    /* \"#utility.yul\":4122:4124   */\n  0x40\n    /* \"#utility.yul\":4111:4120   */\n  dup3\n    /* \"#utility.yul\":4107:4125   */\n  add\n    /* \"#utility.yul\":4099:4125   */\n  swap1\n  pop\n    /* \"#utility.yul\":4135:4206   */\n  tag_81\n    /* \"#utility.yul\":4203:4204   */\n  0x00\n    /* \"#utility.yul\":4192:4201   */\n  dup4\n    /* \"#utility.yul\":4188:4205   */\n  add\n    /* \"#utility.yul\":4179:4185   */\n  dup6\n    /* \"#utility.yul\":4135:4206   */\n  tag_41\n  jump\t// in\ntag_81:\n    /* \"#utility.yul\":4216:4288   */\n  tag_82\n    /* \"#utility.yul\":4284:4286   */\n  0x20\n    /* \"#utility.yul\":4273:4282   */\n  dup4\n    /* \"#utility.yul\":4269:4287   */\n  add\n    /* \"#utility.yul\":4260:4266   */\n  dup5\n    /* \"#utility.yul\":4216:4288   */\n  tag_41\n  jump\t// in\ntag_82:\n    /* \"#utility.yul\":3963:4295   */\n  swap4\n  swap3\n  pop\n  pop\n  pop\n  jump\t// out\n    /* \"contracts/PrizePool.sol\":420:4504  contract PrizePool is IPrizePool, Ownable {... */\ntag_17:\n  dataSize(sub_0)\n  dup1\n  dataOffset(sub_0)\n  0x00\n  codecopy\n  0x00\n  return\nstop\n\nsub_0: assembly {\n        /* \"contracts/PrizePool.sol\":420:4504  contract PrizePool is IPrizePool, Ownable {... */\n      mstore(0x40, 0x80)\n      jumpi(tag_1, lt(calldatasize, 0x04))\n      shr(0xe0, calldataload(0x00))\n      dup1\n      0x978bbdb9\n      gt\n      tag_18\n      jumpi\n      dup1\n      0xd7098154\n      gt\n      tag_19\n      jumpi\n      dup1\n      0xd7098154\n      eq\n      tag_14\n      jumpi\n      dup1\n      0xf2fde38b\n      eq\n      tag_15\n      jumpi\n      dup1\n      0xf6fe8727\n      eq\n      tag_16\n      jumpi\n      dup1\n      0xfbfa77cf\n      eq\n      tag_17\n      jumpi\n      jump(tag_1)\n    tag_19:\n      dup1\n      0x978bbdb9\n      eq\n      tag_10\n      jumpi\n      dup1\n      0x992b48de\n      eq\n      tag_11\n      jumpi\n      dup1\n      0xb3ede13f\n      eq\n      tag_12\n      jumpi\n      dup1\n      0xba13a572\n      eq\n      tag_13\n      jumpi\n      jump(tag_1)\n    tag_18:\n      dup1\n      0x6817031b\n      gt\n      tag_20\n      jumpi\n      dup1\n      0x6817031b\n      eq\n      tag_6\n      jumpi\n      dup1\n      0x715018a6\n      eq\n      tag_7\n      jumpi\n      dup1\n      0x8da5cb5b\n      eq\n      tag_8\n      jumpi\n      dup1\n      0x92f6576e\n      eq\n      tag_9\n      jumpi\n      jump(tag_1)\n    tag_20:\n      dup1\n      0x2a194b6d\n      eq\n      tag_2\n      jumpi\n      dup1\n      0x3fc8cef3\n      eq\n      tag_3\n      jumpi\n      dup1\n      0x45596e2e\n      eq\n      tag_4\n      jumpi\n      dup1\n      0x5b769f3c\n      eq\n      tag_5\n      jumpi\n    tag_1:\n      revert(0x00, 0x00)\n        /* \"contracts/PrizePool.sol\":501:540  IYieldAggregator public yieldAggregator */\n    tag_2:\n      callvalue\n      dup1\n      iszero\n      tag_21\n      jumpi\n      revert(0x00, 0x00)\n    tag_21:\n      pop\n      tag_22\n      tag_23\n      jump\t// in\n    tag_22:\n      mload(0x40)\n      tag_24\n      swap2\n      swap1\n      tag_25\n      jump\t// in\n    tag_24:\n      mload(0x40)\n      dup1\n      swap2\n      sub\n      swap1\n      return\n        /* \"contracts/PrizePool.sol\":601:620  address public weth */\n    tag_3:\n      callvalue\n      dup1\n      iszero\n      tag_26\n      jumpi\n      revert(0x00, 0x00)\n    tag_26:\n      pop\n      tag_27\n      tag_28\n      jump\t// in\n    tag_27:\n      mload(0x40)\n      tag_29\n      swap2\n      swap1\n      tag_30\n      jump\t// in\n    tag_29:\n      mload(0x40)\n      dup1\n      swap2\n      sub\n      swap1\n      return\n        /* \"contracts/PrizePool.sol\":2248:2343  function setFeeRate(uint256 _feeRate) external onlyOwner {... */\n    tag_4:\n      callvalue\n      dup1\n      iszero\n      tag_31\n      jumpi\n      revert(0x00, 0x00)\n    tag_31:\n      pop\n      tag_32\n      0x04\n      dup1\n      calldatasize\n      sub\n      dup2\n      add\n      swap1\n      tag_33\n      swap2\n      swap1\n      tag_34\n      jump\t// in\n    tag_33:\n      tag_35\n      jump\t// in\n    tag_32:\n      stop\n        /* \"contracts/PrizePool.sol\":1970:2112  function setWETH(address _weth) external onlyOwner {... */\n    tag_5:\n      callvalue\n      dup1\n      iszero\n      tag_36\n      jumpi\n      revert(0x00, 0x00)\n    tag_36:\n      pop\n      tag_37\n      0x04\n      dup1\n      calldatasize\n      sub\n      dup2\n      add\n      swap1\n      tag_38\n      swap2\n      swap1\n      tag_39\n      jump\t// in\n    tag_38:\n      tag_40\n      jump\t// in\n    tag_37:\n      stop\n        /* \"contracts/PrizePool.sol\":1785:1964  function setVault(address _vault) external onlyOwner {... */\n    tag_6:\n      callvalue\n      dup1\n      iszero\n      tag_41\n      jumpi\n      revert(0x00, 0x00)\n    tag_41:\n      pop\n      tag_42\n      0x04\n      dup1\n      calldatasize\n      sub\n      dup2\n      add\n      swap1\n      tag_43\n      swap2\n      swap1\n      tag_39\n      jump\t// in\n    tag_43:\n      tag_44\n      jump\t// in\n    tag_42:\n      stop\n        /* \"@openzeppelin/contracts/access/Ownable.sol\":1668:1769  function renounceOwnership() public virtual onlyOwner {... */\n    tag_7:\n      callvalue\n      dup1\n      iszero\n      tag_45\n      jumpi\n      revert(0x00, 0x00)\n    tag_45:\n      pop\n      tag_46\n      tag_47\n      jump\t// in\n    tag_46:\n      stop\n        /* \"@openzeppelin/contracts/access/Ownable.sol\":1036:1121  function owner() public view virtual returns (address) {... */\n    tag_8:\n      callvalue\n      dup1\n      iszero\n      tag_48\n      jumpi\n      revert(0x00, 0x00)\n    tag_48:\n      pop\n      tag_49\n      tag_50\n      jump\t// in\n    tag_49:\n      mload(0x40)\n      tag_51\n      swap2\n      swap1\n      tag_30\n      jump\t// in\n    tag_51:\n      mload(0x40)\n      dup1\n      swap2\n      sub\n      swap1\n      return\n        /* \"contracts/PrizePool.sol\":749:792  uint256 public constant MAX_FEE_RATE = 2000 */\n    tag_9:\n      callvalue\n      dup1\n      iszero\n      tag_52\n      jumpi\n      revert(0x00, 0x00)\n    tag_52:\n      pop\n      tag_53\n      tag_54\n      jump\t// in\n    tag_53:\n      mload(0x40)\n      tag_55\n      swap2\n      swap1\n      tag_56\n      jump\t// in\n    tag_55:\n      mload(0x40)\n      dup1\n      swap2\n      sub\n      swap1\n      return\n        /* \"contracts/PrizePool.sol\":670:698  uint256 public feeRate = 500 */\n    tag_10:\n      callvalue\n      dup1\n      iszero\n      tag_57\n      jumpi\n      revert(0x00, 0x00)\n    tag_57:\n      pop\n      tag_58\n      tag_59\n      jump\t// in\n    tag_58:\n      mload(0x40)\n      tag_60\n      swap2\n      swap1\n      tag_56\n      jump\t// in\n    tag_60:\n      mload(0x40)\n      dup1\n      swap2\n      sub\n      swap1\n      return\n        /* \"contracts/PrizePool.sol\":1419:1779  function setYieldAggregator(address _yieldAggregator) external onlyOwner {... */\n    tag_11:\n      callvalue\n      dup1\n      iszero\n      tag_61\n      jumpi\n      revert(0x00, 0x00)\n    tag_61:\n      pop\n      tag_62\n      0x04\n      dup1\n      calldatasize\n      sub\n      dup2\n      add\n      swap1\n      tag_63\n      swap2\n      swap1\n      tag_39\n      jump\t// in\n    tag_63:\n      tag_64\n      jump\t// in\n    tag_62:\n      stop\n        /* \"contracts/PrizePool.sol\":1136:1413  function addToPrizePool() external payable override {... */\n    tag_12:\n      tag_65\n      tag_66\n      jump\t// in\n    tag_65:\n      stop\n        /* \"contracts/PrizePool.sol\":572:595  ILottery public lottery */\n    tag_13:\n      callvalue\n      dup1\n      iszero\n      tag_67\n      jumpi\n      revert(0x00, 0x00)\n    tag_67:\n      pop\n      tag_68\n      tag_69\n      jump\t// in\n    tag_68:\n      mload(0x40)\n      tag_70\n      swap2\n      swap1\n      tag_71\n      jump\t// in\n    tag_70:\n      mload(0x40)\n      dup1\n      swap2\n      sub\n      swap1\n      return\n        /* \"contracts/PrizePool.sol\":2591:4166  function claimPrize(uint256 lotteryId) external override {... */\n    tag_14:\n      callvalue\n      dup1\n      iszero\n      tag_72\n      jumpi\n      revert(0x00, 0x00)\n    tag_72:\n      pop\n      tag_73\n      0x04\n      dup1\n      calldatasize\n      sub\n      dup2\n      add\n      swap1\n      tag_74\n      swap2\n      swap1\n      tag_34\n      jump\t// in\n    tag_74:\n      tag_75\n      jump\t// in\n    tag_73:\n      stop\n        /* \"@openzeppelin/contracts/access/Ownable.sol\":1918:2116  function transferOwnership(address newOwner) public virtual onlyOwner {... */\n    tag_15:\n      callvalue\n      dup1\n      iszero\n      tag_76\n      jumpi\n      revert(0x00, 0x00)\n    tag_76:\n      pop\n      tag_77\n      0x04\n      dup1\n      calldatasize\n      sub\n      dup2\n      add\n      swap1\n      tag_78\n      swap2\n      swap1\n      tag_39\n      jump\t// in\n    tag_78:\n      tag_79\n      jump\t// in\n    tag_77:\n      stop\n        /* \"contracts/PrizePool.sol\":4172:4502  function getPrizePoolAmount() external view override returns (uint256) {... */\n    tag_16:\n      callvalue\n      dup1\n      iszero\n      tag_80\n      jumpi\n      revert(0x00, 0x00)\n    tag_80:\n      pop\n      tag_81\n      tag_82\n      jump\t// in\n    tag_81:\n      mload(0x40)\n      tag_83\n      swap2\n      swap1\n      tag_56\n      jump\t// in\n    tag_83:\n      mload(0x40)\n      dup1\n      swap2\n      sub\n      swap1\n      return\n        /* \"contracts/PrizePool.sol\":546:566  address public vault */\n    tag_17:\n      callvalue\n      dup1\n      iszero\n      tag_84\n      jumpi\n      revert(0x00, 0x00)\n    tag_84:\n      pop\n      tag_85\n      tag_86\n      jump\t// in\n    tag_85:\n      mload(0x40)\n      tag_87\n      swap2\n      swap1\n      tag_30\n      jump\t// in\n    tag_87:\n      mload(0x40)\n      dup1\n      swap2\n      sub\n      swap1\n      return\n        /* \"contracts/PrizePool.sol\":501:540  IYieldAggregator public yieldAggregator */\n    tag_23:\n      0x01\n      0x00\n      swap1\n      sload\n      swap1\n      0x0100\n      exp\n      swap1\n      div\n      0xffffffffffffffffffffffffffffffffffffffff\n      and\n      dup2\n      jump\t// out\n        /* \"contracts/PrizePool.sol\":601:620  address public weth */\n    tag_28:\n      0x04\n      0x00\n      swap1\n      sload\n      swap1\n      0x0100\n      exp\n      swap1\n      div\n      0xffffffffffffffffffffffffffffffffffffffff\n      and\n      dup2\n      jump\t// out\n        /* \"contracts/PrizePool.sol\":2248:2343  function setFeeRate(uint256 _feeRate) external onlyOwner {... */\n    tag_35:\n        /* \"@openzeppelin/contracts/access/Ownable.sol\":1259:1271  _msgSender() */\n      tag_89\n        /* \"@openzeppelin/contracts/access/Ownable.sol\":1259:1269  _msgSender */\n      tag_90\n        /* \"@openzeppelin/contracts/access/Ownable.sol\":1259:1271  _msgSender() */\n      jump\t// in\n    tag_89:\n        /* \"@openzeppelin/contracts/access/Ownable.sol\":1248:1271  owner() == _msgSender() */\n      0xffffffffffffffffffffffffffffffffffffffff\n      and\n        /* \"@openzeppelin/contracts/access/Ownable.sol\":1248:1255  owner() */\n      tag_91\n        /* \"@openzeppelin/contracts/access/Ownable.sol\":1248:1253  owner */\n      tag_50\n        /* \"@openzeppelin/contracts/access/Ownable.sol\":1248:1255  owner() */\n      jump\t// in\n    tag_91:\n        /* \"@openzeppelin/contracts/access/Ownable.sol\":1248:1271  owner() == _msgSender() */\n      0xffffffffffffffffffffffffffffffffffffffff\n      and\n      eq\n        /* \"@openzeppelin/contracts/access/Ownable.sol\":1240:1308  require(owner() == _msgSender(), \"Ownable: caller is not the owner\") */\n      tag_92\n      jumpi\n      mload(0x40)\n      0x08c379a000000000000000000000000000000000000000000000000000000000\n      dup2\n      mstore\n      0x04\n      add\n      tag_93\n      swap1\n      tag_94\n      jump\t// in\n    tag_93:\n      mload(0x40)\n      dup1\n      swap2\n      sub\n      swap1\n      revert\n    tag_92:\n        /* \"contracts/PrizePool.sol\":2315:2336  _setFeeRate(_feeRate) */\n      tag_96\n        /* \"contracts/PrizePool.sol\":2327:2335  _feeRate */\n      dup2\n        /* \"contracts/PrizePool.sol\":2315:2326  _setFeeRate */\n      tag_97\n        /* \"contracts/PrizePool.sol\":2315:2336  _setFeeRate(_feeRate) */\n      jump\t// in\n    tag_96:\n        /* \"contracts/PrizePool.sol\":2248:2343  function setFeeRate(uint256 _feeRate) external onlyOwner {... */\n      pop\n      jump\t// out\n        /* \"contracts/PrizePool.sol\":1970:2112  function setWETH(address _weth) external onlyOwner {... */\n    tag_40:\n        /* \"@openzeppelin/contracts/access/Ownable.sol\":1259:1271  _msgSender() */\n      tag_99\n        /* \"@openzeppelin/contracts/access/Ownable.sol\":1259:1269  _msgSender */\n      tag_90\n        /* \"@openzeppelin/contracts/access/Ownable.sol\":1259:1271  _msgSender() */\n      jump\t// in\n    tag_99:\n        /* \"@openzeppelin/contracts/access/Ownable.sol\":1248:1271  owner() == _msgSender() */\n      0xffffffffffffffffffffffffffffffffffffffff\n      and\n        /* \"@openzeppelin/contracts/access/Ownable.sol\":1248:1255  owner() */\n      tag_100\n        /* \"@openzeppelin/contracts/access/Ownable.sol\":1248:1253  owner */\n      tag_50\n        /* \"@openzeppelin/contracts/access/Ownable.sol\":1248:1255  owner() */\n      jump\t// in\n    tag_100:\n        /* \"@openzeppelin/contracts/access/Ownable.sol\":1248:1271  owner() == _msgSender() */\n      0xffffffffffffffffffffffffffffffffffffffff\n      and\n      eq\n        /* \"@openzeppelin/contracts/access/Ownable.sol\":1240:1308  require(owner() == _msgSender(), \"Ownable: caller is not the owner\") */\n      tag_101\n      jumpi\n      mload(0x40)\n      0x08c379a000000000000000000000000000000000000000000000000000000000\n      dup2\n      mstore\n      0x04\n      add\n      tag_102\n      swap1\n      tag_94\n      jump\t// in\n    tag_102:\n      mload(0x40)\n      dup1\n      swap2\n      sub\n      swap1\n      revert\n    tag_101:\n        /* \"contracts/PrizePool.sol\":2056:2057  0 */\n      0x00\n        /* \"contracts/PrizePool.sol\":2039:2058  _weth != address(0) */\n      0xffffffffffffffffffffffffffffffffffffffff\n      and\n        /* \"contracts/PrizePool.sol\":2039:2044  _weth */\n      dup2\n        /* \"contracts/PrizePool.sol\":2039:2058  _weth != address(0) */\n      0xffffffffffffffffffffffffffffffffffffffff\n      and\n      sub\n        /* \"contracts/PrizePool.sol\":2031:2083  require(_weth != address(0), \"Invalid WETH address\") */\n      tag_104\n      jumpi\n      mload(0x40)\n      0x08c379a000000000000000000000000000000000000000000000000000000000\n      dup2\n      mstore\n      0x04\n      add\n      tag_105\n      swap1\n      tag_106\n      jump\t// in\n    tag_105:\n      mload(0x40)\n      dup1\n      swap2\n      sub\n      swap1\n      revert\n    tag_104:\n        /* \"contracts/PrizePool.sol\":2100:2105  _weth */\n      dup1\n        /* \"contracts/PrizePool.sol\":2093:2097  weth */\n      0x04\n      0x00\n        /* \"contracts/PrizePool.sol\":2093:2105  weth = _weth */\n      0x0100\n      exp\n      dup2\n      sload\n      dup2\n      0xffffffffffffffffffffffffffffffffffffffff\n      mul\n      not\n      and\n      swap1\n      dup4\n      0xffffffffffffffffffffffffffffffffffffffff\n      and\n      mul\n      or\n      swap1\n      sstore\n      pop\n        /* \"contracts/PrizePool.sol\":1970:2112  function setWETH(address _weth) external onlyOwner {... */\n      pop\n      jump\t// out\n        /* \"contracts/PrizePool.sol\":1785:1964  function setVault(address _vault) external onlyOwner {... */\n    tag_44:\n        /* \"@openzeppelin/contracts/access/Ownable.sol\":1259:1271  _msgSender() */\n      tag_108\n        /* \"@openzeppelin/contracts/access/Ownable.sol\":1259:1269  _msgSender */\n      tag_90\n        /* \"@openzeppelin/contracts/access/Ownable.sol\":1259:1271  _msgSender() */\n      jump\t// in\n    tag_108:\n        /* \"@openzeppelin/contracts/access/Ownable.sol\":1248:1271  owner() == _msgSender() */\n      0xffffffffffffffffffffffffffffffffffffffff\n      and\n        /* \"@openzeppelin/contracts/access/Ownable.sol\":1248:1255  owner() */\n      tag_109\n        /* \"@openzeppelin/contracts/access/Ownable.sol\":1248:1253  owner */\n      tag_50\n        /* \"@openzeppelin/contracts/access/Ownable.sol\":1248:1255  owner() */\n      jump\t// in\n    tag_109:\n        /* \"@openzeppelin/contracts/access/Ownable.sol\":1248:1271  owner() == _msgSender() */\n      0xffffffffffffffffffffffffffffffffffffffff\n      and\n      eq\n        /* \"@openzeppelin/contracts/access/Ownable.sol\":1240:1308  require(owner() == _msgSender(), \"Ownable: caller is not the owner\") */\n      tag_110\n      jumpi\n      mload(0x40)\n      0x08c379a000000000000000000000000000000000000000000000000000000000\n      dup2\n      mstore\n      0x04\n      add\n      tag_111\n      swap1\n      tag_94\n      jump\t// in\n    tag_111:\n      mload(0x40)\n      dup1\n      swap2\n      sub\n      swap1\n      revert\n    tag_110:\n        /* \"contracts/PrizePool.sol\":1874:1875  0 */\n      0x00\n        /* \"contracts/PrizePool.sol\":1856:1876  _vault != address(0) */\n      0xffffffffffffffffffffffffffffffffffffffff\n      and\n        /* \"contracts/PrizePool.sol\":1856:1862  _vault */\n      dup2\n        /* \"contracts/PrizePool.sol\":1856:1876  _vault != address(0) */\n      0xffffffffffffffffffffffffffffffffffffffff\n      and\n      sub\n        /* \"contracts/PrizePool.sol\":1848:1902  require(_vault != address(0), \"Invalid vault address\") */\n      tag_113\n      jumpi\n      mload(0x40)\n      0x08c379a000000000000000000000000000000000000000000000000000000000\n      dup2\n      mstore\n      0x04\n      add\n      tag_114\n      swap1\n      tag_115\n      jump\t// in\n    tag_114:\n      mload(0x40)\n      dup1\n      swap2\n      sub\n      swap1\n      revert\n    tag_113:\n        /* \"contracts/PrizePool.sol\":1920:1926  _vault */\n      dup1\n        /* \"contracts/PrizePool.sol\":1912:1917  vault */\n      0x02\n      0x00\n        /* \"contracts/PrizePool.sol\":1912:1926  vault = _vault */\n      0x0100\n      exp\n      dup2\n      sload\n      dup2\n      0xffffffffffffffffffffffffffffffffffffffff\n      mul\n      not\n      and\n      swap1\n      dup4\n      0xffffffffffffffffffffffffffffffffffffffff\n      and\n      mul\n      or\n      swap1\n      sstore\n      pop\n        /* \"contracts/PrizePool.sol\":1950:1956  _vault */\n      dup1\n        /* \"contracts/PrizePool.sol\":1941:1957  VaultSet(_vault) */\n      0xffffffffffffffffffffffffffffffffffffffff\n      and\n      0xe7ae49f883c825b05681b3e00e8be6fdea9ed2a8a45e4c6ecb9390fc44cce615\n      mload(0x40)\n      mload(0x40)\n      dup1\n      swap2\n      sub\n      swap1\n      log2\n        /* \"contracts/PrizePool.sol\":1785:1964  function setVault(address _vault) external onlyOwner {... */\n      pop\n      jump\t// out\n        /* \"@openzeppelin/contracts/access/Ownable.sol\":1668:1769  function renounceOwnership() public virtual onlyOwner {... */\n    tag_47:\n        /* \"@openzeppelin/contracts/access/Ownable.sol\":1259:1271  _msgSender() */\n      tag_117\n        /* \"@openzeppelin/contracts/access/Ownable.sol\":1259:1269  _msgSender */\n      tag_90\n        /* \"@openzeppelin/contracts/access/Ownable.sol\":1259:1271  _msgSender() */\n      jump\t// in\n    tag_117:\n        /* \"@openzeppelin/contracts/access/Ownable.sol\":1248:1271  owner() == _msgSender() */\n      0xffffffffffffffffffffffffffffffffffffffff\n      and\n        /* \"@openzeppelin/contracts/access/Ownable.sol\":1248:1255  owner() */\n      tag_118\n        /* \"@openzeppelin/contracts/access/Ownable.sol\":1248:1253  owner */\n      tag_50\n        /* \"@openzeppelin/contracts/access/Ownable.sol\":1248:1255  owner() */\n      jump\t// in\n    tag_118:\n        /* \"@openzeppelin/contracts/access/Ownable.sol\":1248:1271  owner() == _msgSender() */\n      0xffffffffffffffffffffffffffffffffffffffff\n      and\n      eq\n        /* \"@openzeppelin/contracts/access/Ownable.sol\":1240:1308  require(owner() == _msgSender(), \"Ownable: caller is not the owner\") */\n      tag_119\n      jumpi\n      mload(0x40)\n      0x08c379a000000000000000000000000000000000000000000000000000000000\n      dup2\n      mstore\n      0x04\n      add\n      tag_120\n      swap1\n      tag_94\n      jump\t// in\n    tag_120:\n      mload(0x40)\n      dup1\n      swap2\n      sub\n      swap1\n      revert\n    tag_119:\n        /* \"@openzeppelin/contracts/access/Ownable.sol\":1732:1762  _transferOwnership(address(0)) */\n      tag_122\n        /* \"@openzeppelin/contracts/access/Ownable.sol\":1759:1760  0 */\n      0x00\n        /* \"@openzeppelin/contracts/access/Ownable.sol\":1732:1750  _transferOwnership */\n      tag_123\n        /* \"@openzeppelin/contracts/access/Ownable.sol\":1732:1762  _transferOwnership(address(0)) */\n      jump\t// in\n    tag_122:\n        /* \"@openzeppelin/contracts/access/Ownable.sol\":1668:1769  function renounceOwnership() public virtual onlyOwner {... */\n      jump\t// out\n        /* \"@openzeppelin/contracts/access/Ownable.sol\":1036:1121  function owner() public view virtual returns (address) {... */\n    tag_50:\n        /* \"@openzeppelin/contracts/access/Ownable.sol\":1082:1089  address */\n      0x00\n        /* \"@openzeppelin/contracts/access/Ownable.sol\":1108:1114  _owner */\n      0x00\n      0x00\n      swap1\n      sload\n      swap1\n      0x0100\n      exp\n      swap1\n      div\n      0xffffffffffffffffffffffffffffffffffffffff\n      and\n        /* \"@openzeppelin/contracts/access/Ownable.sol\":1101:1114  return _owner */\n      swap1\n      pop\n        /* \"@openzeppelin/contracts/access/Ownable.sol\":1036:1121  function owner() public view virtual returns (address) {... */\n      swap1\n      jump\t// out\n        /* \"contracts/PrizePool.sol\":749:792  uint256 public constant MAX_FEE_RATE = 2000 */\n    tag_54:\n        /* \"contracts/PrizePool.sol\":788:792  2000 */\n      0x07d0\n        /* \"contracts/PrizePool.sol\":749:792  uint256 public constant MAX_FEE_RATE = 2000 */\n      dup2\n      jump\t// out\n        /* \"contracts/PrizePool.sol\":670:698  uint256 public feeRate = 500 */\n    tag_59:\n      sload(0x05)\n      dup2\n      jump\t// out\n        /* \"contracts/PrizePool.sol\":1419:1779  function setYieldAggregator(address _yieldAggregator) external onlyOwner {... */\n    tag_64:\n        /* \"@openzeppelin/contracts/access/Ownable.sol\":1259:1271  _msgSender() */\n      tag_126\n        /* \"@openzeppelin/contracts/access/Ownable.sol\":1259:1269  _msgSender */\n      tag_90\n        /* \"@openzeppelin/contracts/access/Ownable.sol\":1259:1271  _msgSender() */\n      jump\t// in\n    tag_126:\n        /* \"@openzeppelin/contracts/access/Ownable.sol\":1248:1271  owner() == _msgSender() */\n      0xffffffffffffffffffffffffffffffffffffffff\n      and\n        /* \"@openzeppelin/contracts/access/Ownable.sol\":1248:1255  owner() */\n      tag_127\n        /* \"@openzeppelin/contracts/access/Ownable.sol\":1248:1253  owner */\n      tag_50\n        /* \"@openzeppelin/contracts/access/Ownable.sol\":1248:1255  owner() */\n      jump\t// in\n    tag_127:\n        /* \"@openzeppelin/contracts/access/Ownable.sol\":1248:1271  owner() == _msgSender() */\n      0xffffffffffffffffffffffffffffffffffffffff\n      and\n      eq\n        /* \"@openzeppelin/contracts/access/Ownable.sol\":1240:1308  require(owner() == _msgSender(), \"Ownable: caller is not the owner\") */\n      tag_128\n      jumpi\n      mload(0x40)\n      0x08c379a000000000000000000000000000000000000000000000000000000000\n      dup2\n      mstore\n      0x04\n      add\n      tag_129\n      swap1\n      tag_94\n      jump\t// in\n    tag_129:\n      mload(0x40)\n      dup1\n      swap2\n      sub\n      swap1\n      revert\n    tag_128:\n        /* \"contracts/PrizePool.sol\":1538:1539  0 */\n      0x00\n        /* \"contracts/PrizePool.sol\":1510:1540  _yieldAggregator != address(0) */\n      0xffffffffffffffffffffffffffffffffffffffff\n      and\n        /* \"contracts/PrizePool.sol\":1510:1526  _yieldAggregator */\n      dup2\n        /* \"contracts/PrizePool.sol\":1510:1540  _yieldAggregator != address(0) */\n      0xffffffffffffffffffffffffffffffffffffffff\n      and\n      sub\n        /* \"contracts/PrizePool.sol\":1502:1576  require(_yieldAggregator != address(0), \"Invalid YieldAggregator address\") */\n      tag_131\n      jumpi\n      mload(0x40)\n      0x08c379a000000000000000000000000000000000000000000000000000000000\n      dup2\n      mstore\n      0x04\n      add\n      tag_132\n      swap1\n      tag_133\n      jump\t// in\n    tag_132:\n      mload(0x40)\n      dup1\n      swap2\n      sub\n      swap1\n      revert\n    tag_131:\n        /* \"contracts/PrizePool.sol\":1586:1612  address oldYieldAggregator */\n      0x00\n        /* \"contracts/PrizePool.sol\":1623:1638  yieldAggregator */\n      0x01\n      0x00\n      swap1\n      sload\n      swap1\n      0x0100\n      exp\n      swap1\n      div\n      0xffffffffffffffffffffffffffffffffffffffff\n      and\n        /* \"contracts/PrizePool.sol\":1586:1639  address oldYieldAggregator = address(yieldAggregator) */\n      swap1\n      pop\n        /* \"contracts/PrizePool.sol\":1684:1700  _yieldAggregator */\n      dup2\n        /* \"contracts/PrizePool.sol\":1649:1664  yieldAggregator */\n      0x01\n      0x00\n        /* \"contracts/PrizePool.sol\":1649:1701  yieldAggregator = IYieldAggregator(_yieldAggregator) */\n      0x0100\n      exp\n      dup2\n      sload\n      dup2\n      0xffffffffffffffffffffffffffffffffffffffff\n      mul\n      not\n      and\n      swap1\n      dup4\n      0xffffffffffffffffffffffffffffffffffffffff\n      and\n      mul\n      or\n      swap1\n      sstore\n      pop\n        /* \"contracts/PrizePool.sol\":1755:1771  _yieldAggregator */\n      dup2\n        /* \"contracts/PrizePool.sol\":1716:1772  YieldAggregatorSet(oldYieldAggregator, _yieldAggregator) */\n      0xffffffffffffffffffffffffffffffffffffffff\n      and\n        /* \"contracts/PrizePool.sol\":1735:1753  oldYieldAggregator */\n      dup2\n        /* \"contracts/PrizePool.sol\":1716:1772  YieldAggregatorSet(oldYieldAggregator, _yieldAggregator) */\n      0xffffffffffffffffffffffffffffffffffffffff\n      and\n      0xc50d8ef9b57c270b939cf88365a0e6c8dcf9b867c2b1fe31ec181897e3d6a4db\n      mload(0x40)\n      mload(0x40)\n      dup1\n      swap2\n      sub\n      swap1\n      log3\n        /* \"contracts/PrizePool.sol\":1492:1779  {... */\n      pop\n        /* \"contracts/PrizePool.sol\":1419:1779  function setYieldAggregator(address _yieldAggregator) external onlyOwner {... */\n      pop\n      jump\t// out\n        /* \"contracts/PrizePool.sol\":1136:1413  function addToPrizePool() external payable override {... */\n    tag_66:\n        /* \"contracts/PrizePool.sol\":1280:1406  revert(... */\n      mload(0x40)\n      0x08c379a000000000000000000000000000000000000000000000000000000000\n      dup2\n      mstore\n      0x04\n      add\n      tag_135\n      swap1\n      tag_136\n      jump\t// in\n    tag_135:\n      mload(0x40)\n      dup1\n      swap2\n      sub\n      swap1\n      revert\n        /* \"contracts/PrizePool.sol\":572:595  ILottery public lottery */\n    tag_69:\n      0x03\n      0x00\n      swap1\n      sload\n      swap1\n      0x0100\n      exp\n      swap1\n      div\n      0xffffffffffffffffffffffffffffffffffffffff\n      and\n      dup2\n      jump\t// out\n        /* \"contracts/PrizePool.sol\":2591:4166  function claimPrize(uint256 lotteryId) external override {... */\n    tag_75:\n        /* \"contracts/PrizePool.sol\":2702:2703  0 */\n      0x00\n        /* \"contracts/PrizePool.sol\":2666:2704  address(yieldAggregator) != address(0) */\n      0xffffffffffffffffffffffffffffffffffffffff\n      and\n        /* \"contracts/PrizePool.sol\":2674:2689  yieldAggregator */\n      0x01\n      0x00\n      swap1\n      sload\n      swap1\n      0x0100\n      exp\n      swap1\n      div\n      0xffffffffffffffffffffffffffffffffffffffff\n      and\n        /* \"contracts/PrizePool.sol\":2666:2704  address(yieldAggregator) != address(0) */\n      0xffffffffffffffffffffffffffffffffffffffff\n      and\n      sub\n        /* \"contracts/PrizePool.sol\":2658:2732  require(address(yieldAggregator) != address(0), \"YieldAggregator not set\") */\n      tag_138\n      jumpi\n      mload(0x40)\n      0x08c379a000000000000000000000000000000000000000000000000000000000\n      dup2\n      mstore\n      0x04\n      add\n      tag_139\n      swap1\n      tag_140\n      jump\t// in\n    tag_139:\n      mload(0x40)\n      dup1\n      swap2\n      sub\n      swap1\n      revert\n    tag_138:\n        /* \"contracts/PrizePool.sol\":2767:2768  0 */\n      0x00\n        /* \"contracts/PrizePool.sol\":2750:2769  vault != address(0) */\n      0xffffffffffffffffffffffffffffffffffffffff\n      and\n        /* \"contracts/PrizePool.sol\":2750:2755  vault */\n      0x02\n      0x00\n      swap1\n      sload\n      swap1\n      0x0100\n      exp\n      swap1\n      div\n      0xffffffffffffffffffffffffffffffffffffffff\n      and\n        /* \"contracts/PrizePool.sol\":2750:2769  vault != address(0) */\n      0xffffffffffffffffffffffffffffffffffffffff\n      and\n      sub\n        /* \"contracts/PrizePool.sol\":2742:2787  require(vault != address(0), \"Vault not set\") */\n      tag_141\n      jumpi\n      mload(0x40)\n      0x08c379a000000000000000000000000000000000000000000000000000000000\n      dup2\n      mstore\n      0x04\n      add\n      tag_142\n      swap1\n      tag_143\n      jump\t// in\n    tag_142:\n      mload(0x40)\n      dup1\n      swap2\n      sub\n      swap1\n      revert\n    tag_141:\n        /* \"contracts/PrizePool.sol\":2821:2822  0 */\n      0x00\n        /* \"contracts/PrizePool.sol\":2805:2823  weth != address(0) */\n      0xffffffffffffffffffffffffffffffffffffffff\n      and\n        /* \"contracts/PrizePool.sol\":2805:2809  weth */\n      0x04\n      0x00\n      swap1\n      sload\n      swap1\n      0x0100\n      exp\n      swap1\n      div\n      0xffffffffffffffffffffffffffffffffffffffff\n      and\n        /* \"contracts/PrizePool.sol\":2805:2823  weth != address(0) */\n      0xffffffffffffffffffffffffffffffffffffffff\n      and\n      sub\n        /* \"contracts/PrizePool.sol\":2797:2840  require(weth != address(0), \"WETH not set\") */\n      tag_144\n      jumpi\n      mload(0x40)\n      0x08c379a000000000000000000000000000000000000000000000000000000000\n      dup2\n      mstore\n      0x04\n      add\n      tag_145\n      swap1\n      tag_146\n      jump\t// in\n    tag_145:\n      mload(0x40)\n      dup1\n      swap2\n      sub\n      swap1\n      revert\n    tag_144:\n        /* \"contracts/PrizePool.sol\":2851:2885  ILottery.LotteryRound memory round */\n      0x00\n        /* \"contracts/PrizePool.sol\":2888:2895  lottery */\n      0x03\n      0x00\n      swap1\n      sload\n      swap1\n      0x0100\n      exp\n      swap1\n      div\n      0xffffffffffffffffffffffffffffffffffffffff\n      and\n        /* \"contracts/PrizePool.sol\":2888:2908  lottery.lotteryRound */\n      0xffffffffffffffffffffffffffffffffffffffff\n      and\n      0xc4a909ba\n        /* \"contracts/PrizePool.sol\":2909:2918  lotteryId */\n      dup4\n        /* \"contracts/PrizePool.sol\":2888:2919  lottery.lotteryRound(lotteryId) */\n      mload(0x40)\n      dup3\n      0xffffffff\n      and\n      0xe0\n      shl\n      dup2\n      mstore\n      0x04\n      add\n      tag_147\n      swap2\n      swap1\n      tag_56\n      jump\t// in\n    tag_147:\n      0xe0\n      mload(0x40)\n      dup1\n      dup4\n      sub\n      dup2\n      dup7\n      gas\n      staticcall\n      iszero\n      dup1\n      iszero\n      tag_149\n      jumpi\n      returndatacopy(0x00, 0x00, returndatasize)\n      revert(0x00, returndatasize)\n    tag_149:\n      pop\n      pop\n      pop\n      pop\n      mload(0x40)\n      returndatasize\n      not(0x1f)\n      0x1f\n      dup3\n      add\n      and\n      dup3\n      add\n      dup1\n      0x40\n      mstore\n      pop\n      dup2\n      add\n      swap1\n      tag_150\n      swap2\n      swap1\n      tag_151\n      jump\t// in\n    tag_150:\n        /* \"contracts/PrizePool.sol\":2851:2919  ILottery.LotteryRound memory round = lottery.lotteryRound(lotteryId) */\n      swap1\n      pop\n        /* \"contracts/PrizePool.sol\":2953:2963  msg.sender */\n      caller\n        /* \"contracts/PrizePool.sol\":2937:2963  round.winner == msg.sender */\n      0xffffffffffffffffffffffffffffffffffffffff\n      and\n        /* \"contracts/PrizePool.sol\":2937:2942  round */\n      dup2\n        /* \"contracts/PrizePool.sol\":2937:2949  round.winner */\n      0x20\n      add\n      mload\n        /* \"contracts/PrizePool.sol\":2937:2963  round.winner == msg.sender */\n      0xffffffffffffffffffffffffffffffffffffffff\n      and\n      eq\n        /* \"contracts/PrizePool.sol\":2929:2982  require(round.winner == msg.sender, \"Not the winner\") */\n      tag_152\n      jumpi\n      mload(0x40)\n      0x08c379a000000000000000000000000000000000000000000000000000000000\n      dup2\n      mstore\n      0x04\n      add\n      tag_153\n      swap1\n      tag_154\n      jump\t// in\n    tag_153:\n      mload(0x40)\n      dup1\n      swap2\n      sub\n      swap1\n      revert\n    tag_152:\n        /* \"contracts/PrizePool.sol\":3001:3006  round */\n      dup1\n        /* \"contracts/PrizePool.sol\":3001:3016  round.isClaimed */\n      0xa0\n      add\n      mload\n        /* \"contracts/PrizePool.sol\":3000:3016  !round.isClaimed */\n      iszero\n        /* \"contracts/PrizePool.sol\":2992:3042  require(!round.isClaimed, \"Prize already claimed\") */\n      tag_155\n      jumpi\n      mload(0x40)\n      0x08c379a000000000000000000000000000000000000000000000000000000000\n      dup2\n      mstore\n      0x04\n      add\n      tag_156\n      swap1\n      tag_157\n      jump\t// in\n    tag_156:\n      mload(0x40)\n      dup1\n      swap2\n      sub\n      swap1\n      revert\n    tag_155:\n        /* \"contracts/PrizePool.sol\":3062:3069  lottery */\n      0x03\n      0x00\n      swap1\n      sload\n      swap1\n      0x0100\n      exp\n      swap1\n      div\n      0xffffffffffffffffffffffffffffffffffffffff\n      and\n        /* \"contracts/PrizePool.sol\":3053:3086  ILottery(lottery).updateIsClaimed */\n      0xffffffffffffffffffffffffffffffffffffffff\n      and\n      0xb2a6c4a4\n        /* \"contracts/PrizePool.sol\":3087:3096  lotteryId */\n      dup4\n        /* \"contracts/PrizePool.sol\":3053:3097  ILottery(lottery).updateIsClaimed(lotteryId) */\n      mload(0x40)\n      dup3\n      0xffffffff\n      and\n      0xe0\n      shl\n      dup2\n      mstore\n      0x04\n      add\n      tag_158\n      swap2\n      swap1\n      tag_56\n      jump\t// in\n    tag_158:\n      0x00\n      mload(0x40)\n      dup1\n      dup4\n      sub\n      dup2\n      0x00\n      dup8\n      dup1\n      extcodesize\n      iszero\n      dup1\n      iszero\n      tag_159\n      jumpi\n      revert(0x00, 0x00)\n    tag_159:\n      pop\n      gas\n      call\n      iszero\n      dup1\n      iszero\n      tag_161\n      jumpi\n      returndatacopy(0x00, 0x00, returndatasize)\n      revert(0x00, returndatasize)\n    tag_161:\n      pop\n      pop\n      pop\n      pop\n        /* \"contracts/PrizePool.sol\":3144:3161  uint256 feeAmount */\n      0x00\n        /* \"contracts/PrizePool.sol\":3195:3200  10000 */\n      0x2710\n        /* \"contracts/PrizePool.sol\":3184:3191  feeRate */\n      sload(0x05)\n        /* \"contracts/PrizePool.sol\":3165:3170  round */\n      dup4\n        /* \"contracts/PrizePool.sol\":3165:3181  round.prizeValue */\n      0x40\n      add\n      mload\n        /* \"contracts/PrizePool.sol\":3165:3191  round.prizeValue * feeRate */\n      tag_162\n      swap2\n      swap1\n      tag_163\n      jump\t// in\n    tag_162:\n        /* \"contracts/PrizePool.sol\":3164:3200  (round.prizeValue * feeRate) / 10000 */\n      tag_164\n      swap2\n      swap1\n      tag_165\n      jump\t// in\n    tag_164:\n        /* \"contracts/PrizePool.sol\":3144:3200  uint256 feeAmount = (round.prizeValue * feeRate) / 10000 */\n      swap1\n      pop\n        /* \"contracts/PrizePool.sol\":3210:3230  uint256 payoutAmount */\n      0x00\n        /* \"contracts/PrizePool.sol\":3252:3261  feeAmount */\n      dup2\n        /* \"contracts/PrizePool.sol\":3233:3238  round */\n      dup4\n        /* \"contracts/PrizePool.sol\":3233:3249  round.prizeValue */\n      0x40\n      add\n      mload\n        /* \"contracts/PrizePool.sol\":3233:3261  round.prizeValue - feeAmount */\n      tag_166\n      swap2\n      swap1\n      tag_167\n      jump\t// in\n    tag_166:\n        /* \"contracts/PrizePool.sol\":3210:3261  uint256 payoutAmount = round.prizeValue - feeAmount */\n      swap1\n      pop\n        /* \"contracts/PrizePool.sol\":3312:3332  bool withdrawSuccess */\n      0x00\n        /* \"contracts/PrizePool.sol\":3335:3350  yieldAggregator */\n      0x01\n      0x00\n      swap1\n      sload\n      swap1\n      0x0100\n      exp\n      swap1\n      div\n      0xffffffffffffffffffffffffffffffffffffffff\n      and\n        /* \"contracts/PrizePool.sol\":3335:3359  yieldAggregator.withdraw */\n      0xffffffffffffffffffffffffffffffffffffffff\n      and\n      0x2e1a7d4d\n        /* \"contracts/PrizePool.sol\":3360:3365  round */\n      dup6\n        /* \"contracts/PrizePool.sol\":3360:3376  round.prizeValue */\n      0x40\n      add\n      mload\n        /* \"contracts/PrizePool.sol\":3335:3377  yieldAggregator.withdraw(round.prizeValue) */\n      mload(0x40)\n      dup3\n      0xffffffff\n      and\n      0xe0\n      shl\n      dup2\n      mstore\n      0x04\n      add\n      tag_168\n      swap2\n      swap1\n      tag_56\n      jump\t// in\n    tag_168:\n      0x20\n      mload(0x40)\n      dup1\n      dup4\n      sub\n      dup2\n      0x00\n      dup8\n      gas\n      call\n      iszero\n      dup1\n      iszero\n      tag_170\n      jumpi\n      returndatacopy(0x00, 0x00, returndatasize)\n      revert(0x00, returndatasize)\n    tag_170:\n      pop\n      pop\n      pop\n      pop\n      mload(0x40)\n      returndatasize\n      not(0x1f)\n      0x1f\n      dup3\n      add\n      and\n      dup3\n      add\n      dup1\n      0x40\n      mstore\n      pop\n      dup2\n      add\n      swap1\n      tag_171\n      swap2\n      swap1\n      tag_172\n      jump\t// in\n    tag_171:\n        /* \"contracts/PrizePool.sol\":3312:3377  bool withdrawSuccess = yieldAggregator.withdraw(round.prizeValue) */\n      swap1\n      pop\n        /* \"contracts/PrizePool.sol\":3395:3410  withdrawSuccess */\n      dup1\n        /* \"contracts/PrizePool.sol\":3387:3454  require(withdrawSuccess, \"Withdrawal from yield aggregator failed\") */\n      tag_173\n      jumpi\n      mload(0x40)\n      0x08c379a000000000000000000000000000000000000000000000000000000000\n      dup2\n      mstore\n      0x04\n      add\n      tag_174\n      swap1\n      tag_175\n      jump\t// in\n    tag_174:\n      mload(0x40)\n      dup1\n      swap2\n      sub\n      swap1\n      revert\n    tag_173:\n        /* \"contracts/PrizePool.sol\":3546:3547  0 */\n      0x00\n        /* \"contracts/PrizePool.sol\":3534:3543  feeAmount */\n      dup4\n        /* \"contracts/PrizePool.sol\":3534:3547  feeAmount > 0 */\n      gt\n        /* \"contracts/PrizePool.sol\":3530:3986  if (feeAmount > 0) {... */\n      iszero\n      tag_176\n      jumpi\n        /* \"contracts/PrizePool.sol\":3618:3660  IERC20(weth).safeApprove(vault, feeAmount) */\n      tag_177\n        /* \"contracts/PrizePool.sol\":3643:3648  vault */\n      0x02\n      0x00\n      swap1\n      sload\n      swap1\n      0x0100\n      exp\n      swap1\n      div\n      0xffffffffffffffffffffffffffffffffffffffff\n      and\n        /* \"contracts/PrizePool.sol\":3650:3659  feeAmount */\n      dup5\n        /* \"contracts/PrizePool.sol\":3625:3629  weth */\n      0x04\n      0x00\n      swap1\n      sload\n      swap1\n      0x0100\n      exp\n      swap1\n      div\n      0xffffffffffffffffffffffffffffffffffffffff\n      and\n        /* \"contracts/PrizePool.sol\":3618:3642  IERC20(weth).safeApprove */\n      0xffffffffffffffffffffffffffffffffffffffff\n      and\n      tag_178\n      swap1\n        /* \"contracts/PrizePool.sol\":3618:3660  IERC20(weth).safeApprove(vault, feeAmount) */\n      swap3\n      swap2\n      swap1\n      0xffffffff\n      and\n      jump\t// in\n    tag_177:\n        /* \"contracts/PrizePool.sol\":3733:3752  bool depositSuccess */\n      0x00\n        /* \"contracts/PrizePool.sol\":3758:3763  vault */\n      0x02\n      0x00\n      swap1\n      sload\n      swap1\n      0x0100\n      exp\n      swap1\n      div\n      0xffffffffffffffffffffffffffffffffffffffff\n      and\n        /* \"contracts/PrizePool.sol\":3758:3768  vault.call */\n      0xffffffffffffffffffffffffffffffffffffffff\n      and\n        /* \"contracts/PrizePool.sol\":3850:3859  feeAmount */\n      dup5\n        /* \"contracts/PrizePool.sol\":3786:3860  abi.encodeWithSignature(\"depositFeeToYieldAggregator(uint256)\", feeAmount) */\n      add(0x24, mload(0x40))\n      tag_179\n      swap2\n      swap1\n      tag_56\n      jump\t// in\n    tag_179:\n      mload(0x40)\n      0x20\n      dup2\n      dup4\n      sub\n      sub\n      dup2\n      mstore\n      swap1\n      0x40\n      mstore\n      and(not(0xffffffffffffffffffffffffffffffffffffffffffffffffffffffff), 0x111663e800000000000000000000000000000000000000000000000000000000)\n      0x20\n      dup3\n      add\n      dup1\n      mload\n      0xffffffffffffffffffffffffffffffffffffffffffffffffffffffff\n      dup4\n      dup2\n      dup4\n      and\n      or\n      dup4\n      mstore\n      pop\n      pop\n      pop\n      pop\n        /* \"contracts/PrizePool.sol\":3758:3874  vault.call(... */\n      mload(0x40)\n      tag_180\n      swap2\n      swap1\n      tag_181\n      jump\t// in\n    tag_180:\n      0x00\n      mload(0x40)\n      dup1\n      dup4\n      sub\n      dup2\n      0x00\n      dup7\n      gas\n      call\n      swap2\n      pop\n      pop\n      returndatasize\n      dup1\n      0x00\n      dup2\n      eq\n      tag_184\n      jumpi\n      mload(0x40)\n      swap2\n      pop\n      and(add(returndatasize, 0x3f), not(0x1f))\n      dup3\n      add\n      0x40\n      mstore\n      returndatasize\n      dup3\n      mstore\n      returndatasize\n      0x00\n      0x20\n      dup5\n      add\n      returndatacopy\n      jump(tag_183)\n    tag_184:\n      0x60\n      swap2\n      pop\n    tag_183:\n      pop\n        /* \"contracts/PrizePool.sol\":3732:3874  (bool depositSuccess, ) = vault.call(... */\n      pop\n      swap1\n      pop\n        /* \"contracts/PrizePool.sol\":3896:3910  depositSuccess */\n      dup1\n        /* \"contracts/PrizePool.sol\":3888:3933  require(depositSuccess, \"Fee deposit failed\") */\n      tag_185\n      jumpi\n      mload(0x40)\n      0x08c379a000000000000000000000000000000000000000000000000000000000\n      dup2\n      mstore\n      0x04\n      add\n      tag_186\n      swap1\n      tag_187\n      jump\t// in\n    tag_186:\n      mload(0x40)\n      dup1\n      swap2\n      sub\n      swap1\n      revert\n    tag_185:\n        /* \"contracts/PrizePool.sol\":3952:3975  FeeCollected(feeAmount) */\n      0xc472cb3a7a659a876494d66b3063145f279701771d6150b9329c31611ed6405c\n        /* \"contracts/PrizePool.sol\":3965:3974  feeAmount */\n      dup5\n        /* \"contracts/PrizePool.sol\":3952:3975  FeeCollected(feeAmount) */\n      mload(0x40)\n      tag_188\n      swap2\n      swap1\n      tag_56\n      jump\t// in\n    tag_188:\n      mload(0x40)\n      dup1\n      swap2\n      sub\n      swap1\n      log1\n        /* \"contracts/PrizePool.sol\":3549:3986  {... */\n      pop\n        /* \"contracts/PrizePool.sol\":3530:3986  if (feeAmount > 0) {... */\n    tag_176:\n        /* \"contracts/PrizePool.sol\":4039:4092  IERC20(weth).safeTransfer(round.winner, payoutAmount) */\n      tag_189\n        /* \"contracts/PrizePool.sol\":4065:4070  round */\n      dup5\n        /* \"contracts/PrizePool.sol\":4065:4077  round.winner */\n      0x20\n      add\n      mload\n        /* \"contracts/PrizePool.sol\":4079:4091  payoutAmount */\n      dup4\n        /* \"contracts/PrizePool.sol\":4046:4050  weth */\n      0x04\n      0x00\n      swap1\n      sload\n      swap1\n      0x0100\n      exp\n      swap1\n      div\n      0xffffffffffffffffffffffffffffffffffffffff\n      and\n        /* \"contracts/PrizePool.sol\":4039:4064  IERC20(weth).safeTransfer */\n      0xffffffffffffffffffffffffffffffffffffffff\n      and\n      tag_190\n      swap1\n        /* \"contracts/PrizePool.sol\":4039:4092  IERC20(weth).safeTransfer(round.winner, payoutAmount) */\n      swap3\n      swap2\n      swap1\n      0xffffffff\n      and\n      jump\t// in\n    tag_189:\n        /* \"contracts/PrizePool.sol\":4135:4144  lotteryId */\n      dup5\n        /* \"contracts/PrizePool.sol\":4121:4126  round */\n      dup5\n        /* \"contracts/PrizePool.sol\":4121:4133  round.winner */\n      0x20\n      add\n      mload\n        /* \"contracts/PrizePool.sol\":4108:4159  PrizeClaimed(round.winner, lotteryId, payoutAmount) */\n      0xffffffffffffffffffffffffffffffffffffffff\n      and\n      0x256642a903d86ec186d0ad895b74bdbe7f9e5a72db568f4c4d58c2fa38b39e1c\n        /* \"contracts/PrizePool.sol\":4146:4158  payoutAmount */\n      dup5\n        /* \"contracts/PrizePool.sol\":4108:4159  PrizeClaimed(round.winner, lotteryId, payoutAmount) */\n      mload(0x40)\n      tag_191\n      swap2\n      swap1\n      tag_56\n      jump\t// in\n    tag_191:\n      mload(0x40)\n      dup1\n      swap2\n      sub\n      swap1\n      log3\n        /* \"contracts/PrizePool.sol\":2648:4166  {... */\n      pop\n      pop\n      pop\n      pop\n        /* \"contracts/PrizePool.sol\":2591:4166  function claimPrize(uint256 lotteryId) external override {... */\n      pop\n      jump\t// out\n        /* \"@openzeppelin/contracts/access/Ownable.sol\":1918:2116  function transferOwnership(address newOwner) public virtual onlyOwner {... */\n    tag_79:\n        /* \"@openzeppelin/contracts/access/Ownable.sol\":1259:1271  _msgSender() */\n      tag_193\n        /* \"@openzeppelin/contracts/access/Ownable.sol\":1259:1269  _msgSender */\n      tag_90\n        /* \"@openzeppelin/contracts/access/Ownable.sol\":1259:1271  _msgSender() */\n      jump\t// in\n    tag_193:\n        /* \"@openzeppelin/contracts/access/Ownable.sol\":1248:1271  owner() == _msgSender() */\n      0xffffffffffffffffffffffffffffffffffffffff\n      and\n        /* \"@openzeppelin/contracts/access/Ownable.sol\":1248:1255  owner() */\n      tag_194\n        /* \"@openzeppelin/contracts/access/Ownable.sol\":1248:1253  owner */\n      tag_50\n        /* \"@openzeppelin/contracts/access/Ownable.sol\":1248:1255  owner() */\n      jump\t// in\n    tag_194:\n        /* \"@openzeppelin/contracts/access/Ownable.sol\":1248:1271  owner() == _msgSender() */\n      0xffffffffffffffffffffffffffffffffffffffff\n      and\n      eq\n        /* \"@openzeppelin/contracts/access/Ownable.sol\":1240:1308  require(owner() == _msgSender(), \"Ownable: caller is not the owner\") */\n      tag_195\n      jumpi\n      mload(0x40)\n      0x08c379a000000000000000000000000000000000000000000000000000000000\n      dup2\n      mstore\n      0x04\n      add\n      tag_196\n      swap1\n      tag_94\n      jump\t// in\n    tag_196:\n      mload(0x40)\n      dup1\n      swap2\n      sub\n      swap1\n      revert\n    tag_195:\n        /* \"@openzeppelin/contracts/access/Ownable.sol\":2026:2027  0 */\n      0x00\n        /* \"@openzeppelin/contracts/access/Ownable.sol\":2006:2028  newOwner != address(0) */\n      0xffffffffffffffffffffffffffffffffffffffff\n      and\n        /* \"@openzeppelin/contracts/access/Ownable.sol\":2006:2014  newOwner */\n      dup2\n        /* \"@openzeppelin/contracts/access/Ownable.sol\":2006:2028  newOwner != address(0) */\n      0xffffffffffffffffffffffffffffffffffffffff\n      and\n      sub\n        /* \"@openzeppelin/contracts/access/Ownable.sol\":1998:2071  require(newOwner != address(0), \"Ownable: new owner is the zero address\") */\n      tag_198\n      jumpi\n      mload(0x40)\n      0x08c379a000000000000000000000000000000000000000000000000000000000\n      dup2\n      mstore\n      0x04\n      add\n      tag_199\n      swap1\n      tag_200\n      jump\t// in\n    tag_199:\n      mload(0x40)\n      dup1\n      swap2\n      sub\n      swap1\n      revert\n    tag_198:\n        /* \"@openzeppelin/contracts/access/Ownable.sol\":2081:2109  _transferOwnership(newOwner) */\n      tag_201\n        /* \"@openzeppelin/contracts/access/Ownable.sol\":2100:2108  newOwner */\n      dup2\n        /* \"@openzeppelin/contracts/access/Ownable.sol\":2081:2099  _transferOwnership */\n      tag_123\n        /* \"@openzeppelin/contracts/access/Ownable.sol\":2081:2109  _transferOwnership(newOwner) */\n      jump\t// in\n    tag_201:\n        /* \"@openzeppelin/contracts/access/Ownable.sol\":1918:2116  function transferOwnership(address newOwner) public virtual onlyOwner {... */\n      pop\n      jump\t// out\n        /* \"contracts/PrizePool.sol\":4172:4502  function getPrizePoolAmount() external view override returns (uint256) {... */\n    tag_82:\n        /* \"contracts/PrizePool.sol\":4234:4241  uint256 */\n      0x00\n        /* \"contracts/PrizePool.sol\":4332:4333  0 */\n      0x00\n        /* \"contracts/PrizePool.sol\":4296:4334  address(yieldAggregator) != address(0) */\n      0xffffffffffffffffffffffffffffffffffffffff\n      and\n        /* \"contracts/PrizePool.sol\":4304:4319  yieldAggregator */\n      0x01\n      0x00\n      swap1\n      sload\n      swap1\n      0x0100\n      exp\n      swap1\n      div\n      0xffffffffffffffffffffffffffffffffffffffff\n      and\n        /* \"contracts/PrizePool.sol\":4296:4334  address(yieldAggregator) != address(0) */\n      0xffffffffffffffffffffffffffffffffffffffff\n      and\n      eq\n        /* \"contracts/PrizePool.sol\":4292:4395  if (address(yieldAggregator) != address(0)) {... */\n      tag_203\n      jumpi\n        /* \"contracts/PrizePool.sol\":4357:4372  yieldAggregator */\n      0x01\n      0x00\n      swap1\n      sload\n      swap1\n      0x0100\n      exp\n      swap1\n      div\n      0xffffffffffffffffffffffffffffffffffffffff\n      and\n        /* \"contracts/PrizePool.sol\":4357:4382  yieldAggregator.balanceOf */\n      0xffffffffffffffffffffffffffffffffffffffff\n      and\n      0x722713f7\n        /* \"contracts/PrizePool.sol\":4357:4384  yieldAggregator.balanceOf() */\n      mload(0x40)\n      dup2\n      0xffffffff\n      and\n      0xe0\n      shl\n      dup2\n      mstore\n      0x04\n      add\n      0x20\n      mload(0x40)\n      dup1\n      dup4\n      sub\n      dup2\n      dup7\n      gas\n      staticcall\n      iszero\n      dup1\n      iszero\n      tag_205\n      jumpi\n      returndatacopy(0x00, 0x00, returndatasize)\n      revert(0x00, returndatasize)\n    tag_205:\n      pop\n      pop\n      pop\n      pop\n      mload(0x40)\n      returndatasize\n      not(0x1f)\n      0x1f\n      dup3\n      add\n      and\n      dup3\n      add\n      dup1\n      0x40\n      mstore\n      pop\n      dup2\n      add\n      swap1\n      tag_206\n      swap2\n      swap1\n      tag_207\n      jump\t// in\n    tag_206:\n        /* \"contracts/PrizePool.sol\":4350:4384  return yieldAggregator.balanceOf() */\n      swap1\n      pop\n      jump(tag_202)\n        /* \"contracts/PrizePool.sol\":4292:4395  if (address(yieldAggregator) != address(0)) {... */\n    tag_203:\n        /* \"contracts/PrizePool.sol\":4494:4495  0 */\n      0x00\n        /* \"contracts/PrizePool.sol\":4487:4495  return 0 */\n      swap1\n      pop\n        /* \"contracts/PrizePool.sol\":4172:4502  function getPrizePoolAmount() external view override returns (uint256) {... */\n    tag_202:\n      swap1\n      jump\t// out\n        /* \"contracts/PrizePool.sol\":546:566  address public vault */\n    tag_86:\n      0x02\n      0x00\n      swap1\n      sload\n      swap1\n      0x0100\n      exp\n      swap1\n      div\n      0xffffffffffffffffffffffffffffffffffffffff\n      and\n      dup2\n      jump\t// out\n        /* \"@openzeppelin/contracts/utils/Context.sol\":640:736  function _msgSender() internal view virtual returns (address) {... */\n    tag_90:\n        /* \"@openzeppelin/contracts/utils/Context.sol\":693:700  address */\n      0x00\n        /* \"@openzeppelin/contracts/utils/Context.sol\":719:729  msg.sender */\n      caller\n        /* \"@openzeppelin/contracts/utils/Context.sol\":712:729  return msg.sender */\n      swap1\n      pop\n        /* \"@openzeppelin/contracts/utils/Context.sol\":640:736  function _msgSender() internal view virtual returns (address) {... */\n      swap1\n      jump\t// out\n        /* \"contracts/PrizePool.sol\":2349:2585  function _setFeeRate(uint256 _feeRate) internal {... */\n    tag_97:\n        /* \"contracts/PrizePool.sol\":788:792  2000 */\n      0x07d0\n        /* \"contracts/PrizePool.sol\":2415:2423  _feeRate */\n      dup2\n        /* \"contracts/PrizePool.sol\":2415:2439  _feeRate <= MAX_FEE_RATE */\n      gt\n      iszero\n        /* \"contracts/PrizePool.sol\":2407:2461  require(_feeRate <= MAX_FEE_RATE, \"Fee rate too high\") */\n      tag_210\n      jumpi\n      mload(0x40)\n      0x08c379a000000000000000000000000000000000000000000000000000000000\n      dup2\n      mstore\n      0x04\n      add\n      tag_211\n      swap1\n      tag_212\n      jump\t// in\n    tag_211:\n      mload(0x40)\n      dup1\n      swap2\n      sub\n      swap1\n      revert\n    tag_210:\n        /* \"contracts/PrizePool.sol\":2471:2489  uint256 oldFeeRate */\n      0x00\n        /* \"contracts/PrizePool.sol\":2492:2499  feeRate */\n      sload(0x05)\n        /* \"contracts/PrizePool.sol\":2471:2499  uint256 oldFeeRate = feeRate */\n      swap1\n      pop\n        /* \"contracts/PrizePool.sol\":2519:2527  _feeRate */\n      dup2\n        /* \"contracts/PrizePool.sol\":2509:2516  feeRate */\n      0x05\n        /* \"contracts/PrizePool.sol\":2509:2527  feeRate = _feeRate */\n      dup2\n      swap1\n      sstore\n      pop\n        /* \"contracts/PrizePool.sol\":2542:2578  FeeRateUpdated(oldFeeRate, _feeRate) */\n      0x14914da2bf76024616fbe1859783fcd4dbddcb179b1f3a854949fbf920dcb957\n        /* \"contracts/PrizePool.sol\":2557:2567  oldFeeRate */\n      dup2\n        /* \"contracts/PrizePool.sol\":2569:2577  _feeRate */\n      dup4\n        /* \"contracts/PrizePool.sol\":2542:2578  FeeRateUpdated(oldFeeRate, _feeRate) */\n      mload(0x40)\n      tag_213\n      swap3\n      swap2\n      swap1\n      tag_214\n      jump\t// in\n    tag_213:\n      mload(0x40)\n      dup1\n      swap2\n      sub\n      swap1\n      log1\n        /* \"contracts/PrizePool.sol\":2397:2585  {... */\n      pop\n        /* \"contracts/PrizePool.sol\":2349:2585  function _setFeeRate(uint256 _feeRate) internal {... */\n      pop\n      jump\t// out\n        /* \"@openzeppelin/contracts/access/Ownable.sol\":2270:2457  function _transferOwnership(address newOwner) internal virtual {... */\n    tag_123:\n        /* \"@openzeppelin/contracts/access/Ownable.sol\":2343:2359  address oldOwner */\n      0x00\n        /* \"@openzeppelin/contracts/access/Ownable.sol\":2362:2368  _owner */\n      0x00\n      0x00\n      swap1\n      sload\n      swap1\n      0x0100\n      exp\n      swap1\n      div\n      0xffffffffffffffffffffffffffffffffffffffff\n      and\n        /* \"@openzeppelin/contracts/access/Ownable.sol\":2343:2368  address oldOwner = _owner */\n      swap1\n      pop\n        /* \"@openzeppelin/contracts/access/Ownable.sol\":2387:2395  newOwner */\n      dup2\n        /* \"@openzeppelin/contracts/access/Ownable.sol\":2378:2384  _owner */\n      0x00\n      0x00\n        /* \"@openzeppelin/contracts/access/Ownable.sol\":2378:2395  _owner = newOwner */\n      0x0100\n      exp\n      dup2\n      sload\n      dup2\n      0xffffffffffffffffffffffffffffffffffffffff\n      mul\n      not\n      and\n      swap1\n      dup4\n      0xffffffffffffffffffffffffffffffffffffffff\n      and\n      mul\n      or\n      swap1\n      sstore\n      pop\n        /* \"@openzeppelin/contracts/access/Ownable.sol\":2441:2449  newOwner */\n      dup2\n        /* \"@openzeppelin/contracts/access/Ownable.sol\":2410:2450  OwnershipTransferred(oldOwner, newOwner) */\n      0xffffffffffffffffffffffffffffffffffffffff\n      and\n        /* \"@openzeppelin/contracts/access/Ownable.sol\":2431:2439  oldOwner */\n      dup2\n        /* \"@openzeppelin/contracts/access/Ownable.sol\":2410:2450  OwnershipTransferred(oldOwner, newOwner) */\n      0xffffffffffffffffffffffffffffffffffffffff\n      and\n      0x8be0079c531659141344cd1fd0a4f28419497f9722a3daafe3b4186f6b6457e0\n      mload(0x40)\n      mload(0x40)\n      dup1\n      swap2\n      sub\n      swap1\n      log3\n        /* \"@openzeppelin/contracts/access/Ownable.sol\":2333:2457  {... */\n      pop\n        /* \"@openzeppelin/contracts/access/Ownable.sol\":2270:2457  function _transferOwnership(address newOwner) internal virtual {... */\n      pop\n      jump\t// out\n        /* \"@openzeppelin/contracts/token/ERC20/utils/SafeERC20.sol\":1413:2016  function safeApprove(... */\n    tag_178:\n        /* \"@openzeppelin/contracts/token/ERC20/utils/SafeERC20.sol\":1777:1778  0 */\n      0x00\n        /* \"@openzeppelin/contracts/token/ERC20/utils/SafeERC20.sol\":1768:1773  value */\n      dup2\n        /* \"@openzeppelin/contracts/token/ERC20/utils/SafeERC20.sol\":1768:1778  value == 0 */\n      eq\n        /* \"@openzeppelin/contracts/token/ERC20/utils/SafeERC20.sol\":1767:1829  (value == 0) || (token.allowance(address(this), spender) == 0) */\n      dup1\n      tag_217\n      jumpi\n      pop\n        /* \"@openzeppelin/contracts/token/ERC20/utils/SafeERC20.sol\":1827:1828  0 */\n      0x00\n        /* \"@openzeppelin/contracts/token/ERC20/utils/SafeERC20.sol\":1784:1789  token */\n      dup4\n        /* \"@openzeppelin/contracts/token/ERC20/utils/SafeERC20.sol\":1784:1799  token.allowance */\n      0xffffffffffffffffffffffffffffffffffffffff\n      and\n      0xdd62ed3e\n        /* \"@openzeppelin/contracts/token/ERC20/utils/SafeERC20.sol\":1808:1812  this */\n      address\n        /* \"@openzeppelin/contracts/token/ERC20/utils/SafeERC20.sol\":1815:1822  spender */\n      dup6\n        /* \"@openzeppelin/contracts/token/ERC20/utils/SafeERC20.sol\":1784:1823  token.allowance(address(this), spender) */\n      mload(0x40)\n      dup4\n      0xffffffff\n      and\n      0xe0\n      shl\n      dup2\n      mstore\n      0x04\n      add\n      tag_218\n      swap3\n      swap2\n      swap1\n      tag_219\n      jump\t// in\n    tag_218:\n      0x20\n      mload(0x40)\n      dup1\n      dup4\n      sub\n      dup2\n      dup7\n      gas\n      staticcall\n      iszero\n      dup1\n      iszero\n      tag_221\n      jumpi\n      returndatacopy(0x00, 0x00, returndatasize)\n      revert(0x00, returndatasize)\n    tag_221:\n      pop\n      pop\n      pop\n      pop\n      mload(0x40)\n      returndatasize\n      not(0x1f)\n      0x1f\n      dup3\n      add\n      and\n      dup3\n      add\n      dup1\n      0x40\n      mstore\n      pop\n      dup2\n      add\n      swap1\n      tag_222\n      swap2\n      swap1\n      tag_207\n      jump\t// in\n    tag_222:\n        /* \"@openzeppelin/contracts/token/ERC20/utils/SafeERC20.sol\":1784:1828  token.allowance(address(this), spender) == 0 */\n      eq\n        /* \"@openzeppelin/contracts/token/ERC20/utils/SafeERC20.sol\":1767:1829  (value == 0) || (token.allowance(address(this), spender) == 0) */\n    tag_217:\n        /* \"@openzeppelin/contracts/token/ERC20/utils/SafeERC20.sol\":1746:1909  require(... */\n      tag_223\n      jumpi\n      mload(0x40)\n      0x08c379a000000000000000000000000000000000000000000000000000000000\n      dup2\n      mstore\n      0x04\n      add\n      tag_224\n      swap1\n      tag_225\n      jump\t// in\n    tag_224:\n      mload(0x40)\n      dup1\n      swap2\n      sub\n      swap1\n      revert\n    tag_223:\n        /* \"@openzeppelin/contracts/token/ERC20/utils/SafeERC20.sol\":1919:2009  _callOptionalReturn(token, abi.encodeWithSelector(token.approve.selector, spender, value)) */\n      tag_226\n        /* \"@openzeppelin/contracts/token/ERC20/utils/SafeERC20.sol\":1939:1944  token */\n      dup4\n        /* \"@openzeppelin/contracts/token/ERC20/utils/SafeERC20.sol\":1969:1991  token.approve.selector */\n      shl(0xe0, 0x095ea7b3)\n        /* \"@openzeppelin/contracts/token/ERC20/utils/SafeERC20.sol\":1993:2000  spender */\n      dup5\n        /* \"@openzeppelin/contracts/token/ERC20/utils/SafeERC20.sol\":2002:2007  value */\n      dup5\n        /* \"@openzeppelin/contracts/token/ERC20/utils/SafeERC20.sol\":1946:2008  abi.encodeWithSelector(token.approve.selector, spender, value) */\n      add(0x24, mload(0x40))\n      tag_227\n      swap3\n      swap2\n      swap1\n      tag_228\n      jump\t// in\n    tag_227:\n      mload(0x40)\n      0x20\n      dup2\n      dup4\n      sub\n      sub\n      dup2\n      mstore\n      swap1\n      0x40\n      mstore\n      swap1\n      not(0xffffffffffffffffffffffffffffffffffffffffffffffffffffffff)\n      and\n      0x20\n      dup3\n      add\n      dup1\n      mload\n      0xffffffffffffffffffffffffffffffffffffffffffffffffffffffff\n      dup4\n      dup2\n      dup4\n      and\n      or\n      dup4\n      mstore\n      pop\n      pop\n      pop\n      pop\n        /* \"@openzeppelin/contracts/token/ERC20/utils/SafeERC20.sol\":1919:1938  _callOptionalReturn */\n      tag_229\n        /* \"@openzeppelin/contracts/token/ERC20/utils/SafeERC20.sol\":1919:2009  _callOptionalReturn(token, abi.encodeWithSelector(token.approve.selector, spender, value)) */\n      jump\t// in\n    tag_226:\n        /* \"@openzeppelin/contracts/token/ERC20/utils/SafeERC20.sol\":1413:2016  function safeApprove(... */\n      pop\n      pop\n      pop\n      jump\t// out\n        /* \"@openzeppelin/contracts/token/ERC20/utils/SafeERC20.sol\":701:906  function safeTransfer(... */\n    tag_190:\n        /* \"@openzeppelin/contracts/token/ERC20/utils/SafeERC20.sol\":813:899  _callOptionalReturn(token, abi.encodeWithSelector(token.transfer.selector, to, value)) */\n      tag_231\n        /* \"@openzeppelin/contracts/token/ERC20/utils/SafeERC20.sol\":833:838  token */\n      dup4\n        /* \"@openzeppelin/contracts/token/ERC20/utils/SafeERC20.sol\":863:886  token.transfer.selector */\n      shl(0xe0, 0xa9059cbb)\n        /* \"@openzeppelin/contracts/token/ERC20/utils/SafeERC20.sol\":888:890  to */\n      dup5\n        /* \"@openzeppelin/contracts/token/ERC20/utils/SafeERC20.sol\":892:897  value */\n      dup5\n        /* \"@openzeppelin/contracts/token/ERC20/utils/SafeERC20.sol\":840:898  abi.encodeWithSelector(token.transfer.selector, to, value) */\n      add(0x24, mload(0x40))\n      tag_232\n      swap3\n      swap2\n      swap1\n      tag_228\n      jump\t// in\n    tag_232:\n      mload(0x40)\n      0x20\n      dup2\n      dup4\n      sub\n      sub\n      dup2\n      mstore\n      swap1\n      0x40\n      mstore\n      swap1\n      not(0xffffffffffffffffffffffffffffffffffffffffffffffffffffffff)\n      and\n      0x20\n      dup3\n      add\n      dup1\n      mload\n      0xffffffffffffffffffffffffffffffffffffffffffffffffffffffff\n      dup4\n      dup2\n      dup4\n      and\n      or\n      dup4\n      mstore\n      pop\n      pop\n      pop\n      pop\n        /* \"@openzeppelin/contracts/token/ERC20/utils/SafeERC20.sol\":813:832  _callOptionalReturn */\n      tag_229\n        /* \"@openzeppelin/contracts/token/ERC20/utils/SafeERC20.sol\":813:899  _callOptionalReturn(token, abi.encodeWithSelector(token.transfer.selector, to, value)) */\n      jump\t// in\n    tag_231:\n        /* \"@openzeppelin/contracts/token/ERC20/utils/SafeERC20.sol\":701:906  function safeTransfer(... */\n      pop\n      pop\n      pop\n      jump\t// out\n        /* \"@openzeppelin/contracts/token/ERC20/utils/SafeERC20.sol\":3207:3913  function _callOptionalReturn(IERC20 token, bytes memory data) private {... */\n    tag_229:\n        /* \"@openzeppelin/contracts/token/ERC20/utils/SafeERC20.sol\":3626:3649  bytes memory returndata */\n      0x00\n        /* \"@openzeppelin/contracts/token/ERC20/utils/SafeERC20.sol\":3652:3721  address(token).functionCall(data, \"SafeERC20: low-level call failed\") */\n      tag_234\n        /* \"@openzeppelin/contracts/token/ERC20/utils/SafeERC20.sol\":3680:3684  data */\n      dup3\n        /* \"@openzeppelin/contracts/token/ERC20/utils/SafeERC20.sol\":3652:3721  address(token).functionCall(data, \"SafeERC20: low-level call failed\") */\n      mload(0x40)\n      dup1\n      0x40\n      add\n      0x40\n      mstore\n      dup1\n      0x20\n      dup2\n      mstore\n      0x20\n      add\n      0x5361666545524332303a206c6f772d6c6576656c2063616c6c206661696c6564\n      dup2\n      mstore\n      pop\n        /* \"@openzeppelin/contracts/token/ERC20/utils/SafeERC20.sol\":3660:3665  token */\n      dup6\n        /* \"@openzeppelin/contracts/token/ERC20/utils/SafeERC20.sol\":3652:3679  address(token).functionCall */\n      0xffffffffffffffffffffffffffffffffffffffff\n      and\n      tag_235\n      swap1\n        /* \"@openzeppelin/contracts/token/ERC20/utils/SafeERC20.sol\":3652:3721  address(token).functionCall(data, \"SafeERC20: low-level call failed\") */\n      swap3\n      swap2\n      swap1\n      0xffffffff\n      and\n      jump\t// in\n    tag_234:\n        /* \"@openzeppelin/contracts/token/ERC20/utils/SafeERC20.sol\":3626:3721  bytes memory returndata = address(token).functionCall(data, \"SafeERC20: low-level call failed\") */\n      swap1\n      pop\n        /* \"@openzeppelin/contracts/token/ERC20/utils/SafeERC20.sol\":3755:3756  0 */\n      0x00\n        /* \"@openzeppelin/contracts/token/ERC20/utils/SafeERC20.sol\":3735:3745  returndata */\n      dup2\n        /* \"@openzeppelin/contracts/token/ERC20/utils/SafeERC20.sol\":3735:3752  returndata.length */\n      mload\n        /* \"@openzeppelin/contracts/token/ERC20/utils/SafeERC20.sol\":3735:3756  returndata.length > 0 */\n      gt\n        /* \"@openzeppelin/contracts/token/ERC20/utils/SafeERC20.sol\":3731:3907  if (returndata.length > 0) {... */\n      iszero\n      tag_236\n      jumpi\n        /* \"@openzeppelin/contracts/token/ERC20/utils/SafeERC20.sol\":3830:3840  returndata */\n      dup1\n        /* \"@openzeppelin/contracts/token/ERC20/utils/SafeERC20.sol\":3819:3849  abi.decode(returndata, (bool)) */\n      dup1\n      0x20\n      add\n      swap1\n      mload\n      dup2\n      add\n      swap1\n      tag_237\n      swap2\n      swap1\n      tag_172\n      jump\t// in\n    tag_237:\n        /* \"@openzeppelin/contracts/token/ERC20/utils/SafeERC20.sol\":3811:3896  require(abi.decode(returndata, (bool)), \"SafeERC20: ERC20 operation did not succeed\") */\n      tag_238\n      jumpi\n      mload(0x40)\n      0x08c379a000000000000000000000000000000000000000000000000000000000\n      dup2\n      mstore\n      0x04\n      add\n      tag_239\n      swap1\n      tag_240\n      jump\t// in\n    tag_239:\n      mload(0x40)\n      dup1\n      swap2\n      sub\n      swap1\n      revert\n    tag_238:\n        /* \"@openzeppelin/contracts/token/ERC20/utils/SafeERC20.sol\":3731:3907  if (returndata.length > 0) {... */\n    tag_236:\n        /* \"@openzeppelin/contracts/token/ERC20/utils/SafeERC20.sol\":3277:3913  {... */\n      pop\n        /* \"@openzeppelin/contracts/token/ERC20/utils/SafeERC20.sol\":3207:3913  function _callOptionalReturn(IERC20 token, bytes memory data) private {... */\n      pop\n      pop\n      jump\t// out\n        /* \"@openzeppelin/contracts/utils/Address.sol\":3861:4084  function functionCall(... */\n    tag_235:\n        /* \"@openzeppelin/contracts/utils/Address.sol\":3994:4006  bytes memory */\n      0x60\n        /* \"@openzeppelin/contracts/utils/Address.sol\":4025:4077  functionCallWithValue(target, data, 0, errorMessage) */\n      tag_242\n        /* \"@openzeppelin/contracts/utils/Address.sol\":4047:4053  target */\n      dup5\n        /* \"@openzeppelin/contracts/utils/Address.sol\":4055:4059  data */\n      dup5\n        /* \"@openzeppelin/contracts/utils/Address.sol\":4061:4062  0 */\n      0x00\n        /* \"@openzeppelin/contracts/utils/Address.sol\":4064:4076  errorMessage */\n      dup6\n        /* \"@openzeppelin/contracts/utils/Address.sol\":4025:4046  functionCallWithValue */\n      tag_243\n        /* \"@openzeppelin/contracts/utils/Address.sol\":4025:4077  functionCallWithValue(target, data, 0, errorMessage) */\n      jump\t// in\n    tag_242:\n        /* \"@openzeppelin/contracts/utils/Address.sol\":4018:4077  return functionCallWithValue(target, data, 0, errorMessage) */\n      swap1\n      pop\n        /* \"@openzeppelin/contracts/utils/Address.sol\":3861:4084  function functionCall(... */\n      swap4\n      swap3\n      pop\n      pop\n      pop\n      jump\t// out\n        /* \"@openzeppelin/contracts/utils/Address.sol\":4948:5447  function functionCallWithValue(... */\n    tag_243:\n        /* \"@openzeppelin/contracts/utils/Address.sol\":5113:5125  bytes memory */\n      0x60\n        /* \"@openzeppelin/contracts/utils/Address.sol\":5170:5175  value */\n      dup3\n        /* \"@openzeppelin/contracts/utils/Address.sol\":5145:5166  address(this).balance */\n      selfbalance\n        /* \"@openzeppelin/contracts/utils/Address.sol\":5145:5175  address(this).balance >= value */\n      lt\n      iszero\n        /* \"@openzeppelin/contracts/utils/Address.sol\":5137:5218  require(address(this).balance >= value, \"Address: insufficient balance for call\") */\n      tag_245\n      jumpi\n      mload(0x40)\n      0x08c379a000000000000000000000000000000000000000000000000000000000\n      dup2\n      mstore\n      0x04\n      add\n      tag_246\n      swap1\n      tag_247\n      jump\t// in\n    tag_246:\n      mload(0x40)\n      dup1\n      swap2\n      sub\n      swap1\n      revert\n    tag_245:\n        /* \"@openzeppelin/contracts/utils/Address.sol\":5236:5254  isContract(target) */\n      tag_248\n        /* \"@openzeppelin/contracts/utils/Address.sol\":5247:5253  target */\n      dup6\n        /* \"@openzeppelin/contracts/utils/Address.sol\":5236:5246  isContract */\n      tag_249\n        /* \"@openzeppelin/contracts/utils/Address.sol\":5236:5254  isContract(target) */\n      jump\t// in\n    tag_248:\n        /* \"@openzeppelin/contracts/utils/Address.sol\":5228:5288  require(isContract(target), \"Address: call to non-contract\") */\n      tag_250\n      jumpi\n      mload(0x40)\n      0x08c379a000000000000000000000000000000000000000000000000000000000\n      dup2\n      mstore\n      0x04\n      add\n      tag_251\n      swap1\n      tag_252\n      jump\t// in\n    tag_251:\n      mload(0x40)\n      dup1\n      swap2\n      sub\n      swap1\n      revert\n    tag_250:\n        /* \"@openzeppelin/contracts/utils/Address.sol\":5300:5312  bool success */\n      0x00\n        /* \"@openzeppelin/contracts/utils/Address.sol\":5314:5337  bytes memory returndata */\n      0x00\n        /* \"@openzeppelin/contracts/utils/Address.sol\":5341:5347  target */\n      dup7\n        /* \"@openzeppelin/contracts/utils/Address.sol\":5341:5352  target.call */\n      0xffffffffffffffffffffffffffffffffffffffff\n      and\n        /* \"@openzeppelin/contracts/utils/Address.sol\":5360:5365  value */\n      dup6\n        /* \"@openzeppelin/contracts/utils/Address.sol\":5367:5371  data */\n      dup8\n        /* \"@openzeppelin/contracts/utils/Address.sol\":5341:5372  target.call{value: value}(data) */\n      mload(0x40)\n      tag_253\n      swap2\n      swap1\n      tag_181\n      jump\t// in\n    tag_253:\n      0x00\n      mload(0x40)\n      dup1\n      dup4\n      sub\n      dup2\n      dup6\n      dup8\n      gas\n      call\n      swap3\n      pop\n      pop\n      pop\n      returndatasize\n      dup1\n      0x00\n      dup2\n      eq\n      tag_256\n      jumpi\n      mload(0x40)\n      swap2\n      pop\n      and(add(returndatasize, 0x3f), not(0x1f))\n      dup3\n      add\n      0x40\n      mstore\n      returndatasize\n      dup3\n      mstore\n      returndatasize\n      0x00\n      0x20\n      dup5\n      add\n      returndatacopy\n      jump(tag_255)\n    tag_256:\n      0x60\n      swap2\n      pop\n    tag_255:\n      pop\n        /* \"@openzeppelin/contracts/utils/Address.sol\":5299:5372  (bool success, bytes memory returndata) = target.call{value: value}(data) */\n      swap2\n      pop\n      swap2\n      pop\n        /* \"@openzeppelin/contracts/utils/Address.sol\":5389:5440  verifyCallResult(success, returndata, errorMessage) */\n      tag_257\n        /* \"@openzeppelin/contracts/utils/Address.sol\":5406:5413  success */\n      dup3\n        /* \"@openzeppelin/contracts/utils/Address.sol\":5415:5425  returndata */\n      dup3\n        /* \"@openzeppelin/contracts/utils/Address.sol\":5427:5439  errorMessage */\n      dup7\n        /* \"@openzeppelin/contracts/utils/Address.sol\":5389:5405  verifyCallResult */\n      tag_258\n        /* \"@openzeppelin/contracts/utils/Address.sol\":5389:5440  verifyCallResult(success, returndata, errorMessage) */\n      jump\t// in\n    tag_257:\n        /* \"@openzeppelin/contracts/utils/Address.sol\":5382:5440  return verifyCallResult(success, returndata, errorMessage) */\n      swap3\n      pop\n      pop\n      pop\n        /* \"@openzeppelin/contracts/utils/Address.sol\":4948:5447  function functionCallWithValue(... */\n      swap5\n      swap4\n      pop\n      pop\n      pop\n      pop\n      jump\t// out\n        /* \"@openzeppelin/contracts/utils/Address.sol\":1175:1495  function isContract(address account) internal view returns (bool) {... */\n    tag_249:\n        /* \"@openzeppelin/contracts/utils/Address.sol\":1235:1239  bool */\n      0x00\n        /* \"@openzeppelin/contracts/utils/Address.sol\":1487:1488  0 */\n      0x00\n        /* \"@openzeppelin/contracts/utils/Address.sol\":1465:1472  account */\n      dup3\n        /* \"@openzeppelin/contracts/utils/Address.sol\":1465:1484  account.code.length */\n      0xffffffffffffffffffffffffffffffffffffffff\n      and\n      extcodesize\n        /* \"@openzeppelin/contracts/utils/Address.sol\":1465:1488  account.code.length > 0 */\n      gt\n        /* \"@openzeppelin/contracts/utils/Address.sol\":1458:1488  return account.code.length > 0 */\n      swap1\n      pop\n        /* \"@openzeppelin/contracts/utils/Address.sol\":1175:1495  function isContract(address account) internal view returns (bool) {... */\n      swap2\n      swap1\n      pop\n      jump\t// out\n        /* \"@openzeppelin/contracts/utils/Address.sol\":7561:8253  function verifyCallResult(... */\n    tag_258:\n        /* \"@openzeppelin/contracts/utils/Address.sol\":7707:7719  bytes memory */\n      0x60\n        /* \"@openzeppelin/contracts/utils/Address.sol\":7735:7742  success */\n      dup4\n        /* \"@openzeppelin/contracts/utils/Address.sol\":7731:8247  if (success) {... */\n      iszero\n      tag_261\n      jumpi\n        /* \"@openzeppelin/contracts/utils/Address.sol\":7765:7775  returndata */\n      dup3\n        /* \"@openzeppelin/contracts/utils/Address.sol\":7758:7775  return returndata */\n      swap1\n      pop\n      jump(tag_260)\n        /* \"@openzeppelin/contracts/utils/Address.sol\":7731:8247  if (success) {... */\n    tag_261:\n        /* \"@openzeppelin/contracts/utils/Address.sol\":7896:7897  0 */\n      0x00\n        /* \"@openzeppelin/contracts/utils/Address.sol\":7876:7886  returndata */\n      dup4\n        /* \"@openzeppelin/contracts/utils/Address.sol\":7876:7893  returndata.length */\n      mload\n        /* \"@openzeppelin/contracts/utils/Address.sol\":7876:7897  returndata.length > 0 */\n      gt\n        /* \"@openzeppelin/contracts/utils/Address.sol\":7872:8237  if (returndata.length > 0) {... */\n      iszero\n      tag_263\n      jumpi\n        /* \"@openzeppelin/contracts/utils/Address.sol\":8070:8080  returndata */\n      dup3\n        /* \"@openzeppelin/contracts/utils/Address.sol\":8064:8081  mload(returndata) */\n      mload\n        /* \"@openzeppelin/contracts/utils/Address.sol\":8130:8145  returndata_size */\n      dup1\n        /* \"@openzeppelin/contracts/utils/Address.sol\":8117:8127  returndata */\n      dup5\n        /* \"@openzeppelin/contracts/utils/Address.sol\":8113:8115  32 */\n      0x20\n        /* \"@openzeppelin/contracts/utils/Address.sol\":8109:8128  add(32, returndata) */\n      add\n        /* \"@openzeppelin/contracts/utils/Address.sol\":8102:8146  revert(add(32, returndata), returndata_size) */\n      revert\n        /* \"@openzeppelin/contracts/utils/Address.sol\":7872:8237  if (returndata.length > 0) {... */\n    tag_263:\n        /* \"@openzeppelin/contracts/utils/Address.sol\":8209:8221  errorMessage */\n      dup2\n        /* \"@openzeppelin/contracts/utils/Address.sol\":8202:8222  revert(errorMessage) */\n      mload(0x40)\n      0x08c379a000000000000000000000000000000000000000000000000000000000\n      dup2\n      mstore\n      0x04\n      add\n      tag_265\n      swap2\n      swap1\n      tag_266\n      jump\t// in\n    tag_265:\n      mload(0x40)\n      dup1\n      swap2\n      sub\n      swap1\n      revert\n        /* \"@openzeppelin/contracts/utils/Address.sol\":7561:8253  function verifyCallResult(... */\n    tag_260:\n      swap4\n      swap3\n      pop\n      pop\n      pop\n      jump\t// out\n        /* \"#utility.yul\":7:133   */\n    tag_267:\n        /* \"#utility.yul\":44:51   */\n      0x00\n        /* \"#utility.yul\":84:126   */\n      0xffffffffffffffffffffffffffffffffffffffff\n        /* \"#utility.yul\":77:82   */\n      dup3\n        /* \"#utility.yul\":73:127   */\n      and\n        /* \"#utility.yul\":62:127   */\n      swap1\n      pop\n        /* \"#utility.yul\":7:133   */\n      swap2\n      swap1\n      pop\n      jump\t// out\n        /* \"#utility.yul\":139:199   */\n    tag_268:\n        /* \"#utility.yul\":167:170   */\n      0x00\n        /* \"#utility.yul\":188:193   */\n      dup2\n        /* \"#utility.yul\":181:193   */\n      swap1\n      pop\n        /* \"#utility.yul\":139:199   */\n      swap2\n      swap1\n      pop\n      jump\t// out\n        /* \"#utility.yul\":205:347   */\n    tag_269:\n        /* \"#utility.yul\":255:264   */\n      0x00\n        /* \"#utility.yul\":288:341   */\n      tag_347\n        /* \"#utility.yul\":306:340   */\n      tag_348\n        /* \"#utility.yul\":315:339   */\n      tag_349\n        /* \"#utility.yul\":333:338   */\n      dup5\n        /* \"#utility.yul\":315:339   */\n      tag_267\n      jump\t// in\n    tag_349:\n        /* \"#utility.yul\":306:340   */\n      tag_268\n      jump\t// in\n    tag_348:\n        /* \"#utility.yul\":288:341   */\n      tag_267\n      jump\t// in\n    tag_347:\n        /* \"#utility.yul\":275:341   */\n      swap1\n      pop\n        /* \"#utility.yul\":205:347   */\n      swap2\n      swap1\n      pop\n      jump\t// out\n        /* \"#utility.yul\":353:479   */\n    tag_270:\n        /* \"#utility.yul\":403:412   */\n      0x00\n        /* \"#utility.yul\":436:473   */\n      tag_351\n        /* \"#utility.yul\":467:472   */\n      dup3\n        /* \"#utility.yul\":436:473   */\n      tag_269\n      jump\t// in\n    tag_351:\n        /* \"#utility.yul\":423:473   */\n      swap1\n      pop\n        /* \"#utility.yul\":353:479   */\n      swap2\n      swap1\n      pop\n      jump\t// out\n        /* \"#utility.yul\":485:636   */\n    tag_271:\n        /* \"#utility.yul\":560:569   */\n      0x00\n        /* \"#utility.yul\":593:630   */\n      tag_353\n        /* \"#utility.yul\":624:629   */\n      dup3\n        /* \"#utility.yul\":593:630   */\n      tag_270\n      jump\t// in\n    tag_353:\n        /* \"#utility.yul\":580:630   */\n      swap1\n      pop\n        /* \"#utility.yul\":485:636   */\n      swap2\n      swap1\n      pop\n      jump\t// out\n        /* \"#utility.yul\":642:823   */\n    tag_272:\n        /* \"#utility.yul\":754:816   */\n      tag_355\n        /* \"#utility.yul\":810:815   */\n      dup2\n        /* \"#utility.yul\":754:816   */\n      tag_271\n      jump\t// in\n    tag_355:\n        /* \"#utility.yul\":749:752   */\n      dup3\n        /* \"#utility.yul\":742:817   */\n      mstore\n        /* \"#utility.yul\":642:823   */\n      pop\n      pop\n      jump\t// out\n        /* \"#utility.yul\":829:1101   */\n    tag_25:\n        /* \"#utility.yul\":947:951   */\n      0x00\n        /* \"#utility.yul\":985:987   */\n      0x20\n        /* \"#utility.yul\":974:983   */\n      dup3\n        /* \"#utility.yul\":970:988   */\n      add\n        /* \"#utility.yul\":962:988   */\n      swap1\n      pop\n        /* \"#utility.yul\":998:1094   */\n      tag_357\n        /* \"#utility.yul\":1091:1092   */\n      0x00\n        /* \"#utility.yul\":1080:1089   */\n      dup4\n        /* \"#utility.yul\":1076:1093   */\n      add\n        /* \"#utility.yul\":1067:1073   */\n      dup5\n        /* \"#utility.yul\":998:1094   */\n      tag_272\n      jump\t// in\n    tag_357:\n        /* \"#utility.yul\":829:1101   */\n      swap3\n      swap2\n      pop\n      pop\n      jump\t// out\n        /* \"#utility.yul\":1107:1203   */\n    tag_273:\n        /* \"#utility.yul\":1144:1151   */\n      0x00\n        /* \"#utility.yul\":1173:1197   */\n      tag_359\n        /* \"#utility.yul\":1191:1196   */\n      dup3\n        /* \"#utility.yul\":1173:1197   */\n      tag_267\n      jump\t// in\n    tag_359:\n        /* \"#utility.yul\":1162:1197   */\n      swap1\n      pop\n        /* \"#utility.yul\":1107:1203   */\n      swap2\n      swap1\n      pop\n      jump\t// out\n        /* \"#utility.yul\":1209:1327   */\n    tag_274:\n        /* \"#utility.yul\":1296:1320   */\n      tag_361\n        /* \"#utility.yul\":1314:1319   */\n      dup2\n        /* \"#utility.yul\":1296:1320   */\n      tag_273\n      jump\t// in\n    tag_361:\n        /* \"#utility.yul\":1291:1294   */\n      dup3\n        /* \"#utility.yul\":1284:1321   */\n      mstore\n        /* \"#utility.yul\":1209:1327   */\n      pop\n      pop\n      jump\t// out\n        /* \"#utility.yul\":1333:1555   */\n    tag_30:\n        /* \"#utility.yul\":1426:1430   */\n      0x00\n        /* \"#utility.yul\":1464:1466   */\n      0x20\n        /* \"#utility.yul\":1453:1462   */\n      dup3\n        /* \"#utility.yul\":1449:1467   */\n      add\n        /* \"#utility.yul\":1441:1467   */\n      swap1\n      pop\n        /* \"#utility.yul\":1477:1548   */\n      tag_363\n        /* \"#utility.yul\":1545:1546   */\n      0x00\n        /* \"#utility.yul\":1534:1543   */\n      dup4\n        /* \"#utility.yul\":1530:1547   */\n      add\n        /* \"#utility.yul\":1521:1527   */\n      dup5\n        /* \"#utility.yul\":1477:1548   */\n      tag_274\n      jump\t// in\n    tag_363:\n        /* \"#utility.yul\":1333:1555   */\n      swap3\n      swap2\n      pop\n      pop\n      jump\t// out\n        /* \"#utility.yul\":1561:1636   */\n    tag_275:\n        /* \"#utility.yul\":1594:1600   */\n      0x00\n        /* \"#utility.yul\":1627:1629   */\n      0x40\n        /* \"#utility.yul\":1621:1630   */\n      mload\n        /* \"#utility.yul\":1611:1630   */\n      swap1\n      pop\n        /* \"#utility.yul\":1561:1636   */\n      swap1\n      jump\t// out\n        /* \"#utility.yul\":1642:1759   */\n    tag_276:\n        /* \"#utility.yul\":1751:1752   */\n      0x00\n        /* \"#utility.yul\":1748:1749   */\n      0x00\n        /* \"#utility.yul\":1741:1753   */\n      revert\n        /* \"#utility.yul\":1888:1965   */\n    tag_278:\n        /* \"#utility.yul\":1925:1932   */\n      0x00\n        /* \"#utility.yul\":1954:1959   */\n      dup2\n        /* \"#utility.yul\":1943:1959   */\n      swap1\n      pop\n        /* \"#utility.yul\":1888:1965   */\n      swap2\n      swap1\n      pop\n      jump\t// out\n        /* \"#utility.yul\":1971:2093   */\n    tag_279:\n        /* \"#utility.yul\":2044:2068   */\n      tag_369\n        /* \"#utility.yul\":2062:2067   */\n      dup2\n        /* \"#utility.yul\":2044:2068   */\n      tag_278\n      jump\t// in\n    tag_369:\n        /* \"#utility.yul\":2037:2042   */\n      dup2\n        /* \"#utility.yul\":2034:2069   */\n      eq\n        /* \"#utility.yul\":2024:2087   */\n      tag_370\n      jumpi\n        /* \"#utility.yul\":2083:2084   */\n      0x00\n        /* \"#utility.yul\":2080:2081   */\n      0x00\n        /* \"#utility.yul\":2073:2085   */\n      revert\n        /* \"#utility.yul\":2024:2087   */\n    tag_370:\n        /* \"#utility.yul\":1971:2093   */\n      pop\n      jump\t// out\n        /* \"#utility.yul\":2099:2238   */\n    tag_280:\n        /* \"#utility.yul\":2145:2150   */\n      0x00\n        /* \"#utility.yul\":2183:2189   */\n      dup2\n        /* \"#utility.yul\":2170:2190   */\n      calldataload\n        /* \"#utility.yul\":2161:2190   */\n      swap1\n      pop\n        /* \"#utility.yul\":2199:2232   */\n      tag_372\n        /* \"#utility.yul\":2226:2231   */\n      dup2\n        /* \"#utility.yul\":2199:2232   */\n      tag_279\n      jump\t// in\n    tag_372:\n        /* \"#utility.yul\":2099:2238   */\n      swap3\n      swap2\n      pop\n      pop\n      jump\t// out\n        /* \"#utility.yul\":2244:2573   */\n    tag_34:\n        /* \"#utility.yul\":2303:2309   */\n      0x00\n        /* \"#utility.yul\":2352:2354   */\n      0x20\n        /* \"#utility.yul\":2340:2349   */\n      dup3\n        /* \"#utility.yul\":2331:2338   */\n      dup5\n        /* \"#utility.yul\":2327:2350   */\n      sub\n        /* \"#utility.yul\":2323:2355   */\n      slt\n        /* \"#utility.yul\":2320:2439   */\n      iszero\n      tag_374\n      jumpi\n        /* \"#utility.yul\":2358:2437   */\n      tag_375\n      tag_276\n      jump\t// in\n    tag_375:\n        /* \"#utility.yul\":2320:2439   */\n    tag_374:\n        /* \"#utility.yul\":2478:2479   */\n      0x00\n        /* \"#utility.yul\":2503:2556   */\n      tag_376\n        /* \"#utility.yul\":2548:2555   */\n      dup5\n        /* \"#utility.yul\":2539:2545   */\n      dup3\n        /* \"#utility.yul\":2528:2537   */\n      dup6\n        /* \"#utility.yul\":2524:2546   */\n      add\n        /* \"#utility.yul\":2503:2556   */\n      tag_280\n      jump\t// in\n    tag_376:\n        /* \"#utility.yul\":2493:2556   */\n      swap2\n      pop\n        /* \"#utility.yul\":2449:2566   */\n      pop\n        /* \"#utility.yul\":2244:2573   */\n      swap3\n      swap2\n      pop\n      pop\n      jump\t// out\n        /* \"#utility.yul\":2579:2701   */\n    tag_281:\n        /* \"#utility.yul\":2652:2676   */\n      tag_378\n        /* \"#utility.yul\":2670:2675   */\n      dup2\n        /* \"#utility.yul\":2652:2676   */\n      tag_273\n      jump\t// in\n    tag_378:\n        /* \"#utility.yul\":2645:2650   */\n      dup2\n        /* \"#utility.yul\":2642:2677   */\n      eq\n        /* \"#utility.yul\":2632:2695   */\n      tag_379\n      jumpi\n        /* \"#utility.yul\":2691:2692   */\n      0x00\n        /* \"#utility.yul\":2688:2689   */\n      0x00\n        /* \"#utility.yul\":2681:2693   */\n      revert\n        /* \"#utility.yul\":2632:2695   */\n    tag_379:\n        /* \"#utility.yul\":2579:2701   */\n      pop\n      jump\t// out\n        /* \"#utility.yul\":2707:2846   */\n    tag_282:\n        /* \"#utility.yul\":2753:2758   */\n      0x00\n        /* \"#utility.yul\":2791:2797   */\n      dup2\n        /* \"#utility.yul\":2778:2798   */\n      calldataload\n        /* \"#utility.yul\":2769:2798   */\n      swap1\n      pop\n        /* \"#utility.yul\":2807:2840   */\n      tag_381\n        /* \"#utility.yul\":2834:2839   */\n      dup2\n        /* \"#utility.yul\":2807:2840   */\n      tag_281\n      jump\t// in\n    tag_381:\n        /* \"#utility.yul\":2707:2846   */\n      swap3\n      swap2\n      pop\n      pop\n      jump\t// out\n        /* \"#utility.yul\":2852:3181   */\n    tag_39:\n        /* \"#utility.yul\":2911:2917   */\n      0x00\n        /* \"#utility.yul\":2960:2962   */\n      0x20\n        /* \"#utility.yul\":2948:2957   */\n      dup3\n        /* \"#utility.yul\":2939:2946   */\n      dup5\n        /* \"#utility.yul\":2935:2958   */\n      sub\n        /* \"#utility.yul\":2931:2963   */\n      slt\n        /* \"#utility.yul\":2928:3047   */\n      iszero\n      tag_383\n      jumpi\n        /* \"#utility.yul\":2966:3045   */\n      tag_384\n      tag_276\n      jump\t// in\n    tag_384:\n        /* \"#utility.yul\":2928:3047   */\n    tag_383:\n        /* \"#utility.yul\":3086:3087   */\n      0x00\n        /* \"#utility.yul\":3111:3164   */\n      tag_385\n        /* \"#utility.yul\":3156:3163   */\n      dup5\n        /* \"#utility.yul\":3147:3153   */\n      dup3\n        /* \"#utility.yul\":3136:3145   */\n      dup6\n        /* \"#utility.yul\":3132:3154   */\n      add\n        /* \"#utility.yul\":3111:3164   */\n      tag_282\n      jump\t// in\n    tag_385:\n        /* \"#utility.yul\":3101:3164   */\n      swap2\n      pop\n        /* \"#utility.yul\":3057:3174   */\n      pop\n        /* \"#utility.yul\":2852:3181   */\n      swap3\n      swap2\n      pop\n      pop\n      jump\t// out\n        /* \"#utility.yul\":3187:3305   */\n    tag_283:\n        /* \"#utility.yul\":3274:3298   */\n      tag_387\n        /* \"#utility.yul\":3292:3297   */\n      dup2\n        /* \"#utility.yul\":3274:3298   */\n      tag_278\n      jump\t// in\n    tag_387:\n        /* \"#utility.yul\":3269:3272   */\n      dup3\n        /* \"#utility.yul\":3262:3299   */\n      mstore\n        /* \"#utility.yul\":3187:3305   */\n      pop\n      pop\n      jump\t// out\n        /* \"#utility.yul\":3311:3533   */\n    tag_56:\n        /* \"#utility.yul\":3404:3408   */\n      0x00\n        /* \"#utility.yul\":3442:3444   */\n      0x20\n        /* \"#utility.yul\":3431:3440   */\n      dup3\n        /* \"#utility.yul\":3427:3445   */\n      add\n        /* \"#utility.yul\":3419:3445   */\n      swap1\n      pop\n        /* \"#utility.yul\":3455:3526   */\n      tag_389\n        /* \"#utility.yul\":3523:3524   */\n      0x00\n        /* \"#utility.yul\":3512:3521   */\n      dup4\n        /* \"#utility.yul\":3508:3525   */\n      add\n        /* \"#utility.yul\":3499:3505   */\n      dup5\n        /* \"#utility.yul\":3455:3526   */\n      tag_283\n      jump\t// in\n    tag_389:\n        /* \"#utility.yul\":3311:3533   */\n      swap3\n      swap2\n      pop\n      pop\n      jump\t// out\n        /* \"#utility.yul\":3539:3682   */\n    tag_284:\n        /* \"#utility.yul\":3606:3615   */\n      0x00\n        /* \"#utility.yul\":3639:3676   */\n      tag_391\n        /* \"#utility.yul\":3670:3675   */\n      dup3\n        /* \"#utility.yul\":3639:3676   */\n      tag_270\n      jump\t// in\n    tag_391:\n        /* \"#utility.yul\":3626:3676   */\n      swap1\n      pop\n        /* \"#utility.yul\":3539:3682   */\n      swap2\n      swap1\n      pop\n      jump\t// out\n        /* \"#utility.yul\":3688:3853   */\n    tag_285:\n        /* \"#utility.yul\":3792:3846   */\n      tag_393\n        /* \"#utility.yul\":3840:3845   */\n      dup2\n        /* \"#utility.yul\":3792:3846   */\n      tag_284\n      jump\t// in\n    tag_393:\n        /* \"#utility.yul\":3787:3790   */\n      dup3\n        /* \"#utility.yul\":3780:3847   */\n      mstore\n        /* \"#utility.yul\":3688:3853   */\n      pop\n      pop\n      jump\t// out\n        /* \"#utility.yul\":3859:4115   */\n    tag_71:\n        /* \"#utility.yul\":3969:3973   */\n      0x00\n        /* \"#utility.yul\":4007:4009   */\n      0x20\n        /* \"#utility.yul\":3996:4005   */\n      dup3\n        /* \"#utility.yul\":3992:4010   */\n      add\n        /* \"#utility.yul\":3984:4010   */\n      swap1\n      pop\n        /* \"#utility.yul\":4020:4108   */\n      tag_395\n        /* \"#utility.yul\":4105:4106   */\n      0x00\n        /* \"#utility.yul\":4094:4103   */\n      dup4\n        /* \"#utility.yul\":4090:4107   */\n      add\n        /* \"#utility.yul\":4081:4087   */\n      dup5\n        /* \"#utility.yul\":4020:4108   */\n      tag_285\n      jump\t// in\n    tag_395:\n        /* \"#utility.yul\":3859:4115   */\n      swap3\n      swap2\n      pop\n      pop\n      jump\t// out\n        /* \"#utility.yul\":4121:4290   */\n    tag_286:\n        /* \"#utility.yul\":4205:4216   */\n      0x00\n        /* \"#utility.yul\":4239:4245   */\n      dup3\n        /* \"#utility.yul\":4234:4237   */\n      dup3\n        /* \"#utility.yul\":4227:4246   */\n      mstore\n        /* \"#utility.yul\":4279:4283   */\n      0x20\n        /* \"#utility.yul\":4274:4277   */\n      dup3\n        /* \"#utility.yul\":4270:4284   */\n      add\n        /* \"#utility.yul\":4255:4284   */\n      swap1\n      pop\n        /* \"#utility.yul\":4121:4290   */\n      swap3\n      swap2\n      pop\n      pop\n      jump\t// out\n        /* \"#utility.yul\":4296:4478   */\n    tag_287:\n        /* \"#utility.yul\":4436:4470   */\n      0x4f776e61626c653a2063616c6c6572206973206e6f7420746865206f776e6572\n        /* \"#utility.yul\":4432:4433   */\n      0x00\n        /* \"#utility.yul\":4424:4430   */\n      dup3\n        /* \"#utility.yul\":4420:4434   */\n      add\n        /* \"#utility.yul\":4413:4471   */\n      mstore\n        /* \"#utility.yul\":4296:4478   */\n      pop\n      jump\t// out\n        /* \"#utility.yul\":4484:4850   */\n    tag_288:\n        /* \"#utility.yul\":4626:4629   */\n      0x00\n        /* \"#utility.yul\":4647:4714   */\n      tag_399\n        /* \"#utility.yul\":4711:4713   */\n      0x20\n        /* \"#utility.yul\":4706:4709   */\n      dup4\n        /* \"#utility.yul\":4647:4714   */\n      tag_286\n      jump\t// in\n    tag_399:\n        /* \"#utility.yul\":4640:4714   */\n      swap2\n      pop\n        /* \"#utility.yul\":4723:4816   */\n      tag_400\n        /* \"#utility.yul\":4812:4815   */\n      dup3\n        /* \"#utility.yul\":4723:4816   */\n      tag_287\n      jump\t// in\n    tag_400:\n        /* \"#utility.yul\":4841:4843   */\n      0x20\n        /* \"#utility.yul\":4836:4839   */\n      dup3\n        /* \"#utility.yul\":4832:4844   */\n      add\n        /* \"#utility.yul\":4825:4844   */\n      swap1\n      pop\n        /* \"#utility.yul\":4484:4850   */\n      swap2\n      swap1\n      pop\n      jump\t// out\n        /* \"#utility.yul\":4856:5275   */\n    tag_94:\n        /* \"#utility.yul\":5022:5026   */\n      0x00\n        /* \"#utility.yul\":5060:5062   */\n      0x20\n        /* \"#utility.yul\":5049:5058   */\n      dup3\n        /* \"#utility.yul\":5045:5063   */\n      add\n        /* \"#utility.yul\":5037:5063   */\n      swap1\n      pop\n        /* \"#utility.yul\":5109:5118   */\n      dup2\n        /* \"#utility.yul\":5103:5107   */\n      dup2\n        /* \"#utility.yul\":5099:5119   */\n      sub\n        /* \"#utility.yul\":5095:5096   */\n      0x00\n        /* \"#utility.yul\":5084:5093   */\n      dup4\n        /* \"#utility.yul\":5080:5097   */\n      add\n        /* \"#utility.yul\":5073:5120   */\n      mstore\n        /* \"#utility.yul\":5137:5268   */\n      tag_402\n        /* \"#utility.yul\":5263:5267   */\n      dup2\n        /* \"#utility.yul\":5137:5268   */\n      tag_288\n      jump\t// in\n    tag_402:\n        /* \"#utility.yul\":5129:5268   */\n      swap1\n      pop\n        /* \"#utility.yul\":4856:5275   */\n      swap2\n      swap1\n      pop\n      jump\t// out\n        /* \"#utility.yul\":5281:5451   */\n    tag_289:\n        /* \"#utility.yul\":5421:5443   */\n      0x496e76616c696420574554482061646472657373000000000000000000000000\n        /* \"#utility.yul\":5417:5418   */\n      0x00\n        /* \"#utility.yul\":5409:5415   */\n      dup3\n        /* \"#utility.yul\":5405:5419   */\n      add\n        /* \"#utility.yul\":5398:5444   */\n      mstore\n        /* \"#utility.yul\":5281:5451   */\n      pop\n      jump\t// out\n        /* \"#utility.yul\":5457:5823   */\n    tag_290:\n        /* \"#utility.yul\":5599:5602   */\n      0x00\n        /* \"#utility.yul\":5620:5687   */\n      tag_405\n        /* \"#utility.yul\":5684:5686   */\n      0x14\n        /* \"#utility.yul\":5679:5682   */\n      dup4\n        /* \"#utility.yul\":5620:5687   */\n      tag_286\n      jump\t// in\n    tag_405:\n        /* \"#utility.yul\":5613:5687   */\n      swap2\n      pop\n        /* \"#utility.yul\":5696:5789   */\n      tag_406\n        /* \"#utility.yul\":5785:5788   */\n      dup3\n        /* \"#utility.yul\":5696:5789   */\n      tag_289\n      jump\t// in\n    tag_406:\n        /* \"#utility.yul\":5814:5816   */\n      0x20\n        /* \"#utility.yul\":5809:5812   */\n      dup3\n        /* \"#utility.yul\":5805:5817   */\n      add\n        /* \"#utility.yul\":5798:5817   */\n      swap1\n      pop\n        /* \"#utility.yul\":5457:5823   */\n      swap2\n      swap1\n      pop\n      jump\t// out\n        /* \"#utility.yul\":5829:6248   */\n    tag_106:\n        /* \"#utility.yul\":5995:5999   */\n      0x00\n        /* \"#utility.yul\":6033:6035   */\n      0x20\n        /* \"#utility.yul\":6022:6031   */\n      dup3\n        /* \"#utility.yul\":6018:6036   */\n      add\n        /* \"#utility.yul\":6010:6036   */\n      swap1\n      pop\n        /* \"#utility.yul\":6082:6091   */\n      dup2\n        /* \"#utility.yul\":6076:6080   */\n      dup2\n        /* \"#utility.yul\":6072:6092   */\n      sub\n        /* \"#utility.yul\":6068:6069   */\n      0x00\n        /* \"#utility.yul\":6057:6066   */\n      dup4\n        /* \"#utility.yul\":6053:6070   */\n      add\n        /* \"#utility.yul\":6046:6093   */\n      mstore\n        /* \"#utility.yul\":6110:6241   */\n      tag_408\n        /* \"#utility.yul\":6236:6240   */\n      dup2\n        /* \"#utility.yul\":6110:6241   */\n      tag_290\n      jump\t// in\n    tag_408:\n        /* \"#utility.yul\":6102:6241   */\n      swap1\n      pop\n        /* \"#utility.yul\":5829:6248   */\n      swap2\n      swap1\n      pop\n      jump\t// out\n        /* \"#utility.yul\":6254:6425   */\n    tag_291:\n        /* \"#utility.yul\":6394:6417   */\n      0x496e76616c6964207661756c7420616464726573730000000000000000000000\n        /* \"#utility.yul\":6390:6391   */\n      0x00\n        /* \"#utility.yul\":6382:6388   */\n      dup3\n        /* \"#utility.yul\":6378:6392   */\n      add\n        /* \"#utility.yul\":6371:6418   */\n      mstore\n        /* \"#utility.yul\":6254:6425   */\n      pop\n      jump\t// out\n        /* \"#utility.yul\":6431:6797   */\n    tag_292:\n        /* \"#utility.yul\":6573:6576   */\n      0x00\n        /* \"#utility.yul\":6594:6661   */\n      tag_411\n        /* \"#utility.yul\":6658:6660   */\n      0x15\n        /* \"#utility.yul\":6653:6656   */\n      dup4\n        /* \"#utility.yul\":6594:6661   */\n      tag_286\n      jump\t// in\n    tag_411:\n        /* \"#utility.yul\":6587:6661   */\n      swap2\n      pop\n        /* \"#utility.yul\":6670:6763   */\n      tag_412\n        /* \"#utility.yul\":6759:6762   */\n      dup3\n        /* \"#utility.yul\":6670:6763   */\n      tag_291\n      jump\t// in\n    tag_412:\n        /* \"#utility.yul\":6788:6790   */\n      0x20\n        /* \"#utility.yul\":6783:6786   */\n      dup3\n        /* \"#utility.yul\":6779:6791   */\n      add\n        /* \"#utility.yul\":6772:6791   */\n      swap1\n      pop\n        /* \"#utility.yul\":6431:6797   */\n      swap2\n      swap1\n      pop\n      jump\t// out\n        /* \"#utility.yul\":6803:7222   */\n    tag_115:\n        /* \"#utility.yul\":6969:6973   */\n      0x00\n        /* \"#utility.yul\":7007:7009   */\n      0x20\n        /* \"#utility.yul\":6996:7005   */\n      dup3\n        /* \"#utility.yul\":6992:7010   */\n      add\n        /* \"#utility.yul\":6984:7010   */\n      swap1\n      pop\n        /* \"#utility.yul\":7056:7065   */\n      dup2\n        /* \"#utility.yul\":7050:7054   */\n      dup2\n        /* \"#utility.yul\":7046:7066   */\n      sub\n        /* \"#utility.yul\":7042:7043   */\n      0x00\n        /* \"#utility.yul\":7031:7040   */\n      dup4\n        /* \"#utility.yul\":7027:7044   */\n      add\n        /* \"#utility.yul\":7020:7067   */\n      mstore\n        /* \"#utility.yul\":7084:7215   */\n      tag_414\n        /* \"#utility.yul\":7210:7214   */\n      dup2\n        /* \"#utility.yul\":7084:7215   */\n      tag_292\n      jump\t// in\n    tag_414:\n        /* \"#utility.yul\":7076:7215   */\n      swap1\n      pop\n        /* \"#utility.yul\":6803:7222   */\n      swap2\n      swap1\n      pop\n      jump\t// out\n        /* \"#utility.yul\":7228:7409   */\n    tag_293:\n        /* \"#utility.yul\":7368:7401   */\n      0x496e76616c6964205969656c6441676772656761746f72206164647265737300\n        /* \"#utility.yul\":7364:7365   */\n      0x00\n        /* \"#utility.yul\":7356:7362   */\n      dup3\n        /* \"#utility.yul\":7352:7366   */\n      add\n        /* \"#utility.yul\":7345:7402   */\n      mstore\n        /* \"#utility.yul\":7228:7409   */\n      pop\n      jump\t// out\n        /* \"#utility.yul\":7415:7781   */\n    tag_294:\n        /* \"#utility.yul\":7557:7560   */\n      0x00\n        /* \"#utility.yul\":7578:7645   */\n      tag_417\n        /* \"#utility.yul\":7642:7644   */\n      0x1f\n        /* \"#utility.yul\":7637:7640   */\n      dup4\n        /* \"#utility.yul\":7578:7645   */\n      tag_286\n      jump\t// in\n    tag_417:\n        /* \"#utility.yul\":7571:7645   */\n      swap2\n      pop\n        /* \"#utility.yul\":7654:7747   */\n      tag_418\n        /* \"#utility.yul\":7743:7746   */\n      dup3\n        /* \"#utility.yul\":7654:7747   */\n      tag_293\n      jump\t// in\n    tag_418:\n        /* \"#utility.yul\":7772:7774   */\n      0x20\n        /* \"#utility.yul\":7767:7770   */\n      dup3\n        /* \"#utility.yul\":7763:7775   */\n      add\n        /* \"#utility.yul\":7756:7775   */\n      swap1\n      pop\n        /* \"#utility.yul\":7415:7781   */\n      swap2\n      swap1\n      pop\n      jump\t// out\n        /* \"#utility.yul\":7787:8206   */\n    tag_133:\n        /* \"#utility.yul\":7953:7957   */\n      0x00\n        /* \"#utility.yul\":7991:7993   */\n      0x20\n        /* \"#utility.yul\":7980:7989   */\n      dup3\n        /* \"#utility.yul\":7976:7994   */\n      add\n        /* \"#utility.yul\":7968:7994   */\n      swap1\n      pop\n        /* \"#utility.yul\":8040:8049   */\n      dup2\n        /* \"#utility.yul\":8034:8038   */\n      dup2\n        /* \"#utility.yul\":8030:8050   */\n      sub\n        /* \"#utility.yul\":8026:8027   */\n      0x00\n        /* \"#utility.yul\":8015:8024   */\n      dup4\n        /* \"#utility.yul\":8011:8028   */\n      add\n        /* \"#utility.yul\":8004:8051   */\n      mstore\n        /* \"#utility.yul\":8068:8199   */\n      tag_420\n        /* \"#utility.yul\":8194:8198   */\n      dup2\n        /* \"#utility.yul\":8068:8199   */\n      tag_294\n      jump\t// in\n    tag_420:\n        /* \"#utility.yul\":8060:8199   */\n      swap1\n      pop\n        /* \"#utility.yul\":7787:8206   */\n      swap2\n      swap1\n      pop\n      jump\t// out\n        /* \"#utility.yul\":8212:8530   */\n    tag_295:\n        /* \"#utility.yul\":8352:8386   */\n      0x53797374656d206e6f772075736573205745544820746f6b656e7320696e7374\n        /* \"#utility.yul\":8348:8349   */\n      0x00\n        /* \"#utility.yul\":8340:8346   */\n      dup3\n        /* \"#utility.yul\":8336:8350   */\n      add\n        /* \"#utility.yul\":8329:8387   */\n      mstore\n        /* \"#utility.yul\":8421:8455   */\n      0x656164206f66204554482e20506c6561736520757365206465706f7369744665\n        /* \"#utility.yul\":8416:8418   */\n      0x20\n        /* \"#utility.yul\":8408:8414   */\n      dup3\n        /* \"#utility.yul\":8404:8419   */\n      add\n        /* \"#utility.yul\":8397:8456   */\n      mstore\n        /* \"#utility.yul\":8490:8522   */\n      0x6546726f6d546f6b656e732066756e6374696f6e20696e205661756c742e0000\n        /* \"#utility.yul\":8485:8487   */\n      0x40\n        /* \"#utility.yul\":8477:8483   */\n      dup3\n        /* \"#utility.yul\":8473:8488   */\n      add\n        /* \"#utility.yul\":8466:8523   */\n      mstore\n        /* \"#utility.yul\":8212:8530   */\n      pop\n      jump\t// out\n        /* \"#utility.yul\":8536:8902   */\n    tag_296:\n        /* \"#utility.yul\":8678:8681   */\n      0x00\n        /* \"#utility.yul\":8699:8766   */\n      tag_423\n        /* \"#utility.yul\":8763:8765   */\n      0x5e\n        /* \"#utility.yul\":8758:8761   */\n      dup4\n        /* \"#utility.yul\":8699:8766   */\n      tag_286\n      jump\t// in\n    tag_423:\n        /* \"#utility.yul\":8692:8766   */\n      swap2\n      pop\n        /* \"#utility.yul\":8775:8868   */\n      tag_424\n        /* \"#utility.yul\":8864:8867   */\n      dup3\n        /* \"#utility.yul\":8775:8868   */\n      tag_295\n      jump\t// in\n    tag_424:\n        /* \"#utility.yul\":8893:8895   */\n      0x60\n        /* \"#utility.yul\":8888:8891   */\n      dup3\n        /* \"#utility.yul\":8884:8896   */\n      add\n        /* \"#utility.yul\":8877:8896   */\n      swap1\n      pop\n        /* \"#utility.yul\":8536:8902   */\n      swap2\n      swap1\n      pop\n      jump\t// out\n        /* \"#utility.yul\":8908:9327   */\n    tag_136:\n        /* \"#utility.yul\":9074:9078   */\n      0x00\n        /* \"#utility.yul\":9112:9114   */\n      0x20\n        /* \"#utility.yul\":9101:9110   */\n      dup3\n        /* \"#utility.yul\":9097:9115   */\n      add\n        /* \"#utility.yul\":9089:9115   */\n      swap1\n      pop\n        /* \"#utility.yul\":9161:9170   */\n      dup2\n        /* \"#utility.yul\":9155:9159   */\n      dup2\n        /* \"#utility.yul\":9151:9171   */\n      sub\n        /* \"#utility.yul\":9147:9148   */\n      0x00\n        /* \"#utility.yul\":9136:9145   */\n      dup4\n        /* \"#utility.yul\":9132:9149   */\n      add\n        /* \"#utility.yul\":9125:9172   */\n      mstore\n        /* \"#utility.yul\":9189:9320   */\n      tag_426\n        /* \"#utility.yul\":9315:9319   */\n      dup2\n        /* \"#utility.yul\":9189:9320   */\n      tag_296\n      jump\t// in\n    tag_426:\n        /* \"#utility.yul\":9181:9320   */\n      swap1\n      pop\n        /* \"#utility.yul\":8908:9327   */\n      swap2\n      swap1\n      pop\n      jump\t// out\n        /* \"#utility.yul\":9333:9506   */\n    tag_297:\n        /* \"#utility.yul\":9473:9498   */\n      0x5969656c6441676772656761746f72206e6f7420736574000000000000000000\n        /* \"#utility.yul\":9469:9470   */\n      0x00\n        /* \"#utility.yul\":9461:9467   */\n      dup3\n        /* \"#utility.yul\":9457:9471   */\n      add\n        /* \"#utility.yul\":9450:9499   */\n      mstore\n        /* \"#utility.yul\":9333:9506   */\n      pop\n      jump\t// out\n        /* \"#utility.yul\":9512:9878   */\n    tag_298:\n        /* \"#utility.yul\":9654:9657   */\n      0x00\n        /* \"#utility.yul\":9675:9742   */\n      tag_429\n        /* \"#utility.yul\":9739:9741   */\n      0x17\n        /* \"#utility.yul\":9734:9737   */\n      dup4\n        /* \"#utility.yul\":9675:9742   */\n      tag_286\n      jump\t// in\n    tag_429:\n        /* \"#utility.yul\":9668:9742   */\n      swap2\n      pop\n        /* \"#utility.yul\":9751:9844   */\n      tag_430\n        /* \"#utility.yul\":9840:9843   */\n      dup3\n        /* \"#utility.yul\":9751:9844   */\n      tag_297\n      jump\t// in\n    tag_430:\n        /* \"#utility.yul\":9869:9871   */\n      0x20\n        /* \"#utility.yul\":9864:9867   */\n      dup3\n        /* \"#utility.yul\":9860:9872   */\n      add\n        /* \"#utility.yul\":9853:9872   */\n      swap1\n      pop\n        /* \"#utility.yul\":9512:9878   */\n      swap2\n      swap1\n      pop\n      jump\t// out\n        /* \"#utility.yul\":9884:10303   */\n    tag_140:\n        /* \"#utility.yul\":10050:10054   */\n      0x00\n        /* \"#utility.yul\":10088:10090   */\n      0x20\n        /* \"#utility.yul\":10077:10086   */\n      dup3\n        /* \"#utility.yul\":10073:10091   */\n      add\n        /* \"#utility.yul\":10065:10091   */\n      swap1\n      pop\n        /* \"#utility.yul\":10137:10146   */\n      dup2\n        /* \"#utility.yul\":10131:10135   */\n      dup2\n        /* \"#utility.yul\":10127:10147   */\n      sub\n        /* \"#utility.yul\":10123:10124   */\n      0x00\n        /* \"#utility.yul\":10112:10121   */\n      dup4\n        /* \"#utility.yul\":10108:10125   */\n      add\n        /* \"#utility.yul\":10101:10148   */\n      mstore\n        /* \"#utility.yul\":10165:10296   */\n      tag_432\n        /* \"#utility.yul\":10291:10295   */\n      dup2\n        /* \"#utility.yul\":10165:10296   */\n      tag_298\n      jump\t// in\n    tag_432:\n        /* \"#utility.yul\":10157:10296   */\n      swap1\n      pop\n        /* \"#utility.yul\":9884:10303   */\n      swap2\n      swap1\n      pop\n      jump\t// out\n        /* \"#utility.yul\":10309:10472   */\n    tag_299:\n        /* \"#utility.yul\":10449:10464   */\n      0x5661756c74206e6f742073657400000000000000000000000000000000000000\n        /* \"#utility.yul\":10445:10446   */\n      0x00\n        /* \"#utility.yul\":10437:10443   */\n      dup3\n        /* \"#utility.yul\":10433:10447   */\n      add\n        /* \"#utility.yul\":10426:10465   */\n      mstore\n        /* \"#utility.yul\":10309:10472   */\n      pop\n      jump\t// out\n        /* \"#utility.yul\":10478:10844   */\n    tag_300:\n        /* \"#utility.yul\":10620:10623   */\n      0x00\n        /* \"#utility.yul\":10641:10708   */\n      tag_435\n        /* \"#utility.yul\":10705:10707   */\n      0x0d\n        /* \"#utility.yul\":10700:10703   */\n      dup4\n        /* \"#utility.yul\":10641:10708   */\n      tag_286\n      jump\t// in\n    tag_435:\n        /* \"#utility.yul\":10634:10708   */\n      swap2\n      pop\n        /* \"#utility.yul\":10717:10810   */\n      tag_436\n        /* \"#utility.yul\":10806:10809   */\n      dup3\n        /* \"#utility.yul\":10717:10810   */\n      tag_299\n      jump\t// in\n    tag_436:\n        /* \"#utility.yul\":10835:10837   */\n      0x20\n        /* \"#utility.yul\":10830:10833   */\n      dup3\n        /* \"#utility.yul\":10826:10838   */\n      add\n        /* \"#utility.yul\":10819:10838   */\n      swap1\n      pop\n        /* \"#utility.yul\":10478:10844   */\n      swap2\n      swap1\n      pop\n      jump\t// out\n        /* \"#utility.yul\":10850:11269   */\n    tag_143:\n        /* \"#utility.yul\":11016:11020   */\n      0x00\n        /* \"#utility.yul\":11054:11056   */\n      0x20\n        /* \"#utility.yul\":11043:11052   */\n      dup3\n        /* \"#utility.yul\":11039:11057   */\n      add\n        /* \"#utility.yul\":11031:11057   */\n      swap1\n      pop\n        /* \"#utility.yul\":11103:11112   */\n      dup2\n        /* \"#utility.yul\":11097:11101   */\n      dup2\n        /* \"#utility.yul\":11093:11113   */\n      sub\n        /* \"#utility.yul\":11089:11090   */\n      0x00\n        /* \"#utility.yul\":11078:11087   */\n      dup4\n        /* \"#utility.yul\":11074:11091   */\n      add\n        /* \"#utility.yul\":11067:11114   */\n      mstore\n        /* \"#utility.yul\":11131:11262   */\n      tag_438\n        /* \"#utility.yul\":11257:11261   */\n      dup2\n        /* \"#utility.yul\":11131:11262   */\n      tag_300\n      jump\t// in\n    tag_438:\n        /* \"#utility.yul\":11123:11262   */\n      swap1\n      pop\n        /* \"#utility.yul\":10850:11269   */\n      swap2\n      swap1\n      pop\n      jump\t// out\n        /* \"#utility.yul\":11275:11437   */\n    tag_301:\n        /* \"#utility.yul\":11415:11429   */\n      0x57455448206e6f74207365740000000000000000000000000000000000000000\n        /* \"#utility.yul\":11411:11412   */\n      0x00\n        /* \"#utility.yul\":11403:11409   */\n      dup3\n        /* \"#utility.yul\":11399:11413   */\n      add\n        /* \"#utility.yul\":11392:11430   */\n      mstore\n        /* \"#utility.yul\":11275:11437   */\n      pop\n      jump\t// out\n        /* \"#utility.yul\":11443:11809   */\n    tag_302:\n        /* \"#utility.yul\":11585:11588   */\n      0x00\n        /* \"#utility.yul\":11606:11673   */\n      tag_441\n        /* \"#utility.yul\":11670:11672   */\n      0x0c\n        /* \"#utility.yul\":11665:11668   */\n      dup4\n        /* \"#utility.yul\":11606:11673   */\n      tag_286\n      jump\t// in\n    tag_441:\n        /* \"#utility.yul\":11599:11673   */\n      swap2\n      pop\n        /* \"#utility.yul\":11682:11775   */\n      tag_442\n        /* \"#utility.yul\":11771:11774   */\n      dup3\n        /* \"#utility.yul\":11682:11775   */\n      tag_301\n      jump\t// in\n    tag_442:\n        /* \"#utility.yul\":11800:11802   */\n      0x20\n        /* \"#utility.yul\":11795:11798   */\n      dup3\n        /* \"#utility.yul\":11791:11803   */\n      add\n        /* \"#utility.yul\":11784:11803   */\n      swap1\n      pop\n        /* \"#utility.yul\":11443:11809   */\n      swap2\n      swap1\n      pop\n      jump\t// out\n        /* \"#utility.yul\":11815:12234   */\n    tag_146:\n        /* \"#utility.yul\":11981:11985   */\n      0x00\n        /* \"#utility.yul\":12019:12021   */\n      0x20\n        /* \"#utility.yul\":12008:12017   */\n      dup3\n        /* \"#utility.yul\":12004:12022   */\n      add\n        /* \"#utility.yul\":11996:12022   */\n      swap1\n      pop\n        /* \"#utility.yul\":12068:12077   */\n      dup2\n        /* \"#utility.yul\":12062:12066   */\n      dup2\n        /* \"#utility.yul\":12058:12078   */\n      sub\n        /* \"#utility.yul\":12054:12055   */\n      0x00\n        /* \"#utility.yul\":12043:12052   */\n      dup4\n        /* \"#utility.yul\":12039:12056   */\n      add\n        /* \"#utility.yul\":12032:12079   */\n      mstore\n        /* \"#utility.yul\":12096:12227   */\n      tag_444\n        /* \"#utility.yul\":12222:12226   */\n      dup2\n        /* \"#utility.yul\":12096:12227   */\n      tag_302\n      jump\t// in\n    tag_444:\n        /* \"#utility.yul\":12088:12227   */\n      swap1\n      pop\n        /* \"#utility.yul\":11815:12234   */\n      swap2\n      swap1\n      pop\n      jump\t// out\n        /* \"#utility.yul\":12240:12357   */\n    tag_303:\n        /* \"#utility.yul\":12349:12350   */\n      0x00\n        /* \"#utility.yul\":12346:12347   */\n      0x00\n        /* \"#utility.yul\":12339:12351   */\n      revert\n        /* \"#utility.yul\":12363:12465   */\n    tag_304:\n        /* \"#utility.yul\":12404:12410   */\n      0x00\n        /* \"#utility.yul\":12455:12457   */\n      0x1f\n        /* \"#utility.yul\":12451:12458   */\n      not\n        /* \"#utility.yul\":12446:12448   */\n      0x1f\n        /* \"#utility.yul\":12439:12444   */\n      dup4\n        /* \"#utility.yul\":12435:12449   */\n      add\n        /* \"#utility.yul\":12431:12459   */\n      and\n        /* \"#utility.yul\":12421:12459   */\n      swap1\n      pop\n        /* \"#utility.yul\":12363:12465   */\n      swap2\n      swap1\n      pop\n      jump\t// out\n        /* \"#utility.yul\":12471:12651   */\n    tag_305:\n        /* \"#utility.yul\":12519:12596   */\n      0x4e487b7100000000000000000000000000000000000000000000000000000000\n        /* \"#utility.yul\":12516:12517   */\n      0x00\n        /* \"#utility.yul\":12509:12597   */\n      mstore\n        /* \"#utility.yul\":12616:12620   */\n      0x41\n        /* \"#utility.yul\":12613:12614   */\n      0x04\n        /* \"#utility.yul\":12606:12621   */\n      mstore\n        /* \"#utility.yul\":12640:12644   */\n      0x24\n        /* \"#utility.yul\":12637:12638   */\n      0x00\n        /* \"#utility.yul\":12630:12645   */\n      revert\n        /* \"#utility.yul\":12657:12938   */\n    tag_306:\n        /* \"#utility.yul\":12740:12767   */\n      tag_449\n        /* \"#utility.yul\":12762:12766   */\n      dup3\n        /* \"#utility.yul\":12740:12767   */\n      tag_304\n      jump\t// in\n    tag_449:\n        /* \"#utility.yul\":12732:12738   */\n      dup2\n        /* \"#utility.yul\":12728:12768   */\n      add\n        /* \"#utility.yul\":12870:12876   */\n      dup2\n        /* \"#utility.yul\":12858:12868   */\n      dup2\n        /* \"#utility.yul\":12855:12877   */\n      lt\n        /* \"#utility.yul\":12834:12852   */\n      0xffffffffffffffff\n        /* \"#utility.yul\":12822:12832   */\n      dup3\n        /* \"#utility.yul\":12819:12853   */\n      gt\n        /* \"#utility.yul\":12816:12878   */\n      or\n        /* \"#utility.yul\":12813:12901   */\n      iszero\n      tag_450\n      jumpi\n        /* \"#utility.yul\":12881:12899   */\n      tag_451\n      tag_305\n      jump\t// in\n    tag_451:\n        /* \"#utility.yul\":12813:12901   */\n    tag_450:\n        /* \"#utility.yul\":12921:12931   */\n      dup1\n        /* \"#utility.yul\":12917:12919   */\n      0x40\n        /* \"#utility.yul\":12910:12932   */\n      mstore\n        /* \"#utility.yul\":12700:12938   */\n      pop\n        /* \"#utility.yul\":12657:12938   */\n      pop\n      pop\n      jump\t// out\n        /* \"#utility.yul\":12944:13073   */\n    tag_307:\n        /* \"#utility.yul\":12978:12984   */\n      0x00\n        /* \"#utility.yul\":13005:13025   */\n      tag_453\n      tag_275\n      jump\t// in\n    tag_453:\n        /* \"#utility.yul\":12995:13025   */\n      swap1\n      pop\n        /* \"#utility.yul\":13034:13067   */\n      tag_454\n        /* \"#utility.yul\":13062:13066   */\n      dup3\n        /* \"#utility.yul\":13054:13060   */\n      dup3\n        /* \"#utility.yul\":13034:13067   */\n      tag_306\n      jump\t// in\n    tag_454:\n        /* \"#utility.yul\":12944:13073   */\n      swap2\n      swap1\n      pop\n      jump\t// out\n        /* \"#utility.yul\":13202:13345   */\n    tag_309:\n        /* \"#utility.yul\":13259:13264   */\n      0x00\n        /* \"#utility.yul\":13290:13296   */\n      dup2\n        /* \"#utility.yul\":13284:13297   */\n      mload\n        /* \"#utility.yul\":13275:13297   */\n      swap1\n      pop\n        /* \"#utility.yul\":13306:13339   */\n      tag_457\n        /* \"#utility.yul\":13333:13338   */\n      dup2\n        /* \"#utility.yul\":13306:13339   */\n      tag_279\n      jump\t// in\n    tag_457:\n        /* \"#utility.yul\":13202:13345   */\n      swap3\n      swap2\n      pop\n      pop\n      jump\t// out\n        /* \"#utility.yul\":13351:13494   */\n    tag_310:\n        /* \"#utility.yul\":13408:13413   */\n      0x00\n        /* \"#utility.yul\":13439:13445   */\n      dup2\n        /* \"#utility.yul\":13433:13446   */\n      mload\n        /* \"#utility.yul\":13424:13446   */\n      swap1\n      pop\n        /* \"#utility.yul\":13455:13488   */\n      tag_459\n        /* \"#utility.yul\":13482:13487   */\n      dup2\n        /* \"#utility.yul\":13455:13488   */\n      tag_281\n      jump\t// in\n    tag_459:\n        /* \"#utility.yul\":13351:13494   */\n      swap3\n      swap2\n      pop\n      pop\n      jump\t// out\n        /* \"#utility.yul\":13500:13590   */\n    tag_311:\n        /* \"#utility.yul\":13534:13541   */\n      0x00\n        /* \"#utility.yul\":13577:13582   */\n      dup2\n        /* \"#utility.yul\":13570:13583   */\n      iszero\n        /* \"#utility.yul\":13563:13584   */\n      iszero\n        /* \"#utility.yul\":13552:13584   */\n      swap1\n      pop\n        /* \"#utility.yul\":13500:13590   */\n      swap2\n      swap1\n      pop\n      jump\t// out\n        /* \"#utility.yul\":13596:13712   */\n    tag_312:\n        /* \"#utility.yul\":13666:13687   */\n      tag_462\n        /* \"#utility.yul\":13681:13686   */\n      dup2\n        /* \"#utility.yul\":13666:13687   */\n      tag_311\n      jump\t// in\n    tag_462:\n        /* \"#utility.yul\":13659:13664   */\n      dup2\n        /* \"#utility.yul\":13656:13688   */\n      eq\n        /* \"#utility.yul\":13646:13706   */\n      tag_463\n      jumpi\n        /* \"#utility.yul\":13702:13703   */\n      0x00\n        /* \"#utility.yul\":13699:13700   */\n      0x00\n        /* \"#utility.yul\":13692:13704   */\n      revert\n        /* \"#utility.yul\":13646:13706   */\n    tag_463:\n        /* \"#utility.yul\":13596:13712   */\n      pop\n      jump\t// out\n        /* \"#utility.yul\":13718:13855   */\n    tag_313:\n        /* \"#utility.yul\":13772:13777   */\n      0x00\n        /* \"#utility.yul\":13803:13809   */\n      dup2\n        /* \"#utility.yul\":13797:13810   */\n      mload\n        /* \"#utility.yul\":13788:13810   */\n      swap1\n      pop\n        /* \"#utility.yul\":13819:13849   */\n      tag_465\n        /* \"#utility.yul\":13843:13848   */\n      dup2\n        /* \"#utility.yul\":13819:13849   */\n      tag_312\n      jump\t// in\n    tag_465:\n        /* \"#utility.yul\":13718:13855   */\n      swap3\n      swap2\n      pop\n      pop\n      jump\t// out\n        /* \"#utility.yul\":13897:15411   */\n    tag_314:\n        /* \"#utility.yul\":13987:13992   */\n      0x00\n        /* \"#utility.yul\":14031:14035   */\n      0xe0\n        /* \"#utility.yul\":14019:14028   */\n      dup3\n        /* \"#utility.yul\":14014:14017   */\n      dup5\n        /* \"#utility.yul\":14010:14029   */\n      sub\n        /* \"#utility.yul\":14006:14036   */\n      slt\n        /* \"#utility.yul\":14003:14120   */\n      iszero\n      tag_467\n      jumpi\n        /* \"#utility.yul\":14039:14118   */\n      tag_468\n      tag_303\n      jump\t// in\n    tag_468:\n        /* \"#utility.yul\":14003:14120   */\n    tag_467:\n        /* \"#utility.yul\":14138:14159   */\n      tag_469\n        /* \"#utility.yul\":14154:14158   */\n      0xe0\n        /* \"#utility.yul\":14138:14159   */\n      tag_307\n      jump\t// in\n    tag_469:\n        /* \"#utility.yul\":14129:14159   */\n      swap1\n      pop\n        /* \"#utility.yul\":14225:14226   */\n      0x00\n        /* \"#utility.yul\":14265:14325   */\n      tag_470\n        /* \"#utility.yul\":14321:14324   */\n      dup5\n        /* \"#utility.yul\":14312:14318   */\n      dup3\n        /* \"#utility.yul\":14301:14310   */\n      dup6\n        /* \"#utility.yul\":14297:14319   */\n      add\n        /* \"#utility.yul\":14265:14325   */\n      tag_309\n      jump\t// in\n    tag_470:\n        /* \"#utility.yul\":14258:14262   */\n      0x00\n        /* \"#utility.yul\":14251:14256   */\n      dup4\n        /* \"#utility.yul\":14247:14263   */\n      add\n        /* \"#utility.yul\":14240:14326   */\n      mstore\n        /* \"#utility.yul\":14169:14337   */\n      pop\n        /* \"#utility.yul\":14398:14400   */\n      0x20\n        /* \"#utility.yul\":14439:14499   */\n      tag_471\n        /* \"#utility.yul\":14495:14498   */\n      dup5\n        /* \"#utility.yul\":14486:14492   */\n      dup3\n        /* \"#utility.yul\":14475:14484   */\n      dup6\n        /* \"#utility.yul\":14471:14493   */\n      add\n        /* \"#utility.yul\":14439:14499   */\n      tag_310\n      jump\t// in\n    tag_471:\n        /* \"#utility.yul\":14432:14436   */\n      0x20\n        /* \"#utility.yul\":14425:14430   */\n      dup4\n        /* \"#utility.yul\":14421:14437   */\n      add\n        /* \"#utility.yul\":14414:14500   */\n      mstore\n        /* \"#utility.yul\":14347:14511   */\n      pop\n        /* \"#utility.yul\":14576:14578   */\n      0x40\n        /* \"#utility.yul\":14617:14677   */\n      tag_472\n        /* \"#utility.yul\":14673:14676   */\n      dup5\n        /* \"#utility.yul\":14664:14670   */\n      dup3\n        /* \"#utility.yul\":14653:14662   */\n      dup6\n        /* \"#utility.yul\":14649:14671   */\n      add\n        /* \"#utility.yul\":14617:14677   */\n      tag_309\n      jump\t// in\n    tag_472:\n        /* \"#utility.yul\":14610:14614   */\n      0x40\n        /* \"#utility.yul\":14603:14608   */\n      dup4\n        /* \"#utility.yul\":14599:14615   */\n      add\n        /* \"#utility.yul\":14592:14678   */\n      mstore\n        /* \"#utility.yul\":14521:14689   */\n      pop\n        /* \"#utility.yul\":14753:14755   */\n      0x60\n        /* \"#utility.yul\":14794:14854   */\n      tag_473\n        /* \"#utility.yul\":14850:14853   */\n      dup5\n        /* \"#utility.yul\":14841:14847   */\n      dup3\n        /* \"#utility.yul\":14830:14839   */\n      dup6\n        /* \"#utility.yul\":14826:14848   */\n      add\n        /* \"#utility.yul\":14794:14854   */\n      tag_309\n      jump\t// in\n    tag_473:\n        /* \"#utility.yul\":14787:14791   */\n      0x60\n        /* \"#utility.yul\":14780:14785   */\n      dup4\n        /* \"#utility.yul\":14776:14792   */\n      add\n        /* \"#utility.yul\":14769:14855   */\n      mstore\n        /* \"#utility.yul\":14699:14866   */\n      pop\n        /* \"#utility.yul\":14933:14936   */\n      0x80\n        /* \"#utility.yul\":14975:15035   */\n      tag_474\n        /* \"#utility.yul\":15031:15034   */\n      dup5\n        /* \"#utility.yul\":15022:15028   */\n      dup3\n        /* \"#utility.yul\":15011:15020   */\n      dup6\n        /* \"#utility.yul\":15007:15029   */\n      add\n        /* \"#utility.yul\":14975:15035   */\n      tag_309\n      jump\t// in\n    tag_474:\n        /* \"#utility.yul\":14968:14972   */\n      0x80\n        /* \"#utility.yul\":14961:14966   */\n      dup4\n        /* \"#utility.yul\":14957:14973   */\n      add\n        /* \"#utility.yul\":14950:15036   */\n      mstore\n        /* \"#utility.yul\":14876:15047   */\n      pop\n        /* \"#utility.yul\":15111:15114   */\n      0xa0\n        /* \"#utility.yul\":15153:15210   */\n      tag_475\n        /* \"#utility.yul\":15206:15209   */\n      dup5\n        /* \"#utility.yul\":15197:15203   */\n      dup3\n        /* \"#utility.yul\":15186:15195   */\n      dup6\n        /* \"#utility.yul\":15182:15204   */\n      add\n        /* \"#utility.yul\":15153:15210   */\n      tag_313\n      jump\t// in\n    tag_475:\n        /* \"#utility.yul\":15146:15150   */\n      0xa0\n        /* \"#utility.yul\":15139:15144   */\n      dup4\n        /* \"#utility.yul\":15135:15151   */\n      add\n        /* \"#utility.yul\":15128:15211   */\n      mstore\n        /* \"#utility.yul\":15057:15222   */\n      pop\n        /* \"#utility.yul\":15290:15293   */\n      0xc0\n        /* \"#utility.yul\":15332:15392   */\n      tag_476\n        /* \"#utility.yul\":15388:15391   */\n      dup5\n        /* \"#utility.yul\":15379:15385   */\n      dup3\n        /* \"#utility.yul\":15368:15377   */\n      dup6\n        /* \"#utility.yul\":15364:15386   */\n      add\n        /* \"#utility.yul\":15332:15392   */\n      tag_309\n      jump\t// in\n    tag_476:\n        /* \"#utility.yul\":15325:15329   */\n      0xc0\n        /* \"#utility.yul\":15318:15323   */\n      dup4\n        /* \"#utility.yul\":15314:15330   */\n      add\n        /* \"#utility.yul\":15307:15393   */\n      mstore\n        /* \"#utility.yul\":15232:15404   */\n      pop\n        /* \"#utility.yul\":13897:15411   */\n      swap3\n      swap2\n      pop\n      pop\n      jump\t// out\n        /* \"#utility.yul\":15417:15829   */\n    tag_151:\n        /* \"#utility.yul\":15517:15523   */\n      0x00\n        /* \"#utility.yul\":15566:15569   */\n      0xe0\n        /* \"#utility.yul\":15554:15563   */\n      dup3\n        /* \"#utility.yul\":15545:15552   */\n      dup5\n        /* \"#utility.yul\":15541:15564   */\n      sub\n        /* \"#utility.yul\":15537:15570   */\n      slt\n        /* \"#utility.yul\":15534:15654   */\n      iszero\n      tag_478\n      jumpi\n        /* \"#utility.yul\":15573:15652   */\n      tag_479\n      tag_276\n      jump\t// in\n    tag_479:\n        /* \"#utility.yul\":15534:15654   */\n    tag_478:\n        /* \"#utility.yul\":15693:15694   */\n      0x00\n        /* \"#utility.yul\":15718:15812   */\n      tag_480\n        /* \"#utility.yul\":15804:15811   */\n      dup5\n        /* \"#utility.yul\":15795:15801   */\n      dup3\n        /* \"#utility.yul\":15784:15793   */\n      dup6\n        /* \"#utility.yul\":15780:15802   */\n      add\n        /* \"#utility.yul\":15718:15812   */\n      tag_314\n      jump\t// in\n    tag_480:\n        /* \"#utility.yul\":15708:15812   */\n      swap2\n      pop\n        /* \"#utility.yul\":15664:15822   */\n      pop\n        /* \"#utility.yul\":15417:15829   */\n      swap3\n      swap2\n      pop\n      pop\n      jump\t// out\n        /* \"#utility.yul\":15835:15999   */\n    tag_315:\n        /* \"#utility.yul\":15975:15991   */\n      0x4e6f74207468652077696e6e6572000000000000000000000000000000000000\n        /* \"#utility.yul\":15971:15972   */\n      0x00\n        /* \"#utility.yul\":15963:15969   */\n      dup3\n        /* \"#utility.yul\":15959:15973   */\n      add\n        /* \"#utility.yul\":15952:15992   */\n      mstore\n        /* \"#utility.yul\":15835:15999   */\n      pop\n      jump\t// out\n        /* \"#utility.yul\":16005:16371   */\n    tag_316:\n        /* \"#utility.yul\":16147:16150   */\n      0x00\n        /* \"#utility.yul\":16168:16235   */\n      tag_483\n        /* \"#utility.yul\":16232:16234   */\n      0x0e\n        /* \"#utility.yul\":16227:16230   */\n      dup4\n        /* \"#utility.yul\":16168:16235   */\n      tag_286\n      jump\t// in\n    tag_483:\n        /* \"#utility.yul\":16161:16235   */\n      swap2\n      pop\n        /* \"#utility.yul\":16244:16337   */\n      tag_484\n        /* \"#utility.yul\":16333:16336   */\n      dup3\n        /* \"#utility.yul\":16244:16337   */\n      tag_315\n      jump\t// in\n    tag_484:\n        /* \"#utility.yul\":16362:16364   */\n      0x20\n        /* \"#utility.yul\":16357:16360   */\n      dup3\n        /* \"#utility.yul\":16353:16365   */\n      add\n        /* \"#utility.yul\":16346:16365   */\n      swap1\n      pop\n        /* \"#utility.yul\":16005:16371   */\n      swap2\n      swap1\n      pop\n      jump\t// out\n        /* \"#utility.yul\":16377:16796   */\n    tag_154:\n        /* \"#utility.yul\":16543:16547   */\n      0x00\n        /* \"#utility.yul\":16581:16583   */\n      0x20\n        /* \"#utility.yul\":16570:16579   */\n      dup3\n        /* \"#utility.yul\":16566:16584   */\n      add\n        /* \"#utility.yul\":16558:16584   */\n      swap1\n      pop\n        /* \"#utility.yul\":16630:16639   */\n      dup2\n        /* \"#utility.yul\":16624:16628   */\n      dup2\n        /* \"#utility.yul\":16620:16640   */\n      sub\n        /* \"#utility.yul\":16616:16617   */\n      0x00\n        /* \"#utility.yul\":16605:16614   */\n      dup4\n        /* \"#utility.yul\":16601:16618   */\n      add\n        /* \"#utility.yul\":16594:16641   */\n      mstore\n        /* \"#utility.yul\":16658:16789   */\n      tag_486\n        /* \"#utility.yul\":16784:16788   */\n      dup2\n        /* \"#utility.yul\":16658:16789   */\n      tag_316\n      jump\t// in\n    tag_486:\n        /* \"#utility.yul\":16650:16789   */\n      swap1\n      pop\n        /* \"#utility.yul\":16377:16796   */\n      swap2\n      swap1\n      pop\n      jump\t// out\n        /* \"#utility.yul\":16802:16973   */\n    tag_317:\n        /* \"#utility.yul\":16942:16965   */\n      0x5072697a6520616c726561647920636c61696d65640000000000000000000000\n        /* \"#utility.yul\":16938:16939   */\n      0x00\n        /* \"#utility.yul\":16930:16936   */\n      dup3\n        /* \"#utility.yul\":16926:16940   */\n      add\n        /* \"#utility.yul\":16919:16966   */\n      mstore\n        /* \"#utility.yul\":16802:16973   */\n      pop\n      jump\t// out\n        /* \"#utility.yul\":16979:17345   */\n    tag_318:\n        /* \"#utility.yul\":17121:17124   */\n      0x00\n        /* \"#utility.yul\":17142:17209   */\n      tag_489\n        /* \"#utility.yul\":17206:17208   */\n      0x15\n        /* \"#utility.yul\":17201:17204   */\n      dup4\n        /* \"#utility.yul\":17142:17209   */\n      tag_286\n      jump\t// in\n    tag_489:\n        /* \"#utility.yul\":17135:17209   */\n      swap2\n      pop\n        /* \"#utility.yul\":17218:17311   */\n      tag_490\n        /* \"#utility.yul\":17307:17310   */\n      dup3\n        /* \"#utility.yul\":17218:17311   */\n      tag_317\n      jump\t// in\n    tag_490:\n        /* \"#utility.yul\":17336:17338   */\n      0x20\n        /* \"#utility.yul\":17331:17334   */\n      dup3\n        /* \"#utility.yul\":17327:17339   */\n      add\n        /* \"#utility.yul\":17320:17339   */\n      swap1\n      pop\n        /* \"#utility.yul\":16979:17345   */\n      swap2\n      swap1\n      pop\n      jump\t// out\n        /* \"#utility.yul\":17351:17770   */\n    tag_157:\n        /* \"#utility.yul\":17517:17521   */\n      0x00\n        /* \"#utility.yul\":17555:17557   */\n      0x20\n        /* \"#utility.yul\":17544:17553   */\n      dup3\n        /* \"#utility.yul\":17540:17558   */\n      add\n        /* \"#utility.yul\":17532:17558   */\n      swap1\n      pop\n        /* \"#utility.yul\":17604:17613   */\n      dup2\n        /* \"#utility.yul\":17598:17602   */\n      dup2\n        /* \"#utility.yul\":17594:17614   */\n      sub\n        /* \"#utility.yul\":17590:17591   */\n      0x00\n        /* \"#utility.yul\":17579:17588   */\n      dup4\n        /* \"#utility.yul\":17575:17592   */\n      add\n        /* \"#utility.yul\":17568:17615   */\n      mstore\n        /* \"#utility.yul\":17632:17763   */\n      tag_492\n        /* \"#utility.yul\":17758:17762   */\n      dup2\n        /* \"#utility.yul\":17632:17763   */\n      tag_318\n      jump\t// in\n    tag_492:\n        /* \"#utility.yul\":17624:17763   */\n      swap1\n      pop\n        /* \"#utility.yul\":17351:17770   */\n      swap2\n      swap1\n      pop\n      jump\t// out\n        /* \"#utility.yul\":17776:17956   */\n    tag_319:\n        /* \"#utility.yul\":17824:17901   */\n      0x4e487b7100000000000000000000000000000000000000000000000000000000\n        /* \"#utility.yul\":17821:17822   */\n      0x00\n        /* \"#utility.yul\":17814:17902   */\n      mstore\n        /* \"#utility.yul\":17921:17925   */\n      0x11\n        /* \"#utility.yul\":17918:17919   */\n      0x04\n        /* \"#utility.yul\":17911:17926   */\n      mstore\n        /* \"#utility.yul\":17945:17949   */\n      0x24\n        /* \"#utility.yul\":17942:17943   */\n      0x00\n        /* \"#utility.yul\":17935:17950   */\n      revert\n        /* \"#utility.yul\":17962:18372   */\n    tag_163:\n        /* \"#utility.yul\":18002:18009   */\n      0x00\n        /* \"#utility.yul\":18025:18045   */\n      tag_495\n        /* \"#utility.yul\":18043:18044   */\n      dup3\n        /* \"#utility.yul\":18025:18045   */\n      tag_278\n      jump\t// in\n    tag_495:\n        /* \"#utility.yul\":18020:18045   */\n      swap2\n      pop\n        /* \"#utility.yul\":18059:18079   */\n      tag_496\n        /* \"#utility.yul\":18077:18078   */\n      dup4\n        /* \"#utility.yul\":18059:18079   */\n      tag_278\n      jump\t// in\n    tag_496:\n        /* \"#utility.yul\":18054:18079   */\n      swap3\n      pop\n        /* \"#utility.yul\":18114:18115   */\n      dup3\n        /* \"#utility.yul\":18111:18112   */\n      dup3\n        /* \"#utility.yul\":18107:18116   */\n      mul\n        /* \"#utility.yul\":18136:18166   */\n      tag_497\n        /* \"#utility.yul\":18154:18165   */\n      dup2\n        /* \"#utility.yul\":18136:18166   */\n      tag_278\n      jump\t// in\n    tag_497:\n        /* \"#utility.yul\":18125:18166   */\n      swap2\n      pop\n        /* \"#utility.yul\":18315:18316   */\n      dup3\n        /* \"#utility.yul\":18306:18313   */\n      dup3\n        /* \"#utility.yul\":18302:18317   */\n      div\n        /* \"#utility.yul\":18299:18300   */\n      dup5\n        /* \"#utility.yul\":18296:18318   */\n      eq\n        /* \"#utility.yul\":18276:18277   */\n      dup4\n        /* \"#utility.yul\":18269:18278   */\n      iszero\n        /* \"#utility.yul\":18249:18332   */\n      or\n        /* \"#utility.yul\":18226:18365   */\n      tag_498\n      jumpi\n        /* \"#utility.yul\":18345:18363   */\n      tag_499\n      tag_319\n      jump\t// in\n    tag_499:\n        /* \"#utility.yul\":18226:18365   */\n    tag_498:\n        /* \"#utility.yul\":18010:18372   */\n      pop\n        /* \"#utility.yul\":17962:18372   */\n      swap3\n      swap2\n      pop\n      pop\n      jump\t// out\n        /* \"#utility.yul\":18378:18558   */\n    tag_320:\n        /* \"#utility.yul\":18426:18503   */\n      0x4e487b7100000000000000000000000000000000000000000000000000000000\n        /* \"#utility.yul\":18423:18424   */\n      0x00\n        /* \"#utility.yul\":18416:18504   */\n      mstore\n        /* \"#utility.yul\":18523:18527   */\n      0x12\n        /* \"#utility.yul\":18520:18521   */\n      0x04\n        /* \"#utility.yul\":18513:18528   */\n      mstore\n        /* \"#utility.yul\":18547:18551   */\n      0x24\n        /* \"#utility.yul\":18544:18545   */\n      0x00\n        /* \"#utility.yul\":18537:18552   */\n      revert\n        /* \"#utility.yul\":18564:18749   */\n    tag_165:\n        /* \"#utility.yul\":18604:18605   */\n      0x00\n        /* \"#utility.yul\":18621:18641   */\n      tag_502\n        /* \"#utility.yul\":18639:18640   */\n      dup3\n        /* \"#utility.yul\":18621:18641   */\n      tag_278\n      jump\t// in\n    tag_502:\n        /* \"#utility.yul\":18616:18641   */\n      swap2\n      pop\n        /* \"#utility.yul\":18655:18675   */\n      tag_503\n        /* \"#utility.yul\":18673:18674   */\n      dup4\n        /* \"#utility.yul\":18655:18675   */\n      tag_278\n      jump\t// in\n    tag_503:\n        /* \"#utility.yul\":18650:18675   */\n      swap3\n      pop\n        /* \"#utility.yul\":18694:18695   */\n      dup3\n        /* \"#utility.yul\":18684:18719   */\n      tag_504\n      jumpi\n        /* \"#utility.yul\":18699:18717   */\n      tag_505\n      tag_320\n      jump\t// in\n    tag_505:\n        /* \"#utility.yul\":18684:18719   */\n    tag_504:\n        /* \"#utility.yul\":18741:18742   */\n      dup3\n        /* \"#utility.yul\":18738:18739   */\n      dup3\n        /* \"#utility.yul\":18734:18743   */\n      div\n        /* \"#utility.yul\":18729:18743   */\n      swap1\n      pop\n        /* \"#utility.yul\":18564:18749   */\n      swap3\n      swap2\n      pop\n      pop\n      jump\t// out\n        /* \"#utility.yul\":18755:18949   */\n    tag_167:\n        /* \"#utility.yul\":18795:18799   */\n      0x00\n        /* \"#utility.yul\":18815:18835   */\n      tag_507\n        /* \"#utility.yul\":18833:18834   */\n      dup3\n        /* \"#utility.yul\":18815:18835   */\n      tag_278\n      jump\t// in\n    tag_507:\n        /* \"#utility.yul\":18810:18835   */\n      swap2\n      pop\n        /* \"#utility.yul\":18849:18869   */\n      tag_508\n        /* \"#utility.yul\":18867:18868   */\n      dup4\n        /* \"#utility.yul\":18849:18869   */\n      tag_278\n      jump\t// in\n    tag_508:\n        /* \"#utility.yul\":18844:18869   */\n      swap3\n      pop\n        /* \"#utility.yul\":18893:18894   */\n      dup3\n        /* \"#utility.yul\":18890:18891   */\n      dup3\n        /* \"#utility.yul\":18886:18895   */\n      sub\n        /* \"#utility.yul\":18878:18895   */\n      swap1\n      pop\n        /* \"#utility.yul\":18917:18918   */\n      dup2\n        /* \"#utility.yul\":18911:18915   */\n      dup2\n        /* \"#utility.yul\":18908:18919   */\n      gt\n        /* \"#utility.yul\":18905:18942   */\n      iszero\n      tag_509\n      jumpi\n        /* \"#utility.yul\":18922:18940   */\n      tag_510\n      tag_319\n      jump\t// in\n    tag_510:\n        /* \"#utility.yul\":18905:18942   */\n    tag_509:\n        /* \"#utility.yul\":18755:18949   */\n      swap3\n      swap2\n      pop\n      pop\n      jump\t// out\n        /* \"#utility.yul\":18955:19300   */\n    tag_172:\n        /* \"#utility.yul\":19022:19028   */\n      0x00\n        /* \"#utility.yul\":19071:19073   */\n      0x20\n        /* \"#utility.yul\":19059:19068   */\n      dup3\n        /* \"#utility.yul\":19050:19057   */\n      dup5\n        /* \"#utility.yul\":19046:19069   */\n      sub\n        /* \"#utility.yul\":19042:19074   */\n      slt\n        /* \"#utility.yul\":19039:19158   */\n      iszero\n      tag_512\n      jumpi\n        /* \"#utility.yul\":19077:19156   */\n      tag_513\n      tag_276\n      jump\t// in\n    tag_513:\n        /* \"#utility.yul\":19039:19158   */\n    tag_512:\n        /* \"#utility.yul\":19197:19198   */\n      0x00\n        /* \"#utility.yul\":19222:19283   */\n      tag_514\n        /* \"#utility.yul\":19275:19282   */\n      dup5\n        /* \"#utility.yul\":19266:19272   */\n      dup3\n        /* \"#utility.yul\":19255:19264   */\n      dup6\n        /* \"#utility.yul\":19251:19273   */\n      add\n        /* \"#utility.yul\":19222:19283   */\n      tag_313\n      jump\t// in\n    tag_514:\n        /* \"#utility.yul\":19212:19283   */\n      swap2\n      pop\n        /* \"#utility.yul\":19168:19293   */\n      pop\n        /* \"#utility.yul\":18955:19300   */\n      swap3\n      swap2\n      pop\n      pop\n      jump\t// out\n        /* \"#utility.yul\":19306:19532   */\n    tag_321:\n        /* \"#utility.yul\":19446:19480   */\n      0x5769746864726177616c2066726f6d207969656c642061676772656761746f72\n        /* \"#utility.yul\":19442:19443   */\n      0x00\n        /* \"#utility.yul\":19434:19440   */\n      dup3\n        /* \"#utility.yul\":19430:19444   */\n      add\n        /* \"#utility.yul\":19423:19481   */\n      mstore\n        /* \"#utility.yul\":19515:19524   */\n      0x206661696c656400000000000000000000000000000000000000000000000000\n        /* \"#utility.yul\":19510:19512   */\n      0x20\n        /* \"#utility.yul\":19502:19508   */\n      dup3\n        /* \"#utility.yul\":19498:19513   */\n      add\n        /* \"#utility.yul\":19491:19525   */\n      mstore\n        /* \"#utility.yul\":19306:19532   */\n      pop\n      jump\t// out\n        /* \"#utility.yul\":19538:19904   */\n    tag_322:\n        /* \"#utility.yul\":19680:19683   */\n      0x00\n        /* \"#utility.yul\":19701:19768   */\n      tag_517\n        /* \"#utility.yul\":19765:19767   */\n      0x27\n        /* \"#utility.yul\":19760:19763   */\n      dup4\n        /* \"#utility.yul\":19701:19768   */\n      tag_286\n      jump\t// in\n    tag_517:\n        /* \"#utility.yul\":19694:19768   */\n      swap2\n      pop\n        /* \"#utility.yul\":19777:19870   */\n      tag_518\n        /* \"#utility.yul\":19866:19869   */\n      dup3\n        /* \"#utility.yul\":19777:19870   */\n      tag_321\n      jump\t// in\n    tag_518:\n        /* \"#utility.yul\":19895:19897   */\n      0x40\n        /* \"#utility.yul\":19890:19893   */\n      dup3\n        /* \"#utility.yul\":19886:19898   */\n      add\n        /* \"#utility.yul\":19879:19898   */\n      swap1\n      pop\n        /* \"#utility.yul\":19538:19904   */\n      swap2\n      swap1\n      pop\n      jump\t// out\n        /* \"#utility.yul\":19910:20329   */\n    tag_175:\n        /* \"#utility.yul\":20076:20080   */\n      0x00\n        /* \"#utility.yul\":20114:20116   */\n      0x20\n        /* \"#utility.yul\":20103:20112   */\n      dup3\n        /* \"#utility.yul\":20099:20117   */\n      add\n        /* \"#utility.yul\":20091:20117   */\n      swap1\n      pop\n        /* \"#utility.yul\":20163:20172   */\n      dup2\n        /* \"#utility.yul\":20157:20161   */\n      dup2\n        /* \"#utility.yul\":20153:20173   */\n      sub\n        /* \"#utility.yul\":20149:20150   */\n      0x00\n        /* \"#utility.yul\":20138:20147   */\n      dup4\n        /* \"#utility.yul\":20134:20151   */\n      add\n        /* \"#utility.yul\":20127:20174   */\n      mstore\n        /* \"#utility.yul\":20191:20322   */\n      tag_520\n        /* \"#utility.yul\":20317:20321   */\n      dup2\n        /* \"#utility.yul\":20191:20322   */\n      tag_322\n      jump\t// in\n    tag_520:\n        /* \"#utility.yul\":20183:20322   */\n      swap1\n      pop\n        /* \"#utility.yul\":19910:20329   */\n      swap2\n      swap1\n      pop\n      jump\t// out\n        /* \"#utility.yul\":20335:20433   */\n    tag_323:\n        /* \"#utility.yul\":20386:20392   */\n      0x00\n        /* \"#utility.yul\":20420:20425   */\n      dup2\n        /* \"#utility.yul\":20414:20426   */\n      mload\n        /* \"#utility.yul\":20404:20426   */\n      swap1\n      pop\n        /* \"#utility.yul\":20335:20433   */\n      swap2\n      swap1\n      pop\n      jump\t// out\n        /* \"#utility.yul\":20439:20586   */\n    tag_324:\n        /* \"#utility.yul\":20540:20551   */\n      0x00\n        /* \"#utility.yul\":20577:20580   */\n      dup2\n        /* \"#utility.yul\":20562:20580   */\n      swap1\n      pop\n        /* \"#utility.yul\":20439:20586   */\n      swap3\n      swap2\n      pop\n      pop\n      jump\t// out\n        /* \"#utility.yul\":20592:20731   */\n    tag_325:\n        /* \"#utility.yul\":20681:20687   */\n      dup3\n        /* \"#utility.yul\":20676:20679   */\n      dup2\n        /* \"#utility.yul\":20671:20674   */\n      dup4\n        /* \"#utility.yul\":20665:20688   */\n      mcopy\n        /* \"#utility.yul\":20722:20723   */\n      0x00\n        /* \"#utility.yul\":20713:20719   */\n      dup4\n        /* \"#utility.yul\":20708:20711   */\n      dup4\n        /* \"#utility.yul\":20704:20720   */\n      add\n        /* \"#utility.yul\":20697:20724   */\n      mstore\n        /* \"#utility.yul\":20592:20731   */\n      pop\n      pop\n      pop\n      jump\t// out\n        /* \"#utility.yul\":20737:21123   */\n    tag_326:\n        /* \"#utility.yul\":20841:20844   */\n      0x00\n        /* \"#utility.yul\":20869:20907   */\n      tag_525\n        /* \"#utility.yul\":20901:20906   */\n      dup3\n        /* \"#utility.yul\":20869:20907   */\n      tag_323\n      jump\t// in\n    tag_525:\n        /* \"#utility.yul\":20923:21011   */\n      tag_526\n        /* \"#utility.yul\":21004:21010   */\n      dup2\n        /* \"#utility.yul\":20999:21002   */\n      dup6\n        /* \"#utility.yul\":20923:21011   */\n      tag_324\n      jump\t// in\n    tag_526:\n        /* \"#utility.yul\":20916:21011   */\n      swap4\n      pop\n        /* \"#utility.yul\":21020:21085   */\n      tag_527\n        /* \"#utility.yul\":21078:21084   */\n      dup2\n        /* \"#utility.yul\":21073:21076   */\n      dup6\n        /* \"#utility.yul\":21066:21070   */\n      0x20\n        /* \"#utility.yul\":21059:21064   */\n      dup7\n        /* \"#utility.yul\":21055:21071   */\n      add\n        /* \"#utility.yul\":21020:21085   */\n      tag_325\n      jump\t// in\n    tag_527:\n        /* \"#utility.yul\":21110:21116   */\n      dup1\n        /* \"#utility.yul\":21105:21108   */\n      dup5\n        /* \"#utility.yul\":21101:21117   */\n      add\n        /* \"#utility.yul\":21094:21117   */\n      swap2\n      pop\n        /* \"#utility.yul\":20845:21123   */\n      pop\n        /* \"#utility.yul\":20737:21123   */\n      swap3\n      swap2\n      pop\n      pop\n      jump\t// out\n        /* \"#utility.yul\":21129:21400   */\n    tag_181:\n        /* \"#utility.yul\":21259:21262   */\n      0x00\n        /* \"#utility.yul\":21281:21374   */\n      tag_529\n        /* \"#utility.yul\":21370:21373   */\n      dup3\n        /* \"#utility.yul\":21361:21367   */\n      dup5\n        /* \"#utility.yul\":21281:21374   */\n      tag_326\n      jump\t// in\n    tag_529:\n        /* \"#utility.yul\":21274:21374   */\n      swap2\n      pop\n        /* \"#utility.yul\":21391:21394   */\n      dup2\n        /* \"#utility.yul\":21384:21394   */\n      swap1\n      pop\n        /* \"#utility.yul\":21129:21400   */\n      swap3\n      swap2\n      pop\n      pop\n      jump\t// out\n        /* \"#utility.yul\":21406:21574   */\n    tag_327:\n        /* \"#utility.yul\":21546:21566   */\n      0x466565206465706f736974206661696c65640000000000000000000000000000\n        /* \"#utility.yul\":21542:21543   */\n      0x00\n        /* \"#utility.yul\":21534:21540   */\n      dup3\n        /* \"#utility.yul\":21530:21544   */\n      add\n        /* \"#utility.yul\":21523:21567   */\n      mstore\n        /* \"#utility.yul\":21406:21574   */\n      pop\n      jump\t// out\n        /* \"#utility.yul\":21580:21946   */\n    tag_328:\n        /* \"#utility.yul\":21722:21725   */\n      0x00\n        /* \"#utility.yul\":21743:21810   */\n      tag_532\n        /* \"#utility.yul\":21807:21809   */\n      0x12\n        /* \"#utility.yul\":21802:21805   */\n      dup4\n        /* \"#utility.yul\":21743:21810   */\n      tag_286\n      jump\t// in\n    tag_532:\n        /* \"#utility.yul\":21736:21810   */\n      swap2\n      pop\n        /* \"#utility.yul\":21819:21912   */\n      tag_533\n        /* \"#utility.yul\":21908:21911   */\n      dup3\n        /* \"#utility.yul\":21819:21912   */\n      tag_327\n      jump\t// in\n    tag_533:\n        /* \"#utility.yul\":21937:21939   */\n      0x20\n        /* \"#utility.yul\":21932:21935   */\n      dup3\n        /* \"#utility.yul\":21928:21940   */\n      add\n        /* \"#utility.yul\":21921:21940   */\n      swap1\n      pop\n        /* \"#utility.yul\":21580:21946   */\n      swap2\n      swap1\n      pop\n      jump\t// out\n        /* \"#utility.yul\":21952:22371   */\n    tag_187:\n        /* \"#utility.yul\":22118:22122   */\n      0x00\n        /* \"#utility.yul\":22156:22158   */\n      0x20\n        /* \"#utility.yul\":22145:22154   */\n      dup3\n        /* \"#utility.yul\":22141:22159   */\n      add\n        /* \"#utility.yul\":22133:22159   */\n      swap1\n      pop\n        /* \"#utility.yul\":22205:22214   */\n      dup2\n        /* \"#utility.yul\":22199:22203   */\n      dup2\n        /* \"#utility.yul\":22195:22215   */\n      sub\n        /* \"#utility.yul\":22191:22192   */\n      0x00\n        /* \"#utility.yul\":22180:22189   */\n      dup4\n        /* \"#utility.yul\":22176:22193   */\n      add\n        /* \"#utility.yul\":22169:22216   */\n      mstore\n        /* \"#utility.yul\":22233:22364   */\n      tag_535\n        /* \"#utility.yul\":22359:22363   */\n      dup2\n        /* \"#utility.yul\":22233:22364   */\n      tag_328\n      jump\t// in\n    tag_535:\n        /* \"#utility.yul\":22225:22364   */\n      swap1\n      pop\n        /* \"#utility.yul\":21952:22371   */\n      swap2\n      swap1\n      pop\n      jump\t// out\n        /* \"#utility.yul\":22377:22602   */\n    tag_329:\n        /* \"#utility.yul\":22517:22551   */\n      0x4f776e61626c653a206e6577206f776e657220697320746865207a65726f2061\n        /* \"#utility.yul\":22513:22514   */\n      0x00\n        /* \"#utility.yul\":22505:22511   */\n      dup3\n        /* \"#utility.yul\":22501:22515   */\n      add\n        /* \"#utility.yul\":22494:22552   */\n      mstore\n        /* \"#utility.yul\":22586:22594   */\n      0x6464726573730000000000000000000000000000000000000000000000000000\n        /* \"#utility.yul\":22581:22583   */\n      0x20\n        /* \"#utility.yul\":22573:22579   */\n      dup3\n        /* \"#utility.yul\":22569:22584   */\n      add\n        /* \"#utility.yul\":22562:22595   */\n      mstore\n        /* \"#utility.yul\":22377:22602   */\n      pop\n      jump\t// out\n        /* \"#utility.yul\":22608:22974   */\n    tag_330:\n        /* \"#utility.yul\":22750:22753   */\n      0x00\n        /* \"#utility.yul\":22771:22838   */\n      tag_538\n        /* \"#utility.yul\":22835:22837   */\n      0x26\n        /* \"#utility.yul\":22830:22833   */\n      dup4\n        /* \"#utility.yul\":22771:22838   */\n      tag_286\n      jump\t// in\n    tag_538:\n        /* \"#utility.yul\":22764:22838   */\n      swap2\n      pop\n        /* \"#utility.yul\":22847:22940   */\n      tag_539\n        /* \"#utility.yul\":22936:22939   */\n      dup3\n        /* \"#utility.yul\":22847:22940   */\n      tag_329\n      jump\t// in\n    tag_539:\n        /* \"#utility.yul\":22965:22967   */\n      0x40\n        /* \"#utility.yul\":22960:22963   */\n      dup3\n        /* \"#utility.yul\":22956:22968   */\n      add\n        /* \"#utility.yul\":22949:22968   */\n      swap1\n      pop\n        /* \"#utility.yul\":22608:22974   */\n      swap2\n      swap1\n      pop\n      jump\t// out\n        /* \"#utility.yul\":22980:23399   */\n    tag_200:\n        /* \"#utility.yul\":23146:23150   */\n      0x00\n        /* \"#utility.yul\":23184:23186   */\n      0x20\n        /* \"#utility.yul\":23173:23182   */\n      dup3\n        /* \"#utility.yul\":23169:23187   */\n      add\n        /* \"#utility.yul\":23161:23187   */\n      swap1\n      pop\n        /* \"#utility.yul\":23233:23242   */\n      dup2\n        /* \"#utility.yul\":23227:23231   */\n      dup2\n        /* \"#utility.yul\":23223:23243   */\n      sub\n        /* \"#utility.yul\":23219:23220   */\n      0x00\n        /* \"#utility.yul\":23208:23217   */\n      dup4\n        /* \"#utility.yul\":23204:23221   */\n      add\n        /* \"#utility.yul\":23197:23244   */\n      mstore\n        /* \"#utility.yul\":23261:23392   */\n      tag_541\n        /* \"#utility.yul\":23387:23391   */\n      dup2\n        /* \"#utility.yul\":23261:23392   */\n      tag_330\n      jump\t// in\n    tag_541:\n        /* \"#utility.yul\":23253:23392   */\n      swap1\n      pop\n        /* \"#utility.yul\":22980:23399   */\n      swap2\n      swap1\n      pop\n      jump\t// out\n        /* \"#utility.yul\":23405:23756   */\n    tag_207:\n        /* \"#utility.yul\":23475:23481   */\n      0x00\n        /* \"#utility.yul\":23524:23526   */\n      0x20\n        /* \"#utility.yul\":23512:23521   */\n      dup3\n        /* \"#utility.yul\":23503:23510   */\n      dup5\n        /* \"#utility.yul\":23499:23522   */\n      sub\n        /* \"#utility.yul\":23495:23527   */\n      slt\n        /* \"#utility.yul\":23492:23611   */\n      iszero\n      tag_543\n      jumpi\n        /* \"#utility.yul\":23530:23609   */\n      tag_544\n      tag_276\n      jump\t// in\n    tag_544:\n        /* \"#utility.yul\":23492:23611   */\n    tag_543:\n        /* \"#utility.yul\":23650:23651   */\n      0x00\n        /* \"#utility.yul\":23675:23739   */\n      tag_545\n        /* \"#utility.yul\":23731:23738   */\n      dup5\n        /* \"#utility.yul\":23722:23728   */\n      dup3\n        /* \"#utility.yul\":23711:23720   */\n      dup6\n        /* \"#utility.yul\":23707:23729   */\n      add\n        /* \"#utility.yul\":23675:23739   */\n      tag_309\n      jump\t// in\n    tag_545:\n        /* \"#utility.yul\":23665:23739   */\n      swap2\n      pop\n        /* \"#utility.yul\":23621:23749   */\n      pop\n        /* \"#utility.yul\":23405:23756   */\n      swap3\n      swap2\n      pop\n      pop\n      jump\t// out\n        /* \"#utility.yul\":23762:23929   */\n    tag_331:\n        /* \"#utility.yul\":23902:23921   */\n      0x466565207261746520746f6f2068696768000000000000000000000000000000\n        /* \"#utility.yul\":23898:23899   */\n      0x00\n        /* \"#utility.yul\":23890:23896   */\n      dup3\n        /* \"#utility.yul\":23886:23900   */\n      add\n        /* \"#utility.yul\":23879:23922   */\n      mstore\n        /* \"#utility.yul\":23762:23929   */\n      pop\n      jump\t// out\n        /* \"#utility.yul\":23935:24301   */\n    tag_332:\n        /* \"#utility.yul\":24077:24080   */\n      0x00\n        /* \"#utility.yul\":24098:24165   */\n      tag_548\n        /* \"#utility.yul\":24162:24164   */\n      0x11\n        /* \"#utility.yul\":24157:24160   */\n      dup4\n        /* \"#utility.yul\":24098:24165   */\n      tag_286\n      jump\t// in\n    tag_548:\n        /* \"#utility.yul\":24091:24165   */\n      swap2\n      pop\n        /* \"#utility.yul\":24174:24267   */\n      tag_549\n        /* \"#utility.yul\":24263:24266   */\n      dup3\n        /* \"#utility.yul\":24174:24267   */\n      tag_331\n      jump\t// in\n    tag_549:\n        /* \"#utility.yul\":24292:24294   */\n      0x20\n        /* \"#utility.yul\":24287:24290   */\n      dup3\n        /* \"#utility.yul\":24283:24295   */\n      add\n        /* \"#utility.yul\":24276:24295   */\n      swap1\n      pop\n        /* \"#utility.yul\":23935:24301   */\n      swap2\n      swap1\n      pop\n      jump\t// out\n        /* \"#utility.yul\":24307:24726   */\n    tag_212:\n        /* \"#utility.yul\":24473:24477   */\n      0x00\n        /* \"#utility.yul\":24511:24513   */\n      0x20\n        /* \"#utility.yul\":24500:24509   */\n      dup3\n        /* \"#utility.yul\":24496:24514   */\n      add\n        /* \"#utility.yul\":24488:24514   */\n      swap1\n      pop\n        /* \"#utility.yul\":24560:24569   */\n      dup2\n        /* \"#utility.yul\":24554:24558   */\n      dup2\n        /* \"#utility.yul\":24550:24570   */\n      sub\n        /* \"#utility.yul\":24546:24547   */\n      0x00\n        /* \"#utility.yul\":24535:24544   */\n      dup4\n        /* \"#utility.yul\":24531:24548   */\n      add\n        /* \"#utility.yul\":24524:24571   */\n      mstore\n        /* \"#utility.yul\":24588:24719   */\n      tag_551\n        /* \"#utility.yul\":24714:24718   */\n      dup2\n        /* \"#utility.yul\":24588:24719   */\n      tag_332\n      jump\t// in\n    tag_551:\n        /* \"#utility.yul\":24580:24719   */\n      swap1\n      pop\n        /* \"#utility.yul\":24307:24726   */\n      swap2\n      swap1\n      pop\n      jump\t// out\n        /* \"#utility.yul\":24732:25064   */\n    tag_214:\n        /* \"#utility.yul\":24853:24857   */\n      0x00\n        /* \"#utility.yul\":24891:24893   */\n      0x40\n        /* \"#utility.yul\":24880:24889   */\n      dup3\n        /* \"#utility.yul\":24876:24894   */\n      add\n        /* \"#utility.yul\":24868:24894   */\n      swap1\n      pop\n        /* \"#utility.yul\":24904:24975   */\n      tag_553\n        /* \"#utility.yul\":24972:24973   */\n      0x00\n        /* \"#utility.yul\":24961:24970   */\n      dup4\n        /* \"#utility.yul\":24957:24974   */\n      add\n        /* \"#utility.yul\":24948:24954   */\n      dup6\n        /* \"#utility.yul\":24904:24975   */\n      tag_283\n      jump\t// in\n    tag_553:\n        /* \"#utility.yul\":24985:25057   */\n      tag_554\n        /* \"#utility.yul\":25053:25055   */\n      0x20\n        /* \"#utility.yul\":25042:25051   */\n      dup4\n        /* \"#utility.yul\":25038:25056   */\n      add\n        /* \"#utility.yul\":25029:25035   */\n      dup5\n        /* \"#utility.yul\":24985:25057   */\n      tag_283\n      jump\t// in\n    tag_554:\n        /* \"#utility.yul\":24732:25064   */\n      swap4\n      swap3\n      pop\n      pop\n      pop\n      jump\t// out\n        /* \"#utility.yul\":25070:25402   */\n    tag_219:\n        /* \"#utility.yul\":25191:25195   */\n      0x00\n        /* \"#utility.yul\":25229:25231   */\n      0x40\n        /* \"#utility.yul\":25218:25227   */\n      dup3\n        /* \"#utility.yul\":25214:25232   */\n      add\n        /* \"#utility.yul\":25206:25232   */\n      swap1\n      pop\n        /* \"#utility.yul\":25242:25313   */\n      tag_556\n        /* \"#utility.yul\":25310:25311   */\n      0x00\n        /* \"#utility.yul\":25299:25308   */\n      dup4\n        /* \"#utility.yul\":25295:25312   */\n      add\n        /* \"#utility.yul\":25286:25292   */\n      dup6\n        /* \"#utility.yul\":25242:25313   */\n      tag_274\n      jump\t// in\n    tag_556:\n        /* \"#utility.yul\":25323:25395   */\n      tag_557\n        /* \"#utility.yul\":25391:25393   */\n      0x20\n        /* \"#utility.yul\":25380:25389   */\n      dup4\n        /* \"#utility.yul\":25376:25394   */\n      add\n        /* \"#utility.yul\":25367:25373   */\n      dup5\n        /* \"#utility.yul\":25323:25395   */\n      tag_274\n      jump\t// in\n    tag_557:\n        /* \"#utility.yul\":25070:25402   */\n      swap4\n      swap3\n      pop\n      pop\n      pop\n      jump\t// out\n        /* \"#utility.yul\":25408:25649   */\n    tag_333:\n        /* \"#utility.yul\":25548:25582   */\n      0x5361666545524332303a20617070726f76652066726f6d206e6f6e2d7a65726f\n        /* \"#utility.yul\":25544:25545   */\n      0x00\n        /* \"#utility.yul\":25536:25542   */\n      dup3\n        /* \"#utility.yul\":25532:25546   */\n      add\n        /* \"#utility.yul\":25525:25583   */\n      mstore\n        /* \"#utility.yul\":25617:25641   */\n      0x20746f206e6f6e2d7a65726f20616c6c6f77616e636500000000000000000000\n        /* \"#utility.yul\":25612:25614   */\n      0x20\n        /* \"#utility.yul\":25604:25610   */\n      dup3\n        /* \"#utility.yul\":25600:25615   */\n      add\n        /* \"#utility.yul\":25593:25642   */\n      mstore\n        /* \"#utility.yul\":25408:25649   */\n      pop\n      jump\t// out\n        /* \"#utility.yul\":25655:26021   */\n    tag_334:\n        /* \"#utility.yul\":25797:25800   */\n      0x00\n        /* \"#utility.yul\":25818:25885   */\n      tag_560\n        /* \"#utility.yul\":25882:25884   */\n      0x36\n        /* \"#utility.yul\":25877:25880   */\n      dup4\n        /* \"#utility.yul\":25818:25885   */\n      tag_286\n      jump\t// in\n    tag_560:\n        /* \"#utility.yul\":25811:25885   */\n      swap2\n      pop\n        /* \"#utility.yul\":25894:25987   */\n      tag_561\n        /* \"#utility.yul\":25983:25986   */\n      dup3\n        /* \"#utility.yul\":25894:25987   */\n      tag_333\n      jump\t// in\n    tag_561:\n        /* \"#utility.yul\":26012:26014   */\n      0x40\n        /* \"#utility.yul\":26007:26010   */\n      dup3\n        /* \"#utility.yul\":26003:26015   */\n      add\n        /* \"#utility.yul\":25996:26015   */\n      swap1\n      pop\n        /* \"#utility.yul\":25655:26021   */\n      swap2\n      swap1\n      pop\n      jump\t// out\n        /* \"#utility.yul\":26027:26446   */\n    tag_225:\n        /* \"#utility.yul\":26193:26197   */\n      0x00\n        /* \"#utility.yul\":26231:26233   */\n      0x20\n        /* \"#utility.yul\":26220:26229   */\n      dup3\n        /* \"#utility.yul\":26216:26234   */\n      add\n        /* \"#utility.yul\":26208:26234   */\n      swap1\n      pop\n        /* \"#utility.yul\":26280:26289   */\n      dup2\n        /* \"#utility.yul\":26274:26278   */\n      dup2\n        /* \"#utility.yul\":26270:26290   */\n      sub\n        /* \"#utility.yul\":26266:26267   */\n      0x00\n        /* \"#utility.yul\":26255:26264   */\n      dup4\n        /* \"#utility.yul\":26251:26268   */\n      add\n        /* \"#utility.yul\":26244:26291   */\n      mstore\n        /* \"#utility.yul\":26308:26439   */\n      tag_563\n        /* \"#utility.yul\":26434:26438   */\n      dup2\n        /* \"#utility.yul\":26308:26439   */\n      tag_334\n      jump\t// in\n    tag_563:\n        /* \"#utility.yul\":26300:26439   */\n      swap1\n      pop\n        /* \"#utility.yul\":26027:26446   */\n      swap2\n      swap1\n      pop\n      jump\t// out\n        /* \"#utility.yul\":26452:26784   */\n    tag_228:\n        /* \"#utility.yul\":26573:26577   */\n      0x00\n        /* \"#utility.yul\":26611:26613   */\n      0x40\n        /* \"#utility.yul\":26600:26609   */\n      dup3\n        /* \"#utility.yul\":26596:26614   */\n      add\n        /* \"#utility.yul\":26588:26614   */\n      swap1\n      pop\n        /* \"#utility.yul\":26624:26695   */\n      tag_565\n        /* \"#utility.yul\":26692:26693   */\n      0x00\n        /* \"#utility.yul\":26681:26690   */\n      dup4\n        /* \"#utility.yul\":26677:26694   */\n      add\n        /* \"#utility.yul\":26668:26674   */\n      dup6\n        /* \"#utility.yul\":26624:26695   */\n      tag_274\n      jump\t// in\n    tag_565:\n        /* \"#utility.yul\":26705:26777   */\n      tag_566\n        /* \"#utility.yul\":26773:26775   */\n      0x20\n        /* \"#utility.yul\":26762:26771   */\n      dup4\n        /* \"#utility.yul\":26758:26776   */\n      add\n        /* \"#utility.yul\":26749:26755   */\n      dup5\n        /* \"#utility.yul\":26705:26777   */\n      tag_283\n      jump\t// in\n    tag_566:\n        /* \"#utility.yul\":26452:26784   */\n      swap4\n      swap3\n      pop\n      pop\n      pop\n      jump\t// out\n        /* \"#utility.yul\":26790:27019   */\n    tag_335:\n        /* \"#utility.yul\":26930:26964   */\n      0x5361666545524332303a204552433230206f7065726174696f6e20646964206e\n        /* \"#utility.yul\":26926:26927   */\n      0x00\n        /* \"#utility.yul\":26918:26924   */\n      dup3\n        /* \"#utility.yul\":26914:26928   */\n      add\n        /* \"#utility.yul\":26907:26965   */\n      mstore\n        /* \"#utility.yul\":26999:27011   */\n      0x6f74207375636365656400000000000000000000000000000000000000000000\n        /* \"#utility.yul\":26994:26996   */\n      0x20\n        /* \"#utility.yul\":26986:26992   */\n      dup3\n        /* \"#utility.yul\":26982:26997   */\n      add\n        /* \"#utility.yul\":26975:27012   */\n      mstore\n        /* \"#utility.yul\":26790:27019   */\n      pop\n      jump\t// out\n        /* \"#utility.yul\":27025:27391   */\n    tag_336:\n        /* \"#utility.yul\":27167:27170   */\n      0x00\n        /* \"#utility.yul\":27188:27255   */\n      tag_569\n        /* \"#utility.yul\":27252:27254   */\n      0x2a\n        /* \"#utility.yul\":27247:27250   */\n      dup4\n        /* \"#utility.yul\":27188:27255   */\n      tag_286\n      jump\t// in\n    tag_569:\n        /* \"#utility.yul\":27181:27255   */\n      swap2\n      pop\n        /* \"#utility.yul\":27264:27357   */\n      tag_570\n        /* \"#utility.yul\":27353:27356   */\n      dup3\n        /* \"#utility.yul\":27264:27357   */\n      tag_335\n      jump\t// in\n    tag_570:\n        /* \"#utility.yul\":27382:27384   */\n      0x40\n        /* \"#utility.yul\":27377:27380   */\n      dup3\n        /* \"#utility.yul\":27373:27385   */\n      add\n        /* \"#utility.yul\":27366:27385   */\n      swap1\n      pop\n        /* \"#utility.yul\":27025:27391   */\n      swap2\n      swap1\n      pop\n      jump\t// out\n        /* \"#utility.yul\":27397:27816   */\n    tag_240:\n        /* \"#utility.yul\":27563:27567   */\n      0x00\n        /* \"#utility.yul\":27601:27603   */\n      0x20\n        /* \"#utility.yul\":27590:27599   */\n      dup3\n        /* \"#utility.yul\":27586:27604   */\n      add\n        /* \"#utility.yul\":27578:27604   */\n      swap1\n      pop\n        /* \"#utility.yul\":27650:27659   */\n      dup2\n        /* \"#utility.yul\":27644:27648   */\n      dup2\n        /* \"#utility.yul\":27640:27660   */\n      sub\n        /* \"#utility.yul\":27636:27637   */\n      0x00\n        /* \"#utility.yul\":27625:27634   */\n      dup4\n        /* \"#utility.yul\":27621:27638   */\n      add\n        /* \"#utility.yul\":27614:27661   */\n      mstore\n        /* \"#utility.yul\":27678:27809   */\n      tag_572\n        /* \"#utility.yul\":27804:27808   */\n      dup2\n        /* \"#utility.yul\":27678:27809   */\n      tag_336\n      jump\t// in\n    tag_572:\n        /* \"#utility.yul\":27670:27809   */\n      swap1\n      pop\n        /* \"#utility.yul\":27397:27816   */\n      swap2\n      swap1\n      pop\n      jump\t// out\n        /* \"#utility.yul\":27822:28047   */\n    tag_337:\n        /* \"#utility.yul\":27962:27996   */\n      0x416464726573733a20696e73756666696369656e742062616c616e636520666f\n        /* \"#utility.yul\":27958:27959   */\n      0x00\n        /* \"#utility.yul\":27950:27956   */\n      dup3\n        /* \"#utility.yul\":27946:27960   */\n      add\n        /* \"#utility.yul\":27939:27997   */\n      mstore\n        /* \"#utility.yul\":28031:28039   */\n      0x722063616c6c0000000000000000000000000000000000000000000000000000\n        /* \"#utility.yul\":28026:28028   */\n      0x20\n        /* \"#utility.yul\":28018:28024   */\n      dup3\n        /* \"#utility.yul\":28014:28029   */\n      add\n        /* \"#utility.yul\":28007:28040   */\n      mstore\n        /* \"#utility.yul\":27822:28047   */\n      pop\n      jump\t// out\n        /* \"#utility.yul\":28053:28419   */\n    tag_338:\n        /* \"#utility.yul\":28195:28198   */\n      0x00\n        /* \"#utility.yul\":28216:28283   */\n      tag_575\n        /* \"#utility.yul\":28280:28282   */\n      0x26\n        /* \"#utility.yul\":28275:28278   */\n      dup4\n        /* \"#utility.yul\":28216:28283   */\n      tag_286\n      jump\t// in\n    tag_575:\n        /* \"#utility.yul\":28209:28283   */\n      swap2\n      pop\n        /* \"#utility.yul\":28292:28385   */\n      tag_576\n        /* \"#utility.yul\":28381:28384   */\n      dup3\n        /* \"#utility.yul\":28292:28385   */\n      tag_337\n      jump\t// in\n    tag_576:\n        /* \"#utility.yul\":28410:28412   */\n      0x40\n        /* \"#utility.yul\":28405:28408   */\n      dup3\n        /* \"#utility.yul\":28401:28413   */\n      add\n        /* \"#utility.yul\":28394:28413   */\n      swap1\n      pop\n        /* \"#utility.yul\":28053:28419   */\n      swap2\n      swap1\n      pop\n      jump\t// out\n        /* \"#utility.yul\":28425:28844   */\n    tag_247:\n        /* \"#utility.yul\":28591:28595   */\n      0x00\n        /* \"#utility.yul\":28629:28631   */\n      0x20\n        /* \"#utility.yul\":28618:28627   */\n      dup3\n        /* \"#utility.yul\":28614:28632   */\n      add\n        /* \"#utility.yul\":28606:28632   */\n      swap1\n      pop\n        /* \"#utility.yul\":28678:28687   */\n      dup2\n        /* \"#utility.yul\":28672:28676   */\n      dup2\n        /* \"#utility.yul\":28668:28688   */\n      sub\n        /* \"#utility.yul\":28664:28665   */\n      0x00\n        /* \"#utility.yul\":28653:28662   */\n      dup4\n        /* \"#utility.yul\":28649:28666   */\n      add\n        /* \"#utility.yul\":28642:28689   */\n      mstore\n        /* \"#utility.yul\":28706:28837   */\n      tag_578\n        /* \"#utility.yul\":28832:28836   */\n      dup2\n        /* \"#utility.yul\":28706:28837   */\n      tag_338\n      jump\t// in\n    tag_578:\n        /* \"#utility.yul\":28698:28837   */\n      swap1\n      pop\n        /* \"#utility.yul\":28425:28844   */\n      swap2\n      swap1\n      pop\n      jump\t// out\n        /* \"#utility.yul\":28850:29029   */\n    tag_339:\n        /* \"#utility.yul\":28990:29021   */\n      0x416464726573733a2063616c6c20746f206e6f6e2d636f6e7472616374000000\n        /* \"#utility.yul\":28986:28987   */\n      0x00\n        /* \"#utility.yul\":28978:28984   */\n      dup3\n        /* \"#utility.yul\":28974:28988   */\n      add\n        /* \"#utility.yul\":28967:29022   */\n      mstore\n        /* \"#utility.yul\":28850:29029   */\n      pop\n      jump\t// out\n        /* \"#utility.yul\":29035:29401   */\n    tag_340:\n        /* \"#utility.yul\":29177:29180   */\n      0x00\n        /* \"#utility.yul\":29198:29265   */\n      tag_581\n        /* \"#utility.yul\":29262:29264   */\n      0x1d\n        /* \"#utility.yul\":29257:29260   */\n      dup4\n        /* \"#utility.yul\":29198:29265   */\n      tag_286\n      jump\t// in\n    tag_581:\n        /* \"#utility.yul\":29191:29265   */\n      swap2\n      pop\n        /* \"#utility.yul\":29274:29367   */\n      tag_582\n        /* \"#utility.yul\":29363:29366   */\n      dup3\n        /* \"#utility.yul\":29274:29367   */\n      tag_339\n      jump\t// in\n    tag_582:\n        /* \"#utility.yul\":29392:29394   */\n      0x20\n        /* \"#utility.yul\":29387:29390   */\n      dup3\n        /* \"#utility.yul\":29383:29395   */\n      add\n        /* \"#utility.yul\":29376:29395   */\n      swap1\n      pop\n        /* \"#utility.yul\":29035:29401   */\n      swap2\n      swap1\n      pop\n      jump\t// out\n        /* \"#utility.yul\":29407:29826   */\n    tag_252:\n        /* \"#utility.yul\":29573:29577   */\n      0x00\n        /* \"#utility.yul\":29611:29613   */\n      0x20\n        /* \"#utility.yul\":29600:29609   */\n      dup3\n        /* \"#utility.yul\":29596:29614   */\n      add\n        /* \"#utility.yul\":29588:29614   */\n      swap1\n      pop\n        /* \"#utility.yul\":29660:29669   */\n      dup2\n        /* \"#utility.yul\":29654:29658   */\n      dup2\n        /* \"#utility.yul\":29650:29670   */\n      sub\n        /* \"#utility.yul\":29646:29647   */\n      0x00\n        /* \"#utility.yul\":29635:29644   */\n      dup4\n        /* \"#utility.yul\":29631:29648   */\n      add\n        /* \"#utility.yul\":29624:29671   */\n      mstore\n        /* \"#utility.yul\":29688:29819   */\n      tag_584\n        /* \"#utility.yul\":29814:29818   */\n      dup2\n        /* \"#utility.yul\":29688:29819   */\n      tag_340\n      jump\t// in\n    tag_584:\n        /* \"#utility.yul\":29680:29819   */\n      swap1\n      pop\n        /* \"#utility.yul\":29407:29826   */\n      swap2\n      swap1\n      pop\n      jump\t// out\n        /* \"#utility.yul\":29832:29931   */\n    tag_341:\n        /* \"#utility.yul\":29884:29890   */\n      0x00\n        /* \"#utility.yul\":29918:29923   */\n      dup2\n        /* \"#utility.yul\":29912:29924   */\n      mload\n        /* \"#utility.yul\":29902:29924   */\n      swap1\n      pop\n        /* \"#utility.yul\":29832:29931   */\n      swap2\n      swap1\n      pop\n      jump\t// out\n        /* \"#utility.yul\":29937:30314   */\n    tag_342:\n        /* \"#utility.yul\":30025:30028   */\n      0x00\n        /* \"#utility.yul\":30053:30092   */\n      tag_587\n        /* \"#utility.yul\":30086:30091   */\n      dup3\n        /* \"#utility.yul\":30053:30092   */\n      tag_341\n      jump\t// in\n    tag_587:\n        /* \"#utility.yul\":30108:30179   */\n      tag_588\n        /* \"#utility.yul\":30172:30178   */\n      dup2\n        /* \"#utility.yul\":30167:30170   */\n      dup6\n        /* \"#utility.yul\":30108:30179   */\n      tag_286\n      jump\t// in\n    tag_588:\n        /* \"#utility.yul\":30101:30179   */\n      swap4\n      pop\n        /* \"#utility.yul\":30188:30253   */\n      tag_589\n        /* \"#utility.yul\":30246:30252   */\n      dup2\n        /* \"#utility.yul\":30241:30244   */\n      dup6\n        /* \"#utility.yul\":30234:30238   */\n      0x20\n        /* \"#utility.yul\":30227:30232   */\n      dup7\n        /* \"#utility.yul\":30223:30239   */\n      add\n        /* \"#utility.yul\":30188:30253   */\n      tag_325\n      jump\t// in\n    tag_589:\n        /* \"#utility.yul\":30278:30307   */\n      tag_590\n        /* \"#utility.yul\":30300:30306   */\n      dup2\n        /* \"#utility.yul\":30278:30307   */\n      tag_304\n      jump\t// in\n    tag_590:\n        /* \"#utility.yul\":30273:30276   */\n      dup5\n        /* \"#utility.yul\":30269:30308   */\n      add\n        /* \"#utility.yul\":30262:30308   */\n      swap2\n      pop\n        /* \"#utility.yul\":30029:30314   */\n      pop\n        /* \"#utility.yul\":29937:30314   */\n      swap3\n      swap2\n      pop\n      pop\n      jump\t// out\n        /* \"#utility.yul\":30320:30633   */\n    tag_266:\n        /* \"#utility.yul\":30433:30437   */\n      0x00\n        /* \"#utility.yul\":30471:30473   */\n      0x20\n        /* \"#utility.yul\":30460:30469   */\n      dup3\n        /* \"#utility.yul\":30456:30474   */\n      add\n        /* \"#utility.yul\":30448:30474   */\n      swap1\n      pop\n        /* \"#utility.yul\":30520:30529   */\n      dup2\n        /* \"#utility.yul\":30514:30518   */\n      dup2\n        /* \"#utility.yul\":30510:30530   */\n      sub\n        /* \"#utility.yul\":30506:30507   */\n      0x00\n        /* \"#utility.yul\":30495:30504   */\n      dup4\n        /* \"#utility.yul\":30491:30508   */\n      add\n        /* \"#utility.yul\":30484:30531   */\n      mstore\n        /* \"#utility.yul\":30548:30626   */\n      tag_592\n        /* \"#utility.yul\":30621:30625   */\n      dup2\n        /* \"#utility.yul\":30612:30618   */\n      dup5\n        /* \"#utility.yul\":30548:30626   */\n      tag_342\n      jump\t// in\n    tag_592:\n        /* \"#utility.yul\":30540:30626   */\n      swap1\n      pop\n        /* \"#utility.yul\":30320:30633   */\n      swap3\n      swap2\n      pop\n      pop\n      jump\t// out\n\n    auxdata: 0xa26469706673582212207ef20738c72fecd0dc4bb200ef93040fdda59c4bbed3ac24e4487c645601946764736f6c634300081e0033\n}\n",
				"bytecode": {
					"linkReferences": {},
					"object": "60806040526101f4600555348015610015575f5ffd5b50604051612bc4380380612bc4833981810160405281019061003791906102ff565b61005361004861011760201b60201c565b61011e60201b60201c565b5f73ffffffffffffffffffffffffffffffffffffffff168273ffffffffffffffffffffffffffffffffffffffff16036100c1576040517f08c379a00000000000000000000000000000000000000000000000000000000081526004016100b890610397565b60405180910390fd5b8160035f6101000a81548173ffffffffffffffffffffffffffffffffffffffff021916908373ffffffffffffffffffffffffffffffffffffffff160217905550610110816101df60201b60201c565b5050610453565b5f33905090565b5f5f5f9054906101000a900473ffffffffffffffffffffffffffffffffffffffff169050815f5f6101000a81548173ffffffffffffffffffffffffffffffffffffffff021916908373ffffffffffffffffffffffffffffffffffffffff1602179055508173ffffffffffffffffffffffffffffffffffffffff168173ffffffffffffffffffffffffffffffffffffffff167f8be0079c531659141344cd1fd0a4f28419497f9722a3daafe3b4186f6b6457e060405160405180910390a35050565b6107d0811115610224576040517f08c379a000000000000000000000000000000000000000000000000000000000815260040161021b906103ff565b60405180910390fd5b5f6005549050816005819055507f14914da2bf76024616fbe1859783fcd4dbddcb179b1f3a854949fbf920dcb957818360405161026292919061042c565b60405180910390a15050565b5f5ffd5b5f73ffffffffffffffffffffffffffffffffffffffff82169050919050565b5f61029b82610272565b9050919050565b6102ab81610291565b81146102b5575f5ffd5b50565b5f815190506102c6816102a2565b92915050565b5f819050919050565b6102de816102cc565b81146102e8575f5ffd5b50565b5f815190506102f9816102d5565b92915050565b5f5f604083850312156103155761031461026e565b5b5f610322858286016102b8565b9250506020610333858286016102eb565b9150509250929050565b5f82825260208201905092915050565b7f496e76616c6964206c6f747465727920616464726573730000000000000000005f82015250565b5f61038160178361033d565b915061038c8261034d565b602082019050919050565b5f6020820190508181035f8301526103ae81610375565b9050919050565b7f466565207261746520746f6f20686967680000000000000000000000000000005f82015250565b5f6103e960118361033d565b91506103f4826103b5565b602082019050919050565b5f6020820190508181035f830152610416816103dd565b9050919050565b610426816102cc565b82525050565b5f60408201905061043f5f83018561041d565b61044c602083018461041d565b9392505050565b612764806104605f395ff3fe6080604052600436106100f2575f3560e01c8063978bbdb911610089578063d709815411610058578063d7098154146102b2578063f2fde38b146102da578063f6fe872714610302578063fbfa77cf1461032c576100f2565b8063978bbdb91461022c578063992b48de14610256578063b3ede13f1461027e578063ba13a57214610288576100f2565b80636817031b116100c55780636817031b1461019a578063715018a6146101c25780638da5cb5b146101d857806392f6576e14610202576100f2565b80632a194b6d146100f65780633fc8cef31461012057806345596e2e1461014a5780635b769f3c14610172575b5f5ffd5b348015610101575f5ffd5b5061010a610356565b60405161011791906118f9565b60405180910390f35b34801561012b575f5ffd5b5061013461037b565b6040516101419190611932565b60405180910390f35b348015610155575f5ffd5b50610170600480360381019061016b919061198b565b6103a0565b005b34801561017d575f5ffd5b50610198600480360381019061019391906119e0565b610428565b005b3480156101a5575f5ffd5b506101c060048036038101906101bb91906119e0565b610555565b005b3480156101cd575f5ffd5b506101d66106c5565b005b3480156101e3575f5ffd5b506101ec61074c565b6040516101f99190611932565b60405180910390f35b34801561020d575f5ffd5b50610216610773565b6040516102239190611a1a565b60405180910390f35b348015610237575f5ffd5b50610240610779565b60405161024d9190611a1a565b60405180910390f35b348015610261575f5ffd5b5061027c600480360381019061027791906119e0565b61077f565b005b61028661092c565b005b348015610293575f5ffd5b5061029c610967565b6040516102a99190611a53565b60405180910390f35b3480156102bd575f5ffd5b506102d860048036038101906102d3919061198b565b61098c565b005b3480156102e5575f5ffd5b5061030060048036038101906102fb91906119e0565b6110d7565b005b34801561030d575f5ffd5b506103166111cd565b6040516103239190611a1a565b60405180910390f35b348015610337575f5ffd5b506103406112be565b60405161034d9190611932565b60405180910390f35b60015f9054906101000a900473ffffffffffffffffffffffffffffffffffffffff1681565b60045f9054906101000a900473ffffffffffffffffffffffffffffffffffffffff1681565b6103a86112e3565b73ffffffffffffffffffffffffffffffffffffffff166103c661074c565b73ffffffffffffffffffffffffffffffffffffffff161461041c576040517f08c379a000000000000000000000000000000000000000000000000000000000815260040161041390611ac6565b60405180910390fd5b610425816112ea565b50565b6104306112e3565b73ffffffffffffffffffffffffffffffffffffffff1661044e61074c565b73ffffffffffffffffffffffffffffffffffffffff16146104a4576040517f08c379a000000000000000000000000000000000000000000000000000000000815260040161049b90611ac6565b60405180910390fd5b5f73ffffffffffffffffffffffffffffffffffffffff168173ffffffffffffffffffffffffffffffffffffffff1603610512576040517f08c379a000000000000000000000000000000000000000000000000000000000815260040161050990611b2e565b60405180910390fd5b8060045f6101000a81548173ffffffffffffffffffffffffffffffffffffffff021916908373ffffffffffffffffffffffffffffffffffffffff16021790555050565b61055d6112e3565b73ffffffffffffffffffffffffffffffffffffffff1661057b61074c565b73ffffffffffffffffffffffffffffffffffffffff16146105d1576040517f08c379a00000000000000000000000000000000000000000000000000000000081526004016105c890611ac6565b60405180910390fd5b5f73ffffffffffffffffffffffffffffffffffffffff168173ffffffffffffffffffffffffffffffffffffffff160361063f576040517f08c379a000000000000000000000000000000000000000000000000000000000815260040161063690611b96565b60405180910390fd5b8060025f6101000a81548173ffffffffffffffffffffffffffffffffffffffff021916908373ffffffffffffffffffffffffffffffffffffffff1602179055508073ffffffffffffffffffffffffffffffffffffffff167fe7ae49f883c825b05681b3e00e8be6fdea9ed2a8a45e4c6ecb9390fc44cce61560405160405180910390a250565b6106cd6112e3565b73ffffffffffffffffffffffffffffffffffffffff166106eb61074c565b73ffffffffffffffffffffffffffffffffffffffff1614610741576040517f08c379a000000000000000000000000000000000000000000000000000000000815260040161073890611ac6565b60405180910390fd5b61074a5f611379565b565b5f5f5f9054906101000a900473ffffffffffffffffffffffffffffffffffffffff16905090565b6107d081565b60055481565b6107876112e3565b73ffffffffffffffffffffffffffffffffffffffff166107a561074c565b73ffffffffffffffffffffffffffffffffffffffff16146107fb576040517f08c379a00000000000000000000000000000000000000000000000000000000081526004016107f290611ac6565b60405180910390fd5b5f73ffffffffffffffffffffffffffffffffffffffff168173ffffffffffffffffffffffffffffffffffffffff1603610869576040517f08c379a000000000000000000000000000000000000000000000000000000000815260040161086090611bfe565b60405180910390fd5b5f60015f9054906101000a900473ffffffffffffffffffffffffffffffffffffffff1690508160015f6101000a81548173ffffffffffffffffffffffffffffffffffffffff021916908373ffffffffffffffffffffffffffffffffffffffff1602179055508173ffffffffffffffffffffffffffffffffffffffff168173ffffffffffffffffffffffffffffffffffffffff167fc50d8ef9b57c270b939cf88365a0e6c8dcf9b867c2b1fe31ec181897e3d6a4db60405160405180910390a35050565b6040517f08c379a000000000000000000000000000000000000000000000000000000000815260040161095e90611cb2565b60405180910390fd5b60035f9054906101000a900473ffffffffffffffffffffffffffffffffffffffff1681565b5f73ffffffffffffffffffffffffffffffffffffffff1660015f9054906101000a900473ffffffffffffffffffffffffffffffffffffffff1673ffffffffffffffffffffffffffffffffffffffff1603610a1b576040517f08c379a0000000000000000000000000000000000000000000000000000000008152600401610a1290611d1a565b60405180910390fd5b5f73ffffffffffffffffffffffffffffffffffffffff1660025f9054906101000a900473ffffffffffffffffffffffffffffffffffffffff1673ffffffffffffffffffffffffffffffffffffffff1603610aaa576040517f08c379a0000000000000000000000000000000000000000000000000000000008152600401610aa190611d82565b60405180910390fd5b5f73ffffffffffffffffffffffffffffffffffffffff1660045f9054906101000a900473ffffffffffffffffffffffffffffffffffffffff1673ffffffffffffffffffffffffffffffffffffffff1603610b39576040517f08c379a0000000000000000000000000000000000000000000000000000000008152600401610b3090611dea565b60405180910390fd5b5f60035f9054906101000a900473ffffffffffffffffffffffffffffffffffffffff1673ffffffffffffffffffffffffffffffffffffffff1663c4a909ba836040518263ffffffff1660e01b8152600401610b949190611a1a565b60e060405180830381865afa158015610baf573d5f5f3e3d5ffd5b505050506040513d601f19601f82011682018060405250810190610bd39190611fa2565b90503373ffffffffffffffffffffffffffffffffffffffff16816020015173ffffffffffffffffffffffffffffffffffffffff1614610c47576040517f08c379a0000000000000000000000000000000000000000000000000000000008152600401610c3e90612017565b60405180910390fd5b8060a0015115610c8c576040517f08c379a0000000000000000000000000000000000000000000000000000000008152600401610c839061207f565b60405180910390fd5b60035f9054906101000a900473ffffffffffffffffffffffffffffffffffffffff1673ffffffffffffffffffffffffffffffffffffffff1663b2a6c4a4836040518263ffffffff1660e01b8152600401610ce69190611a1a565b5f604051808303815f87803b158015610cfd575f5ffd5b505af1158015610d0f573d5f5f3e3d5ffd5b505050505f6127106005548360400151610d2991906120ca565b610d339190612138565b90505f818360400151610d469190612168565b90505f60015f9054906101000a900473ffffffffffffffffffffffffffffffffffffffff1673ffffffffffffffffffffffffffffffffffffffff16632e1a7d4d85604001516040518263ffffffff1660e01b8152600401610da79190611a1a565b6020604051808303815f875af1158015610dc3573d5f5f3e3d5ffd5b505050506040513d601f19601f82011682018060405250810190610de7919061219b565b905080610e29576040517f08c379a0000000000000000000000000000000000000000000000000000000008152600401610e2090612236565b60405180910390fd5b5f83111561102d57610e9e60025f9054906101000a900473ffffffffffffffffffffffffffffffffffffffff168460045f9054906101000a900473ffffffffffffffffffffffffffffffffffffffff1673ffffffffffffffffffffffffffffffffffffffff1661143a9092919063ffffffff16565b5f60025f9054906101000a900473ffffffffffffffffffffffffffffffffffffffff1673ffffffffffffffffffffffffffffffffffffffff1684604051602401610ee89190611a1a565b6040516020818303038152906040527f111663e8000000000000000000000000000000000000000000000000000000007bffffffffffffffffffffffffffffffffffffffffffffffffffffffff19166020820180517bffffffffffffffffffffffffffffffffffffffffffffffffffffffff8381831617835250505050604051610f7291906122a6565b5f604051808303815f865af19150503d805f8114610fab576040519150601f19603f3d011682016040523d82523d5f602084013e610fb0565b606091505b5050905080610ff4576040517f08c379a0000000000000000000000000000000000000000000000000000000008152600401610feb90612306565b60405180910390fd5b7fc472cb3a7a659a876494d66b3063145f279701771d6150b9329c31611ed6405c846040516110239190611a1a565b60405180910390a1505b61107d84602001518360045f9054906101000a900473ffffffffffffffffffffffffffffffffffffffff1673ffffffffffffffffffffffffffffffffffffffff166115859092919063ffffffff16565b84846020015173ffffffffffffffffffffffffffffffffffffffff167f256642a903d86ec186d0ad895b74bdbe7f9e5a72db568f4c4d58c2fa38b39e1c846040516110c89190611a1a565b60405180910390a35050505050565b6110df6112e3565b73ffffffffffffffffffffffffffffffffffffffff166110fd61074c565b73ffffffffffffffffffffffffffffffffffffffff1614611153576040517f08c379a000000000000000000000000000000000000000000000000000000000815260040161114a90611ac6565b60405180910390fd5b5f73ffffffffffffffffffffffffffffffffffffffff168173ffffffffffffffffffffffffffffffffffffffff16036111c1576040517f08c379a00000000000000000000000000000000000000000000000000000000081526004016111b890612394565b60405180910390fd5b6111ca81611379565b50565b5f5f73ffffffffffffffffffffffffffffffffffffffff1660015f9054906101000a900473ffffffffffffffffffffffffffffffffffffffff1673ffffffffffffffffffffffffffffffffffffffff16146112b75760015f9054906101000a900473ffffffffffffffffffffffffffffffffffffffff1673ffffffffffffffffffffffffffffffffffffffff1663722713f76040518163ffffffff1660e01b8152600401602060405180830381865afa15801561128c573d5f5f3e3d5ffd5b505050506040513d601f19601f820116820180604052508101906112b091906123b2565b90506112bb565b5f90505b90565b60025f9054906101000a900473ffffffffffffffffffffffffffffffffffffffff1681565b5f33905090565b6107d081111561132f576040517f08c379a000000000000000000000000000000000000000000000000000000000815260040161132690612427565b60405180910390fd5b5f6005549050816005819055507f14914da2bf76024616fbe1859783fcd4dbddcb179b1f3a854949fbf920dcb957818360405161136d929190612445565b60405180910390a15050565b5f5f5f9054906101000a900473ffffffffffffffffffffffffffffffffffffffff169050815f5f6101000a81548173ffffffffffffffffffffffffffffffffffffffff021916908373ffffffffffffffffffffffffffffffffffffffff1602179055508173ffffffffffffffffffffffffffffffffffffffff168173ffffffffffffffffffffffffffffffffffffffff167f8be0079c531659141344cd1fd0a4f28419497f9722a3daafe3b4186f6b6457e060405160405180910390a35050565b5f8114806114c057505f8373ffffffffffffffffffffffffffffffffffffffff1663dd62ed3e30856040518363ffffffff1660e01b815260040161147f92919061246c565b602060405180830381865afa15801561149a573d5f5f3e3d5ffd5b505050506040513d601f19601f820116820180604052508101906114be91906123b2565b145b6114ff576040517f08c379a00000000000000000000000000000000000000000000000000000000081526004016114f690612503565b60405180910390fd5b6115808363095ea7b360e01b848460405160240161151e929190612521565b604051602081830303815290604052907bffffffffffffffffffffffffffffffffffffffffffffffffffffffff19166020820180517bffffffffffffffffffffffffffffffffffffffffffffffffffffffff838183161783525050505061160b565b505050565b6116068363a9059cbb60e01b84846040516024016115a4929190612521565b604051602081830303815290604052907bffffffffffffffffffffffffffffffffffffffffffffffffffffffff19166020820180517bffffffffffffffffffffffffffffffffffffffffffffffffffffffff838183161783525050505061160b565b505050565b5f61166c826040518060400160405280602081526020017f5361666545524332303a206c6f772d6c6576656c2063616c6c206661696c65648152508573ffffffffffffffffffffffffffffffffffffffff166116d09092919063ffffffff16565b90505f815111156116cb578080602001905181019061168b919061219b565b6116ca576040517f08c379a00000000000000000000000000000000000000000000000000000000081526004016116c1906125b8565b60405180910390fd5b5b505050565b60606116de84845f856116e7565b90509392505050565b60608247101561172c576040517f08c379a000000000000000000000000000000000000000000000000000000000815260040161172390612646565b60405180910390fd5b611735856117f7565b611774576040517f08c379a000000000000000000000000000000000000000000000000000000000815260040161176b906126ae565b60405180910390fd5b5f5f8673ffffffffffffffffffffffffffffffffffffffff16858760405161179c91906122a6565b5f6040518083038185875af1925050503d805f81146117d6576040519150601f19603f3d011682016040523d82523d5f602084013e6117db565b606091505b50915091506117eb828286611819565b92505050949350505050565b5f5f8273ffffffffffffffffffffffffffffffffffffffff163b119050919050565b6060831561182957829050611878565b5f8351111561183b5782518084602001fd5b816040517f08c379a000000000000000000000000000000000000000000000000000000000815260040161186f919061270e565b60405180910390fd5b9392505050565b5f73ffffffffffffffffffffffffffffffffffffffff82169050919050565b5f819050919050565b5f6118c16118bc6118b78461187f565b61189e565b61187f565b9050919050565b5f6118d2826118a7565b9050919050565b5f6118e3826118c8565b9050919050565b6118f3816118d9565b82525050565b5f60208201905061190c5f8301846118ea565b92915050565b5f61191c8261187f565b9050919050565b61192c81611912565b82525050565b5f6020820190506119455f830184611923565b92915050565b5f604051905090565b5f5ffd5b5f819050919050565b61196a81611958565b8114611974575f5ffd5b50565b5f8135905061198581611961565b92915050565b5f602082840312156119a05761199f611954565b5b5f6119ad84828501611977565b91505092915050565b6119bf81611912565b81146119c9575f5ffd5b50565b5f813590506119da816119b6565b92915050565b5f602082840312156119f5576119f4611954565b5b5f611a02848285016119cc565b91505092915050565b611a1481611958565b82525050565b5f602082019050611a2d5f830184611a0b565b92915050565b5f611a3d826118c8565b9050919050565b611a4d81611a33565b82525050565b5f602082019050611a665f830184611a44565b92915050565b5f82825260208201905092915050565b7f4f776e61626c653a2063616c6c6572206973206e6f7420746865206f776e65725f82015250565b5f611ab0602083611a6c565b9150611abb82611a7c565b602082019050919050565b5f6020820190508181035f830152611add81611aa4565b9050919050565b7f496e76616c6964205745544820616464726573730000000000000000000000005f82015250565b5f611b18601483611a6c565b9150611b2382611ae4565b602082019050919050565b5f6020820190508181035f830152611b4581611b0c565b9050919050565b7f496e76616c6964207661756c74206164647265737300000000000000000000005f82015250565b5f611b80601583611a6c565b9150611b8b82611b4c565b602082019050919050565b5f6020820190508181035f830152611bad81611b74565b9050919050565b7f496e76616c6964205969656c6441676772656761746f722061646472657373005f82015250565b5f611be8601f83611a6c565b9150611bf382611bb4565b602082019050919050565b5f6020820190508181035f830152611c1581611bdc565b9050919050565b7f53797374656d206e6f772075736573205745544820746f6b656e7320696e73745f8201527f656164206f66204554482e20506c6561736520757365206465706f736974466560208201527f6546726f6d546f6b656e732066756e6374696f6e20696e205661756c742e0000604082015250565b5f611c9c605e83611a6c565b9150611ca782611c1c565b606082019050919050565b5f6020820190508181035f830152611cc981611c90565b9050919050565b7f5969656c6441676772656761746f72206e6f74207365740000000000000000005f82015250565b5f611d04601783611a6c565b9150611d0f82611cd0565b602082019050919050565b5f6020820190508181035f830152611d3181611cf8565b9050919050565b7f5661756c74206e6f7420736574000000000000000000000000000000000000005f82015250565b5f611d6c600d83611a6c565b9150611d7782611d38565b602082019050919050565b5f6020820190508181035f830152611d9981611d60565b9050919050565b7f57455448206e6f742073657400000000000000000000000000000000000000005f82015250565b5f611dd4600c83611a6c565b9150611ddf82611da0565b602082019050919050565b5f6020820190508181035f830152611e0181611dc8565b9050919050565b5f5ffd5b5f601f19601f8301169050919050565b7f4e487b71000000000000000000000000000000000000000000000000000000005f52604160045260245ffd5b611e5282611e0c565b810181811067ffffffffffffffff82111715611e7157611e70611e1c565b5b80604052505050565b5f611e8361194b565b9050611e8f8282611e49565b919050565b5f81519050611ea281611961565b92915050565b5f81519050611eb6816119b6565b92915050565b5f8115159050919050565b611ed081611ebc565b8114611eda575f5ffd5b50565b5f81519050611eeb81611ec7565b92915050565b5f60e08284031215611f0657611f05611e08565b5b611f1060e0611e7a565b90505f611f1f84828501611e94565b5f830152506020611f3284828501611ea8565b6020830152506040611f4684828501611e94565b6040830152506060611f5a84828501611e94565b6060830152506080611f6e84828501611e94565b60808301525060a0611f8284828501611edd565b60a08301525060c0611f9684828501611e94565b60c08301525092915050565b5f60e08284031215611fb757611fb6611954565b5b5f611fc484828501611ef1565b91505092915050565b7f4e6f74207468652077696e6e65720000000000000000000000000000000000005f82015250565b5f612001600e83611a6c565b915061200c82611fcd565b602082019050919050565b5f6020820190508181035f83015261202e81611ff5565b9050919050565b7f5072697a6520616c726561647920636c61696d656400000000000000000000005f82015250565b5f612069601583611a6c565b915061207482612035565b602082019050919050565b5f6020820190508181035f8301526120968161205d565b9050919050565b7f4e487b71000000000000000000000000000000000000000000000000000000005f52601160045260245ffd5b5f6120d482611958565b91506120df83611958565b92508282026120ed81611958565b915082820484148315176121045761210361209d565b5b5092915050565b7f4e487b71000000000000000000000000000000000000000000000000000000005f52601260045260245ffd5b5f61214282611958565b915061214d83611958565b92508261215d5761215c61210b565b5b828204905092915050565b5f61217282611958565b915061217d83611958565b92508282039050818111156121955761219461209d565b5b92915050565b5f602082840312156121b0576121af611954565b5b5f6121bd84828501611edd565b91505092915050565b7f5769746864726177616c2066726f6d207969656c642061676772656761746f725f8201527f206661696c656400000000000000000000000000000000000000000000000000602082015250565b5f612220602783611a6c565b915061222b826121c6565b604082019050919050565b5f6020820190508181035f83015261224d81612214565b9050919050565b5f81519050919050565b5f81905092915050565b8281835e5f83830152505050565b5f61228082612254565b61228a818561225e565b935061229a818560208601612268565b80840191505092915050565b5f6122b18284612276565b915081905092915050565b7f466565206465706f736974206661696c656400000000000000000000000000005f82015250565b5f6122f0601283611a6c565b91506122fb826122bc565b602082019050919050565b5f6020820190508181035f83015261231d816122e4565b9050919050565b7f4f776e61626c653a206e6577206f776e657220697320746865207a65726f20615f8201527f6464726573730000000000000000000000000000000000000000000000000000602082015250565b5f61237e602683611a6c565b915061238982612324565b604082019050919050565b5f6020820190508181035f8301526123ab81612372565b9050919050565b5f602082840312156123c7576123c6611954565b5b5f6123d484828501611e94565b91505092915050565b7f466565207261746520746f6f20686967680000000000000000000000000000005f82015250565b5f612411601183611a6c565b915061241c826123dd565b602082019050919050565b5f6020820190508181035f83015261243e81612405565b9050919050565b5f6040820190506124585f830185611a0b565b6124656020830184611a0b565b9392505050565b5f60408201905061247f5f830185611923565b61248c6020830184611923565b9392505050565b7f5361666545524332303a20617070726f76652066726f6d206e6f6e2d7a65726f5f8201527f20746f206e6f6e2d7a65726f20616c6c6f77616e636500000000000000000000602082015250565b5f6124ed603683611a6c565b91506124f882612493565b604082019050919050565b5f6020820190508181035f83015261251a816124e1565b9050919050565b5f6040820190506125345f830185611923565b6125416020830184611a0b565b9392505050565b7f5361666545524332303a204552433230206f7065726174696f6e20646964206e5f8201527f6f74207375636365656400000000000000000000000000000000000000000000602082015250565b5f6125a2602a83611a6c565b91506125ad82612548565b604082019050919050565b5f6020820190508181035f8301526125cf81612596565b9050919050565b7f416464726573733a20696e73756666696369656e742062616c616e636520666f5f8201527f722063616c6c0000000000000000000000000000000000000000000000000000602082015250565b5f612630602683611a6c565b915061263b826125d6565b604082019050919050565b5f6020820190508181035f83015261265d81612624565b9050919050565b7f416464726573733a2063616c6c20746f206e6f6e2d636f6e74726163740000005f82015250565b5f612698601d83611a6c565b91506126a382612664565b602082019050919050565b5f6020820190508181035f8301526126c58161268c565b9050919050565b5f81519050919050565b5f6126e0826126cc565b6126ea8185611a6c565b93506126fa818560208601612268565b61270381611e0c565b840191505092915050565b5f6020820190508181035f83015261272681846126d6565b90509291505056fea26469706673582212207ef20738c72fecd0dc4bb200ef93040fdda59c4bbed3ac24e4487c645601946764736f6c634300081e0033",
					"opcodes": "PUSH1 0x80 PUSH1 0x40 MSTORE PUSH2 0x1F4 PUSH1 0x5 SSTORE CALLVALUE DUP1 ISZERO PUSH2 0x15 JUMPI PUSH0 PUSH0 REVERT JUMPDEST POP PUSH1 0x40 MLOAD PUSH2 0x2BC4 CODESIZE SUB DUP1 PUSH2 0x2BC4 DUP4 CODECOPY DUP2 DUP2 ADD PUSH1 0x40 MSTORE DUP2 ADD SWAP1 PUSH2 0x37 SWAP2 SWAP1 PUSH2 0x2FF JUMP JUMPDEST PUSH2 0x53 PUSH2 0x48 PUSH2 0x117 PUSH1 0x20 SHL PUSH1 0x20 SHR JUMP JUMPDEST PUSH2 0x11E PUSH1 0x20 SHL PUSH1 0x20 SHR JUMP JUMPDEST PUSH0 PUSH20 0xFFFFFFFFFFFFFFFFFFFFFFFFFFFFFFFFFFFFFFFF AND DUP3 PUSH20 0xFFFFFFFFFFFFFFFFFFFFFFFFFFFFFFFFFFFFFFFF AND SUB PUSH2 0xC1 JUMPI PUSH1 0x40 MLOAD PUSH32 0x8C379A000000000000000000000000000000000000000000000000000000000 DUP2 MSTORE PUSH1 0x4 ADD PUSH2 0xB8 SWAP1 PUSH2 0x397 JUMP JUMPDEST PUSH1 0x40 MLOAD DUP1 SWAP2 SUB SWAP1 REVERT JUMPDEST DUP2 PUSH1 0x3 PUSH0 PUSH2 0x100 EXP DUP2 SLOAD DUP2 PUSH20 0xFFFFFFFFFFFFFFFFFFFFFFFFFFFFFFFFFFFFFFFF MUL NOT AND SWAP1 DUP4 PUSH20 0xFFFFFFFFFFFFFFFFFFFFFFFFFFFFFFFFFFFFFFFF AND MUL OR SWAP1 SSTORE POP PUSH2 0x110 DUP2 PUSH2 0x1DF PUSH1 0x20 SHL PUSH1 0x20 SHR JUMP JUMPDEST POP POP PUSH2 0x453 JUMP JUMPDEST PUSH0 CALLER SWAP1 POP SWAP1 JUMP JUMPDEST PUSH0 PUSH0 PUSH0 SWAP1 SLOAD SWAP1 PUSH2 0x100 EXP SWAP1 DIV PUSH20 0xFFFFFFFFFFFFFFFFFFFFFFFFFFFFFFFFFFFFFFFF AND SWAP1 POP DUP2 PUSH0 PUSH0 PUSH2 0x100 EXP DUP2 SLOAD DUP2 PUSH20 0xFFFFFFFFFFFFFFFFFFFFFFFFFFFFFFFFFFFFFFFF MUL NOT AND SWAP1 DUP4 PUSH20 0xFFFFFFFFFFFFFFFFFFFFFFFFFFFFFFFFFFFFFFFF AND MUL OR SWAP1 SSTORE POP DUP2 PUSH20 0xFFFFFFFFFFFFFFFFFFFFFFFFFFFFFFFFFFFFFFFF AND DUP2 PUSH20 0xFFFFFFFFFFFFFFFFFFFFFFFFFFFFFFFFFFFFFFFF AND PUSH32 0x8BE0079C531659141344CD1FD0A4F28419497F9722A3DAAFE3B4186F6B6457E0 PUSH1 0x40 MLOAD PUSH1 0x40 MLOAD DUP1 SWAP2 SUB SWAP1 LOG3 POP POP JUMP JUMPDEST PUSH2 0x7D0 DUP2 GT ISZERO PUSH2 0x224 JUMPI PUSH1 0x40 MLOAD PUSH32 0x8C379A000000000000000000000000000000000000000000000000000000000 DUP2 MSTORE PUSH1 0x4 ADD PUSH2 0x21B SWAP1 PUSH2 0x3FF JUMP JUMPDEST PUSH1 0x40 MLOAD DUP1 SWAP2 SUB SWAP1 REVERT JUMPDEST PUSH0 PUSH1 0x5 SLOAD SWAP1 POP DUP2 PUSH1 0x5 DUP2 SWAP1 SSTORE POP PUSH32 0x14914DA2BF76024616FBE1859783FCD4DBDDCB179B1F3A854949FBF920DCB957 DUP2 DUP4 PUSH1 0x40 MLOAD PUSH2 0x262 SWAP3 SWAP2 SWAP1 PUSH2 0x42C JUMP JUMPDEST PUSH1 0x40 MLOAD DUP1 SWAP2 SUB SWAP1 LOG1 POP POP JUMP JUMPDEST PUSH0 PUSH0 REVERT JUMPDEST PUSH0 PUSH20 0xFFFFFFFFFFFFFFFFFFFFFFFFFFFFFFFFFFFFFFFF DUP3 AND SWAP1 POP SWAP2 SWAP1 POP JUMP JUMPDEST PUSH0 PUSH2 0x29B DUP3 PUSH2 0x272 JUMP JUMPDEST SWAP1 POP SWAP2 SWAP1 POP JUMP JUMPDEST PUSH2 0x2AB DUP2 PUSH2 0x291 JUMP JUMPDEST DUP2 EQ PUSH2 0x2B5 JUMPI PUSH0 PUSH0 REVERT JUMPDEST POP JUMP JUMPDEST PUSH0 DUP2 MLOAD SWAP1 POP PUSH2 0x2C6 DUP2 PUSH2 0x2A2 JUMP JUMPDEST SWAP3 SWAP2 POP POP JUMP JUMPDEST PUSH0 DUP2 SWAP1 POP SWAP2 SWAP1 POP JUMP JUMPDEST PUSH2 0x2DE DUP2 PUSH2 0x2CC JUMP JUMPDEST DUP2 EQ PUSH2 0x2E8 JUMPI PUSH0 PUSH0 REVERT JUMPDEST POP JUMP JUMPDEST PUSH0 DUP2 MLOAD SWAP1 POP PUSH2 0x2F9 DUP2 PUSH2 0x2D5 JUMP JUMPDEST SWAP3 SWAP2 POP POP JUMP JUMPDEST PUSH0 PUSH0 PUSH1 0x40 DUP4 DUP6 SUB SLT ISZERO PUSH2 0x315 JUMPI PUSH2 0x314 PUSH2 0x26E JUMP JUMPDEST JUMPDEST PUSH0 PUSH2 0x322 DUP6 DUP3 DUP7 ADD PUSH2 0x2B8 JUMP JUMPDEST SWAP3 POP POP PUSH1 0x20 PUSH2 0x333 DUP6 DUP3 DUP7 ADD PUSH2 0x2EB JUMP JUMPDEST SWAP2 POP POP SWAP3 POP SWAP3 SWAP1 POP JUMP JUMPDEST PUSH0 DUP3 DUP3 MSTORE PUSH1 0x20 DUP3 ADD SWAP1 POP SWAP3 SWAP2 POP POP JUMP JUMPDEST PUSH32 0x496E76616C6964206C6F74746572792061646472657373000000000000000000 PUSH0 DUP3 ADD MSTORE POP JUMP JUMPDEST PUSH0 PUSH2 0x381 PUSH1 0x17 DUP4 PUSH2 0x33D JUMP JUMPDEST SWAP2 POP PUSH2 0x38C DUP3 PUSH2 0x34D JUMP JUMPDEST PUSH1 0x20 DUP3 ADD SWAP1 POP SWAP2 SWAP1 POP JUMP JUMPDEST PUSH0 PUSH1 0x20 DUP3 ADD SWAP1 POP DUP2 DUP2 SUB PUSH0 DUP4 ADD MSTORE PUSH2 0x3AE DUP2 PUSH2 0x375 JUMP JUMPDEST SWAP1 POP SWAP2 SWAP1 POP JUMP JUMPDEST PUSH32 0x466565207261746520746F6F2068696768000000000000000000000000000000 PUSH0 DUP3 ADD MSTORE POP JUMP JUMPDEST PUSH0 PUSH2 0x3E9 PUSH1 0x11 DUP4 PUSH2 0x33D JUMP JUMPDEST SWAP2 POP PUSH2 0x3F4 DUP3 PUSH2 0x3B5 JUMP JUMPDEST PUSH1 0x20 DUP3 ADD SWAP1 POP SWAP2 SWAP1 POP JUMP JUMPDEST PUSH0 PUSH1 0x20 DUP3 ADD SWAP1 POP DUP2 DUP2 SUB PUSH0 DUP4 ADD MSTORE PUSH2 0x416 DUP2 PUSH2 0x3DD JUMP JUMPDEST SWAP1 POP SWAP2 SWAP1 POP JUMP JUMPDEST PUSH2 0x426 DUP2 PUSH2 0x2CC JUMP JUMPDEST DUP3 MSTORE POP POP JUMP JUMPDEST PUSH0 PUSH1 0x40 DUP3 ADD SWAP1 POP PUSH2 0x43F PUSH0 DUP4 ADD DUP6 PUSH2 0x41D JUMP JUMPDEST PUSH2 0x44C PUSH1 0x20 DUP4 ADD DUP5 PUSH2 0x41D JUMP JUMPDEST SWAP4 SWAP3 POP POP POP JUMP JUMPDEST PUSH2 0x2764 DUP1 PUSH2 0x460 PUSH0 CODECOPY PUSH0 RETURN INVALID PUSH1 0x80 PUSH1 0x40 MSTORE PUSH1 0x4 CALLDATASIZE LT PUSH2 0xF2 JUMPI PUSH0 CALLDATALOAD PUSH1 0xE0 SHR DUP1 PUSH4 0x978BBDB9 GT PUSH2 0x89 JUMPI DUP1 PUSH4 0xD7098154 GT PUSH2 0x58 JUMPI DUP1 PUSH4 0xD7098154 EQ PUSH2 0x2B2 JUMPI DUP1 PUSH4 0xF2FDE38B EQ PUSH2 0x2DA JUMPI DUP1 PUSH4 0xF6FE8727 EQ PUSH2 0x302 JUMPI DUP1 PUSH4 0xFBFA77CF EQ PUSH2 0x32C JUMPI PUSH2 0xF2 JUMP JUMPDEST DUP1 PUSH4 0x978BBDB9 EQ PUSH2 0x22C JUMPI DUP1 PUSH4 0x992B48DE EQ PUSH2 0x256 JUMPI DUP1 PUSH4 0xB3EDE13F EQ PUSH2 0x27E JUMPI DUP1 PUSH4 0xBA13A572 EQ PUSH2 0x288 JUMPI PUSH2 0xF2 JUMP JUMPDEST DUP1 PUSH4 0x6817031B GT PUSH2 0xC5 JUMPI DUP1 PUSH4 0x6817031B EQ PUSH2 0x19A JUMPI DUP1 PUSH4 0x715018A6 EQ PUSH2 0x1C2 JUMPI DUP1 PUSH4 0x8DA5CB5B EQ PUSH2 0x1D8 JUMPI DUP1 PUSH4 0x92F6576E EQ PUSH2 0x202 JUMPI PUSH2 0xF2 JUMP JUMPDEST DUP1 PUSH4 0x2A194B6D EQ PUSH2 0xF6 JUMPI DUP1 PUSH4 0x3FC8CEF3 EQ PUSH2 0x120 JUMPI DUP1 PUSH4 0x45596E2E EQ PUSH2 0x14A JUMPI DUP1 PUSH4 0x5B769F3C EQ PUSH2 0x172 JUMPI JUMPDEST PUSH0 PUSH0 REVERT JUMPDEST CALLVALUE DUP1 ISZERO PUSH2 0x101 JUMPI PUSH0 PUSH0 REVERT JUMPDEST POP PUSH2 0x10A PUSH2 0x356 JUMP JUMPDEST PUSH1 0x40 MLOAD PUSH2 0x117 SWAP2 SWAP1 PUSH2 0x18F9 JUMP JUMPDEST PUSH1 0x40 MLOAD DUP1 SWAP2 SUB SWAP1 RETURN JUMPDEST CALLVALUE DUP1 ISZERO PUSH2 0x12B JUMPI PUSH0 PUSH0 REVERT JUMPDEST POP PUSH2 0x134 PUSH2 0x37B JUMP JUMPDEST PUSH1 0x40 MLOAD PUSH2 0x141 SWAP2 SWAP1 PUSH2 0x1932 JUMP JUMPDEST PUSH1 0x40 MLOAD DUP1 SWAP2 SUB SWAP1 RETURN JUMPDEST CALLVALUE DUP1 ISZERO PUSH2 0x155 JUMPI PUSH0 PUSH0 REVERT JUMPDEST POP PUSH2 0x170 PUSH1 0x4 DUP1 CALLDATASIZE SUB DUP2 ADD SWAP1 PUSH2 0x16B SWAP2 SWAP1 PUSH2 0x198B JUMP JUMPDEST PUSH2 0x3A0 JUMP JUMPDEST STOP JUMPDEST CALLVALUE DUP1 ISZERO PUSH2 0x17D JUMPI PUSH0 PUSH0 REVERT JUMPDEST POP PUSH2 0x198 PUSH1 0x4 DUP1 CALLDATASIZE SUB DUP2 ADD SWAP1 PUSH2 0x193 SWAP2 SWAP1 PUSH2 0x19E0 JUMP JUMPDEST PUSH2 0x428 JUMP JUMPDEST STOP JUMPDEST CALLVALUE DUP1 ISZERO PUSH2 0x1A5 JUMPI PUSH0 PUSH0 REVERT JUMPDEST POP PUSH2 0x1C0 PUSH1 0x4 DUP1 CALLDATASIZE SUB DUP2 ADD SWAP1 PUSH2 0x1BB SWAP2 SWAP1 PUSH2 0x19E0 JUMP JUMPDEST PUSH2 0x555 JUMP JUMPDEST STOP JUMPDEST CALLVALUE DUP1 ISZERO PUSH2 0x1CD JUMPI PUSH0 PUSH0 REVERT JUMPDEST POP PUSH2 0x1D6 PUSH2 0x6C5 JUMP JUMPDEST STOP JUMPDEST CALLVALUE DUP1 ISZERO PUSH2 0x1E3 JUMPI PUSH0 PUSH0 REVERT JUMPDEST POP PUSH2 0x1EC PUSH2 0x74C JUMP JUMPDEST PUSH1 0x40 MLOAD PUSH2 0x1F9 SWAP2 SWAP1 PUSH2 0x1932 JUMP JUMPDEST PUSH1 0x40 MLOAD DUP1 SWAP2 SUB SWAP1 RETURN JUMPDEST CALLVALUE DUP1 ISZERO PUSH2 0x20D JUMPI PUSH0 PUSH0 REVERT JUMPDEST POP PUSH2 0x216 PUSH2 0x773 JUMP JUMPDEST PUSH1 0x40 MLOAD PUSH2 0x223 SWAP2 SWAP1 PUSH2 0x1A1A JUMP JUMPDEST PUSH1 0x40 MLOAD DUP1 SWAP2 SUB SWAP1 RETURN JUMPDEST CALLVALUE DUP1 ISZERO PUSH2 0x237 JUMPI PUSH0 PUSH0 REVERT JUMPDEST POP PUSH2 0x240 PUSH2 0x779 JUMP JUMPDEST PUSH1 0x40 MLOAD PUSH2 0x24D SWAP2 SWAP1 PUSH2 0x1A1A JUMP JUMPDEST PUSH1 0x40 MLOAD DUP1 SWAP2 SUB SWAP1 RETURN JUMPDEST CALLVALUE DUP1 ISZERO PUSH2 0x261 JUMPI PUSH0 PUSH0 REVERT JUMPDEST POP PUSH2 0x27C PUSH1 0x4 DUP1 CALLDATASIZE SUB DUP2 ADD SWAP1 PUSH2 0x277 SWAP2 SWAP1 PUSH2 0x19E0 JUMP JUMPDEST PUSH2 0x77F JUMP JUMPDEST STOP JUMPDEST PUSH2 0x286 PUSH2 0x92C JUMP JUMPDEST STOP JUMPDEST CALLVALUE DUP1 ISZERO PUSH2 0x293 JUMPI PUSH0 PUSH0 REVERT JUMPDEST POP PUSH2 0x29C PUSH2 0x967 JUMP JUMPDEST PUSH1 0x40 MLOAD PUSH2 0x2A9 SWAP2 SWAP1 PUSH2 0x1A53 JUMP JUMPDEST PUSH1 0x40 MLOAD DUP1 SWAP2 SUB SWAP1 RETURN JUMPDEST CALLVALUE DUP1 ISZERO PUSH2 0x2BD JUMPI PUSH0 PUSH0 REVERT JUMPDEST POP PUSH2 0x2D8 PUSH1 0x4 DUP1 CALLDATASIZE SUB DUP2 ADD SWAP1 PUSH2 0x2D3 SWAP2 SWAP1 PUSH2 0x198B JUMP JUMPDEST PUSH2 0x98C JUMP JUMPDEST STOP JUMPDEST CALLVALUE DUP1 ISZERO PUSH2 0x2E5 JUMPI PUSH0 PUSH0 REVERT JUMPDEST POP PUSH2 0x300 PUSH1 0x4 DUP1 CALLDATASIZE SUB DUP2 ADD SWAP1 PUSH2 0x2FB SWAP2 SWAP1 PUSH2 0x19E0 JUMP JUMPDEST PUSH2 0x10D7 JUMP JUMPDEST STOP JUMPDEST CALLVALUE DUP1 ISZERO PUSH2 0x30D JUMPI PUSH0 PUSH0 REVERT JUMPDEST POP PUSH2 0x316 PUSH2 0x11CD JUMP JUMPDEST PUSH1 0x40 MLOAD PUSH2 0x323 SWAP2 SWAP1 PUSH2 0x1A1A JUMP JUMPDEST PUSH1 0x40 MLOAD DUP1 SWAP2 SUB SWAP1 RETURN JUMPDEST CALLVALUE DUP1 ISZERO PUSH2 0x337 JUMPI PUSH0 PUSH0 REVERT JUMPDEST POP PUSH2 0x340 PUSH2 0x12BE JUMP JUMPDEST PUSH1 0x40 MLOAD PUSH2 0x34D SWAP2 SWAP1 PUSH2 0x1932 JUMP JUMPDEST PUSH1 0x40 MLOAD DUP1 SWAP2 SUB SWAP1 RETURN JUMPDEST PUSH1 0x1 PUSH0 SWAP1 SLOAD SWAP1 PUSH2 0x100 EXP SWAP1 DIV PUSH20 0xFFFFFFFFFFFFFFFFFFFFFFFFFFFFFFFFFFFFFFFF AND DUP2 JUMP JUMPDEST PUSH1 0x4 PUSH0 SWAP1 SLOAD SWAP1 PUSH2 0x100 EXP SWAP1 DIV PUSH20 0xFFFFFFFFFFFFFFFFFFFFFFFFFFFFFFFFFFFFFFFF AND DUP2 JUMP JUMPDEST PUSH2 0x3A8 PUSH2 0x12E3 JUMP JUMPDEST PUSH20 0xFFFFFFFFFFFFFFFFFFFFFFFFFFFFFFFFFFFFFFFF AND PUSH2 0x3C6 PUSH2 0x74C JUMP JUMPDEST PUSH20 0xFFFFFFFFFFFFFFFFFFFFFFFFFFFFFFFFFFFFFFFF AND EQ PUSH2 0x41C JUMPI PUSH1 0x40 MLOAD PUSH32 0x8C379A000000000000000000000000000000000000000000000000000000000 DUP2 MSTORE PUSH1 0x4 ADD PUSH2 0x413 SWAP1 PUSH2 0x1AC6 JUMP JUMPDEST PUSH1 0x40 MLOAD DUP1 SWAP2 SUB SWAP1 REVERT JUMPDEST PUSH2 0x425 DUP2 PUSH2 0x12EA JUMP JUMPDEST POP JUMP JUMPDEST PUSH2 0x430 PUSH2 0x12E3 JUMP JUMPDEST PUSH20 0xFFFFFFFFFFFFFFFFFFFFFFFFFFFFFFFFFFFFFFFF AND PUSH2 0x44E PUSH2 0x74C JUMP JUMPDEST PUSH20 0xFFFFFFFFFFFFFFFFFFFFFFFFFFFFFFFFFFFFFFFF AND EQ PUSH2 0x4A4 JUMPI PUSH1 0x40 MLOAD PUSH32 0x8C379A000000000000000000000000000000000000000000000000000000000 DUP2 MSTORE PUSH1 0x4 ADD PUSH2 0x49B SWAP1 PUSH2 0x1AC6 JUMP JUMPDEST PUSH1 0x40 MLOAD DUP1 SWAP2 SUB SWAP1 REVERT JUMPDEST PUSH0 PUSH20 0xFFFFFFFFFFFFFFFFFFFFFFFFFFFFFFFFFFFFFFFF AND DUP2 PUSH20 0xFFFFFFFFFFFFFFFFFFFFFFFFFFFFFFFFFFFFFFFF AND SUB PUSH2 0x512 JUMPI PUSH1 0x40 MLOAD PUSH32 0x8C379A000000000000000000000000000000000000000000000000000000000 DUP2 MSTORE PUSH1 0x4 ADD PUSH2 0x509 SWAP1 PUSH2 0x1B2E JUMP JUMPDEST PUSH1 0x40 MLOAD DUP1 SWAP2 SUB SWAP1 REVERT JUMPDEST DUP1 PUSH1 0x4 PUSH0 PUSH2 0x100 EXP DUP2 SLOAD DUP2 PUSH20 0xFFFFFFFFFFFFFFFFFFFFFFFFFFFFFFFFFFFFFFFF MUL NOT AND SWAP1 DUP4 PUSH20 0xFFFFFFFFFFFFFFFFFFFFFFFFFFFFFFFFFFFFFFFF AND MUL OR SWAP1 SSTORE POP POP JUMP JUMPDEST PUSH2 0x55D PUSH2 0x12E3 JUMP JUMPDEST PUSH20 0xFFFFFFFFFFFFFFFFFFFFFFFFFFFFFFFFFFFFFFFF AND PUSH2 0x57B PUSH2 0x74C JUMP JUMPDEST PUSH20 0xFFFFFFFFFFFFFFFFFFFFFFFFFFFFFFFFFFFFFFFF AND EQ PUSH2 0x5D1 JUMPI PUSH1 0x40 MLOAD PUSH32 0x8C379A000000000000000000000000000000000000000000000000000000000 DUP2 MSTORE PUSH1 0x4 ADD PUSH2 0x5C8 SWAP1 PUSH2 0x1AC6 JUMP JUMPDEST PUSH1 0x40 MLOAD DUP1 SWAP2 SUB SWAP1 REVERT JUMPDEST PUSH0 PUSH20 0xFFFFFFFFFFFFFFFFFFFFFFFFFFFFFFFFFFFFFFFF AND DUP2 PUSH20 0xFFFFFFFFFFFFFFFFFFFFFFFFFFFFFFFFFFFFFFFF AND SUB PUSH2 0x63F JUMPI PUSH1 0x40 MLOAD PUSH32 0x8C379A000000000000000000000000000000000000000000000000000000000 DUP2 MSTORE PUSH1 0x4 ADD PUSH2 0x636 SWAP1 PUSH2 0x1B96 JUMP JUMPDEST PUSH1 0x40 MLOAD DUP1 SWAP2 SUB SWAP1 REVERT JUMPDEST DUP1 PUSH1 0x2 PUSH0 PUSH2 0x100 EXP DUP2 SLOAD DUP2 PUSH20 0xFFFFFFFFFFFFFFFFFFFFFFFFFFFFFFFFFFFFFFFF MUL NOT AND SWAP1 DUP4 PUSH20 0xFFFFFFFFFFFFFFFFFFFFFFFFFFFFFFFFFFFFFFFF AND MUL OR SWAP1 SSTORE POP DUP1 PUSH20 0xFFFFFFFFFFFFFFFFFFFFFFFFFFFFFFFFFFFFFFFF AND PUSH32 0xE7AE49F883C825B05681B3E00E8BE6FDEA9ED2A8A45E4C6ECB9390FC44CCE615 PUSH1 0x40 MLOAD PUSH1 0x40 MLOAD DUP1 SWAP2 SUB SWAP1 LOG2 POP JUMP JUMPDEST PUSH2 0x6CD PUSH2 0x12E3 JUMP JUMPDEST PUSH20 0xFFFFFFFFFFFFFFFFFFFFFFFFFFFFFFFFFFFFFFFF AND PUSH2 0x6EB PUSH2 0x74C JUMP JUMPDEST PUSH20 0xFFFFFFFFFFFFFFFFFFFFFFFFFFFFFFFFFFFFFFFF AND EQ PUSH2 0x741 JUMPI PUSH1 0x40 MLOAD PUSH32 0x8C379A000000000000000000000000000000000000000000000000000000000 DUP2 MSTORE PUSH1 0x4 ADD PUSH2 0x738 SWAP1 PUSH2 0x1AC6 JUMP JUMPDEST PUSH1 0x40 MLOAD DUP1 SWAP2 SUB SWAP1 REVERT JUMPDEST PUSH2 0x74A PUSH0 PUSH2 0x1379 JUMP JUMPDEST JUMP JUMPDEST PUSH0 PUSH0 PUSH0 SWAP1 SLOAD SWAP1 PUSH2 0x100 EXP SWAP1 DIV PUSH20 0xFFFFFFFFFFFFFFFFFFFFFFFFFFFFFFFFFFFFFFFF AND SWAP1 POP SWAP1 JUMP JUMPDEST PUSH2 0x7D0 DUP2 JUMP JUMPDEST PUSH1 0x5 SLOAD DUP2 JUMP JUMPDEST PUSH2 0x787 PUSH2 0x12E3 JUMP JUMPDEST PUSH20 0xFFFFFFFFFFFFFFFFFFFFFFFFFFFFFFFFFFFFFFFF AND PUSH2 0x7A5 PUSH2 0x74C JUMP JUMPDEST PUSH20 0xFFFFFFFFFFFFFFFFFFFFFFFFFFFFFFFFFFFFFFFF AND EQ PUSH2 0x7FB JUMPI PUSH1 0x40 MLOAD PUSH32 0x8C379A000000000000000000000000000000000000000000000000000000000 DUP2 MSTORE PUSH1 0x4 ADD PUSH2 0x7F2 SWAP1 PUSH2 0x1AC6 JUMP JUMPDEST PUSH1 0x40 MLOAD DUP1 SWAP2 SUB SWAP1 REVERT JUMPDEST PUSH0 PUSH20 0xFFFFFFFFFFFFFFFFFFFFFFFFFFFFFFFFFFFFFFFF AND DUP2 PUSH20 0xFFFFFFFFFFFFFFFFFFFFFFFFFFFFFFFFFFFFFFFF AND SUB PUSH2 0x869 JUMPI PUSH1 0x40 MLOAD PUSH32 0x8C379A000000000000000000000000000000000000000000000000000000000 DUP2 MSTORE PUSH1 0x4 ADD PUSH2 0x860 SWAP1 PUSH2 0x1BFE JUMP JUMPDEST PUSH1 0x40 MLOAD DUP1 SWAP2 SUB SWAP1 REVERT JUMPDEST PUSH0 PUSH1 0x1 PUSH0 SWAP1 SLOAD SWAP1 PUSH2 0x100 EXP SWAP1 DIV PUSH20 0xFFFFFFFFFFFFFFFFFFFFFFFFFFFFFFFFFFFFFFFF AND SWAP1 POP DUP2 PUSH1 0x1 PUSH0 PUSH2 0x100 EXP DUP2 SLOAD DUP2 PUSH20 0xFFFFFFFFFFFFFFFFFFFFFFFFFFFFFFFFFFFFFFFF MUL NOT AND SWAP1 DUP4 PUSH20 0xFFFFFFFFFFFFFFFFFFFFFFFFFFFFFFFFFFFFFFFF AND MUL OR SWAP1 SSTORE POP DUP2 PUSH20 0xFFFFFFFFFFFFFFFFFFFFFFFFFFFFFFFFFFFFFFFF AND DUP2 PUSH20 0xFFFFFFFFFFFFFFFFFFFFFFFFFFFFFFFFFFFFFFFF AND PUSH32 0xC50D8EF9B57C270B939CF88365A0E6C8DCF9B867C2B1FE31EC181897E3D6A4DB PUSH1 0x40 MLOAD PUSH1 0x40 MLOAD DUP1 SWAP2 SUB SWAP1 LOG3 POP POP JUMP JUMPDEST PUSH1 0x40 MLOAD PUSH32 0x8C379A000000000000000000000000000000000000000000000000000000000 DUP2 MSTORE PUSH1 0x4 ADD PUSH2 0x95E SWAP1 PUSH2 0x1CB2 JUMP JUMPDEST PUSH1 0x40 MLOAD DUP1 SWAP2 SUB SWAP1 REVERT JUMPDEST PUSH1 0x3 PUSH0 SWAP1 SLOAD SWAP1 PUSH2 0x100 EXP SWAP1 DIV PUSH20 0xFFFFFFFFFFFFFFFFFFFFFFFFFFFFFFFFFFFFFFFF AND DUP2 JUMP JUMPDEST PUSH0 PUSH20 0xFFFFFFFFFFFFFFFFFFFFFFFFFFFFFFFFFFFFFFFF AND PUSH1 0x1 PUSH0 SWAP1 SLOAD SWAP1 PUSH2 0x100 EXP SWAP1 DIV PUSH20 0xFFFFFFFFFFFFFFFFFFFFFFFFFFFFFFFFFFFFFFFF AND PUSH20 0xFFFFFFFFFFFFFFFFFFFFFFFFFFFFFFFFFFFFFFFF AND SUB PUSH2 0xA1B JUMPI PUSH1 0x40 MLOAD PUSH32 0x8C379A000000000000000000000000000000000000000000000000000000000 DUP2 MSTORE PUSH1 0x4 ADD PUSH2 0xA12 SWAP1 PUSH2 0x1D1A JUMP JUMPDEST PUSH1 0x40 MLOAD DUP1 SWAP2 SUB SWAP1 REVERT JUMPDEST PUSH0 PUSH20 0xFFFFFFFFFFFFFFFFFFFFFFFFFFFFFFFFFFFFFFFF AND PUSH1 0x2 PUSH0 SWAP1 SLOAD SWAP1 PUSH2 0x100 EXP SWAP1 DIV PUSH20 0xFFFFFFFFFFFFFFFFFFFFFFFFFFFFFFFFFFFFFFFF AND PUSH20 0xFFFFFFFFFFFFFFFFFFFFFFFFFFFFFFFFFFFFFFFF AND SUB PUSH2 0xAAA JUMPI PUSH1 0x40 MLOAD PUSH32 0x8C379A000000000000000000000000000000000000000000000000000000000 DUP2 MSTORE PUSH1 0x4 ADD PUSH2 0xAA1 SWAP1 PUSH2 0x1D82 JUMP JUMPDEST PUSH1 0x40 MLOAD DUP1 SWAP2 SUB SWAP1 REVERT JUMPDEST PUSH0 PUSH20 0xFFFFFFFFFFFFFFFFFFFFFFFFFFFFFFFFFFFFFFFF AND PUSH1 0x4 PUSH0 SWAP1 SLOAD SWAP1 PUSH2 0x100 EXP SWAP1 DIV PUSH20 0xFFFFFFFFFFFFFFFFFFFFFFFFFFFFFFFFFFFFFFFF AND PUSH20 0xFFFFFFFFFFFFFFFFFFFFFFFFFFFFFFFFFFFFFFFF AND SUB PUSH2 0xB39 JUMPI PUSH1 0x40 MLOAD PUSH32 0x8C379A000000000000000000000000000000000000000000000000000000000 DUP2 MSTORE PUSH1 0x4 ADD PUSH2 0xB30 SWAP1 PUSH2 0x1DEA JUMP JUMPDEST PUSH1 0x40 MLOAD DUP1 SWAP2 SUB SWAP1 REVERT JUMPDEST PUSH0 PUSH1 0x3 PUSH0 SWAP1 SLOAD SWAP1 PUSH2 0x100 EXP SWAP1 DIV PUSH20 0xFFFFFFFFFFFFFFFFFFFFFFFFFFFFFFFFFFFFFFFF AND PUSH20 0xFFFFFFFFFFFFFFFFFFFFFFFFFFFFFFFFFFFFFFFF AND PUSH4 0xC4A909BA DUP4 PUSH1 0x40 MLOAD DUP3 PUSH4 0xFFFFFFFF AND PUSH1 0xE0 SHL DUP2 MSTORE PUSH1 0x4 ADD PUSH2 0xB94 SWAP2 SWAP1 PUSH2 0x1A1A JUMP JUMPDEST PUSH1 0xE0 PUSH1 0x40 MLOAD DUP1 DUP4 SUB DUP2 DUP7 GAS STATICCALL ISZERO DUP1 ISZERO PUSH2 0xBAF JUMPI RETURNDATASIZE PUSH0 PUSH0 RETURNDATACOPY RETURNDATASIZE PUSH0 REVERT JUMPDEST POP POP POP POP PUSH1 0x40 MLOAD RETURNDATASIZE PUSH1 0x1F NOT PUSH1 0x1F DUP3 ADD AND DUP3 ADD DUP1 PUSH1 0x40 MSTORE POP DUP2 ADD SWAP1 PUSH2 0xBD3 SWAP2 SWAP1 PUSH2 0x1FA2 JUMP JUMPDEST SWAP1 POP CALLER PUSH20 0xFFFFFFFFFFFFFFFFFFFFFFFFFFFFFFFFFFFFFFFF AND DUP2 PUSH1 0x20 ADD MLOAD PUSH20 0xFFFFFFFFFFFFFFFFFFFFFFFFFFFFFFFFFFFFFFFF AND EQ PUSH2 0xC47 JUMPI PUSH1 0x40 MLOAD PUSH32 0x8C379A000000000000000000000000000000000000000000000000000000000 DUP2 MSTORE PUSH1 0x4 ADD PUSH2 0xC3E SWAP1 PUSH2 0x2017 JUMP JUMPDEST PUSH1 0x40 MLOAD DUP1 SWAP2 SUB SWAP1 REVERT JUMPDEST DUP1 PUSH1 0xA0 ADD MLOAD ISZERO PUSH2 0xC8C JUMPI PUSH1 0x40 MLOAD PUSH32 0x8C379A000000000000000000000000000000000000000000000000000000000 DUP2 MSTORE PUSH1 0x4 ADD PUSH2 0xC83 SWAP1 PUSH2 0x207F JUMP JUMPDEST PUSH1 0x40 MLOAD DUP1 SWAP2 SUB SWAP1 REVERT JUMPDEST PUSH1 0x3 PUSH0 SWAP1 SLOAD SWAP1 PUSH2 0x100 EXP SWAP1 DIV PUSH20 0xFFFFFFFFFFFFFFFFFFFFFFFFFFFFFFFFFFFFFFFF AND PUSH20 0xFFFFFFFFFFFFFFFFFFFFFFFFFFFFFFFFFFFFFFFF AND PUSH4 0xB2A6C4A4 DUP4 PUSH1 0x40 MLOAD DUP3 PUSH4 0xFFFFFFFF AND PUSH1 0xE0 SHL DUP2 MSTORE PUSH1 0x4 ADD PUSH2 0xCE6 SWAP2 SWAP1 PUSH2 0x1A1A JUMP JUMPDEST PUSH0 PUSH1 0x40 MLOAD DUP1 DUP4 SUB DUP2 PUSH0 DUP8 DUP1 EXTCODESIZE ISZERO DUP1 ISZERO PUSH2 0xCFD JUMPI PUSH0 PUSH0 REVERT JUMPDEST POP GAS CALL ISZERO DUP1 ISZERO PUSH2 0xD0F JUMPI RETURNDATASIZE PUSH0 PUSH0 RETURNDATACOPY RETURNDATASIZE PUSH0 REVERT JUMPDEST POP POP POP POP PUSH0 PUSH2 0x2710 PUSH1 0x5 SLOAD DUP4 PUSH1 0x40 ADD MLOAD PUSH2 0xD29 SWAP2 SWAP1 PUSH2 0x20CA JUMP JUMPDEST PUSH2 0xD33 SWAP2 SWAP1 PUSH2 0x2138 JUMP JUMPDEST SWAP1 POP PUSH0 DUP2 DUP4 PUSH1 0x40 ADD MLOAD PUSH2 0xD46 SWAP2 SWAP1 PUSH2 0x2168 JUMP JUMPDEST SWAP1 POP PUSH0 PUSH1 0x1 PUSH0 SWAP1 SLOAD SWAP1 PUSH2 0x100 EXP SWAP1 DIV PUSH20 0xFFFFFFFFFFFFFFFFFFFFFFFFFFFFFFFFFFFFFFFF AND PUSH20 0xFFFFFFFFFFFFFFFFFFFFFFFFFFFFFFFFFFFFFFFF AND PUSH4 0x2E1A7D4D DUP6 PUSH1 0x40 ADD MLOAD PUSH1 0x40 MLOAD DUP3 PUSH4 0xFFFFFFFF AND PUSH1 0xE0 SHL DUP2 MSTORE PUSH1 0x4 ADD PUSH2 0xDA7 SWAP2 SWAP1 PUSH2 0x1A1A JUMP JUMPDEST PUSH1 0x20 PUSH1 0x40 MLOAD DUP1 DUP4 SUB DUP2 PUSH0 DUP8 GAS CALL ISZERO DUP1 ISZERO PUSH2 0xDC3 JUMPI RETURNDATASIZE PUSH0 PUSH0 RETURNDATACOPY RETURNDATASIZE PUSH0 REVERT JUMPDEST POP POP POP POP PUSH1 0x40 MLOAD RETURNDATASIZE PUSH1 0x1F NOT PUSH1 0x1F DUP3 ADD AND DUP3 ADD DUP1 PUSH1 0x40 MSTORE POP DUP2 ADD SWAP1 PUSH2 0xDE7 SWAP2 SWAP1 PUSH2 0x219B JUMP JUMPDEST SWAP1 POP DUP1 PUSH2 0xE29 JUMPI PUSH1 0x40 MLOAD PUSH32 0x8C379A000000000000000000000000000000000000000000000000000000000 DUP2 MSTORE PUSH1 0x4 ADD PUSH2 0xE20 SWAP1 PUSH2 0x2236 JUMP JUMPDEST PUSH1 0x40 MLOAD DUP1 SWAP2 SUB SWAP1 REVERT JUMPDEST PUSH0 DUP4 GT ISZERO PUSH2 0x102D JUMPI PUSH2 0xE9E PUSH1 0x2 PUSH0 SWAP1 SLOAD SWAP1 PUSH2 0x100 EXP SWAP1 DIV PUSH20 0xFFFFFFFFFFFFFFFFFFFFFFFFFFFFFFFFFFFFFFFF AND DUP5 PUSH1 0x4 PUSH0 SWAP1 SLOAD SWAP1 PUSH2 0x100 EXP SWAP1 DIV PUSH20 0xFFFFFFFFFFFFFFFFFFFFFFFFFFFFFFFFFFFFFFFF AND PUSH20 0xFFFFFFFFFFFFFFFFFFFFFFFFFFFFFFFFFFFFFFFF AND PUSH2 0x143A SWAP1 SWAP3 SWAP2 SWAP1 PUSH4 0xFFFFFFFF AND JUMP JUMPDEST PUSH0 PUSH1 0x2 PUSH0 SWAP1 SLOAD SWAP1 PUSH2 0x100 EXP SWAP1 DIV PUSH20 0xFFFFFFFFFFFFFFFFFFFFFFFFFFFFFFFFFFFFFFFF AND PUSH20 0xFFFFFFFFFFFFFFFFFFFFFFFFFFFFFFFFFFFFFFFF AND DUP5 PUSH1 0x40 MLOAD PUSH1 0x24 ADD PUSH2 0xEE8 SWAP2 SWAP1 PUSH2 0x1A1A JUMP JUMPDEST PUSH1 0x40 MLOAD PUSH1 0x20 DUP2 DUP4 SUB SUB DUP2 MSTORE SWAP1 PUSH1 0x40 MSTORE PUSH32 0x111663E800000000000000000000000000000000000000000000000000000000 PUSH28 0xFFFFFFFFFFFFFFFFFFFFFFFFFFFFFFFFFFFFFFFFFFFFFFFFFFFFFFFF NOT AND PUSH1 0x20 DUP3 ADD DUP1 MLOAD PUSH28 0xFFFFFFFFFFFFFFFFFFFFFFFFFFFFFFFFFFFFFFFFFFFFFFFFFFFFFFFF DUP4 DUP2 DUP4 AND OR DUP4 MSTORE POP POP POP POP PUSH1 0x40 MLOAD PUSH2 0xF72 SWAP2 SWAP1 PUSH2 0x22A6 JUMP JUMPDEST PUSH0 PUSH1 0x40 MLOAD DUP1 DUP4 SUB DUP2 PUSH0 DUP7 GAS CALL SWAP2 POP POP RETURNDATASIZE DUP1 PUSH0 DUP2 EQ PUSH2 0xFAB JUMPI PUSH1 0x40 MLOAD SWAP2 POP PUSH1 0x1F NOT PUSH1 0x3F RETURNDATASIZE ADD AND DUP3 ADD PUSH1 0x40 MSTORE RETURNDATASIZE DUP3 MSTORE RETURNDATASIZE PUSH0 PUSH1 0x20 DUP5 ADD RETURNDATACOPY PUSH2 0xFB0 JUMP JUMPDEST PUSH1 0x60 SWAP2 POP JUMPDEST POP POP SWAP1 POP DUP1 PUSH2 0xFF4 JUMPI PUSH1 0x40 MLOAD PUSH32 0x8C379A000000000000000000000000000000000000000000000000000000000 DUP2 MSTORE PUSH1 0x4 ADD PUSH2 0xFEB SWAP1 PUSH2 0x2306 JUMP JUMPDEST PUSH1 0x40 MLOAD DUP1 SWAP2 SUB SWAP1 REVERT JUMPDEST PUSH32 0xC472CB3A7A659A876494D66B3063145F279701771D6150B9329C31611ED6405C DUP5 PUSH1 0x40 MLOAD PUSH2 0x1023 SWAP2 SWAP1 PUSH2 0x1A1A JUMP JUMPDEST PUSH1 0x40 MLOAD DUP1 SWAP2 SUB SWAP1 LOG1 POP JUMPDEST PUSH2 0x107D DUP5 PUSH1 0x20 ADD MLOAD DUP4 PUSH1 0x4 PUSH0 SWAP1 SLOAD SWAP1 PUSH2 0x100 EXP SWAP1 DIV PUSH20 0xFFFFFFFFFFFFFFFFFFFFFFFFFFFFFFFFFFFFFFFF AND PUSH20 0xFFFFFFFFFFFFFFFFFFFFFFFFFFFFFFFFFFFFFFFF AND PUSH2 0x1585 SWAP1 SWAP3 SWAP2 SWAP1 PUSH4 0xFFFFFFFF AND JUMP JUMPDEST DUP5 DUP5 PUSH1 0x20 ADD MLOAD PUSH20 0xFFFFFFFFFFFFFFFFFFFFFFFFFFFFFFFFFFFFFFFF AND PUSH32 0x256642A903D86EC186D0AD895B74BDBE7F9E5A72DB568F4C4D58C2FA38B39E1C DUP5 PUSH1 0x40 MLOAD PUSH2 0x10C8 SWAP2 SWAP1 PUSH2 0x1A1A JUMP JUMPDEST PUSH1 0x40 MLOAD DUP1 SWAP2 SUB SWAP1 LOG3 POP POP POP POP POP JUMP JUMPDEST PUSH2 0x10DF PUSH2 0x12E3 JUMP JUMPDEST PUSH20 0xFFFFFFFFFFFFFFFFFFFFFFFFFFFFFFFFFFFFFFFF AND PUSH2 0x10FD PUSH2 0x74C JUMP JUMPDEST PUSH20 0xFFFFFFFFFFFFFFFFFFFFFFFFFFFFFFFFFFFFFFFF AND EQ PUSH2 0x1153 JUMPI PUSH1 0x40 MLOAD PUSH32 0x8C379A000000000000000000000000000000000000000000000000000000000 DUP2 MSTORE PUSH1 0x4 ADD PUSH2 0x114A SWAP1 PUSH2 0x1AC6 JUMP JUMPDEST PUSH1 0x40 MLOAD DUP1 SWAP2 SUB SWAP1 REVERT JUMPDEST PUSH0 PUSH20 0xFFFFFFFFFFFFFFFFFFFFFFFFFFFFFFFFFFFFFFFF AND DUP2 PUSH20 0xFFFFFFFFFFFFFFFFFFFFFFFFFFFFFFFFFFFFFFFF AND SUB PUSH2 0x11C1 JUMPI PUSH1 0x40 MLOAD PUSH32 0x8C379A000000000000000000000000000000000000000000000000000000000 DUP2 MSTORE PUSH1 0x4 ADD PUSH2 0x11B8 SWAP1 PUSH2 0x2394 JUMP JUMPDEST PUSH1 0x40 MLOAD DUP1 SWAP2 SUB SWAP1 REVERT JUMPDEST PUSH2 0x11CA DUP2 PUSH2 0x1379 JUMP JUMPDEST POP JUMP JUMPDEST PUSH0 PUSH0 PUSH20 0xFFFFFFFFFFFFFFFFFFFFFFFFFFFFFFFFFFFFFFFF AND PUSH1 0x1 PUSH0 SWAP1 SLOAD SWAP1 PUSH2 0x100 EXP SWAP1 DIV PUSH20 0xFFFFFFFFFFFFFFFFFFFFFFFFFFFFFFFFFFFFFFFF AND PUSH20 0xFFFFFFFFFFFFFFFFFFFFFFFFFFFFFFFFFFFFFFFF AND EQ PUSH2 0x12B7 JUMPI PUSH1 0x1 PUSH0 SWAP1 SLOAD SWAP1 PUSH2 0x100 EXP SWAP1 DIV PUSH20 0xFFFFFFFFFFFFFFFFFFFFFFFFFFFFFFFFFFFFFFFF AND PUSH20 0xFFFFFFFFFFFFFFFFFFFFFFFFFFFFFFFFFFFFFFFF AND PUSH4 0x722713F7 PUSH1 0x40 MLOAD DUP2 PUSH4 0xFFFFFFFF AND PUSH1 0xE0 SHL DUP2 MSTORE PUSH1 0x4 ADD PUSH1 0x20 PUSH1 0x40 MLOAD DUP1 DUP4 SUB DUP2 DUP7 GAS STATICCALL ISZERO DUP1 ISZERO PUSH2 0x128C JUMPI RETURNDATASIZE PUSH0 PUSH0 RETURNDATACOPY RETURNDATASIZE PUSH0 REVERT JUMPDEST POP POP POP POP PUSH1 0x40 MLOAD RETURNDATASIZE PUSH1 0x1F NOT PUSH1 0x1F DUP3 ADD AND DUP3 ADD DUP1 PUSH1 0x40 MSTORE POP DUP2 ADD SWAP1 PUSH2 0x12B0 SWAP2 SWAP1 PUSH2 0x23B2 JUMP JUMPDEST SWAP1 POP PUSH2 0x12BB JUMP JUMPDEST PUSH0 SWAP1 POP JUMPDEST SWAP1 JUMP JUMPDEST PUSH1 0x2 PUSH0 SWAP1 SLOAD SWAP1 PUSH2 0x100 EXP SWAP1 DIV PUSH20 0xFFFFFFFFFFFFFFFFFFFFFFFFFFFFFFFFFFFFFFFF AND DUP2 JUMP JUMPDEST PUSH0 CALLER SWAP1 POP SWAP1 JUMP JUMPDEST PUSH2 0x7D0 DUP2 GT ISZERO PUSH2 0x132F JUMPI PUSH1 0x40 MLOAD PUSH32 0x8C379A000000000000000000000000000000000000000000000000000000000 DUP2 MSTORE PUSH1 0x4 ADD PUSH2 0x1326 SWAP1 PUSH2 0x2427 JUMP JUMPDEST PUSH1 0x40 MLOAD DUP1 SWAP2 SUB SWAP1 REVERT JUMPDEST PUSH0 PUSH1 0x5 SLOAD SWAP1 POP DUP2 PUSH1 0x5 DUP2 SWAP1 SSTORE POP PUSH32 0x14914DA2BF76024616FBE1859783FCD4DBDDCB179B1F3A854949FBF920DCB957 DUP2 DUP4 PUSH1 0x40 MLOAD PUSH2 0x136D SWAP3 SWAP2 SWAP1 PUSH2 0x2445 JUMP JUMPDEST PUSH1 0x40 MLOAD DUP1 SWAP2 SUB SWAP1 LOG1 POP POP JUMP JUMPDEST PUSH0 PUSH0 PUSH0 SWAP1 SLOAD SWAP1 PUSH2 0x100 EXP SWAP1 DIV PUSH20 0xFFFFFFFFFFFFFFFFFFFFFFFFFFFFFFFFFFFFFFFF AND SWAP1 POP DUP2 PUSH0 PUSH0 PUSH2 0x100 EXP DUP2 SLOAD DUP2 PUSH20 0xFFFFFFFFFFFFFFFFFFFFFFFFFFFFFFFFFFFFFFFF MUL NOT AND SWAP1 DUP4 PUSH20 0xFFFFFFFFFFFFFFFFFFFFFFFFFFFFFFFFFFFFFFFF AND MUL OR SWAP1 SSTORE POP DUP2 PUSH20 0xFFFFFFFFFFFFFFFFFFFFFFFFFFFFFFFFFFFFFFFF AND DUP2 PUSH20 0xFFFFFFFFFFFFFFFFFFFFFFFFFFFFFFFFFFFFFFFF AND PUSH32 0x8BE0079C531659141344CD1FD0A4F28419497F9722A3DAAFE3B4186F6B6457E0 PUSH1 0x40 MLOAD PUSH1 0x40 MLOAD DUP1 SWAP2 SUB SWAP1 LOG3 POP POP JUMP JUMPDEST PUSH0 DUP2 EQ DUP1 PUSH2 0x14C0 JUMPI POP PUSH0 DUP4 PUSH20 0xFFFFFFFFFFFFFFFFFFFFFFFFFFFFFFFFFFFFFFFF AND PUSH4 0xDD62ED3E ADDRESS DUP6 PUSH1 0x40 MLOAD DUP4 PUSH4 0xFFFFFFFF AND PUSH1 0xE0 SHL DUP2 MSTORE PUSH1 0x4 ADD PUSH2 0x147F SWAP3 SWAP2 SWAP1 PUSH2 0x246C JUMP JUMPDEST PUSH1 0x20 PUSH1 0x40 MLOAD DUP1 DUP4 SUB DUP2 DUP7 GAS STATICCALL ISZERO DUP1 ISZERO PUSH2 0x149A JUMPI RETURNDATASIZE PUSH0 PUSH0 RETURNDATACOPY RETURNDATASIZE PUSH0 REVERT JUMPDEST POP POP POP POP PUSH1 0x40 MLOAD RETURNDATASIZE PUSH1 0x1F NOT PUSH1 0x1F DUP3 ADD AND DUP3 ADD DUP1 PUSH1 0x40 MSTORE POP DUP2 ADD SWAP1 PUSH2 0x14BE SWAP2 SWAP1 PUSH2 0x23B2 JUMP JUMPDEST EQ JUMPDEST PUSH2 0x14FF JUMPI PUSH1 0x40 MLOAD PUSH32 0x8C379A000000000000000000000000000000000000000000000000000000000 DUP2 MSTORE PUSH1 0x4 ADD PUSH2 0x14F6 SWAP1 PUSH2 0x2503 JUMP JUMPDEST PUSH1 0x40 MLOAD DUP1 SWAP2 SUB SWAP1 REVERT JUMPDEST PUSH2 0x1580 DUP4 PUSH4 0x95EA7B3 PUSH1 0xE0 SHL DUP5 DUP5 PUSH1 0x40 MLOAD PUSH1 0x24 ADD PUSH2 0x151E SWAP3 SWAP2 SWAP1 PUSH2 0x2521 JUMP JUMPDEST PUSH1 0x40 MLOAD PUSH1 0x20 DUP2 DUP4 SUB SUB DUP2 MSTORE SWAP1 PUSH1 0x40 MSTORE SWAP1 PUSH28 0xFFFFFFFFFFFFFFFFFFFFFFFFFFFFFFFFFFFFFFFFFFFFFFFFFFFFFFFF NOT AND PUSH1 0x20 DUP3 ADD DUP1 MLOAD PUSH28 0xFFFFFFFFFFFFFFFFFFFFFFFFFFFFFFFFFFFFFFFFFFFFFFFFFFFFFFFF DUP4 DUP2 DUP4 AND OR DUP4 MSTORE POP POP POP POP PUSH2 0x160B JUMP JUMPDEST POP POP POP JUMP JUMPDEST PUSH2 0x1606 DUP4 PUSH4 0xA9059CBB PUSH1 0xE0 SHL DUP5 DUP5 PUSH1 0x40 MLOAD PUSH1 0x24 ADD PUSH2 0x15A4 SWAP3 SWAP2 SWAP1 PUSH2 0x2521 JUMP JUMPDEST PUSH1 0x40 MLOAD PUSH1 0x20 DUP2 DUP4 SUB SUB DUP2 MSTORE SWAP1 PUSH1 0x40 MSTORE SWAP1 PUSH28 0xFFFFFFFFFFFFFFFFFFFFFFFFFFFFFFFFFFFFFFFFFFFFFFFFFFFFFFFF NOT AND PUSH1 0x20 DUP3 ADD DUP1 MLOAD PUSH28 0xFFFFFFFFFFFFFFFFFFFFFFFFFFFFFFFFFFFFFFFFFFFFFFFFFFFFFFFF DUP4 DUP2 DUP4 AND OR DUP4 MSTORE POP POP POP POP PUSH2 0x160B JUMP JUMPDEST POP POP POP JUMP JUMPDEST PUSH0 PUSH2 0x166C DUP3 PUSH1 0x40 MLOAD DUP1 PUSH1 0x40 ADD PUSH1 0x40 MSTORE DUP1 PUSH1 0x20 DUP2 MSTORE PUSH1 0x20 ADD PUSH32 0x5361666545524332303A206C6F772D6C6576656C2063616C6C206661696C6564 DUP2 MSTORE POP DUP6 PUSH20 0xFFFFFFFFFFFFFFFFFFFFFFFFFFFFFFFFFFFFFFFF AND PUSH2 0x16D0 SWAP1 SWAP3 SWAP2 SWAP1 PUSH4 0xFFFFFFFF AND JUMP JUMPDEST SWAP1 POP PUSH0 DUP2 MLOAD GT ISZERO PUSH2 0x16CB JUMPI DUP1 DUP1 PUSH1 0x20 ADD SWAP1 MLOAD DUP2 ADD SWAP1 PUSH2 0x168B SWAP2 SWAP1 PUSH2 0x219B JUMP JUMPDEST PUSH2 0x16CA JUMPI PUSH1 0x40 MLOAD PUSH32 0x8C379A000000000000000000000000000000000000000000000000000000000 DUP2 MSTORE PUSH1 0x4 ADD PUSH2 0x16C1 SWAP1 PUSH2 0x25B8 JUMP JUMPDEST PUSH1 0x40 MLOAD DUP1 SWAP2 SUB SWAP1 REVERT JUMPDEST JUMPDEST POP POP POP JUMP JUMPDEST PUSH1 0x60 PUSH2 0x16DE DUP5 DUP5 PUSH0 DUP6 PUSH2 0x16E7 JUMP JUMPDEST SWAP1 POP SWAP4 SWAP3 POP POP POP JUMP JUMPDEST PUSH1 0x60 DUP3 SELFBALANCE LT ISZERO PUSH2 0x172C JUMPI PUSH1 0x40 MLOAD PUSH32 0x8C379A000000000000000000000000000000000000000000000000000000000 DUP2 MSTORE PUSH1 0x4 ADD PUSH2 0x1723 SWAP1 PUSH2 0x2646 JUMP JUMPDEST PUSH1 0x40 MLOAD DUP1 SWAP2 SUB SWAP1 REVERT JUMPDEST PUSH2 0x1735 DUP6 PUSH2 0x17F7 JUMP JUMPDEST PUSH2 0x1774 JUMPI PUSH1 0x40 MLOAD PUSH32 0x8C379A000000000000000000000000000000000000000000000000000000000 DUP2 MSTORE PUSH1 0x4 ADD PUSH2 0x176B SWAP1 PUSH2 0x26AE JUMP JUMPDEST PUSH1 0x40 MLOAD DUP1 SWAP2 SUB SWAP1 REVERT JUMPDEST PUSH0 PUSH0 DUP7 PUSH20 0xFFFFFFFFFFFFFFFFFFFFFFFFFFFFFFFFFFFFFFFF AND DUP6 DUP8 PUSH1 0x40 MLOAD PUSH2 0x179C SWAP2 SWAP1 PUSH2 0x22A6 JUMP JUMPDEST PUSH0 PUSH1 0x40 MLOAD DUP1 DUP4 SUB DUP2 DUP6 DUP8 GAS CALL SWAP3 POP POP POP RETURNDATASIZE DUP1 PUSH0 DUP2 EQ PUSH2 0x17D6 JUMPI PUSH1 0x40 MLOAD SWAP2 POP PUSH1 0x1F NOT PUSH1 0x3F RETURNDATASIZE ADD AND DUP3 ADD PUSH1 0x40 MSTORE RETURNDATASIZE DUP3 MSTORE RETURNDATASIZE PUSH0 PUSH1 0x20 DUP5 ADD RETURNDATACOPY PUSH2 0x17DB JUMP JUMPDEST PUSH1 0x60 SWAP2 POP JUMPDEST POP SWAP2 POP SWAP2 POP PUSH2 0x17EB DUP3 DUP3 DUP7 PUSH2 0x1819 JUMP JUMPDEST SWAP3 POP POP POP SWAP5 SWAP4 POP POP POP POP JUMP JUMPDEST PUSH0 PUSH0 DUP3 PUSH20 0xFFFFFFFFFFFFFFFFFFFFFFFFFFFFFFFFFFFFFFFF AND EXTCODESIZE GT SWAP1 POP SWAP2 SWAP1 POP JUMP JUMPDEST PUSH1 0x60 DUP4 ISZERO PUSH2 0x1829 JUMPI DUP3 SWAP1 POP PUSH2 0x1878 JUMP JUMPDEST PUSH0 DUP4 MLOAD GT ISZERO PUSH2 0x183B JUMPI DUP3 MLOAD DUP1 DUP5 PUSH1 0x20 ADD REVERT JUMPDEST DUP2 PUSH1 0x40 MLOAD PUSH32 0x8C379A000000000000000000000000000000000000000000000000000000000 DUP2 MSTORE PUSH1 0x4 ADD PUSH2 0x186F SWAP2 SWAP1 PUSH2 0x270E JUMP JUMPDEST PUSH1 0x40 MLOAD DUP1 SWAP2 SUB SWAP1 REVERT JUMPDEST SWAP4 SWAP3 POP POP POP JUMP JUMPDEST PUSH0 PUSH20 0xFFFFFFFFFFFFFFFFFFFFFFFFFFFFFFFFFFFFFFFF DUP3 AND SWAP1 POP SWAP2 SWAP1 POP JUMP JUMPDEST PUSH0 DUP2 SWAP1 POP SWAP2 SWAP1 POP JUMP JUMPDEST PUSH0 PUSH2 0x18C1 PUSH2 0x18BC PUSH2 0x18B7 DUP5 PUSH2 0x187F JUMP JUMPDEST PUSH2 0x189E JUMP JUMPDEST PUSH2 0x187F JUMP JUMPDEST SWAP1 POP SWAP2 SWAP1 POP JUMP JUMPDEST PUSH0 PUSH2 0x18D2 DUP3 PUSH2 0x18A7 JUMP JUMPDEST SWAP1 POP SWAP2 SWAP1 POP JUMP JUMPDEST PUSH0 PUSH2 0x18E3 DUP3 PUSH2 0x18C8 JUMP JUMPDEST SWAP1 POP SWAP2 SWAP1 POP JUMP JUMPDEST PUSH2 0x18F3 DUP2 PUSH2 0x18D9 JUMP JUMPDEST DUP3 MSTORE POP POP JUMP JUMPDEST PUSH0 PUSH1 0x20 DUP3 ADD SWAP1 POP PUSH2 0x190C PUSH0 DUP4 ADD DUP5 PUSH2 0x18EA JUMP JUMPDEST SWAP3 SWAP2 POP POP JUMP JUMPDEST PUSH0 PUSH2 0x191C DUP3 PUSH2 0x187F JUMP JUMPDEST SWAP1 POP SWAP2 SWAP1 POP JUMP JUMPDEST PUSH2 0x192C DUP2 PUSH2 0x1912 JUMP JUMPDEST DUP3 MSTORE POP POP JUMP JUMPDEST PUSH0 PUSH1 0x20 DUP3 ADD SWAP1 POP PUSH2 0x1945 PUSH0 DUP4 ADD DUP5 PUSH2 0x1923 JUMP JUMPDEST SWAP3 SWAP2 POP POP JUMP JUMPDEST PUSH0 PUSH1 0x40 MLOAD SWAP1 POP SWAP1 JUMP JUMPDEST PUSH0 PUSH0 REVERT JUMPDEST PUSH0 DUP2 SWAP1 POP SWAP2 SWAP1 POP JUMP JUMPDEST PUSH2 0x196A DUP2 PUSH2 0x1958 JUMP JUMPDEST DUP2 EQ PUSH2 0x1974 JUMPI PUSH0 PUSH0 REVERT JUMPDEST POP JUMP JUMPDEST PUSH0 DUP2 CALLDATALOAD SWAP1 POP PUSH2 0x1985 DUP2 PUSH2 0x1961 JUMP JUMPDEST SWAP3 SWAP2 POP POP JUMP JUMPDEST PUSH0 PUSH1 0x20 DUP3 DUP5 SUB SLT ISZERO PUSH2 0x19A0 JUMPI PUSH2 0x199F PUSH2 0x1954 JUMP JUMPDEST JUMPDEST PUSH0 PUSH2 0x19AD DUP5 DUP3 DUP6 ADD PUSH2 0x1977 JUMP JUMPDEST SWAP2 POP POP SWAP3 SWAP2 POP POP JUMP JUMPDEST PUSH2 0x19BF DUP2 PUSH2 0x1912 JUMP JUMPDEST DUP2 EQ PUSH2 0x19C9 JUMPI PUSH0 PUSH0 REVERT JUMPDEST POP JUMP JUMPDEST PUSH0 DUP2 CALLDATALOAD SWAP1 POP PUSH2 0x19DA DUP2 PUSH2 0x19B6 JUMP JUMPDEST SWAP3 SWAP2 POP POP JUMP JUMPDEST PUSH0 PUSH1 0x20 DUP3 DUP5 SUB SLT ISZERO PUSH2 0x19F5 JUMPI PUSH2 0x19F4 PUSH2 0x1954 JUMP JUMPDEST JUMPDEST PUSH0 PUSH2 0x1A02 DUP5 DUP3 DUP6 ADD PUSH2 0x19CC JUMP JUMPDEST SWAP2 POP POP SWAP3 SWAP2 POP POP JUMP JUMPDEST PUSH2 0x1A14 DUP2 PUSH2 0x1958 JUMP JUMPDEST DUP3 MSTORE POP POP JUMP JUMPDEST PUSH0 PUSH1 0x20 DUP3 ADD SWAP1 POP PUSH2 0x1A2D PUSH0 DUP4 ADD DUP5 PUSH2 0x1A0B JUMP JUMPDEST SWAP3 SWAP2 POP POP JUMP JUMPDEST PUSH0 PUSH2 0x1A3D DUP3 PUSH2 0x18C8 JUMP JUMPDEST SWAP1 POP SWAP2 SWAP1 POP JUMP JUMPDEST PUSH2 0x1A4D DUP2 PUSH2 0x1A33 JUMP JUMPDEST DUP3 MSTORE POP POP JUMP JUMPDEST PUSH0 PUSH1 0x20 DUP3 ADD SWAP1 POP PUSH2 0x1A66 PUSH0 DUP4 ADD DUP5 PUSH2 0x1A44 JUMP JUMPDEST SWAP3 SWAP2 POP POP JUMP JUMPDEST PUSH0 DUP3 DUP3 MSTORE PUSH1 0x20 DUP3 ADD SWAP1 POP SWAP3 SWAP2 POP POP JUMP JUMPDEST PUSH32 0x4F776E61626C653A2063616C6C6572206973206E6F7420746865206F776E6572 PUSH0 DUP3 ADD MSTORE POP JUMP JUMPDEST PUSH0 PUSH2 0x1AB0 PUSH1 0x20 DUP4 PUSH2 0x1A6C JUMP JUMPDEST SWAP2 POP PUSH2 0x1ABB DUP3 PUSH2 0x1A7C JUMP JUMPDEST PUSH1 0x20 DUP3 ADD SWAP1 POP SWAP2 SWAP1 POP JUMP JUMPDEST PUSH0 PUSH1 0x20 DUP3 ADD SWAP1 POP DUP2 DUP2 SUB PUSH0 DUP4 ADD MSTORE PUSH2 0x1ADD DUP2 PUSH2 0x1AA4 JUMP JUMPDEST SWAP1 POP SWAP2 SWAP1 POP JUMP JUMPDEST PUSH32 0x496E76616C696420574554482061646472657373000000000000000000000000 PUSH0 DUP3 ADD MSTORE POP JUMP JUMPDEST PUSH0 PUSH2 0x1B18 PUSH1 0x14 DUP4 PUSH2 0x1A6C JUMP JUMPDEST SWAP2 POP PUSH2 0x1B23 DUP3 PUSH2 0x1AE4 JUMP JUMPDEST PUSH1 0x20 DUP3 ADD SWAP1 POP SWAP2 SWAP1 POP JUMP JUMPDEST PUSH0 PUSH1 0x20 DUP3 ADD SWAP1 POP DUP2 DUP2 SUB PUSH0 DUP4 ADD MSTORE PUSH2 0x1B45 DUP2 PUSH2 0x1B0C JUMP JUMPDEST SWAP1 POP SWAP2 SWAP1 POP JUMP JUMPDEST PUSH32 0x496E76616C6964207661756C7420616464726573730000000000000000000000 PUSH0 DUP3 ADD MSTORE POP JUMP JUMPDEST PUSH0 PUSH2 0x1B80 PUSH1 0x15 DUP4 PUSH2 0x1A6C JUMP JUMPDEST SWAP2 POP PUSH2 0x1B8B DUP3 PUSH2 0x1B4C JUMP JUMPDEST PUSH1 0x20 DUP3 ADD SWAP1 POP SWAP2 SWAP1 POP JUMP JUMPDEST PUSH0 PUSH1 0x20 DUP3 ADD SWAP1 POP DUP2 DUP2 SUB PUSH0 DUP4 ADD MSTORE PUSH2 0x1BAD DUP2 PUSH2 0x1B74 JUMP JUMPDEST SWAP1 POP SWAP2 SWAP1 POP JUMP JUMPDEST PUSH32 0x496E76616C6964205969656C6441676772656761746F72206164647265737300 PUSH0 DUP3 ADD MSTORE POP JUMP JUMPDEST PUSH0 PUSH2 0x1BE8 PUSH1 0x1F DUP4 PUSH2 0x1A6C JUMP JUMPDEST SWAP2 POP PUSH2 0x1BF3 DUP3 PUSH2 0x1BB4 JUMP JUMPDEST PUSH1 0x20 DUP3 ADD SWAP1 POP SWAP2 SWAP1 POP JUMP JUMPDEST PUSH0 PUSH1 0x20 DUP3 ADD SWAP1 POP DUP2 DUP2 SUB PUSH0 DUP4 ADD MSTORE PUSH2 0x1C15 DUP2 PUSH2 0x1BDC JUMP JUMPDEST SWAP1 POP SWAP2 SWAP1 POP JUMP JUMPDEST PUSH32 0x53797374656D206E6F772075736573205745544820746F6B656E7320696E7374 PUSH0 DUP3 ADD MSTORE PUSH32 0x656164206F66204554482E20506C6561736520757365206465706F7369744665 PUSH1 0x20 DUP3 ADD MSTORE PUSH32 0x6546726F6D546F6B656E732066756E6374696F6E20696E205661756C742E0000 PUSH1 0x40 DUP3 ADD MSTORE POP JUMP JUMPDEST PUSH0 PUSH2 0x1C9C PUSH1 0x5E DUP4 PUSH2 0x1A6C JUMP JUMPDEST SWAP2 POP PUSH2 0x1CA7 DUP3 PUSH2 0x1C1C JUMP JUMPDEST PUSH1 0x60 DUP3 ADD SWAP1 POP SWAP2 SWAP1 POP JUMP JUMPDEST PUSH0 PUSH1 0x20 DUP3 ADD SWAP1 POP DUP2 DUP2 SUB PUSH0 DUP4 ADD MSTORE PUSH2 0x1CC9 DUP2 PUSH2 0x1C90 JUMP JUMPDEST SWAP1 POP SWAP2 SWAP1 POP JUMP JUMPDEST PUSH32 0x5969656C6441676772656761746F72206E6F7420736574000000000000000000 PUSH0 DUP3 ADD MSTORE POP JUMP JUMPDEST PUSH0 PUSH2 0x1D04 PUSH1 0x17 DUP4 PUSH2 0x1A6C JUMP JUMPDEST SWAP2 POP PUSH2 0x1D0F DUP3 PUSH2 0x1CD0 JUMP JUMPDEST PUSH1 0x20 DUP3 ADD SWAP1 POP SWAP2 SWAP1 POP JUMP JUMPDEST PUSH0 PUSH1 0x20 DUP3 ADD SWAP1 POP DUP2 DUP2 SUB PUSH0 DUP4 ADD MSTORE PUSH2 0x1D31 DUP2 PUSH2 0x1CF8 JUMP JUMPDEST SWAP1 POP SWAP2 SWAP1 POP JUMP JUMPDEST PUSH32 0x5661756C74206E6F742073657400000000000000000000000000000000000000 PUSH0 DUP3 ADD MSTORE POP JUMP JUMPDEST PUSH0 PUSH2 0x1D6C PUSH1 0xD DUP4 PUSH2 0x1A6C JUMP JUMPDEST SWAP2 POP PUSH2 0x1D77 DUP3 PUSH2 0x1D38 JUMP JUMPDEST PUSH1 0x20 DUP3 ADD SWAP1 POP SWAP2 SWAP1 POP JUMP JUMPDEST PUSH0 PUSH1 0x20 DUP3 ADD SWAP1 POP DUP2 DUP2 SUB PUSH0 DUP4 ADD MSTORE PUSH2 0x1D99 DUP2 PUSH2 0x1D60 JUMP JUMPDEST SWAP1 POP SWAP2 SWAP1 POP JUMP JUMPDEST PUSH32 0x57455448206E6F74207365740000000000000000000000000000000000000000 PUSH0 DUP3 ADD MSTORE POP JUMP JUMPDEST PUSH0 PUSH2 0x1DD4 PUSH1 0xC DUP4 PUSH2 0x1A6C JUMP JUMPDEST SWAP2 POP PUSH2 0x1DDF DUP3 PUSH2 0x1DA0 JUMP JUMPDEST PUSH1 0x20 DUP3 ADD SWAP1 POP SWAP2 SWAP1 POP JUMP JUMPDEST PUSH0 PUSH1 0x20 DUP3 ADD SWAP1 POP DUP2 DUP2 SUB PUSH0 DUP4 ADD MSTORE PUSH2 0x1E01 DUP2 PUSH2 0x1DC8 JUMP JUMPDEST SWAP1 POP SWAP2 SWAP1 POP JUMP JUMPDEST PUSH0 PUSH0 REVERT JUMPDEST PUSH0 PUSH1 0x1F NOT PUSH1 0x1F DUP4 ADD AND SWAP1 POP SWAP2 SWAP1 POP JUMP JUMPDEST PUSH32 0x4E487B7100000000000000000000000000000000000000000000000000000000 PUSH0 MSTORE PUSH1 0x41 PUSH1 0x4 MSTORE PUSH1 0x24 PUSH0 REVERT JUMPDEST PUSH2 0x1E52 DUP3 PUSH2 0x1E0C JUMP JUMPDEST DUP2 ADD DUP2 DUP2 LT PUSH8 0xFFFFFFFFFFFFFFFF DUP3 GT OR ISZERO PUSH2 0x1E71 JUMPI PUSH2 0x1E70 PUSH2 0x1E1C JUMP JUMPDEST JUMPDEST DUP1 PUSH1 0x40 MSTORE POP POP POP JUMP JUMPDEST PUSH0 PUSH2 0x1E83 PUSH2 0x194B JUMP JUMPDEST SWAP1 POP PUSH2 0x1E8F DUP3 DUP3 PUSH2 0x1E49 JUMP JUMPDEST SWAP2 SWAP1 POP JUMP JUMPDEST PUSH0 DUP2 MLOAD SWAP1 POP PUSH2 0x1EA2 DUP2 PUSH2 0x1961 JUMP JUMPDEST SWAP3 SWAP2 POP POP JUMP JUMPDEST PUSH0 DUP2 MLOAD SWAP1 POP PUSH2 0x1EB6 DUP2 PUSH2 0x19B6 JUMP JUMPDEST SWAP3 SWAP2 POP POP JUMP JUMPDEST PUSH0 DUP2 ISZERO ISZERO SWAP1 POP SWAP2 SWAP1 POP JUMP JUMPDEST PUSH2 0x1ED0 DUP2 PUSH2 0x1EBC JUMP JUMPDEST DUP2 EQ PUSH2 0x1EDA JUMPI PUSH0 PUSH0 REVERT JUMPDEST POP JUMP JUMPDEST PUSH0 DUP2 MLOAD SWAP1 POP PUSH2 0x1EEB DUP2 PUSH2 0x1EC7 JUMP JUMPDEST SWAP3 SWAP2 POP POP JUMP JUMPDEST PUSH0 PUSH1 0xE0 DUP3 DUP5 SUB SLT ISZERO PUSH2 0x1F06 JUMPI PUSH2 0x1F05 PUSH2 0x1E08 JUMP JUMPDEST JUMPDEST PUSH2 0x1F10 PUSH1 0xE0 PUSH2 0x1E7A JUMP JUMPDEST SWAP1 POP PUSH0 PUSH2 0x1F1F DUP5 DUP3 DUP6 ADD PUSH2 0x1E94 JUMP JUMPDEST PUSH0 DUP4 ADD MSTORE POP PUSH1 0x20 PUSH2 0x1F32 DUP5 DUP3 DUP6 ADD PUSH2 0x1EA8 JUMP JUMPDEST PUSH1 0x20 DUP4 ADD MSTORE POP PUSH1 0x40 PUSH2 0x1F46 DUP5 DUP3 DUP6 ADD PUSH2 0x1E94 JUMP JUMPDEST PUSH1 0x40 DUP4 ADD MSTORE POP PUSH1 0x60 PUSH2 0x1F5A DUP5 DUP3 DUP6 ADD PUSH2 0x1E94 JUMP JUMPDEST PUSH1 0x60 DUP4 ADD MSTORE POP PUSH1 0x80 PUSH2 0x1F6E DUP5 DUP3 DUP6 ADD PUSH2 0x1E94 JUMP JUMPDEST PUSH1 0x80 DUP4 ADD MSTORE POP PUSH1 0xA0 PUSH2 0x1F82 DUP5 DUP3 DUP6 ADD PUSH2 0x1EDD JUMP JUMPDEST PUSH1 0xA0 DUP4 ADD MSTORE POP PUSH1 0xC0 PUSH2 0x1F96 DUP5 DUP3 DUP6 ADD PUSH2 0x1E94 JUMP JUMPDEST PUSH1 0xC0 DUP4 ADD MSTORE POP SWAP3 SWAP2 POP POP JUMP JUMPDEST PUSH0 PUSH1 0xE0 DUP3 DUP5 SUB SLT ISZERO PUSH2 0x1FB7 JUMPI PUSH2 0x1FB6 PUSH2 0x1954 JUMP JUMPDEST JUMPDEST PUSH0 PUSH2 0x1FC4 DUP5 DUP3 DUP6 ADD PUSH2 0x1EF1 JUMP JUMPDEST SWAP2 POP POP SWAP3 SWAP2 POP POP JUMP JUMPDEST PUSH32 0x4E6F74207468652077696E6E6572000000000000000000000000000000000000 PUSH0 DUP3 ADD MSTORE POP JUMP JUMPDEST PUSH0 PUSH2 0x2001 PUSH1 0xE DUP4 PUSH2 0x1A6C JUMP JUMPDEST SWAP2 POP PUSH2 0x200C DUP3 PUSH2 0x1FCD JUMP JUMPDEST PUSH1 0x20 DUP3 ADD SWAP1 POP SWAP2 SWAP1 POP JUMP JUMPDEST PUSH0 PUSH1 0x20 DUP3 ADD SWAP1 POP DUP2 DUP2 SUB PUSH0 DUP4 ADD MSTORE PUSH2 0x202E DUP2 PUSH2 0x1FF5 JUMP JUMPDEST SWAP1 POP SWAP2 SWAP1 POP JUMP JUMPDEST PUSH32 0x5072697A6520616C726561647920636C61696D65640000000000000000000000 PUSH0 DUP3 ADD MSTORE POP JUMP JUMPDEST PUSH0 PUSH2 0x2069 PUSH1 0x15 DUP4 PUSH2 0x1A6C JUMP JUMPDEST SWAP2 POP PUSH2 0x2074 DUP3 PUSH2 0x2035 JUMP JUMPDEST PUSH1 0x20 DUP3 ADD SWAP1 POP SWAP2 SWAP1 POP JUMP JUMPDEST PUSH0 PUSH1 0x20 DUP3 ADD SWAP1 POP DUP2 DUP2 SUB PUSH0 DUP4 ADD MSTORE PUSH2 0x2096 DUP2 PUSH2 0x205D JUMP JUMPDEST SWAP1 POP SWAP2 SWAP1 POP JUMP JUMPDEST PUSH32 0x4E487B7100000000000000000000000000000000000000000000000000000000 PUSH0 MSTORE PUSH1 0x11 PUSH1 0x4 MSTORE PUSH1 0x24 PUSH0 REVERT JUMPDEST PUSH0 PUSH2 0x20D4 DUP3 PUSH2 0x1958 JUMP JUMPDEST SWAP2 POP PUSH2 0x20DF DUP4 PUSH2 0x1958 JUMP JUMPDEST SWAP3 POP DUP3 DUP3 MUL PUSH2 0x20ED DUP2 PUSH2 0x1958 JUMP JUMPDEST SWAP2 POP DUP3 DUP3 DIV DUP5 EQ DUP4 ISZERO OR PUSH2 0x2104 JUMPI PUSH2 0x2103 PUSH2 0x209D JUMP JUMPDEST JUMPDEST POP SWAP3 SWAP2 POP POP JUMP JUMPDEST PUSH32 0x4E487B7100000000000000000000000000000000000000000000000000000000 PUSH0 MSTORE PUSH1 0x12 PUSH1 0x4 MSTORE PUSH1 0x24 PUSH0 REVERT JUMPDEST PUSH0 PUSH2 0x2142 DUP3 PUSH2 0x1958 JUMP JUMPDEST SWAP2 POP PUSH2 0x214D DUP4 PUSH2 0x1958 JUMP JUMPDEST SWAP3 POP DUP3 PUSH2 0x215D JUMPI PUSH2 0x215C PUSH2 0x210B JUMP JUMPDEST JUMPDEST DUP3 DUP3 DIV SWAP1 POP SWAP3 SWAP2 POP POP JUMP JUMPDEST PUSH0 PUSH2 0x2172 DUP3 PUSH2 0x1958 JUMP JUMPDEST SWAP2 POP PUSH2 0x217D DUP4 PUSH2 0x1958 JUMP JUMPDEST SWAP3 POP DUP3 DUP3 SUB SWAP1 POP DUP2 DUP2 GT ISZERO PUSH2 0x2195 JUMPI PUSH2 0x2194 PUSH2 0x209D JUMP JUMPDEST JUMPDEST SWAP3 SWAP2 POP POP JUMP JUMPDEST PUSH0 PUSH1 0x20 DUP3 DUP5 SUB SLT ISZERO PUSH2 0x21B0 JUMPI PUSH2 0x21AF PUSH2 0x1954 JUMP JUMPDEST JUMPDEST PUSH0 PUSH2 0x21BD DUP5 DUP3 DUP6 ADD PUSH2 0x1EDD JUMP JUMPDEST SWAP2 POP POP SWAP3 SWAP2 POP POP JUMP JUMPDEST PUSH32 0x5769746864726177616C2066726F6D207969656C642061676772656761746F72 PUSH0 DUP3 ADD MSTORE PUSH32 0x206661696C656400000000000000000000000000000000000000000000000000 PUSH1 0x20 DUP3 ADD MSTORE POP JUMP JUMPDEST PUSH0 PUSH2 0x2220 PUSH1 0x27 DUP4 PUSH2 0x1A6C JUMP JUMPDEST SWAP2 POP PUSH2 0x222B DUP3 PUSH2 0x21C6 JUMP JUMPDEST PUSH1 0x40 DUP3 ADD SWAP1 POP SWAP2 SWAP1 POP JUMP JUMPDEST PUSH0 PUSH1 0x20 DUP3 ADD SWAP1 POP DUP2 DUP2 SUB PUSH0 DUP4 ADD MSTORE PUSH2 0x224D DUP2 PUSH2 0x2214 JUMP JUMPDEST SWAP1 POP SWAP2 SWAP1 POP JUMP JUMPDEST PUSH0 DUP2 MLOAD SWAP1 POP SWAP2 SWAP1 POP JUMP JUMPDEST PUSH0 DUP2 SWAP1 POP SWAP3 SWAP2 POP POP JUMP JUMPDEST DUP3 DUP2 DUP4 MCOPY PUSH0 DUP4 DUP4 ADD MSTORE POP POP POP JUMP JUMPDEST PUSH0 PUSH2 0x2280 DUP3 PUSH2 0x2254 JUMP JUMPDEST PUSH2 0x228A DUP2 DUP6 PUSH2 0x225E JUMP JUMPDEST SWAP4 POP PUSH2 0x229A DUP2 DUP6 PUSH1 0x20 DUP7 ADD PUSH2 0x2268 JUMP JUMPDEST DUP1 DUP5 ADD SWAP2 POP POP SWAP3 SWAP2 POP POP JUMP JUMPDEST PUSH0 PUSH2 0x22B1 DUP3 DUP5 PUSH2 0x2276 JUMP JUMPDEST SWAP2 POP DUP2 SWAP1 POP SWAP3 SWAP2 POP POP JUMP JUMPDEST PUSH32 0x466565206465706F736974206661696C65640000000000000000000000000000 PUSH0 DUP3 ADD MSTORE POP JUMP JUMPDEST PUSH0 PUSH2 0x22F0 PUSH1 0x12 DUP4 PUSH2 0x1A6C JUMP JUMPDEST SWAP2 POP PUSH2 0x22FB DUP3 PUSH2 0x22BC JUMP JUMPDEST PUSH1 0x20 DUP3 ADD SWAP1 POP SWAP2 SWAP1 POP JUMP JUMPDEST PUSH0 PUSH1 0x20 DUP3 ADD SWAP1 POP DUP2 DUP2 SUB PUSH0 DUP4 ADD MSTORE PUSH2 0x231D DUP2 PUSH2 0x22E4 JUMP JUMPDEST SWAP1 POP SWAP2 SWAP1 POP JUMP JUMPDEST PUSH32 0x4F776E61626C653A206E6577206F776E657220697320746865207A65726F2061 PUSH0 DUP3 ADD MSTORE PUSH32 0x6464726573730000000000000000000000000000000000000000000000000000 PUSH1 0x20 DUP3 ADD MSTORE POP JUMP JUMPDEST PUSH0 PUSH2 0x237E PUSH1 0x26 DUP4 PUSH2 0x1A6C JUMP JUMPDEST SWAP2 POP PUSH2 0x2389 DUP3 PUSH2 0x2324 JUMP JUMPDEST PUSH1 0x40 DUP3 ADD SWAP1 POP SWAP2 SWAP1 POP JUMP JUMPDEST PUSH0 PUSH1 0x20 DUP3 ADD SWAP1 POP DUP2 DUP2 SUB PUSH0 DUP4 ADD MSTORE PUSH2 0x23AB DUP2 PUSH2 0x2372 JUMP JUMPDEST SWAP1 POP SWAP2 SWAP1 POP JUMP JUMPDEST PUSH0 PUSH1 0x20 DUP3 DUP5 SUB SLT ISZERO PUSH2 0x23C7 JUMPI PUSH2 0x23C6 PUSH2 0x1954 JUMP JUMPDEST JUMPDEST PUSH0 PUSH2 0x23D4 DUP5 DUP3 DUP6 ADD PUSH2 0x1E94 JUMP JUMPDEST SWAP2 POP POP SWAP3 SWAP2 POP POP JUMP JUMPDEST PUSH32 0x466565207261746520746F6F2068696768000000000000000000000000000000 PUSH0 DUP3 ADD MSTORE POP JUMP JUMPDEST PUSH0 PUSH2 0x2411 PUSH1 0x11 DUP4 PUSH2 0x1A6C JUMP JUMPDEST SWAP2 POP PUSH2 0x241C DUP3 PUSH2 0x23DD JUMP JUMPDEST PUSH1 0x20 DUP3 ADD SWAP1 POP SWAP2 SWAP1 POP JUMP JUMPDEST PUSH0 PUSH1 0x20 DUP3 ADD SWAP1 POP DUP2 DUP2 SUB PUSH0 DUP4 ADD MSTORE PUSH2 0x243E DUP2 PUSH2 0x2405 JUMP JUMPDEST SWAP1 POP SWAP2 SWAP1 POP JUMP JUMPDEST PUSH0 PUSH1 0x40 DUP3 ADD SWAP1 POP PUSH2 0x2458 PUSH0 DUP4 ADD DUP6 PUSH2 0x1A0B JUMP JUMPDEST PUSH2 0x2465 PUSH1 0x20 DUP4 ADD DUP5 PUSH2 0x1A0B JUMP JUMPDEST SWAP4 SWAP3 POP POP POP JUMP JUMPDEST PUSH0 PUSH1 0x40 DUP3 ADD SWAP1 POP PUSH2 0x247F PUSH0 DUP4 ADD DUP6 PUSH2 0x1923 JUMP JUMPDEST PUSH2 0x248C PUSH1 0x20 DUP4 ADD DUP5 PUSH2 0x1923 JUMP JUMPDEST SWAP4 SWAP3 POP POP POP JUMP JUMPDEST PUSH32 0x5361666545524332303A20617070726F76652066726F6D206E6F6E2D7A65726F PUSH0 DUP3 ADD MSTORE PUSH32 0x20746F206E6F6E2D7A65726F20616C6C6F77616E636500000000000000000000 PUSH1 0x20 DUP3 ADD MSTORE POP JUMP JUMPDEST PUSH0 PUSH2 0x24ED PUSH1 0x36 DUP4 PUSH2 0x1A6C JUMP JUMPDEST SWAP2 POP PUSH2 0x24F8 DUP3 PUSH2 0x2493 JUMP JUMPDEST PUSH1 0x40 DUP3 ADD SWAP1 POP SWAP2 SWAP1 POP JUMP JUMPDEST PUSH0 PUSH1 0x20 DUP3 ADD SWAP1 POP DUP2 DUP2 SUB PUSH0 DUP4 ADD MSTORE PUSH2 0x251A DUP2 PUSH2 0x24E1 JUMP JUMPDEST SWAP1 POP SWAP2 SWAP1 POP JUMP JUMPDEST PUSH0 PUSH1 0x40 DUP3 ADD SWAP1 POP PUSH2 0x2534 PUSH0 DUP4 ADD DUP6 PUSH2 0x1923 JUMP JUMPDEST PUSH2 0x2541 PUSH1 0x20 DUP4 ADD DUP5 PUSH2 0x1A0B JUMP JUMPDEST SWAP4 SWAP3 POP POP POP JUMP JUMPDEST PUSH32 0x5361666545524332303A204552433230206F7065726174696F6E20646964206E PUSH0 DUP3 ADD MSTORE PUSH32 0x6F74207375636365656400000000000000000000000000000000000000000000 PUSH1 0x20 DUP3 ADD MSTORE POP JUMP JUMPDEST PUSH0 PUSH2 0x25A2 PUSH1 0x2A DUP4 PUSH2 0x1A6C JUMP JUMPDEST SWAP2 POP PUSH2 0x25AD DUP3 PUSH2 0x2548 JUMP JUMPDEST PUSH1 0x40 DUP3 ADD SWAP1 POP SWAP2 SWAP1 POP JUMP JUMPDEST PUSH0 PUSH1 0x20 DUP3 ADD SWAP1 POP DUP2 DUP2 SUB PUSH0 DUP4 ADD MSTORE PUSH2 0x25CF DUP2 PUSH2 0x2596 JUMP JUMPDEST SWAP1 POP SWAP2 SWAP1 POP JUMP JUMPDEST PUSH32 0x416464726573733A20696E73756666696369656E742062616C616E636520666F PUSH0 DUP3 ADD MSTORE PUSH32 0x722063616C6C0000000000000000000000000000000000000000000000000000 PUSH1 0x20 DUP3 ADD MSTORE POP JUMP JUMPDEST PUSH0 PUSH2 0x2630 PUSH1 0x26 DUP4 PUSH2 0x1A6C JUMP JUMPDEST SWAP2 POP PUSH2 0x263B DUP3 PUSH2 0x25D6 JUMP JUMPDEST PUSH1 0x40 DUP3 ADD SWAP1 POP SWAP2 SWAP1 POP JUMP JUMPDEST PUSH0 PUSH1 0x20 DUP3 ADD SWAP1 POP DUP2 DUP2 SUB PUSH0 DUP4 ADD MSTORE PUSH2 0x265D DUP2 PUSH2 0x2624 JUMP JUMPDEST SWAP1 POP SWAP2 SWAP1 POP JUMP JUMPDEST PUSH32 0x416464726573733A2063616C6C20746F206E6F6E2D636F6E7472616374000000 PUSH0 DUP3 ADD MSTORE POP JUMP JUMPDEST PUSH0 PUSH2 0x2698 PUSH1 0x1D DUP4 PUSH2 0x1A6C JUMP JUMPDEST SWAP2 POP PUSH2 0x26A3 DUP3 PUSH2 0x2664 JUMP JUMPDEST PUSH1 0x20 DUP3 ADD SWAP1 POP SWAP2 SWAP1 POP JUMP JUMPDEST PUSH0 PUSH1 0x20 DUP3 ADD SWAP1 POP DUP2 DUP2 SUB PUSH0 DUP4 ADD MSTORE PUSH2 0x26C5 DUP2 PUSH2 0x268C JUMP JUMPDEST SWAP1 POP SWAP2 SWAP1 POP JUMP JUMPDEST PUSH0 DUP2 MLOAD SWAP1 POP SWAP2 SWAP1 POP JUMP JUMPDEST PUSH0 PUSH2 0x26E0 DUP3 PUSH2 0x26CC JUMP JUMPDEST PUSH2 0x26EA DUP2 DUP6 PUSH2 0x1A6C JUMP JUMPDEST SWAP4 POP PUSH2 0x26FA DUP2 DUP6 PUSH1 0x20 DUP7 ADD PUSH2 0x2268 JUMP JUMPDEST PUSH2 0x2703 DUP2 PUSH2 0x1E0C JUMP JUMPDEST DUP5 ADD SWAP2 POP POP SWAP3 SWAP2 POP POP JUMP JUMPDEST PUSH0 PUSH1 0x20 DUP3 ADD SWAP1 POP DUP2 DUP2 SUB PUSH0 DUP4 ADD MSTORE PUSH2 0x2726 DUP2 DUP5 PUSH2 0x26D6 JUMP JUMPDEST SWAP1 POP SWAP3 SWAP2 POP POP JUMP INVALID LOG2 PUSH5 0x6970667358 0x22 SLT KECCAK256 PUSH31 0xF20738C72FECD0DC4BB200EF93040FDDA59C4BBED3AC24E4487C6456019467 PUSH5 0x736F6C6343 STOP ADDMOD 0x1E STOP CALLER "
				},
				"gasEstimates": {
					"creation": {
						"codeDepositCost": "2016800",
						"executionCost": "infinite",
						"totalCost": "infinite"
					},
					"external": {
						"MAX_FEE_RATE()": "414",
						"addToPrizePool()": "507",
						"claimPrize(uint256)": "infinite",
						"feeRate()": "2448",
						"getPrizePoolAmount()": "infinite",
						"lottery()": "infinite",
						"owner()": "2581",
						"renounceOwnership()": "30408",
						"setFeeRate(uint256)": "infinite",
						"setVault(address)": "28169",
						"setWETH(address)": "27075",
						"setYieldAggregator(address)": "30722",
						"transferOwnership(address)": "30748",
						"vault()": "2596",
						"weth()": "2554",
						"yieldAggregator()": "infinite"
					},
					"internal": {
						"_setFeeRate(uint256)": "infinite"
					}
				},
				"methodIdentifiers": {
					"MAX_FEE_RATE()": "92f6576e",
					"addToPrizePool()": "b3ede13f",
					"claimPrize(uint256)": "d7098154",
					"feeRate()": "978bbdb9",
					"getPrizePoolAmount()": "f6fe8727",
					"lottery()": "ba13a572",
					"owner()": "8da5cb5b",
					"renounceOwnership()": "715018a6",
					"setFeeRate(uint256)": "45596e2e",
					"setVault(address)": "6817031b",
					"setWETH(address)": "5b769f3c",
					"setYieldAggregator(address)": "992b48de",
					"transferOwnership(address)": "f2fde38b",
					"vault()": "fbfa77cf",
					"weth()": "3fc8cef3",
					"yieldAggregator()": "2a194b6d"
				}
			},
			"storageLayout": {
				"storage": [
					{
						"astId": 7,
						"contract": "contracts/PrizePool.sol:PrizePool",
						"label": "_owner",
						"offset": 0,
						"slot": "0",
						"type": "t_address"
					},
					{
						"astId": 744,
						"contract": "contracts/PrizePool.sol:PrizePool",
						"label": "yieldAggregator",
						"offset": 0,
						"slot": "1",
						"type": "t_contract(IYieldAggregator)1599"
					},
					{
						"astId": 746,
						"contract": "contracts/PrizePool.sol:PrizePool",
						"label": "vault",
						"offset": 0,
						"slot": "2",
						"type": "t_address"
					},
					{
						"astId": 749,
						"contract": "contracts/PrizePool.sol:PrizePool",
						"label": "lottery",
						"offset": 0,
						"slot": "3",
						"type": "t_contract(ILottery)1186"
					},
					{
						"astId": 751,
						"contract": "contracts/PrizePool.sol:PrizePool",
						"label": "weth",
						"offset": 0,
						"slot": "4",
						"type": "t_address"
					},
					{
						"astId": 754,
						"contract": "contracts/PrizePool.sol:PrizePool",
						"label": "feeRate",
						"offset": 0,
						"slot": "5",
						"type": "t_uint256"
					}
				],
				"types": {
					"t_address": {
						"encoding": "inplace",
						"label": "address",
						"numberOfBytes": "20"
					},
					"t_contract(ILottery)1186": {
						"encoding": "inplace",
						"label": "contract ILottery",
						"numberOfBytes": "20"
					},
					"t_contract(IYieldAggregator)1599": {
						"encoding": "inplace",
						"label": "contract IYieldAggregator",
						"numberOfBytes": "20"
					},
					"t_uint256": {
						"encoding": "inplace",
						"label": "uint256",
						"numberOfBytes": "32"
					}
				}
			},
			"userdoc": {
				"kind": "user",
				"methods": {
					"addToPrizePool()": {
						"notice": "向奖池添加ETH"
					},
					"claimPrize(uint256)": {
						"notice": "Allows a winner to claim their ETH prize"
					},
					"feeRate()": {
						"notice": "Gets the current fee rate"
					},
					"getPrizePoolAmount()": {
						"notice": "Gets the current prize pool amount in ETH"
					},
					"setFeeRate(uint256)": {
						"notice": "更新奖金费率"
					},
					"setVault(address)": {
						"notice": "Sets the vault address"
					},
					"setWETH(address)": {
						"notice": "Sets the WETH token address"
					},
					"setYieldAggregator(address)": {
						"notice": "Sets the yield aggregator address"
					}
				},
				"version": 1
			}
		}
	}
}