{
	"contracts/LotteryRouter.sol": {
		"LotteryRouter": {
			"abi": [
				{
					"anonymous": false,
					"inputs": [
						{
							"indexed": true,
							"internalType": "string",
							"name": "componentName",
							"type": "string"
						},
						{
							"indexed": true,
							"internalType": "address",
							"name": "newAddress",
							"type": "address"
						}
					],
					"name": "ComponentUpdated",
					"type": "event"
				},
				{
					"anonymous": false,
					"inputs": [
						{
							"indexed": true,
							"internalType": "address",
							"name": "user",
							"type": "address"
						},
						{
							"indexed": false,
							"internalType": "uint256",
							"name": "amount",
							"type": "uint256"
						}
					],
					"name": "DepositRouted",
					"type": "event"
				},
				{
					"anonymous": false,
					"inputs": [
						{
							"indexed": true,
							"internalType": "address",
							"name": "previousOwner",
							"type": "address"
						},
						{
							"indexed": true,
							"internalType": "address",
							"name": "newOwner",
							"type": "address"
						}
					],
					"name": "OwnershipTransferred",
					"type": "event"
				},
				{
					"anonymous": false,
					"inputs": [
						{
							"indexed": true,
							"internalType": "address",
							"name": "winner",
							"type": "address"
						},
						{
							"indexed": false,
							"internalType": "uint256",
							"name": "amount",
							"type": "uint256"
						},
						{
							"indexed": false,
							"internalType": "uint256",
							"name": "roundId",
							"type": "uint256"
						}
					],
					"name": "PrizeClaimRouted",
					"type": "event"
				},
				{
					"anonymous": false,
					"inputs": [
						{
							"indexed": true,
							"internalType": "address",
							"name": "user",
							"type": "address"
						}
					],
					"name": "WithdrawalInstructionIssued",
					"type": "event"
				},
				{
					"inputs": [
						{
							"internalType": "uint256",
							"name": "roundId",
							"type": "uint256"
						}
					],
					"name": "claimPrize",
					"outputs": [],
					"stateMutability": "nonpayable",
					"type": "function"
				},
				{
					"inputs": [
						{
							"internalType": "uint256",
							"name": "amount",
							"type": "uint256"
						}
					],
					"name": "deposit",
					"outputs": [],
					"stateMutability": "nonpayable",
					"type": "function"
				},
				{
					"inputs": [],
					"name": "getSystemStatus",
					"outputs": [
						{
							"components": [
								{
									"internalType": "uint256",
									"name": "currentRoundId",
									"type": "uint256"
								},
								{
									"internalType": "uint256",
									"name": "participantCount",
									"type": "uint256"
								},
								{
									"internalType": "uint256",
									"name": "totalDeposits",
									"type": "uint256"
								},
								{
									"internalType": "uint256",
									"name": "totalWeight",
									"type": "uint256"
								},
								{
									"internalType": "uint256",
									"name": "nextDrawTimestamp",
									"type": "uint256"
								},
								{
									"internalType": "uint256",
									"name": "lastDrawTimestamp",
									"type": "uint256"
								}
							],
							"internalType": "struct ILotteryRouter.SystemStatus",
							"name": "",
							"type": "tuple"
						}
					],
					"stateMutability": "view",
					"type": "function"
				},
				{
					"inputs": [
						{
							"internalType": "address",
							"name": "user",
							"type": "address"
						}
					],
					"name": "getUserInfo",
					"outputs": [
						{
							"components": [
								{
									"internalType": "uint256",
									"name": "depositAmount",
									"type": "uint256"
								},
								{
									"internalType": "uint256",
									"name": "weight",
									"type": "uint256"
								},
								{
									"internalType": "uint256",
									"name": "depositTimestamp",
									"type": "uint256"
								},
								{
									"internalType": "bool",
									"name": "hasDeposit",
									"type": "bool"
								},
								{
									"internalType": "uint256",
									"name": "shareTokenBalance",
									"type": "uint256"
								}
							],
							"internalType": "struct ILotteryRouter.UserInfo",
							"name": "",
							"type": "tuple"
						}
					],
					"stateMutability": "view",
					"type": "function"
				},
				{
					"inputs": [],
					"name": "lottery",
					"outputs": [
						{
							"internalType": "address",
							"name": "",
							"type": "address"
						}
					],
					"stateMutability": "view",
					"type": "function"
				},
				{
					"inputs": [],
					"name": "owner",
					"outputs": [
						{
							"internalType": "address",
							"name": "",
							"type": "address"
						}
					],
					"stateMutability": "view",
					"type": "function"
				},
				{
					"inputs": [],
					"name": "prizePool",
					"outputs": [
						{
							"internalType": "address",
							"name": "",
							"type": "address"
						}
					],
					"stateMutability": "view",
					"type": "function"
				},
				{
					"inputs": [],
					"name": "renounceOwnership",
					"outputs": [],
					"stateMutability": "nonpayable",
					"type": "function"
				},
				{
					"inputs": [
						{
							"internalType": "address",
							"name": "_lottery",
							"type": "address"
						}
					],
					"name": "setLottery",
					"outputs": [],
					"stateMutability": "nonpayable",
					"type": "function"
				},
				{
					"inputs": [
						{
							"internalType": "address",
							"name": "_prizePool",
							"type": "address"
						}
					],
					"name": "setPrizePool",
					"outputs": [],
					"stateMutability": "nonpayable",
					"type": "function"
				},
				{
					"inputs": [
						{
							"internalType": "address",
							"name": "_shareToken",
							"type": "address"
						}
					],
					"name": "setShareToken",
					"outputs": [],
					"stateMutability": "nonpayable",
					"type": "function"
				},
				{
					"inputs": [
						{
							"internalType": "address",
							"name": "_vault",
							"type": "address"
						}
					],
					"name": "setVault",
					"outputs": [],
					"stateMutability": "nonpayable",
					"type": "function"
				},
				{
					"inputs": [],
					"name": "shareToken",
					"outputs": [
						{
							"internalType": "address",
							"name": "",
							"type": "address"
						}
					],
					"stateMutability": "view",
					"type": "function"
				},
				{
					"inputs": [
						{
							"internalType": "address",
							"name": "newOwner",
							"type": "address"
						}
					],
					"name": "transferOwnership",
					"outputs": [],
					"stateMutability": "nonpayable",
					"type": "function"
				},
				{
					"inputs": [],
					"name": "triggerDraw",
					"outputs": [],
					"stateMutability": "nonpayable",
					"type": "function"
				},
				{
					"inputs": [],
					"name": "vault",
					"outputs": [
						{
							"internalType": "address",
							"name": "",
							"type": "address"
						}
					],
					"stateMutability": "view",
					"type": "function"
				},
				{
					"inputs": [],
					"name": "withdraw",
					"outputs": [],
					"stateMutability": "nonpayable",
					"type": "function"
				},
				{
					"inputs": [
						{
							"internalType": "uint256",
							"name": "roundId",
							"type": "uint256"
						}
					],
					"name": "withdrawFromRound",
					"outputs": [],
					"stateMutability": "nonpayable",
					"type": "function"
				},
				{
					"stateMutability": "payable",
					"type": "receive"
				}
			],
			"devdoc": {
				"kind": "dev",
				"methods": {
					"claimPrize(uint256)": {
						"params": {
							"roundId": "要领取奖金的轮次ID"
						}
					},
					"deposit(uint256)": {
						"details": "用户需要预先授权Router合约使用其WETH代币",
						"params": {
							"amount": "要存入的WETH代币数量"
						}
					},
					"getSystemStatus()": {
						"returns": {
							"_0": "包含系统当前状态的结构体"
						}
					},
					"getUserInfo(address)": {
						"params": {
							"user": "要查询的用户地址"
						},
						"returns": {
							"_0": "包含用户当前状态的结构体"
						}
					},
					"owner()": {
						"details": "Returns the address of the current owner."
					},
					"renounceOwnership()": {
						"details": "Leaves the contract without owner. It will not be possible to call `onlyOwner` functions anymore. Can only be called by the current owner. NOTE: Renouncing ownership will leave the contract without an owner, thereby removing any functionality that is only available to the owner."
					},
					"setLottery(address)": {
						"params": {
							"_lottery": "新的彩票合约地址"
						}
					},
					"setPrizePool(address)": {
						"params": {
							"_prizePool": "新的奖池合约地址"
						}
					},
					"setShareToken(address)": {
						"params": {
							"_shareToken": "新的shareToken地址"
						}
					},
					"setVault(address)": {
						"params": {
							"_vault": "新的保险库合约地址"
						}
					},
					"transferOwnership(address)": {
						"details": "Transfers ownership of the contract to a new account (`newOwner`). Can only be called by the current owner."
					},
					"triggerDraw()": {
						"details": "通常抽奖由Chainlink Automation自动触发，此函数仅用于测试或紧急情况"
					},
					"withdraw()": {
						"details": "路由层只负责业务调度，校验由业务层处理"
					},
					"withdrawFromRound(uint256)": {
						"details": "路由层只负责业务调度，校验由业务层处理",
						"params": {
							"roundId": "要取款的轮次ID"
						}
					}
				},
				"title": "LotteryRouter",
				"version": 1
			},
			"evm": {
				"assembly": "    /* \"contracts/LotteryRouter.sol\":608:9425  contract LotteryRouter is ILotteryRouter, Ownable, ReentrancyGuard {... */\n  mstore(0x40, 0x80)\n  callvalue\n  dup1\n  iszero\n  tag_1\n  jumpi\n  revert(0x00, 0x00)\ntag_1:\n  pop\n    /* \"@openzeppelin/contracts/access/Ownable.sol\":921:953  _transferOwnership(_msgSender()) */\n  tag_5\n    /* \"@openzeppelin/contracts/access/Ownable.sol\":940:952  _msgSender() */\n  tag_6\n    /* \"@openzeppelin/contracts/access/Ownable.sol\":940:950  _msgSender */\n  shl(0x20, tag_7)\n    /* \"@openzeppelin/contracts/access/Ownable.sol\":940:952  _msgSender() */\n  0x20\n  shr\n  jump\t// in\ntag_6:\n    /* \"@openzeppelin/contracts/access/Ownable.sol\":921:939  _transferOwnership */\n  shl(0x20, tag_8)\n    /* \"@openzeppelin/contracts/access/Ownable.sol\":921:953  _transferOwnership(_msgSender()) */\n  0x20\n  shr\n  jump\t// in\ntag_5:\n    /* \"@openzeppelin/contracts/security/ReentrancyGuard.sol\":1701:1702  1 */\n  0x01\n    /* \"@openzeppelin/contracts/security/ReentrancyGuard.sol\":1806:1813  _status */\n  dup1\n    /* \"@openzeppelin/contracts/security/ReentrancyGuard.sol\":1806:1828  _status = _NOT_ENTERED */\n  dup2\n  swap1\n  sstore\n  pop\n    /* \"contracts/LotteryRouter.sol\":608:9425  contract LotteryRouter is ILotteryRouter, Ownable, ReentrancyGuard {... */\n  jump(tag_10)\n    /* \"@openzeppelin/contracts/utils/Context.sol\":640:736  function _msgSender() internal view virtual returns (address) {... */\ntag_7:\n    /* \"@openzeppelin/contracts/utils/Context.sol\":693:700  address */\n  0x00\n    /* \"@openzeppelin/contracts/utils/Context.sol\":719:729  msg.sender */\n  caller\n    /* \"@openzeppelin/contracts/utils/Context.sol\":712:729  return msg.sender */\n  swap1\n  pop\n    /* \"@openzeppelin/contracts/utils/Context.sol\":640:736  function _msgSender() internal view virtual returns (address) {... */\n  swap1\n  jump\t// out\n    /* \"@openzeppelin/contracts/access/Ownable.sol\":2270:2457  function _transferOwnership(address newOwner) internal virtual {... */\ntag_8:\n    /* \"@openzeppelin/contracts/access/Ownable.sol\":2343:2359  address oldOwner */\n  0x00\n    /* \"@openzeppelin/contracts/access/Ownable.sol\":2362:2368  _owner */\n  0x00\n  0x00\n  swap1\n  sload\n  swap1\n  0x0100\n  exp\n  swap1\n  div\n  0xffffffffffffffffffffffffffffffffffffffff\n  and\n    /* \"@openzeppelin/contracts/access/Ownable.sol\":2343:2368  address oldOwner = _owner */\n  swap1\n  pop\n    /* \"@openzeppelin/contracts/access/Ownable.sol\":2387:2395  newOwner */\n  dup2\n    /* \"@openzeppelin/contracts/access/Ownable.sol\":2378:2384  _owner */\n  0x00\n  0x00\n    /* \"@openzeppelin/contracts/access/Ownable.sol\":2378:2395  _owner = newOwner */\n  0x0100\n  exp\n  dup2\n  sload\n  dup2\n  0xffffffffffffffffffffffffffffffffffffffff\n  mul\n  not\n  and\n  swap1\n  dup4\n  0xffffffffffffffffffffffffffffffffffffffff\n  and\n  mul\n  or\n  swap1\n  sstore\n  pop\n    /* \"@openzeppelin/contracts/access/Ownable.sol\":2441:2449  newOwner */\n  dup2\n    /* \"@openzeppelin/contracts/access/Ownable.sol\":2410:2450  OwnershipTransferred(oldOwner, newOwner) */\n  0xffffffffffffffffffffffffffffffffffffffff\n  and\n    /* \"@openzeppelin/contracts/access/Ownable.sol\":2431:2439  oldOwner */\n  dup2\n    /* \"@openzeppelin/contracts/access/Ownable.sol\":2410:2450  OwnershipTransferred(oldOwner, newOwner) */\n  0xffffffffffffffffffffffffffffffffffffffff\n  and\n  0x8be0079c531659141344cd1fd0a4f28419497f9722a3daafe3b4186f6b6457e0\n  mload(0x40)\n  mload(0x40)\n  dup1\n  swap2\n  sub\n  swap1\n  log3\n    /* \"@openzeppelin/contracts/access/Ownable.sol\":2333:2457  {... */\n  pop\n    /* \"@openzeppelin/contracts/access/Ownable.sol\":2270:2457  function _transferOwnership(address newOwner) internal virtual {... */\n  pop\n  jump\t// out\n    /* \"contracts/LotteryRouter.sol\":608:9425  contract LotteryRouter is ILotteryRouter, Ownable, ReentrancyGuard {... */\ntag_10:\n  dataSize(sub_0)\n  dup1\n  dataOffset(sub_0)\n  0x00\n  codecopy\n  0x00\n  return\nstop\n\nsub_0: assembly {\n        /* \"contracts/LotteryRouter.sol\":608:9425  contract LotteryRouter is ILotteryRouter, Ownable, ReentrancyGuard {... */\n      mstore(0x40, 0x80)\n      jumpi(tag_1, lt(calldatasize, 0x04))\n      shr(0xe0, calldataload(0x00))\n      dup1\n      0x719ce73e\n      gt\n      tag_21\n      jumpi\n      dup1\n      0xba13a572\n      gt\n      tag_22\n      jumpi\n      dup1\n      0xba13a572\n      eq\n      tag_16\n      jumpi\n      dup1\n      0xd7098154\n      eq\n      tag_17\n      jumpi\n      dup1\n      0xf298083b\n      eq\n      tag_18\n      jumpi\n      dup1\n      0xf2fde38b\n      eq\n      tag_19\n      jumpi\n      dup1\n      0xfbfa77cf\n      eq\n      tag_20\n      jumpi\n      jump(tag_2)\n    tag_22:\n      dup1\n      0x719ce73e\n      eq\n      tag_12\n      jumpi\n      dup1\n      0x825d2ab7\n      eq\n      tag_13\n      jumpi\n      dup1\n      0x8da5cb5b\n      eq\n      tag_14\n      jumpi\n      dup1\n      0xb6b55f25\n      eq\n      tag_15\n      jumpi\n      jump(tag_2)\n    tag_21:\n      dup1\n      0x50c1d19d\n      gt\n      tag_23\n      jumpi\n      dup1\n      0x50c1d19d\n      eq\n      tag_7\n      jumpi\n      dup1\n      0x6386c1c7\n      eq\n      tag_8\n      jumpi\n      dup1\n      0x6817031b\n      eq\n      tag_9\n      jumpi\n      dup1\n      0x6c9fa59e\n      eq\n      tag_10\n      jumpi\n      dup1\n      0x715018a6\n      eq\n      tag_11\n      jumpi\n      jump(tag_2)\n    tag_23:\n      dup1\n      0x1f4609ea\n      eq\n      tag_3\n      jumpi\n      dup1\n      0x336c6d39\n      eq\n      tag_4\n      jumpi\n      dup1\n      0x3ccfd60b\n      eq\n      tag_5\n      jumpi\n      dup1\n      0x40f797bb\n      eq\n      tag_6\n      jumpi\n      jump(tag_2)\n    tag_1:\n      jumpi(tag_2, calldatasize)\n        /* \"contracts/LotteryRouter.sol\":9366:9416  revert(\"System only accepts WETH tokens, not ETH\") */\n      mload(0x40)\n      0x08c379a000000000000000000000000000000000000000000000000000000000\n      dup2\n      mstore\n      0x04\n      add\n      tag_26\n      swap1\n      tag_27\n      jump\t// in\n    tag_26:\n      mload(0x40)\n      dup1\n      swap2\n      sub\n      swap1\n      revert\n        /* \"contracts/LotteryRouter.sol\":608:9425  contract LotteryRouter is ILotteryRouter, Ownable, ReentrancyGuard {... */\n    tag_2:\n      revert(0x00, 0x00)\n        /* \"contracts/LotteryRouter.sol\":4749:5482  function withdrawFromRound(uint256 roundId) external override {... */\n    tag_3:\n      callvalue\n      dup1\n      iszero\n      tag_28\n      jumpi\n      revert(0x00, 0x00)\n    tag_28:\n      pop\n      tag_29\n      0x04\n      dup1\n      calldatasize\n      sub\n      dup2\n      add\n      swap1\n      tag_30\n      swap2\n      swap1\n      tag_31\n      jump\t// in\n    tag_30:\n      tag_32\n      jump\t// in\n    tag_29:\n      stop\n        /* \"contracts/LotteryRouter.sol\":2292:2520  function setPrizePool(address _prizePool) external onlyOwner {... */\n    tag_4:\n      callvalue\n      dup1\n      iszero\n      tag_33\n      jumpi\n      revert(0x00, 0x00)\n    tag_33:\n      pop\n      tag_34\n      0x04\n      dup1\n      calldatasize\n      sub\n      dup2\n      add\n      swap1\n      tag_35\n      swap2\n      swap1\n      tag_36\n      jump\t// in\n    tag_35:\n      tag_37\n      jump\t// in\n    tag_34:\n      stop\n        /* \"contracts/LotteryRouter.sol\":4077:4525  function withdraw() external override {... */\n    tag_5:\n      callvalue\n      dup1\n      iszero\n      tag_38\n      jumpi\n      revert(0x00, 0x00)\n    tag_38:\n      pop\n      tag_39\n      tag_40\n      jump\t// in\n    tag_39:\n      stop\n        /* \"contracts/LotteryRouter.sol\":2685:2921  function setShareToken(address _shareToken) external onlyOwner {... */\n    tag_6:\n      callvalue\n      dup1\n      iszero\n      tag_41\n      jumpi\n      revert(0x00, 0x00)\n    tag_41:\n      pop\n      tag_42\n      0x04\n      dup1\n      calldatasize\n      sub\n      dup2\n      add\n      swap1\n      tag_43\n      swap2\n      swap1\n      tag_36\n      jump\t// in\n    tag_43:\n      tag_44\n      jump\t// in\n    tag_42:\n      stop\n        /* \"contracts/LotteryRouter.sol\":7002:7902  function getSystemStatus() external view override returns (SystemStatus memory) {... */\n    tag_7:\n      callvalue\n      dup1\n      iszero\n      tag_45\n      jumpi\n      revert(0x00, 0x00)\n    tag_45:\n      pop\n      tag_46\n      tag_47\n      jump\t// in\n    tag_46:\n      mload(0x40)\n      tag_48\n      swap2\n      swap1\n      tag_49\n      jump\t// in\n    tag_48:\n      mload(0x40)\n      dup1\n      swap2\n      sub\n      swap1\n      return\n        /* \"contracts/LotteryRouter.sol\":8054:8768  function getUserInfo(address user) external view override returns (UserInfo memory) {... */\n    tag_8:\n      callvalue\n      dup1\n      iszero\n      tag_50\n      jumpi\n      revert(0x00, 0x00)\n    tag_50:\n      pop\n      tag_51\n      0x04\n      dup1\n      calldatasize\n      sub\n      dup2\n      add\n      swap1\n      tag_52\n      swap2\n      swap1\n      tag_36\n      jump\t// in\n    tag_52:\n      tag_53\n      jump\t// in\n    tag_51:\n      mload(0x40)\n      tag_54\n      swap2\n      swap1\n      tag_55\n      jump\t// in\n    tag_54:\n      mload(0x40)\n      dup1\n      swap2\n      sub\n      swap1\n      return\n        /* \"contracts/LotteryRouter.sol\":1596:2180  function setVault(address _vault) external onlyOwner {... */\n    tag_9:\n      callvalue\n      dup1\n      iszero\n      tag_56\n      jumpi\n      revert(0x00, 0x00)\n    tag_56:\n      pop\n      tag_57\n      0x04\n      dup1\n      calldatasize\n      sub\n      dup2\n      add\n      swap1\n      tag_58\n      swap2\n      swap1\n      tag_36\n      jump\t// in\n    tag_58:\n      tag_59\n      jump\t// in\n    tag_57:\n      stop\n        /* \"contracts/LotteryRouter.sol\":824:849  address public shareToken */\n    tag_10:\n      callvalue\n      dup1\n      iszero\n      tag_60\n      jumpi\n      revert(0x00, 0x00)\n    tag_60:\n      pop\n      tag_61\n      tag_62\n      jump\t// in\n    tag_61:\n      mload(0x40)\n      tag_63\n      swap2\n      swap1\n      tag_64\n      jump\t// in\n    tag_63:\n      mload(0x40)\n      dup1\n      swap2\n      sub\n      swap1\n      return\n        /* \"@openzeppelin/contracts/access/Ownable.sol\":1668:1769  function renounceOwnership() public virtual onlyOwner {... */\n    tag_11:\n      callvalue\n      dup1\n      iszero\n      tag_65\n      jumpi\n      revert(0x00, 0x00)\n    tag_65:\n      pop\n      tag_66\n      tag_67\n      jump\t// in\n    tag_66:\n      stop\n        /* \"contracts/LotteryRouter.sol\":794:818  address public prizePool */\n    tag_12:\n      callvalue\n      dup1\n      iszero\n      tag_68\n      jumpi\n      revert(0x00, 0x00)\n    tag_68:\n      pop\n      tag_69\n      tag_70\n      jump\t// in\n    tag_69:\n      mload(0x40)\n      tag_71\n      swap2\n      swap1\n      tag_64\n      jump\t// in\n    tag_71:\n      mload(0x40)\n      dup1\n      swap2\n      sub\n      swap1\n      return\n        /* \"contracts/LotteryRouter.sol\":8959:9218  function triggerDraw() external onlyOwner {... */\n    tag_13:\n      callvalue\n      dup1\n      iszero\n      tag_72\n      jumpi\n      revert(0x00, 0x00)\n    tag_72:\n      pop\n      tag_73\n      tag_74\n      jump\t// in\n    tag_73:\n      stop\n        /* \"@openzeppelin/contracts/access/Ownable.sol\":1036:1121  function owner() public view virtual returns (address) {... */\n    tag_14:\n      callvalue\n      dup1\n      iszero\n      tag_75\n      jumpi\n      revert(0x00, 0x00)\n    tag_75:\n      pop\n      tag_76\n      tag_77\n      jump\t// in\n    tag_76:\n      mload(0x40)\n      tag_78\n      swap2\n      swap1\n      tag_64\n      jump\t// in\n    tag_78:\n      mload(0x40)\n      dup1\n      swap2\n      sub\n      swap1\n      return\n        /* \"contracts/LotteryRouter.sol\":3099:3908  function deposit(uint256 amount) external nonReentrant {... */\n    tag_15:\n      callvalue\n      dup1\n      iszero\n      tag_79\n      jumpi\n      revert(0x00, 0x00)\n    tag_79:\n      pop\n      tag_80\n      0x04\n      dup1\n      calldatasize\n      sub\n      dup2\n      add\n      swap1\n      tag_81\n      swap2\n      swap1\n      tag_31\n      jump\t// in\n    tag_81:\n      tag_82\n      jump\t// in\n    tag_80:\n      stop\n        /* \"contracts/LotteryRouter.sol\":740:762  address public lottery */\n    tag_16:\n      callvalue\n      dup1\n      iszero\n      tag_83\n      jumpi\n      revert(0x00, 0x00)\n    tag_83:\n      pop\n      tag_84\n      tag_85\n      jump\t// in\n    tag_84:\n      mload(0x40)\n      tag_86\n      swap2\n      swap1\n      tag_64\n      jump\t// in\n    tag_86:\n      mload(0x40)\n      dup1\n      swap2\n      sub\n      swap1\n      return\n        /* \"contracts/LotteryRouter.sol\":6229:6888  function claimPrize(uint256 roundId) external override nonReentrant {... */\n    tag_17:\n      callvalue\n      dup1\n      iszero\n      tag_87\n      jumpi\n      revert(0x00, 0x00)\n    tag_87:\n      pop\n      tag_88\n      0x04\n      dup1\n      calldatasize\n      sub\n      dup2\n      add\n      swap1\n      tag_89\n      swap2\n      swap1\n      tag_31\n      jump\t// in\n    tag_89:\n      tag_90\n      jump\t// in\n    tag_88:\n      stop\n        /* \"contracts/LotteryRouter.sol\":1270:1482  function setLottery(address _lottery) external onlyOwner {... */\n    tag_18:\n      callvalue\n      dup1\n      iszero\n      tag_91\n      jumpi\n      revert(0x00, 0x00)\n    tag_91:\n      pop\n      tag_92\n      0x04\n      dup1\n      calldatasize\n      sub\n      dup2\n      add\n      swap1\n      tag_93\n      swap2\n      swap1\n      tag_36\n      jump\t// in\n    tag_93:\n      tag_94\n      jump\t// in\n    tag_92:\n      stop\n        /* \"@openzeppelin/contracts/access/Ownable.sol\":1918:2116  function transferOwnership(address newOwner) public virtual onlyOwner {... */\n    tag_19:\n      callvalue\n      dup1\n      iszero\n      tag_95\n      jumpi\n      revert(0x00, 0x00)\n    tag_95:\n      pop\n      tag_96\n      0x04\n      dup1\n      calldatasize\n      sub\n      dup2\n      add\n      swap1\n      tag_97\n      swap2\n      swap1\n      tag_36\n      jump\t// in\n    tag_97:\n      tag_98\n      jump\t// in\n    tag_96:\n      stop\n        /* \"contracts/LotteryRouter.sol\":768:788  address public vault */\n    tag_20:\n      callvalue\n      dup1\n      iszero\n      tag_99\n      jumpi\n      revert(0x00, 0x00)\n    tag_99:\n      pop\n      tag_100\n      tag_101\n      jump\t// in\n    tag_100:\n      mload(0x40)\n      tag_102\n      swap2\n      swap1\n      tag_64\n      jump\t// in\n    tag_102:\n      mload(0x40)\n      dup1\n      swap2\n      sub\n      swap1\n      return\n        /* \"contracts/LotteryRouter.sol\":4749:5482  function withdrawFromRound(uint256 roundId) external override {... */\n    tag_32:\n        /* \"contracts/LotteryRouter.sol\":4846:4847  0 */\n      0x00\n        /* \"contracts/LotteryRouter.sol\":4829:4848  vault != address(0) */\n      0xffffffffffffffffffffffffffffffffffffffff\n      and\n        /* \"contracts/LotteryRouter.sol\":4829:4834  vault */\n      0x03\n      0x00\n      swap1\n      sload\n      swap1\n      0x0100\n      exp\n      swap1\n      div\n      0xffffffffffffffffffffffffffffffffffffffff\n      and\n        /* \"contracts/LotteryRouter.sol\":4829:4848  vault != address(0) */\n      0xffffffffffffffffffffffffffffffffffffffff\n      and\n      sub\n        /* \"contracts/LotteryRouter.sol\":4821:4873  require(vault != address(0), \"Vault not configured\") */\n      tag_104\n      jumpi\n      mload(0x40)\n      0x08c379a000000000000000000000000000000000000000000000000000000000\n      dup2\n      mstore\n      0x04\n      add\n      tag_105\n      swap1\n      tag_106\n      jump\t// in\n    tag_105:\n      mload(0x40)\n      dup1\n      swap2\n      sub\n      swap1\n      revert\n    tag_104:\n        /* \"contracts/LotteryRouter.sol\":4913:4914  0 */\n      0x00\n        /* \"contracts/LotteryRouter.sol\":4891:4915  shareToken != address(0) */\n      0xffffffffffffffffffffffffffffffffffffffff\n      and\n        /* \"contracts/LotteryRouter.sol\":4891:4901  shareToken */\n      0x05\n      0x00\n      swap1\n      sload\n      swap1\n      0x0100\n      exp\n      swap1\n      div\n      0xffffffffffffffffffffffffffffffffffffffff\n      and\n        /* \"contracts/LotteryRouter.sol\":4891:4915  shareToken != address(0) */\n      0xffffffffffffffffffffffffffffffffffffffff\n      and\n      sub\n        /* \"contracts/LotteryRouter.sol\":4883:4945  require(shareToken != address(0), \"ShareToken not configured\") */\n      tag_107\n      jumpi\n      mload(0x40)\n      0x08c379a000000000000000000000000000000000000000000000000000000000\n      dup2\n      mstore\n      0x04\n      add\n      tag_108\n      swap1\n      tag_109\n      jump\t// in\n    tag_108:\n      mload(0x40)\n      dup1\n      swap2\n      sub\n      swap1\n      revert\n    tag_107:\n        /* \"contracts/LotteryRouter.sol\":5028:5045  bool checkSuccess */\n      0x00\n        /* \"contracts/LotteryRouter.sol\":5047:5064  bytes memory data */\n      0x00\n        /* \"contracts/LotteryRouter.sol\":5068:5073  vault */\n      0x03\n      0x00\n      swap1\n      sload\n      swap1\n      0x0100\n      exp\n      swap1\n      div\n      0xffffffffffffffffffffffffffffffffffffffff\n      and\n        /* \"contracts/LotteryRouter.sol\":5068:5084  vault.staticcall */\n      0xffffffffffffffffffffffffffffffffffffffff\n      and\n        /* \"contracts/LotteryRouter.sol\":5155:5165  msg.sender */\n      caller\n        /* \"contracts/LotteryRouter.sol\":5167:5174  roundId */\n      dup5\n        /* \"contracts/LotteryRouter.sol\":5098:5175  abi.encodeWithSignature(\"userDeposits(address,uint256)\", msg.sender, roundId) */\n      add(0x24, mload(0x40))\n      tag_110\n      swap3\n      swap2\n      swap1\n      tag_111\n      jump\t// in\n    tag_110:\n      mload(0x40)\n      0x20\n      dup2\n      dup4\n      sub\n      sub\n      dup2\n      mstore\n      swap1\n      0x40\n      mstore\n      and(not(0xffffffffffffffffffffffffffffffffffffffffffffffffffffffff), 0x08f4333300000000000000000000000000000000000000000000000000000000)\n      0x20\n      dup3\n      add\n      dup1\n      mload\n      0xffffffffffffffffffffffffffffffffffffffffffffffffffffffff\n      dup4\n      dup2\n      dup4\n      and\n      or\n      dup4\n      mstore\n      pop\n      pop\n      pop\n      pop\n        /* \"contracts/LotteryRouter.sol\":5068:5185  vault.staticcall(... */\n      mload(0x40)\n      tag_112\n      swap2\n      swap1\n      tag_113\n      jump\t// in\n    tag_112:\n      0x00\n      mload(0x40)\n      dup1\n      dup4\n      sub\n      dup2\n      dup6\n      gas\n      staticcall\n      swap2\n      pop\n      pop\n      returndatasize\n      dup1\n      0x00\n      dup2\n      eq\n      tag_116\n      jumpi\n      mload(0x40)\n      swap2\n      pop\n      and(add(returndatasize, 0x3f), not(0x1f))\n      dup3\n      add\n      0x40\n      mstore\n      returndatasize\n      dup3\n      mstore\n      returndatasize\n      0x00\n      0x20\n      dup5\n      add\n      returndatacopy\n      jump(tag_115)\n    tag_116:\n      0x60\n      swap2\n      pop\n    tag_115:\n      pop\n        /* \"contracts/LotteryRouter.sol\":5027:5185  (bool checkSuccess, bytes memory data) = vault.staticcall(... */\n      swap2\n      pop\n      swap2\n      pop\n        /* \"contracts/LotteryRouter.sol\":5203:5215  checkSuccess */\n      dup2\n        /* \"contracts/LotteryRouter.sol\":5195:5246  require(checkSuccess, \"Failed to get deposit info\") */\n      tag_117\n      jumpi\n      mload(0x40)\n      0x08c379a000000000000000000000000000000000000000000000000000000000\n      dup2\n      mstore\n      0x04\n      add\n      tag_118\n      swap1\n      tag_119\n      jump\t// in\n    tag_118:\n      mload(0x40)\n      dup1\n      swap2\n      sub\n      swap1\n      revert\n    tag_117:\n        /* \"contracts/LotteryRouter.sol\":5287:5320  IVault.Deposit memory userDeposit */\n      0x00\n        /* \"contracts/LotteryRouter.sol\":5334:5338  data */\n      dup2\n        /* \"contracts/LotteryRouter.sol\":5323:5357  abi.decode(data, (IVault.Deposit)) */\n      dup1\n      0x20\n      add\n      swap1\n      mload\n      dup2\n      add\n      swap1\n      tag_120\n      swap2\n      swap1\n      tag_121\n      jump\t// in\n    tag_120:\n        /* \"contracts/LotteryRouter.sol\":5287:5357  IVault.Deposit memory userDeposit = abi.decode(data, (IVault.Deposit)) */\n      swap1\n      pop\n        /* \"contracts/LotteryRouter.sol\":5396:5397  0 */\n      0x00\n        /* \"contracts/LotteryRouter.sol\":5375:5386  userDeposit */\n      dup2\n        /* \"contracts/LotteryRouter.sol\":5375:5393  userDeposit.amount */\n      0x00\n      add\n      mload\n        /* \"contracts/LotteryRouter.sol\":5375:5397  userDeposit.amount > 0 */\n      0xffffffffffffffffffffffffffffffff\n      and\n      gt\n        /* \"contracts/LotteryRouter.sol\":5367:5426  require(userDeposit.amount > 0, \"No deposit in this round\") */\n      tag_122\n      jumpi\n      mload(0x40)\n      0x08c379a000000000000000000000000000000000000000000000000000000000\n      dup2\n      mstore\n      0x04\n      add\n      tag_123\n      swap1\n      tag_124\n      jump\t// in\n    tag_123:\n      mload(0x40)\n      dup1\n      swap2\n      sub\n      swap1\n      revert\n    tag_122:\n        /* \"contracts/LotteryRouter.sol\":5437:5475  _withdraw(userDeposit.amount, roundId) */\n      tag_125\n        /* \"contracts/LotteryRouter.sol\":5447:5458  userDeposit */\n      dup2\n        /* \"contracts/LotteryRouter.sol\":5447:5465  userDeposit.amount */\n      0x00\n      add\n      mload\n        /* \"contracts/LotteryRouter.sol\":5437:5475  _withdraw(userDeposit.amount, roundId) */\n      0xffffffffffffffffffffffffffffffff\n      and\n        /* \"contracts/LotteryRouter.sol\":5467:5474  roundId */\n      dup6\n        /* \"contracts/LotteryRouter.sol\":5437:5446  _withdraw */\n      tag_126\n        /* \"contracts/LotteryRouter.sol\":5437:5475  _withdraw(userDeposit.amount, roundId) */\n      jump\t// in\n    tag_125:\n        /* \"contracts/LotteryRouter.sol\":4811:5482  {... */\n      pop\n      pop\n      pop\n        /* \"contracts/LotteryRouter.sol\":4749:5482  function withdrawFromRound(uint256 roundId) external override {... */\n      pop\n      jump\t// out\n        /* \"contracts/LotteryRouter.sol\":2292:2520  function setPrizePool(address _prizePool) external onlyOwner {... */\n    tag_37:\n        /* \"@openzeppelin/contracts/access/Ownable.sol\":1259:1271  _msgSender() */\n      tag_128\n        /* \"@openzeppelin/contracts/access/Ownable.sol\":1259:1269  _msgSender */\n      tag_129\n        /* \"@openzeppelin/contracts/access/Ownable.sol\":1259:1271  _msgSender() */\n      jump\t// in\n    tag_128:\n        /* \"@openzeppelin/contracts/access/Ownable.sol\":1248:1271  owner() == _msgSender() */\n      0xffffffffffffffffffffffffffffffffffffffff\n      and\n        /* \"@openzeppelin/contracts/access/Ownable.sol\":1248:1255  owner() */\n      tag_130\n        /* \"@openzeppelin/contracts/access/Ownable.sol\":1248:1253  owner */\n      tag_77\n        /* \"@openzeppelin/contracts/access/Ownable.sol\":1248:1255  owner() */\n      jump\t// in\n    tag_130:\n        /* \"@openzeppelin/contracts/access/Ownable.sol\":1248:1271  owner() == _msgSender() */\n      0xffffffffffffffffffffffffffffffffffffffff\n      and\n      eq\n        /* \"@openzeppelin/contracts/access/Ownable.sol\":1240:1308  require(owner() == _msgSender(), \"Ownable: caller is not the owner\") */\n      tag_131\n      jumpi\n      mload(0x40)\n      0x08c379a000000000000000000000000000000000000000000000000000000000\n      dup2\n      mstore\n      0x04\n      add\n      tag_132\n      swap1\n      tag_133\n      jump\t// in\n    tag_132:\n      mload(0x40)\n      dup1\n      swap2\n      sub\n      swap1\n      revert\n    tag_131:\n        /* \"contracts/LotteryRouter.sol\":2393:2394  0 */\n      0x00\n        /* \"contracts/LotteryRouter.sol\":2371:2395  _prizePool != address(0) */\n      0xffffffffffffffffffffffffffffffffffffffff\n      and\n        /* \"contracts/LotteryRouter.sol\":2371:2381  _prizePool */\n      dup2\n        /* \"contracts/LotteryRouter.sol\":2371:2395  _prizePool != address(0) */\n      0xffffffffffffffffffffffffffffffffffffffff\n      and\n      sub\n        /* \"contracts/LotteryRouter.sol\":2363:2425  require(_prizePool != address(0), \"Invalid prizePool address\") */\n      tag_135\n      jumpi\n      mload(0x40)\n      0x08c379a000000000000000000000000000000000000000000000000000000000\n      dup2\n      mstore\n      0x04\n      add\n      tag_136\n      swap1\n      tag_137\n      jump\t// in\n    tag_136:\n      mload(0x40)\n      dup1\n      swap2\n      sub\n      swap1\n      revert\n    tag_135:\n        /* \"contracts/LotteryRouter.sol\":2447:2457  _prizePool */\n      dup1\n        /* \"contracts/LotteryRouter.sol\":2435:2444  prizePool */\n      0x04\n      0x00\n        /* \"contracts/LotteryRouter.sol\":2435:2457  prizePool = _prizePool */\n      0x0100\n      exp\n      dup2\n      sload\n      dup2\n      0xffffffffffffffffffffffffffffffffffffffff\n      mul\n      not\n      and\n      swap1\n      dup4\n      0xffffffffffffffffffffffffffffffffffffffff\n      and\n      mul\n      or\n      swap1\n      sstore\n      pop\n        /* \"contracts/LotteryRouter.sol\":2502:2512  _prizePool */\n      dup1\n        /* \"contracts/LotteryRouter.sol\":2472:2513  ComponentUpdated(\"prizePool\", _prizePool) */\n      0xffffffffffffffffffffffffffffffffffffffff\n      and\n      mload(0x40)\n      tag_138\n      swap1\n      tag_139\n      jump\t// in\n    tag_138:\n      mload(0x40)\n      dup1\n      swap2\n      sub\n      swap1\n      keccak256\n      0xb66c2f14f9918a1cf623dbeeed97ac7a96ace1fd080e5dc03df1f8da61068b88\n      mload(0x40)\n      mload(0x40)\n      dup1\n      swap2\n      sub\n      swap1\n      log3\n        /* \"contracts/LotteryRouter.sol\":2292:2520  function setPrizePool(address _prizePool) external onlyOwner {... */\n      pop\n      jump\t// out\n        /* \"contracts/LotteryRouter.sol\":4077:4525  function withdraw() external override {... */\n    tag_40:\n        /* \"contracts/LotteryRouter.sol\":4150:4151  0 */\n      0x00\n        /* \"contracts/LotteryRouter.sol\":4133:4152  vault != address(0) */\n      0xffffffffffffffffffffffffffffffffffffffff\n      and\n        /* \"contracts/LotteryRouter.sol\":4133:4138  vault */\n      0x03\n      0x00\n      swap1\n      sload\n      swap1\n      0x0100\n      exp\n      swap1\n      div\n      0xffffffffffffffffffffffffffffffffffffffff\n      and\n        /* \"contracts/LotteryRouter.sol\":4133:4152  vault != address(0) */\n      0xffffffffffffffffffffffffffffffffffffffff\n      and\n      sub\n        /* \"contracts/LotteryRouter.sol\":4125:4177  require(vault != address(0), \"Vault not configured\") */\n      tag_141\n      jumpi\n      mload(0x40)\n      0x08c379a000000000000000000000000000000000000000000000000000000000\n      dup2\n      mstore\n      0x04\n      add\n      tag_142\n      swap1\n      tag_106\n      jump\t// in\n    tag_142:\n      mload(0x40)\n      dup1\n      swap2\n      sub\n      swap1\n      revert\n    tag_141:\n        /* \"contracts/LotteryRouter.sol\":4217:4218  0 */\n      0x00\n        /* \"contracts/LotteryRouter.sol\":4195:4219  shareToken != address(0) */\n      0xffffffffffffffffffffffffffffffffffffffff\n      and\n        /* \"contracts/LotteryRouter.sol\":4195:4205  shareToken */\n      0x05\n      0x00\n      swap1\n      sload\n      swap1\n      0x0100\n      exp\n      swap1\n      div\n      0xffffffffffffffffffffffffffffffffffffffff\n      and\n        /* \"contracts/LotteryRouter.sol\":4195:4219  shareToken != address(0) */\n      0xffffffffffffffffffffffffffffffffffffffff\n      and\n      sub\n        /* \"contracts/LotteryRouter.sol\":4187:4249  require(shareToken != address(0), \"ShareToken not configured\") */\n      tag_143\n      jumpi\n      mload(0x40)\n      0x08c379a000000000000000000000000000000000000000000000000000000000\n      dup2\n      mstore\n      0x04\n      add\n      tag_144\n      swap1\n      tag_109\n      jump\t// in\n    tag_144:\n      mload(0x40)\n      dup1\n      swap2\n      sub\n      swap1\n      revert\n    tag_143:\n        /* \"contracts/LotteryRouter.sol\":4299:4332  IVault.Deposit memory userDeposit */\n      0x00\n        /* \"contracts/LotteryRouter.sol\":4342:4347  vault */\n      0x03\n      0x00\n      swap1\n      sload\n      swap1\n      0x0100\n      exp\n      swap1\n      div\n      0xffffffffffffffffffffffffffffffffffffffff\n      and\n        /* \"contracts/LotteryRouter.sol\":4335:4361  IVault(vault).userDeposits */\n      0xffffffffffffffffffffffffffffffffffffffff\n      and\n      0x0ba36dcd\n        /* \"contracts/LotteryRouter.sol\":4362:4372  msg.sender */\n      caller\n        /* \"contracts/LotteryRouter.sol\":4335:4373  IVault(vault).userDeposits(msg.sender) */\n      mload(0x40)\n      dup3\n      0xffffffff\n      and\n      0xe0\n      shl\n      dup2\n      mstore\n      0x04\n      add\n      tag_145\n      swap2\n      swap1\n      tag_64\n      jump\t// in\n    tag_145:\n      0x60\n      mload(0x40)\n      dup1\n      dup4\n      sub\n      dup2\n      dup7\n      gas\n      staticcall\n      iszero\n      dup1\n      iszero\n      tag_147\n      jumpi\n      returndatacopy(0x00, 0x00, returndatasize)\n      revert(0x00, returndatasize)\n    tag_147:\n      pop\n      pop\n      pop\n      pop\n      mload(0x40)\n      returndatasize\n      not(0x1f)\n      0x1f\n      dup3\n      add\n      and\n      dup3\n      add\n      dup1\n      0x40\n      mstore\n      pop\n      dup2\n      add\n      swap1\n      tag_148\n      swap2\n      swap1\n      tag_121\n      jump\t// in\n    tag_148:\n        /* \"contracts/LotteryRouter.sol\":4299:4373  IVault.Deposit memory userDeposit = IVault(vault).userDeposits(msg.sender) */\n      swap1\n      pop\n        /* \"contracts/LotteryRouter.sol\":4412:4413  0 */\n      0x00\n        /* \"contracts/LotteryRouter.sol\":4391:4402  userDeposit */\n      dup2\n        /* \"contracts/LotteryRouter.sol\":4391:4409  userDeposit.amount */\n      0x00\n      add\n      mload\n        /* \"contracts/LotteryRouter.sol\":4391:4413  userDeposit.amount > 0 */\n      0xffffffffffffffffffffffffffffffff\n      and\n      gt\n        /* \"contracts/LotteryRouter.sol\":4383:4440  require(userDeposit.amount > 0, \"No deposit to withdraw\") */\n      tag_149\n      jumpi\n      mload(0x40)\n      0x08c379a000000000000000000000000000000000000000000000000000000000\n      dup2\n      mstore\n      0x04\n      add\n      tag_150\n      swap1\n      tag_151\n      jump\t// in\n    tag_150:\n      mload(0x40)\n      dup1\n      swap2\n      sub\n      swap1\n      revert\n    tag_149:\n        /* \"contracts/LotteryRouter.sol\":4450:4518  _withdraw(userDeposit.amount, ILottery(lottery).getCurrentRoundId()) */\n      tag_152\n        /* \"contracts/LotteryRouter.sol\":4460:4471  userDeposit */\n      dup2\n        /* \"contracts/LotteryRouter.sol\":4460:4478  userDeposit.amount */\n      0x00\n      add\n      mload\n        /* \"contracts/LotteryRouter.sol\":4450:4518  _withdraw(userDeposit.amount, ILottery(lottery).getCurrentRoundId()) */\n      0xffffffffffffffffffffffffffffffff\n      and\n        /* \"contracts/LotteryRouter.sol\":4489:4496  lottery */\n      0x02\n      0x00\n      swap1\n      sload\n      swap1\n      0x0100\n      exp\n      swap1\n      div\n      0xffffffffffffffffffffffffffffffffffffffff\n      and\n        /* \"contracts/LotteryRouter.sol\":4480:4515  ILottery(lottery).getCurrentRoundId */\n      0xffffffffffffffffffffffffffffffffffffffff\n      and\n      0x5727e25d\n        /* \"contracts/LotteryRouter.sol\":4480:4517  ILottery(lottery).getCurrentRoundId() */\n      mload(0x40)\n      dup2\n      0xffffffff\n      and\n      0xe0\n      shl\n      dup2\n      mstore\n      0x04\n      add\n      0x20\n      mload(0x40)\n      dup1\n      dup4\n      sub\n      dup2\n      dup7\n      gas\n      staticcall\n      iszero\n      dup1\n      iszero\n      tag_154\n      jumpi\n      returndatacopy(0x00, 0x00, returndatasize)\n      revert(0x00, returndatasize)\n    tag_154:\n      pop\n      pop\n      pop\n      pop\n      mload(0x40)\n      returndatasize\n      not(0x1f)\n      0x1f\n      dup3\n      add\n      and\n      dup3\n      add\n      dup1\n      0x40\n      mstore\n      pop\n      dup2\n      add\n      swap1\n      tag_155\n      swap2\n      swap1\n      tag_156\n      jump\t// in\n    tag_155:\n        /* \"contracts/LotteryRouter.sol\":4450:4459  _withdraw */\n      tag_126\n        /* \"contracts/LotteryRouter.sol\":4450:4518  _withdraw(userDeposit.amount, ILottery(lottery).getCurrentRoundId()) */\n      jump\t// in\n    tag_152:\n        /* \"contracts/LotteryRouter.sol\":4115:4525  {... */\n      pop\n        /* \"contracts/LotteryRouter.sol\":4077:4525  function withdraw() external override {... */\n      jump\t// out\n        /* \"contracts/LotteryRouter.sol\":2685:2921  function setShareToken(address _shareToken) external onlyOwner {... */\n    tag_44:\n        /* \"@openzeppelin/contracts/access/Ownable.sol\":1259:1271  _msgSender() */\n      tag_158\n        /* \"@openzeppelin/contracts/access/Ownable.sol\":1259:1269  _msgSender */\n      tag_129\n        /* \"@openzeppelin/contracts/access/Ownable.sol\":1259:1271  _msgSender() */\n      jump\t// in\n    tag_158:\n        /* \"@openzeppelin/contracts/access/Ownable.sol\":1248:1271  owner() == _msgSender() */\n      0xffffffffffffffffffffffffffffffffffffffff\n      and\n        /* \"@openzeppelin/contracts/access/Ownable.sol\":1248:1255  owner() */\n      tag_159\n        /* \"@openzeppelin/contracts/access/Ownable.sol\":1248:1253  owner */\n      tag_77\n        /* \"@openzeppelin/contracts/access/Ownable.sol\":1248:1255  owner() */\n      jump\t// in\n    tag_159:\n        /* \"@openzeppelin/contracts/access/Ownable.sol\":1248:1271  owner() == _msgSender() */\n      0xffffffffffffffffffffffffffffffffffffffff\n      and\n      eq\n        /* \"@openzeppelin/contracts/access/Ownable.sol\":1240:1308  require(owner() == _msgSender(), \"Ownable: caller is not the owner\") */\n      tag_160\n      jumpi\n      mload(0x40)\n      0x08c379a000000000000000000000000000000000000000000000000000000000\n      dup2\n      mstore\n      0x04\n      add\n      tag_161\n      swap1\n      tag_133\n      jump\t// in\n    tag_161:\n      mload(0x40)\n      dup1\n      swap2\n      sub\n      swap1\n      revert\n    tag_160:\n        /* \"contracts/LotteryRouter.sol\":2789:2790  0 */\n      0x00\n        /* \"contracts/LotteryRouter.sol\":2766:2791  _shareToken != address(0) */\n      0xffffffffffffffffffffffffffffffffffffffff\n      and\n        /* \"contracts/LotteryRouter.sol\":2766:2777  _shareToken */\n      dup2\n        /* \"contracts/LotteryRouter.sol\":2766:2791  _shareToken != address(0) */\n      0xffffffffffffffffffffffffffffffffffffffff\n      and\n      sub\n        /* \"contracts/LotteryRouter.sol\":2758:2822  require(_shareToken != address(0), \"Invalid shareToken address\") */\n      tag_163\n      jumpi\n      mload(0x40)\n      0x08c379a000000000000000000000000000000000000000000000000000000000\n      dup2\n      mstore\n      0x04\n      add\n      tag_164\n      swap1\n      tag_165\n      jump\t// in\n    tag_164:\n      mload(0x40)\n      dup1\n      swap2\n      sub\n      swap1\n      revert\n    tag_163:\n        /* \"contracts/LotteryRouter.sol\":2845:2856  _shareToken */\n      dup1\n        /* \"contracts/LotteryRouter.sol\":2832:2842  shareToken */\n      0x05\n      0x00\n        /* \"contracts/LotteryRouter.sol\":2832:2856  shareToken = _shareToken */\n      0x0100\n      exp\n      dup2\n      sload\n      dup2\n      0xffffffffffffffffffffffffffffffffffffffff\n      mul\n      not\n      and\n      swap1\n      dup4\n      0xffffffffffffffffffffffffffffffffffffffff\n      and\n      mul\n      or\n      swap1\n      sstore\n      pop\n        /* \"contracts/LotteryRouter.sol\":2902:2913  _shareToken */\n      dup1\n        /* \"contracts/LotteryRouter.sol\":2871:2914  ComponentUpdated(\"shareToken\", _shareToken) */\n      0xffffffffffffffffffffffffffffffffffffffff\n      and\n      mload(0x40)\n      tag_166\n      swap1\n      tag_167\n      jump\t// in\n    tag_166:\n      mload(0x40)\n      dup1\n      swap2\n      sub\n      swap1\n      keccak256\n      0xb66c2f14f9918a1cf623dbeeed97ac7a96ace1fd080e5dc03df1f8da61068b88\n      mload(0x40)\n      mload(0x40)\n      dup1\n      swap2\n      sub\n      swap1\n      log3\n        /* \"contracts/LotteryRouter.sol\":2685:2921  function setShareToken(address _shareToken) external onlyOwner {... */\n      pop\n      jump\t// out\n        /* \"contracts/LotteryRouter.sol\":7002:7902  function getSystemStatus() external view override returns (SystemStatus memory) {... */\n    tag_47:\n        /* \"contracts/LotteryRouter.sol\":7061:7080  SystemStatus memory */\n      tag_168\n      tag_169\n      jump\t// in\n    tag_168:\n        /* \"contracts/LotteryRouter.sol\":7119:7120  0 */\n      0x00\n        /* \"contracts/LotteryRouter.sol\":7100:7121  lottery != address(0) */\n      0xffffffffffffffffffffffffffffffffffffffff\n      and\n        /* \"contracts/LotteryRouter.sol\":7100:7107  lottery */\n      0x02\n      0x00\n      swap1\n      sload\n      swap1\n      0x0100\n      exp\n      swap1\n      div\n      0xffffffffffffffffffffffffffffffffffffffff\n      and\n        /* \"contracts/LotteryRouter.sol\":7100:7121  lottery != address(0) */\n      0xffffffffffffffffffffffffffffffffffffffff\n      and\n      eq\n      iszero\n        /* \"contracts/LotteryRouter.sol\":7100:7144  lottery != address(0) && vault != address(0) */\n      dup1\n      iszero\n      tag_171\n      jumpi\n      pop\n        /* \"contracts/LotteryRouter.sol\":7142:7143  0 */\n      0x00\n        /* \"contracts/LotteryRouter.sol\":7125:7144  vault != address(0) */\n      0xffffffffffffffffffffffffffffffffffffffff\n      and\n        /* \"contracts/LotteryRouter.sol\":7125:7130  vault */\n      0x03\n      0x00\n      swap1\n      sload\n      swap1\n      0x0100\n      exp\n      swap1\n      div\n      0xffffffffffffffffffffffffffffffffffffffff\n      and\n        /* \"contracts/LotteryRouter.sol\":7125:7144  vault != address(0) */\n      0xffffffffffffffffffffffffffffffffffffffff\n      and\n      eq\n      iszero\n        /* \"contracts/LotteryRouter.sol\":7100:7144  lottery != address(0) && vault != address(0) */\n    tag_171:\n        /* \"contracts/LotteryRouter.sol\":7092:7176  require(lottery != address(0) && vault != address(0), \"System not fully configured\") */\n      tag_172\n      jumpi\n      mload(0x40)\n      0x08c379a000000000000000000000000000000000000000000000000000000000\n      dup2\n      mstore\n      0x04\n      add\n      tag_173\n      swap1\n      tag_174\n      jump\t// in\n    tag_173:\n      mload(0x40)\n      dup1\n      swap2\n      sub\n      swap1\n      revert\n    tag_172:\n        /* \"contracts/LotteryRouter.sol\":7187:7209  uint256 currentRoundId */\n      0x00\n        /* \"contracts/LotteryRouter.sol\":7219:7224  vault */\n      0x03\n      0x00\n      swap1\n      sload\n      swap1\n      0x0100\n      exp\n      swap1\n      div\n      0xffffffffffffffffffffffffffffffffffffffff\n      and\n        /* \"contracts/LotteryRouter.sol\":7212:7243  IVault(vault).getCurrentRoundId */\n      0xffffffffffffffffffffffffffffffffffffffff\n      and\n      0x5727e25d\n        /* \"contracts/LotteryRouter.sol\":7212:7245  IVault(vault).getCurrentRoundId() */\n      mload(0x40)\n      dup2\n      0xffffffff\n      and\n      0xe0\n      shl\n      dup2\n      mstore\n      0x04\n      add\n      0x20\n      mload(0x40)\n      dup1\n      dup4\n      sub\n      dup2\n      dup7\n      gas\n      staticcall\n      iszero\n      dup1\n      iszero\n      tag_176\n      jumpi\n      returndatacopy(0x00, 0x00, returndatasize)\n      revert(0x00, returndatasize)\n    tag_176:\n      pop\n      pop\n      pop\n      pop\n      mload(0x40)\n      returndatasize\n      not(0x1f)\n      0x1f\n      dup3\n      add\n      and\n      dup3\n      add\n      dup1\n      0x40\n      mstore\n      pop\n      dup2\n      add\n      swap1\n      tag_177\n      swap2\n      swap1\n      tag_156\n      jump\t// in\n    tag_177:\n        /* \"contracts/LotteryRouter.sol\":7187:7245  uint256 currentRoundId = IVault(vault).getCurrentRoundId() */\n      swap1\n      pop\n        /* \"contracts/LotteryRouter.sol\":7255:7272  uint256 userCount */\n      0x00\n        /* \"contracts/LotteryRouter.sol\":7282:7287  vault */\n      0x03\n      0x00\n      swap1\n      sload\n      swap1\n      0x0100\n      exp\n      swap1\n      div\n      0xffffffffffffffffffffffffffffffffffffffff\n      and\n        /* \"contracts/LotteryRouter.sol\":7275:7301  IVault(vault).getUserCount */\n      0xffffffffffffffffffffffffffffffffffffffff\n      and\n      0xb5cb15f7\n        /* \"contracts/LotteryRouter.sol\":7275:7303  IVault(vault).getUserCount() */\n      mload(0x40)\n      dup2\n      0xffffffff\n      and\n      0xe0\n      shl\n      dup2\n      mstore\n      0x04\n      add\n      0x20\n      mload(0x40)\n      dup1\n      dup4\n      sub\n      dup2\n      dup7\n      gas\n      staticcall\n      iszero\n      dup1\n      iszero\n      tag_179\n      jumpi\n      returndatacopy(0x00, 0x00, returndatasize)\n      revert(0x00, returndatasize)\n    tag_179:\n      pop\n      pop\n      pop\n      pop\n      mload(0x40)\n      returndatasize\n      not(0x1f)\n      0x1f\n      dup3\n      add\n      and\n      dup3\n      add\n      dup1\n      0x40\n      mstore\n      pop\n      dup2\n      add\n      swap1\n      tag_180\n      swap2\n      swap1\n      tag_156\n      jump\t// in\n    tag_180:\n        /* \"contracts/LotteryRouter.sol\":7255:7303  uint256 userCount = IVault(vault).getUserCount() */\n      swap1\n      pop\n        /* \"contracts/LotteryRouter.sol\":7313:7334  uint256 totalDeposits */\n      0x00\n        /* \"contracts/LotteryRouter.sol\":7344:7349  vault */\n      0x03\n      0x00\n      swap1\n      sload\n      swap1\n      0x0100\n      exp\n      swap1\n      div\n      0xffffffffffffffffffffffffffffffffffffffff\n      and\n        /* \"contracts/LotteryRouter.sol\":7337:7366  IVault(vault).getDepositTotal */\n      0xffffffffffffffffffffffffffffffffffffffff\n      and\n      0x5eefdd2b\n        /* \"contracts/LotteryRouter.sol\":7337:7368  IVault(vault).getDepositTotal() */\n      mload(0x40)\n      dup2\n      0xffffffff\n      and\n      0xe0\n      shl\n      dup2\n      mstore\n      0x04\n      add\n      0x20\n      mload(0x40)\n      dup1\n      dup4\n      sub\n      dup2\n      dup7\n      gas\n      staticcall\n      iszero\n      dup1\n      iszero\n      tag_182\n      jumpi\n      returndatacopy(0x00, 0x00, returndatasize)\n      revert(0x00, returndatasize)\n    tag_182:\n      pop\n      pop\n      pop\n      pop\n      mload(0x40)\n      returndatasize\n      not(0x1f)\n      0x1f\n      dup3\n      add\n      and\n      dup3\n      add\n      dup1\n      0x40\n      mstore\n      pop\n      dup2\n      add\n      swap1\n      tag_183\n      swap2\n      swap1\n      tag_156\n      jump\t// in\n    tag_183:\n        /* \"contracts/LotteryRouter.sol\":7313:7368  uint256 totalDeposits = IVault(vault).getDepositTotal() */\n      swap1\n      pop\n        /* \"contracts/LotteryRouter.sol\":7378:7397  uint256 totalWeight */\n      0x00\n        /* \"contracts/LotteryRouter.sol\":7407:7412  vault */\n      0x03\n      0x00\n      swap1\n      sload\n      swap1\n      0x0100\n      exp\n      swap1\n      div\n      0xffffffffffffffffffffffffffffffffffffffff\n      and\n        /* \"contracts/LotteryRouter.sol\":7400:7428  IVault(vault).getTotalWeight */\n      0xffffffffffffffffffffffffffffffffffffffff\n      and\n      0x06aba0e1\n        /* \"contracts/LotteryRouter.sol\":7400:7430  IVault(vault).getTotalWeight() */\n      mload(0x40)\n      dup2\n      0xffffffff\n      and\n      0xe0\n      shl\n      dup2\n      mstore\n      0x04\n      add\n      0x20\n      mload(0x40)\n      dup1\n      dup4\n      sub\n      dup2\n      dup7\n      gas\n      staticcall\n      iszero\n      dup1\n      iszero\n      tag_185\n      jumpi\n      returndatacopy(0x00, 0x00, returndatasize)\n      revert(0x00, returndatasize)\n    tag_185:\n      pop\n      pop\n      pop\n      pop\n      mload(0x40)\n      returndatasize\n      not(0x1f)\n      0x1f\n      dup3\n      add\n      and\n      dup3\n      add\n      dup1\n      0x40\n      mstore\n      pop\n      dup2\n      add\n      swap1\n      tag_186\n      swap2\n      swap1\n      tag_156\n      jump\t// in\n    tag_186:\n        /* \"contracts/LotteryRouter.sol\":7378:7430  uint256 totalWeight = IVault(vault).getTotalWeight() */\n      swap1\n      pop\n        /* \"contracts/LotteryRouter.sol\":7440:7460  uint256 nextDrawTime */\n      0x00\n        /* \"contracts/LotteryRouter.sol\":7472:7479  lottery */\n      0x02\n      0x00\n      swap1\n      sload\n      swap1\n      0x0100\n      exp\n      swap1\n      div\n      0xffffffffffffffffffffffffffffffffffffffff\n      and\n        /* \"contracts/LotteryRouter.sol\":7463:7498  ILottery(lottery).nextDrawTimestamp */\n      0xffffffffffffffffffffffffffffffffffffffff\n      and\n      0xb675b332\n        /* \"contracts/LotteryRouter.sol\":7463:7500  ILottery(lottery).nextDrawTimestamp() */\n      mload(0x40)\n      dup2\n      0xffffffff\n      and\n      0xe0\n      shl\n      dup2\n      mstore\n      0x04\n      add\n      0x20\n      mload(0x40)\n      dup1\n      dup4\n      sub\n      dup2\n      dup7\n      gas\n      staticcall\n      iszero\n      dup1\n      iszero\n      tag_188\n      jumpi\n      returndatacopy(0x00, 0x00, returndatasize)\n      revert(0x00, returndatasize)\n    tag_188:\n      pop\n      pop\n      pop\n      pop\n      mload(0x40)\n      returndatasize\n      not(0x1f)\n      0x1f\n      dup3\n      add\n      and\n      dup3\n      add\n      dup1\n      0x40\n      mstore\n      pop\n      dup2\n      add\n      swap1\n      tag_189\n      swap2\n      swap1\n      tag_156\n      jump\t// in\n    tag_189:\n        /* \"contracts/LotteryRouter.sol\":7440:7500  uint256 nextDrawTime = ILottery(lottery).nextDrawTimestamp() */\n      swap1\n      pop\n        /* \"contracts/LotteryRouter.sol\":7530:7895  SystemStatus({... */\n      mload(0x40)\n      dup1\n      0xc0\n      add\n      0x40\n      mstore\n      dup1\n        /* \"contracts/LotteryRouter.sol\":7577:7591  currentRoundId */\n      dup7\n        /* \"contracts/LotteryRouter.sol\":7530:7895  SystemStatus({... */\n      dup2\n      mstore\n      0x20\n      add\n        /* \"contracts/LotteryRouter.sol\":7627:7636  userCount */\n      dup6\n        /* \"contracts/LotteryRouter.sol\":7530:7895  SystemStatus({... */\n      dup2\n      mstore\n      0x20\n      add\n        /* \"contracts/LotteryRouter.sol\":7669:7682  totalDeposits */\n      dup5\n        /* \"contracts/LotteryRouter.sol\":7530:7895  SystemStatus({... */\n      dup2\n      mstore\n      0x20\n      add\n        /* \"contracts/LotteryRouter.sol\":7713:7724  totalWeight */\n      dup4\n        /* \"contracts/LotteryRouter.sol\":7530:7895  SystemStatus({... */\n      dup2\n      mstore\n      0x20\n      add\n        /* \"contracts/LotteryRouter.sol\":7761:7773  nextDrawTime */\n      dup3\n        /* \"contracts/LotteryRouter.sol\":7530:7895  SystemStatus({... */\n      dup2\n      mstore\n      0x20\n      add\n        /* \"contracts/LotteryRouter.sol\":7844:7851  30 days */\n      0x278d00\n        /* \"contracts/LotteryRouter.sol\":7829:7841  nextDrawTime */\n      dup4\n        /* \"contracts/LotteryRouter.sol\":7829:7851  nextDrawTime - 30 days */\n      tag_190\n      swap2\n      swap1\n      tag_191\n      jump\t// in\n    tag_190:\n        /* \"contracts/LotteryRouter.sol\":7810:7825  block.timestamp */\n      timestamp\n        /* \"contracts/LotteryRouter.sol\":7810:7852  block.timestamp - (nextDrawTime - 30 days) */\n      tag_192\n      swap2\n      swap1\n      tag_191\n      jump\t// in\n    tag_192:\n        /* \"contracts/LotteryRouter.sol\":7530:7895  SystemStatus({... */\n      dup2\n      mstore\n      pop\n        /* \"contracts/LotteryRouter.sol\":7511:7895  return... */\n      swap6\n      pop\n      pop\n      pop\n      pop\n      pop\n      pop\n        /* \"contracts/LotteryRouter.sol\":7002:7902  function getSystemStatus() external view override returns (SystemStatus memory) {... */\n      swap1\n      jump\t// out\n        /* \"contracts/LotteryRouter.sol\":8054:8768  function getUserInfo(address user) external view override returns (UserInfo memory) {... */\n    tag_53:\n        /* \"contracts/LotteryRouter.sol\":8121:8136  UserInfo memory */\n      tag_193\n      tag_194\n      jump\t// in\n    tag_193:\n        /* \"contracts/LotteryRouter.sol\":8173:8174  0 */\n      0x00\n        /* \"contracts/LotteryRouter.sol\":8156:8175  vault != address(0) */\n      0xffffffffffffffffffffffffffffffffffffffff\n      and\n        /* \"contracts/LotteryRouter.sol\":8156:8161  vault */\n      0x03\n      0x00\n      swap1\n      sload\n      swap1\n      0x0100\n      exp\n      swap1\n      div\n      0xffffffffffffffffffffffffffffffffffffffff\n      and\n        /* \"contracts/LotteryRouter.sol\":8156:8175  vault != address(0) */\n      0xffffffffffffffffffffffffffffffffffffffff\n      and\n      sub\n        /* \"contracts/LotteryRouter.sol\":8148:8200  require(vault != address(0), \"Vault not configured\") */\n      tag_196\n      jumpi\n      mload(0x40)\n      0x08c379a000000000000000000000000000000000000000000000000000000000\n      dup2\n      mstore\n      0x04\n      add\n      tag_197\n      swap1\n      tag_106\n      jump\t// in\n    tag_197:\n      mload(0x40)\n      dup1\n      swap2\n      sub\n      swap1\n      revert\n    tag_196:\n        /* \"contracts/LotteryRouter.sol\":8211:8244  IVault.Deposit memory userDeposit */\n      0x00\n        /* \"contracts/LotteryRouter.sol\":8254:8259  vault */\n      0x03\n      0x00\n      swap1\n      sload\n      swap1\n      0x0100\n      exp\n      swap1\n      div\n      0xffffffffffffffffffffffffffffffffffffffff\n      and\n        /* \"contracts/LotteryRouter.sol\":8247:8273  IVault(vault).userDeposits */\n      0xffffffffffffffffffffffffffffffffffffffff\n      and\n      0x0ba36dcd\n        /* \"contracts/LotteryRouter.sol\":8274:8278  user */\n      dup5\n        /* \"contracts/LotteryRouter.sol\":8247:8279  IVault(vault).userDeposits(user) */\n      mload(0x40)\n      dup3\n      0xffffffff\n      and\n      0xe0\n      shl\n      dup2\n      mstore\n      0x04\n      add\n      tag_198\n      swap2\n      swap1\n      tag_64\n      jump\t// in\n    tag_198:\n      0x60\n      mload(0x40)\n      dup1\n      dup4\n      sub\n      dup2\n      dup7\n      gas\n      staticcall\n      iszero\n      dup1\n      iszero\n      tag_200\n      jumpi\n      returndatacopy(0x00, 0x00, returndatasize)\n      revert(0x00, returndatasize)\n    tag_200:\n      pop\n      pop\n      pop\n      pop\n      mload(0x40)\n      returndatasize\n      not(0x1f)\n      0x1f\n      dup3\n      add\n      and\n      dup3\n      add\n      dup1\n      0x40\n      mstore\n      pop\n      dup2\n      add\n      swap1\n      tag_201\n      swap2\n      swap1\n      tag_121\n      jump\t// in\n    tag_201:\n        /* \"contracts/LotteryRouter.sol\":8211:8279  IVault.Deposit memory userDeposit = IVault(vault).userDeposits(user) */\n      swap1\n      pop\n        /* \"contracts/LotteryRouter.sol\":8290:8310  uint256 shareBalance */\n      0x00\n        /* \"contracts/LotteryRouter.sol\":8313:8314  0 */\n      0x00\n        /* \"contracts/LotteryRouter.sol\":8290:8314  uint256 shareBalance = 0 */\n      swap1\n      pop\n        /* \"contracts/LotteryRouter.sol\":8350:8351  0 */\n      0x00\n        /* \"contracts/LotteryRouter.sol\":8328:8352  shareToken != address(0) */\n      0xffffffffffffffffffffffffffffffffffffffff\n      and\n        /* \"contracts/LotteryRouter.sol\":8328:8338  shareToken */\n      0x05\n      0x00\n      swap1\n      sload\n      swap1\n      0x0100\n      exp\n      swap1\n      div\n      0xffffffffffffffffffffffffffffffffffffffff\n      and\n        /* \"contracts/LotteryRouter.sol\":8328:8352  shareToken != address(0) */\n      0xffffffffffffffffffffffffffffffffffffffff\n      and\n      eq\n        /* \"contracts/LotteryRouter.sol\":8324:8428  if (shareToken != address(0)) {... */\n      tag_202\n      jumpi\n        /* \"contracts/LotteryRouter.sol\":8390:8400  shareToken */\n      0x05\n      0x00\n      swap1\n      sload\n      swap1\n      0x0100\n      exp\n      swap1\n      div\n      0xffffffffffffffffffffffffffffffffffffffff\n      and\n        /* \"contracts/LotteryRouter.sol\":8383:8411  IERC20(shareToken).balanceOf */\n      0xffffffffffffffffffffffffffffffffffffffff\n      and\n      0x70a08231\n        /* \"contracts/LotteryRouter.sol\":8412:8416  user */\n      dup6\n        /* \"contracts/LotteryRouter.sol\":8383:8417  IERC20(shareToken).balanceOf(user) */\n      mload(0x40)\n      dup3\n      0xffffffff\n      and\n      0xe0\n      shl\n      dup2\n      mstore\n      0x04\n      add\n      tag_203\n      swap2\n      swap1\n      tag_64\n      jump\t// in\n    tag_203:\n      0x20\n      mload(0x40)\n      dup1\n      dup4\n      sub\n      dup2\n      dup7\n      gas\n      staticcall\n      iszero\n      dup1\n      iszero\n      tag_205\n      jumpi\n      returndatacopy(0x00, 0x00, returndatasize)\n      revert(0x00, returndatasize)\n    tag_205:\n      pop\n      pop\n      pop\n      pop\n      mload(0x40)\n      returndatasize\n      not(0x1f)\n      0x1f\n      dup3\n      add\n      and\n      dup3\n      add\n      dup1\n      0x40\n      mstore\n      pop\n      dup2\n      add\n      swap1\n      tag_206\n      swap2\n      swap1\n      tag_156\n      jump\t// in\n    tag_206:\n        /* \"contracts/LotteryRouter.sol\":8368:8417  shareBalance = IERC20(shareToken).balanceOf(user) */\n      swap1\n      pop\n        /* \"contracts/LotteryRouter.sol\":8324:8428  if (shareToken != address(0)) {... */\n    tag_202:\n        /* \"contracts/LotteryRouter.sol\":8457:8761  UserInfo({... */\n      mload(0x40)\n      dup1\n      0xa0\n      add\n      0x40\n      mstore\n      dup1\n        /* \"contracts/LotteryRouter.sol\":8507:8518  userDeposit */\n      dup4\n        /* \"contracts/LotteryRouter.sol\":8507:8525  userDeposit.amount */\n      0x00\n      add\n      mload\n        /* \"contracts/LotteryRouter.sol\":8499:8526  uint256(userDeposit.amount) */\n      0xffffffffffffffffffffffffffffffff\n      and\n        /* \"contracts/LotteryRouter.sol\":8457:8761  UserInfo({... */\n      dup2\n      mstore\n      0x20\n      add\n        /* \"contracts/LotteryRouter.sol\":8560:8571  userDeposit */\n      dup4\n        /* \"contracts/LotteryRouter.sol\":8560:8578  userDeposit.weight */\n      0x40\n      add\n      mload\n        /* \"contracts/LotteryRouter.sol\":8552:8579  uint256(userDeposit.weight) */\n      0xffffffffffffffffffffffff\n      and\n        /* \"contracts/LotteryRouter.sol\":8457:8761  UserInfo({... */\n      dup2\n      mstore\n      0x20\n      add\n        /* \"contracts/LotteryRouter.sol\":8623:8634  userDeposit */\n      dup4\n        /* \"contracts/LotteryRouter.sol\":8623:8644  userDeposit.timestamp */\n      0x20\n      add\n      mload\n        /* \"contracts/LotteryRouter.sol\":8615:8645  uint256(userDeposit.timestamp) */\n      0xffffffff\n      and\n        /* \"contracts/LotteryRouter.sol\":8457:8761  UserInfo({... */\n      dup2\n      mstore\n      0x20\n      add\n        /* \"contracts/LotteryRouter.sol\":8696:8697  0 */\n      0x00\n        /* \"contracts/LotteryRouter.sol\":8675:8686  userDeposit */\n      dup5\n        /* \"contracts/LotteryRouter.sol\":8675:8693  userDeposit.amount */\n      0x00\n      add\n      mload\n        /* \"contracts/LotteryRouter.sol\":8675:8697  userDeposit.amount > 0 */\n      0xffffffffffffffffffffffffffffffff\n      and\n      gt\n        /* \"contracts/LotteryRouter.sol\":8457:8761  UserInfo({... */\n      iszero\n      iszero\n      dup2\n      mstore\n      0x20\n      add\n        /* \"contracts/LotteryRouter.sol\":8734:8746  shareBalance */\n      dup3\n        /* \"contracts/LotteryRouter.sol\":8457:8761  UserInfo({... */\n      dup2\n      mstore\n      pop\n        /* \"contracts/LotteryRouter.sol\":8438:8761  return... */\n      swap3\n      pop\n      pop\n      pop\n        /* \"contracts/LotteryRouter.sol\":8054:8768  function getUserInfo(address user) external view override returns (UserInfo memory) {... */\n      swap2\n      swap1\n      pop\n      jump\t// out\n        /* \"contracts/LotteryRouter.sol\":1596:2180  function setVault(address _vault) external onlyOwner {... */\n    tag_59:\n        /* \"@openzeppelin/contracts/access/Ownable.sol\":1259:1271  _msgSender() */\n      tag_208\n        /* \"@openzeppelin/contracts/access/Ownable.sol\":1259:1269  _msgSender */\n      tag_129\n        /* \"@openzeppelin/contracts/access/Ownable.sol\":1259:1271  _msgSender() */\n      jump\t// in\n    tag_208:\n        /* \"@openzeppelin/contracts/access/Ownable.sol\":1248:1271  owner() == _msgSender() */\n      0xffffffffffffffffffffffffffffffffffffffff\n      and\n        /* \"@openzeppelin/contracts/access/Ownable.sol\":1248:1255  owner() */\n      tag_209\n        /* \"@openzeppelin/contracts/access/Ownable.sol\":1248:1253  owner */\n      tag_77\n        /* \"@openzeppelin/contracts/access/Ownable.sol\":1248:1255  owner() */\n      jump\t// in\n    tag_209:\n        /* \"@openzeppelin/contracts/access/Ownable.sol\":1248:1271  owner() == _msgSender() */\n      0xffffffffffffffffffffffffffffffffffffffff\n      and\n      eq\n        /* \"@openzeppelin/contracts/access/Ownable.sol\":1240:1308  require(owner() == _msgSender(), \"Ownable: caller is not the owner\") */\n      tag_210\n      jumpi\n      mload(0x40)\n      0x08c379a000000000000000000000000000000000000000000000000000000000\n      dup2\n      mstore\n      0x04\n      add\n      tag_211\n      swap1\n      tag_133\n      jump\t// in\n    tag_211:\n      mload(0x40)\n      dup1\n      swap2\n      sub\n      swap1\n      revert\n    tag_210:\n        /* \"contracts/LotteryRouter.sol\":1685:1686  0 */\n      0x00\n        /* \"contracts/LotteryRouter.sol\":1667:1687  _vault != address(0) */\n      0xffffffffffffffffffffffffffffffffffffffff\n      and\n        /* \"contracts/LotteryRouter.sol\":1667:1673  _vault */\n      dup2\n        /* \"contracts/LotteryRouter.sol\":1667:1687  _vault != address(0) */\n      0xffffffffffffffffffffffffffffffffffffffff\n      and\n      sub\n        /* \"contracts/LotteryRouter.sol\":1659:1713  require(_vault != address(0), \"Invalid vault address\") */\n      tag_213\n      jumpi\n      mload(0x40)\n      0x08c379a000000000000000000000000000000000000000000000000000000000\n      dup2\n      mstore\n      0x04\n      add\n      tag_214\n      swap1\n      tag_215\n      jump\t// in\n    tag_214:\n      mload(0x40)\n      dup1\n      swap2\n      sub\n      swap1\n      revert\n    tag_213:\n        /* \"contracts/LotteryRouter.sol\":1731:1737  _vault */\n      dup1\n        /* \"contracts/LotteryRouter.sol\":1723:1728  vault */\n      0x03\n      0x00\n        /* \"contracts/LotteryRouter.sol\":1723:1737  vault = _vault */\n      0x0100\n      exp\n      dup2\n      sload\n      dup2\n      0xffffffffffffffffffffffffffffffffffffffff\n      mul\n      not\n      and\n      swap1\n      dup4\n      0xffffffffffffffffffffffffffffffffffffffff\n      and\n      mul\n      or\n      swap1\n      sstore\n      pop\n        /* \"contracts/LotteryRouter.sol\":1793:1799  _vault */\n      dup1\n        /* \"contracts/LotteryRouter.sol\":1786:1814  IVault(_vault).getShareToken */\n      0xffffffffffffffffffffffffffffffffffffffff\n      and\n      0x2bdb0d92\n        /* \"contracts/LotteryRouter.sol\":1786:1816  IVault(_vault).getShareToken() */\n      mload(0x40)\n      dup2\n      0xffffffff\n      and\n      0xe0\n      shl\n      dup2\n      mstore\n      0x04\n      add\n      0x20\n      mload(0x40)\n      dup1\n      dup4\n      sub\n      dup2\n      dup7\n      gas\n      staticcall\n      swap3\n      pop\n      pop\n      pop\n      dup1\n      iszero\n      tag_216\n      jumpi\n      pop\n      mload(0x40)\n      returndatasize\n      not(0x1f)\n      0x1f\n      dup3\n      add\n      and\n      dup3\n      add\n      dup1\n      0x40\n      mstore\n      pop\n      dup2\n      add\n      swap1\n      tag_217\n      swap2\n      swap1\n      tag_218\n      jump\t// in\n    tag_217:\n      0x01\n    tag_216:\n        /* \"contracts/LotteryRouter.sol\":1782:2125  try IVault(_vault).getShareToken() returns (address _shareToken) {... */\n      iszero\n      tag_223\n      jumpi\n        /* \"contracts/LotteryRouter.sol\":1888:1889  0 */\n      0x00\n        /* \"contracts/LotteryRouter.sol\":1865:1890  _shareToken != address(0) */\n      0xffffffffffffffffffffffffffffffffffffffff\n      and\n        /* \"contracts/LotteryRouter.sol\":1865:1876  _shareToken */\n      dup2\n        /* \"contracts/LotteryRouter.sol\":1865:1890  _shareToken != address(0) */\n      0xffffffffffffffffffffffffffffffffffffffff\n      and\n      eq\n        /* \"contracts/LotteryRouter.sol\":1861:2015  if (_shareToken != address(0)) {... */\n      tag_224\n      jumpi\n        /* \"contracts/LotteryRouter.sol\":1923:1934  _shareToken */\n      dup1\n        /* \"contracts/LotteryRouter.sol\":1910:1920  shareToken */\n      0x05\n      0x00\n        /* \"contracts/LotteryRouter.sol\":1910:1934  shareToken = _shareToken */\n      0x0100\n      exp\n      dup2\n      sload\n      dup2\n      0xffffffffffffffffffffffffffffffffffffffff\n      mul\n      not\n      and\n      swap1\n      dup4\n      0xffffffffffffffffffffffffffffffffffffffff\n      and\n      mul\n      or\n      swap1\n      sstore\n      pop\n        /* \"contracts/LotteryRouter.sol\":1988:1999  _shareToken */\n      dup1\n        /* \"contracts/LotteryRouter.sol\":1957:2000  ComponentUpdated(\"shareToken\", _shareToken) */\n      0xffffffffffffffffffffffffffffffffffffffff\n      and\n      mload(0x40)\n      tag_225\n      swap1\n      tag_167\n      jump\t// in\n    tag_225:\n      mload(0x40)\n      dup1\n      swap2\n      sub\n      swap1\n      keccak256\n      0xb66c2f14f9918a1cf623dbeeed97ac7a96ace1fd080e5dc03df1f8da61068b88\n      mload(0x40)\n      mload(0x40)\n      dup1\n      swap2\n      sub\n      swap1\n      log3\n        /* \"contracts/LotteryRouter.sol\":1861:2015  if (_shareToken != address(0)) {... */\n    tag_224:\n        /* \"contracts/LotteryRouter.sol\":1817:2025  returns (address _shareToken) {... */\n      pop\n        /* \"contracts/LotteryRouter.sol\":1782:2125  try IVault(_vault).getShareToken() returns (address _shareToken) {... */\n    tag_223:\n        /* \"contracts/LotteryRouter.sol\":2166:2172  _vault */\n      dup1\n        /* \"contracts/LotteryRouter.sol\":2140:2173  ComponentUpdated(\"vault\", _vault) */\n      0xffffffffffffffffffffffffffffffffffffffff\n      and\n      mload(0x40)\n      tag_226\n      swap1\n      tag_227\n      jump\t// in\n    tag_226:\n      mload(0x40)\n      dup1\n      swap2\n      sub\n      swap1\n      keccak256\n      0xb66c2f14f9918a1cf623dbeeed97ac7a96ace1fd080e5dc03df1f8da61068b88\n      mload(0x40)\n      mload(0x40)\n      dup1\n      swap2\n      sub\n      swap1\n      log3\n        /* \"contracts/LotteryRouter.sol\":1596:2180  function setVault(address _vault) external onlyOwner {... */\n      pop\n      jump\t// out\n        /* \"contracts/LotteryRouter.sol\":824:849  address public shareToken */\n    tag_62:\n      0x05\n      0x00\n      swap1\n      sload\n      swap1\n      0x0100\n      exp\n      swap1\n      div\n      0xffffffffffffffffffffffffffffffffffffffff\n      and\n      dup2\n      jump\t// out\n        /* \"@openzeppelin/contracts/access/Ownable.sol\":1668:1769  function renounceOwnership() public virtual onlyOwner {... */\n    tag_67:\n        /* \"@openzeppelin/contracts/access/Ownable.sol\":1259:1271  _msgSender() */\n      tag_229\n        /* \"@openzeppelin/contracts/access/Ownable.sol\":1259:1269  _msgSender */\n      tag_129\n        /* \"@openzeppelin/contracts/access/Ownable.sol\":1259:1271  _msgSender() */\n      jump\t// in\n    tag_229:\n        /* \"@openzeppelin/contracts/access/Ownable.sol\":1248:1271  owner() == _msgSender() */\n      0xffffffffffffffffffffffffffffffffffffffff\n      and\n        /* \"@openzeppelin/contracts/access/Ownable.sol\":1248:1255  owner() */\n      tag_230\n        /* \"@openzeppelin/contracts/access/Ownable.sol\":1248:1253  owner */\n      tag_77\n        /* \"@openzeppelin/contracts/access/Ownable.sol\":1248:1255  owner() */\n      jump\t// in\n    tag_230:\n        /* \"@openzeppelin/contracts/access/Ownable.sol\":1248:1271  owner() == _msgSender() */\n      0xffffffffffffffffffffffffffffffffffffffff\n      and\n      eq\n        /* \"@openzeppelin/contracts/access/Ownable.sol\":1240:1308  require(owner() == _msgSender(), \"Ownable: caller is not the owner\") */\n      tag_231\n      jumpi\n      mload(0x40)\n      0x08c379a000000000000000000000000000000000000000000000000000000000\n      dup2\n      mstore\n      0x04\n      add\n      tag_232\n      swap1\n      tag_133\n      jump\t// in\n    tag_232:\n      mload(0x40)\n      dup1\n      swap2\n      sub\n      swap1\n      revert\n    tag_231:\n        /* \"@openzeppelin/contracts/access/Ownable.sol\":1732:1762  _transferOwnership(address(0)) */\n      tag_234\n        /* \"@openzeppelin/contracts/access/Ownable.sol\":1759:1760  0 */\n      0x00\n        /* \"@openzeppelin/contracts/access/Ownable.sol\":1732:1750  _transferOwnership */\n      tag_235\n        /* \"@openzeppelin/contracts/access/Ownable.sol\":1732:1762  _transferOwnership(address(0)) */\n      jump\t// in\n    tag_234:\n        /* \"@openzeppelin/contracts/access/Ownable.sol\":1668:1769  function renounceOwnership() public virtual onlyOwner {... */\n      jump\t// out\n        /* \"contracts/LotteryRouter.sol\":794:818  address public prizePool */\n    tag_70:\n      0x04\n      0x00\n      swap1\n      sload\n      swap1\n      0x0100\n      exp\n      swap1\n      div\n      0xffffffffffffffffffffffffffffffffffffffff\n      and\n      dup2\n      jump\t// out\n        /* \"contracts/LotteryRouter.sol\":8959:9218  function triggerDraw() external onlyOwner {... */\n    tag_74:\n        /* \"@openzeppelin/contracts/access/Ownable.sol\":1259:1271  _msgSender() */\n      tag_237\n        /* \"@openzeppelin/contracts/access/Ownable.sol\":1259:1269  _msgSender */\n      tag_129\n        /* \"@openzeppelin/contracts/access/Ownable.sol\":1259:1271  _msgSender() */\n      jump\t// in\n    tag_237:\n        /* \"@openzeppelin/contracts/access/Ownable.sol\":1248:1271  owner() == _msgSender() */\n      0xffffffffffffffffffffffffffffffffffffffff\n      and\n        /* \"@openzeppelin/contracts/access/Ownable.sol\":1248:1255  owner() */\n      tag_238\n        /* \"@openzeppelin/contracts/access/Ownable.sol\":1248:1253  owner */\n      tag_77\n        /* \"@openzeppelin/contracts/access/Ownable.sol\":1248:1255  owner() */\n      jump\t// in\n    tag_238:\n        /* \"@openzeppelin/contracts/access/Ownable.sol\":1248:1271  owner() == _msgSender() */\n      0xffffffffffffffffffffffffffffffffffffffff\n      and\n      eq\n        /* \"@openzeppelin/contracts/access/Ownable.sol\":1240:1308  require(owner() == _msgSender(), \"Ownable: caller is not the owner\") */\n      tag_239\n      jumpi\n      mload(0x40)\n      0x08c379a000000000000000000000000000000000000000000000000000000000\n      dup2\n      mstore\n      0x04\n      add\n      tag_240\n      swap1\n      tag_133\n      jump\t// in\n    tag_240:\n      mload(0x40)\n      dup1\n      swap2\n      sub\n      swap1\n      revert\n    tag_239:\n        /* \"contracts/LotteryRouter.sol\":9038:9039  0 */\n      0x00\n        /* \"contracts/LotteryRouter.sol\":9019:9040  lottery != address(0) */\n      0xffffffffffffffffffffffffffffffffffffffff\n      and\n        /* \"contracts/LotteryRouter.sol\":9019:9026  lottery */\n      0x02\n      0x00\n      swap1\n      sload\n      swap1\n      0x0100\n      exp\n      swap1\n      div\n      0xffffffffffffffffffffffffffffffffffffffff\n      and\n        /* \"contracts/LotteryRouter.sol\":9019:9040  lottery != address(0) */\n      0xffffffffffffffffffffffffffffffffffffffff\n      and\n      sub\n        /* \"contracts/LotteryRouter.sol\":9011:9067  require(lottery != address(0), \"Lottery not configured\") */\n      tag_242\n      jumpi\n      mload(0x40)\n      0x08c379a000000000000000000000000000000000000000000000000000000000\n      dup2\n      mstore\n      0x04\n      add\n      tag_243\n      swap1\n      tag_244\n      jump\t// in\n    tag_243:\n      mload(0x40)\n      dup1\n      swap2\n      sub\n      swap1\n      revert\n    tag_242:\n        /* \"contracts/LotteryRouter.sol\":9079:9091  bool success */\n      0x00\n        /* \"contracts/LotteryRouter.sol\":9097:9104  lottery */\n      0x02\n      0x00\n      swap1\n      sload\n      swap1\n      0x0100\n      exp\n      swap1\n      div\n      0xffffffffffffffffffffffffffffffffffffffff\n      and\n        /* \"contracts/LotteryRouter.sol\":9097:9109  lottery.call */\n      0xffffffffffffffffffffffffffffffffffffffff\n      and\n        /* \"contracts/LotteryRouter.sol\":9110:9161  abi.encodeWithSignature(\"performUpkeep(bytes)\", \"\") */\n      add(0x24, mload(0x40))\n      tag_245\n      swap1\n      tag_246\n      jump\t// in\n    tag_245:\n      mload(0x40)\n      0x20\n      dup2\n      dup4\n      sub\n      sub\n      dup2\n      mstore\n      swap1\n      0x40\n      mstore\n      and(not(0xffffffffffffffffffffffffffffffffffffffffffffffffffffffff), 0x4585e33b00000000000000000000000000000000000000000000000000000000)\n      0x20\n      dup3\n      add\n      dup1\n      mload\n      0xffffffffffffffffffffffffffffffffffffffffffffffffffffffff\n      dup4\n      dup2\n      dup4\n      and\n      or\n      dup4\n      mstore\n      pop\n      pop\n      pop\n      pop\n        /* \"contracts/LotteryRouter.sol\":9097:9162  lottery.call(abi.encodeWithSignature(\"performUpkeep(bytes)\", \"\")) */\n      mload(0x40)\n      tag_247\n      swap2\n      swap1\n      tag_113\n      jump\t// in\n    tag_247:\n      0x00\n      mload(0x40)\n      dup1\n      dup4\n      sub\n      dup2\n      0x00\n      dup7\n      gas\n      call\n      swap2\n      pop\n      pop\n      returndatasize\n      dup1\n      0x00\n      dup2\n      eq\n      tag_250\n      jumpi\n      mload(0x40)\n      swap2\n      pop\n      and(add(returndatasize, 0x3f), not(0x1f))\n      dup3\n      add\n      0x40\n      mstore\n      returndatasize\n      dup3\n      mstore\n      returndatasize\n      0x00\n      0x20\n      dup5\n      add\n      returndatacopy\n      jump(tag_249)\n    tag_250:\n      0x60\n      swap2\n      pop\n    tag_249:\n      pop\n        /* \"contracts/LotteryRouter.sol\":9078:9162  (bool success, ) = lottery.call(abi.encodeWithSignature(\"performUpkeep(bytes)\", \"\")) */\n      pop\n      swap1\n      pop\n        /* \"contracts/LotteryRouter.sol\":9180:9187  success */\n      dup1\n        /* \"contracts/LotteryRouter.sol\":9172:9211  require(success, \"Trigger draw failed\") */\n      tag_251\n      jumpi\n      mload(0x40)\n      0x08c379a000000000000000000000000000000000000000000000000000000000\n      dup2\n      mstore\n      0x04\n      add\n      tag_252\n      swap1\n      tag_253\n      jump\t// in\n    tag_252:\n      mload(0x40)\n      dup1\n      swap2\n      sub\n      swap1\n      revert\n    tag_251:\n        /* \"contracts/LotteryRouter.sol\":9001:9218  {... */\n      pop\n        /* \"contracts/LotteryRouter.sol\":8959:9218  function triggerDraw() external onlyOwner {... */\n      jump\t// out\n        /* \"@openzeppelin/contracts/access/Ownable.sol\":1036:1121  function owner() public view virtual returns (address) {... */\n    tag_77:\n        /* \"@openzeppelin/contracts/access/Ownable.sol\":1082:1089  address */\n      0x00\n        /* \"@openzeppelin/contracts/access/Ownable.sol\":1108:1114  _owner */\n      0x00\n      0x00\n      swap1\n      sload\n      swap1\n      0x0100\n      exp\n      swap1\n      div\n      0xffffffffffffffffffffffffffffffffffffffff\n      and\n        /* \"@openzeppelin/contracts/access/Ownable.sol\":1101:1114  return _owner */\n      swap1\n      pop\n        /* \"@openzeppelin/contracts/access/Ownable.sol\":1036:1121  function owner() public view virtual returns (address) {... */\n      swap1\n      jump\t// out\n        /* \"contracts/LotteryRouter.sol\":3099:3908  function deposit(uint256 amount) external nonReentrant {... */\n    tag_82:\n        /* \"@openzeppelin/contracts/security/ReentrancyGuard.sol\":1744:1745  2 */\n      0x02\n        /* \"@openzeppelin/contracts/security/ReentrancyGuard.sol\":2325:2332  _status */\n      sload(0x01)\n        /* \"@openzeppelin/contracts/security/ReentrancyGuard.sol\":2325:2344  _status != _ENTERED */\n      sub\n        /* \"@openzeppelin/contracts/security/ReentrancyGuard.sol\":2317:2380  require(_status != _ENTERED, \"ReentrancyGuard: reentrant call\") */\n      tag_256\n      jumpi\n      mload(0x40)\n      0x08c379a000000000000000000000000000000000000000000000000000000000\n      dup2\n      mstore\n      0x04\n      add\n      tag_257\n      swap1\n      tag_258\n      jump\t// in\n    tag_257:\n      mload(0x40)\n      dup1\n      swap2\n      sub\n      swap1\n      revert\n    tag_256:\n        /* \"@openzeppelin/contracts/security/ReentrancyGuard.sol\":1744:1745  2 */\n      0x02\n        /* \"@openzeppelin/contracts/security/ReentrancyGuard.sol\":2455:2462  _status */\n      0x01\n        /* \"@openzeppelin/contracts/security/ReentrancyGuard.sol\":2455:2473  _status = _ENTERED */\n      dup2\n      swap1\n      sstore\n      pop\n        /* \"contracts/LotteryRouter.sol\":3189:3190  0 */\n      0x00\n        /* \"contracts/LotteryRouter.sol\":3172:3191  vault != address(0) */\n      0xffffffffffffffffffffffffffffffffffffffff\n      and\n        /* \"contracts/LotteryRouter.sol\":3172:3177  vault */\n      0x03\n      0x00\n      swap1\n      sload\n      swap1\n      0x0100\n      exp\n      swap1\n      div\n      0xffffffffffffffffffffffffffffffffffffffff\n      and\n        /* \"contracts/LotteryRouter.sol\":3172:3191  vault != address(0) */\n      0xffffffffffffffffffffffffffffffffffffffff\n      and\n      sub\n        /* \"contracts/LotteryRouter.sol\":3164:3216  require(vault != address(0), \"Vault not configured\") */\n      tag_260\n      jumpi\n      mload(0x40)\n      0x08c379a000000000000000000000000000000000000000000000000000000000\n      dup2\n      mstore\n      0x04\n      add\n      tag_261\n      swap1\n      tag_106\n      jump\t// in\n    tag_261:\n      mload(0x40)\n      dup1\n      swap2\n      sub\n      swap1\n      revert\n    tag_260:\n        /* \"contracts/LotteryRouter.sol\":3243:3244  0 */\n      0x00\n        /* \"contracts/LotteryRouter.sol\":3234:3240  amount */\n      dup2\n        /* \"contracts/LotteryRouter.sol\":3234:3244  amount > 0 */\n      gt\n        /* \"contracts/LotteryRouter.sol\":3226:3273  require(amount > 0, \"Must deposit WETH tokens\") */\n      tag_262\n      jumpi\n      mload(0x40)\n      0x08c379a000000000000000000000000000000000000000000000000000000000\n      dup2\n      mstore\n      0x04\n      add\n      tag_263\n      swap1\n      tag_264\n      jump\t// in\n    tag_263:\n      mload(0x40)\n      dup1\n      swap2\n      sub\n      swap1\n      revert\n    tag_262:\n        /* \"contracts/LotteryRouter.sol\":3312:3324  address weth */\n      0x00\n        /* \"contracts/LotteryRouter.sol\":3334:3339  vault */\n      0x03\n      0x00\n      swap1\n      sload\n      swap1\n      0x0100\n      exp\n      swap1\n      div\n      0xffffffffffffffffffffffffffffffffffffffff\n      and\n        /* \"contracts/LotteryRouter.sol\":3327:3345  IVault(vault).weth */\n      0xffffffffffffffffffffffffffffffffffffffff\n      and\n      0x3fc8cef3\n        /* \"contracts/LotteryRouter.sol\":3327:3347  IVault(vault).weth() */\n      mload(0x40)\n      dup2\n      0xffffffff\n      and\n      0xe0\n      shl\n      dup2\n      mstore\n      0x04\n      add\n      0x20\n      mload(0x40)\n      dup1\n      dup4\n      sub\n      dup2\n      dup7\n      gas\n      staticcall\n      iszero\n      dup1\n      iszero\n      tag_266\n      jumpi\n      returndatacopy(0x00, 0x00, returndatasize)\n      revert(0x00, returndatasize)\n    tag_266:\n      pop\n      pop\n      pop\n      pop\n      mload(0x40)\n      returndatasize\n      not(0x1f)\n      0x1f\n      dup3\n      add\n      and\n      dup3\n      add\n      dup1\n      0x40\n      mstore\n      pop\n      dup2\n      add\n      swap1\n      tag_267\n      swap2\n      swap1\n      tag_218\n      jump\t// in\n    tag_267:\n        /* \"contracts/LotteryRouter.sol\":3312:3347  address weth = IVault(vault).weth() */\n      swap1\n      pop\n        /* \"contracts/LotteryRouter.sol\":3381:3382  0 */\n      0x00\n        /* \"contracts/LotteryRouter.sol\":3365:3383  weth != address(0) */\n      0xffffffffffffffffffffffffffffffffffffffff\n      and\n        /* \"contracts/LotteryRouter.sol\":3365:3369  weth */\n      dup2\n        /* \"contracts/LotteryRouter.sol\":3365:3383  weth != address(0) */\n      0xffffffffffffffffffffffffffffffffffffffff\n      and\n      sub\n        /* \"contracts/LotteryRouter.sol\":3357:3407  require(weth != address(0), \"WETH not configured\") */\n      tag_268\n      jumpi\n      mload(0x40)\n      0x08c379a000000000000000000000000000000000000000000000000000000000\n      dup2\n      mstore\n      0x04\n      add\n      tag_269\n      swap1\n      tag_270\n      jump\t// in\n    tag_269:\n      mload(0x40)\n      dup1\n      swap2\n      sub\n      swap1\n      revert\n    tag_268:\n        /* \"contracts/LotteryRouter.sol\":3461:3525  IERC20(weth).safeTransferFrom(msg.sender, address(this), amount) */\n      tag_271\n        /* \"contracts/LotteryRouter.sol\":3491:3501  msg.sender */\n      caller\n        /* \"contracts/LotteryRouter.sol\":3511:3515  this */\n      address\n        /* \"contracts/LotteryRouter.sol\":3518:3524  amount */\n      dup5\n        /* \"contracts/LotteryRouter.sol\":3468:3472  weth */\n      dup5\n        /* \"contracts/LotteryRouter.sol\":3461:3490  IERC20(weth).safeTransferFrom */\n      0xffffffffffffffffffffffffffffffffffffffff\n      and\n      tag_272\n      swap1\n        /* \"contracts/LotteryRouter.sol\":3461:3525  IERC20(weth).safeTransferFrom(msg.sender, address(this), amount) */\n      swap4\n      swap3\n      swap2\n      swap1\n      0xffffffff\n      and\n      jump\t// in\n    tag_271:\n        /* \"contracts/LotteryRouter.sol\":3572:3612  IERC20(weth).safeTransfer(vault, amount) */\n      tag_273\n        /* \"contracts/LotteryRouter.sol\":3598:3603  vault */\n      0x03\n      0x00\n      swap1\n      sload\n      swap1\n      0x0100\n      exp\n      swap1\n      div\n      0xffffffffffffffffffffffffffffffffffffffff\n      and\n        /* \"contracts/LotteryRouter.sol\":3605:3611  amount */\n      dup4\n        /* \"contracts/LotteryRouter.sol\":3579:3583  weth */\n      dup4\n        /* \"contracts/LotteryRouter.sol\":3572:3597  IERC20(weth).safeTransfer */\n      0xffffffffffffffffffffffffffffffffffffffff\n      and\n      tag_274\n      swap1\n        /* \"contracts/LotteryRouter.sol\":3572:3612  IERC20(weth).safeTransfer(vault, amount) */\n      swap3\n      swap2\n      swap1\n      0xffffffff\n      and\n      jump\t// in\n    tag_273:\n        /* \"contracts/LotteryRouter.sol\":3666:3678  bool success */\n      0x00\n        /* \"contracts/LotteryRouter.sol\":3684:3689  vault */\n      0x03\n      0x00\n      swap1\n      sload\n      swap1\n      0x0100\n      exp\n      swap1\n      div\n      0xffffffffffffffffffffffffffffffffffffffff\n      and\n        /* \"contracts/LotteryRouter.sol\":3684:3694  vault.call */\n      0xffffffffffffffffffffffffffffffffffffffff\n      and\n        /* \"contracts/LotteryRouter.sol\":3763:3773  msg.sender */\n      caller\n        /* \"contracts/LotteryRouter.sol\":3775:3781  amount */\n      dup5\n        /* \"contracts/LotteryRouter.sol\":3708:3782  abi.encodeWithSignature(\"depositFor(address,uint256)\", msg.sender, amount) */\n      add(0x24, mload(0x40))\n      tag_275\n      swap3\n      swap2\n      swap1\n      tag_111\n      jump\t// in\n    tag_275:\n      mload(0x40)\n      0x20\n      dup2\n      dup4\n      sub\n      sub\n      dup2\n      mstore\n      swap1\n      0x40\n      mstore\n      and(not(0xffffffffffffffffffffffffffffffffffffffffffffffffffffffff), 0x2f4f21e200000000000000000000000000000000000000000000000000000000)\n      0x20\n      dup3\n      add\n      dup1\n      mload\n      0xffffffffffffffffffffffffffffffffffffffffffffffffffffffff\n      dup4\n      dup2\n      dup4\n      and\n      or\n      dup4\n      mstore\n      pop\n      pop\n      pop\n      pop\n        /* \"contracts/LotteryRouter.sol\":3684:3792  vault.call(... */\n      mload(0x40)\n      tag_276\n      swap2\n      swap1\n      tag_113\n      jump\t// in\n    tag_276:\n      0x00\n      mload(0x40)\n      dup1\n      dup4\n      sub\n      dup2\n      0x00\n      dup7\n      gas\n      call\n      swap2\n      pop\n      pop\n      returndatasize\n      dup1\n      0x00\n      dup2\n      eq\n      tag_279\n      jumpi\n      mload(0x40)\n      swap2\n      pop\n      and(add(returndatasize, 0x3f), not(0x1f))\n      dup3\n      add\n      0x40\n      mstore\n      returndatasize\n      dup3\n      mstore\n      returndatasize\n      0x00\n      0x20\n      dup5\n      add\n      returndatacopy\n      jump(tag_278)\n    tag_279:\n      0x60\n      swap2\n      pop\n    tag_278:\n      pop\n        /* \"contracts/LotteryRouter.sol\":3665:3792  (bool success, ) = vault.call(... */\n      pop\n      swap1\n      pop\n        /* \"contracts/LotteryRouter.sol\":3810:3817  success */\n      dup1\n        /* \"contracts/LotteryRouter.sol\":3802:3852  require(success, \"WETH deposit forwarding failed\") */\n      tag_280\n      jumpi\n      mload(0x40)\n      0x08c379a000000000000000000000000000000000000000000000000000000000\n      dup2\n      mstore\n      0x04\n      add\n      tag_281\n      swap1\n      tag_282\n      jump\t// in\n    tag_281:\n      mload(0x40)\n      dup1\n      swap2\n      sub\n      swap1\n      revert\n    tag_280:\n        /* \"contracts/LotteryRouter.sol\":3882:3892  msg.sender */\n      caller\n        /* \"contracts/LotteryRouter.sol\":3868:3901  DepositRouted(msg.sender, amount) */\n      0xffffffffffffffffffffffffffffffffffffffff\n      and\n      0x53ef711025b489956217f8c567b33471fe359e30a2da402028b2d897dce90257\n        /* \"contracts/LotteryRouter.sol\":3894:3900  amount */\n      dup5\n        /* \"contracts/LotteryRouter.sol\":3868:3901  DepositRouted(msg.sender, amount) */\n      mload(0x40)\n      tag_283\n      swap2\n      swap1\n      tag_284\n      jump\t// in\n    tag_283:\n      mload(0x40)\n      dup1\n      swap2\n      sub\n      swap1\n      log2\n        /* \"contracts/LotteryRouter.sol\":3154:3908  {... */\n      pop\n      pop\n        /* \"@openzeppelin/contracts/security/ReentrancyGuard.sol\":1701:1702  1 */\n      0x01\n        /* \"@openzeppelin/contracts/security/ReentrancyGuard.sol\":2628:2635  _status */\n      dup1\n        /* \"@openzeppelin/contracts/security/ReentrancyGuard.sol\":2628:2650  _status = _NOT_ENTERED */\n      dup2\n      swap1\n      sstore\n      pop\n        /* \"contracts/LotteryRouter.sol\":3099:3908  function deposit(uint256 amount) external nonReentrant {... */\n      pop\n      jump\t// out\n        /* \"contracts/LotteryRouter.sol\":740:762  address public lottery */\n    tag_85:\n      0x02\n      0x00\n      swap1\n      sload\n      swap1\n      0x0100\n      exp\n      swap1\n      div\n      0xffffffffffffffffffffffffffffffffffffffff\n      and\n      dup2\n      jump\t// out\n        /* \"contracts/LotteryRouter.sol\":6229:6888  function claimPrize(uint256 roundId) external override nonReentrant {... */\n    tag_90:\n        /* \"@openzeppelin/contracts/security/ReentrancyGuard.sol\":1744:1745  2 */\n      0x02\n        /* \"@openzeppelin/contracts/security/ReentrancyGuard.sol\":2325:2332  _status */\n      sload(0x01)\n        /* \"@openzeppelin/contracts/security/ReentrancyGuard.sol\":2325:2344  _status != _ENTERED */\n      sub\n        /* \"@openzeppelin/contracts/security/ReentrancyGuard.sol\":2317:2380  require(_status != _ENTERED, \"ReentrancyGuard: reentrant call\") */\n      tag_286\n      jumpi\n      mload(0x40)\n      0x08c379a000000000000000000000000000000000000000000000000000000000\n      dup2\n      mstore\n      0x04\n      add\n      tag_287\n      swap1\n      tag_258\n      jump\t// in\n    tag_287:\n      mload(0x40)\n      dup1\n      swap2\n      sub\n      swap1\n      revert\n    tag_286:\n        /* \"@openzeppelin/contracts/security/ReentrancyGuard.sol\":1744:1745  2 */\n      0x02\n        /* \"@openzeppelin/contracts/security/ReentrancyGuard.sol\":2455:2462  _status */\n      0x01\n        /* \"@openzeppelin/contracts/security/ReentrancyGuard.sol\":2455:2473  _status = _ENTERED */\n      dup2\n      swap1\n      sstore\n      pop\n        /* \"contracts/LotteryRouter.sol\":6336:6337  0 */\n      0x00\n        /* \"contracts/LotteryRouter.sol\":6315:6338  prizePool != address(0) */\n      0xffffffffffffffffffffffffffffffffffffffff\n      and\n        /* \"contracts/LotteryRouter.sol\":6315:6324  prizePool */\n      0x04\n      0x00\n      swap1\n      sload\n      swap1\n      0x0100\n      exp\n      swap1\n      div\n      0xffffffffffffffffffffffffffffffffffffffff\n      and\n        /* \"contracts/LotteryRouter.sol\":6315:6338  prizePool != address(0) */\n      0xffffffffffffffffffffffffffffffffffffffff\n      and\n      sub\n        /* \"contracts/LotteryRouter.sol\":6307:6367  require(prizePool != address(0), \"PrizePool not configured\") */\n      tag_289\n      jumpi\n      mload(0x40)\n      0x08c379a000000000000000000000000000000000000000000000000000000000\n      dup2\n      mstore\n      0x04\n      add\n      tag_290\n      swap1\n      tag_291\n      jump\t// in\n    tag_290:\n      mload(0x40)\n      dup1\n      swap2\n      sub\n      swap1\n      revert\n    tag_289:\n        /* \"contracts/LotteryRouter.sol\":6404:6405  0 */\n      0x00\n        /* \"contracts/LotteryRouter.sol\":6385:6406  lottery != address(0) */\n      0xffffffffffffffffffffffffffffffffffffffff\n      and\n        /* \"contracts/LotteryRouter.sol\":6385:6392  lottery */\n      0x02\n      0x00\n      swap1\n      sload\n      swap1\n      0x0100\n      exp\n      swap1\n      div\n      0xffffffffffffffffffffffffffffffffffffffff\n      and\n        /* \"contracts/LotteryRouter.sol\":6385:6406  lottery != address(0) */\n      0xffffffffffffffffffffffffffffffffffffffff\n      and\n      sub\n        /* \"contracts/LotteryRouter.sol\":6377:6433  require(lottery != address(0), \"Lottery not configured\") */\n      tag_292\n      jumpi\n      mload(0x40)\n      0x08c379a000000000000000000000000000000000000000000000000000000000\n      dup2\n      mstore\n      0x04\n      add\n      tag_293\n      swap1\n      tag_244\n      jump\t// in\n    tag_293:\n      mload(0x40)\n      dup1\n      swap2\n      sub\n      swap1\n      revert\n    tag_292:\n        /* \"contracts/LotteryRouter.sol\":6498:6532  ILottery.LotteryRound memory round */\n      0x00\n        /* \"contracts/LotteryRouter.sol\":6544:6551  lottery */\n      0x02\n      0x00\n      swap1\n      sload\n      swap1\n      0x0100\n      exp\n      swap1\n      div\n      0xffffffffffffffffffffffffffffffffffffffff\n      and\n        /* \"contracts/LotteryRouter.sol\":6535:6565  ILottery(lottery).lotteryRound */\n      0xffffffffffffffffffffffffffffffffffffffff\n      and\n      0xc4a909ba\n        /* \"contracts/LotteryRouter.sol\":6566:6573  roundId */\n      dup4\n        /* \"contracts/LotteryRouter.sol\":6535:6574  ILottery(lottery).lotteryRound(roundId) */\n      mload(0x40)\n      dup3\n      0xffffffff\n      and\n      0xe0\n      shl\n      dup2\n      mstore\n      0x04\n      add\n      tag_294\n      swap2\n      swap1\n      tag_284\n      jump\t// in\n    tag_294:\n      0xe0\n      mload(0x40)\n      dup1\n      dup4\n      sub\n      dup2\n      dup7\n      gas\n      staticcall\n      iszero\n      dup1\n      iszero\n      tag_296\n      jumpi\n      returndatacopy(0x00, 0x00, returndatasize)\n      revert(0x00, returndatasize)\n    tag_296:\n      pop\n      pop\n      pop\n      pop\n      mload(0x40)\n      returndatasize\n      not(0x1f)\n      0x1f\n      dup3\n      add\n      and\n      dup3\n      add\n      dup1\n      0x40\n      mstore\n      pop\n      dup2\n      add\n      swap1\n      tag_297\n      swap2\n      swap1\n      tag_298\n      jump\t// in\n    tag_297:\n        /* \"contracts/LotteryRouter.sol\":6498:6574  ILottery.LotteryRound memory round = ILottery(lottery).lotteryRound(roundId) */\n      swap1\n      pop\n        /* \"contracts/LotteryRouter.sol\":6608:6618  msg.sender */\n      caller\n        /* \"contracts/LotteryRouter.sol\":6592:6618  round.winner == msg.sender */\n      0xffffffffffffffffffffffffffffffffffffffff\n      and\n        /* \"contracts/LotteryRouter.sol\":6592:6597  round */\n      dup2\n        /* \"contracts/LotteryRouter.sol\":6592:6604  round.winner */\n      0x20\n      add\n      mload\n        /* \"contracts/LotteryRouter.sol\":6592:6618  round.winner == msg.sender */\n      0xffffffffffffffffffffffffffffffffffffffff\n      and\n      eq\n        /* \"contracts/LotteryRouter.sol\":6584:6650  require(round.winner == msg.sender, \"Only winner can claim prize\") */\n      tag_299\n      jumpi\n      mload(0x40)\n      0x08c379a000000000000000000000000000000000000000000000000000000000\n      dup2\n      mstore\n      0x04\n      add\n      tag_300\n      swap1\n      tag_301\n      jump\t// in\n    tag_300:\n      mload(0x40)\n      dup1\n      swap2\n      sub\n      swap1\n      revert\n    tag_299:\n        /* \"contracts/LotteryRouter.sol\":6669:6674  round */\n      dup1\n        /* \"contracts/LotteryRouter.sol\":6669:6684  round.isClaimed */\n      0xa0\n      add\n      mload\n        /* \"contracts/LotteryRouter.sol\":6668:6684  !round.isClaimed */\n      iszero\n        /* \"contracts/LotteryRouter.sol\":6660:6710  require(!round.isClaimed, \"Prize already claimed\") */\n      tag_302\n      jumpi\n      mload(0x40)\n      0x08c379a000000000000000000000000000000000000000000000000000000000\n      dup2\n      mstore\n      0x04\n      add\n      tag_303\n      swap1\n      tag_304\n      jump\t// in\n    tag_303:\n      mload(0x40)\n      dup1\n      swap2\n      sub\n      swap1\n      revert\n    tag_302:\n        /* \"contracts/LotteryRouter.sol\":6780:6789  prizePool */\n      0x04\n      0x00\n      swap1\n      sload\n      swap1\n      0x0100\n      exp\n      swap1\n      div\n      0xffffffffffffffffffffffffffffffffffffffff\n      and\n        /* \"contracts/LotteryRouter.sol\":6769:6801  IPrizePool(prizePool).claimPrize */\n      0xffffffffffffffffffffffffffffffffffffffff\n      and\n      0xd7098154\n        /* \"contracts/LotteryRouter.sol\":6802:6809  roundId */\n      dup4\n        /* \"contracts/LotteryRouter.sol\":6769:6810  IPrizePool(prizePool).claimPrize(roundId) */\n      mload(0x40)\n      dup3\n      0xffffffff\n      and\n      0xe0\n      shl\n      dup2\n      mstore\n      0x04\n      add\n      tag_305\n      swap2\n      swap1\n      tag_284\n      jump\t// in\n    tag_305:\n      0x00\n      mload(0x40)\n      dup1\n      dup4\n      sub\n      dup2\n      0x00\n      dup8\n      dup1\n      extcodesize\n      iszero\n      dup1\n      iszero\n      tag_306\n      jumpi\n      revert(0x00, 0x00)\n    tag_306:\n      pop\n      gas\n      call\n      iszero\n      dup1\n      iszero\n      tag_308\n      jumpi\n      returndatacopy(0x00, 0x00, returndatasize)\n      revert(0x00, returndatasize)\n    tag_308:\n      pop\n      pop\n      pop\n      pop\n        /* \"contracts/LotteryRouter.sol\":6843:6853  msg.sender */\n      caller\n        /* \"contracts/LotteryRouter.sol\":6826:6881  PrizeClaimRouted(msg.sender, round.prizeValue, roundId) */\n      0xffffffffffffffffffffffffffffffffffffffff\n      and\n      0xa9d775bb1156cf56920fbed972accb058fb34c77ed1d124565a2e23f5ecf30d3\n        /* \"contracts/LotteryRouter.sol\":6855:6860  round */\n      dup3\n        /* \"contracts/LotteryRouter.sol\":6855:6871  round.prizeValue */\n      0x40\n      add\n      mload\n        /* \"contracts/LotteryRouter.sol\":6873:6880  roundId */\n      dup5\n        /* \"contracts/LotteryRouter.sol\":6826:6881  PrizeClaimRouted(msg.sender, round.prizeValue, roundId) */\n      mload(0x40)\n      tag_309\n      swap3\n      swap2\n      swap1\n      tag_310\n      jump\t// in\n    tag_309:\n      mload(0x40)\n      dup1\n      swap2\n      sub\n      swap1\n      log2\n        /* \"contracts/LotteryRouter.sol\":6297:6888  {... */\n      pop\n        /* \"@openzeppelin/contracts/security/ReentrancyGuard.sol\":1701:1702  1 */\n      0x01\n        /* \"@openzeppelin/contracts/security/ReentrancyGuard.sol\":2628:2635  _status */\n      dup1\n        /* \"@openzeppelin/contracts/security/ReentrancyGuard.sol\":2628:2650  _status = _NOT_ENTERED */\n      dup2\n      swap1\n      sstore\n      pop\n        /* \"contracts/LotteryRouter.sol\":6229:6888  function claimPrize(uint256 roundId) external override nonReentrant {... */\n      pop\n      jump\t// out\n        /* \"contracts/LotteryRouter.sol\":1270:1482  function setLottery(address _lottery) external onlyOwner {... */\n    tag_94:\n        /* \"@openzeppelin/contracts/access/Ownable.sol\":1259:1271  _msgSender() */\n      tag_312\n        /* \"@openzeppelin/contracts/access/Ownable.sol\":1259:1269  _msgSender */\n      tag_129\n        /* \"@openzeppelin/contracts/access/Ownable.sol\":1259:1271  _msgSender() */\n      jump\t// in\n    tag_312:\n        /* \"@openzeppelin/contracts/access/Ownable.sol\":1248:1271  owner() == _msgSender() */\n      0xffffffffffffffffffffffffffffffffffffffff\n      and\n        /* \"@openzeppelin/contracts/access/Ownable.sol\":1248:1255  owner() */\n      tag_313\n        /* \"@openzeppelin/contracts/access/Ownable.sol\":1248:1253  owner */\n      tag_77\n        /* \"@openzeppelin/contracts/access/Ownable.sol\":1248:1255  owner() */\n      jump\t// in\n    tag_313:\n        /* \"@openzeppelin/contracts/access/Ownable.sol\":1248:1271  owner() == _msgSender() */\n      0xffffffffffffffffffffffffffffffffffffffff\n      and\n      eq\n        /* \"@openzeppelin/contracts/access/Ownable.sol\":1240:1308  require(owner() == _msgSender(), \"Ownable: caller is not the owner\") */\n      tag_314\n      jumpi\n      mload(0x40)\n      0x08c379a000000000000000000000000000000000000000000000000000000000\n      dup2\n      mstore\n      0x04\n      add\n      tag_315\n      swap1\n      tag_133\n      jump\t// in\n    tag_315:\n      mload(0x40)\n      dup1\n      swap2\n      sub\n      swap1\n      revert\n    tag_314:\n        /* \"contracts/LotteryRouter.sol\":1365:1366  0 */\n      0x00\n        /* \"contracts/LotteryRouter.sol\":1345:1367  _lottery != address(0) */\n      0xffffffffffffffffffffffffffffffffffffffff\n      and\n        /* \"contracts/LotteryRouter.sol\":1345:1353  _lottery */\n      dup2\n        /* \"contracts/LotteryRouter.sol\":1345:1367  _lottery != address(0) */\n      0xffffffffffffffffffffffffffffffffffffffff\n      and\n      sub\n        /* \"contracts/LotteryRouter.sol\":1337:1395  require(_lottery != address(0), \"Invalid lottery address\") */\n      tag_317\n      jumpi\n      mload(0x40)\n      0x08c379a000000000000000000000000000000000000000000000000000000000\n      dup2\n      mstore\n      0x04\n      add\n      tag_318\n      swap1\n      tag_319\n      jump\t// in\n    tag_318:\n      mload(0x40)\n      dup1\n      swap2\n      sub\n      swap1\n      revert\n    tag_317:\n        /* \"contracts/LotteryRouter.sol\":1415:1423  _lottery */\n      dup1\n        /* \"contracts/LotteryRouter.sol\":1405:1412  lottery */\n      0x02\n      0x00\n        /* \"contracts/LotteryRouter.sol\":1405:1423  lottery = _lottery */\n      0x0100\n      exp\n      dup2\n      sload\n      dup2\n      0xffffffffffffffffffffffffffffffffffffffff\n      mul\n      not\n      and\n      swap1\n      dup4\n      0xffffffffffffffffffffffffffffffffffffffff\n      and\n      mul\n      or\n      swap1\n      sstore\n      pop\n        /* \"contracts/LotteryRouter.sol\":1466:1474  _lottery */\n      dup1\n        /* \"contracts/LotteryRouter.sol\":1438:1475  ComponentUpdated(\"lottery\", _lottery) */\n      0xffffffffffffffffffffffffffffffffffffffff\n      and\n      mload(0x40)\n      tag_320\n      swap1\n      tag_321\n      jump\t// in\n    tag_320:\n      mload(0x40)\n      dup1\n      swap2\n      sub\n      swap1\n      keccak256\n      0xb66c2f14f9918a1cf623dbeeed97ac7a96ace1fd080e5dc03df1f8da61068b88\n      mload(0x40)\n      mload(0x40)\n      dup1\n      swap2\n      sub\n      swap1\n      log3\n        /* \"contracts/LotteryRouter.sol\":1270:1482  function setLottery(address _lottery) external onlyOwner {... */\n      pop\n      jump\t// out\n        /* \"@openzeppelin/contracts/access/Ownable.sol\":1918:2116  function transferOwnership(address newOwner) public virtual onlyOwner {... */\n    tag_98:\n        /* \"@openzeppelin/contracts/access/Ownable.sol\":1259:1271  _msgSender() */\n      tag_323\n        /* \"@openzeppelin/contracts/access/Ownable.sol\":1259:1269  _msgSender */\n      tag_129\n        /* \"@openzeppelin/contracts/access/Ownable.sol\":1259:1271  _msgSender() */\n      jump\t// in\n    tag_323:\n        /* \"@openzeppelin/contracts/access/Ownable.sol\":1248:1271  owner() == _msgSender() */\n      0xffffffffffffffffffffffffffffffffffffffff\n      and\n        /* \"@openzeppelin/contracts/access/Ownable.sol\":1248:1255  owner() */\n      tag_324\n        /* \"@openzeppelin/contracts/access/Ownable.sol\":1248:1253  owner */\n      tag_77\n        /* \"@openzeppelin/contracts/access/Ownable.sol\":1248:1255  owner() */\n      jump\t// in\n    tag_324:\n        /* \"@openzeppelin/contracts/access/Ownable.sol\":1248:1271  owner() == _msgSender() */\n      0xffffffffffffffffffffffffffffffffffffffff\n      and\n      eq\n        /* \"@openzeppelin/contracts/access/Ownable.sol\":1240:1308  require(owner() == _msgSender(), \"Ownable: caller is not the owner\") */\n      tag_325\n      jumpi\n      mload(0x40)\n      0x08c379a000000000000000000000000000000000000000000000000000000000\n      dup2\n      mstore\n      0x04\n      add\n      tag_326\n      swap1\n      tag_133\n      jump\t// in\n    tag_326:\n      mload(0x40)\n      dup1\n      swap2\n      sub\n      swap1\n      revert\n    tag_325:\n        /* \"@openzeppelin/contracts/access/Ownable.sol\":2026:2027  0 */\n      0x00\n        /* \"@openzeppelin/contracts/access/Ownable.sol\":2006:2028  newOwner != address(0) */\n      0xffffffffffffffffffffffffffffffffffffffff\n      and\n        /* \"@openzeppelin/contracts/access/Ownable.sol\":2006:2014  newOwner */\n      dup2\n        /* \"@openzeppelin/contracts/access/Ownable.sol\":2006:2028  newOwner != address(0) */\n      0xffffffffffffffffffffffffffffffffffffffff\n      and\n      sub\n        /* \"@openzeppelin/contracts/access/Ownable.sol\":1998:2071  require(newOwner != address(0), \"Ownable: new owner is the zero address\") */\n      tag_328\n      jumpi\n      mload(0x40)\n      0x08c379a000000000000000000000000000000000000000000000000000000000\n      dup2\n      mstore\n      0x04\n      add\n      tag_329\n      swap1\n      tag_330\n      jump\t// in\n    tag_329:\n      mload(0x40)\n      dup1\n      swap2\n      sub\n      swap1\n      revert\n    tag_328:\n        /* \"@openzeppelin/contracts/access/Ownable.sol\":2081:2109  _transferOwnership(newOwner) */\n      tag_331\n        /* \"@openzeppelin/contracts/access/Ownable.sol\":2100:2108  newOwner */\n      dup2\n        /* \"@openzeppelin/contracts/access/Ownable.sol\":2081:2099  _transferOwnership */\n      tag_235\n        /* \"@openzeppelin/contracts/access/Ownable.sol\":2081:2109  _transferOwnership(newOwner) */\n      jump\t// in\n    tag_331:\n        /* \"@openzeppelin/contracts/access/Ownable.sol\":1918:2116  function transferOwnership(address newOwner) public virtual onlyOwner {... */\n      pop\n      jump\t// out\n        /* \"contracts/LotteryRouter.sol\":768:788  address public vault */\n    tag_101:\n      0x03\n      0x00\n      swap1\n      sload\n      swap1\n      0x0100\n      exp\n      swap1\n      div\n      0xffffffffffffffffffffffffffffffffffffffff\n      and\n      dup2\n      jump\t// out\n        /* \"contracts/LotteryRouter.sol\":5488:6118  function _withdraw(uint256 amount, uint256 roundId) internal nonReentrant {... */\n    tag_126:\n        /* \"@openzeppelin/contracts/security/ReentrancyGuard.sol\":1744:1745  2 */\n      0x02\n        /* \"@openzeppelin/contracts/security/ReentrancyGuard.sol\":2325:2332  _status */\n      sload(0x01)\n        /* \"@openzeppelin/contracts/security/ReentrancyGuard.sol\":2325:2344  _status != _ENTERED */\n      sub\n        /* \"@openzeppelin/contracts/security/ReentrancyGuard.sol\":2317:2380  require(_status != _ENTERED, \"ReentrancyGuard: reentrant call\") */\n      tag_333\n      jumpi\n      mload(0x40)\n      0x08c379a000000000000000000000000000000000000000000000000000000000\n      dup2\n      mstore\n      0x04\n      add\n      tag_334\n      swap1\n      tag_258\n      jump\t// in\n    tag_334:\n      mload(0x40)\n      dup1\n      swap2\n      sub\n      swap1\n      revert\n    tag_333:\n        /* \"@openzeppelin/contracts/security/ReentrancyGuard.sol\":1744:1745  2 */\n      0x02\n        /* \"@openzeppelin/contracts/security/ReentrancyGuard.sol\":2455:2462  _status */\n      0x01\n        /* \"@openzeppelin/contracts/security/ReentrancyGuard.sol\":2455:2473  _status = _ENTERED */\n      dup2\n      swap1\n      sstore\n      pop\n        /* \"contracts/LotteryRouter.sol\":5621:5691  IERC20(shareToken).safeTransferFrom(msg.sender, address(this), amount) */\n      tag_336\n        /* \"contracts/LotteryRouter.sol\":5657:5667  msg.sender */\n      caller\n        /* \"contracts/LotteryRouter.sol\":5677:5681  this */\n      address\n        /* \"contracts/LotteryRouter.sol\":5684:5690  amount */\n      dup5\n        /* \"contracts/LotteryRouter.sol\":5628:5638  shareToken */\n      0x05\n      0x00\n      swap1\n      sload\n      swap1\n      0x0100\n      exp\n      swap1\n      div\n      0xffffffffffffffffffffffffffffffffffffffff\n      and\n        /* \"contracts/LotteryRouter.sol\":5621:5656  IERC20(shareToken).safeTransferFrom */\n      0xffffffffffffffffffffffffffffffffffffffff\n      and\n      tag_272\n      swap1\n        /* \"contracts/LotteryRouter.sol\":5621:5691  IERC20(shareToken).safeTransferFrom(msg.sender, address(this), amount) */\n      swap4\n      swap3\n      swap2\n      swap1\n      0xffffffff\n      and\n      jump\t// in\n    tag_336:\n        /* \"contracts/LotteryRouter.sol\":5747:5793  IERC20(shareToken).safeTransfer(vault, amount) */\n      tag_337\n        /* \"contracts/LotteryRouter.sol\":5779:5784  vault */\n      0x03\n      0x00\n      swap1\n      sload\n      swap1\n      0x0100\n      exp\n      swap1\n      div\n      0xffffffffffffffffffffffffffffffffffffffff\n      and\n        /* \"contracts/LotteryRouter.sol\":5786:5792  amount */\n      dup4\n        /* \"contracts/LotteryRouter.sol\":5754:5764  shareToken */\n      0x05\n      0x00\n      swap1\n      sload\n      swap1\n      0x0100\n      exp\n      swap1\n      div\n      0xffffffffffffffffffffffffffffffffffffffff\n      and\n        /* \"contracts/LotteryRouter.sol\":5747:5778  IERC20(shareToken).safeTransfer */\n      0xffffffffffffffffffffffffffffffffffffffff\n      and\n      tag_274\n      swap1\n        /* \"contracts/LotteryRouter.sol\":5747:5793  IERC20(shareToken).safeTransfer(vault, amount) */\n      swap3\n      swap2\n      swap1\n      0xffffffff\n      and\n      jump\t// in\n    tag_337:\n        /* \"contracts/LotteryRouter.sol\":5866:5886  bool withdrawSuccess */\n      0x00\n        /* \"contracts/LotteryRouter.sol\":5892:5897  vault */\n      0x03\n      0x00\n      swap1\n      sload\n      swap1\n      0x0100\n      exp\n      swap1\n      div\n      0xffffffffffffffffffffffffffffffffffffffff\n      and\n        /* \"contracts/LotteryRouter.sol\":5892:5902  vault.call */\n      0xffffffffffffffffffffffffffffffffffffffff\n      and\n        /* \"contracts/LotteryRouter.sol\":5972:5979  roundId */\n      dup3\n        /* \"contracts/LotteryRouter.sol\":5980:5990  msg.sender */\n      caller\n        /* \"contracts/LotteryRouter.sol\":5916:5991  abi.encodeWithSignature(\"withdrawFor(uint256,address)\", roundId,msg.sender) */\n      add(0x24, mload(0x40))\n      tag_338\n      swap3\n      swap2\n      swap1\n      tag_339\n      jump\t// in\n    tag_338:\n      mload(0x40)\n      0x20\n      dup2\n      dup4\n      sub\n      sub\n      dup2\n      mstore\n      swap1\n      0x40\n      mstore\n      and(not(0xffffffffffffffffffffffffffffffffffffffffffffffffffffffff), 0x3576f6cc00000000000000000000000000000000000000000000000000000000)\n      0x20\n      dup3\n      add\n      dup1\n      mload\n      0xffffffffffffffffffffffffffffffffffffffffffffffffffffffff\n      dup4\n      dup2\n      dup4\n      and\n      or\n      dup4\n      mstore\n      pop\n      pop\n      pop\n      pop\n        /* \"contracts/LotteryRouter.sol\":5892:6001  vault.call(... */\n      mload(0x40)\n      tag_340\n      swap2\n      swap1\n      tag_113\n      jump\t// in\n    tag_340:\n      0x00\n      mload(0x40)\n      dup1\n      dup4\n      sub\n      dup2\n      0x00\n      dup7\n      gas\n      call\n      swap2\n      pop\n      pop\n      returndatasize\n      dup1\n      0x00\n      dup2\n      eq\n      tag_343\n      jumpi\n      mload(0x40)\n      swap2\n      pop\n      and(add(returndatasize, 0x3f), not(0x1f))\n      dup3\n      add\n      0x40\n      mstore\n      returndatasize\n      dup3\n      mstore\n      returndatasize\n      0x00\n      0x20\n      dup5\n      add\n      returndatacopy\n      jump(tag_342)\n    tag_343:\n      0x60\n      swap2\n      pop\n    tag_342:\n      pop\n        /* \"contracts/LotteryRouter.sol\":5865:6001  (bool withdrawSuccess, ) = vault.call(... */\n      pop\n      swap1\n      pop\n        /* \"contracts/LotteryRouter.sol\":6019:6034  withdrawSuccess */\n      dup1\n        /* \"contracts/LotteryRouter.sol\":6011:6056  require(withdrawSuccess, \"Withdrawal failed\") */\n      tag_344\n      jumpi\n      mload(0x40)\n      0x08c379a000000000000000000000000000000000000000000000000000000000\n      dup2\n      mstore\n      0x04\n      add\n      tag_345\n      swap1\n      tag_346\n      jump\t// in\n    tag_345:\n      mload(0x40)\n      dup1\n      swap2\n      sub\n      swap1\n      revert\n    tag_344:\n        /* \"contracts/LotteryRouter.sol\":6100:6110  msg.sender */\n      caller\n        /* \"contracts/LotteryRouter.sol\":6072:6111  WithdrawalInstructionIssued(msg.sender) */\n      0xffffffffffffffffffffffffffffffffffffffff\n      and\n      0x3e07c5771a8eb0c763dea30d0752320b6edc01ed74c334206e053bf7330c1479\n      mload(0x40)\n      mload(0x40)\n      dup1\n      swap2\n      sub\n      swap1\n      log2\n        /* \"contracts/LotteryRouter.sol\":5562:6118  {... */\n      pop\n        /* \"@openzeppelin/contracts/security/ReentrancyGuard.sol\":1701:1702  1 */\n      0x01\n        /* \"@openzeppelin/contracts/security/ReentrancyGuard.sol\":2628:2635  _status */\n      dup1\n        /* \"@openzeppelin/contracts/security/ReentrancyGuard.sol\":2628:2650  _status = _NOT_ENTERED */\n      dup2\n      swap1\n      sstore\n      pop\n        /* \"contracts/LotteryRouter.sol\":5488:6118  function _withdraw(uint256 amount, uint256 roundId) internal nonReentrant {... */\n      pop\n      pop\n      jump\t// out\n        /* \"@openzeppelin/contracts/utils/Context.sol\":640:736  function _msgSender() internal view virtual returns (address) {... */\n    tag_129:\n        /* \"@openzeppelin/contracts/utils/Context.sol\":693:700  address */\n      0x00\n        /* \"@openzeppelin/contracts/utils/Context.sol\":719:729  msg.sender */\n      caller\n        /* \"@openzeppelin/contracts/utils/Context.sol\":712:729  return msg.sender */\n      swap1\n      pop\n        /* \"@openzeppelin/contracts/utils/Context.sol\":640:736  function _msgSender() internal view virtual returns (address) {... */\n      swap1\n      jump\t// out\n        /* \"@openzeppelin/contracts/access/Ownable.sol\":2270:2457  function _transferOwnership(address newOwner) internal virtual {... */\n    tag_235:\n        /* \"@openzeppelin/contracts/access/Ownable.sol\":2343:2359  address oldOwner */\n      0x00\n        /* \"@openzeppelin/contracts/access/Ownable.sol\":2362:2368  _owner */\n      0x00\n      0x00\n      swap1\n      sload\n      swap1\n      0x0100\n      exp\n      swap1\n      div\n      0xffffffffffffffffffffffffffffffffffffffff\n      and\n        /* \"@openzeppelin/contracts/access/Ownable.sol\":2343:2368  address oldOwner = _owner */\n      swap1\n      pop\n        /* \"@openzeppelin/contracts/access/Ownable.sol\":2387:2395  newOwner */\n      dup2\n        /* \"@openzeppelin/contracts/access/Ownable.sol\":2378:2384  _owner */\n      0x00\n      0x00\n        /* \"@openzeppelin/contracts/access/Ownable.sol\":2378:2395  _owner = newOwner */\n      0x0100\n      exp\n      dup2\n      sload\n      dup2\n      0xffffffffffffffffffffffffffffffffffffffff\n      mul\n      not\n      and\n      swap1\n      dup4\n      0xffffffffffffffffffffffffffffffffffffffff\n      and\n      mul\n      or\n      swap1\n      sstore\n      pop\n        /* \"@openzeppelin/contracts/access/Ownable.sol\":2441:2449  newOwner */\n      dup2\n        /* \"@openzeppelin/contracts/access/Ownable.sol\":2410:2450  OwnershipTransferred(oldOwner, newOwner) */\n      0xffffffffffffffffffffffffffffffffffffffff\n      and\n        /* \"@openzeppelin/contracts/access/Ownable.sol\":2431:2439  oldOwner */\n      dup2\n        /* \"@openzeppelin/contracts/access/Ownable.sol\":2410:2450  OwnershipTransferred(oldOwner, newOwner) */\n      0xffffffffffffffffffffffffffffffffffffffff\n      and\n      0x8be0079c531659141344cd1fd0a4f28419497f9722a3daafe3b4186f6b6457e0\n      mload(0x40)\n      mload(0x40)\n      dup1\n      swap2\n      sub\n      swap1\n      log3\n        /* \"@openzeppelin/contracts/access/Ownable.sol\":2333:2457  {... */\n      pop\n        /* \"@openzeppelin/contracts/access/Ownable.sol\":2270:2457  function _transferOwnership(address newOwner) internal virtual {... */\n      pop\n      jump\t// out\n        /* \"@openzeppelin/contracts/token/ERC20/utils/SafeERC20.sol\":912:1153  function safeTransferFrom(... */\n    tag_272:\n        /* \"@openzeppelin/contracts/token/ERC20/utils/SafeERC20.sol\":1050:1146  _callOptionalReturn(token, abi.encodeWithSelector(token.transferFrom.selector, from, to, value)) */\n      tag_350\n        /* \"@openzeppelin/contracts/token/ERC20/utils/SafeERC20.sol\":1070:1075  token */\n      dup5\n        /* \"@openzeppelin/contracts/token/ERC20/utils/SafeERC20.sol\":1100:1127  token.transferFrom.selector */\n      shl(0xe0, 0x23b872dd)\n        /* \"@openzeppelin/contracts/token/ERC20/utils/SafeERC20.sol\":1129:1133  from */\n      dup6\n        /* \"@openzeppelin/contracts/token/ERC20/utils/SafeERC20.sol\":1135:1137  to */\n      dup6\n        /* \"@openzeppelin/contracts/token/ERC20/utils/SafeERC20.sol\":1139:1144  value */\n      dup6\n        /* \"@openzeppelin/contracts/token/ERC20/utils/SafeERC20.sol\":1077:1145  abi.encodeWithSelector(token.transferFrom.selector, from, to, value) */\n      add(0x24, mload(0x40))\n      tag_351\n      swap4\n      swap3\n      swap2\n      swap1\n      tag_352\n      jump\t// in\n    tag_351:\n      mload(0x40)\n      0x20\n      dup2\n      dup4\n      sub\n      sub\n      dup2\n      mstore\n      swap1\n      0x40\n      mstore\n      swap1\n      not(0xffffffffffffffffffffffffffffffffffffffffffffffffffffffff)\n      and\n      0x20\n      dup3\n      add\n      dup1\n      mload\n      0xffffffffffffffffffffffffffffffffffffffffffffffffffffffff\n      dup4\n      dup2\n      dup4\n      and\n      or\n      dup4\n      mstore\n      pop\n      pop\n      pop\n      pop\n        /* \"@openzeppelin/contracts/token/ERC20/utils/SafeERC20.sol\":1050:1069  _callOptionalReturn */\n      tag_353\n        /* \"@openzeppelin/contracts/token/ERC20/utils/SafeERC20.sol\":1050:1146  _callOptionalReturn(token, abi.encodeWithSelector(token.transferFrom.selector, from, to, value)) */\n      jump\t// in\n    tag_350:\n        /* \"@openzeppelin/contracts/token/ERC20/utils/SafeERC20.sol\":912:1153  function safeTransferFrom(... */\n      pop\n      pop\n      pop\n      pop\n      jump\t// out\n        /* \"@openzeppelin/contracts/token/ERC20/utils/SafeERC20.sol\":701:906  function safeTransfer(... */\n    tag_274:\n        /* \"@openzeppelin/contracts/token/ERC20/utils/SafeERC20.sol\":813:899  _callOptionalReturn(token, abi.encodeWithSelector(token.transfer.selector, to, value)) */\n      tag_355\n        /* \"@openzeppelin/contracts/token/ERC20/utils/SafeERC20.sol\":833:838  token */\n      dup4\n        /* \"@openzeppelin/contracts/token/ERC20/utils/SafeERC20.sol\":863:886  token.transfer.selector */\n      shl(0xe0, 0xa9059cbb)\n        /* \"@openzeppelin/contracts/token/ERC20/utils/SafeERC20.sol\":888:890  to */\n      dup5\n        /* \"@openzeppelin/contracts/token/ERC20/utils/SafeERC20.sol\":892:897  value */\n      dup5\n        /* \"@openzeppelin/contracts/token/ERC20/utils/SafeERC20.sol\":840:898  abi.encodeWithSelector(token.transfer.selector, to, value) */\n      add(0x24, mload(0x40))\n      tag_356\n      swap3\n      swap2\n      swap1\n      tag_111\n      jump\t// in\n    tag_356:\n      mload(0x40)\n      0x20\n      dup2\n      dup4\n      sub\n      sub\n      dup2\n      mstore\n      swap1\n      0x40\n      mstore\n      swap1\n      not(0xffffffffffffffffffffffffffffffffffffffffffffffffffffffff)\n      and\n      0x20\n      dup3\n      add\n      dup1\n      mload\n      0xffffffffffffffffffffffffffffffffffffffffffffffffffffffff\n      dup4\n      dup2\n      dup4\n      and\n      or\n      dup4\n      mstore\n      pop\n      pop\n      pop\n      pop\n        /* \"@openzeppelin/contracts/token/ERC20/utils/SafeERC20.sol\":813:832  _callOptionalReturn */\n      tag_353\n        /* \"@openzeppelin/contracts/token/ERC20/utils/SafeERC20.sol\":813:899  _callOptionalReturn(token, abi.encodeWithSelector(token.transfer.selector, to, value)) */\n      jump\t// in\n    tag_355:\n        /* \"@openzeppelin/contracts/token/ERC20/utils/SafeERC20.sol\":701:906  function safeTransfer(... */\n      pop\n      pop\n      pop\n      jump\t// out\n        /* \"@openzeppelin/contracts/token/ERC20/utils/SafeERC20.sol\":3207:3913  function _callOptionalReturn(IERC20 token, bytes memory data) private {... */\n    tag_353:\n        /* \"@openzeppelin/contracts/token/ERC20/utils/SafeERC20.sol\":3626:3649  bytes memory returndata */\n      0x00\n        /* \"@openzeppelin/contracts/token/ERC20/utils/SafeERC20.sol\":3652:3721  address(token).functionCall(data, \"SafeERC20: low-level call failed\") */\n      tag_358\n        /* \"@openzeppelin/contracts/token/ERC20/utils/SafeERC20.sol\":3680:3684  data */\n      dup3\n        /* \"@openzeppelin/contracts/token/ERC20/utils/SafeERC20.sol\":3652:3721  address(token).functionCall(data, \"SafeERC20: low-level call failed\") */\n      mload(0x40)\n      dup1\n      0x40\n      add\n      0x40\n      mstore\n      dup1\n      0x20\n      dup2\n      mstore\n      0x20\n      add\n      0x5361666545524332303a206c6f772d6c6576656c2063616c6c206661696c6564\n      dup2\n      mstore\n      pop\n        /* \"@openzeppelin/contracts/token/ERC20/utils/SafeERC20.sol\":3660:3665  token */\n      dup6\n        /* \"@openzeppelin/contracts/token/ERC20/utils/SafeERC20.sol\":3652:3679  address(token).functionCall */\n      0xffffffffffffffffffffffffffffffffffffffff\n      and\n      tag_359\n      swap1\n        /* \"@openzeppelin/contracts/token/ERC20/utils/SafeERC20.sol\":3652:3721  address(token).functionCall(data, \"SafeERC20: low-level call failed\") */\n      swap3\n      swap2\n      swap1\n      0xffffffff\n      and\n      jump\t// in\n    tag_358:\n        /* \"@openzeppelin/contracts/token/ERC20/utils/SafeERC20.sol\":3626:3721  bytes memory returndata = address(token).functionCall(data, \"SafeERC20: low-level call failed\") */\n      swap1\n      pop\n        /* \"@openzeppelin/contracts/token/ERC20/utils/SafeERC20.sol\":3755:3756  0 */\n      0x00\n        /* \"@openzeppelin/contracts/token/ERC20/utils/SafeERC20.sol\":3735:3745  returndata */\n      dup2\n        /* \"@openzeppelin/contracts/token/ERC20/utils/SafeERC20.sol\":3735:3752  returndata.length */\n      mload\n        /* \"@openzeppelin/contracts/token/ERC20/utils/SafeERC20.sol\":3735:3756  returndata.length > 0 */\n      gt\n        /* \"@openzeppelin/contracts/token/ERC20/utils/SafeERC20.sol\":3731:3907  if (returndata.length > 0) {... */\n      iszero\n      tag_360\n      jumpi\n        /* \"@openzeppelin/contracts/token/ERC20/utils/SafeERC20.sol\":3830:3840  returndata */\n      dup1\n        /* \"@openzeppelin/contracts/token/ERC20/utils/SafeERC20.sol\":3819:3849  abi.decode(returndata, (bool)) */\n      dup1\n      0x20\n      add\n      swap1\n      mload\n      dup2\n      add\n      swap1\n      tag_361\n      swap2\n      swap1\n      tag_362\n      jump\t// in\n    tag_361:\n        /* \"@openzeppelin/contracts/token/ERC20/utils/SafeERC20.sol\":3811:3896  require(abi.decode(returndata, (bool)), \"SafeERC20: ERC20 operation did not succeed\") */\n      tag_363\n      jumpi\n      mload(0x40)\n      0x08c379a000000000000000000000000000000000000000000000000000000000\n      dup2\n      mstore\n      0x04\n      add\n      tag_364\n      swap1\n      tag_365\n      jump\t// in\n    tag_364:\n      mload(0x40)\n      dup1\n      swap2\n      sub\n      swap1\n      revert\n    tag_363:\n        /* \"@openzeppelin/contracts/token/ERC20/utils/SafeERC20.sol\":3731:3907  if (returndata.length > 0) {... */\n    tag_360:\n        /* \"@openzeppelin/contracts/token/ERC20/utils/SafeERC20.sol\":3277:3913  {... */\n      pop\n        /* \"@openzeppelin/contracts/token/ERC20/utils/SafeERC20.sol\":3207:3913  function _callOptionalReturn(IERC20 token, bytes memory data) private {... */\n      pop\n      pop\n      jump\t// out\n        /* \"@openzeppelin/contracts/utils/Address.sol\":3861:4084  function functionCall(... */\n    tag_359:\n        /* \"@openzeppelin/contracts/utils/Address.sol\":3994:4006  bytes memory */\n      0x60\n        /* \"@openzeppelin/contracts/utils/Address.sol\":4025:4077  functionCallWithValue(target, data, 0, errorMessage) */\n      tag_367\n        /* \"@openzeppelin/contracts/utils/Address.sol\":4047:4053  target */\n      dup5\n        /* \"@openzeppelin/contracts/utils/Address.sol\":4055:4059  data */\n      dup5\n        /* \"@openzeppelin/contracts/utils/Address.sol\":4061:4062  0 */\n      0x00\n        /* \"@openzeppelin/contracts/utils/Address.sol\":4064:4076  errorMessage */\n      dup6\n        /* \"@openzeppelin/contracts/utils/Address.sol\":4025:4046  functionCallWithValue */\n      tag_368\n        /* \"@openzeppelin/contracts/utils/Address.sol\":4025:4077  functionCallWithValue(target, data, 0, errorMessage) */\n      jump\t// in\n    tag_367:\n        /* \"@openzeppelin/contracts/utils/Address.sol\":4018:4077  return functionCallWithValue(target, data, 0, errorMessage) */\n      swap1\n      pop\n        /* \"@openzeppelin/contracts/utils/Address.sol\":3861:4084  function functionCall(... */\n      swap4\n      swap3\n      pop\n      pop\n      pop\n      jump\t// out\n        /* \"@openzeppelin/contracts/utils/Address.sol\":4948:5447  function functionCallWithValue(... */\n    tag_368:\n        /* \"@openzeppelin/contracts/utils/Address.sol\":5113:5125  bytes memory */\n      0x60\n        /* \"@openzeppelin/contracts/utils/Address.sol\":5170:5175  value */\n      dup3\n        /* \"@openzeppelin/contracts/utils/Address.sol\":5145:5166  address(this).balance */\n      selfbalance\n        /* \"@openzeppelin/contracts/utils/Address.sol\":5145:5175  address(this).balance >= value */\n      lt\n      iszero\n        /* \"@openzeppelin/contracts/utils/Address.sol\":5137:5218  require(address(this).balance >= value, \"Address: insufficient balance for call\") */\n      tag_370\n      jumpi\n      mload(0x40)\n      0x08c379a000000000000000000000000000000000000000000000000000000000\n      dup2\n      mstore\n      0x04\n      add\n      tag_371\n      swap1\n      tag_372\n      jump\t// in\n    tag_371:\n      mload(0x40)\n      dup1\n      swap2\n      sub\n      swap1\n      revert\n    tag_370:\n        /* \"@openzeppelin/contracts/utils/Address.sol\":5236:5254  isContract(target) */\n      tag_373\n        /* \"@openzeppelin/contracts/utils/Address.sol\":5247:5253  target */\n      dup6\n        /* \"@openzeppelin/contracts/utils/Address.sol\":5236:5246  isContract */\n      tag_374\n        /* \"@openzeppelin/contracts/utils/Address.sol\":5236:5254  isContract(target) */\n      jump\t// in\n    tag_373:\n        /* \"@openzeppelin/contracts/utils/Address.sol\":5228:5288  require(isContract(target), \"Address: call to non-contract\") */\n      tag_375\n      jumpi\n      mload(0x40)\n      0x08c379a000000000000000000000000000000000000000000000000000000000\n      dup2\n      mstore\n      0x04\n      add\n      tag_376\n      swap1\n      tag_377\n      jump\t// in\n    tag_376:\n      mload(0x40)\n      dup1\n      swap2\n      sub\n      swap1\n      revert\n    tag_375:\n        /* \"@openzeppelin/contracts/utils/Address.sol\":5300:5312  bool success */\n      0x00\n        /* \"@openzeppelin/contracts/utils/Address.sol\":5314:5337  bytes memory returndata */\n      0x00\n        /* \"@openzeppelin/contracts/utils/Address.sol\":5341:5347  target */\n      dup7\n        /* \"@openzeppelin/contracts/utils/Address.sol\":5341:5352  target.call */\n      0xffffffffffffffffffffffffffffffffffffffff\n      and\n        /* \"@openzeppelin/contracts/utils/Address.sol\":5360:5365  value */\n      dup6\n        /* \"@openzeppelin/contracts/utils/Address.sol\":5367:5371  data */\n      dup8\n        /* \"@openzeppelin/contracts/utils/Address.sol\":5341:5372  target.call{value: value}(data) */\n      mload(0x40)\n      tag_378\n      swap2\n      swap1\n      tag_113\n      jump\t// in\n    tag_378:\n      0x00\n      mload(0x40)\n      dup1\n      dup4\n      sub\n      dup2\n      dup6\n      dup8\n      gas\n      call\n      swap3\n      pop\n      pop\n      pop\n      returndatasize\n      dup1\n      0x00\n      dup2\n      eq\n      tag_381\n      jumpi\n      mload(0x40)\n      swap2\n      pop\n      and(add(returndatasize, 0x3f), not(0x1f))\n      dup3\n      add\n      0x40\n      mstore\n      returndatasize\n      dup3\n      mstore\n      returndatasize\n      0x00\n      0x20\n      dup5\n      add\n      returndatacopy\n      jump(tag_380)\n    tag_381:\n      0x60\n      swap2\n      pop\n    tag_380:\n      pop\n        /* \"@openzeppelin/contracts/utils/Address.sol\":5299:5372  (bool success, bytes memory returndata) = target.call{value: value}(data) */\n      swap2\n      pop\n      swap2\n      pop\n        /* \"@openzeppelin/contracts/utils/Address.sol\":5389:5440  verifyCallResult(success, returndata, errorMessage) */\n      tag_382\n        /* \"@openzeppelin/contracts/utils/Address.sol\":5406:5413  success */\n      dup3\n        /* \"@openzeppelin/contracts/utils/Address.sol\":5415:5425  returndata */\n      dup3\n        /* \"@openzeppelin/contracts/utils/Address.sol\":5427:5439  errorMessage */\n      dup7\n        /* \"@openzeppelin/contracts/utils/Address.sol\":5389:5405  verifyCallResult */\n      tag_383\n        /* \"@openzeppelin/contracts/utils/Address.sol\":5389:5440  verifyCallResult(success, returndata, errorMessage) */\n      jump\t// in\n    tag_382:\n        /* \"@openzeppelin/contracts/utils/Address.sol\":5382:5440  return verifyCallResult(success, returndata, errorMessage) */\n      swap3\n      pop\n      pop\n      pop\n        /* \"@openzeppelin/contracts/utils/Address.sol\":4948:5447  function functionCallWithValue(... */\n      swap5\n      swap4\n      pop\n      pop\n      pop\n      pop\n      jump\t// out\n        /* \"@openzeppelin/contracts/utils/Address.sol\":1175:1495  function isContract(address account) internal view returns (bool) {... */\n    tag_374:\n        /* \"@openzeppelin/contracts/utils/Address.sol\":1235:1239  bool */\n      0x00\n        /* \"@openzeppelin/contracts/utils/Address.sol\":1487:1488  0 */\n      0x00\n        /* \"@openzeppelin/contracts/utils/Address.sol\":1465:1472  account */\n      dup3\n        /* \"@openzeppelin/contracts/utils/Address.sol\":1465:1484  account.code.length */\n      0xffffffffffffffffffffffffffffffffffffffff\n      and\n      extcodesize\n        /* \"@openzeppelin/contracts/utils/Address.sol\":1465:1488  account.code.length > 0 */\n      gt\n        /* \"@openzeppelin/contracts/utils/Address.sol\":1458:1488  return account.code.length > 0 */\n      swap1\n      pop\n        /* \"@openzeppelin/contracts/utils/Address.sol\":1175:1495  function isContract(address account) internal view returns (bool) {... */\n      swap2\n      swap1\n      pop\n      jump\t// out\n        /* \"@openzeppelin/contracts/utils/Address.sol\":7561:8253  function verifyCallResult(... */\n    tag_383:\n        /* \"@openzeppelin/contracts/utils/Address.sol\":7707:7719  bytes memory */\n      0x60\n        /* \"@openzeppelin/contracts/utils/Address.sol\":7735:7742  success */\n      dup4\n        /* \"@openzeppelin/contracts/utils/Address.sol\":7731:8247  if (success) {... */\n      iszero\n      tag_386\n      jumpi\n        /* \"@openzeppelin/contracts/utils/Address.sol\":7765:7775  returndata */\n      dup3\n        /* \"@openzeppelin/contracts/utils/Address.sol\":7758:7775  return returndata */\n      swap1\n      pop\n      jump(tag_385)\n        /* \"@openzeppelin/contracts/utils/Address.sol\":7731:8247  if (success) {... */\n    tag_386:\n        /* \"@openzeppelin/contracts/utils/Address.sol\":7896:7897  0 */\n      0x00\n        /* \"@openzeppelin/contracts/utils/Address.sol\":7876:7886  returndata */\n      dup4\n        /* \"@openzeppelin/contracts/utils/Address.sol\":7876:7893  returndata.length */\n      mload\n        /* \"@openzeppelin/contracts/utils/Address.sol\":7876:7897  returndata.length > 0 */\n      gt\n        /* \"@openzeppelin/contracts/utils/Address.sol\":7872:8237  if (returndata.length > 0) {... */\n      iszero\n      tag_388\n      jumpi\n        /* \"@openzeppelin/contracts/utils/Address.sol\":8070:8080  returndata */\n      dup3\n        /* \"@openzeppelin/contracts/utils/Address.sol\":8064:8081  mload(returndata) */\n      mload\n        /* \"@openzeppelin/contracts/utils/Address.sol\":8130:8145  returndata_size */\n      dup1\n        /* \"@openzeppelin/contracts/utils/Address.sol\":8117:8127  returndata */\n      dup5\n        /* \"@openzeppelin/contracts/utils/Address.sol\":8113:8115  32 */\n      0x20\n        /* \"@openzeppelin/contracts/utils/Address.sol\":8109:8128  add(32, returndata) */\n      add\n        /* \"@openzeppelin/contracts/utils/Address.sol\":8102:8146  revert(add(32, returndata), returndata_size) */\n      revert\n        /* \"@openzeppelin/contracts/utils/Address.sol\":7872:8237  if (returndata.length > 0) {... */\n    tag_388:\n        /* \"@openzeppelin/contracts/utils/Address.sol\":8209:8221  errorMessage */\n      dup2\n        /* \"@openzeppelin/contracts/utils/Address.sol\":8202:8222  revert(errorMessage) */\n      mload(0x40)\n      0x08c379a000000000000000000000000000000000000000000000000000000000\n      dup2\n      mstore\n      0x04\n      add\n      tag_390\n      swap2\n      swap1\n      tag_391\n      jump\t// in\n    tag_390:\n      mload(0x40)\n      dup1\n      swap2\n      sub\n      swap1\n      revert\n        /* \"@openzeppelin/contracts/utils/Address.sol\":7561:8253  function verifyCallResult(... */\n    tag_385:\n      swap4\n      swap3\n      pop\n      pop\n      pop\n      jump\t// out\n    tag_169:\n      mload(0x40)\n      dup1\n      0xc0\n      add\n      0x40\n      mstore\n      dup1\n      0x00\n      dup2\n      mstore\n      0x20\n      add\n      0x00\n      dup2\n      mstore\n      0x20\n      add\n      0x00\n      dup2\n      mstore\n      0x20\n      add\n      0x00\n      dup2\n      mstore\n      0x20\n      add\n      0x00\n      dup2\n      mstore\n      0x20\n      add\n      0x00\n      dup2\n      mstore\n      pop\n      swap1\n      jump\t// out\n    tag_194:\n      mload(0x40)\n      dup1\n      0xa0\n      add\n      0x40\n      mstore\n      dup1\n      0x00\n      dup2\n      mstore\n      0x20\n      add\n      0x00\n      dup2\n      mstore\n      0x20\n      add\n      0x00\n      dup2\n      mstore\n      0x20\n      add\n      iszero(iszero(0x00))\n      dup2\n      mstore\n      0x20\n      add\n      0x00\n      dup2\n      mstore\n      pop\n      swap1\n      jump\t// out\n        /* \"#utility.yul\":7:176   */\n    tag_392:\n        /* \"#utility.yul\":91:102   */\n      0x00\n        /* \"#utility.yul\":125:131   */\n      dup3\n        /* \"#utility.yul\":120:123   */\n      dup3\n        /* \"#utility.yul\":113:132   */\n      mstore\n        /* \"#utility.yul\":165:169   */\n      0x20\n        /* \"#utility.yul\":160:163   */\n      dup3\n        /* \"#utility.yul\":156:170   */\n      add\n        /* \"#utility.yul\":141:170   */\n      swap1\n      pop\n        /* \"#utility.yul\":7:176   */\n      swap3\n      swap2\n      pop\n      pop\n      jump\t// out\n        /* \"#utility.yul\":182:409   */\n    tag_393:\n        /* \"#utility.yul\":322:356   */\n      0x53797374656d206f6e6c792061636365707473205745544820746f6b656e732c\n        /* \"#utility.yul\":318:319   */\n      0x00\n        /* \"#utility.yul\":310:316   */\n      dup3\n        /* \"#utility.yul\":306:320   */\n      add\n        /* \"#utility.yul\":299:357   */\n      mstore\n        /* \"#utility.yul\":391:401   */\n      0x206e6f7420455448000000000000000000000000000000000000000000000000\n        /* \"#utility.yul\":386:388   */\n      0x20\n        /* \"#utility.yul\":378:384   */\n      dup3\n        /* \"#utility.yul\":374:389   */\n      add\n        /* \"#utility.yul\":367:402   */\n      mstore\n        /* \"#utility.yul\":182:409   */\n      pop\n      jump\t// out\n        /* \"#utility.yul\":415:781   */\n    tag_394:\n        /* \"#utility.yul\":557:560   */\n      0x00\n        /* \"#utility.yul\":578:645   */\n      tag_505\n        /* \"#utility.yul\":642:644   */\n      0x28\n        /* \"#utility.yul\":637:640   */\n      dup4\n        /* \"#utility.yul\":578:645   */\n      tag_392\n      jump\t// in\n    tag_505:\n        /* \"#utility.yul\":571:645   */\n      swap2\n      pop\n        /* \"#utility.yul\":654:747   */\n      tag_506\n        /* \"#utility.yul\":743:746   */\n      dup3\n        /* \"#utility.yul\":654:747   */\n      tag_393\n      jump\t// in\n    tag_506:\n        /* \"#utility.yul\":772:774   */\n      0x40\n        /* \"#utility.yul\":767:770   */\n      dup3\n        /* \"#utility.yul\":763:775   */\n      add\n        /* \"#utility.yul\":756:775   */\n      swap1\n      pop\n        /* \"#utility.yul\":415:781   */\n      swap2\n      swap1\n      pop\n      jump\t// out\n        /* \"#utility.yul\":787:1206   */\n    tag_27:\n        /* \"#utility.yul\":953:957   */\n      0x00\n        /* \"#utility.yul\":991:993   */\n      0x20\n        /* \"#utility.yul\":980:989   */\n      dup3\n        /* \"#utility.yul\":976:994   */\n      add\n        /* \"#utility.yul\":968:994   */\n      swap1\n      pop\n        /* \"#utility.yul\":1040:1049   */\n      dup2\n        /* \"#utility.yul\":1034:1038   */\n      dup2\n        /* \"#utility.yul\":1030:1050   */\n      sub\n        /* \"#utility.yul\":1026:1027   */\n      0x00\n        /* \"#utility.yul\":1015:1024   */\n      dup4\n        /* \"#utility.yul\":1011:1028   */\n      add\n        /* \"#utility.yul\":1004:1051   */\n      mstore\n        /* \"#utility.yul\":1068:1199   */\n      tag_508\n        /* \"#utility.yul\":1194:1198   */\n      dup2\n        /* \"#utility.yul\":1068:1199   */\n      tag_394\n      jump\t// in\n    tag_508:\n        /* \"#utility.yul\":1060:1199   */\n      swap1\n      pop\n        /* \"#utility.yul\":787:1206   */\n      swap2\n      swap1\n      pop\n      jump\t// out\n        /* \"#utility.yul\":1212:1287   */\n    tag_395:\n        /* \"#utility.yul\":1245:1251   */\n      0x00\n        /* \"#utility.yul\":1278:1280   */\n      0x40\n        /* \"#utility.yul\":1272:1281   */\n      mload\n        /* \"#utility.yul\":1262:1281   */\n      swap1\n      pop\n        /* \"#utility.yul\":1212:1287   */\n      swap1\n      jump\t// out\n        /* \"#utility.yul\":1293:1410   */\n    tag_396:\n        /* \"#utility.yul\":1402:1403   */\n      0x00\n        /* \"#utility.yul\":1399:1400   */\n      0x00\n        /* \"#utility.yul\":1392:1404   */\n      revert\n        /* \"#utility.yul\":1539:1616   */\n    tag_398:\n        /* \"#utility.yul\":1576:1583   */\n      0x00\n        /* \"#utility.yul\":1605:1610   */\n      dup2\n        /* \"#utility.yul\":1594:1610   */\n      swap1\n      pop\n        /* \"#utility.yul\":1539:1616   */\n      swap2\n      swap1\n      pop\n      jump\t// out\n        /* \"#utility.yul\":1622:1744   */\n    tag_399:\n        /* \"#utility.yul\":1695:1719   */\n      tag_514\n        /* \"#utility.yul\":1713:1718   */\n      dup2\n        /* \"#utility.yul\":1695:1719   */\n      tag_398\n      jump\t// in\n    tag_514:\n        /* \"#utility.yul\":1688:1693   */\n      dup2\n        /* \"#utility.yul\":1685:1720   */\n      eq\n        /* \"#utility.yul\":1675:1738   */\n      tag_515\n      jumpi\n        /* \"#utility.yul\":1734:1735   */\n      0x00\n        /* \"#utility.yul\":1731:1732   */\n      0x00\n        /* \"#utility.yul\":1724:1736   */\n      revert\n        /* \"#utility.yul\":1675:1738   */\n    tag_515:\n        /* \"#utility.yul\":1622:1744   */\n      pop\n      jump\t// out\n        /* \"#utility.yul\":1750:1889   */\n    tag_400:\n        /* \"#utility.yul\":1796:1801   */\n      0x00\n        /* \"#utility.yul\":1834:1840   */\n      dup2\n        /* \"#utility.yul\":1821:1841   */\n      calldataload\n        /* \"#utility.yul\":1812:1841   */\n      swap1\n      pop\n        /* \"#utility.yul\":1850:1883   */\n      tag_517\n        /* \"#utility.yul\":1877:1882   */\n      dup2\n        /* \"#utility.yul\":1850:1883   */\n      tag_399\n      jump\t// in\n    tag_517:\n        /* \"#utility.yul\":1750:1889   */\n      swap3\n      swap2\n      pop\n      pop\n      jump\t// out\n        /* \"#utility.yul\":1895:2224   */\n    tag_31:\n        /* \"#utility.yul\":1954:1960   */\n      0x00\n        /* \"#utility.yul\":2003:2005   */\n      0x20\n        /* \"#utility.yul\":1991:2000   */\n      dup3\n        /* \"#utility.yul\":1982:1989   */\n      dup5\n        /* \"#utility.yul\":1978:2001   */\n      sub\n        /* \"#utility.yul\":1974:2006   */\n      slt\n        /* \"#utility.yul\":1971:2090   */\n      iszero\n      tag_519\n      jumpi\n        /* \"#utility.yul\":2009:2088   */\n      tag_520\n      tag_396\n      jump\t// in\n    tag_520:\n        /* \"#utility.yul\":1971:2090   */\n    tag_519:\n        /* \"#utility.yul\":2129:2130   */\n      0x00\n        /* \"#utility.yul\":2154:2207   */\n      tag_521\n        /* \"#utility.yul\":2199:2206   */\n      dup5\n        /* \"#utility.yul\":2190:2196   */\n      dup3\n        /* \"#utility.yul\":2179:2188   */\n      dup6\n        /* \"#utility.yul\":2175:2197   */\n      add\n        /* \"#utility.yul\":2154:2207   */\n      tag_400\n      jump\t// in\n    tag_521:\n        /* \"#utility.yul\":2144:2207   */\n      swap2\n      pop\n        /* \"#utility.yul\":2100:2217   */\n      pop\n        /* \"#utility.yul\":1895:2224   */\n      swap3\n      swap2\n      pop\n      pop\n      jump\t// out\n        /* \"#utility.yul\":2230:2356   */\n    tag_401:\n        /* \"#utility.yul\":2267:2274   */\n      0x00\n        /* \"#utility.yul\":2307:2349   */\n      0xffffffffffffffffffffffffffffffffffffffff\n        /* \"#utility.yul\":2300:2305   */\n      dup3\n        /* \"#utility.yul\":2296:2350   */\n      and\n        /* \"#utility.yul\":2285:2350   */\n      swap1\n      pop\n        /* \"#utility.yul\":2230:2356   */\n      swap2\n      swap1\n      pop\n      jump\t// out\n        /* \"#utility.yul\":2362:2458   */\n    tag_402:\n        /* \"#utility.yul\":2399:2406   */\n      0x00\n        /* \"#utility.yul\":2428:2452   */\n      tag_524\n        /* \"#utility.yul\":2446:2451   */\n      dup3\n        /* \"#utility.yul\":2428:2452   */\n      tag_401\n      jump\t// in\n    tag_524:\n        /* \"#utility.yul\":2417:2452   */\n      swap1\n      pop\n        /* \"#utility.yul\":2362:2458   */\n      swap2\n      swap1\n      pop\n      jump\t// out\n        /* \"#utility.yul\":2464:2586   */\n    tag_403:\n        /* \"#utility.yul\":2537:2561   */\n      tag_526\n        /* \"#utility.yul\":2555:2560   */\n      dup2\n        /* \"#utility.yul\":2537:2561   */\n      tag_402\n      jump\t// in\n    tag_526:\n        /* \"#utility.yul\":2530:2535   */\n      dup2\n        /* \"#utility.yul\":2527:2562   */\n      eq\n        /* \"#utility.yul\":2517:2580   */\n      tag_527\n      jumpi\n        /* \"#utility.yul\":2576:2577   */\n      0x00\n        /* \"#utility.yul\":2573:2574   */\n      0x00\n        /* \"#utility.yul\":2566:2578   */\n      revert\n        /* \"#utility.yul\":2517:2580   */\n    tag_527:\n        /* \"#utility.yul\":2464:2586   */\n      pop\n      jump\t// out\n        /* \"#utility.yul\":2592:2731   */\n    tag_404:\n        /* \"#utility.yul\":2638:2643   */\n      0x00\n        /* \"#utility.yul\":2676:2682   */\n      dup2\n        /* \"#utility.yul\":2663:2683   */\n      calldataload\n        /* \"#utility.yul\":2654:2683   */\n      swap1\n      pop\n        /* \"#utility.yul\":2692:2725   */\n      tag_529\n        /* \"#utility.yul\":2719:2724   */\n      dup2\n        /* \"#utility.yul\":2692:2725   */\n      tag_403\n      jump\t// in\n    tag_529:\n        /* \"#utility.yul\":2592:2731   */\n      swap3\n      swap2\n      pop\n      pop\n      jump\t// out\n        /* \"#utility.yul\":2737:3066   */\n    tag_36:\n        /* \"#utility.yul\":2796:2802   */\n      0x00\n        /* \"#utility.yul\":2845:2847   */\n      0x20\n        /* \"#utility.yul\":2833:2842   */\n      dup3\n        /* \"#utility.yul\":2824:2831   */\n      dup5\n        /* \"#utility.yul\":2820:2843   */\n      sub\n        /* \"#utility.yul\":2816:2848   */\n      slt\n        /* \"#utility.yul\":2813:2932   */\n      iszero\n      tag_531\n      jumpi\n        /* \"#utility.yul\":2851:2930   */\n      tag_532\n      tag_396\n      jump\t// in\n    tag_532:\n        /* \"#utility.yul\":2813:2932   */\n    tag_531:\n        /* \"#utility.yul\":2971:2972   */\n      0x00\n        /* \"#utility.yul\":2996:3049   */\n      tag_533\n        /* \"#utility.yul\":3041:3048   */\n      dup5\n        /* \"#utility.yul\":3032:3038   */\n      dup3\n        /* \"#utility.yul\":3021:3030   */\n      dup6\n        /* \"#utility.yul\":3017:3039   */\n      add\n        /* \"#utility.yul\":2996:3049   */\n      tag_404\n      jump\t// in\n    tag_533:\n        /* \"#utility.yul\":2986:3049   */\n      swap2\n      pop\n        /* \"#utility.yul\":2942:3059   */\n      pop\n        /* \"#utility.yul\":2737:3066   */\n      swap3\n      swap2\n      pop\n      pop\n      jump\t// out\n        /* \"#utility.yul\":3072:3180   */\n    tag_405:\n        /* \"#utility.yul\":3149:3173   */\n      tag_535\n        /* \"#utility.yul\":3167:3172   */\n      dup2\n        /* \"#utility.yul\":3149:3173   */\n      tag_398\n      jump\t// in\n    tag_535:\n        /* \"#utility.yul\":3144:3147   */\n      dup3\n        /* \"#utility.yul\":3137:3174   */\n      mstore\n        /* \"#utility.yul\":3072:3180   */\n      pop\n      pop\n      jump\t// out\n        /* \"#utility.yul\":3266:4543   */\n    tag_406:\n        /* \"#utility.yul\":3423:3427   */\n      0xc0\n        /* \"#utility.yul\":3418:3421   */\n      dup3\n        /* \"#utility.yul\":3414:3428   */\n      add\n        /* \"#utility.yul\":3520:3524   */\n      0x00\n        /* \"#utility.yul\":3513:3518   */\n      dup3\n        /* \"#utility.yul\":3509:3525   */\n      add\n        /* \"#utility.yul\":3503:3526   */\n      mload\n        /* \"#utility.yul\":3539:3602   */\n      tag_537\n        /* \"#utility.yul\":3596:3600   */\n      0x00\n        /* \"#utility.yul\":3591:3594   */\n      dup6\n        /* \"#utility.yul\":3587:3601   */\n      add\n        /* \"#utility.yul\":3573:3585   */\n      dup3\n        /* \"#utility.yul\":3539:3602   */\n      tag_405\n      jump\t// in\n    tag_537:\n        /* \"#utility.yul\":3438:3612   */\n      pop\n        /* \"#utility.yul\":3706:3710   */\n      0x20\n        /* \"#utility.yul\":3699:3704   */\n      dup3\n        /* \"#utility.yul\":3695:3711   */\n      add\n        /* \"#utility.yul\":3689:3712   */\n      mload\n        /* \"#utility.yul\":3725:3788   */\n      tag_538\n        /* \"#utility.yul\":3782:3786   */\n      0x20\n        /* \"#utility.yul\":3777:3780   */\n      dup6\n        /* \"#utility.yul\":3773:3787   */\n      add\n        /* \"#utility.yul\":3759:3771   */\n      dup3\n        /* \"#utility.yul\":3725:3788   */\n      tag_405\n      jump\t// in\n    tag_538:\n        /* \"#utility.yul\":3622:3798   */\n      pop\n        /* \"#utility.yul\":3889:3893   */\n      0x40\n        /* \"#utility.yul\":3882:3887   */\n      dup3\n        /* \"#utility.yul\":3878:3894   */\n      add\n        /* \"#utility.yul\":3872:3895   */\n      mload\n        /* \"#utility.yul\":3908:3971   */\n      tag_539\n        /* \"#utility.yul\":3965:3969   */\n      0x40\n        /* \"#utility.yul\":3960:3963   */\n      dup6\n        /* \"#utility.yul\":3956:3970   */\n      add\n        /* \"#utility.yul\":3942:3954   */\n      dup3\n        /* \"#utility.yul\":3908:3971   */\n      tag_405\n      jump\t// in\n    tag_539:\n        /* \"#utility.yul\":3808:3981   */\n      pop\n        /* \"#utility.yul\":4070:4074   */\n      0x60\n        /* \"#utility.yul\":4063:4068   */\n      dup3\n        /* \"#utility.yul\":4059:4075   */\n      add\n        /* \"#utility.yul\":4053:4076   */\n      mload\n        /* \"#utility.yul\":4089:4152   */\n      tag_540\n        /* \"#utility.yul\":4146:4150   */\n      0x60\n        /* \"#utility.yul\":4141:4144   */\n      dup6\n        /* \"#utility.yul\":4137:4151   */\n      add\n        /* \"#utility.yul\":4123:4135   */\n      dup3\n        /* \"#utility.yul\":4089:4152   */\n      tag_405\n      jump\t// in\n    tag_540:\n        /* \"#utility.yul\":3991:4162   */\n      pop\n        /* \"#utility.yul\":4257:4261   */\n      0x80\n        /* \"#utility.yul\":4250:4255   */\n      dup3\n        /* \"#utility.yul\":4246:4262   */\n      add\n        /* \"#utility.yul\":4240:4263   */\n      mload\n        /* \"#utility.yul\":4276:4339   */\n      tag_541\n        /* \"#utility.yul\":4333:4337   */\n      0x80\n        /* \"#utility.yul\":4328:4331   */\n      dup6\n        /* \"#utility.yul\":4324:4338   */\n      add\n        /* \"#utility.yul\":4310:4322   */\n      dup3\n        /* \"#utility.yul\":4276:4339   */\n      tag_405\n      jump\t// in\n    tag_541:\n        /* \"#utility.yul\":4172:4349   */\n      pop\n        /* \"#utility.yul\":4444:4448   */\n      0xa0\n        /* \"#utility.yul\":4437:4442   */\n      dup3\n        /* \"#utility.yul\":4433:4449   */\n      add\n        /* \"#utility.yul\":4427:4450   */\n      mload\n        /* \"#utility.yul\":4463:4526   */\n      tag_542\n        /* \"#utility.yul\":4520:4524   */\n      0xa0\n        /* \"#utility.yul\":4515:4518   */\n      dup6\n        /* \"#utility.yul\":4511:4525   */\n      add\n        /* \"#utility.yul\":4497:4509   */\n      dup3\n        /* \"#utility.yul\":4463:4526   */\n      tag_405\n      jump\t// in\n    tag_542:\n        /* \"#utility.yul\":4359:4536   */\n      pop\n        /* \"#utility.yul\":3392:4543   */\n      pop\n        /* \"#utility.yul\":3266:4543   */\n      pop\n      pop\n      jump\t// out\n        /* \"#utility.yul\":4549:4892   */\n    tag_49:\n        /* \"#utility.yul\":4702:4706   */\n      0x00\n        /* \"#utility.yul\":4740:4743   */\n      0xc0\n        /* \"#utility.yul\":4729:4738   */\n      dup3\n        /* \"#utility.yul\":4725:4744   */\n      add\n        /* \"#utility.yul\":4717:4744   */\n      swap1\n      pop\n        /* \"#utility.yul\":4754:4885   */\n      tag_544\n        /* \"#utility.yul\":4882:4883   */\n      0x00\n        /* \"#utility.yul\":4871:4880   */\n      dup4\n        /* \"#utility.yul\":4867:4884   */\n      add\n        /* \"#utility.yul\":4858:4864   */\n      dup5\n        /* \"#utility.yul\":4754:4885   */\n      tag_406\n      jump\t// in\n    tag_544:\n        /* \"#utility.yul\":4549:4892   */\n      swap3\n      swap2\n      pop\n      pop\n      jump\t// out\n        /* \"#utility.yul\":4898:4988   */\n    tag_407:\n        /* \"#utility.yul\":4932:4939   */\n      0x00\n        /* \"#utility.yul\":4975:4980   */\n      dup2\n        /* \"#utility.yul\":4968:4981   */\n      iszero\n        /* \"#utility.yul\":4961:4982   */\n      iszero\n        /* \"#utility.yul\":4950:4982   */\n      swap1\n      pop\n        /* \"#utility.yul\":4898:4988   */\n      swap2\n      swap1\n      pop\n      jump\t// out\n        /* \"#utility.yul\":4994:5093   */\n    tag_408:\n        /* \"#utility.yul\":5065:5086   */\n      tag_547\n        /* \"#utility.yul\":5080:5085   */\n      dup2\n        /* \"#utility.yul\":5065:5086   */\n      tag_407\n      jump\t// in\n    tag_547:\n        /* \"#utility.yul\":5060:5063   */\n      dup3\n        /* \"#utility.yul\":5053:5087   */\n      mstore\n        /* \"#utility.yul\":4994:5093   */\n      pop\n      pop\n      jump\t// out\n        /* \"#utility.yul\":5171:6238   */\n    tag_409:\n        /* \"#utility.yul\":5320:5324   */\n      0xa0\n        /* \"#utility.yul\":5315:5318   */\n      dup3\n        /* \"#utility.yul\":5311:5325   */\n      add\n        /* \"#utility.yul\":5416:5420   */\n      0x00\n        /* \"#utility.yul\":5409:5414   */\n      dup3\n        /* \"#utility.yul\":5405:5421   */\n      add\n        /* \"#utility.yul\":5399:5422   */\n      mload\n        /* \"#utility.yul\":5435:5498   */\n      tag_549\n        /* \"#utility.yul\":5492:5496   */\n      0x00\n        /* \"#utility.yul\":5487:5490   */\n      dup6\n        /* \"#utility.yul\":5483:5497   */\n      add\n        /* \"#utility.yul\":5469:5481   */\n      dup3\n        /* \"#utility.yul\":5435:5498   */\n      tag_405\n      jump\t// in\n    tag_549:\n        /* \"#utility.yul\":5335:5508   */\n      pop\n        /* \"#utility.yul\":5592:5596   */\n      0x20\n        /* \"#utility.yul\":5585:5590   */\n      dup3\n        /* \"#utility.yul\":5581:5597   */\n      add\n        /* \"#utility.yul\":5575:5598   */\n      mload\n        /* \"#utility.yul\":5611:5674   */\n      tag_550\n        /* \"#utility.yul\":5668:5672   */\n      0x20\n        /* \"#utility.yul\":5663:5666   */\n      dup6\n        /* \"#utility.yul\":5659:5673   */\n      add\n        /* \"#utility.yul\":5645:5657   */\n      dup3\n        /* \"#utility.yul\":5611:5674   */\n      tag_405\n      jump\t// in\n    tag_550:\n        /* \"#utility.yul\":5518:5684   */\n      pop\n        /* \"#utility.yul\":5778:5782   */\n      0x40\n        /* \"#utility.yul\":5771:5776   */\n      dup3\n        /* \"#utility.yul\":5767:5783   */\n      add\n        /* \"#utility.yul\":5761:5784   */\n      mload\n        /* \"#utility.yul\":5797:5860   */\n      tag_551\n        /* \"#utility.yul\":5854:5858   */\n      0x40\n        /* \"#utility.yul\":5849:5852   */\n      dup6\n        /* \"#utility.yul\":5845:5859   */\n      add\n        /* \"#utility.yul\":5831:5843   */\n      dup3\n        /* \"#utility.yul\":5797:5860   */\n      tag_405\n      jump\t// in\n    tag_551:\n        /* \"#utility.yul\":5694:5870   */\n      pop\n        /* \"#utility.yul\":5958:5962   */\n      0x60\n        /* \"#utility.yul\":5951:5956   */\n      dup3\n        /* \"#utility.yul\":5947:5963   */\n      add\n        /* \"#utility.yul\":5941:5964   */\n      mload\n        /* \"#utility.yul\":5977:6034   */\n      tag_552\n        /* \"#utility.yul\":6028:6032   */\n      0x60\n        /* \"#utility.yul\":6023:6026   */\n      dup6\n        /* \"#utility.yul\":6019:6033   */\n      add\n        /* \"#utility.yul\":6005:6017   */\n      dup3\n        /* \"#utility.yul\":5977:6034   */\n      tag_408\n      jump\t// in\n    tag_552:\n        /* \"#utility.yul\":5880:6044   */\n      pop\n        /* \"#utility.yul\":6139:6143   */\n      0x80\n        /* \"#utility.yul\":6132:6137   */\n      dup3\n        /* \"#utility.yul\":6128:6144   */\n      add\n        /* \"#utility.yul\":6122:6145   */\n      mload\n        /* \"#utility.yul\":6158:6221   */\n      tag_553\n        /* \"#utility.yul\":6215:6219   */\n      0x80\n        /* \"#utility.yul\":6210:6213   */\n      dup6\n        /* \"#utility.yul\":6206:6220   */\n      add\n        /* \"#utility.yul\":6192:6204   */\n      dup3\n        /* \"#utility.yul\":6158:6221   */\n      tag_405\n      jump\t// in\n    tag_553:\n        /* \"#utility.yul\":6054:6231   */\n      pop\n        /* \"#utility.yul\":5289:6238   */\n      pop\n        /* \"#utility.yul\":5171:6238   */\n      pop\n      pop\n      jump\t// out\n        /* \"#utility.yul\":6244:6571   */\n    tag_55:\n        /* \"#utility.yul\":6389:6393   */\n      0x00\n        /* \"#utility.yul\":6427:6430   */\n      0xa0\n        /* \"#utility.yul\":6416:6425   */\n      dup3\n        /* \"#utility.yul\":6412:6431   */\n      add\n        /* \"#utility.yul\":6404:6431   */\n      swap1\n      pop\n        /* \"#utility.yul\":6441:6564   */\n      tag_555\n        /* \"#utility.yul\":6561:6562   */\n      0x00\n        /* \"#utility.yul\":6550:6559   */\n      dup4\n        /* \"#utility.yul\":6546:6563   */\n      add\n        /* \"#utility.yul\":6537:6543   */\n      dup5\n        /* \"#utility.yul\":6441:6564   */\n      tag_409\n      jump\t// in\n    tag_555:\n        /* \"#utility.yul\":6244:6571   */\n      swap3\n      swap2\n      pop\n      pop\n      jump\t// out\n        /* \"#utility.yul\":6577:6695   */\n    tag_410:\n        /* \"#utility.yul\":6664:6688   */\n      tag_557\n        /* \"#utility.yul\":6682:6687   */\n      dup2\n        /* \"#utility.yul\":6664:6688   */\n      tag_402\n      jump\t// in\n    tag_557:\n        /* \"#utility.yul\":6659:6662   */\n      dup3\n        /* \"#utility.yul\":6652:6689   */\n      mstore\n        /* \"#utility.yul\":6577:6695   */\n      pop\n      pop\n      jump\t// out\n        /* \"#utility.yul\":6701:6923   */\n    tag_64:\n        /* \"#utility.yul\":6794:6798   */\n      0x00\n        /* \"#utility.yul\":6832:6834   */\n      0x20\n        /* \"#utility.yul\":6821:6830   */\n      dup3\n        /* \"#utility.yul\":6817:6835   */\n      add\n        /* \"#utility.yul\":6809:6835   */\n      swap1\n      pop\n        /* \"#utility.yul\":6845:6916   */\n      tag_559\n        /* \"#utility.yul\":6913:6914   */\n      0x00\n        /* \"#utility.yul\":6902:6911   */\n      dup4\n        /* \"#utility.yul\":6898:6915   */\n      add\n        /* \"#utility.yul\":6889:6895   */\n      dup5\n        /* \"#utility.yul\":6845:6916   */\n      tag_410\n      jump\t// in\n    tag_559:\n        /* \"#utility.yul\":6701:6923   */\n      swap3\n      swap2\n      pop\n      pop\n      jump\t// out\n        /* \"#utility.yul\":6929:7099   */\n    tag_411:\n        /* \"#utility.yul\":7069:7091   */\n      0x5661756c74206e6f7420636f6e66696775726564000000000000000000000000\n        /* \"#utility.yul\":7065:7066   */\n      0x00\n        /* \"#utility.yul\":7057:7063   */\n      dup3\n        /* \"#utility.yul\":7053:7067   */\n      add\n        /* \"#utility.yul\":7046:7092   */\n      mstore\n        /* \"#utility.yul\":6929:7099   */\n      pop\n      jump\t// out\n        /* \"#utility.yul\":7105:7471   */\n    tag_412:\n        /* \"#utility.yul\":7247:7250   */\n      0x00\n        /* \"#utility.yul\":7268:7335   */\n      tag_562\n        /* \"#utility.yul\":7332:7334   */\n      0x14\n        /* \"#utility.yul\":7327:7330   */\n      dup4\n        /* \"#utility.yul\":7268:7335   */\n      tag_392\n      jump\t// in\n    tag_562:\n        /* \"#utility.yul\":7261:7335   */\n      swap2\n      pop\n        /* \"#utility.yul\":7344:7437   */\n      tag_563\n        /* \"#utility.yul\":7433:7436   */\n      dup3\n        /* \"#utility.yul\":7344:7437   */\n      tag_411\n      jump\t// in\n    tag_563:\n        /* \"#utility.yul\":7462:7464   */\n      0x20\n        /* \"#utility.yul\":7457:7460   */\n      dup3\n        /* \"#utility.yul\":7453:7465   */\n      add\n        /* \"#utility.yul\":7446:7465   */\n      swap1\n      pop\n        /* \"#utility.yul\":7105:7471   */\n      swap2\n      swap1\n      pop\n      jump\t// out\n        /* \"#utility.yul\":7477:7896   */\n    tag_106:\n        /* \"#utility.yul\":7643:7647   */\n      0x00\n        /* \"#utility.yul\":7681:7683   */\n      0x20\n        /* \"#utility.yul\":7670:7679   */\n      dup3\n        /* \"#utility.yul\":7666:7684   */\n      add\n        /* \"#utility.yul\":7658:7684   */\n      swap1\n      pop\n        /* \"#utility.yul\":7730:7739   */\n      dup2\n        /* \"#utility.yul\":7724:7728   */\n      dup2\n        /* \"#utility.yul\":7720:7740   */\n      sub\n        /* \"#utility.yul\":7716:7717   */\n      0x00\n        /* \"#utility.yul\":7705:7714   */\n      dup4\n        /* \"#utility.yul\":7701:7718   */\n      add\n        /* \"#utility.yul\":7694:7741   */\n      mstore\n        /* \"#utility.yul\":7758:7889   */\n      tag_565\n        /* \"#utility.yul\":7884:7888   */\n      dup2\n        /* \"#utility.yul\":7758:7889   */\n      tag_412\n      jump\t// in\n    tag_565:\n        /* \"#utility.yul\":7750:7889   */\n      swap1\n      pop\n        /* \"#utility.yul\":7477:7896   */\n      swap2\n      swap1\n      pop\n      jump\t// out\n        /* \"#utility.yul\":7902:8077   */\n    tag_413:\n        /* \"#utility.yul\":8042:8069   */\n      0x5368617265546f6b656e206e6f7420636f6e6669677572656400000000000000\n        /* \"#utility.yul\":8038:8039   */\n      0x00\n        /* \"#utility.yul\":8030:8036   */\n      dup3\n        /* \"#utility.yul\":8026:8040   */\n      add\n        /* \"#utility.yul\":8019:8070   */\n      mstore\n        /* \"#utility.yul\":7902:8077   */\n      pop\n      jump\t// out\n        /* \"#utility.yul\":8083:8449   */\n    tag_414:\n        /* \"#utility.yul\":8225:8228   */\n      0x00\n        /* \"#utility.yul\":8246:8313   */\n      tag_568\n        /* \"#utility.yul\":8310:8312   */\n      0x19\n        /* \"#utility.yul\":8305:8308   */\n      dup4\n        /* \"#utility.yul\":8246:8313   */\n      tag_392\n      jump\t// in\n    tag_568:\n        /* \"#utility.yul\":8239:8313   */\n      swap2\n      pop\n        /* \"#utility.yul\":8322:8415   */\n      tag_569\n        /* \"#utility.yul\":8411:8414   */\n      dup3\n        /* \"#utility.yul\":8322:8415   */\n      tag_413\n      jump\t// in\n    tag_569:\n        /* \"#utility.yul\":8440:8442   */\n      0x20\n        /* \"#utility.yul\":8435:8438   */\n      dup3\n        /* \"#utility.yul\":8431:8443   */\n      add\n        /* \"#utility.yul\":8424:8443   */\n      swap1\n      pop\n        /* \"#utility.yul\":8083:8449   */\n      swap2\n      swap1\n      pop\n      jump\t// out\n        /* \"#utility.yul\":8455:8874   */\n    tag_109:\n        /* \"#utility.yul\":8621:8625   */\n      0x00\n        /* \"#utility.yul\":8659:8661   */\n      0x20\n        /* \"#utility.yul\":8648:8657   */\n      dup3\n        /* \"#utility.yul\":8644:8662   */\n      add\n        /* \"#utility.yul\":8636:8662   */\n      swap1\n      pop\n        /* \"#utility.yul\":8708:8717   */\n      dup2\n        /* \"#utility.yul\":8702:8706   */\n      dup2\n        /* \"#utility.yul\":8698:8718   */\n      sub\n        /* \"#utility.yul\":8694:8695   */\n      0x00\n        /* \"#utility.yul\":8683:8692   */\n      dup4\n        /* \"#utility.yul\":8679:8696   */\n      add\n        /* \"#utility.yul\":8672:8719   */\n      mstore\n        /* \"#utility.yul\":8736:8867   */\n      tag_571\n        /* \"#utility.yul\":8862:8866   */\n      dup2\n        /* \"#utility.yul\":8736:8867   */\n      tag_414\n      jump\t// in\n    tag_571:\n        /* \"#utility.yul\":8728:8867   */\n      swap1\n      pop\n        /* \"#utility.yul\":8455:8874   */\n      swap2\n      swap1\n      pop\n      jump\t// out\n        /* \"#utility.yul\":8880:8998   */\n    tag_415:\n        /* \"#utility.yul\":8967:8991   */\n      tag_573\n        /* \"#utility.yul\":8985:8990   */\n      dup2\n        /* \"#utility.yul\":8967:8991   */\n      tag_398\n      jump\t// in\n    tag_573:\n        /* \"#utility.yul\":8962:8965   */\n      dup3\n        /* \"#utility.yul\":8955:8992   */\n      mstore\n        /* \"#utility.yul\":8880:8998   */\n      pop\n      pop\n      jump\t// out\n        /* \"#utility.yul\":9004:9336   */\n    tag_111:\n        /* \"#utility.yul\":9125:9129   */\n      0x00\n        /* \"#utility.yul\":9163:9165   */\n      0x40\n        /* \"#utility.yul\":9152:9161   */\n      dup3\n        /* \"#utility.yul\":9148:9166   */\n      add\n        /* \"#utility.yul\":9140:9166   */\n      swap1\n      pop\n        /* \"#utility.yul\":9176:9247   */\n      tag_575\n        /* \"#utility.yul\":9244:9245   */\n      0x00\n        /* \"#utility.yul\":9233:9242   */\n      dup4\n        /* \"#utility.yul\":9229:9246   */\n      add\n        /* \"#utility.yul\":9220:9226   */\n      dup6\n        /* \"#utility.yul\":9176:9247   */\n      tag_410\n      jump\t// in\n    tag_575:\n        /* \"#utility.yul\":9257:9329   */\n      tag_576\n        /* \"#utility.yul\":9325:9327   */\n      0x20\n        /* \"#utility.yul\":9314:9323   */\n      dup4\n        /* \"#utility.yul\":9310:9328   */\n      add\n        /* \"#utility.yul\":9301:9307   */\n      dup5\n        /* \"#utility.yul\":9257:9329   */\n      tag_415\n      jump\t// in\n    tag_576:\n        /* \"#utility.yul\":9004:9336   */\n      swap4\n      swap3\n      pop\n      pop\n      pop\n      jump\t// out\n        /* \"#utility.yul\":9342:9440   */\n    tag_416:\n        /* \"#utility.yul\":9393:9399   */\n      0x00\n        /* \"#utility.yul\":9427:9432   */\n      dup2\n        /* \"#utility.yul\":9421:9433   */\n      mload\n        /* \"#utility.yul\":9411:9433   */\n      swap1\n      pop\n        /* \"#utility.yul\":9342:9440   */\n      swap2\n      swap1\n      pop\n      jump\t// out\n        /* \"#utility.yul\":9446:9593   */\n    tag_417:\n        /* \"#utility.yul\":9547:9558   */\n      0x00\n        /* \"#utility.yul\":9584:9587   */\n      dup2\n        /* \"#utility.yul\":9569:9587   */\n      swap1\n      pop\n        /* \"#utility.yul\":9446:9593   */\n      swap3\n      swap2\n      pop\n      pop\n      jump\t// out\n        /* \"#utility.yul\":9599:9738   */\n    tag_418:\n        /* \"#utility.yul\":9688:9694   */\n      dup3\n        /* \"#utility.yul\":9683:9686   */\n      dup2\n        /* \"#utility.yul\":9678:9681   */\n      dup4\n        /* \"#utility.yul\":9672:9695   */\n      mcopy\n        /* \"#utility.yul\":9729:9730   */\n      0x00\n        /* \"#utility.yul\":9720:9726   */\n      dup4\n        /* \"#utility.yul\":9715:9718   */\n      dup4\n        /* \"#utility.yul\":9711:9727   */\n      add\n        /* \"#utility.yul\":9704:9731   */\n      mstore\n        /* \"#utility.yul\":9599:9738   */\n      pop\n      pop\n      pop\n      jump\t// out\n        /* \"#utility.yul\":9744:10130   */\n    tag_419:\n        /* \"#utility.yul\":9848:9851   */\n      0x00\n        /* \"#utility.yul\":9876:9914   */\n      tag_581\n        /* \"#utility.yul\":9908:9913   */\n      dup3\n        /* \"#utility.yul\":9876:9914   */\n      tag_416\n      jump\t// in\n    tag_581:\n        /* \"#utility.yul\":9930:10018   */\n      tag_582\n        /* \"#utility.yul\":10011:10017   */\n      dup2\n        /* \"#utility.yul\":10006:10009   */\n      dup6\n        /* \"#utility.yul\":9930:10018   */\n      tag_417\n      jump\t// in\n    tag_582:\n        /* \"#utility.yul\":9923:10018   */\n      swap4\n      pop\n        /* \"#utility.yul\":10027:10092   */\n      tag_583\n        /* \"#utility.yul\":10085:10091   */\n      dup2\n        /* \"#utility.yul\":10080:10083   */\n      dup6\n        /* \"#utility.yul\":10073:10077   */\n      0x20\n        /* \"#utility.yul\":10066:10071   */\n      dup7\n        /* \"#utility.yul\":10062:10078   */\n      add\n        /* \"#utility.yul\":10027:10092   */\n      tag_418\n      jump\t// in\n    tag_583:\n        /* \"#utility.yul\":10117:10123   */\n      dup1\n        /* \"#utility.yul\":10112:10115   */\n      dup5\n        /* \"#utility.yul\":10108:10124   */\n      add\n        /* \"#utility.yul\":10101:10124   */\n      swap2\n      pop\n        /* \"#utility.yul\":9852:10130   */\n      pop\n        /* \"#utility.yul\":9744:10130   */\n      swap3\n      swap2\n      pop\n      pop\n      jump\t// out\n        /* \"#utility.yul\":10136:10407   */\n    tag_113:\n        /* \"#utility.yul\":10266:10269   */\n      0x00\n        /* \"#utility.yul\":10288:10381   */\n      tag_585\n        /* \"#utility.yul\":10377:10380   */\n      dup3\n        /* \"#utility.yul\":10368:10374   */\n      dup5\n        /* \"#utility.yul\":10288:10381   */\n      tag_419\n      jump\t// in\n    tag_585:\n        /* \"#utility.yul\":10281:10381   */\n      swap2\n      pop\n        /* \"#utility.yul\":10398:10401   */\n      dup2\n        /* \"#utility.yul\":10391:10401   */\n      swap1\n      pop\n        /* \"#utility.yul\":10136:10407   */\n      swap3\n      swap2\n      pop\n      pop\n      jump\t// out\n        /* \"#utility.yul\":10413:10589   */\n    tag_420:\n        /* \"#utility.yul\":10553:10581   */\n      0x4661696c656420746f20676574206465706f73697420696e666f000000000000\n        /* \"#utility.yul\":10549:10550   */\n      0x00\n        /* \"#utility.yul\":10541:10547   */\n      dup3\n        /* \"#utility.yul\":10537:10551   */\n      add\n        /* \"#utility.yul\":10530:10582   */\n      mstore\n        /* \"#utility.yul\":10413:10589   */\n      pop\n      jump\t// out\n        /* \"#utility.yul\":10595:10961   */\n    tag_421:\n        /* \"#utility.yul\":10737:10740   */\n      0x00\n        /* \"#utility.yul\":10758:10825   */\n      tag_588\n        /* \"#utility.yul\":10822:10824   */\n      0x1a\n        /* \"#utility.yul\":10817:10820   */\n      dup4\n        /* \"#utility.yul\":10758:10825   */\n      tag_392\n      jump\t// in\n    tag_588:\n        /* \"#utility.yul\":10751:10825   */\n      swap2\n      pop\n        /* \"#utility.yul\":10834:10927   */\n      tag_589\n        /* \"#utility.yul\":10923:10926   */\n      dup3\n        /* \"#utility.yul\":10834:10927   */\n      tag_420\n      jump\t// in\n    tag_589:\n        /* \"#utility.yul\":10952:10954   */\n      0x20\n        /* \"#utility.yul\":10947:10950   */\n      dup3\n        /* \"#utility.yul\":10943:10955   */\n      add\n        /* \"#utility.yul\":10936:10955   */\n      swap1\n      pop\n        /* \"#utility.yul\":10595:10961   */\n      swap2\n      swap1\n      pop\n      jump\t// out\n        /* \"#utility.yul\":10967:11386   */\n    tag_119:\n        /* \"#utility.yul\":11133:11137   */\n      0x00\n        /* \"#utility.yul\":11171:11173   */\n      0x20\n        /* \"#utility.yul\":11160:11169   */\n      dup3\n        /* \"#utility.yul\":11156:11174   */\n      add\n        /* \"#utility.yul\":11148:11174   */\n      swap1\n      pop\n        /* \"#utility.yul\":11220:11229   */\n      dup2\n        /* \"#utility.yul\":11214:11218   */\n      dup2\n        /* \"#utility.yul\":11210:11230   */\n      sub\n        /* \"#utility.yul\":11206:11207   */\n      0x00\n        /* \"#utility.yul\":11195:11204   */\n      dup4\n        /* \"#utility.yul\":11191:11208   */\n      add\n        /* \"#utility.yul\":11184:11231   */\n      mstore\n        /* \"#utility.yul\":11248:11379   */\n      tag_591\n        /* \"#utility.yul\":11374:11378   */\n      dup2\n        /* \"#utility.yul\":11248:11379   */\n      tag_421\n      jump\t// in\n    tag_591:\n        /* \"#utility.yul\":11240:11379   */\n      swap1\n      pop\n        /* \"#utility.yul\":10967:11386   */\n      swap2\n      swap1\n      pop\n      jump\t// out\n        /* \"#utility.yul\":11392:11509   */\n    tag_422:\n        /* \"#utility.yul\":11501:11502   */\n      0x00\n        /* \"#utility.yul\":11498:11499   */\n      0x00\n        /* \"#utility.yul\":11491:11503   */\n      revert\n        /* \"#utility.yul\":11515:11617   */\n    tag_423:\n        /* \"#utility.yul\":11556:11562   */\n      0x00\n        /* \"#utility.yul\":11607:11609   */\n      0x1f\n        /* \"#utility.yul\":11603:11610   */\n      not\n        /* \"#utility.yul\":11598:11600   */\n      0x1f\n        /* \"#utility.yul\":11591:11596   */\n      dup4\n        /* \"#utility.yul\":11587:11601   */\n      add\n        /* \"#utility.yul\":11583:11611   */\n      and\n        /* \"#utility.yul\":11573:11611   */\n      swap1\n      pop\n        /* \"#utility.yul\":11515:11617   */\n      swap2\n      swap1\n      pop\n      jump\t// out\n        /* \"#utility.yul\":11623:11803   */\n    tag_424:\n        /* \"#utility.yul\":11671:11748   */\n      0x4e487b7100000000000000000000000000000000000000000000000000000000\n        /* \"#utility.yul\":11668:11669   */\n      0x00\n        /* \"#utility.yul\":11661:11749   */\n      mstore\n        /* \"#utility.yul\":11768:11772   */\n      0x41\n        /* \"#utility.yul\":11765:11766   */\n      0x04\n        /* \"#utility.yul\":11758:11773   */\n      mstore\n        /* \"#utility.yul\":11792:11796   */\n      0x24\n        /* \"#utility.yul\":11789:11790   */\n      0x00\n        /* \"#utility.yul\":11782:11797   */\n      revert\n        /* \"#utility.yul\":11809:12090   */\n    tag_425:\n        /* \"#utility.yul\":11892:11919   */\n      tag_596\n        /* \"#utility.yul\":11914:11918   */\n      dup3\n        /* \"#utility.yul\":11892:11919   */\n      tag_423\n      jump\t// in\n    tag_596:\n        /* \"#utility.yul\":11884:11890   */\n      dup2\n        /* \"#utility.yul\":11880:11920   */\n      add\n        /* \"#utility.yul\":12022:12028   */\n      dup2\n        /* \"#utility.yul\":12010:12020   */\n      dup2\n        /* \"#utility.yul\":12007:12029   */\n      lt\n        /* \"#utility.yul\":11986:12004   */\n      0xffffffffffffffff\n        /* \"#utility.yul\":11974:11984   */\n      dup3\n        /* \"#utility.yul\":11971:12005   */\n      gt\n        /* \"#utility.yul\":11968:12030   */\n      or\n        /* \"#utility.yul\":11965:12053   */\n      iszero\n      tag_597\n      jumpi\n        /* \"#utility.yul\":12033:12051   */\n      tag_598\n      tag_424\n      jump\t// in\n    tag_598:\n        /* \"#utility.yul\":11965:12053   */\n    tag_597:\n        /* \"#utility.yul\":12073:12083   */\n      dup1\n        /* \"#utility.yul\":12069:12071   */\n      0x40\n        /* \"#utility.yul\":12062:12084   */\n      mstore\n        /* \"#utility.yul\":11852:12090   */\n      pop\n        /* \"#utility.yul\":11809:12090   */\n      pop\n      pop\n      jump\t// out\n        /* \"#utility.yul\":12096:12225   */\n    tag_426:\n        /* \"#utility.yul\":12130:12136   */\n      0x00\n        /* \"#utility.yul\":12157:12177   */\n      tag_600\n      tag_395\n      jump\t// in\n    tag_600:\n        /* \"#utility.yul\":12147:12177   */\n      swap1\n      pop\n        /* \"#utility.yul\":12186:12219   */\n      tag_601\n        /* \"#utility.yul\":12214:12218   */\n      dup3\n        /* \"#utility.yul\":12206:12212   */\n      dup3\n        /* \"#utility.yul\":12186:12219   */\n      tag_425\n      jump\t// in\n    tag_601:\n        /* \"#utility.yul\":12096:12225   */\n      swap2\n      swap1\n      pop\n      jump\t// out\n        /* \"#utility.yul\":12354:12472   */\n    tag_428:\n        /* \"#utility.yul\":12391:12398   */\n      0x00\n        /* \"#utility.yul\":12431:12465   */\n      0xffffffffffffffffffffffffffffffff\n        /* \"#utility.yul\":12424:12429   */\n      dup3\n        /* \"#utility.yul\":12420:12466   */\n      and\n        /* \"#utility.yul\":12409:12466   */\n      swap1\n      pop\n        /* \"#utility.yul\":12354:12472   */\n      swap2\n      swap1\n      pop\n      jump\t// out\n        /* \"#utility.yul\":12478:12600   */\n    tag_429:\n        /* \"#utility.yul\":12551:12575   */\n      tag_605\n        /* \"#utility.yul\":12569:12574   */\n      dup2\n        /* \"#utility.yul\":12551:12575   */\n      tag_428\n      jump\t// in\n    tag_605:\n        /* \"#utility.yul\":12544:12549   */\n      dup2\n        /* \"#utility.yul\":12541:12576   */\n      eq\n        /* \"#utility.yul\":12531:12594   */\n      tag_606\n      jumpi\n        /* \"#utility.yul\":12590:12591   */\n      0x00\n        /* \"#utility.yul\":12587:12588   */\n      0x00\n        /* \"#utility.yul\":12580:12592   */\n      revert\n        /* \"#utility.yul\":12531:12594   */\n    tag_606:\n        /* \"#utility.yul\":12478:12600   */\n      pop\n      jump\t// out\n        /* \"#utility.yul\":12606:12749   */\n    tag_430:\n        /* \"#utility.yul\":12663:12668   */\n      0x00\n        /* \"#utility.yul\":12694:12700   */\n      dup2\n        /* \"#utility.yul\":12688:12701   */\n      mload\n        /* \"#utility.yul\":12679:12701   */\n      swap1\n      pop\n        /* \"#utility.yul\":12710:12743   */\n      tag_608\n        /* \"#utility.yul\":12737:12742   */\n      dup2\n        /* \"#utility.yul\":12710:12743   */\n      tag_429\n      jump\t// in\n    tag_608:\n        /* \"#utility.yul\":12606:12749   */\n      swap3\n      swap2\n      pop\n      pop\n      jump\t// out\n        /* \"#utility.yul\":12755:12848   */\n    tag_431:\n        /* \"#utility.yul\":12791:12798   */\n      0x00\n        /* \"#utility.yul\":12831:12841   */\n      0xffffffff\n        /* \"#utility.yul\":12824:12829   */\n      dup3\n        /* \"#utility.yul\":12820:12842   */\n      and\n        /* \"#utility.yul\":12809:12842   */\n      swap1\n      pop\n        /* \"#utility.yul\":12755:12848   */\n      swap2\n      swap1\n      pop\n      jump\t// out\n        /* \"#utility.yul\":12854:12974   */\n    tag_432:\n        /* \"#utility.yul\":12926:12949   */\n      tag_611\n        /* \"#utility.yul\":12943:12948   */\n      dup2\n        /* \"#utility.yul\":12926:12949   */\n      tag_431\n      jump\t// in\n    tag_611:\n        /* \"#utility.yul\":12919:12924   */\n      dup2\n        /* \"#utility.yul\":12916:12950   */\n      eq\n        /* \"#utility.yul\":12906:12968   */\n      tag_612\n      jumpi\n        /* \"#utility.yul\":12964:12965   */\n      0x00\n        /* \"#utility.yul\":12961:12962   */\n      0x00\n        /* \"#utility.yul\":12954:12966   */\n      revert\n        /* \"#utility.yul\":12906:12968   */\n    tag_612:\n        /* \"#utility.yul\":12854:12974   */\n      pop\n      jump\t// out\n        /* \"#utility.yul\":12980:13121   */\n    tag_433:\n        /* \"#utility.yul\":13036:13041   */\n      0x00\n        /* \"#utility.yul\":13067:13073   */\n      dup2\n        /* \"#utility.yul\":13061:13074   */\n      mload\n        /* \"#utility.yul\":13052:13074   */\n      swap1\n      pop\n        /* \"#utility.yul\":13083:13115   */\n      tag_614\n        /* \"#utility.yul\":13109:13114   */\n      dup2\n        /* \"#utility.yul\":13083:13115   */\n      tag_432\n      jump\t// in\n    tag_614:\n        /* \"#utility.yul\":12980:13121   */\n      swap3\n      swap2\n      pop\n      pop\n      jump\t// out\n        /* \"#utility.yul\":13127:13236   */\n    tag_434:\n        /* \"#utility.yul\":13163:13170   */\n      0x00\n        /* \"#utility.yul\":13203:13229   */\n      0xffffffffffffffffffffffff\n        /* \"#utility.yul\":13196:13201   */\n      dup3\n        /* \"#utility.yul\":13192:13230   */\n      and\n        /* \"#utility.yul\":13181:13230   */\n      swap1\n      pop\n        /* \"#utility.yul\":13127:13236   */\n      swap2\n      swap1\n      pop\n      jump\t// out\n        /* \"#utility.yul\":13242:13362   */\n    tag_435:\n        /* \"#utility.yul\":13314:13337   */\n      tag_617\n        /* \"#utility.yul\":13331:13336   */\n      dup2\n        /* \"#utility.yul\":13314:13337   */\n      tag_434\n      jump\t// in\n    tag_617:\n        /* \"#utility.yul\":13307:13312   */\n      dup2\n        /* \"#utility.yul\":13304:13338   */\n      eq\n        /* \"#utility.yul\":13294:13356   */\n      tag_618\n      jumpi\n        /* \"#utility.yul\":13352:13353   */\n      0x00\n        /* \"#utility.yul\":13349:13350   */\n      0x00\n        /* \"#utility.yul\":13342:13354   */\n      revert\n        /* \"#utility.yul\":13294:13356   */\n    tag_618:\n        /* \"#utility.yul\":13242:13362   */\n      pop\n      jump\t// out\n        /* \"#utility.yul\":13368:13509   */\n    tag_436:\n        /* \"#utility.yul\":13424:13429   */\n      0x00\n        /* \"#utility.yul\":13455:13461   */\n      dup2\n        /* \"#utility.yul\":13449:13462   */\n      mload\n        /* \"#utility.yul\":13440:13462   */\n      swap1\n      pop\n        /* \"#utility.yul\":13471:13503   */\n      tag_620\n        /* \"#utility.yul\":13497:13502   */\n      dup2\n        /* \"#utility.yul\":13471:13503   */\n      tag_435\n      jump\t// in\n    tag_620:\n        /* \"#utility.yul\":13368:13509   */\n      swap3\n      swap2\n      pop\n      pop\n      jump\t// out\n        /* \"#utility.yul\":13544:14330   */\n    tag_437:\n        /* \"#utility.yul\":13629:13634   */\n      0x00\n        /* \"#utility.yul\":13673:13677   */\n      0x60\n        /* \"#utility.yul\":13661:13670   */\n      dup3\n        /* \"#utility.yul\":13656:13659   */\n      dup5\n        /* \"#utility.yul\":13652:13671   */\n      sub\n        /* \"#utility.yul\":13648:13678   */\n      slt\n        /* \"#utility.yul\":13645:13762   */\n      iszero\n      tag_622\n      jumpi\n        /* \"#utility.yul\":13681:13760   */\n      tag_623\n      tag_422\n      jump\t// in\n    tag_623:\n        /* \"#utility.yul\":13645:13762   */\n    tag_622:\n        /* \"#utility.yul\":13780:13801   */\n      tag_624\n        /* \"#utility.yul\":13796:13800   */\n      0x60\n        /* \"#utility.yul\":13780:13801   */\n      tag_426\n      jump\t// in\n    tag_624:\n        /* \"#utility.yul\":13771:13801   */\n      swap1\n      pop\n        /* \"#utility.yul\":13862:13863   */\n      0x00\n        /* \"#utility.yul\":13902:13962   */\n      tag_625\n        /* \"#utility.yul\":13958:13961   */\n      dup5\n        /* \"#utility.yul\":13949:13955   */\n      dup3\n        /* \"#utility.yul\":13938:13947   */\n      dup6\n        /* \"#utility.yul\":13934:13956   */\n      add\n        /* \"#utility.yul\":13902:13962   */\n      tag_430\n      jump\t// in\n    tag_625:\n        /* \"#utility.yul\":13895:13899   */\n      0x00\n        /* \"#utility.yul\":13888:13893   */\n      dup4\n        /* \"#utility.yul\":13884:13900   */\n      add\n        /* \"#utility.yul\":13877:13963   */\n      mstore\n        /* \"#utility.yul\":13811:13974   */\n      pop\n        /* \"#utility.yul\":14038:14040   */\n      0x20\n        /* \"#utility.yul\":14079:14138   */\n      tag_626\n        /* \"#utility.yul\":14134:14137   */\n      dup5\n        /* \"#utility.yul\":14125:14131   */\n      dup3\n        /* \"#utility.yul\":14114:14123   */\n      dup6\n        /* \"#utility.yul\":14110:14132   */\n      add\n        /* \"#utility.yul\":14079:14138   */\n      tag_433\n      jump\t// in\n    tag_626:\n        /* \"#utility.yul\":14072:14076   */\n      0x20\n        /* \"#utility.yul\":14065:14070   */\n      dup4\n        /* \"#utility.yul\":14061:14077   */\n      add\n        /* \"#utility.yul\":14054:14139   */\n      mstore\n        /* \"#utility.yul\":13984:14150   */\n      pop\n        /* \"#utility.yul\":14211:14213   */\n      0x40\n        /* \"#utility.yul\":14252:14311   */\n      tag_627\n        /* \"#utility.yul\":14307:14310   */\n      dup5\n        /* \"#utility.yul\":14298:14304   */\n      dup3\n        /* \"#utility.yul\":14287:14296   */\n      dup6\n        /* \"#utility.yul\":14283:14305   */\n      add\n        /* \"#utility.yul\":14252:14311   */\n      tag_436\n      jump\t// in\n    tag_627:\n        /* \"#utility.yul\":14245:14249   */\n      0x40\n        /* \"#utility.yul\":14238:14243   */\n      dup4\n        /* \"#utility.yul\":14234:14250   */\n      add\n        /* \"#utility.yul\":14227:14312   */\n      mstore\n        /* \"#utility.yul\":14160:14323   */\n      pop\n        /* \"#utility.yul\":13544:14330   */\n      swap3\n      swap2\n      pop\n      pop\n      jump\t// out\n        /* \"#utility.yul\":14336:14737   */\n    tag_121:\n        /* \"#utility.yul\":14431:14437   */\n      0x00\n        /* \"#utility.yul\":14480:14482   */\n      0x60\n        /* \"#utility.yul\":14468:14477   */\n      dup3\n        /* \"#utility.yul\":14459:14466   */\n      dup5\n        /* \"#utility.yul\":14455:14478   */\n      sub\n        /* \"#utility.yul\":14451:14483   */\n      slt\n        /* \"#utility.yul\":14448:14567   */\n      iszero\n      tag_629\n      jumpi\n        /* \"#utility.yul\":14486:14565   */\n      tag_630\n      tag_396\n      jump\t// in\n    tag_630:\n        /* \"#utility.yul\":14448:14567   */\n    tag_629:\n        /* \"#utility.yul\":14606:14607   */\n      0x00\n        /* \"#utility.yul\":14631:14720   */\n      tag_631\n        /* \"#utility.yul\":14712:14719   */\n      dup5\n        /* \"#utility.yul\":14703:14709   */\n      dup3\n        /* \"#utility.yul\":14692:14701   */\n      dup6\n        /* \"#utility.yul\":14688:14710   */\n      add\n        /* \"#utility.yul\":14631:14720   */\n      tag_437\n      jump\t// in\n    tag_631:\n        /* \"#utility.yul\":14621:14720   */\n      swap2\n      pop\n        /* \"#utility.yul\":14577:14730   */\n      pop\n        /* \"#utility.yul\":14336:14737   */\n      swap3\n      swap2\n      pop\n      pop\n      jump\t// out\n        /* \"#utility.yul\":14743:14917   */\n    tag_438:\n        /* \"#utility.yul\":14883:14909   */\n      0x4e6f206465706f73697420696e207468697320726f756e640000000000000000\n        /* \"#utility.yul\":14879:14880   */\n      0x00\n        /* \"#utility.yul\":14871:14877   */\n      dup3\n        /* \"#utility.yul\":14867:14881   */\n      add\n        /* \"#utility.yul\":14860:14910   */\n      mstore\n        /* \"#utility.yul\":14743:14917   */\n      pop\n      jump\t// out\n        /* \"#utility.yul\":14923:15289   */\n    tag_439:\n        /* \"#utility.yul\":15065:15068   */\n      0x00\n        /* \"#utility.yul\":15086:15153   */\n      tag_634\n        /* \"#utility.yul\":15150:15152   */\n      0x18\n        /* \"#utility.yul\":15145:15148   */\n      dup4\n        /* \"#utility.yul\":15086:15153   */\n      tag_392\n      jump\t// in\n    tag_634:\n        /* \"#utility.yul\":15079:15153   */\n      swap2\n      pop\n        /* \"#utility.yul\":15162:15255   */\n      tag_635\n        /* \"#utility.yul\":15251:15254   */\n      dup3\n        /* \"#utility.yul\":15162:15255   */\n      tag_438\n      jump\t// in\n    tag_635:\n        /* \"#utility.yul\":15280:15282   */\n      0x20\n        /* \"#utility.yul\":15275:15278   */\n      dup3\n        /* \"#utility.yul\":15271:15283   */\n      add\n        /* \"#utility.yul\":15264:15283   */\n      swap1\n      pop\n        /* \"#utility.yul\":14923:15289   */\n      swap2\n      swap1\n      pop\n      jump\t// out\n        /* \"#utility.yul\":15295:15714   */\n    tag_124:\n        /* \"#utility.yul\":15461:15465   */\n      0x00\n        /* \"#utility.yul\":15499:15501   */\n      0x20\n        /* \"#utility.yul\":15488:15497   */\n      dup3\n        /* \"#utility.yul\":15484:15502   */\n      add\n        /* \"#utility.yul\":15476:15502   */\n      swap1\n      pop\n        /* \"#utility.yul\":15548:15557   */\n      dup2\n        /* \"#utility.yul\":15542:15546   */\n      dup2\n        /* \"#utility.yul\":15538:15558   */\n      sub\n        /* \"#utility.yul\":15534:15535   */\n      0x00\n        /* \"#utility.yul\":15523:15532   */\n      dup4\n        /* \"#utility.yul\":15519:15536   */\n      add\n        /* \"#utility.yul\":15512:15559   */\n      mstore\n        /* \"#utility.yul\":15576:15707   */\n      tag_637\n        /* \"#utility.yul\":15702:15706   */\n      dup2\n        /* \"#utility.yul\":15576:15707   */\n      tag_439\n      jump\t// in\n    tag_637:\n        /* \"#utility.yul\":15568:15707   */\n      swap1\n      pop\n        /* \"#utility.yul\":15295:15714   */\n      swap2\n      swap1\n      pop\n      jump\t// out\n        /* \"#utility.yul\":15720:15902   */\n    tag_440:\n        /* \"#utility.yul\":15860:15894   */\n      0x4f776e61626c653a2063616c6c6572206973206e6f7420746865206f776e6572\n        /* \"#utility.yul\":15856:15857   */\n      0x00\n        /* \"#utility.yul\":15848:15854   */\n      dup3\n        /* \"#utility.yul\":15844:15858   */\n      add\n        /* \"#utility.yul\":15837:15895   */\n      mstore\n        /* \"#utility.yul\":15720:15902   */\n      pop\n      jump\t// out\n        /* \"#utility.yul\":15908:16274   */\n    tag_441:\n        /* \"#utility.yul\":16050:16053   */\n      0x00\n        /* \"#utility.yul\":16071:16138   */\n      tag_640\n        /* \"#utility.yul\":16135:16137   */\n      0x20\n        /* \"#utility.yul\":16130:16133   */\n      dup4\n        /* \"#utility.yul\":16071:16138   */\n      tag_392\n      jump\t// in\n    tag_640:\n        /* \"#utility.yul\":16064:16138   */\n      swap2\n      pop\n        /* \"#utility.yul\":16147:16240   */\n      tag_641\n        /* \"#utility.yul\":16236:16239   */\n      dup3\n        /* \"#utility.yul\":16147:16240   */\n      tag_440\n      jump\t// in\n    tag_641:\n        /* \"#utility.yul\":16265:16267   */\n      0x20\n        /* \"#utility.yul\":16260:16263   */\n      dup3\n        /* \"#utility.yul\":16256:16268   */\n      add\n        /* \"#utility.yul\":16249:16268   */\n      swap1\n      pop\n        /* \"#utility.yul\":15908:16274   */\n      swap2\n      swap1\n      pop\n      jump\t// out\n        /* \"#utility.yul\":16280:16699   */\n    tag_133:\n        /* \"#utility.yul\":16446:16450   */\n      0x00\n        /* \"#utility.yul\":16484:16486   */\n      0x20\n        /* \"#utility.yul\":16473:16482   */\n      dup3\n        /* \"#utility.yul\":16469:16487   */\n      add\n        /* \"#utility.yul\":16461:16487   */\n      swap1\n      pop\n        /* \"#utility.yul\":16533:16542   */\n      dup2\n        /* \"#utility.yul\":16527:16531   */\n      dup2\n        /* \"#utility.yul\":16523:16543   */\n      sub\n        /* \"#utility.yul\":16519:16520   */\n      0x00\n        /* \"#utility.yul\":16508:16517   */\n      dup4\n        /* \"#utility.yul\":16504:16521   */\n      add\n        /* \"#utility.yul\":16497:16544   */\n      mstore\n        /* \"#utility.yul\":16561:16692   */\n      tag_643\n        /* \"#utility.yul\":16687:16691   */\n      dup2\n        /* \"#utility.yul\":16561:16692   */\n      tag_441\n      jump\t// in\n    tag_643:\n        /* \"#utility.yul\":16553:16692   */\n      swap1\n      pop\n        /* \"#utility.yul\":16280:16699   */\n      swap2\n      swap1\n      pop\n      jump\t// out\n        /* \"#utility.yul\":16705:16880   */\n    tag_442:\n        /* \"#utility.yul\":16845:16872   */\n      0x496e76616c6964207072697a65506f6f6c206164647265737300000000000000\n        /* \"#utility.yul\":16841:16842   */\n      0x00\n        /* \"#utility.yul\":16833:16839   */\n      dup3\n        /* \"#utility.yul\":16829:16843   */\n      add\n        /* \"#utility.yul\":16822:16873   */\n      mstore\n        /* \"#utility.yul\":16705:16880   */\n      pop\n      jump\t// out\n        /* \"#utility.yul\":16886:17252   */\n    tag_443:\n        /* \"#utility.yul\":17028:17031   */\n      0x00\n        /* \"#utility.yul\":17049:17116   */\n      tag_646\n        /* \"#utility.yul\":17113:17115   */\n      0x19\n        /* \"#utility.yul\":17108:17111   */\n      dup4\n        /* \"#utility.yul\":17049:17116   */\n      tag_392\n      jump\t// in\n    tag_646:\n        /* \"#utility.yul\":17042:17116   */\n      swap2\n      pop\n        /* \"#utility.yul\":17125:17218   */\n      tag_647\n        /* \"#utility.yul\":17214:17217   */\n      dup3\n        /* \"#utility.yul\":17125:17218   */\n      tag_442\n      jump\t// in\n    tag_647:\n        /* \"#utility.yul\":17243:17245   */\n      0x20\n        /* \"#utility.yul\":17238:17241   */\n      dup3\n        /* \"#utility.yul\":17234:17246   */\n      add\n        /* \"#utility.yul\":17227:17246   */\n      swap1\n      pop\n        /* \"#utility.yul\":16886:17252   */\n      swap2\n      swap1\n      pop\n      jump\t// out\n        /* \"#utility.yul\":17258:17677   */\n    tag_137:\n        /* \"#utility.yul\":17424:17428   */\n      0x00\n        /* \"#utility.yul\":17462:17464   */\n      0x20\n        /* \"#utility.yul\":17451:17460   */\n      dup3\n        /* \"#utility.yul\":17447:17465   */\n      add\n        /* \"#utility.yul\":17439:17465   */\n      swap1\n      pop\n        /* \"#utility.yul\":17511:17520   */\n      dup2\n        /* \"#utility.yul\":17505:17509   */\n      dup2\n        /* \"#utility.yul\":17501:17521   */\n      sub\n        /* \"#utility.yul\":17497:17498   */\n      0x00\n        /* \"#utility.yul\":17486:17495   */\n      dup4\n        /* \"#utility.yul\":17482:17499   */\n      add\n        /* \"#utility.yul\":17475:17522   */\n      mstore\n        /* \"#utility.yul\":17539:17670   */\n      tag_649\n        /* \"#utility.yul\":17665:17669   */\n      dup2\n        /* \"#utility.yul\":17539:17670   */\n      tag_443\n      jump\t// in\n    tag_649:\n        /* \"#utility.yul\":17531:17670   */\n      swap1\n      pop\n        /* \"#utility.yul\":17258:17677   */\n      swap2\n      swap1\n      pop\n      jump\t// out\n        /* \"#utility.yul\":17683:17831   */\n    tag_444:\n        /* \"#utility.yul\":17785:17796   */\n      0x00\n        /* \"#utility.yul\":17822:17825   */\n      dup2\n        /* \"#utility.yul\":17807:17825   */\n      swap1\n      pop\n        /* \"#utility.yul\":17683:17831   */\n      swap3\n      swap2\n      pop\n      pop\n      jump\t// out\n        /* \"#utility.yul\":17837:17996   */\n    tag_445:\n        /* \"#utility.yul\":17977:17988   */\n      0x7072697a65506f6f6c0000000000000000000000000000000000000000000000\n        /* \"#utility.yul\":17973:17974   */\n      0x00\n        /* \"#utility.yul\":17965:17971   */\n      dup3\n        /* \"#utility.yul\":17961:17975   */\n      add\n        /* \"#utility.yul\":17954:17989   */\n      mstore\n        /* \"#utility.yul\":17837:17996   */\n      pop\n      jump\t// out\n        /* \"#utility.yul\":18002:18402   */\n    tag_446:\n        /* \"#utility.yul\":18162:18165   */\n      0x00\n        /* \"#utility.yul\":18183:18267   */\n      tag_653\n        /* \"#utility.yul\":18265:18266   */\n      0x09\n        /* \"#utility.yul\":18260:18263   */\n      dup4\n        /* \"#utility.yul\":18183:18267   */\n      tag_444\n      jump\t// in\n    tag_653:\n        /* \"#utility.yul\":18176:18267   */\n      swap2\n      pop\n        /* \"#utility.yul\":18276:18369   */\n      tag_654\n        /* \"#utility.yul\":18365:18368   */\n      dup3\n        /* \"#utility.yul\":18276:18369   */\n      tag_445\n      jump\t// in\n    tag_654:\n        /* \"#utility.yul\":18394:18395   */\n      0x09\n        /* \"#utility.yul\":18389:18392   */\n      dup3\n        /* \"#utility.yul\":18385:18396   */\n      add\n        /* \"#utility.yul\":18378:18396   */\n      swap1\n      pop\n        /* \"#utility.yul\":18002:18402   */\n      swap2\n      swap1\n      pop\n      jump\t// out\n        /* \"#utility.yul\":18408:18789   */\n    tag_139:\n        /* \"#utility.yul\":18593:18596   */\n      0x00\n        /* \"#utility.yul\":18615:18763   */\n      tag_656\n        /* \"#utility.yul\":18759:18762   */\n      dup3\n        /* \"#utility.yul\":18615:18763   */\n      tag_446\n      jump\t// in\n    tag_656:\n        /* \"#utility.yul\":18608:18763   */\n      swap2\n      pop\n        /* \"#utility.yul\":18780:18783   */\n      dup2\n        /* \"#utility.yul\":18773:18783   */\n      swap1\n      pop\n        /* \"#utility.yul\":18408:18789   */\n      swap2\n      swap1\n      pop\n      jump\t// out\n        /* \"#utility.yul\":18795:18967   */\n    tag_447:\n        /* \"#utility.yul\":18935:18959   */\n      0x4e6f206465706f73697420746f20776974686472617700000000000000000000\n        /* \"#utility.yul\":18931:18932   */\n      0x00\n        /* \"#utility.yul\":18923:18929   */\n      dup3\n        /* \"#utility.yul\":18919:18933   */\n      add\n        /* \"#utility.yul\":18912:18960   */\n      mstore\n        /* \"#utility.yul\":18795:18967   */\n      pop\n      jump\t// out\n        /* \"#utility.yul\":18973:19339   */\n    tag_448:\n        /* \"#utility.yul\":19115:19118   */\n      0x00\n        /* \"#utility.yul\":19136:19203   */\n      tag_659\n        /* \"#utility.yul\":19200:19202   */\n      0x16\n        /* \"#utility.yul\":19195:19198   */\n      dup4\n        /* \"#utility.yul\":19136:19203   */\n      tag_392\n      jump\t// in\n    tag_659:\n        /* \"#utility.yul\":19129:19203   */\n      swap2\n      pop\n        /* \"#utility.yul\":19212:19305   */\n      tag_660\n        /* \"#utility.yul\":19301:19304   */\n      dup3\n        /* \"#utility.yul\":19212:19305   */\n      tag_447\n      jump\t// in\n    tag_660:\n        /* \"#utility.yul\":19330:19332   */\n      0x20\n        /* \"#utility.yul\":19325:19328   */\n      dup3\n        /* \"#utility.yul\":19321:19333   */\n      add\n        /* \"#utility.yul\":19314:19333   */\n      swap1\n      pop\n        /* \"#utility.yul\":18973:19339   */\n      swap2\n      swap1\n      pop\n      jump\t// out\n        /* \"#utility.yul\":19345:19764   */\n    tag_151:\n        /* \"#utility.yul\":19511:19515   */\n      0x00\n        /* \"#utility.yul\":19549:19551   */\n      0x20\n        /* \"#utility.yul\":19538:19547   */\n      dup3\n        /* \"#utility.yul\":19534:19552   */\n      add\n        /* \"#utility.yul\":19526:19552   */\n      swap1\n      pop\n        /* \"#utility.yul\":19598:19607   */\n      dup2\n        /* \"#utility.yul\":19592:19596   */\n      dup2\n        /* \"#utility.yul\":19588:19608   */\n      sub\n        /* \"#utility.yul\":19584:19585   */\n      0x00\n        /* \"#utility.yul\":19573:19582   */\n      dup4\n        /* \"#utility.yul\":19569:19586   */\n      add\n        /* \"#utility.yul\":19562:19609   */\n      mstore\n        /* \"#utility.yul\":19626:19757   */\n      tag_662\n        /* \"#utility.yul\":19752:19756   */\n      dup2\n        /* \"#utility.yul\":19626:19757   */\n      tag_448\n      jump\t// in\n    tag_662:\n        /* \"#utility.yul\":19618:19757   */\n      swap1\n      pop\n        /* \"#utility.yul\":19345:19764   */\n      swap2\n      swap1\n      pop\n      jump\t// out\n        /* \"#utility.yul\":19770:19913   */\n    tag_449:\n        /* \"#utility.yul\":19827:19832   */\n      0x00\n        /* \"#utility.yul\":19858:19864   */\n      dup2\n        /* \"#utility.yul\":19852:19865   */\n      mload\n        /* \"#utility.yul\":19843:19865   */\n      swap1\n      pop\n        /* \"#utility.yul\":19874:19907   */\n      tag_664\n        /* \"#utility.yul\":19901:19906   */\n      dup2\n        /* \"#utility.yul\":19874:19907   */\n      tag_399\n      jump\t// in\n    tag_664:\n        /* \"#utility.yul\":19770:19913   */\n      swap3\n      swap2\n      pop\n      pop\n      jump\t// out\n        /* \"#utility.yul\":19919:20270   */\n    tag_156:\n        /* \"#utility.yul\":19989:19995   */\n      0x00\n        /* \"#utility.yul\":20038:20040   */\n      0x20\n        /* \"#utility.yul\":20026:20035   */\n      dup3\n        /* \"#utility.yul\":20017:20024   */\n      dup5\n        /* \"#utility.yul\":20013:20036   */\n      sub\n        /* \"#utility.yul\":20009:20041   */\n      slt\n        /* \"#utility.yul\":20006:20125   */\n      iszero\n      tag_666\n      jumpi\n        /* \"#utility.yul\":20044:20123   */\n      tag_667\n      tag_396\n      jump\t// in\n    tag_667:\n        /* \"#utility.yul\":20006:20125   */\n    tag_666:\n        /* \"#utility.yul\":20164:20165   */\n      0x00\n        /* \"#utility.yul\":20189:20253   */\n      tag_668\n        /* \"#utility.yul\":20245:20252   */\n      dup5\n        /* \"#utility.yul\":20236:20242   */\n      dup3\n        /* \"#utility.yul\":20225:20234   */\n      dup6\n        /* \"#utility.yul\":20221:20243   */\n      add\n        /* \"#utility.yul\":20189:20253   */\n      tag_449\n      jump\t// in\n    tag_668:\n        /* \"#utility.yul\":20179:20253   */\n      swap2\n      pop\n        /* \"#utility.yul\":20135:20263   */\n      pop\n        /* \"#utility.yul\":19919:20270   */\n      swap3\n      swap2\n      pop\n      pop\n      jump\t// out\n        /* \"#utility.yul\":20276:20452   */\n    tag_450:\n        /* \"#utility.yul\":20416:20444   */\n      0x496e76616c6964207368617265546f6b656e2061646472657373000000000000\n        /* \"#utility.yul\":20412:20413   */\n      0x00\n        /* \"#utility.yul\":20404:20410   */\n      dup3\n        /* \"#utility.yul\":20400:20414   */\n      add\n        /* \"#utility.yul\":20393:20445   */\n      mstore\n        /* \"#utility.yul\":20276:20452   */\n      pop\n      jump\t// out\n        /* \"#utility.yul\":20458:20824   */\n    tag_451:\n        /* \"#utility.yul\":20600:20603   */\n      0x00\n        /* \"#utility.yul\":20621:20688   */\n      tag_671\n        /* \"#utility.yul\":20685:20687   */\n      0x1a\n        /* \"#utility.yul\":20680:20683   */\n      dup4\n        /* \"#utility.yul\":20621:20688   */\n      tag_392\n      jump\t// in\n    tag_671:\n        /* \"#utility.yul\":20614:20688   */\n      swap2\n      pop\n        /* \"#utility.yul\":20697:20790   */\n      tag_672\n        /* \"#utility.yul\":20786:20789   */\n      dup3\n        /* \"#utility.yul\":20697:20790   */\n      tag_450\n      jump\t// in\n    tag_672:\n        /* \"#utility.yul\":20815:20817   */\n      0x20\n        /* \"#utility.yul\":20810:20813   */\n      dup3\n        /* \"#utility.yul\":20806:20818   */\n      add\n        /* \"#utility.yul\":20799:20818   */\n      swap1\n      pop\n        /* \"#utility.yul\":20458:20824   */\n      swap2\n      swap1\n      pop\n      jump\t// out\n        /* \"#utility.yul\":20830:21249   */\n    tag_165:\n        /* \"#utility.yul\":20996:21000   */\n      0x00\n        /* \"#utility.yul\":21034:21036   */\n      0x20\n        /* \"#utility.yul\":21023:21032   */\n      dup3\n        /* \"#utility.yul\":21019:21037   */\n      add\n        /* \"#utility.yul\":21011:21037   */\n      swap1\n      pop\n        /* \"#utility.yul\":21083:21092   */\n      dup2\n        /* \"#utility.yul\":21077:21081   */\n      dup2\n        /* \"#utility.yul\":21073:21093   */\n      sub\n        /* \"#utility.yul\":21069:21070   */\n      0x00\n        /* \"#utility.yul\":21058:21067   */\n      dup4\n        /* \"#utility.yul\":21054:21071   */\n      add\n        /* \"#utility.yul\":21047:21094   */\n      mstore\n        /* \"#utility.yul\":21111:21242   */\n      tag_674\n        /* \"#utility.yul\":21237:21241   */\n      dup2\n        /* \"#utility.yul\":21111:21242   */\n      tag_451\n      jump\t// in\n    tag_674:\n        /* \"#utility.yul\":21103:21242   */\n      swap1\n      pop\n        /* \"#utility.yul\":20830:21249   */\n      swap2\n      swap1\n      pop\n      jump\t// out\n        /* \"#utility.yul\":21255:21415   */\n    tag_452:\n        /* \"#utility.yul\":21395:21407   */\n      0x7368617265546f6b656e00000000000000000000000000000000000000000000\n        /* \"#utility.yul\":21391:21392   */\n      0x00\n        /* \"#utility.yul\":21383:21389   */\n      dup3\n        /* \"#utility.yul\":21379:21393   */\n      add\n        /* \"#utility.yul\":21372:21408   */\n      mstore\n        /* \"#utility.yul\":21255:21415   */\n      pop\n      jump\t// out\n        /* \"#utility.yul\":21421:21823   */\n    tag_453:\n        /* \"#utility.yul\":21581:21584   */\n      0x00\n        /* \"#utility.yul\":21602:21687   */\n      tag_677\n        /* \"#utility.yul\":21684:21686   */\n      0x0a\n        /* \"#utility.yul\":21679:21682   */\n      dup4\n        /* \"#utility.yul\":21602:21687   */\n      tag_444\n      jump\t// in\n    tag_677:\n        /* \"#utility.yul\":21595:21687   */\n      swap2\n      pop\n        /* \"#utility.yul\":21696:21789   */\n      tag_678\n        /* \"#utility.yul\":21785:21788   */\n      dup3\n        /* \"#utility.yul\":21696:21789   */\n      tag_452\n      jump\t// in\n    tag_678:\n        /* \"#utility.yul\":21814:21816   */\n      0x0a\n        /* \"#utility.yul\":21809:21812   */\n      dup3\n        /* \"#utility.yul\":21805:21817   */\n      add\n        /* \"#utility.yul\":21798:21817   */\n      swap1\n      pop\n        /* \"#utility.yul\":21421:21823   */\n      swap2\n      swap1\n      pop\n      jump\t// out\n        /* \"#utility.yul\":21829:22210   */\n    tag_167:\n        /* \"#utility.yul\":22014:22017   */\n      0x00\n        /* \"#utility.yul\":22036:22184   */\n      tag_680\n        /* \"#utility.yul\":22180:22183   */\n      dup3\n        /* \"#utility.yul\":22036:22184   */\n      tag_453\n      jump\t// in\n    tag_680:\n        /* \"#utility.yul\":22029:22184   */\n      swap2\n      pop\n        /* \"#utility.yul\":22201:22204   */\n      dup2\n        /* \"#utility.yul\":22194:22204   */\n      swap1\n      pop\n        /* \"#utility.yul\":21829:22210   */\n      swap2\n      swap1\n      pop\n      jump\t// out\n        /* \"#utility.yul\":22216:22393   */\n    tag_454:\n        /* \"#utility.yul\":22356:22385   */\n      0x53797374656d206e6f742066756c6c7920636f6e666967757265640000000000\n        /* \"#utility.yul\":22352:22353   */\n      0x00\n        /* \"#utility.yul\":22344:22350   */\n      dup3\n        /* \"#utility.yul\":22340:22354   */\n      add\n        /* \"#utility.yul\":22333:22386   */\n      mstore\n        /* \"#utility.yul\":22216:22393   */\n      pop\n      jump\t// out\n        /* \"#utility.yul\":22399:22765   */\n    tag_455:\n        /* \"#utility.yul\":22541:22544   */\n      0x00\n        /* \"#utility.yul\":22562:22629   */\n      tag_683\n        /* \"#utility.yul\":22626:22628   */\n      0x1b\n        /* \"#utility.yul\":22621:22624   */\n      dup4\n        /* \"#utility.yul\":22562:22629   */\n      tag_392\n      jump\t// in\n    tag_683:\n        /* \"#utility.yul\":22555:22629   */\n      swap2\n      pop\n        /* \"#utility.yul\":22638:22731   */\n      tag_684\n        /* \"#utility.yul\":22727:22730   */\n      dup3\n        /* \"#utility.yul\":22638:22731   */\n      tag_454\n      jump\t// in\n    tag_684:\n        /* \"#utility.yul\":22756:22758   */\n      0x20\n        /* \"#utility.yul\":22751:22754   */\n      dup3\n        /* \"#utility.yul\":22747:22759   */\n      add\n        /* \"#utility.yul\":22740:22759   */\n      swap1\n      pop\n        /* \"#utility.yul\":22399:22765   */\n      swap2\n      swap1\n      pop\n      jump\t// out\n        /* \"#utility.yul\":22771:23190   */\n    tag_174:\n        /* \"#utility.yul\":22937:22941   */\n      0x00\n        /* \"#utility.yul\":22975:22977   */\n      0x20\n        /* \"#utility.yul\":22964:22973   */\n      dup3\n        /* \"#utility.yul\":22960:22978   */\n      add\n        /* \"#utility.yul\":22952:22978   */\n      swap1\n      pop\n        /* \"#utility.yul\":23024:23033   */\n      dup2\n        /* \"#utility.yul\":23018:23022   */\n      dup2\n        /* \"#utility.yul\":23014:23034   */\n      sub\n        /* \"#utility.yul\":23010:23011   */\n      0x00\n        /* \"#utility.yul\":22999:23008   */\n      dup4\n        /* \"#utility.yul\":22995:23012   */\n      add\n        /* \"#utility.yul\":22988:23035   */\n      mstore\n        /* \"#utility.yul\":23052:23183   */\n      tag_686\n        /* \"#utility.yul\":23178:23182   */\n      dup2\n        /* \"#utility.yul\":23052:23183   */\n      tag_455\n      jump\t// in\n    tag_686:\n        /* \"#utility.yul\":23044:23183   */\n      swap1\n      pop\n        /* \"#utility.yul\":22771:23190   */\n      swap2\n      swap1\n      pop\n      jump\t// out\n        /* \"#utility.yul\":23196:23376   */\n    tag_456:\n        /* \"#utility.yul\":23244:23321   */\n      0x4e487b7100000000000000000000000000000000000000000000000000000000\n        /* \"#utility.yul\":23241:23242   */\n      0x00\n        /* \"#utility.yul\":23234:23322   */\n      mstore\n        /* \"#utility.yul\":23341:23345   */\n      0x11\n        /* \"#utility.yul\":23338:23339   */\n      0x04\n        /* \"#utility.yul\":23331:23346   */\n      mstore\n        /* \"#utility.yul\":23365:23369   */\n      0x24\n        /* \"#utility.yul\":23362:23363   */\n      0x00\n        /* \"#utility.yul\":23355:23370   */\n      revert\n        /* \"#utility.yul\":23382:23576   */\n    tag_191:\n        /* \"#utility.yul\":23422:23426   */\n      0x00\n        /* \"#utility.yul\":23442:23462   */\n      tag_689\n        /* \"#utility.yul\":23460:23461   */\n      dup3\n        /* \"#utility.yul\":23442:23462   */\n      tag_398\n      jump\t// in\n    tag_689:\n        /* \"#utility.yul\":23437:23462   */\n      swap2\n      pop\n        /* \"#utility.yul\":23476:23496   */\n      tag_690\n        /* \"#utility.yul\":23494:23495   */\n      dup4\n        /* \"#utility.yul\":23476:23496   */\n      tag_398\n      jump\t// in\n    tag_690:\n        /* \"#utility.yul\":23471:23496   */\n      swap3\n      pop\n        /* \"#utility.yul\":23520:23521   */\n      dup3\n        /* \"#utility.yul\":23517:23518   */\n      dup3\n        /* \"#utility.yul\":23513:23522   */\n      sub\n        /* \"#utility.yul\":23505:23522   */\n      swap1\n      pop\n        /* \"#utility.yul\":23544:23545   */\n      dup2\n        /* \"#utility.yul\":23538:23542   */\n      dup2\n        /* \"#utility.yul\":23535:23546   */\n      gt\n        /* \"#utility.yul\":23532:23569   */\n      iszero\n      tag_691\n      jumpi\n        /* \"#utility.yul\":23549:23567   */\n      tag_692\n      tag_456\n      jump\t// in\n    tag_692:\n        /* \"#utility.yul\":23532:23569   */\n    tag_691:\n        /* \"#utility.yul\":23382:23576   */\n      swap3\n      swap2\n      pop\n      pop\n      jump\t// out\n        /* \"#utility.yul\":23582:23753   */\n    tag_457:\n        /* \"#utility.yul\":23722:23745   */\n      0x496e76616c6964207661756c7420616464726573730000000000000000000000\n        /* \"#utility.yul\":23718:23719   */\n      0x00\n        /* \"#utility.yul\":23710:23716   */\n      dup3\n        /* \"#utility.yul\":23706:23720   */\n      add\n        /* \"#utility.yul\":23699:23746   */\n      mstore\n        /* \"#utility.yul\":23582:23753   */\n      pop\n      jump\t// out\n        /* \"#utility.yul\":23759:24125   */\n    tag_458:\n        /* \"#utility.yul\":23901:23904   */\n      0x00\n        /* \"#utility.yul\":23922:23989   */\n      tag_695\n        /* \"#utility.yul\":23986:23988   */\n      0x15\n        /* \"#utility.yul\":23981:23984   */\n      dup4\n        /* \"#utility.yul\":23922:23989   */\n      tag_392\n      jump\t// in\n    tag_695:\n        /* \"#utility.yul\":23915:23989   */\n      swap2\n      pop\n        /* \"#utility.yul\":23998:24091   */\n      tag_696\n        /* \"#utility.yul\":24087:24090   */\n      dup3\n        /* \"#utility.yul\":23998:24091   */\n      tag_457\n      jump\t// in\n    tag_696:\n        /* \"#utility.yul\":24116:24118   */\n      0x20\n        /* \"#utility.yul\":24111:24114   */\n      dup3\n        /* \"#utility.yul\":24107:24119   */\n      add\n        /* \"#utility.yul\":24100:24119   */\n      swap1\n      pop\n        /* \"#utility.yul\":23759:24125   */\n      swap2\n      swap1\n      pop\n      jump\t// out\n        /* \"#utility.yul\":24131:24550   */\n    tag_215:\n        /* \"#utility.yul\":24297:24301   */\n      0x00\n        /* \"#utility.yul\":24335:24337   */\n      0x20\n        /* \"#utility.yul\":24324:24333   */\n      dup3\n        /* \"#utility.yul\":24320:24338   */\n      add\n        /* \"#utility.yul\":24312:24338   */\n      swap1\n      pop\n        /* \"#utility.yul\":24384:24393   */\n      dup2\n        /* \"#utility.yul\":24378:24382   */\n      dup2\n        /* \"#utility.yul\":24374:24394   */\n      sub\n        /* \"#utility.yul\":24370:24371   */\n      0x00\n        /* \"#utility.yul\":24359:24368   */\n      dup4\n        /* \"#utility.yul\":24355:24372   */\n      add\n        /* \"#utility.yul\":24348:24395   */\n      mstore\n        /* \"#utility.yul\":24412:24543   */\n      tag_698\n        /* \"#utility.yul\":24538:24542   */\n      dup2\n        /* \"#utility.yul\":24412:24543   */\n      tag_458\n      jump\t// in\n    tag_698:\n        /* \"#utility.yul\":24404:24543   */\n      swap1\n      pop\n        /* \"#utility.yul\":24131:24550   */\n      swap2\n      swap1\n      pop\n      jump\t// out\n        /* \"#utility.yul\":24556:24699   */\n    tag_459:\n        /* \"#utility.yul\":24613:24618   */\n      0x00\n        /* \"#utility.yul\":24644:24650   */\n      dup2\n        /* \"#utility.yul\":24638:24651   */\n      mload\n        /* \"#utility.yul\":24629:24651   */\n      swap1\n      pop\n        /* \"#utility.yul\":24660:24693   */\n      tag_700\n        /* \"#utility.yul\":24687:24692   */\n      dup2\n        /* \"#utility.yul\":24660:24693   */\n      tag_403\n      jump\t// in\n    tag_700:\n        /* \"#utility.yul\":24556:24699   */\n      swap3\n      swap2\n      pop\n      pop\n      jump\t// out\n        /* \"#utility.yul\":24705:25056   */\n    tag_218:\n        /* \"#utility.yul\":24775:24781   */\n      0x00\n        /* \"#utility.yul\":24824:24826   */\n      0x20\n        /* \"#utility.yul\":24812:24821   */\n      dup3\n        /* \"#utility.yul\":24803:24810   */\n      dup5\n        /* \"#utility.yul\":24799:24822   */\n      sub\n        /* \"#utility.yul\":24795:24827   */\n      slt\n        /* \"#utility.yul\":24792:24911   */\n      iszero\n      tag_702\n      jumpi\n        /* \"#utility.yul\":24830:24909   */\n      tag_703\n      tag_396\n      jump\t// in\n    tag_703:\n        /* \"#utility.yul\":24792:24911   */\n    tag_702:\n        /* \"#utility.yul\":24950:24951   */\n      0x00\n        /* \"#utility.yul\":24975:25039   */\n      tag_704\n        /* \"#utility.yul\":25031:25038   */\n      dup5\n        /* \"#utility.yul\":25022:25028   */\n      dup3\n        /* \"#utility.yul\":25011:25020   */\n      dup6\n        /* \"#utility.yul\":25007:25029   */\n      add\n        /* \"#utility.yul\":24975:25039   */\n      tag_459\n      jump\t// in\n    tag_704:\n        /* \"#utility.yul\":24965:25039   */\n      swap2\n      pop\n        /* \"#utility.yul\":24921:25049   */\n      pop\n        /* \"#utility.yul\":24705:25056   */\n      swap3\n      swap2\n      pop\n      pop\n      jump\t// out\n        /* \"#utility.yul\":25062:25217   */\n    tag_460:\n        /* \"#utility.yul\":25202:25209   */\n      0x7661756c74000000000000000000000000000000000000000000000000000000\n        /* \"#utility.yul\":25198:25199   */\n      0x00\n        /* \"#utility.yul\":25190:25196   */\n      dup3\n        /* \"#utility.yul\":25186:25200   */\n      add\n        /* \"#utility.yul\":25179:25210   */\n      mstore\n        /* \"#utility.yul\":25062:25217   */\n      pop\n      jump\t// out\n        /* \"#utility.yul\":25223:25623   */\n    tag_461:\n        /* \"#utility.yul\":25383:25386   */\n      0x00\n        /* \"#utility.yul\":25404:25488   */\n      tag_707\n        /* \"#utility.yul\":25486:25487   */\n      0x05\n        /* \"#utility.yul\":25481:25484   */\n      dup4\n        /* \"#utility.yul\":25404:25488   */\n      tag_444\n      jump\t// in\n    tag_707:\n        /* \"#utility.yul\":25397:25488   */\n      swap2\n      pop\n        /* \"#utility.yul\":25497:25590   */\n      tag_708\n        /* \"#utility.yul\":25586:25589   */\n      dup3\n        /* \"#utility.yul\":25497:25590   */\n      tag_460\n      jump\t// in\n    tag_708:\n        /* \"#utility.yul\":25615:25616   */\n      0x05\n        /* \"#utility.yul\":25610:25613   */\n      dup3\n        /* \"#utility.yul\":25606:25617   */\n      add\n        /* \"#utility.yul\":25599:25617   */\n      swap1\n      pop\n        /* \"#utility.yul\":25223:25623   */\n      swap2\n      swap1\n      pop\n      jump\t// out\n        /* \"#utility.yul\":25629:26010   */\n    tag_227:\n        /* \"#utility.yul\":25814:25817   */\n      0x00\n        /* \"#utility.yul\":25836:25984   */\n      tag_710\n        /* \"#utility.yul\":25980:25983   */\n      dup3\n        /* \"#utility.yul\":25836:25984   */\n      tag_461\n      jump\t// in\n    tag_710:\n        /* \"#utility.yul\":25829:25984   */\n      swap2\n      pop\n        /* \"#utility.yul\":26001:26004   */\n      dup2\n        /* \"#utility.yul\":25994:26004   */\n      swap1\n      pop\n        /* \"#utility.yul\":25629:26010   */\n      swap2\n      swap1\n      pop\n      jump\t// out\n        /* \"#utility.yul\":26016:26188   */\n    tag_462:\n        /* \"#utility.yul\":26156:26180   */\n      0x4c6f7474657279206e6f7420636f6e6669677572656400000000000000000000\n        /* \"#utility.yul\":26152:26153   */\n      0x00\n        /* \"#utility.yul\":26144:26150   */\n      dup3\n        /* \"#utility.yul\":26140:26154   */\n      add\n        /* \"#utility.yul\":26133:26181   */\n      mstore\n        /* \"#utility.yul\":26016:26188   */\n      pop\n      jump\t// out\n        /* \"#utility.yul\":26194:26560   */\n    tag_463:\n        /* \"#utility.yul\":26336:26339   */\n      0x00\n        /* \"#utility.yul\":26357:26424   */\n      tag_713\n        /* \"#utility.yul\":26421:26423   */\n      0x16\n        /* \"#utility.yul\":26416:26419   */\n      dup4\n        /* \"#utility.yul\":26357:26424   */\n      tag_392\n      jump\t// in\n    tag_713:\n        /* \"#utility.yul\":26350:26424   */\n      swap2\n      pop\n        /* \"#utility.yul\":26433:26526   */\n      tag_714\n        /* \"#utility.yul\":26522:26525   */\n      dup3\n        /* \"#utility.yul\":26433:26526   */\n      tag_462\n      jump\t// in\n    tag_714:\n        /* \"#utility.yul\":26551:26553   */\n      0x20\n        /* \"#utility.yul\":26546:26549   */\n      dup3\n        /* \"#utility.yul\":26542:26554   */\n      add\n        /* \"#utility.yul\":26535:26554   */\n      swap1\n      pop\n        /* \"#utility.yul\":26194:26560   */\n      swap2\n      swap1\n      pop\n      jump\t// out\n        /* \"#utility.yul\":26566:26985   */\n    tag_244:\n        /* \"#utility.yul\":26732:26736   */\n      0x00\n        /* \"#utility.yul\":26770:26772   */\n      0x20\n        /* \"#utility.yul\":26759:26768   */\n      dup3\n        /* \"#utility.yul\":26755:26773   */\n      add\n        /* \"#utility.yul\":26747:26773   */\n      swap1\n      pop\n        /* \"#utility.yul\":26819:26828   */\n      dup2\n        /* \"#utility.yul\":26813:26817   */\n      dup2\n        /* \"#utility.yul\":26809:26829   */\n      sub\n        /* \"#utility.yul\":26805:26806   */\n      0x00\n        /* \"#utility.yul\":26794:26803   */\n      dup4\n        /* \"#utility.yul\":26790:26807   */\n      add\n        /* \"#utility.yul\":26783:26830   */\n      mstore\n        /* \"#utility.yul\":26847:26978   */\n      tag_716\n        /* \"#utility.yul\":26973:26977   */\n      dup2\n        /* \"#utility.yul\":26847:26978   */\n      tag_463\n      jump\t// in\n    tag_716:\n        /* \"#utility.yul\":26839:26978   */\n      swap1\n      pop\n        /* \"#utility.yul\":26566:26985   */\n      swap2\n      swap1\n      pop\n      jump\t// out\n        /* \"#utility.yul\":26991:27105   */\n    tag_464:\n      pop\n      jump\t// out\n        /* \"#utility.yul\":27111:27475   */\n    tag_465:\n        /* \"#utility.yul\":27253:27256   */\n      0x00\n        /* \"#utility.yul\":27274:27340   */\n      tag_719\n        /* \"#utility.yul\":27338:27339   */\n      0x00\n        /* \"#utility.yul\":27333:27336   */\n      dup4\n        /* \"#utility.yul\":27274:27340   */\n      tag_392\n      jump\t// in\n    tag_719:\n        /* \"#utility.yul\":27267:27340   */\n      swap2\n      pop\n        /* \"#utility.yul\":27349:27442   */\n      tag_720\n        /* \"#utility.yul\":27438:27441   */\n      dup3\n        /* \"#utility.yul\":27349:27442   */\n      tag_464\n      jump\t// in\n    tag_720:\n        /* \"#utility.yul\":27467:27468   */\n      0x00\n        /* \"#utility.yul\":27462:27465   */\n      dup3\n        /* \"#utility.yul\":27458:27469   */\n      add\n        /* \"#utility.yul\":27451:27469   */\n      swap1\n      pop\n        /* \"#utility.yul\":27111:27475   */\n      swap2\n      swap1\n      pop\n      jump\t// out\n        /* \"#utility.yul\":27481:27900   */\n    tag_246:\n        /* \"#utility.yul\":27647:27651   */\n      0x00\n        /* \"#utility.yul\":27685:27687   */\n      0x20\n        /* \"#utility.yul\":27674:27683   */\n      dup3\n        /* \"#utility.yul\":27670:27688   */\n      add\n        /* \"#utility.yul\":27662:27688   */\n      swap1\n      pop\n        /* \"#utility.yul\":27734:27743   */\n      dup2\n        /* \"#utility.yul\":27728:27732   */\n      dup2\n        /* \"#utility.yul\":27724:27744   */\n      sub\n        /* \"#utility.yul\":27720:27721   */\n      0x00\n        /* \"#utility.yul\":27709:27718   */\n      dup4\n        /* \"#utility.yul\":27705:27722   */\n      add\n        /* \"#utility.yul\":27698:27745   */\n      mstore\n        /* \"#utility.yul\":27762:27893   */\n      tag_722\n        /* \"#utility.yul\":27888:27892   */\n      dup2\n        /* \"#utility.yul\":27762:27893   */\n      tag_465\n      jump\t// in\n    tag_722:\n        /* \"#utility.yul\":27754:27893   */\n      swap1\n      pop\n        /* \"#utility.yul\":27481:27900   */\n      swap2\n      swap1\n      pop\n      jump\t// out\n        /* \"#utility.yul\":27906:28075   */\n    tag_466:\n        /* \"#utility.yul\":28046:28067   */\n      0x547269676765722064726177206661696c656400000000000000000000000000\n        /* \"#utility.yul\":28042:28043   */\n      0x00\n        /* \"#utility.yul\":28034:28040   */\n      dup3\n        /* \"#utility.yul\":28030:28044   */\n      add\n        /* \"#utility.yul\":28023:28068   */\n      mstore\n        /* \"#utility.yul\":27906:28075   */\n      pop\n      jump\t// out\n        /* \"#utility.yul\":28081:28447   */\n    tag_467:\n        /* \"#utility.yul\":28223:28226   */\n      0x00\n        /* \"#utility.yul\":28244:28311   */\n      tag_725\n        /* \"#utility.yul\":28308:28310   */\n      0x13\n        /* \"#utility.yul\":28303:28306   */\n      dup4\n        /* \"#utility.yul\":28244:28311   */\n      tag_392\n      jump\t// in\n    tag_725:\n        /* \"#utility.yul\":28237:28311   */\n      swap2\n      pop\n        /* \"#utility.yul\":28320:28413   */\n      tag_726\n        /* \"#utility.yul\":28409:28412   */\n      dup3\n        /* \"#utility.yul\":28320:28413   */\n      tag_466\n      jump\t// in\n    tag_726:\n        /* \"#utility.yul\":28438:28440   */\n      0x20\n        /* \"#utility.yul\":28433:28436   */\n      dup3\n        /* \"#utility.yul\":28429:28441   */\n      add\n        /* \"#utility.yul\":28422:28441   */\n      swap1\n      pop\n        /* \"#utility.yul\":28081:28447   */\n      swap2\n      swap1\n      pop\n      jump\t// out\n        /* \"#utility.yul\":28453:28872   */\n    tag_253:\n        /* \"#utility.yul\":28619:28623   */\n      0x00\n        /* \"#utility.yul\":28657:28659   */\n      0x20\n        /* \"#utility.yul\":28646:28655   */\n      dup3\n        /* \"#utility.yul\":28642:28660   */\n      add\n        /* \"#utility.yul\":28634:28660   */\n      swap1\n      pop\n        /* \"#utility.yul\":28706:28715   */\n      dup2\n        /* \"#utility.yul\":28700:28704   */\n      dup2\n        /* \"#utility.yul\":28696:28716   */\n      sub\n        /* \"#utility.yul\":28692:28693   */\n      0x00\n        /* \"#utility.yul\":28681:28690   */\n      dup4\n        /* \"#utility.yul\":28677:28694   */\n      add\n        /* \"#utility.yul\":28670:28717   */\n      mstore\n        /* \"#utility.yul\":28734:28865   */\n      tag_728\n        /* \"#utility.yul\":28860:28864   */\n      dup2\n        /* \"#utility.yul\":28734:28865   */\n      tag_467\n      jump\t// in\n    tag_728:\n        /* \"#utility.yul\":28726:28865   */\n      swap1\n      pop\n        /* \"#utility.yul\":28453:28872   */\n      swap2\n      swap1\n      pop\n      jump\t// out\n        /* \"#utility.yul\":28878:29059   */\n    tag_468:\n        /* \"#utility.yul\":29018:29051   */\n      0x5265656e7472616e637947756172643a207265656e7472616e742063616c6c00\n        /* \"#utility.yul\":29014:29015   */\n      0x00\n        /* \"#utility.yul\":29006:29012   */\n      dup3\n        /* \"#utility.yul\":29002:29016   */\n      add\n        /* \"#utility.yul\":28995:29052   */\n      mstore\n        /* \"#utility.yul\":28878:29059   */\n      pop\n      jump\t// out\n        /* \"#utility.yul\":29065:29431   */\n    tag_469:\n        /* \"#utility.yul\":29207:29210   */\n      0x00\n        /* \"#utility.yul\":29228:29295   */\n      tag_731\n        /* \"#utility.yul\":29292:29294   */\n      0x1f\n        /* \"#utility.yul\":29287:29290   */\n      dup4\n        /* \"#utility.yul\":29228:29295   */\n      tag_392\n      jump\t// in\n    tag_731:\n        /* \"#utility.yul\":29221:29295   */\n      swap2\n      pop\n        /* \"#utility.yul\":29304:29397   */\n      tag_732\n        /* \"#utility.yul\":29393:29396   */\n      dup3\n        /* \"#utility.yul\":29304:29397   */\n      tag_468\n      jump\t// in\n    tag_732:\n        /* \"#utility.yul\":29422:29424   */\n      0x20\n        /* \"#utility.yul\":29417:29420   */\n      dup3\n        /* \"#utility.yul\":29413:29425   */\n      add\n        /* \"#utility.yul\":29406:29425   */\n      swap1\n      pop\n        /* \"#utility.yul\":29065:29431   */\n      swap2\n      swap1\n      pop\n      jump\t// out\n        /* \"#utility.yul\":29437:29856   */\n    tag_258:\n        /* \"#utility.yul\":29603:29607   */\n      0x00\n        /* \"#utility.yul\":29641:29643   */\n      0x20\n        /* \"#utility.yul\":29630:29639   */\n      dup3\n        /* \"#utility.yul\":29626:29644   */\n      add\n        /* \"#utility.yul\":29618:29644   */\n      swap1\n      pop\n        /* \"#utility.yul\":29690:29699   */\n      dup2\n        /* \"#utility.yul\":29684:29688   */\n      dup2\n        /* \"#utility.yul\":29680:29700   */\n      sub\n        /* \"#utility.yul\":29676:29677   */\n      0x00\n        /* \"#utility.yul\":29665:29674   */\n      dup4\n        /* \"#utility.yul\":29661:29678   */\n      add\n        /* \"#utility.yul\":29654:29701   */\n      mstore\n        /* \"#utility.yul\":29718:29849   */\n      tag_734\n        /* \"#utility.yul\":29844:29848   */\n      dup2\n        /* \"#utility.yul\":29718:29849   */\n      tag_469\n      jump\t// in\n    tag_734:\n        /* \"#utility.yul\":29710:29849   */\n      swap1\n      pop\n        /* \"#utility.yul\":29437:29856   */\n      swap2\n      swap1\n      pop\n      jump\t// out\n        /* \"#utility.yul\":29862:30036   */\n    tag_470:\n        /* \"#utility.yul\":30002:30028   */\n      0x4d757374206465706f736974205745544820746f6b656e730000000000000000\n        /* \"#utility.yul\":29998:29999   */\n      0x00\n        /* \"#utility.yul\":29990:29996   */\n      dup3\n        /* \"#utility.yul\":29986:30000   */\n      add\n        /* \"#utility.yul\":29979:30029   */\n      mstore\n        /* \"#utility.yul\":29862:30036   */\n      pop\n      jump\t// out\n        /* \"#utility.yul\":30042:30408   */\n    tag_471:\n        /* \"#utility.yul\":30184:30187   */\n      0x00\n        /* \"#utility.yul\":30205:30272   */\n      tag_737\n        /* \"#utility.yul\":30269:30271   */\n      0x18\n        /* \"#utility.yul\":30264:30267   */\n      dup4\n        /* \"#utility.yul\":30205:30272   */\n      tag_392\n      jump\t// in\n    tag_737:\n        /* \"#utility.yul\":30198:30272   */\n      swap2\n      pop\n        /* \"#utility.yul\":30281:30374   */\n      tag_738\n        /* \"#utility.yul\":30370:30373   */\n      dup3\n        /* \"#utility.yul\":30281:30374   */\n      tag_470\n      jump\t// in\n    tag_738:\n        /* \"#utility.yul\":30399:30401   */\n      0x20\n        /* \"#utility.yul\":30394:30397   */\n      dup3\n        /* \"#utility.yul\":30390:30402   */\n      add\n        /* \"#utility.yul\":30383:30402   */\n      swap1\n      pop\n        /* \"#utility.yul\":30042:30408   */\n      swap2\n      swap1\n      pop\n      jump\t// out\n        /* \"#utility.yul\":30414:30833   */\n    tag_264:\n        /* \"#utility.yul\":30580:30584   */\n      0x00\n        /* \"#utility.yul\":30618:30620   */\n      0x20\n        /* \"#utility.yul\":30607:30616   */\n      dup3\n        /* \"#utility.yul\":30603:30621   */\n      add\n        /* \"#utility.yul\":30595:30621   */\n      swap1\n      pop\n        /* \"#utility.yul\":30667:30676   */\n      dup2\n        /* \"#utility.yul\":30661:30665   */\n      dup2\n        /* \"#utility.yul\":30657:30677   */\n      sub\n        /* \"#utility.yul\":30653:30654   */\n      0x00\n        /* \"#utility.yul\":30642:30651   */\n      dup4\n        /* \"#utility.yul\":30638:30655   */\n      add\n        /* \"#utility.yul\":30631:30678   */\n      mstore\n        /* \"#utility.yul\":30695:30826   */\n      tag_740\n        /* \"#utility.yul\":30821:30825   */\n      dup2\n        /* \"#utility.yul\":30695:30826   */\n      tag_471\n      jump\t// in\n    tag_740:\n        /* \"#utility.yul\":30687:30826   */\n      swap1\n      pop\n        /* \"#utility.yul\":30414:30833   */\n      swap2\n      swap1\n      pop\n      jump\t// out\n        /* \"#utility.yul\":30839:31008   */\n    tag_472:\n        /* \"#utility.yul\":30979:31000   */\n      0x57455448206e6f7420636f6e6669677572656400000000000000000000000000\n        /* \"#utility.yul\":30975:30976   */\n      0x00\n        /* \"#utility.yul\":30967:30973   */\n      dup3\n        /* \"#utility.yul\":30963:30977   */\n      add\n        /* \"#utility.yul\":30956:31001   */\n      mstore\n        /* \"#utility.yul\":30839:31008   */\n      pop\n      jump\t// out\n        /* \"#utility.yul\":31014:31380   */\n    tag_473:\n        /* \"#utility.yul\":31156:31159   */\n      0x00\n        /* \"#utility.yul\":31177:31244   */\n      tag_743\n        /* \"#utility.yul\":31241:31243   */\n      0x13\n        /* \"#utility.yul\":31236:31239   */\n      dup4\n        /* \"#utility.yul\":31177:31244   */\n      tag_392\n      jump\t// in\n    tag_743:\n        /* \"#utility.yul\":31170:31244   */\n      swap2\n      pop\n        /* \"#utility.yul\":31253:31346   */\n      tag_744\n        /* \"#utility.yul\":31342:31345   */\n      dup3\n        /* \"#utility.yul\":31253:31346   */\n      tag_472\n      jump\t// in\n    tag_744:\n        /* \"#utility.yul\":31371:31373   */\n      0x20\n        /* \"#utility.yul\":31366:31369   */\n      dup3\n        /* \"#utility.yul\":31362:31374   */\n      add\n        /* \"#utility.yul\":31355:31374   */\n      swap1\n      pop\n        /* \"#utility.yul\":31014:31380   */\n      swap2\n      swap1\n      pop\n      jump\t// out\n        /* \"#utility.yul\":31386:31805   */\n    tag_270:\n        /* \"#utility.yul\":31552:31556   */\n      0x00\n        /* \"#utility.yul\":31590:31592   */\n      0x20\n        /* \"#utility.yul\":31579:31588   */\n      dup3\n        /* \"#utility.yul\":31575:31593   */\n      add\n        /* \"#utility.yul\":31567:31593   */\n      swap1\n      pop\n        /* \"#utility.yul\":31639:31648   */\n      dup2\n        /* \"#utility.yul\":31633:31637   */\n      dup2\n        /* \"#utility.yul\":31629:31649   */\n      sub\n        /* \"#utility.yul\":31625:31626   */\n      0x00\n        /* \"#utility.yul\":31614:31623   */\n      dup4\n        /* \"#utility.yul\":31610:31627   */\n      add\n        /* \"#utility.yul\":31603:31650   */\n      mstore\n        /* \"#utility.yul\":31667:31798   */\n      tag_746\n        /* \"#utility.yul\":31793:31797   */\n      dup2\n        /* \"#utility.yul\":31667:31798   */\n      tag_473\n      jump\t// in\n    tag_746:\n        /* \"#utility.yul\":31659:31798   */\n      swap1\n      pop\n        /* \"#utility.yul\":31386:31805   */\n      swap2\n      swap1\n      pop\n      jump\t// out\n        /* \"#utility.yul\":31811:31991   */\n    tag_474:\n        /* \"#utility.yul\":31951:31983   */\n      0x57455448206465706f73697420666f7277617264696e67206661696c65640000\n        /* \"#utility.yul\":31947:31948   */\n      0x00\n        /* \"#utility.yul\":31939:31945   */\n      dup3\n        /* \"#utility.yul\":31935:31949   */\n      add\n        /* \"#utility.yul\":31928:31984   */\n      mstore\n        /* \"#utility.yul\":31811:31991   */\n      pop\n      jump\t// out\n        /* \"#utility.yul\":31997:32363   */\n    tag_475:\n        /* \"#utility.yul\":32139:32142   */\n      0x00\n        /* \"#utility.yul\":32160:32227   */\n      tag_749\n        /* \"#utility.yul\":32224:32226   */\n      0x1e\n        /* \"#utility.yul\":32219:32222   */\n      dup4\n        /* \"#utility.yul\":32160:32227   */\n      tag_392\n      jump\t// in\n    tag_749:\n        /* \"#utility.yul\":32153:32227   */\n      swap2\n      pop\n        /* \"#utility.yul\":32236:32329   */\n      tag_750\n        /* \"#utility.yul\":32325:32328   */\n      dup3\n        /* \"#utility.yul\":32236:32329   */\n      tag_474\n      jump\t// in\n    tag_750:\n        /* \"#utility.yul\":32354:32356   */\n      0x20\n        /* \"#utility.yul\":32349:32352   */\n      dup3\n        /* \"#utility.yul\":32345:32357   */\n      add\n        /* \"#utility.yul\":32338:32357   */\n      swap1\n      pop\n        /* \"#utility.yul\":31997:32363   */\n      swap2\n      swap1\n      pop\n      jump\t// out\n        /* \"#utility.yul\":32369:32788   */\n    tag_282:\n        /* \"#utility.yul\":32535:32539   */\n      0x00\n        /* \"#utility.yul\":32573:32575   */\n      0x20\n        /* \"#utility.yul\":32562:32571   */\n      dup3\n        /* \"#utility.yul\":32558:32576   */\n      add\n        /* \"#utility.yul\":32550:32576   */\n      swap1\n      pop\n        /* \"#utility.yul\":32622:32631   */\n      dup2\n        /* \"#utility.yul\":32616:32620   */\n      dup2\n        /* \"#utility.yul\":32612:32632   */\n      sub\n        /* \"#utility.yul\":32608:32609   */\n      0x00\n        /* \"#utility.yul\":32597:32606   */\n      dup4\n        /* \"#utility.yul\":32593:32610   */\n      add\n        /* \"#utility.yul\":32586:32633   */\n      mstore\n        /* \"#utility.yul\":32650:32781   */\n      tag_752\n        /* \"#utility.yul\":32776:32780   */\n      dup2\n        /* \"#utility.yul\":32650:32781   */\n      tag_475\n      jump\t// in\n    tag_752:\n        /* \"#utility.yul\":32642:32781   */\n      swap1\n      pop\n        /* \"#utility.yul\":32369:32788   */\n      swap2\n      swap1\n      pop\n      jump\t// out\n        /* \"#utility.yul\":32794:33016   */\n    tag_284:\n        /* \"#utility.yul\":32887:32891   */\n      0x00\n        /* \"#utility.yul\":32925:32927   */\n      0x20\n        /* \"#utility.yul\":32914:32923   */\n      dup3\n        /* \"#utility.yul\":32910:32928   */\n      add\n        /* \"#utility.yul\":32902:32928   */\n      swap1\n      pop\n        /* \"#utility.yul\":32938:33009   */\n      tag_754\n        /* \"#utility.yul\":33006:33007   */\n      0x00\n        /* \"#utility.yul\":32995:33004   */\n      dup4\n        /* \"#utility.yul\":32991:33008   */\n      add\n        /* \"#utility.yul\":32982:32988   */\n      dup5\n        /* \"#utility.yul\":32938:33009   */\n      tag_415\n      jump\t// in\n    tag_754:\n        /* \"#utility.yul\":32794:33016   */\n      swap3\n      swap2\n      pop\n      pop\n      jump\t// out\n        /* \"#utility.yul\":33022:33196   */\n    tag_476:\n        /* \"#utility.yul\":33162:33188   */\n      0x5072697a65506f6f6c206e6f7420636f6e666967757265640000000000000000\n        /* \"#utility.yul\":33158:33159   */\n      0x00\n        /* \"#utility.yul\":33150:33156   */\n      dup3\n        /* \"#utility.yul\":33146:33160   */\n      add\n        /* \"#utility.yul\":33139:33189   */\n      mstore\n        /* \"#utility.yul\":33022:33196   */\n      pop\n      jump\t// out\n        /* \"#utility.yul\":33202:33568   */\n    tag_477:\n        /* \"#utility.yul\":33344:33347   */\n      0x00\n        /* \"#utility.yul\":33365:33432   */\n      tag_757\n        /* \"#utility.yul\":33429:33431   */\n      0x18\n        /* \"#utility.yul\":33424:33427   */\n      dup4\n        /* \"#utility.yul\":33365:33432   */\n      tag_392\n      jump\t// in\n    tag_757:\n        /* \"#utility.yul\":33358:33432   */\n      swap2\n      pop\n        /* \"#utility.yul\":33441:33534   */\n      tag_758\n        /* \"#utility.yul\":33530:33533   */\n      dup3\n        /* \"#utility.yul\":33441:33534   */\n      tag_476\n      jump\t// in\n    tag_758:\n        /* \"#utility.yul\":33559:33561   */\n      0x20\n        /* \"#utility.yul\":33554:33557   */\n      dup3\n        /* \"#utility.yul\":33550:33562   */\n      add\n        /* \"#utility.yul\":33543:33562   */\n      swap1\n      pop\n        /* \"#utility.yul\":33202:33568   */\n      swap2\n      swap1\n      pop\n      jump\t// out\n        /* \"#utility.yul\":33574:33993   */\n    tag_291:\n        /* \"#utility.yul\":33740:33744   */\n      0x00\n        /* \"#utility.yul\":33778:33780   */\n      0x20\n        /* \"#utility.yul\":33767:33776   */\n      dup3\n        /* \"#utility.yul\":33763:33781   */\n      add\n        /* \"#utility.yul\":33755:33781   */\n      swap1\n      pop\n        /* \"#utility.yul\":33827:33836   */\n      dup2\n        /* \"#utility.yul\":33821:33825   */\n      dup2\n        /* \"#utility.yul\":33817:33837   */\n      sub\n        /* \"#utility.yul\":33813:33814   */\n      0x00\n        /* \"#utility.yul\":33802:33811   */\n      dup4\n        /* \"#utility.yul\":33798:33815   */\n      add\n        /* \"#utility.yul\":33791:33838   */\n      mstore\n        /* \"#utility.yul\":33855:33986   */\n      tag_760\n        /* \"#utility.yul\":33981:33985   */\n      dup2\n        /* \"#utility.yul\":33855:33986   */\n      tag_477\n      jump\t// in\n    tag_760:\n        /* \"#utility.yul\":33847:33986   */\n      swap1\n      pop\n        /* \"#utility.yul\":33574:33993   */\n      swap2\n      swap1\n      pop\n      jump\t// out\n        /* \"#utility.yul\":33999:34115   */\n    tag_478:\n        /* \"#utility.yul\":34069:34090   */\n      tag_762\n        /* \"#utility.yul\":34084:34089   */\n      dup2\n        /* \"#utility.yul\":34069:34090   */\n      tag_407\n      jump\t// in\n    tag_762:\n        /* \"#utility.yul\":34062:34067   */\n      dup2\n        /* \"#utility.yul\":34059:34091   */\n      eq\n        /* \"#utility.yul\":34049:34109   */\n      tag_763\n      jumpi\n        /* \"#utility.yul\":34105:34106   */\n      0x00\n        /* \"#utility.yul\":34102:34103   */\n      0x00\n        /* \"#utility.yul\":34095:34107   */\n      revert\n        /* \"#utility.yul\":34049:34109   */\n    tag_763:\n        /* \"#utility.yul\":33999:34115   */\n      pop\n      jump\t// out\n        /* \"#utility.yul\":34121:34258   */\n    tag_479:\n        /* \"#utility.yul\":34175:34180   */\n      0x00\n        /* \"#utility.yul\":34206:34212   */\n      dup2\n        /* \"#utility.yul\":34200:34213   */\n      mload\n        /* \"#utility.yul\":34191:34213   */\n      swap1\n      pop\n        /* \"#utility.yul\":34222:34252   */\n      tag_765\n        /* \"#utility.yul\":34246:34251   */\n      dup2\n        /* \"#utility.yul\":34222:34252   */\n      tag_478\n      jump\t// in\n    tag_765:\n        /* \"#utility.yul\":34121:34258   */\n      swap3\n      swap2\n      pop\n      pop\n      jump\t// out\n        /* \"#utility.yul\":34300:35814   */\n    tag_480:\n        /* \"#utility.yul\":34390:34395   */\n      0x00\n        /* \"#utility.yul\":34434:34438   */\n      0xe0\n        /* \"#utility.yul\":34422:34431   */\n      dup3\n        /* \"#utility.yul\":34417:34420   */\n      dup5\n        /* \"#utility.yul\":34413:34432   */\n      sub\n        /* \"#utility.yul\":34409:34439   */\n      slt\n        /* \"#utility.yul\":34406:34523   */\n      iszero\n      tag_767\n      jumpi\n        /* \"#utility.yul\":34442:34521   */\n      tag_768\n      tag_422\n      jump\t// in\n    tag_768:\n        /* \"#utility.yul\":34406:34523   */\n    tag_767:\n        /* \"#utility.yul\":34541:34562   */\n      tag_769\n        /* \"#utility.yul\":34557:34561   */\n      0xe0\n        /* \"#utility.yul\":34541:34562   */\n      tag_426\n      jump\t// in\n    tag_769:\n        /* \"#utility.yul\":34532:34562   */\n      swap1\n      pop\n        /* \"#utility.yul\":34628:34629   */\n      0x00\n        /* \"#utility.yul\":34668:34728   */\n      tag_770\n        /* \"#utility.yul\":34724:34727   */\n      dup5\n        /* \"#utility.yul\":34715:34721   */\n      dup3\n        /* \"#utility.yul\":34704:34713   */\n      dup6\n        /* \"#utility.yul\":34700:34722   */\n      add\n        /* \"#utility.yul\":34668:34728   */\n      tag_449\n      jump\t// in\n    tag_770:\n        /* \"#utility.yul\":34661:34665   */\n      0x00\n        /* \"#utility.yul\":34654:34659   */\n      dup4\n        /* \"#utility.yul\":34650:34666   */\n      add\n        /* \"#utility.yul\":34643:34729   */\n      mstore\n        /* \"#utility.yul\":34572:34740   */\n      pop\n        /* \"#utility.yul\":34801:34803   */\n      0x20\n        /* \"#utility.yul\":34842:34902   */\n      tag_771\n        /* \"#utility.yul\":34898:34901   */\n      dup5\n        /* \"#utility.yul\":34889:34895   */\n      dup3\n        /* \"#utility.yul\":34878:34887   */\n      dup6\n        /* \"#utility.yul\":34874:34896   */\n      add\n        /* \"#utility.yul\":34842:34902   */\n      tag_459\n      jump\t// in\n    tag_771:\n        /* \"#utility.yul\":34835:34839   */\n      0x20\n        /* \"#utility.yul\":34828:34833   */\n      dup4\n        /* \"#utility.yul\":34824:34840   */\n      add\n        /* \"#utility.yul\":34817:34903   */\n      mstore\n        /* \"#utility.yul\":34750:34914   */\n      pop\n        /* \"#utility.yul\":34979:34981   */\n      0x40\n        /* \"#utility.yul\":35020:35080   */\n      tag_772\n        /* \"#utility.yul\":35076:35079   */\n      dup5\n        /* \"#utility.yul\":35067:35073   */\n      dup3\n        /* \"#utility.yul\":35056:35065   */\n      dup6\n        /* \"#utility.yul\":35052:35074   */\n      add\n        /* \"#utility.yul\":35020:35080   */\n      tag_449\n      jump\t// in\n    tag_772:\n        /* \"#utility.yul\":35013:35017   */\n      0x40\n        /* \"#utility.yul\":35006:35011   */\n      dup4\n        /* \"#utility.yul\":35002:35018   */\n      add\n        /* \"#utility.yul\":34995:35081   */\n      mstore\n        /* \"#utility.yul\":34924:35092   */\n      pop\n        /* \"#utility.yul\":35156:35158   */\n      0x60\n        /* \"#utility.yul\":35197:35257   */\n      tag_773\n        /* \"#utility.yul\":35253:35256   */\n      dup5\n        /* \"#utility.yul\":35244:35250   */\n      dup3\n        /* \"#utility.yul\":35233:35242   */\n      dup6\n        /* \"#utility.yul\":35229:35251   */\n      add\n        /* \"#utility.yul\":35197:35257   */\n      tag_449\n      jump\t// in\n    tag_773:\n        /* \"#utility.yul\":35190:35194   */\n      0x60\n        /* \"#utility.yul\":35183:35188   */\n      dup4\n        /* \"#utility.yul\":35179:35195   */\n      add\n        /* \"#utility.yul\":35172:35258   */\n      mstore\n        /* \"#utility.yul\":35102:35269   */\n      pop\n        /* \"#utility.yul\":35336:35339   */\n      0x80\n        /* \"#utility.yul\":35378:35438   */\n      tag_774\n        /* \"#utility.yul\":35434:35437   */\n      dup5\n        /* \"#utility.yul\":35425:35431   */\n      dup3\n        /* \"#utility.yul\":35414:35423   */\n      dup6\n        /* \"#utility.yul\":35410:35432   */\n      add\n        /* \"#utility.yul\":35378:35438   */\n      tag_449\n      jump\t// in\n    tag_774:\n        /* \"#utility.yul\":35371:35375   */\n      0x80\n        /* \"#utility.yul\":35364:35369   */\n      dup4\n        /* \"#utility.yul\":35360:35376   */\n      add\n        /* \"#utility.yul\":35353:35439   */\n      mstore\n        /* \"#utility.yul\":35279:35450   */\n      pop\n        /* \"#utility.yul\":35514:35517   */\n      0xa0\n        /* \"#utility.yul\":35556:35613   */\n      tag_775\n        /* \"#utility.yul\":35609:35612   */\n      dup5\n        /* \"#utility.yul\":35600:35606   */\n      dup3\n        /* \"#utility.yul\":35589:35598   */\n      dup6\n        /* \"#utility.yul\":35585:35607   */\n      add\n        /* \"#utility.yul\":35556:35613   */\n      tag_479\n      jump\t// in\n    tag_775:\n        /* \"#utility.yul\":35549:35553   */\n      0xa0\n        /* \"#utility.yul\":35542:35547   */\n      dup4\n        /* \"#utility.yul\":35538:35554   */\n      add\n        /* \"#utility.yul\":35531:35614   */\n      mstore\n        /* \"#utility.yul\":35460:35625   */\n      pop\n        /* \"#utility.yul\":35693:35696   */\n      0xc0\n        /* \"#utility.yul\":35735:35795   */\n      tag_776\n        /* \"#utility.yul\":35791:35794   */\n      dup5\n        /* \"#utility.yul\":35782:35788   */\n      dup3\n        /* \"#utility.yul\":35771:35780   */\n      dup6\n        /* \"#utility.yul\":35767:35789   */\n      add\n        /* \"#utility.yul\":35735:35795   */\n      tag_449\n      jump\t// in\n    tag_776:\n        /* \"#utility.yul\":35728:35732   */\n      0xc0\n        /* \"#utility.yul\":35721:35726   */\n      dup4\n        /* \"#utility.yul\":35717:35733   */\n      add\n        /* \"#utility.yul\":35710:35796   */\n      mstore\n        /* \"#utility.yul\":35635:35807   */\n      pop\n        /* \"#utility.yul\":34300:35814   */\n      swap3\n      swap2\n      pop\n      pop\n      jump\t// out\n        /* \"#utility.yul\":35820:36232   */\n    tag_298:\n        /* \"#utility.yul\":35920:35926   */\n      0x00\n        /* \"#utility.yul\":35969:35972   */\n      0xe0\n        /* \"#utility.yul\":35957:35966   */\n      dup3\n        /* \"#utility.yul\":35948:35955   */\n      dup5\n        /* \"#utility.yul\":35944:35967   */\n      sub\n        /* \"#utility.yul\":35940:35973   */\n      slt\n        /* \"#utility.yul\":35937:36057   */\n      iszero\n      tag_778\n      jumpi\n        /* \"#utility.yul\":35976:36055   */\n      tag_779\n      tag_396\n      jump\t// in\n    tag_779:\n        /* \"#utility.yul\":35937:36057   */\n    tag_778:\n        /* \"#utility.yul\":36096:36097   */\n      0x00\n        /* \"#utility.yul\":36121:36215   */\n      tag_780\n        /* \"#utility.yul\":36207:36214   */\n      dup5\n        /* \"#utility.yul\":36198:36204   */\n      dup3\n        /* \"#utility.yul\":36187:36196   */\n      dup6\n        /* \"#utility.yul\":36183:36205   */\n      add\n        /* \"#utility.yul\":36121:36215   */\n      tag_480\n      jump\t// in\n    tag_780:\n        /* \"#utility.yul\":36111:36215   */\n      swap2\n      pop\n        /* \"#utility.yul\":36067:36225   */\n      pop\n        /* \"#utility.yul\":35820:36232   */\n      swap3\n      swap2\n      pop\n      pop\n      jump\t// out\n        /* \"#utility.yul\":36238:36415   */\n    tag_481:\n        /* \"#utility.yul\":36378:36407   */\n      0x4f6e6c792077696e6e65722063616e20636c61696d207072697a650000000000\n        /* \"#utility.yul\":36374:36375   */\n      0x00\n        /* \"#utility.yul\":36366:36372   */\n      dup3\n        /* \"#utility.yul\":36362:36376   */\n      add\n        /* \"#utility.yul\":36355:36408   */\n      mstore\n        /* \"#utility.yul\":36238:36415   */\n      pop\n      jump\t// out\n        /* \"#utility.yul\":36421:36787   */\n    tag_482:\n        /* \"#utility.yul\":36563:36566   */\n      0x00\n        /* \"#utility.yul\":36584:36651   */\n      tag_783\n        /* \"#utility.yul\":36648:36650   */\n      0x1b\n        /* \"#utility.yul\":36643:36646   */\n      dup4\n        /* \"#utility.yul\":36584:36651   */\n      tag_392\n      jump\t// in\n    tag_783:\n        /* \"#utility.yul\":36577:36651   */\n      swap2\n      pop\n        /* \"#utility.yul\":36660:36753   */\n      tag_784\n        /* \"#utility.yul\":36749:36752   */\n      dup3\n        /* \"#utility.yul\":36660:36753   */\n      tag_481\n      jump\t// in\n    tag_784:\n        /* \"#utility.yul\":36778:36780   */\n      0x20\n        /* \"#utility.yul\":36773:36776   */\n      dup3\n        /* \"#utility.yul\":36769:36781   */\n      add\n        /* \"#utility.yul\":36762:36781   */\n      swap1\n      pop\n        /* \"#utility.yul\":36421:36787   */\n      swap2\n      swap1\n      pop\n      jump\t// out\n        /* \"#utility.yul\":36793:37212   */\n    tag_301:\n        /* \"#utility.yul\":36959:36963   */\n      0x00\n        /* \"#utility.yul\":36997:36999   */\n      0x20\n        /* \"#utility.yul\":36986:36995   */\n      dup3\n        /* \"#utility.yul\":36982:37000   */\n      add\n        /* \"#utility.yul\":36974:37000   */\n      swap1\n      pop\n        /* \"#utility.yul\":37046:37055   */\n      dup2\n        /* \"#utility.yul\":37040:37044   */\n      dup2\n        /* \"#utility.yul\":37036:37056   */\n      sub\n        /* \"#utility.yul\":37032:37033   */\n      0x00\n        /* \"#utility.yul\":37021:37030   */\n      dup4\n        /* \"#utility.yul\":37017:37034   */\n      add\n        /* \"#utility.yul\":37010:37057   */\n      mstore\n        /* \"#utility.yul\":37074:37205   */\n      tag_786\n        /* \"#utility.yul\":37200:37204   */\n      dup2\n        /* \"#utility.yul\":37074:37205   */\n      tag_482\n      jump\t// in\n    tag_786:\n        /* \"#utility.yul\":37066:37205   */\n      swap1\n      pop\n        /* \"#utility.yul\":36793:37212   */\n      swap2\n      swap1\n      pop\n      jump\t// out\n        /* \"#utility.yul\":37218:37389   */\n    tag_483:\n        /* \"#utility.yul\":37358:37381   */\n      0x5072697a6520616c726561647920636c61696d65640000000000000000000000\n        /* \"#utility.yul\":37354:37355   */\n      0x00\n        /* \"#utility.yul\":37346:37352   */\n      dup3\n        /* \"#utility.yul\":37342:37356   */\n      add\n        /* \"#utility.yul\":37335:37382   */\n      mstore\n        /* \"#utility.yul\":37218:37389   */\n      pop\n      jump\t// out\n        /* \"#utility.yul\":37395:37761   */\n    tag_484:\n        /* \"#utility.yul\":37537:37540   */\n      0x00\n        /* \"#utility.yul\":37558:37625   */\n      tag_789\n        /* \"#utility.yul\":37622:37624   */\n      0x15\n        /* \"#utility.yul\":37617:37620   */\n      dup4\n        /* \"#utility.yul\":37558:37625   */\n      tag_392\n      jump\t// in\n    tag_789:\n        /* \"#utility.yul\":37551:37625   */\n      swap2\n      pop\n        /* \"#utility.yul\":37634:37727   */\n      tag_790\n        /* \"#utility.yul\":37723:37726   */\n      dup3\n        /* \"#utility.yul\":37634:37727   */\n      tag_483\n      jump\t// in\n    tag_790:\n        /* \"#utility.yul\":37752:37754   */\n      0x20\n        /* \"#utility.yul\":37747:37750   */\n      dup3\n        /* \"#utility.yul\":37743:37755   */\n      add\n        /* \"#utility.yul\":37736:37755   */\n      swap1\n      pop\n        /* \"#utility.yul\":37395:37761   */\n      swap2\n      swap1\n      pop\n      jump\t// out\n        /* \"#utility.yul\":37767:38186   */\n    tag_304:\n        /* \"#utility.yul\":37933:37937   */\n      0x00\n        /* \"#utility.yul\":37971:37973   */\n      0x20\n        /* \"#utility.yul\":37960:37969   */\n      dup3\n        /* \"#utility.yul\":37956:37974   */\n      add\n        /* \"#utility.yul\":37948:37974   */\n      swap1\n      pop\n        /* \"#utility.yul\":38020:38029   */\n      dup2\n        /* \"#utility.yul\":38014:38018   */\n      dup2\n        /* \"#utility.yul\":38010:38030   */\n      sub\n        /* \"#utility.yul\":38006:38007   */\n      0x00\n        /* \"#utility.yul\":37995:38004   */\n      dup4\n        /* \"#utility.yul\":37991:38008   */\n      add\n        /* \"#utility.yul\":37984:38031   */\n      mstore\n        /* \"#utility.yul\":38048:38179   */\n      tag_792\n        /* \"#utility.yul\":38174:38178   */\n      dup2\n        /* \"#utility.yul\":38048:38179   */\n      tag_484\n      jump\t// in\n    tag_792:\n        /* \"#utility.yul\":38040:38179   */\n      swap1\n      pop\n        /* \"#utility.yul\":37767:38186   */\n      swap2\n      swap1\n      pop\n      jump\t// out\n        /* \"#utility.yul\":38192:38524   */\n    tag_310:\n        /* \"#utility.yul\":38313:38317   */\n      0x00\n        /* \"#utility.yul\":38351:38353   */\n      0x40\n        /* \"#utility.yul\":38340:38349   */\n      dup3\n        /* \"#utility.yul\":38336:38354   */\n      add\n        /* \"#utility.yul\":38328:38354   */\n      swap1\n      pop\n        /* \"#utility.yul\":38364:38435   */\n      tag_794\n        /* \"#utility.yul\":38432:38433   */\n      0x00\n        /* \"#utility.yul\":38421:38430   */\n      dup4\n        /* \"#utility.yul\":38417:38434   */\n      add\n        /* \"#utility.yul\":38408:38414   */\n      dup6\n        /* \"#utility.yul\":38364:38435   */\n      tag_415\n      jump\t// in\n    tag_794:\n        /* \"#utility.yul\":38445:38517   */\n      tag_795\n        /* \"#utility.yul\":38513:38515   */\n      0x20\n        /* \"#utility.yul\":38502:38511   */\n      dup4\n        /* \"#utility.yul\":38498:38516   */\n      add\n        /* \"#utility.yul\":38489:38495   */\n      dup5\n        /* \"#utility.yul\":38445:38517   */\n      tag_415\n      jump\t// in\n    tag_795:\n        /* \"#utility.yul\":38192:38524   */\n      swap4\n      swap3\n      pop\n      pop\n      pop\n      jump\t// out\n        /* \"#utility.yul\":38530:38703   */\n    tag_485:\n        /* \"#utility.yul\":38670:38695   */\n      0x496e76616c6964206c6f74746572792061646472657373000000000000000000\n        /* \"#utility.yul\":38666:38667   */\n      0x00\n        /* \"#utility.yul\":38658:38664   */\n      dup3\n        /* \"#utility.yul\":38654:38668   */\n      add\n        /* \"#utility.yul\":38647:38696   */\n      mstore\n        /* \"#utility.yul\":38530:38703   */\n      pop\n      jump\t// out\n        /* \"#utility.yul\":38709:39075   */\n    tag_486:\n        /* \"#utility.yul\":38851:38854   */\n      0x00\n        /* \"#utility.yul\":38872:38939   */\n      tag_798\n        /* \"#utility.yul\":38936:38938   */\n      0x17\n        /* \"#utility.yul\":38931:38934   */\n      dup4\n        /* \"#utility.yul\":38872:38939   */\n      tag_392\n      jump\t// in\n    tag_798:\n        /* \"#utility.yul\":38865:38939   */\n      swap2\n      pop\n        /* \"#utility.yul\":38948:39041   */\n      tag_799\n        /* \"#utility.yul\":39037:39040   */\n      dup3\n        /* \"#utility.yul\":38948:39041   */\n      tag_485\n      jump\t// in\n    tag_799:\n        /* \"#utility.yul\":39066:39068   */\n      0x20\n        /* \"#utility.yul\":39061:39064   */\n      dup3\n        /* \"#utility.yul\":39057:39069   */\n      add\n        /* \"#utility.yul\":39050:39069   */\n      swap1\n      pop\n        /* \"#utility.yul\":38709:39075   */\n      swap2\n      swap1\n      pop\n      jump\t// out\n        /* \"#utility.yul\":39081:39500   */\n    tag_319:\n        /* \"#utility.yul\":39247:39251   */\n      0x00\n        /* \"#utility.yul\":39285:39287   */\n      0x20\n        /* \"#utility.yul\":39274:39283   */\n      dup3\n        /* \"#utility.yul\":39270:39288   */\n      add\n        /* \"#utility.yul\":39262:39288   */\n      swap1\n      pop\n        /* \"#utility.yul\":39334:39343   */\n      dup2\n        /* \"#utility.yul\":39328:39332   */\n      dup2\n        /* \"#utility.yul\":39324:39344   */\n      sub\n        /* \"#utility.yul\":39320:39321   */\n      0x00\n        /* \"#utility.yul\":39309:39318   */\n      dup4\n        /* \"#utility.yul\":39305:39322   */\n      add\n        /* \"#utility.yul\":39298:39345   */\n      mstore\n        /* \"#utility.yul\":39362:39493   */\n      tag_801\n        /* \"#utility.yul\":39488:39492   */\n      dup2\n        /* \"#utility.yul\":39362:39493   */\n      tag_486\n      jump\t// in\n    tag_801:\n        /* \"#utility.yul\":39354:39493   */\n      swap1\n      pop\n        /* \"#utility.yul\":39081:39500   */\n      swap2\n      swap1\n      pop\n      jump\t// out\n        /* \"#utility.yul\":39506:39663   */\n    tag_487:\n        /* \"#utility.yul\":39646:39655   */\n      0x6c6f747465727900000000000000000000000000000000000000000000000000\n        /* \"#utility.yul\":39642:39643   */\n      0x00\n        /* \"#utility.yul\":39634:39640   */\n      dup3\n        /* \"#utility.yul\":39630:39644   */\n      add\n        /* \"#utility.yul\":39623:39656   */\n      mstore\n        /* \"#utility.yul\":39506:39663   */\n      pop\n      jump\t// out\n        /* \"#utility.yul\":39669:40069   */\n    tag_488:\n        /* \"#utility.yul\":39829:39832   */\n      0x00\n        /* \"#utility.yul\":39850:39934   */\n      tag_804\n        /* \"#utility.yul\":39932:39933   */\n      0x07\n        /* \"#utility.yul\":39927:39930   */\n      dup4\n        /* \"#utility.yul\":39850:39934   */\n      tag_444\n      jump\t// in\n    tag_804:\n        /* \"#utility.yul\":39843:39934   */\n      swap2\n      pop\n        /* \"#utility.yul\":39943:40036   */\n      tag_805\n        /* \"#utility.yul\":40032:40035   */\n      dup3\n        /* \"#utility.yul\":39943:40036   */\n      tag_487\n      jump\t// in\n    tag_805:\n        /* \"#utility.yul\":40061:40062   */\n      0x07\n        /* \"#utility.yul\":40056:40059   */\n      dup3\n        /* \"#utility.yul\":40052:40063   */\n      add\n        /* \"#utility.yul\":40045:40063   */\n      swap1\n      pop\n        /* \"#utility.yul\":39669:40069   */\n      swap2\n      swap1\n      pop\n      jump\t// out\n        /* \"#utility.yul\":40075:40456   */\n    tag_321:\n        /* \"#utility.yul\":40260:40263   */\n      0x00\n        /* \"#utility.yul\":40282:40430   */\n      tag_807\n        /* \"#utility.yul\":40426:40429   */\n      dup3\n        /* \"#utility.yul\":40282:40430   */\n      tag_488\n      jump\t// in\n    tag_807:\n        /* \"#utility.yul\":40275:40430   */\n      swap2\n      pop\n        /* \"#utility.yul\":40447:40450   */\n      dup2\n        /* \"#utility.yul\":40440:40450   */\n      swap1\n      pop\n        /* \"#utility.yul\":40075:40456   */\n      swap2\n      swap1\n      pop\n      jump\t// out\n        /* \"#utility.yul\":40462:40687   */\n    tag_489:\n        /* \"#utility.yul\":40602:40636   */\n      0x4f776e61626c653a206e6577206f776e657220697320746865207a65726f2061\n        /* \"#utility.yul\":40598:40599   */\n      0x00\n        /* \"#utility.yul\":40590:40596   */\n      dup3\n        /* \"#utility.yul\":40586:40600   */\n      add\n        /* \"#utility.yul\":40579:40637   */\n      mstore\n        /* \"#utility.yul\":40671:40679   */\n      0x6464726573730000000000000000000000000000000000000000000000000000\n        /* \"#utility.yul\":40666:40668   */\n      0x20\n        /* \"#utility.yul\":40658:40664   */\n      dup3\n        /* \"#utility.yul\":40654:40669   */\n      add\n        /* \"#utility.yul\":40647:40680   */\n      mstore\n        /* \"#utility.yul\":40462:40687   */\n      pop\n      jump\t// out\n        /* \"#utility.yul\":40693:41059   */\n    tag_490:\n        /* \"#utility.yul\":40835:40838   */\n      0x00\n        /* \"#utility.yul\":40856:40923   */\n      tag_810\n        /* \"#utility.yul\":40920:40922   */\n      0x26\n        /* \"#utility.yul\":40915:40918   */\n      dup4\n        /* \"#utility.yul\":40856:40923   */\n      tag_392\n      jump\t// in\n    tag_810:\n        /* \"#utility.yul\":40849:40923   */\n      swap2\n      pop\n        /* \"#utility.yul\":40932:41025   */\n      tag_811\n        /* \"#utility.yul\":41021:41024   */\n      dup3\n        /* \"#utility.yul\":40932:41025   */\n      tag_489\n      jump\t// in\n    tag_811:\n        /* \"#utility.yul\":41050:41052   */\n      0x40\n        /* \"#utility.yul\":41045:41048   */\n      dup3\n        /* \"#utility.yul\":41041:41053   */\n      add\n        /* \"#utility.yul\":41034:41053   */\n      swap1\n      pop\n        /* \"#utility.yul\":40693:41059   */\n      swap2\n      swap1\n      pop\n      jump\t// out\n        /* \"#utility.yul\":41065:41484   */\n    tag_330:\n        /* \"#utility.yul\":41231:41235   */\n      0x00\n        /* \"#utility.yul\":41269:41271   */\n      0x20\n        /* \"#utility.yul\":41258:41267   */\n      dup3\n        /* \"#utility.yul\":41254:41272   */\n      add\n        /* \"#utility.yul\":41246:41272   */\n      swap1\n      pop\n        /* \"#utility.yul\":41318:41327   */\n      dup2\n        /* \"#utility.yul\":41312:41316   */\n      dup2\n        /* \"#utility.yul\":41308:41328   */\n      sub\n        /* \"#utility.yul\":41304:41305   */\n      0x00\n        /* \"#utility.yul\":41293:41302   */\n      dup4\n        /* \"#utility.yul\":41289:41306   */\n      add\n        /* \"#utility.yul\":41282:41329   */\n      mstore\n        /* \"#utility.yul\":41346:41477   */\n      tag_813\n        /* \"#utility.yul\":41472:41476   */\n      dup2\n        /* \"#utility.yul\":41346:41477   */\n      tag_490\n      jump\t// in\n    tag_813:\n        /* \"#utility.yul\":41338:41477   */\n      swap1\n      pop\n        /* \"#utility.yul\":41065:41484   */\n      swap2\n      swap1\n      pop\n      jump\t// out\n        /* \"#utility.yul\":41490:41822   */\n    tag_339:\n        /* \"#utility.yul\":41611:41615   */\n      0x00\n        /* \"#utility.yul\":41649:41651   */\n      0x40\n        /* \"#utility.yul\":41638:41647   */\n      dup3\n        /* \"#utility.yul\":41634:41652   */\n      add\n        /* \"#utility.yul\":41626:41652   */\n      swap1\n      pop\n        /* \"#utility.yul\":41662:41733   */\n      tag_815\n        /* \"#utility.yul\":41730:41731   */\n      0x00\n        /* \"#utility.yul\":41719:41728   */\n      dup4\n        /* \"#utility.yul\":41715:41732   */\n      add\n        /* \"#utility.yul\":41706:41712   */\n      dup6\n        /* \"#utility.yul\":41662:41733   */\n      tag_415\n      jump\t// in\n    tag_815:\n        /* \"#utility.yul\":41743:41815   */\n      tag_816\n        /* \"#utility.yul\":41811:41813   */\n      0x20\n        /* \"#utility.yul\":41800:41809   */\n      dup4\n        /* \"#utility.yul\":41796:41814   */\n      add\n        /* \"#utility.yul\":41787:41793   */\n      dup5\n        /* \"#utility.yul\":41743:41815   */\n      tag_410\n      jump\t// in\n    tag_816:\n        /* \"#utility.yul\":41490:41822   */\n      swap4\n      swap3\n      pop\n      pop\n      pop\n      jump\t// out\n        /* \"#utility.yul\":41828:41995   */\n    tag_491:\n        /* \"#utility.yul\":41968:41987   */\n      0x5769746864726177616c206661696c6564000000000000000000000000000000\n        /* \"#utility.yul\":41964:41965   */\n      0x00\n        /* \"#utility.yul\":41956:41962   */\n      dup3\n        /* \"#utility.yul\":41952:41966   */\n      add\n        /* \"#utility.yul\":41945:41988   */\n      mstore\n        /* \"#utility.yul\":41828:41995   */\n      pop\n      jump\t// out\n        /* \"#utility.yul\":42001:42367   */\n    tag_492:\n        /* \"#utility.yul\":42143:42146   */\n      0x00\n        /* \"#utility.yul\":42164:42231   */\n      tag_819\n        /* \"#utility.yul\":42228:42230   */\n      0x11\n        /* \"#utility.yul\":42223:42226   */\n      dup4\n        /* \"#utility.yul\":42164:42231   */\n      tag_392\n      jump\t// in\n    tag_819:\n        /* \"#utility.yul\":42157:42231   */\n      swap2\n      pop\n        /* \"#utility.yul\":42240:42333   */\n      tag_820\n        /* \"#utility.yul\":42329:42332   */\n      dup3\n        /* \"#utility.yul\":42240:42333   */\n      tag_491\n      jump\t// in\n    tag_820:\n        /* \"#utility.yul\":42358:42360   */\n      0x20\n        /* \"#utility.yul\":42353:42356   */\n      dup3\n        /* \"#utility.yul\":42349:42361   */\n      add\n        /* \"#utility.yul\":42342:42361   */\n      swap1\n      pop\n        /* \"#utility.yul\":42001:42367   */\n      swap2\n      swap1\n      pop\n      jump\t// out\n        /* \"#utility.yul\":42373:42792   */\n    tag_346:\n        /* \"#utility.yul\":42539:42543   */\n      0x00\n        /* \"#utility.yul\":42577:42579   */\n      0x20\n        /* \"#utility.yul\":42566:42575   */\n      dup3\n        /* \"#utility.yul\":42562:42580   */\n      add\n        /* \"#utility.yul\":42554:42580   */\n      swap1\n      pop\n        /* \"#utility.yul\":42626:42635   */\n      dup2\n        /* \"#utility.yul\":42620:42624   */\n      dup2\n        /* \"#utility.yul\":42616:42636   */\n      sub\n        /* \"#utility.yul\":42612:42613   */\n      0x00\n        /* \"#utility.yul\":42601:42610   */\n      dup4\n        /* \"#utility.yul\":42597:42614   */\n      add\n        /* \"#utility.yul\":42590:42637   */\n      mstore\n        /* \"#utility.yul\":42654:42785   */\n      tag_822\n        /* \"#utility.yul\":42780:42784   */\n      dup2\n        /* \"#utility.yul\":42654:42785   */\n      tag_492\n      jump\t// in\n    tag_822:\n        /* \"#utility.yul\":42646:42785   */\n      swap1\n      pop\n        /* \"#utility.yul\":42373:42792   */\n      swap2\n      swap1\n      pop\n      jump\t// out\n        /* \"#utility.yul\":42798:43240   */\n    tag_352:\n        /* \"#utility.yul\":42947:42951   */\n      0x00\n        /* \"#utility.yul\":42985:42987   */\n      0x60\n        /* \"#utility.yul\":42974:42983   */\n      dup3\n        /* \"#utility.yul\":42970:42988   */\n      add\n        /* \"#utility.yul\":42962:42988   */\n      swap1\n      pop\n        /* \"#utility.yul\":42998:43069   */\n      tag_824\n        /* \"#utility.yul\":43066:43067   */\n      0x00\n        /* \"#utility.yul\":43055:43064   */\n      dup4\n        /* \"#utility.yul\":43051:43068   */\n      add\n        /* \"#utility.yul\":43042:43048   */\n      dup7\n        /* \"#utility.yul\":42998:43069   */\n      tag_410\n      jump\t// in\n    tag_824:\n        /* \"#utility.yul\":43079:43151   */\n      tag_825\n        /* \"#utility.yul\":43147:43149   */\n      0x20\n        /* \"#utility.yul\":43136:43145   */\n      dup4\n        /* \"#utility.yul\":43132:43150   */\n      add\n        /* \"#utility.yul\":43123:43129   */\n      dup6\n        /* \"#utility.yul\":43079:43151   */\n      tag_410\n      jump\t// in\n    tag_825:\n        /* \"#utility.yul\":43161:43233   */\n      tag_826\n        /* \"#utility.yul\":43229:43231   */\n      0x40\n        /* \"#utility.yul\":43218:43227   */\n      dup4\n        /* \"#utility.yul\":43214:43232   */\n      add\n        /* \"#utility.yul\":43205:43211   */\n      dup5\n        /* \"#utility.yul\":43161:43233   */\n      tag_415\n      jump\t// in\n    tag_826:\n        /* \"#utility.yul\":42798:43240   */\n      swap5\n      swap4\n      pop\n      pop\n      pop\n      pop\n      jump\t// out\n        /* \"#utility.yul\":43246:43591   */\n    tag_362:\n        /* \"#utility.yul\":43313:43319   */\n      0x00\n        /* \"#utility.yul\":43362:43364   */\n      0x20\n        /* \"#utility.yul\":43350:43359   */\n      dup3\n        /* \"#utility.yul\":43341:43348   */\n      dup5\n        /* \"#utility.yul\":43337:43360   */\n      sub\n        /* \"#utility.yul\":43333:43365   */\n      slt\n        /* \"#utility.yul\":43330:43449   */\n      iszero\n      tag_828\n      jumpi\n        /* \"#utility.yul\":43368:43447   */\n      tag_829\n      tag_396\n      jump\t// in\n    tag_829:\n        /* \"#utility.yul\":43330:43449   */\n    tag_828:\n        /* \"#utility.yul\":43488:43489   */\n      0x00\n        /* \"#utility.yul\":43513:43574   */\n      tag_830\n        /* \"#utility.yul\":43566:43573   */\n      dup5\n        /* \"#utility.yul\":43557:43563   */\n      dup3\n        /* \"#utility.yul\":43546:43555   */\n      dup6\n        /* \"#utility.yul\":43542:43564   */\n      add\n        /* \"#utility.yul\":43513:43574   */\n      tag_479\n      jump\t// in\n    tag_830:\n        /* \"#utility.yul\":43503:43574   */\n      swap2\n      pop\n        /* \"#utility.yul\":43459:43584   */\n      pop\n        /* \"#utility.yul\":43246:43591   */\n      swap3\n      swap2\n      pop\n      pop\n      jump\t// out\n        /* \"#utility.yul\":43597:43826   */\n    tag_493:\n        /* \"#utility.yul\":43737:43771   */\n      0x5361666545524332303a204552433230206f7065726174696f6e20646964206e\n        /* \"#utility.yul\":43733:43734   */\n      0x00\n        /* \"#utility.yul\":43725:43731   */\n      dup3\n        /* \"#utility.yul\":43721:43735   */\n      add\n        /* \"#utility.yul\":43714:43772   */\n      mstore\n        /* \"#utility.yul\":43806:43818   */\n      0x6f74207375636365656400000000000000000000000000000000000000000000\n        /* \"#utility.yul\":43801:43803   */\n      0x20\n        /* \"#utility.yul\":43793:43799   */\n      dup3\n        /* \"#utility.yul\":43789:43804   */\n      add\n        /* \"#utility.yul\":43782:43819   */\n      mstore\n        /* \"#utility.yul\":43597:43826   */\n      pop\n      jump\t// out\n        /* \"#utility.yul\":43832:44198   */\n    tag_494:\n        /* \"#utility.yul\":43974:43977   */\n      0x00\n        /* \"#utility.yul\":43995:44062   */\n      tag_833\n        /* \"#utility.yul\":44059:44061   */\n      0x2a\n        /* \"#utility.yul\":44054:44057   */\n      dup4\n        /* \"#utility.yul\":43995:44062   */\n      tag_392\n      jump\t// in\n    tag_833:\n        /* \"#utility.yul\":43988:44062   */\n      swap2\n      pop\n        /* \"#utility.yul\":44071:44164   */\n      tag_834\n        /* \"#utility.yul\":44160:44163   */\n      dup3\n        /* \"#utility.yul\":44071:44164   */\n      tag_493\n      jump\t// in\n    tag_834:\n        /* \"#utility.yul\":44189:44191   */\n      0x40\n        /* \"#utility.yul\":44184:44187   */\n      dup3\n        /* \"#utility.yul\":44180:44192   */\n      add\n        /* \"#utility.yul\":44173:44192   */\n      swap1\n      pop\n        /* \"#utility.yul\":43832:44198   */\n      swap2\n      swap1\n      pop\n      jump\t// out\n        /* \"#utility.yul\":44204:44623   */\n    tag_365:\n        /* \"#utility.yul\":44370:44374   */\n      0x00\n        /* \"#utility.yul\":44408:44410   */\n      0x20\n        /* \"#utility.yul\":44397:44406   */\n      dup3\n        /* \"#utility.yul\":44393:44411   */\n      add\n        /* \"#utility.yul\":44385:44411   */\n      swap1\n      pop\n        /* \"#utility.yul\":44457:44466   */\n      dup2\n        /* \"#utility.yul\":44451:44455   */\n      dup2\n        /* \"#utility.yul\":44447:44467   */\n      sub\n        /* \"#utility.yul\":44443:44444   */\n      0x00\n        /* \"#utility.yul\":44432:44441   */\n      dup4\n        /* \"#utility.yul\":44428:44445   */\n      add\n        /* \"#utility.yul\":44421:44468   */\n      mstore\n        /* \"#utility.yul\":44485:44616   */\n      tag_836\n        /* \"#utility.yul\":44611:44615   */\n      dup2\n        /* \"#utility.yul\":44485:44616   */\n      tag_494\n      jump\t// in\n    tag_836:\n        /* \"#utility.yul\":44477:44616   */\n      swap1\n      pop\n        /* \"#utility.yul\":44204:44623   */\n      swap2\n      swap1\n      pop\n      jump\t// out\n        /* \"#utility.yul\":44629:44854   */\n    tag_495:\n        /* \"#utility.yul\":44769:44803   */\n      0x416464726573733a20696e73756666696369656e742062616c616e636520666f\n        /* \"#utility.yul\":44765:44766   */\n      0x00\n        /* \"#utility.yul\":44757:44763   */\n      dup3\n        /* \"#utility.yul\":44753:44767   */\n      add\n        /* \"#utility.yul\":44746:44804   */\n      mstore\n        /* \"#utility.yul\":44838:44846   */\n      0x722063616c6c0000000000000000000000000000000000000000000000000000\n        /* \"#utility.yul\":44833:44835   */\n      0x20\n        /* \"#utility.yul\":44825:44831   */\n      dup3\n        /* \"#utility.yul\":44821:44836   */\n      add\n        /* \"#utility.yul\":44814:44847   */\n      mstore\n        /* \"#utility.yul\":44629:44854   */\n      pop\n      jump\t// out\n        /* \"#utility.yul\":44860:45226   */\n    tag_496:\n        /* \"#utility.yul\":45002:45005   */\n      0x00\n        /* \"#utility.yul\":45023:45090   */\n      tag_839\n        /* \"#utility.yul\":45087:45089   */\n      0x26\n        /* \"#utility.yul\":45082:45085   */\n      dup4\n        /* \"#utility.yul\":45023:45090   */\n      tag_392\n      jump\t// in\n    tag_839:\n        /* \"#utility.yul\":45016:45090   */\n      swap2\n      pop\n        /* \"#utility.yul\":45099:45192   */\n      tag_840\n        /* \"#utility.yul\":45188:45191   */\n      dup3\n        /* \"#utility.yul\":45099:45192   */\n      tag_495\n      jump\t// in\n    tag_840:\n        /* \"#utility.yul\":45217:45219   */\n      0x40\n        /* \"#utility.yul\":45212:45215   */\n      dup3\n        /* \"#utility.yul\":45208:45220   */\n      add\n        /* \"#utility.yul\":45201:45220   */\n      swap1\n      pop\n        /* \"#utility.yul\":44860:45226   */\n      swap2\n      swap1\n      pop\n      jump\t// out\n        /* \"#utility.yul\":45232:45651   */\n    tag_372:\n        /* \"#utility.yul\":45398:45402   */\n      0x00\n        /* \"#utility.yul\":45436:45438   */\n      0x20\n        /* \"#utility.yul\":45425:45434   */\n      dup3\n        /* \"#utility.yul\":45421:45439   */\n      add\n        /* \"#utility.yul\":45413:45439   */\n      swap1\n      pop\n        /* \"#utility.yul\":45485:45494   */\n      dup2\n        /* \"#utility.yul\":45479:45483   */\n      dup2\n        /* \"#utility.yul\":45475:45495   */\n      sub\n        /* \"#utility.yul\":45471:45472   */\n      0x00\n        /* \"#utility.yul\":45460:45469   */\n      dup4\n        /* \"#utility.yul\":45456:45473   */\n      add\n        /* \"#utility.yul\":45449:45496   */\n      mstore\n        /* \"#utility.yul\":45513:45644   */\n      tag_842\n        /* \"#utility.yul\":45639:45643   */\n      dup2\n        /* \"#utility.yul\":45513:45644   */\n      tag_496\n      jump\t// in\n    tag_842:\n        /* \"#utility.yul\":45505:45644   */\n      swap1\n      pop\n        /* \"#utility.yul\":45232:45651   */\n      swap2\n      swap1\n      pop\n      jump\t// out\n        /* \"#utility.yul\":45657:45836   */\n    tag_497:\n        /* \"#utility.yul\":45797:45828   */\n      0x416464726573733a2063616c6c20746f206e6f6e2d636f6e7472616374000000\n        /* \"#utility.yul\":45793:45794   */\n      0x00\n        /* \"#utility.yul\":45785:45791   */\n      dup3\n        /* \"#utility.yul\":45781:45795   */\n      add\n        /* \"#utility.yul\":45774:45829   */\n      mstore\n        /* \"#utility.yul\":45657:45836   */\n      pop\n      jump\t// out\n        /* \"#utility.yul\":45842:46208   */\n    tag_498:\n        /* \"#utility.yul\":45984:45987   */\n      0x00\n        /* \"#utility.yul\":46005:46072   */\n      tag_845\n        /* \"#utility.yul\":46069:46071   */\n      0x1d\n        /* \"#utility.yul\":46064:46067   */\n      dup4\n        /* \"#utility.yul\":46005:46072   */\n      tag_392\n      jump\t// in\n    tag_845:\n        /* \"#utility.yul\":45998:46072   */\n      swap2\n      pop\n        /* \"#utility.yul\":46081:46174   */\n      tag_846\n        /* \"#utility.yul\":46170:46173   */\n      dup3\n        /* \"#utility.yul\":46081:46174   */\n      tag_497\n      jump\t// in\n    tag_846:\n        /* \"#utility.yul\":46199:46201   */\n      0x20\n        /* \"#utility.yul\":46194:46197   */\n      dup3\n        /* \"#utility.yul\":46190:46202   */\n      add\n        /* \"#utility.yul\":46183:46202   */\n      swap1\n      pop\n        /* \"#utility.yul\":45842:46208   */\n      swap2\n      swap1\n      pop\n      jump\t// out\n        /* \"#utility.yul\":46214:46633   */\n    tag_377:\n        /* \"#utility.yul\":46380:46384   */\n      0x00\n        /* \"#utility.yul\":46418:46420   */\n      0x20\n        /* \"#utility.yul\":46407:46416   */\n      dup3\n        /* \"#utility.yul\":46403:46421   */\n      add\n        /* \"#utility.yul\":46395:46421   */\n      swap1\n      pop\n        /* \"#utility.yul\":46467:46476   */\n      dup2\n        /* \"#utility.yul\":46461:46465   */\n      dup2\n        /* \"#utility.yul\":46457:46477   */\n      sub\n        /* \"#utility.yul\":46453:46454   */\n      0x00\n        /* \"#utility.yul\":46442:46451   */\n      dup4\n        /* \"#utility.yul\":46438:46455   */\n      add\n        /* \"#utility.yul\":46431:46478   */\n      mstore\n        /* \"#utility.yul\":46495:46626   */\n      tag_848\n        /* \"#utility.yul\":46621:46625   */\n      dup2\n        /* \"#utility.yul\":46495:46626   */\n      tag_498\n      jump\t// in\n    tag_848:\n        /* \"#utility.yul\":46487:46626   */\n      swap1\n      pop\n        /* \"#utility.yul\":46214:46633   */\n      swap2\n      swap1\n      pop\n      jump\t// out\n        /* \"#utility.yul\":46639:46738   */\n    tag_499:\n        /* \"#utility.yul\":46691:46697   */\n      0x00\n        /* \"#utility.yul\":46725:46730   */\n      dup2\n        /* \"#utility.yul\":46719:46731   */\n      mload\n        /* \"#utility.yul\":46709:46731   */\n      swap1\n      pop\n        /* \"#utility.yul\":46639:46738   */\n      swap2\n      swap1\n      pop\n      jump\t// out\n        /* \"#utility.yul\":46744:47121   */\n    tag_500:\n        /* \"#utility.yul\":46832:46835   */\n      0x00\n        /* \"#utility.yul\":46860:46899   */\n      tag_851\n        /* \"#utility.yul\":46893:46898   */\n      dup3\n        /* \"#utility.yul\":46860:46899   */\n      tag_499\n      jump\t// in\n    tag_851:\n        /* \"#utility.yul\":46915:46986   */\n      tag_852\n        /* \"#utility.yul\":46979:46985   */\n      dup2\n        /* \"#utility.yul\":46974:46977   */\n      dup6\n        /* \"#utility.yul\":46915:46986   */\n      tag_392\n      jump\t// in\n    tag_852:\n        /* \"#utility.yul\":46908:46986   */\n      swap4\n      pop\n        /* \"#utility.yul\":46995:47060   */\n      tag_853\n        /* \"#utility.yul\":47053:47059   */\n      dup2\n        /* \"#utility.yul\":47048:47051   */\n      dup6\n        /* \"#utility.yul\":47041:47045   */\n      0x20\n        /* \"#utility.yul\":47034:47039   */\n      dup7\n        /* \"#utility.yul\":47030:47046   */\n      add\n        /* \"#utility.yul\":46995:47060   */\n      tag_418\n      jump\t// in\n    tag_853:\n        /* \"#utility.yul\":47085:47114   */\n      tag_854\n        /* \"#utility.yul\":47107:47113   */\n      dup2\n        /* \"#utility.yul\":47085:47114   */\n      tag_423\n      jump\t// in\n    tag_854:\n        /* \"#utility.yul\":47080:47083   */\n      dup5\n        /* \"#utility.yul\":47076:47115   */\n      add\n        /* \"#utility.yul\":47069:47115   */\n      swap2\n      pop\n        /* \"#utility.yul\":46836:47121   */\n      pop\n        /* \"#utility.yul\":46744:47121   */\n      swap3\n      swap2\n      pop\n      pop\n      jump\t// out\n        /* \"#utility.yul\":47127:47440   */\n    tag_391:\n        /* \"#utility.yul\":47240:47244   */\n      0x00\n        /* \"#utility.yul\":47278:47280   */\n      0x20\n        /* \"#utility.yul\":47267:47276   */\n      dup3\n        /* \"#utility.yul\":47263:47281   */\n      add\n        /* \"#utility.yul\":47255:47281   */\n      swap1\n      pop\n        /* \"#utility.yul\":47327:47336   */\n      dup2\n        /* \"#utility.yul\":47321:47325   */\n      dup2\n        /* \"#utility.yul\":47317:47337   */\n      sub\n        /* \"#utility.yul\":47313:47314   */\n      0x00\n        /* \"#utility.yul\":47302:47311   */\n      dup4\n        /* \"#utility.yul\":47298:47315   */\n      add\n        /* \"#utility.yul\":47291:47338   */\n      mstore\n        /* \"#utility.yul\":47355:47433   */\n      tag_856\n        /* \"#utility.yul\":47428:47432   */\n      dup2\n        /* \"#utility.yul\":47419:47425   */\n      dup5\n        /* \"#utility.yul\":47355:47433   */\n      tag_500\n      jump\t// in\n    tag_856:\n        /* \"#utility.yul\":47347:47433   */\n      swap1\n      pop\n        /* \"#utility.yul\":47127:47440   */\n      swap3\n      swap2\n      pop\n      pop\n      jump\t// out\n\n    auxdata: 0xa264697066735822122002c23c5f11a75955d45afcbb8e1efc489288862584a431aa20b4ef13b8e0052264736f6c634300081e0033\n}\n",
				"bytecode": {
					"linkReferences": {},
					"object": "608060405234801561000f575f5ffd5b5061002c61002161003860201b60201c565b61003f60201b60201c565b60018081905550610100565b5f33905090565b5f5f5f9054906101000a900473ffffffffffffffffffffffffffffffffffffffff169050815f5f6101000a81548173ffffffffffffffffffffffffffffffffffffffff021916908373ffffffffffffffffffffffffffffffffffffffff1602179055508173ffffffffffffffffffffffffffffffffffffffff168173ffffffffffffffffffffffffffffffffffffffff167f8be0079c531659141344cd1fd0a4f28419497f9722a3daafe3b4186f6b6457e060405160405180910390a35050565b6140b68061010d5f395ff3fe60806040526004361061010c575f3560e01c8063719ce73e11610094578063ba13a57211610063578063ba13a5721461033e578063d709815414610368578063f298083b14610390578063f2fde38b146103b8578063fbfa77cf146103e05761014c565b8063719ce73e146102ac578063825d2ab7146102d65780638da5cb5b146102ec578063b6b55f25146103165761014c565b806350c1d19d116100db57806350c1d19d146101de5780636386c1c7146102085780636817031b146102445780636c9fa59e1461026c578063715018a6146102965761014c565b80631f4609ea14610150578063336c6d39146101785780633ccfd60b146101a057806340f797bb146101b65761014c565b3661014c576040517f08c379a000000000000000000000000000000000000000000000000000000000815260040161014390612c31565b60405180910390fd5b5f5ffd5b34801561015b575f5ffd5b5061017660048036038101906101719190612c8f565b61040a565b005b348015610183575f5ffd5b5061019e60048036038101906101999190612d14565b610714565b005b3480156101ab575f5ffd5b506101b4610898565b005b3480156101c1575f5ffd5b506101dc60048036038101906101d79190612d14565b610b58565b005b3480156101e9575f5ffd5b506101f2610cdc565b6040516101ff9190612dc7565b60405180910390f35b348015610213575f5ffd5b5061022e60048036038101906102299190612d14565b6110f2565b60405161023b9190612e60565b60405180910390f35b34801561024f575f5ffd5b5061026a60048036038101906102659190612d14565b611393565b005b348015610277575f5ffd5b50610280611651565b60405161028d9190612e88565b60405180910390f35b3480156102a1575f5ffd5b506102aa611676565b005b3480156102b7575f5ffd5b506102c06116fd565b6040516102cd9190612e88565b60405180910390f35b3480156102e1575f5ffd5b506102ea611722565b005b3480156102f7575f5ffd5b50610300611984565b60405161030d9190612e88565b60405180910390f35b348015610321575f5ffd5b5061033c60048036038101906103379190612c8f565b6119ab565b005b348015610349575f5ffd5b50610352611df3565b60405161035f9190612e88565b60405180910390f35b348015610373575f5ffd5b5061038e60048036038101906103899190612c8f565b611e18565b005b34801561039b575f5ffd5b506103b660048036038101906103b19190612d14565b6121bc565b005b3480156103c3575f5ffd5b506103de60048036038101906103d99190612d14565b612340565b005b3480156103eb575f5ffd5b506103f4612436565b6040516104019190612e88565b60405180910390f35b5f73ffffffffffffffffffffffffffffffffffffffff1660035f9054906101000a900473ffffffffffffffffffffffffffffffffffffffff1673ffffffffffffffffffffffffffffffffffffffff1603610499576040517f08c379a000000000000000000000000000000000000000000000000000000000815260040161049090612eeb565b60405180910390fd5b5f73ffffffffffffffffffffffffffffffffffffffff1660055f9054906101000a900473ffffffffffffffffffffffffffffffffffffffff1673ffffffffffffffffffffffffffffffffffffffff1603610528576040517f08c379a000000000000000000000000000000000000000000000000000000000815260040161051f90612f53565b60405180910390fd5b5f5f60035f9054906101000a900473ffffffffffffffffffffffffffffffffffffffff1673ffffffffffffffffffffffffffffffffffffffff163384604051602401610575929190612f80565b6040516020818303038152906040527f08f43333000000000000000000000000000000000000000000000000000000007bffffffffffffffffffffffffffffffffffffffffffffffffffffffff19166020820180517bffffffffffffffffffffffffffffffffffffffffffffffffffffffff83818316178352505050506040516105ff9190612ff9565b5f60405180830381855afa9150503d805f8114610637576040519150601f19603f3d011682016040523d82523d5f602084013e61063c565b606091505b509150915081610681576040517f08c379a000000000000000000000000000000000000000000000000000000000815260040161067890613059565b60405180910390fd5b5f818060200190518101906106969190613223565b90505f815f01516fffffffffffffffffffffffffffffffff16116106ef576040517f08c379a00000000000000000000000000000000000000000000000000000000081526004016106e690613298565b60405180910390fd5b61070e815f01516fffffffffffffffffffffffffffffffff168561245b565b50505050565b61071c61270a565b73ffffffffffffffffffffffffffffffffffffffff1661073a611984565b73ffffffffffffffffffffffffffffffffffffffff1614610790576040517f08c379a000000000000000000000000000000000000000000000000000000000815260040161078790613300565b60405180910390fd5b5f73ffffffffffffffffffffffffffffffffffffffff168173ffffffffffffffffffffffffffffffffffffffff16036107fe576040517f08c379a00000000000000000000000000000000000000000000000000000000081526004016107f590613368565b60405180910390fd5b8060045f6101000a81548173ffffffffffffffffffffffffffffffffffffffff021916908373ffffffffffffffffffffffffffffffffffffffff1602179055508073ffffffffffffffffffffffffffffffffffffffff16604051610861906133da565b60405180910390207fb66c2f14f9918a1cf623dbeeed97ac7a96ace1fd080e5dc03df1f8da61068b8860405160405180910390a350565b5f73ffffffffffffffffffffffffffffffffffffffff1660035f9054906101000a900473ffffffffffffffffffffffffffffffffffffffff1673ffffffffffffffffffffffffffffffffffffffff1603610927576040517f08c379a000000000000000000000000000000000000000000000000000000000815260040161091e90612eeb565b60405180910390fd5b5f73ffffffffffffffffffffffffffffffffffffffff1660055f9054906101000a900473ffffffffffffffffffffffffffffffffffffffff1673ffffffffffffffffffffffffffffffffffffffff16036109b6576040517f08c379a00000000000000000000000000000000000000000000000000000000081526004016109ad90612f53565b60405180910390fd5b5f60035f9054906101000a900473ffffffffffffffffffffffffffffffffffffffff1673ffffffffffffffffffffffffffffffffffffffff16630ba36dcd336040518263ffffffff1660e01b8152600401610a119190612e88565b606060405180830381865afa158015610a2c573d5f5f3e3d5ffd5b505050506040513d601f19601f82011682018060405250810190610a509190613223565b90505f815f01516fffffffffffffffffffffffffffffffff1611610aa9576040517f08c379a0000000000000000000000000000000000000000000000000000000008152600401610aa090613438565b60405180910390fd5b610b55815f01516fffffffffffffffffffffffffffffffff1660025f9054906101000a900473ffffffffffffffffffffffffffffffffffffffff1673ffffffffffffffffffffffffffffffffffffffff16635727e25d6040518163ffffffff1660e01b8152600401602060405180830381865afa158015610b2c573d5f5f3e3d5ffd5b505050506040513d601f19601f82011682018060405250810190610b50919061346a565b61245b565b50565b610b6061270a565b73ffffffffffffffffffffffffffffffffffffffff16610b7e611984565b73ffffffffffffffffffffffffffffffffffffffff1614610bd4576040517f08c379a0000000000000000000000000000000000000000000000000000000008152600401610bcb90613300565b60405180910390fd5b5f73ffffffffffffffffffffffffffffffffffffffff168173ffffffffffffffffffffffffffffffffffffffff1603610c42576040517f08c379a0000000000000000000000000000000000000000000000000000000008152600401610c39906134df565b60405180910390fd5b8060055f6101000a81548173ffffffffffffffffffffffffffffffffffffffff021916908373ffffffffffffffffffffffffffffffffffffffff1602179055508073ffffffffffffffffffffffffffffffffffffffff16604051610ca590613547565b60405180910390207fb66c2f14f9918a1cf623dbeeed97ac7a96ace1fd080e5dc03df1f8da61068b8860405160405180910390a350565b610ce4612b55565b5f73ffffffffffffffffffffffffffffffffffffffff1660025f9054906101000a900473ffffffffffffffffffffffffffffffffffffffff1673ffffffffffffffffffffffffffffffffffffffff1614158015610d8e57505f73ffffffffffffffffffffffffffffffffffffffff1660035f9054906101000a900473ffffffffffffffffffffffffffffffffffffffff1673ffffffffffffffffffffffffffffffffffffffff1614155b610dcd576040517f08c379a0000000000000000000000000000000000000000000000000000000008152600401610dc4906135a5565b60405180910390fd5b5f60035f9054906101000a900473ffffffffffffffffffffffffffffffffffffffff1673ffffffffffffffffffffffffffffffffffffffff16635727e25d6040518163ffffffff1660e01b8152600401602060405180830381865afa158015610e38573d5f5f3e3d5ffd5b505050506040513d601f19601f82011682018060405250810190610e5c919061346a565b90505f60035f9054906101000a900473ffffffffffffffffffffffffffffffffffffffff1673ffffffffffffffffffffffffffffffffffffffff1663b5cb15f76040518163ffffffff1660e01b8152600401602060405180830381865afa158015610ec9573d5f5f3e3d5ffd5b505050506040513d601f19601f82011682018060405250810190610eed919061346a565b90505f60035f9054906101000a900473ffffffffffffffffffffffffffffffffffffffff1673ffffffffffffffffffffffffffffffffffffffff16635eefdd2b6040518163ffffffff1660e01b8152600401602060405180830381865afa158015610f5a573d5f5f3e3d5ffd5b505050506040513d601f19601f82011682018060405250810190610f7e919061346a565b90505f60035f9054906101000a900473ffffffffffffffffffffffffffffffffffffffff1673ffffffffffffffffffffffffffffffffffffffff166306aba0e16040518163ffffffff1660e01b8152600401602060405180830381865afa158015610feb573d5f5f3e3d5ffd5b505050506040513d601f19601f8201168201806040525081019061100f919061346a565b90505f60025f9054906101000a900473ffffffffffffffffffffffffffffffffffffffff1673ffffffffffffffffffffffffffffffffffffffff1663b675b3326040518163ffffffff1660e01b8152600401602060405180830381865afa15801561107c573d5f5f3e3d5ffd5b505050506040513d601f19601f820116820180604052508101906110a0919061346a565b90506040518060c0016040528086815260200185815260200184815260200183815260200182815260200162278d00836110da91906135f0565b426110e591906135f0565b8152509550505050505090565b6110fa612b85565b5f73ffffffffffffffffffffffffffffffffffffffff1660035f9054906101000a900473ffffffffffffffffffffffffffffffffffffffff1673ffffffffffffffffffffffffffffffffffffffff1603611189576040517f08c379a000000000000000000000000000000000000000000000000000000000815260040161118090612eeb565b60405180910390fd5b5f60035f9054906101000a900473ffffffffffffffffffffffffffffffffffffffff1673ffffffffffffffffffffffffffffffffffffffff16630ba36dcd846040518263ffffffff1660e01b81526004016111e49190612e88565b606060405180830381865afa1580156111ff573d5f5f3e3d5ffd5b505050506040513d601f19601f820116820180604052508101906112239190613223565b90505f5f90505f73ffffffffffffffffffffffffffffffffffffffff1660055f9054906101000a900473ffffffffffffffffffffffffffffffffffffffff1673ffffffffffffffffffffffffffffffffffffffff16146113195760055f9054906101000a900473ffffffffffffffffffffffffffffffffffffffff1673ffffffffffffffffffffffffffffffffffffffff166370a08231856040518263ffffffff1660e01b81526004016112d79190612e88565b602060405180830381865afa1580156112f2573d5f5f3e3d5ffd5b505050506040513d601f19601f82011682018060405250810190611316919061346a565b90505b6040518060a00160405280835f01516fffffffffffffffffffffffffffffffff16815260200183604001516bffffffffffffffffffffffff168152602001836020015163ffffffff1681526020015f845f01516fffffffffffffffffffffffffffffffff1611151581526020018281525092505050919050565b61139b61270a565b73ffffffffffffffffffffffffffffffffffffffff166113b9611984565b73ffffffffffffffffffffffffffffffffffffffff161461140f576040517f08c379a000000000000000000000000000000000000000000000000000000000815260040161140690613300565b60405180910390fd5b5f73ffffffffffffffffffffffffffffffffffffffff168173ffffffffffffffffffffffffffffffffffffffff160361147d576040517f08c379a00000000000000000000000000000000000000000000000000000000081526004016114749061366d565b60405180910390fd5b8060035f6101000a81548173ffffffffffffffffffffffffffffffffffffffff021916908373ffffffffffffffffffffffffffffffffffffffff1602179055508073ffffffffffffffffffffffffffffffffffffffff16632bdb0d926040518163ffffffff1660e01b8152600401602060405180830381865afa92505050801561152557506040513d601f19601f82011682018060405250810190611522919061369f565b60015b156115f7575f73ffffffffffffffffffffffffffffffffffffffff168173ffffffffffffffffffffffffffffffffffffffff16146115f5578060055f6101000a81548173ffffffffffffffffffffffffffffffffffffffff021916908373ffffffffffffffffffffffffffffffffffffffff1602179055508073ffffffffffffffffffffffffffffffffffffffff166040516115c090613547565b60405180910390207fb66c2f14f9918a1cf623dbeeed97ac7a96ace1fd080e5dc03df1f8da61068b8860405160405180910390a35b505b8073ffffffffffffffffffffffffffffffffffffffff1660405161161a90613714565b60405180910390207fb66c2f14f9918a1cf623dbeeed97ac7a96ace1fd080e5dc03df1f8da61068b8860405160405180910390a350565b60055f9054906101000a900473ffffffffffffffffffffffffffffffffffffffff1681565b61167e61270a565b73ffffffffffffffffffffffffffffffffffffffff1661169c611984565b73ffffffffffffffffffffffffffffffffffffffff16146116f2576040517f08c379a00000000000000000000000000000000000000000000000000000000081526004016116e990613300565b60405180910390fd5b6116fb5f612711565b565b60045f9054906101000a900473ffffffffffffffffffffffffffffffffffffffff1681565b61172a61270a565b73ffffffffffffffffffffffffffffffffffffffff16611748611984565b73ffffffffffffffffffffffffffffffffffffffff161461179e576040517f08c379a000000000000000000000000000000000000000000000000000000000815260040161179590613300565b60405180910390fd5b5f73ffffffffffffffffffffffffffffffffffffffff1660025f9054906101000a900473ffffffffffffffffffffffffffffffffffffffff1673ffffffffffffffffffffffffffffffffffffffff160361182d576040517f08c379a000000000000000000000000000000000000000000000000000000000815260040161182490613772565b60405180910390fd5b5f60025f9054906101000a900473ffffffffffffffffffffffffffffffffffffffff1673ffffffffffffffffffffffffffffffffffffffff16604051602401611875906137b3565b6040516020818303038152906040527f4585e33b000000000000000000000000000000000000000000000000000000007bffffffffffffffffffffffffffffffffffffffffffffffffffffffff19166020820180517bffffffffffffffffffffffffffffffffffffffffffffffffffffffff83818316178352505050506040516118ff9190612ff9565b5f604051808303815f865af19150503d805f8114611938576040519150601f19603f3d011682016040523d82523d5f602084013e61193d565b606091505b5050905080611981576040517f08c379a00000000000000000000000000000000000000000000000000000000081526004016119789061381b565b60405180910390fd5b50565b5f5f5f9054906101000a900473ffffffffffffffffffffffffffffffffffffffff16905090565b6002600154036119f0576040517f08c379a00000000000000000000000000000000000000000000000000000000081526004016119e790613883565b60405180910390fd5b60026001819055505f73ffffffffffffffffffffffffffffffffffffffff1660035f9054906101000a900473ffffffffffffffffffffffffffffffffffffffff1673ffffffffffffffffffffffffffffffffffffffff1603611a87576040517f08c379a0000000000000000000000000000000000000000000000000000000008152600401611a7e90612eeb565b60405180910390fd5b5f8111611ac9576040517f08c379a0000000000000000000000000000000000000000000000000000000008152600401611ac0906138eb565b60405180910390fd5b5f60035f9054906101000a900473ffffffffffffffffffffffffffffffffffffffff1673ffffffffffffffffffffffffffffffffffffffff16633fc8cef36040518163ffffffff1660e01b8152600401602060405180830381865afa158015611b34573d5f5f3e3d5ffd5b505050506040513d601f19601f82011682018060405250810190611b58919061369f565b90505f73ffffffffffffffffffffffffffffffffffffffff168173ffffffffffffffffffffffffffffffffffffffff1603611bc8576040517f08c379a0000000000000000000000000000000000000000000000000000000008152600401611bbf90613953565b60405180910390fd5b611bf53330848473ffffffffffffffffffffffffffffffffffffffff166127d2909392919063ffffffff16565b611c4160035f9054906101000a900473ffffffffffffffffffffffffffffffffffffffff16838373ffffffffffffffffffffffffffffffffffffffff1661285b9092919063ffffffff16565b5f60035f9054906101000a900473ffffffffffffffffffffffffffffffffffffffff1673ffffffffffffffffffffffffffffffffffffffff163384604051602401611c8d929190612f80565b6040516020818303038152906040527f2f4f21e2000000000000000000000000000000000000000000000000000000007bffffffffffffffffffffffffffffffffffffffffffffffffffffffff19166020820180517bffffffffffffffffffffffffffffffffffffffffffffffffffffffff8381831617835250505050604051611d179190612ff9565b5f604051808303815f865af19150503d805f8114611d50576040519150601f19603f3d011682016040523d82523d5f602084013e611d55565b606091505b5050905080611d99576040517f08c379a0000000000000000000000000000000000000000000000000000000008152600401611d90906139bb565b60405180910390fd5b3373ffffffffffffffffffffffffffffffffffffffff167f53ef711025b489956217f8c567b33471fe359e30a2da402028b2d897dce9025784604051611ddf91906139d9565b60405180910390a250506001808190555050565b60025f9054906101000a900473ffffffffffffffffffffffffffffffffffffffff1681565b600260015403611e5d576040517f08c379a0000000000000000000000000000000000000000000000000000000008152600401611e5490613883565b60405180910390fd5b60026001819055505f73ffffffffffffffffffffffffffffffffffffffff1660045f9054906101000a900473ffffffffffffffffffffffffffffffffffffffff1673ffffffffffffffffffffffffffffffffffffffff1603611ef4576040517f08c379a0000000000000000000000000000000000000000000000000000000008152600401611eeb90613a3c565b60405180910390fd5b5f73ffffffffffffffffffffffffffffffffffffffff1660025f9054906101000a900473ffffffffffffffffffffffffffffffffffffffff1673ffffffffffffffffffffffffffffffffffffffff1603611f83576040517f08c379a0000000000000000000000000000000000000000000000000000000008152600401611f7a90613772565b60405180910390fd5b5f60025f9054906101000a900473ffffffffffffffffffffffffffffffffffffffff1673ffffffffffffffffffffffffffffffffffffffff1663c4a909ba836040518263ffffffff1660e01b8152600401611fde91906139d9565b60e060405180830381865afa158015611ff9573d5f5f3e3d5ffd5b505050506040513d601f19601f8201168201806040525081019061201d9190613b35565b90503373ffffffffffffffffffffffffffffffffffffffff16816020015173ffffffffffffffffffffffffffffffffffffffff1614612091576040517f08c379a000000000000000000000000000000000000000000000000000000000815260040161208890613baa565b60405180910390fd5b8060a00151156120d6576040517f08c379a00000000000000000000000000000000000000000000000000000000081526004016120cd90613c12565b60405180910390fd5b60045f9054906101000a900473ffffffffffffffffffffffffffffffffffffffff1673ffffffffffffffffffffffffffffffffffffffff1663d7098154836040518263ffffffff1660e01b815260040161213091906139d9565b5f604051808303815f87803b158015612147575f5ffd5b505af1158015612159573d5f5f3e3d5ffd5b505050503373ffffffffffffffffffffffffffffffffffffffff167fa9d775bb1156cf56920fbed972accb058fb34c77ed1d124565a2e23f5ecf30d38260400151846040516121a9929190613c30565b60405180910390a2506001808190555050565b6121c461270a565b73ffffffffffffffffffffffffffffffffffffffff166121e2611984565b73ffffffffffffffffffffffffffffffffffffffff1614612238576040517f08c379a000000000000000000000000000000000000000000000000000000000815260040161222f90613300565b60405180910390fd5b5f73ffffffffffffffffffffffffffffffffffffffff168173ffffffffffffffffffffffffffffffffffffffff16036122a6576040517f08c379a000000000000000000000000000000000000000000000000000000000815260040161229d90613ca1565b60405180910390fd5b8060025f6101000a81548173ffffffffffffffffffffffffffffffffffffffff021916908373ffffffffffffffffffffffffffffffffffffffff1602179055508073ffffffffffffffffffffffffffffffffffffffff1660405161230990613d09565b60405180910390207fb66c2f14f9918a1cf623dbeeed97ac7a96ace1fd080e5dc03df1f8da61068b8860405160405180910390a350565b61234861270a565b73ffffffffffffffffffffffffffffffffffffffff16612366611984565b73ffffffffffffffffffffffffffffffffffffffff16146123bc576040517f08c379a00000000000000000000000000000000000000000000000000000000081526004016123b390613300565b60405180910390fd5b5f73ffffffffffffffffffffffffffffffffffffffff168173ffffffffffffffffffffffffffffffffffffffff160361242a576040517f08c379a000000000000000000000000000000000000000000000000000000000815260040161242190613d8d565b60405180910390fd5b61243381612711565b50565b60035f9054906101000a900473ffffffffffffffffffffffffffffffffffffffff1681565b6002600154036124a0576040517f08c379a000000000000000000000000000000000000000000000000000000000815260040161249790613883565b60405180910390fd5b60026001819055506124f633308460055f9054906101000a900473ffffffffffffffffffffffffffffffffffffffff1673ffffffffffffffffffffffffffffffffffffffff166127d2909392919063ffffffff16565b61256360035f9054906101000a900473ffffffffffffffffffffffffffffffffffffffff168360055f9054906101000a900473ffffffffffffffffffffffffffffffffffffffff1673ffffffffffffffffffffffffffffffffffffffff1661285b9092919063ffffffff16565b5f60035f9054906101000a900473ffffffffffffffffffffffffffffffffffffffff1673ffffffffffffffffffffffffffffffffffffffff1682336040516024016125af929190613dab565b6040516020818303038152906040527f3576f6cc000000000000000000000000000000000000000000000000000000007bffffffffffffffffffffffffffffffffffffffffffffffffffffffff19166020820180517bffffffffffffffffffffffffffffffffffffffffffffffffffffffff83818316178352505050506040516126399190612ff9565b5f604051808303815f865af19150503d805f8114612672576040519150601f19603f3d011682016040523d82523d5f602084013e612677565b606091505b50509050806126bb576040517f08c379a00000000000000000000000000000000000000000000000000000000081526004016126b290613e1c565b60405180910390fd5b3373ffffffffffffffffffffffffffffffffffffffff167f3e07c5771a8eb0c763dea30d0752320b6edc01ed74c334206e053bf7330c147960405160405180910390a250600180819055505050565b5f33905090565b5f5f5f9054906101000a900473ffffffffffffffffffffffffffffffffffffffff169050815f5f6101000a81548173ffffffffffffffffffffffffffffffffffffffff021916908373ffffffffffffffffffffffffffffffffffffffff1602179055508173ffffffffffffffffffffffffffffffffffffffff168173ffffffffffffffffffffffffffffffffffffffff167f8be0079c531659141344cd1fd0a4f28419497f9722a3daafe3b4186f6b6457e060405160405180910390a35050565b612855846323b872dd60e01b8585856040516024016127f393929190613e3a565b604051602081830303815290604052907bffffffffffffffffffffffffffffffffffffffffffffffffffffffff19166020820180517bffffffffffffffffffffffffffffffffffffffffffffffffffffffff83818316178352505050506128e1565b50505050565b6128dc8363a9059cbb60e01b848460405160240161287a929190612f80565b604051602081830303815290604052907bffffffffffffffffffffffffffffffffffffffffffffffffffffffff19166020820180517bffffffffffffffffffffffffffffffffffffffffffffffffffffffff83818316178352505050506128e1565b505050565b5f612942826040518060400160405280602081526020017f5361666545524332303a206c6f772d6c6576656c2063616c6c206661696c65648152508573ffffffffffffffffffffffffffffffffffffffff166129a69092919063ffffffff16565b90505f815111156129a157808060200190518101906129619190613e6f565b6129a0576040517f08c379a000000000000000000000000000000000000000000000000000000000815260040161299790613f0a565b60405180910390fd5b5b505050565b60606129b484845f856129bd565b90509392505050565b606082471015612a02576040517f08c379a00000000000000000000000000000000000000000000000000000000081526004016129f990613f98565b60405180910390fd5b612a0b85612acd565b612a4a576040517f08c379a0000000000000000000000000000000000000000000000000000000008152600401612a4190614000565b60405180910390fd5b5f5f8673ffffffffffffffffffffffffffffffffffffffff168587604051612a729190612ff9565b5f6040518083038185875af1925050503d805f8114612aac576040519150601f19603f3d011682016040523d82523d5f602084013e612ab1565b606091505b5091509150612ac1828286612aef565b92505050949350505050565b5f5f8273ffffffffffffffffffffffffffffffffffffffff163b119050919050565b60608315612aff57829050612b4e565b5f83511115612b115782518084602001fd5b816040517f08c379a0000000000000000000000000000000000000000000000000000000008152600401612b459190614060565b60405180910390fd5b9392505050565b6040518060c001604052805f81526020015f81526020015f81526020015f81526020015f81526020015f81525090565b6040518060a001604052805f81526020015f81526020015f81526020015f151581526020015f81525090565b5f82825260208201905092915050565b7f53797374656d206f6e6c792061636365707473205745544820746f6b656e732c5f8201527f206e6f7420455448000000000000000000000000000000000000000000000000602082015250565b5f612c1b602883612bb1565b9150612c2682612bc1565b604082019050919050565b5f6020820190508181035f830152612c4881612c0f565b9050919050565b5f604051905090565b5f5ffd5b5f819050919050565b612c6e81612c5c565b8114612c78575f5ffd5b50565b5f81359050612c8981612c65565b92915050565b5f60208284031215612ca457612ca3612c58565b5b5f612cb184828501612c7b565b91505092915050565b5f73ffffffffffffffffffffffffffffffffffffffff82169050919050565b5f612ce382612cba565b9050919050565b612cf381612cd9565b8114612cfd575f5ffd5b50565b5f81359050612d0e81612cea565b92915050565b5f60208284031215612d2957612d28612c58565b5b5f612d3684828501612d00565b91505092915050565b612d4881612c5c565b82525050565b60c082015f820151612d625f850182612d3f565b506020820151612d756020850182612d3f565b506040820151612d886040850182612d3f565b506060820151612d9b6060850182612d3f565b506080820151612dae6080850182612d3f565b5060a0820151612dc160a0850182612d3f565b50505050565b5f60c082019050612dda5f830184612d4e565b92915050565b5f8115159050919050565b612df481612de0565b82525050565b60a082015f820151612e0e5f850182612d3f565b506020820151612e216020850182612d3f565b506040820151612e346040850182612d3f565b506060820151612e476060850182612deb565b506080820151612e5a6080850182612d3f565b50505050565b5f60a082019050612e735f830184612dfa565b92915050565b612e8281612cd9565b82525050565b5f602082019050612e9b5f830184612e79565b92915050565b7f5661756c74206e6f7420636f6e666967757265640000000000000000000000005f82015250565b5f612ed5601483612bb1565b9150612ee082612ea1565b602082019050919050565b5f6020820190508181035f830152612f0281612ec9565b9050919050565b7f5368617265546f6b656e206e6f7420636f6e66696775726564000000000000005f82015250565b5f612f3d601983612bb1565b9150612f4882612f09565b602082019050919050565b5f6020820190508181035f830152612f6a81612f31565b9050919050565b612f7a81612c5c565b82525050565b5f604082019050612f935f830185612e79565b612fa06020830184612f71565b9392505050565b5f81519050919050565b5f81905092915050565b8281835e5f83830152505050565b5f612fd382612fa7565b612fdd8185612fb1565b9350612fed818560208601612fbb565b80840191505092915050565b5f6130048284612fc9565b915081905092915050565b7f4661696c656420746f20676574206465706f73697420696e666f0000000000005f82015250565b5f613043601a83612bb1565b915061304e8261300f565b602082019050919050565b5f6020820190508181035f83015261307081613037565b9050919050565b5f5ffd5b5f601f19601f8301169050919050565b7f4e487b71000000000000000000000000000000000000000000000000000000005f52604160045260245ffd5b6130c18261307b565b810181811067ffffffffffffffff821117156130e0576130df61308b565b5b80604052505050565b5f6130f2612c4f565b90506130fe82826130b8565b919050565b5f6fffffffffffffffffffffffffffffffff82169050919050565b61312781613103565b8114613131575f5ffd5b50565b5f815190506131428161311e565b92915050565b5f63ffffffff82169050919050565b61316081613148565b811461316a575f5ffd5b50565b5f8151905061317b81613157565b92915050565b5f6bffffffffffffffffffffffff82169050919050565b6131a181613181565b81146131ab575f5ffd5b50565b5f815190506131bc81613198565b92915050565b5f606082840312156131d7576131d6613077565b5b6131e160606130e9565b90505f6131f084828501613134565b5f8301525060206132038482850161316d565b6020830152506040613217848285016131ae565b60408301525092915050565b5f6060828403121561323857613237612c58565b5b5f613245848285016131c2565b91505092915050565b7f4e6f206465706f73697420696e207468697320726f756e6400000000000000005f82015250565b5f613282601883612bb1565b915061328d8261324e565b602082019050919050565b5f6020820190508181035f8301526132af81613276565b9050919050565b7f4f776e61626c653a2063616c6c6572206973206e6f7420746865206f776e65725f82015250565b5f6132ea602083612bb1565b91506132f5826132b6565b602082019050919050565b5f6020820190508181035f830152613317816132de565b9050919050565b7f496e76616c6964207072697a65506f6f6c2061646472657373000000000000005f82015250565b5f613352601983612bb1565b915061335d8261331e565b602082019050919050565b5f6020820190508181035f83015261337f81613346565b9050919050565b5f81905092915050565b7f7072697a65506f6f6c00000000000000000000000000000000000000000000005f82015250565b5f6133c4600983613386565b91506133cf82613390565b600982019050919050565b5f6133e4826133b8565b9150819050919050565b7f4e6f206465706f73697420746f207769746864726177000000000000000000005f82015250565b5f613422601683612bb1565b915061342d826133ee565b602082019050919050565b5f6020820190508181035f83015261344f81613416565b9050919050565b5f8151905061346481612c65565b92915050565b5f6020828403121561347f5761347e612c58565b5b5f61348c84828501613456565b91505092915050565b7f496e76616c6964207368617265546f6b656e20616464726573730000000000005f82015250565b5f6134c9601a83612bb1565b91506134d482613495565b602082019050919050565b5f6020820190508181035f8301526134f6816134bd565b9050919050565b7f7368617265546f6b656e000000000000000000000000000000000000000000005f82015250565b5f613531600a83613386565b915061353c826134fd565b600a82019050919050565b5f61355182613525565b9150819050919050565b7f53797374656d206e6f742066756c6c7920636f6e6669677572656400000000005f82015250565b5f61358f601b83612bb1565b915061359a8261355b565b602082019050919050565b5f6020820190508181035f8301526135bc81613583565b9050919050565b7f4e487b71000000000000000000000000000000000000000000000000000000005f52601160045260245ffd5b5f6135fa82612c5c565b915061360583612c5c565b925082820390508181111561361d5761361c6135c3565b5b92915050565b7f496e76616c6964207661756c74206164647265737300000000000000000000005f82015250565b5f613657601583612bb1565b915061366282613623565b602082019050919050565b5f6020820190508181035f8301526136848161364b565b9050919050565b5f8151905061369981612cea565b92915050565b5f602082840312156136b4576136b3612c58565b5b5f6136c18482850161368b565b91505092915050565b7f7661756c740000000000000000000000000000000000000000000000000000005f82015250565b5f6136fe600583613386565b9150613709826136ca565b600582019050919050565b5f61371e826136f2565b9150819050919050565b7f4c6f7474657279206e6f7420636f6e66696775726564000000000000000000005f82015250565b5f61375c601683612bb1565b915061376782613728565b602082019050919050565b5f6020820190508181035f83015261378981613750565b9050919050565b50565b5f61379e5f83612bb1565b91506137a982613790565b5f82019050919050565b5f6020820190508181035f8301526137ca81613793565b9050919050565b7f547269676765722064726177206661696c6564000000000000000000000000005f82015250565b5f613805601383612bb1565b9150613810826137d1565b602082019050919050565b5f6020820190508181035f830152613832816137f9565b9050919050565b7f5265656e7472616e637947756172643a207265656e7472616e742063616c6c005f82015250565b5f61386d601f83612bb1565b915061387882613839565b602082019050919050565b5f6020820190508181035f83015261389a81613861565b9050919050565b7f4d757374206465706f736974205745544820746f6b656e7300000000000000005f82015250565b5f6138d5601883612bb1565b91506138e0826138a1565b602082019050919050565b5f6020820190508181035f830152613902816138c9565b9050919050565b7f57455448206e6f7420636f6e66696775726564000000000000000000000000005f82015250565b5f61393d601383612bb1565b915061394882613909565b602082019050919050565b5f6020820190508181035f83015261396a81613931565b9050919050565b7f57455448206465706f73697420666f7277617264696e67206661696c656400005f82015250565b5f6139a5601e83612bb1565b91506139b082613971565b602082019050919050565b5f6020820190508181035f8301526139d281613999565b9050919050565b5f6020820190506139ec5f830184612f71565b92915050565b7f5072697a65506f6f6c206e6f7420636f6e6669677572656400000000000000005f82015250565b5f613a26601883612bb1565b9150613a31826139f2565b602082019050919050565b5f6020820190508181035f830152613a5381613a1a565b9050919050565b613a6381612de0565b8114613a6d575f5ffd5b50565b5f81519050613a7e81613a5a565b92915050565b5f60e08284031215613a9957613a98613077565b5b613aa360e06130e9565b90505f613ab284828501613456565b5f830152506020613ac58482850161368b565b6020830152506040613ad984828501613456565b6040830152506060613aed84828501613456565b6060830152506080613b0184828501613456565b60808301525060a0613b1584828501613a70565b60a08301525060c0613b2984828501613456565b60c08301525092915050565b5f60e08284031215613b4a57613b49612c58565b5b5f613b5784828501613a84565b91505092915050565b7f4f6e6c792077696e6e65722063616e20636c61696d207072697a6500000000005f82015250565b5f613b94601b83612bb1565b9150613b9f82613b60565b602082019050919050565b5f6020820190508181035f830152613bc181613b88565b9050919050565b7f5072697a6520616c726561647920636c61696d656400000000000000000000005f82015250565b5f613bfc601583612bb1565b9150613c0782613bc8565b602082019050919050565b5f6020820190508181035f830152613c2981613bf0565b9050919050565b5f604082019050613c435f830185612f71565b613c506020830184612f71565b9392505050565b7f496e76616c6964206c6f747465727920616464726573730000000000000000005f82015250565b5f613c8b601783612bb1565b9150613c9682613c57565b602082019050919050565b5f6020820190508181035f830152613cb881613c7f565b9050919050565b7f6c6f7474657279000000000000000000000000000000000000000000000000005f82015250565b5f613cf3600783613386565b9150613cfe82613cbf565b600782019050919050565b5f613d1382613ce7565b9150819050919050565b7f4f776e61626c653a206e6577206f776e657220697320746865207a65726f20615f8201527f6464726573730000000000000000000000000000000000000000000000000000602082015250565b5f613d77602683612bb1565b9150613d8282613d1d565b604082019050919050565b5f6020820190508181035f830152613da481613d6b565b9050919050565b5f604082019050613dbe5f830185612f71565b613dcb6020830184612e79565b9392505050565b7f5769746864726177616c206661696c65640000000000000000000000000000005f82015250565b5f613e06601183612bb1565b9150613e1182613dd2565b602082019050919050565b5f6020820190508181035f830152613e3381613dfa565b9050919050565b5f606082019050613e4d5f830186612e79565b613e5a6020830185612e79565b613e676040830184612f71565b949350505050565b5f60208284031215613e8457613e83612c58565b5b5f613e9184828501613a70565b91505092915050565b7f5361666545524332303a204552433230206f7065726174696f6e20646964206e5f8201527f6f74207375636365656400000000000000000000000000000000000000000000602082015250565b5f613ef4602a83612bb1565b9150613eff82613e9a565b604082019050919050565b5f6020820190508181035f830152613f2181613ee8565b9050919050565b7f416464726573733a20696e73756666696369656e742062616c616e636520666f5f8201527f722063616c6c0000000000000000000000000000000000000000000000000000602082015250565b5f613f82602683612bb1565b9150613f8d82613f28565b604082019050919050565b5f6020820190508181035f830152613faf81613f76565b9050919050565b7f416464726573733a2063616c6c20746f206e6f6e2d636f6e74726163740000005f82015250565b5f613fea601d83612bb1565b9150613ff582613fb6565b602082019050919050565b5f6020820190508181035f83015261401781613fde565b9050919050565b5f81519050919050565b5f6140328261401e565b61403c8185612bb1565b935061404c818560208601612fbb565b6140558161307b565b840191505092915050565b5f6020820190508181035f8301526140788184614028565b90509291505056fea264697066735822122002c23c5f11a75955d45afcbb8e1efc489288862584a431aa20b4ef13b8e0052264736f6c634300081e0033",
					"opcodes": "PUSH1 0x80 PUSH1 0x40 MSTORE CALLVALUE DUP1 ISZERO PUSH2 0xF JUMPI PUSH0 PUSH0 REVERT JUMPDEST POP PUSH2 0x2C PUSH2 0x21 PUSH2 0x38 PUSH1 0x20 SHL PUSH1 0x20 SHR JUMP JUMPDEST PUSH2 0x3F PUSH1 0x20 SHL PUSH1 0x20 SHR JUMP JUMPDEST PUSH1 0x1 DUP1 DUP2 SWAP1 SSTORE POP PUSH2 0x100 JUMP JUMPDEST PUSH0 CALLER SWAP1 POP SWAP1 JUMP JUMPDEST PUSH0 PUSH0 PUSH0 SWAP1 SLOAD SWAP1 PUSH2 0x100 EXP SWAP1 DIV PUSH20 0xFFFFFFFFFFFFFFFFFFFFFFFFFFFFFFFFFFFFFFFF AND SWAP1 POP DUP2 PUSH0 PUSH0 PUSH2 0x100 EXP DUP2 SLOAD DUP2 PUSH20 0xFFFFFFFFFFFFFFFFFFFFFFFFFFFFFFFFFFFFFFFF MUL NOT AND SWAP1 DUP4 PUSH20 0xFFFFFFFFFFFFFFFFFFFFFFFFFFFFFFFFFFFFFFFF AND MUL OR SWAP1 SSTORE POP DUP2 PUSH20 0xFFFFFFFFFFFFFFFFFFFFFFFFFFFFFFFFFFFFFFFF AND DUP2 PUSH20 0xFFFFFFFFFFFFFFFFFFFFFFFFFFFFFFFFFFFFFFFF AND PUSH32 0x8BE0079C531659141344CD1FD0A4F28419497F9722A3DAAFE3B4186F6B6457E0 PUSH1 0x40 MLOAD PUSH1 0x40 MLOAD DUP1 SWAP2 SUB SWAP1 LOG3 POP POP JUMP JUMPDEST PUSH2 0x40B6 DUP1 PUSH2 0x10D PUSH0 CODECOPY PUSH0 RETURN INVALID PUSH1 0x80 PUSH1 0x40 MSTORE PUSH1 0x4 CALLDATASIZE LT PUSH2 0x10C JUMPI PUSH0 CALLDATALOAD PUSH1 0xE0 SHR DUP1 PUSH4 0x719CE73E GT PUSH2 0x94 JUMPI DUP1 PUSH4 0xBA13A572 GT PUSH2 0x63 JUMPI DUP1 PUSH4 0xBA13A572 EQ PUSH2 0x33E JUMPI DUP1 PUSH4 0xD7098154 EQ PUSH2 0x368 JUMPI DUP1 PUSH4 0xF298083B EQ PUSH2 0x390 JUMPI DUP1 PUSH4 0xF2FDE38B EQ PUSH2 0x3B8 JUMPI DUP1 PUSH4 0xFBFA77CF EQ PUSH2 0x3E0 JUMPI PUSH2 0x14C JUMP JUMPDEST DUP1 PUSH4 0x719CE73E EQ PUSH2 0x2AC JUMPI DUP1 PUSH4 0x825D2AB7 EQ PUSH2 0x2D6 JUMPI DUP1 PUSH4 0x8DA5CB5B EQ PUSH2 0x2EC JUMPI DUP1 PUSH4 0xB6B55F25 EQ PUSH2 0x316 JUMPI PUSH2 0x14C JUMP JUMPDEST DUP1 PUSH4 0x50C1D19D GT PUSH2 0xDB JUMPI DUP1 PUSH4 0x50C1D19D EQ PUSH2 0x1DE JUMPI DUP1 PUSH4 0x6386C1C7 EQ PUSH2 0x208 JUMPI DUP1 PUSH4 0x6817031B EQ PUSH2 0x244 JUMPI DUP1 PUSH4 0x6C9FA59E EQ PUSH2 0x26C JUMPI DUP1 PUSH4 0x715018A6 EQ PUSH2 0x296 JUMPI PUSH2 0x14C JUMP JUMPDEST DUP1 PUSH4 0x1F4609EA EQ PUSH2 0x150 JUMPI DUP1 PUSH4 0x336C6D39 EQ PUSH2 0x178 JUMPI DUP1 PUSH4 0x3CCFD60B EQ PUSH2 0x1A0 JUMPI DUP1 PUSH4 0x40F797BB EQ PUSH2 0x1B6 JUMPI PUSH2 0x14C JUMP JUMPDEST CALLDATASIZE PUSH2 0x14C JUMPI PUSH1 0x40 MLOAD PUSH32 0x8C379A000000000000000000000000000000000000000000000000000000000 DUP2 MSTORE PUSH1 0x4 ADD PUSH2 0x143 SWAP1 PUSH2 0x2C31 JUMP JUMPDEST PUSH1 0x40 MLOAD DUP1 SWAP2 SUB SWAP1 REVERT JUMPDEST PUSH0 PUSH0 REVERT JUMPDEST CALLVALUE DUP1 ISZERO PUSH2 0x15B JUMPI PUSH0 PUSH0 REVERT JUMPDEST POP PUSH2 0x176 PUSH1 0x4 DUP1 CALLDATASIZE SUB DUP2 ADD SWAP1 PUSH2 0x171 SWAP2 SWAP1 PUSH2 0x2C8F JUMP JUMPDEST PUSH2 0x40A JUMP JUMPDEST STOP JUMPDEST CALLVALUE DUP1 ISZERO PUSH2 0x183 JUMPI PUSH0 PUSH0 REVERT JUMPDEST POP PUSH2 0x19E PUSH1 0x4 DUP1 CALLDATASIZE SUB DUP2 ADD SWAP1 PUSH2 0x199 SWAP2 SWAP1 PUSH2 0x2D14 JUMP JUMPDEST PUSH2 0x714 JUMP JUMPDEST STOP JUMPDEST CALLVALUE DUP1 ISZERO PUSH2 0x1AB JUMPI PUSH0 PUSH0 REVERT JUMPDEST POP PUSH2 0x1B4 PUSH2 0x898 JUMP JUMPDEST STOP JUMPDEST CALLVALUE DUP1 ISZERO PUSH2 0x1C1 JUMPI PUSH0 PUSH0 REVERT JUMPDEST POP PUSH2 0x1DC PUSH1 0x4 DUP1 CALLDATASIZE SUB DUP2 ADD SWAP1 PUSH2 0x1D7 SWAP2 SWAP1 PUSH2 0x2D14 JUMP JUMPDEST PUSH2 0xB58 JUMP JUMPDEST STOP JUMPDEST CALLVALUE DUP1 ISZERO PUSH2 0x1E9 JUMPI PUSH0 PUSH0 REVERT JUMPDEST POP PUSH2 0x1F2 PUSH2 0xCDC JUMP JUMPDEST PUSH1 0x40 MLOAD PUSH2 0x1FF SWAP2 SWAP1 PUSH2 0x2DC7 JUMP JUMPDEST PUSH1 0x40 MLOAD DUP1 SWAP2 SUB SWAP1 RETURN JUMPDEST CALLVALUE DUP1 ISZERO PUSH2 0x213 JUMPI PUSH0 PUSH0 REVERT JUMPDEST POP PUSH2 0x22E PUSH1 0x4 DUP1 CALLDATASIZE SUB DUP2 ADD SWAP1 PUSH2 0x229 SWAP2 SWAP1 PUSH2 0x2D14 JUMP JUMPDEST PUSH2 0x10F2 JUMP JUMPDEST PUSH1 0x40 MLOAD PUSH2 0x23B SWAP2 SWAP1 PUSH2 0x2E60 JUMP JUMPDEST PUSH1 0x40 MLOAD DUP1 SWAP2 SUB SWAP1 RETURN JUMPDEST CALLVALUE DUP1 ISZERO PUSH2 0x24F JUMPI PUSH0 PUSH0 REVERT JUMPDEST POP PUSH2 0x26A PUSH1 0x4 DUP1 CALLDATASIZE SUB DUP2 ADD SWAP1 PUSH2 0x265 SWAP2 SWAP1 PUSH2 0x2D14 JUMP JUMPDEST PUSH2 0x1393 JUMP JUMPDEST STOP JUMPDEST CALLVALUE DUP1 ISZERO PUSH2 0x277 JUMPI PUSH0 PUSH0 REVERT JUMPDEST POP PUSH2 0x280 PUSH2 0x1651 JUMP JUMPDEST PUSH1 0x40 MLOAD PUSH2 0x28D SWAP2 SWAP1 PUSH2 0x2E88 JUMP JUMPDEST PUSH1 0x40 MLOAD DUP1 SWAP2 SUB SWAP1 RETURN JUMPDEST CALLVALUE DUP1 ISZERO PUSH2 0x2A1 JUMPI PUSH0 PUSH0 REVERT JUMPDEST POP PUSH2 0x2AA PUSH2 0x1676 JUMP JUMPDEST STOP JUMPDEST CALLVALUE DUP1 ISZERO PUSH2 0x2B7 JUMPI PUSH0 PUSH0 REVERT JUMPDEST POP PUSH2 0x2C0 PUSH2 0x16FD JUMP JUMPDEST PUSH1 0x40 MLOAD PUSH2 0x2CD SWAP2 SWAP1 PUSH2 0x2E88 JUMP JUMPDEST PUSH1 0x40 MLOAD DUP1 SWAP2 SUB SWAP1 RETURN JUMPDEST CALLVALUE DUP1 ISZERO PUSH2 0x2E1 JUMPI PUSH0 PUSH0 REVERT JUMPDEST POP PUSH2 0x2EA PUSH2 0x1722 JUMP JUMPDEST STOP JUMPDEST CALLVALUE DUP1 ISZERO PUSH2 0x2F7 JUMPI PUSH0 PUSH0 REVERT JUMPDEST POP PUSH2 0x300 PUSH2 0x1984 JUMP JUMPDEST PUSH1 0x40 MLOAD PUSH2 0x30D SWAP2 SWAP1 PUSH2 0x2E88 JUMP JUMPDEST PUSH1 0x40 MLOAD DUP1 SWAP2 SUB SWAP1 RETURN JUMPDEST CALLVALUE DUP1 ISZERO PUSH2 0x321 JUMPI PUSH0 PUSH0 REVERT JUMPDEST POP PUSH2 0x33C PUSH1 0x4 DUP1 CALLDATASIZE SUB DUP2 ADD SWAP1 PUSH2 0x337 SWAP2 SWAP1 PUSH2 0x2C8F JUMP JUMPDEST PUSH2 0x19AB JUMP JUMPDEST STOP JUMPDEST CALLVALUE DUP1 ISZERO PUSH2 0x349 JUMPI PUSH0 PUSH0 REVERT JUMPDEST POP PUSH2 0x352 PUSH2 0x1DF3 JUMP JUMPDEST PUSH1 0x40 MLOAD PUSH2 0x35F SWAP2 SWAP1 PUSH2 0x2E88 JUMP JUMPDEST PUSH1 0x40 MLOAD DUP1 SWAP2 SUB SWAP1 RETURN JUMPDEST CALLVALUE DUP1 ISZERO PUSH2 0x373 JUMPI PUSH0 PUSH0 REVERT JUMPDEST POP PUSH2 0x38E PUSH1 0x4 DUP1 CALLDATASIZE SUB DUP2 ADD SWAP1 PUSH2 0x389 SWAP2 SWAP1 PUSH2 0x2C8F JUMP JUMPDEST PUSH2 0x1E18 JUMP JUMPDEST STOP JUMPDEST CALLVALUE DUP1 ISZERO PUSH2 0x39B JUMPI PUSH0 PUSH0 REVERT JUMPDEST POP PUSH2 0x3B6 PUSH1 0x4 DUP1 CALLDATASIZE SUB DUP2 ADD SWAP1 PUSH2 0x3B1 SWAP2 SWAP1 PUSH2 0x2D14 JUMP JUMPDEST PUSH2 0x21BC JUMP JUMPDEST STOP JUMPDEST CALLVALUE DUP1 ISZERO PUSH2 0x3C3 JUMPI PUSH0 PUSH0 REVERT JUMPDEST POP PUSH2 0x3DE PUSH1 0x4 DUP1 CALLDATASIZE SUB DUP2 ADD SWAP1 PUSH2 0x3D9 SWAP2 SWAP1 PUSH2 0x2D14 JUMP JUMPDEST PUSH2 0x2340 JUMP JUMPDEST STOP JUMPDEST CALLVALUE DUP1 ISZERO PUSH2 0x3EB JUMPI PUSH0 PUSH0 REVERT JUMPDEST POP PUSH2 0x3F4 PUSH2 0x2436 JUMP JUMPDEST PUSH1 0x40 MLOAD PUSH2 0x401 SWAP2 SWAP1 PUSH2 0x2E88 JUMP JUMPDEST PUSH1 0x40 MLOAD DUP1 SWAP2 SUB SWAP1 RETURN JUMPDEST PUSH0 PUSH20 0xFFFFFFFFFFFFFFFFFFFFFFFFFFFFFFFFFFFFFFFF AND PUSH1 0x3 PUSH0 SWAP1 SLOAD SWAP1 PUSH2 0x100 EXP SWAP1 DIV PUSH20 0xFFFFFFFFFFFFFFFFFFFFFFFFFFFFFFFFFFFFFFFF AND PUSH20 0xFFFFFFFFFFFFFFFFFFFFFFFFFFFFFFFFFFFFFFFF AND SUB PUSH2 0x499 JUMPI PUSH1 0x40 MLOAD PUSH32 0x8C379A000000000000000000000000000000000000000000000000000000000 DUP2 MSTORE PUSH1 0x4 ADD PUSH2 0x490 SWAP1 PUSH2 0x2EEB JUMP JUMPDEST PUSH1 0x40 MLOAD DUP1 SWAP2 SUB SWAP1 REVERT JUMPDEST PUSH0 PUSH20 0xFFFFFFFFFFFFFFFFFFFFFFFFFFFFFFFFFFFFFFFF AND PUSH1 0x5 PUSH0 SWAP1 SLOAD SWAP1 PUSH2 0x100 EXP SWAP1 DIV PUSH20 0xFFFFFFFFFFFFFFFFFFFFFFFFFFFFFFFFFFFFFFFF AND PUSH20 0xFFFFFFFFFFFFFFFFFFFFFFFFFFFFFFFFFFFFFFFF AND SUB PUSH2 0x528 JUMPI PUSH1 0x40 MLOAD PUSH32 0x8C379A000000000000000000000000000000000000000000000000000000000 DUP2 MSTORE PUSH1 0x4 ADD PUSH2 0x51F SWAP1 PUSH2 0x2F53 JUMP JUMPDEST PUSH1 0x40 MLOAD DUP1 SWAP2 SUB SWAP1 REVERT JUMPDEST PUSH0 PUSH0 PUSH1 0x3 PUSH0 SWAP1 SLOAD SWAP1 PUSH2 0x100 EXP SWAP1 DIV PUSH20 0xFFFFFFFFFFFFFFFFFFFFFFFFFFFFFFFFFFFFFFFF AND PUSH20 0xFFFFFFFFFFFFFFFFFFFFFFFFFFFFFFFFFFFFFFFF AND CALLER DUP5 PUSH1 0x40 MLOAD PUSH1 0x24 ADD PUSH2 0x575 SWAP3 SWAP2 SWAP1 PUSH2 0x2F80 JUMP JUMPDEST PUSH1 0x40 MLOAD PUSH1 0x20 DUP2 DUP4 SUB SUB DUP2 MSTORE SWAP1 PUSH1 0x40 MSTORE PUSH32 0x8F4333300000000000000000000000000000000000000000000000000000000 PUSH28 0xFFFFFFFFFFFFFFFFFFFFFFFFFFFFFFFFFFFFFFFFFFFFFFFFFFFFFFFF NOT AND PUSH1 0x20 DUP3 ADD DUP1 MLOAD PUSH28 0xFFFFFFFFFFFFFFFFFFFFFFFFFFFFFFFFFFFFFFFFFFFFFFFFFFFFFFFF DUP4 DUP2 DUP4 AND OR DUP4 MSTORE POP POP POP POP PUSH1 0x40 MLOAD PUSH2 0x5FF SWAP2 SWAP1 PUSH2 0x2FF9 JUMP JUMPDEST PUSH0 PUSH1 0x40 MLOAD DUP1 DUP4 SUB DUP2 DUP6 GAS STATICCALL SWAP2 POP POP RETURNDATASIZE DUP1 PUSH0 DUP2 EQ PUSH2 0x637 JUMPI PUSH1 0x40 MLOAD SWAP2 POP PUSH1 0x1F NOT PUSH1 0x3F RETURNDATASIZE ADD AND DUP3 ADD PUSH1 0x40 MSTORE RETURNDATASIZE DUP3 MSTORE RETURNDATASIZE PUSH0 PUSH1 0x20 DUP5 ADD RETURNDATACOPY PUSH2 0x63C JUMP JUMPDEST PUSH1 0x60 SWAP2 POP JUMPDEST POP SWAP2 POP SWAP2 POP DUP2 PUSH2 0x681 JUMPI PUSH1 0x40 MLOAD PUSH32 0x8C379A000000000000000000000000000000000000000000000000000000000 DUP2 MSTORE PUSH1 0x4 ADD PUSH2 0x678 SWAP1 PUSH2 0x3059 JUMP JUMPDEST PUSH1 0x40 MLOAD DUP1 SWAP2 SUB SWAP1 REVERT JUMPDEST PUSH0 DUP2 DUP1 PUSH1 0x20 ADD SWAP1 MLOAD DUP2 ADD SWAP1 PUSH2 0x696 SWAP2 SWAP1 PUSH2 0x3223 JUMP JUMPDEST SWAP1 POP PUSH0 DUP2 PUSH0 ADD MLOAD PUSH16 0xFFFFFFFFFFFFFFFFFFFFFFFFFFFFFFFF AND GT PUSH2 0x6EF JUMPI PUSH1 0x40 MLOAD PUSH32 0x8C379A000000000000000000000000000000000000000000000000000000000 DUP2 MSTORE PUSH1 0x4 ADD PUSH2 0x6E6 SWAP1 PUSH2 0x3298 JUMP JUMPDEST PUSH1 0x40 MLOAD DUP1 SWAP2 SUB SWAP1 REVERT JUMPDEST PUSH2 0x70E DUP2 PUSH0 ADD MLOAD PUSH16 0xFFFFFFFFFFFFFFFFFFFFFFFFFFFFFFFF AND DUP6 PUSH2 0x245B JUMP JUMPDEST POP POP POP POP JUMP JUMPDEST PUSH2 0x71C PUSH2 0x270A JUMP JUMPDEST PUSH20 0xFFFFFFFFFFFFFFFFFFFFFFFFFFFFFFFFFFFFFFFF AND PUSH2 0x73A PUSH2 0x1984 JUMP JUMPDEST PUSH20 0xFFFFFFFFFFFFFFFFFFFFFFFFFFFFFFFFFFFFFFFF AND EQ PUSH2 0x790 JUMPI PUSH1 0x40 MLOAD PUSH32 0x8C379A000000000000000000000000000000000000000000000000000000000 DUP2 MSTORE PUSH1 0x4 ADD PUSH2 0x787 SWAP1 PUSH2 0x3300 JUMP JUMPDEST PUSH1 0x40 MLOAD DUP1 SWAP2 SUB SWAP1 REVERT JUMPDEST PUSH0 PUSH20 0xFFFFFFFFFFFFFFFFFFFFFFFFFFFFFFFFFFFFFFFF AND DUP2 PUSH20 0xFFFFFFFFFFFFFFFFFFFFFFFFFFFFFFFFFFFFFFFF AND SUB PUSH2 0x7FE JUMPI PUSH1 0x40 MLOAD PUSH32 0x8C379A000000000000000000000000000000000000000000000000000000000 DUP2 MSTORE PUSH1 0x4 ADD PUSH2 0x7F5 SWAP1 PUSH2 0x3368 JUMP JUMPDEST PUSH1 0x40 MLOAD DUP1 SWAP2 SUB SWAP1 REVERT JUMPDEST DUP1 PUSH1 0x4 PUSH0 PUSH2 0x100 EXP DUP2 SLOAD DUP2 PUSH20 0xFFFFFFFFFFFFFFFFFFFFFFFFFFFFFFFFFFFFFFFF MUL NOT AND SWAP1 DUP4 PUSH20 0xFFFFFFFFFFFFFFFFFFFFFFFFFFFFFFFFFFFFFFFF AND MUL OR SWAP1 SSTORE POP DUP1 PUSH20 0xFFFFFFFFFFFFFFFFFFFFFFFFFFFFFFFFFFFFFFFF AND PUSH1 0x40 MLOAD PUSH2 0x861 SWAP1 PUSH2 0x33DA JUMP JUMPDEST PUSH1 0x40 MLOAD DUP1 SWAP2 SUB SWAP1 KECCAK256 PUSH32 0xB66C2F14F9918A1CF623DBEEED97AC7A96ACE1FD080E5DC03DF1F8DA61068B88 PUSH1 0x40 MLOAD PUSH1 0x40 MLOAD DUP1 SWAP2 SUB SWAP1 LOG3 POP JUMP JUMPDEST PUSH0 PUSH20 0xFFFFFFFFFFFFFFFFFFFFFFFFFFFFFFFFFFFFFFFF AND PUSH1 0x3 PUSH0 SWAP1 SLOAD SWAP1 PUSH2 0x100 EXP SWAP1 DIV PUSH20 0xFFFFFFFFFFFFFFFFFFFFFFFFFFFFFFFFFFFFFFFF AND PUSH20 0xFFFFFFFFFFFFFFFFFFFFFFFFFFFFFFFFFFFFFFFF AND SUB PUSH2 0x927 JUMPI PUSH1 0x40 MLOAD PUSH32 0x8C379A000000000000000000000000000000000000000000000000000000000 DUP2 MSTORE PUSH1 0x4 ADD PUSH2 0x91E SWAP1 PUSH2 0x2EEB JUMP JUMPDEST PUSH1 0x40 MLOAD DUP1 SWAP2 SUB SWAP1 REVERT JUMPDEST PUSH0 PUSH20 0xFFFFFFFFFFFFFFFFFFFFFFFFFFFFFFFFFFFFFFFF AND PUSH1 0x5 PUSH0 SWAP1 SLOAD SWAP1 PUSH2 0x100 EXP SWAP1 DIV PUSH20 0xFFFFFFFFFFFFFFFFFFFFFFFFFFFFFFFFFFFFFFFF AND PUSH20 0xFFFFFFFFFFFFFFFFFFFFFFFFFFFFFFFFFFFFFFFF AND SUB PUSH2 0x9B6 JUMPI PUSH1 0x40 MLOAD PUSH32 0x8C379A000000000000000000000000000000000000000000000000000000000 DUP2 MSTORE PUSH1 0x4 ADD PUSH2 0x9AD SWAP1 PUSH2 0x2F53 JUMP JUMPDEST PUSH1 0x40 MLOAD DUP1 SWAP2 SUB SWAP1 REVERT JUMPDEST PUSH0 PUSH1 0x3 PUSH0 SWAP1 SLOAD SWAP1 PUSH2 0x100 EXP SWAP1 DIV PUSH20 0xFFFFFFFFFFFFFFFFFFFFFFFFFFFFFFFFFFFFFFFF AND PUSH20 0xFFFFFFFFFFFFFFFFFFFFFFFFFFFFFFFFFFFFFFFF AND PUSH4 0xBA36DCD CALLER PUSH1 0x40 MLOAD DUP3 PUSH4 0xFFFFFFFF AND PUSH1 0xE0 SHL DUP2 MSTORE PUSH1 0x4 ADD PUSH2 0xA11 SWAP2 SWAP1 PUSH2 0x2E88 JUMP JUMPDEST PUSH1 0x60 PUSH1 0x40 MLOAD DUP1 DUP4 SUB DUP2 DUP7 GAS STATICCALL ISZERO DUP1 ISZERO PUSH2 0xA2C JUMPI RETURNDATASIZE PUSH0 PUSH0 RETURNDATACOPY RETURNDATASIZE PUSH0 REVERT JUMPDEST POP POP POP POP PUSH1 0x40 MLOAD RETURNDATASIZE PUSH1 0x1F NOT PUSH1 0x1F DUP3 ADD AND DUP3 ADD DUP1 PUSH1 0x40 MSTORE POP DUP2 ADD SWAP1 PUSH2 0xA50 SWAP2 SWAP1 PUSH2 0x3223 JUMP JUMPDEST SWAP1 POP PUSH0 DUP2 PUSH0 ADD MLOAD PUSH16 0xFFFFFFFFFFFFFFFFFFFFFFFFFFFFFFFF AND GT PUSH2 0xAA9 JUMPI PUSH1 0x40 MLOAD PUSH32 0x8C379A000000000000000000000000000000000000000000000000000000000 DUP2 MSTORE PUSH1 0x4 ADD PUSH2 0xAA0 SWAP1 PUSH2 0x3438 JUMP JUMPDEST PUSH1 0x40 MLOAD DUP1 SWAP2 SUB SWAP1 REVERT JUMPDEST PUSH2 0xB55 DUP2 PUSH0 ADD MLOAD PUSH16 0xFFFFFFFFFFFFFFFFFFFFFFFFFFFFFFFF AND PUSH1 0x2 PUSH0 SWAP1 SLOAD SWAP1 PUSH2 0x100 EXP SWAP1 DIV PUSH20 0xFFFFFFFFFFFFFFFFFFFFFFFFFFFFFFFFFFFFFFFF AND PUSH20 0xFFFFFFFFFFFFFFFFFFFFFFFFFFFFFFFFFFFFFFFF AND PUSH4 0x5727E25D PUSH1 0x40 MLOAD DUP2 PUSH4 0xFFFFFFFF AND PUSH1 0xE0 SHL DUP2 MSTORE PUSH1 0x4 ADD PUSH1 0x20 PUSH1 0x40 MLOAD DUP1 DUP4 SUB DUP2 DUP7 GAS STATICCALL ISZERO DUP1 ISZERO PUSH2 0xB2C JUMPI RETURNDATASIZE PUSH0 PUSH0 RETURNDATACOPY RETURNDATASIZE PUSH0 REVERT JUMPDEST POP POP POP POP PUSH1 0x40 MLOAD RETURNDATASIZE PUSH1 0x1F NOT PUSH1 0x1F DUP3 ADD AND DUP3 ADD DUP1 PUSH1 0x40 MSTORE POP DUP2 ADD SWAP1 PUSH2 0xB50 SWAP2 SWAP1 PUSH2 0x346A JUMP JUMPDEST PUSH2 0x245B JUMP JUMPDEST POP JUMP JUMPDEST PUSH2 0xB60 PUSH2 0x270A JUMP JUMPDEST PUSH20 0xFFFFFFFFFFFFFFFFFFFFFFFFFFFFFFFFFFFFFFFF AND PUSH2 0xB7E PUSH2 0x1984 JUMP JUMPDEST PUSH20 0xFFFFFFFFFFFFFFFFFFFFFFFFFFFFFFFFFFFFFFFF AND EQ PUSH2 0xBD4 JUMPI PUSH1 0x40 MLOAD PUSH32 0x8C379A000000000000000000000000000000000000000000000000000000000 DUP2 MSTORE PUSH1 0x4 ADD PUSH2 0xBCB SWAP1 PUSH2 0x3300 JUMP JUMPDEST PUSH1 0x40 MLOAD DUP1 SWAP2 SUB SWAP1 REVERT JUMPDEST PUSH0 PUSH20 0xFFFFFFFFFFFFFFFFFFFFFFFFFFFFFFFFFFFFFFFF AND DUP2 PUSH20 0xFFFFFFFFFFFFFFFFFFFFFFFFFFFFFFFFFFFFFFFF AND SUB PUSH2 0xC42 JUMPI PUSH1 0x40 MLOAD PUSH32 0x8C379A000000000000000000000000000000000000000000000000000000000 DUP2 MSTORE PUSH1 0x4 ADD PUSH2 0xC39 SWAP1 PUSH2 0x34DF JUMP JUMPDEST PUSH1 0x40 MLOAD DUP1 SWAP2 SUB SWAP1 REVERT JUMPDEST DUP1 PUSH1 0x5 PUSH0 PUSH2 0x100 EXP DUP2 SLOAD DUP2 PUSH20 0xFFFFFFFFFFFFFFFFFFFFFFFFFFFFFFFFFFFFFFFF MUL NOT AND SWAP1 DUP4 PUSH20 0xFFFFFFFFFFFFFFFFFFFFFFFFFFFFFFFFFFFFFFFF AND MUL OR SWAP1 SSTORE POP DUP1 PUSH20 0xFFFFFFFFFFFFFFFFFFFFFFFFFFFFFFFFFFFFFFFF AND PUSH1 0x40 MLOAD PUSH2 0xCA5 SWAP1 PUSH2 0x3547 JUMP JUMPDEST PUSH1 0x40 MLOAD DUP1 SWAP2 SUB SWAP1 KECCAK256 PUSH32 0xB66C2F14F9918A1CF623DBEEED97AC7A96ACE1FD080E5DC03DF1F8DA61068B88 PUSH1 0x40 MLOAD PUSH1 0x40 MLOAD DUP1 SWAP2 SUB SWAP1 LOG3 POP JUMP JUMPDEST PUSH2 0xCE4 PUSH2 0x2B55 JUMP JUMPDEST PUSH0 PUSH20 0xFFFFFFFFFFFFFFFFFFFFFFFFFFFFFFFFFFFFFFFF AND PUSH1 0x2 PUSH0 SWAP1 SLOAD SWAP1 PUSH2 0x100 EXP SWAP1 DIV PUSH20 0xFFFFFFFFFFFFFFFFFFFFFFFFFFFFFFFFFFFFFFFF AND PUSH20 0xFFFFFFFFFFFFFFFFFFFFFFFFFFFFFFFFFFFFFFFF AND EQ ISZERO DUP1 ISZERO PUSH2 0xD8E JUMPI POP PUSH0 PUSH20 0xFFFFFFFFFFFFFFFFFFFFFFFFFFFFFFFFFFFFFFFF AND PUSH1 0x3 PUSH0 SWAP1 SLOAD SWAP1 PUSH2 0x100 EXP SWAP1 DIV PUSH20 0xFFFFFFFFFFFFFFFFFFFFFFFFFFFFFFFFFFFFFFFF AND PUSH20 0xFFFFFFFFFFFFFFFFFFFFFFFFFFFFFFFFFFFFFFFF AND EQ ISZERO JUMPDEST PUSH2 0xDCD JUMPI PUSH1 0x40 MLOAD PUSH32 0x8C379A000000000000000000000000000000000000000000000000000000000 DUP2 MSTORE PUSH1 0x4 ADD PUSH2 0xDC4 SWAP1 PUSH2 0x35A5 JUMP JUMPDEST PUSH1 0x40 MLOAD DUP1 SWAP2 SUB SWAP1 REVERT JUMPDEST PUSH0 PUSH1 0x3 PUSH0 SWAP1 SLOAD SWAP1 PUSH2 0x100 EXP SWAP1 DIV PUSH20 0xFFFFFFFFFFFFFFFFFFFFFFFFFFFFFFFFFFFFFFFF AND PUSH20 0xFFFFFFFFFFFFFFFFFFFFFFFFFFFFFFFFFFFFFFFF AND PUSH4 0x5727E25D PUSH1 0x40 MLOAD DUP2 PUSH4 0xFFFFFFFF AND PUSH1 0xE0 SHL DUP2 MSTORE PUSH1 0x4 ADD PUSH1 0x20 PUSH1 0x40 MLOAD DUP1 DUP4 SUB DUP2 DUP7 GAS STATICCALL ISZERO DUP1 ISZERO PUSH2 0xE38 JUMPI RETURNDATASIZE PUSH0 PUSH0 RETURNDATACOPY RETURNDATASIZE PUSH0 REVERT JUMPDEST POP POP POP POP PUSH1 0x40 MLOAD RETURNDATASIZE PUSH1 0x1F NOT PUSH1 0x1F DUP3 ADD AND DUP3 ADD DUP1 PUSH1 0x40 MSTORE POP DUP2 ADD SWAP1 PUSH2 0xE5C SWAP2 SWAP1 PUSH2 0x346A JUMP JUMPDEST SWAP1 POP PUSH0 PUSH1 0x3 PUSH0 SWAP1 SLOAD SWAP1 PUSH2 0x100 EXP SWAP1 DIV PUSH20 0xFFFFFFFFFFFFFFFFFFFFFFFFFFFFFFFFFFFFFFFF AND PUSH20 0xFFFFFFFFFFFFFFFFFFFFFFFFFFFFFFFFFFFFFFFF AND PUSH4 0xB5CB15F7 PUSH1 0x40 MLOAD DUP2 PUSH4 0xFFFFFFFF AND PUSH1 0xE0 SHL DUP2 MSTORE PUSH1 0x4 ADD PUSH1 0x20 PUSH1 0x40 MLOAD DUP1 DUP4 SUB DUP2 DUP7 GAS STATICCALL ISZERO DUP1 ISZERO PUSH2 0xEC9 JUMPI RETURNDATASIZE PUSH0 PUSH0 RETURNDATACOPY RETURNDATASIZE PUSH0 REVERT JUMPDEST POP POP POP POP PUSH1 0x40 MLOAD RETURNDATASIZE PUSH1 0x1F NOT PUSH1 0x1F DUP3 ADD AND DUP3 ADD DUP1 PUSH1 0x40 MSTORE POP DUP2 ADD SWAP1 PUSH2 0xEED SWAP2 SWAP1 PUSH2 0x346A JUMP JUMPDEST SWAP1 POP PUSH0 PUSH1 0x3 PUSH0 SWAP1 SLOAD SWAP1 PUSH2 0x100 EXP SWAP1 DIV PUSH20 0xFFFFFFFFFFFFFFFFFFFFFFFFFFFFFFFFFFFFFFFF AND PUSH20 0xFFFFFFFFFFFFFFFFFFFFFFFFFFFFFFFFFFFFFFFF AND PUSH4 0x5EEFDD2B PUSH1 0x40 MLOAD DUP2 PUSH4 0xFFFFFFFF AND PUSH1 0xE0 SHL DUP2 MSTORE PUSH1 0x4 ADD PUSH1 0x20 PUSH1 0x40 MLOAD DUP1 DUP4 SUB DUP2 DUP7 GAS STATICCALL ISZERO DUP1 ISZERO PUSH2 0xF5A JUMPI RETURNDATASIZE PUSH0 PUSH0 RETURNDATACOPY RETURNDATASIZE PUSH0 REVERT JUMPDEST POP POP POP POP PUSH1 0x40 MLOAD RETURNDATASIZE PUSH1 0x1F NOT PUSH1 0x1F DUP3 ADD AND DUP3 ADD DUP1 PUSH1 0x40 MSTORE POP DUP2 ADD SWAP1 PUSH2 0xF7E SWAP2 SWAP1 PUSH2 0x346A JUMP JUMPDEST SWAP1 POP PUSH0 PUSH1 0x3 PUSH0 SWAP1 SLOAD SWAP1 PUSH2 0x100 EXP SWAP1 DIV PUSH20 0xFFFFFFFFFFFFFFFFFFFFFFFFFFFFFFFFFFFFFFFF AND PUSH20 0xFFFFFFFFFFFFFFFFFFFFFFFFFFFFFFFFFFFFFFFF AND PUSH4 0x6ABA0E1 PUSH1 0x40 MLOAD DUP2 PUSH4 0xFFFFFFFF AND PUSH1 0xE0 SHL DUP2 MSTORE PUSH1 0x4 ADD PUSH1 0x20 PUSH1 0x40 MLOAD DUP1 DUP4 SUB DUP2 DUP7 GAS STATICCALL ISZERO DUP1 ISZERO PUSH2 0xFEB JUMPI RETURNDATASIZE PUSH0 PUSH0 RETURNDATACOPY RETURNDATASIZE PUSH0 REVERT JUMPDEST POP POP POP POP PUSH1 0x40 MLOAD RETURNDATASIZE PUSH1 0x1F NOT PUSH1 0x1F DUP3 ADD AND DUP3 ADD DUP1 PUSH1 0x40 MSTORE POP DUP2 ADD SWAP1 PUSH2 0x100F SWAP2 SWAP1 PUSH2 0x346A JUMP JUMPDEST SWAP1 POP PUSH0 PUSH1 0x2 PUSH0 SWAP1 SLOAD SWAP1 PUSH2 0x100 EXP SWAP1 DIV PUSH20 0xFFFFFFFFFFFFFFFFFFFFFFFFFFFFFFFFFFFFFFFF AND PUSH20 0xFFFFFFFFFFFFFFFFFFFFFFFFFFFFFFFFFFFFFFFF AND PUSH4 0xB675B332 PUSH1 0x40 MLOAD DUP2 PUSH4 0xFFFFFFFF AND PUSH1 0xE0 SHL DUP2 MSTORE PUSH1 0x4 ADD PUSH1 0x20 PUSH1 0x40 MLOAD DUP1 DUP4 SUB DUP2 DUP7 GAS STATICCALL ISZERO DUP1 ISZERO PUSH2 0x107C JUMPI RETURNDATASIZE PUSH0 PUSH0 RETURNDATACOPY RETURNDATASIZE PUSH0 REVERT JUMPDEST POP POP POP POP PUSH1 0x40 MLOAD RETURNDATASIZE PUSH1 0x1F NOT PUSH1 0x1F DUP3 ADD AND DUP3 ADD DUP1 PUSH1 0x40 MSTORE POP DUP2 ADD SWAP1 PUSH2 0x10A0 SWAP2 SWAP1 PUSH2 0x346A JUMP JUMPDEST SWAP1 POP PUSH1 0x40 MLOAD DUP1 PUSH1 0xC0 ADD PUSH1 0x40 MSTORE DUP1 DUP7 DUP2 MSTORE PUSH1 0x20 ADD DUP6 DUP2 MSTORE PUSH1 0x20 ADD DUP5 DUP2 MSTORE PUSH1 0x20 ADD DUP4 DUP2 MSTORE PUSH1 0x20 ADD DUP3 DUP2 MSTORE PUSH1 0x20 ADD PUSH3 0x278D00 DUP4 PUSH2 0x10DA SWAP2 SWAP1 PUSH2 0x35F0 JUMP JUMPDEST TIMESTAMP PUSH2 0x10E5 SWAP2 SWAP1 PUSH2 0x35F0 JUMP JUMPDEST DUP2 MSTORE POP SWAP6 POP POP POP POP POP POP SWAP1 JUMP JUMPDEST PUSH2 0x10FA PUSH2 0x2B85 JUMP JUMPDEST PUSH0 PUSH20 0xFFFFFFFFFFFFFFFFFFFFFFFFFFFFFFFFFFFFFFFF AND PUSH1 0x3 PUSH0 SWAP1 SLOAD SWAP1 PUSH2 0x100 EXP SWAP1 DIV PUSH20 0xFFFFFFFFFFFFFFFFFFFFFFFFFFFFFFFFFFFFFFFF AND PUSH20 0xFFFFFFFFFFFFFFFFFFFFFFFFFFFFFFFFFFFFFFFF AND SUB PUSH2 0x1189 JUMPI PUSH1 0x40 MLOAD PUSH32 0x8C379A000000000000000000000000000000000000000000000000000000000 DUP2 MSTORE PUSH1 0x4 ADD PUSH2 0x1180 SWAP1 PUSH2 0x2EEB JUMP JUMPDEST PUSH1 0x40 MLOAD DUP1 SWAP2 SUB SWAP1 REVERT JUMPDEST PUSH0 PUSH1 0x3 PUSH0 SWAP1 SLOAD SWAP1 PUSH2 0x100 EXP SWAP1 DIV PUSH20 0xFFFFFFFFFFFFFFFFFFFFFFFFFFFFFFFFFFFFFFFF AND PUSH20 0xFFFFFFFFFFFFFFFFFFFFFFFFFFFFFFFFFFFFFFFF AND PUSH4 0xBA36DCD DUP5 PUSH1 0x40 MLOAD DUP3 PUSH4 0xFFFFFFFF AND PUSH1 0xE0 SHL DUP2 MSTORE PUSH1 0x4 ADD PUSH2 0x11E4 SWAP2 SWAP1 PUSH2 0x2E88 JUMP JUMPDEST PUSH1 0x60 PUSH1 0x40 MLOAD DUP1 DUP4 SUB DUP2 DUP7 GAS STATICCALL ISZERO DUP1 ISZERO PUSH2 0x11FF JUMPI RETURNDATASIZE PUSH0 PUSH0 RETURNDATACOPY RETURNDATASIZE PUSH0 REVERT JUMPDEST POP POP POP POP PUSH1 0x40 MLOAD RETURNDATASIZE PUSH1 0x1F NOT PUSH1 0x1F DUP3 ADD AND DUP3 ADD DUP1 PUSH1 0x40 MSTORE POP DUP2 ADD SWAP1 PUSH2 0x1223 SWAP2 SWAP1 PUSH2 0x3223 JUMP JUMPDEST SWAP1 POP PUSH0 PUSH0 SWAP1 POP PUSH0 PUSH20 0xFFFFFFFFFFFFFFFFFFFFFFFFFFFFFFFFFFFFFFFF AND PUSH1 0x5 PUSH0 SWAP1 SLOAD SWAP1 PUSH2 0x100 EXP SWAP1 DIV PUSH20 0xFFFFFFFFFFFFFFFFFFFFFFFFFFFFFFFFFFFFFFFF AND PUSH20 0xFFFFFFFFFFFFFFFFFFFFFFFFFFFFFFFFFFFFFFFF AND EQ PUSH2 0x1319 JUMPI PUSH1 0x5 PUSH0 SWAP1 SLOAD SWAP1 PUSH2 0x100 EXP SWAP1 DIV PUSH20 0xFFFFFFFFFFFFFFFFFFFFFFFFFFFFFFFFFFFFFFFF AND PUSH20 0xFFFFFFFFFFFFFFFFFFFFFFFFFFFFFFFFFFFFFFFF AND PUSH4 0x70A08231 DUP6 PUSH1 0x40 MLOAD DUP3 PUSH4 0xFFFFFFFF AND PUSH1 0xE0 SHL DUP2 MSTORE PUSH1 0x4 ADD PUSH2 0x12D7 SWAP2 SWAP1 PUSH2 0x2E88 JUMP JUMPDEST PUSH1 0x20 PUSH1 0x40 MLOAD DUP1 DUP4 SUB DUP2 DUP7 GAS STATICCALL ISZERO DUP1 ISZERO PUSH2 0x12F2 JUMPI RETURNDATASIZE PUSH0 PUSH0 RETURNDATACOPY RETURNDATASIZE PUSH0 REVERT JUMPDEST POP POP POP POP PUSH1 0x40 MLOAD RETURNDATASIZE PUSH1 0x1F NOT PUSH1 0x1F DUP3 ADD AND DUP3 ADD DUP1 PUSH1 0x40 MSTORE POP DUP2 ADD SWAP1 PUSH2 0x1316 SWAP2 SWAP1 PUSH2 0x346A JUMP JUMPDEST SWAP1 POP JUMPDEST PUSH1 0x40 MLOAD DUP1 PUSH1 0xA0 ADD PUSH1 0x40 MSTORE DUP1 DUP4 PUSH0 ADD MLOAD PUSH16 0xFFFFFFFFFFFFFFFFFFFFFFFFFFFFFFFF AND DUP2 MSTORE PUSH1 0x20 ADD DUP4 PUSH1 0x40 ADD MLOAD PUSH12 0xFFFFFFFFFFFFFFFFFFFFFFFF AND DUP2 MSTORE PUSH1 0x20 ADD DUP4 PUSH1 0x20 ADD MLOAD PUSH4 0xFFFFFFFF AND DUP2 MSTORE PUSH1 0x20 ADD PUSH0 DUP5 PUSH0 ADD MLOAD PUSH16 0xFFFFFFFFFFFFFFFFFFFFFFFFFFFFFFFF AND GT ISZERO ISZERO DUP2 MSTORE PUSH1 0x20 ADD DUP3 DUP2 MSTORE POP SWAP3 POP POP POP SWAP2 SWAP1 POP JUMP JUMPDEST PUSH2 0x139B PUSH2 0x270A JUMP JUMPDEST PUSH20 0xFFFFFFFFFFFFFFFFFFFFFFFFFFFFFFFFFFFFFFFF AND PUSH2 0x13B9 PUSH2 0x1984 JUMP JUMPDEST PUSH20 0xFFFFFFFFFFFFFFFFFFFFFFFFFFFFFFFFFFFFFFFF AND EQ PUSH2 0x140F JUMPI PUSH1 0x40 MLOAD PUSH32 0x8C379A000000000000000000000000000000000000000000000000000000000 DUP2 MSTORE PUSH1 0x4 ADD PUSH2 0x1406 SWAP1 PUSH2 0x3300 JUMP JUMPDEST PUSH1 0x40 MLOAD DUP1 SWAP2 SUB SWAP1 REVERT JUMPDEST PUSH0 PUSH20 0xFFFFFFFFFFFFFFFFFFFFFFFFFFFFFFFFFFFFFFFF AND DUP2 PUSH20 0xFFFFFFFFFFFFFFFFFFFFFFFFFFFFFFFFFFFFFFFF AND SUB PUSH2 0x147D JUMPI PUSH1 0x40 MLOAD PUSH32 0x8C379A000000000000000000000000000000000000000000000000000000000 DUP2 MSTORE PUSH1 0x4 ADD PUSH2 0x1474 SWAP1 PUSH2 0x366D JUMP JUMPDEST PUSH1 0x40 MLOAD DUP1 SWAP2 SUB SWAP1 REVERT JUMPDEST DUP1 PUSH1 0x3 PUSH0 PUSH2 0x100 EXP DUP2 SLOAD DUP2 PUSH20 0xFFFFFFFFFFFFFFFFFFFFFFFFFFFFFFFFFFFFFFFF MUL NOT AND SWAP1 DUP4 PUSH20 0xFFFFFFFFFFFFFFFFFFFFFFFFFFFFFFFFFFFFFFFF AND MUL OR SWAP1 SSTORE POP DUP1 PUSH20 0xFFFFFFFFFFFFFFFFFFFFFFFFFFFFFFFFFFFFFFFF AND PUSH4 0x2BDB0D92 PUSH1 0x40 MLOAD DUP2 PUSH4 0xFFFFFFFF AND PUSH1 0xE0 SHL DUP2 MSTORE PUSH1 0x4 ADD PUSH1 0x20 PUSH1 0x40 MLOAD DUP1 DUP4 SUB DUP2 DUP7 GAS STATICCALL SWAP3 POP POP POP DUP1 ISZERO PUSH2 0x1525 JUMPI POP PUSH1 0x40 MLOAD RETURNDATASIZE PUSH1 0x1F NOT PUSH1 0x1F DUP3 ADD AND DUP3 ADD DUP1 PUSH1 0x40 MSTORE POP DUP2 ADD SWAP1 PUSH2 0x1522 SWAP2 SWAP1 PUSH2 0x369F JUMP JUMPDEST PUSH1 0x1 JUMPDEST ISZERO PUSH2 0x15F7 JUMPI PUSH0 PUSH20 0xFFFFFFFFFFFFFFFFFFFFFFFFFFFFFFFFFFFFFFFF AND DUP2 PUSH20 0xFFFFFFFFFFFFFFFFFFFFFFFFFFFFFFFFFFFFFFFF AND EQ PUSH2 0x15F5 JUMPI DUP1 PUSH1 0x5 PUSH0 PUSH2 0x100 EXP DUP2 SLOAD DUP2 PUSH20 0xFFFFFFFFFFFFFFFFFFFFFFFFFFFFFFFFFFFFFFFF MUL NOT AND SWAP1 DUP4 PUSH20 0xFFFFFFFFFFFFFFFFFFFFFFFFFFFFFFFFFFFFFFFF AND MUL OR SWAP1 SSTORE POP DUP1 PUSH20 0xFFFFFFFFFFFFFFFFFFFFFFFFFFFFFFFFFFFFFFFF AND PUSH1 0x40 MLOAD PUSH2 0x15C0 SWAP1 PUSH2 0x3547 JUMP JUMPDEST PUSH1 0x40 MLOAD DUP1 SWAP2 SUB SWAP1 KECCAK256 PUSH32 0xB66C2F14F9918A1CF623DBEEED97AC7A96ACE1FD080E5DC03DF1F8DA61068B88 PUSH1 0x40 MLOAD PUSH1 0x40 MLOAD DUP1 SWAP2 SUB SWAP1 LOG3 JUMPDEST POP JUMPDEST DUP1 PUSH20 0xFFFFFFFFFFFFFFFFFFFFFFFFFFFFFFFFFFFFFFFF AND PUSH1 0x40 MLOAD PUSH2 0x161A SWAP1 PUSH2 0x3714 JUMP JUMPDEST PUSH1 0x40 MLOAD DUP1 SWAP2 SUB SWAP1 KECCAK256 PUSH32 0xB66C2F14F9918A1CF623DBEEED97AC7A96ACE1FD080E5DC03DF1F8DA61068B88 PUSH1 0x40 MLOAD PUSH1 0x40 MLOAD DUP1 SWAP2 SUB SWAP1 LOG3 POP JUMP JUMPDEST PUSH1 0x5 PUSH0 SWAP1 SLOAD SWAP1 PUSH2 0x100 EXP SWAP1 DIV PUSH20 0xFFFFFFFFFFFFFFFFFFFFFFFFFFFFFFFFFFFFFFFF AND DUP2 JUMP JUMPDEST PUSH2 0x167E PUSH2 0x270A JUMP JUMPDEST PUSH20 0xFFFFFFFFFFFFFFFFFFFFFFFFFFFFFFFFFFFFFFFF AND PUSH2 0x169C PUSH2 0x1984 JUMP JUMPDEST PUSH20 0xFFFFFFFFFFFFFFFFFFFFFFFFFFFFFFFFFFFFFFFF AND EQ PUSH2 0x16F2 JUMPI PUSH1 0x40 MLOAD PUSH32 0x8C379A000000000000000000000000000000000000000000000000000000000 DUP2 MSTORE PUSH1 0x4 ADD PUSH2 0x16E9 SWAP1 PUSH2 0x3300 JUMP JUMPDEST PUSH1 0x40 MLOAD DUP1 SWAP2 SUB SWAP1 REVERT JUMPDEST PUSH2 0x16FB PUSH0 PUSH2 0x2711 JUMP JUMPDEST JUMP JUMPDEST PUSH1 0x4 PUSH0 SWAP1 SLOAD SWAP1 PUSH2 0x100 EXP SWAP1 DIV PUSH20 0xFFFFFFFFFFFFFFFFFFFFFFFFFFFFFFFFFFFFFFFF AND DUP2 JUMP JUMPDEST PUSH2 0x172A PUSH2 0x270A JUMP JUMPDEST PUSH20 0xFFFFFFFFFFFFFFFFFFFFFFFFFFFFFFFFFFFFFFFF AND PUSH2 0x1748 PUSH2 0x1984 JUMP JUMPDEST PUSH20 0xFFFFFFFFFFFFFFFFFFFFFFFFFFFFFFFFFFFFFFFF AND EQ PUSH2 0x179E JUMPI PUSH1 0x40 MLOAD PUSH32 0x8C379A000000000000000000000000000000000000000000000000000000000 DUP2 MSTORE PUSH1 0x4 ADD PUSH2 0x1795 SWAP1 PUSH2 0x3300 JUMP JUMPDEST PUSH1 0x40 MLOAD DUP1 SWAP2 SUB SWAP1 REVERT JUMPDEST PUSH0 PUSH20 0xFFFFFFFFFFFFFFFFFFFFFFFFFFFFFFFFFFFFFFFF AND PUSH1 0x2 PUSH0 SWAP1 SLOAD SWAP1 PUSH2 0x100 EXP SWAP1 DIV PUSH20 0xFFFFFFFFFFFFFFFFFFFFFFFFFFFFFFFFFFFFFFFF AND PUSH20 0xFFFFFFFFFFFFFFFFFFFFFFFFFFFFFFFFFFFFFFFF AND SUB PUSH2 0x182D JUMPI PUSH1 0x40 MLOAD PUSH32 0x8C379A000000000000000000000000000000000000000000000000000000000 DUP2 MSTORE PUSH1 0x4 ADD PUSH2 0x1824 SWAP1 PUSH2 0x3772 JUMP JUMPDEST PUSH1 0x40 MLOAD DUP1 SWAP2 SUB SWAP1 REVERT JUMPDEST PUSH0 PUSH1 0x2 PUSH0 SWAP1 SLOAD SWAP1 PUSH2 0x100 EXP SWAP1 DIV PUSH20 0xFFFFFFFFFFFFFFFFFFFFFFFFFFFFFFFFFFFFFFFF AND PUSH20 0xFFFFFFFFFFFFFFFFFFFFFFFFFFFFFFFFFFFFFFFF AND PUSH1 0x40 MLOAD PUSH1 0x24 ADD PUSH2 0x1875 SWAP1 PUSH2 0x37B3 JUMP JUMPDEST PUSH1 0x40 MLOAD PUSH1 0x20 DUP2 DUP4 SUB SUB DUP2 MSTORE SWAP1 PUSH1 0x40 MSTORE PUSH32 0x4585E33B00000000000000000000000000000000000000000000000000000000 PUSH28 0xFFFFFFFFFFFFFFFFFFFFFFFFFFFFFFFFFFFFFFFFFFFFFFFFFFFFFFFF NOT AND PUSH1 0x20 DUP3 ADD DUP1 MLOAD PUSH28 0xFFFFFFFFFFFFFFFFFFFFFFFFFFFFFFFFFFFFFFFFFFFFFFFFFFFFFFFF DUP4 DUP2 DUP4 AND OR DUP4 MSTORE POP POP POP POP PUSH1 0x40 MLOAD PUSH2 0x18FF SWAP2 SWAP1 PUSH2 0x2FF9 JUMP JUMPDEST PUSH0 PUSH1 0x40 MLOAD DUP1 DUP4 SUB DUP2 PUSH0 DUP7 GAS CALL SWAP2 POP POP RETURNDATASIZE DUP1 PUSH0 DUP2 EQ PUSH2 0x1938 JUMPI PUSH1 0x40 MLOAD SWAP2 POP PUSH1 0x1F NOT PUSH1 0x3F RETURNDATASIZE ADD AND DUP3 ADD PUSH1 0x40 MSTORE RETURNDATASIZE DUP3 MSTORE RETURNDATASIZE PUSH0 PUSH1 0x20 DUP5 ADD RETURNDATACOPY PUSH2 0x193D JUMP JUMPDEST PUSH1 0x60 SWAP2 POP JUMPDEST POP POP SWAP1 POP DUP1 PUSH2 0x1981 JUMPI PUSH1 0x40 MLOAD PUSH32 0x8C379A000000000000000000000000000000000000000000000000000000000 DUP2 MSTORE PUSH1 0x4 ADD PUSH2 0x1978 SWAP1 PUSH2 0x381B JUMP JUMPDEST PUSH1 0x40 MLOAD DUP1 SWAP2 SUB SWAP1 REVERT JUMPDEST POP JUMP JUMPDEST PUSH0 PUSH0 PUSH0 SWAP1 SLOAD SWAP1 PUSH2 0x100 EXP SWAP1 DIV PUSH20 0xFFFFFFFFFFFFFFFFFFFFFFFFFFFFFFFFFFFFFFFF AND SWAP1 POP SWAP1 JUMP JUMPDEST PUSH1 0x2 PUSH1 0x1 SLOAD SUB PUSH2 0x19F0 JUMPI PUSH1 0x40 MLOAD PUSH32 0x8C379A000000000000000000000000000000000000000000000000000000000 DUP2 MSTORE PUSH1 0x4 ADD PUSH2 0x19E7 SWAP1 PUSH2 0x3883 JUMP JUMPDEST PUSH1 0x40 MLOAD DUP1 SWAP2 SUB SWAP1 REVERT JUMPDEST PUSH1 0x2 PUSH1 0x1 DUP2 SWAP1 SSTORE POP PUSH0 PUSH20 0xFFFFFFFFFFFFFFFFFFFFFFFFFFFFFFFFFFFFFFFF AND PUSH1 0x3 PUSH0 SWAP1 SLOAD SWAP1 PUSH2 0x100 EXP SWAP1 DIV PUSH20 0xFFFFFFFFFFFFFFFFFFFFFFFFFFFFFFFFFFFFFFFF AND PUSH20 0xFFFFFFFFFFFFFFFFFFFFFFFFFFFFFFFFFFFFFFFF AND SUB PUSH2 0x1A87 JUMPI PUSH1 0x40 MLOAD PUSH32 0x8C379A000000000000000000000000000000000000000000000000000000000 DUP2 MSTORE PUSH1 0x4 ADD PUSH2 0x1A7E SWAP1 PUSH2 0x2EEB JUMP JUMPDEST PUSH1 0x40 MLOAD DUP1 SWAP2 SUB SWAP1 REVERT JUMPDEST PUSH0 DUP2 GT PUSH2 0x1AC9 JUMPI PUSH1 0x40 MLOAD PUSH32 0x8C379A000000000000000000000000000000000000000000000000000000000 DUP2 MSTORE PUSH1 0x4 ADD PUSH2 0x1AC0 SWAP1 PUSH2 0x38EB JUMP JUMPDEST PUSH1 0x40 MLOAD DUP1 SWAP2 SUB SWAP1 REVERT JUMPDEST PUSH0 PUSH1 0x3 PUSH0 SWAP1 SLOAD SWAP1 PUSH2 0x100 EXP SWAP1 DIV PUSH20 0xFFFFFFFFFFFFFFFFFFFFFFFFFFFFFFFFFFFFFFFF AND PUSH20 0xFFFFFFFFFFFFFFFFFFFFFFFFFFFFFFFFFFFFFFFF AND PUSH4 0x3FC8CEF3 PUSH1 0x40 MLOAD DUP2 PUSH4 0xFFFFFFFF AND PUSH1 0xE0 SHL DUP2 MSTORE PUSH1 0x4 ADD PUSH1 0x20 PUSH1 0x40 MLOAD DUP1 DUP4 SUB DUP2 DUP7 GAS STATICCALL ISZERO DUP1 ISZERO PUSH2 0x1B34 JUMPI RETURNDATASIZE PUSH0 PUSH0 RETURNDATACOPY RETURNDATASIZE PUSH0 REVERT JUMPDEST POP POP POP POP PUSH1 0x40 MLOAD RETURNDATASIZE PUSH1 0x1F NOT PUSH1 0x1F DUP3 ADD AND DUP3 ADD DUP1 PUSH1 0x40 MSTORE POP DUP2 ADD SWAP1 PUSH2 0x1B58 SWAP2 SWAP1 PUSH2 0x369F JUMP JUMPDEST SWAP1 POP PUSH0 PUSH20 0xFFFFFFFFFFFFFFFFFFFFFFFFFFFFFFFFFFFFFFFF AND DUP2 PUSH20 0xFFFFFFFFFFFFFFFFFFFFFFFFFFFFFFFFFFFFFFFF AND SUB PUSH2 0x1BC8 JUMPI PUSH1 0x40 MLOAD PUSH32 0x8C379A000000000000000000000000000000000000000000000000000000000 DUP2 MSTORE PUSH1 0x4 ADD PUSH2 0x1BBF SWAP1 PUSH2 0x3953 JUMP JUMPDEST PUSH1 0x40 MLOAD DUP1 SWAP2 SUB SWAP1 REVERT JUMPDEST PUSH2 0x1BF5 CALLER ADDRESS DUP5 DUP5 PUSH20 0xFFFFFFFFFFFFFFFFFFFFFFFFFFFFFFFFFFFFFFFF AND PUSH2 0x27D2 SWAP1 SWAP4 SWAP3 SWAP2 SWAP1 PUSH4 0xFFFFFFFF AND JUMP JUMPDEST PUSH2 0x1C41 PUSH1 0x3 PUSH0 SWAP1 SLOAD SWAP1 PUSH2 0x100 EXP SWAP1 DIV PUSH20 0xFFFFFFFFFFFFFFFFFFFFFFFFFFFFFFFFFFFFFFFF AND DUP4 DUP4 PUSH20 0xFFFFFFFFFFFFFFFFFFFFFFFFFFFFFFFFFFFFFFFF AND PUSH2 0x285B SWAP1 SWAP3 SWAP2 SWAP1 PUSH4 0xFFFFFFFF AND JUMP JUMPDEST PUSH0 PUSH1 0x3 PUSH0 SWAP1 SLOAD SWAP1 PUSH2 0x100 EXP SWAP1 DIV PUSH20 0xFFFFFFFFFFFFFFFFFFFFFFFFFFFFFFFFFFFFFFFF AND PUSH20 0xFFFFFFFFFFFFFFFFFFFFFFFFFFFFFFFFFFFFFFFF AND CALLER DUP5 PUSH1 0x40 MLOAD PUSH1 0x24 ADD PUSH2 0x1C8D SWAP3 SWAP2 SWAP1 PUSH2 0x2F80 JUMP JUMPDEST PUSH1 0x40 MLOAD PUSH1 0x20 DUP2 DUP4 SUB SUB DUP2 MSTORE SWAP1 PUSH1 0x40 MSTORE PUSH32 0x2F4F21E200000000000000000000000000000000000000000000000000000000 PUSH28 0xFFFFFFFFFFFFFFFFFFFFFFFFFFFFFFFFFFFFFFFFFFFFFFFFFFFFFFFF NOT AND PUSH1 0x20 DUP3 ADD DUP1 MLOAD PUSH28 0xFFFFFFFFFFFFFFFFFFFFFFFFFFFFFFFFFFFFFFFFFFFFFFFFFFFFFFFF DUP4 DUP2 DUP4 AND OR DUP4 MSTORE POP POP POP POP PUSH1 0x40 MLOAD PUSH2 0x1D17 SWAP2 SWAP1 PUSH2 0x2FF9 JUMP JUMPDEST PUSH0 PUSH1 0x40 MLOAD DUP1 DUP4 SUB DUP2 PUSH0 DUP7 GAS CALL SWAP2 POP POP RETURNDATASIZE DUP1 PUSH0 DUP2 EQ PUSH2 0x1D50 JUMPI PUSH1 0x40 MLOAD SWAP2 POP PUSH1 0x1F NOT PUSH1 0x3F RETURNDATASIZE ADD AND DUP3 ADD PUSH1 0x40 MSTORE RETURNDATASIZE DUP3 MSTORE RETURNDATASIZE PUSH0 PUSH1 0x20 DUP5 ADD RETURNDATACOPY PUSH2 0x1D55 JUMP JUMPDEST PUSH1 0x60 SWAP2 POP JUMPDEST POP POP SWAP1 POP DUP1 PUSH2 0x1D99 JUMPI PUSH1 0x40 MLOAD PUSH32 0x8C379A000000000000000000000000000000000000000000000000000000000 DUP2 MSTORE PUSH1 0x4 ADD PUSH2 0x1D90 SWAP1 PUSH2 0x39BB JUMP JUMPDEST PUSH1 0x40 MLOAD DUP1 SWAP2 SUB SWAP1 REVERT JUMPDEST CALLER PUSH20 0xFFFFFFFFFFFFFFFFFFFFFFFFFFFFFFFFFFFFFFFF AND PUSH32 0x53EF711025B489956217F8C567B33471FE359E30A2DA402028B2D897DCE90257 DUP5 PUSH1 0x40 MLOAD PUSH2 0x1DDF SWAP2 SWAP1 PUSH2 0x39D9 JUMP JUMPDEST PUSH1 0x40 MLOAD DUP1 SWAP2 SUB SWAP1 LOG2 POP POP PUSH1 0x1 DUP1 DUP2 SWAP1 SSTORE POP POP JUMP JUMPDEST PUSH1 0x2 PUSH0 SWAP1 SLOAD SWAP1 PUSH2 0x100 EXP SWAP1 DIV PUSH20 0xFFFFFFFFFFFFFFFFFFFFFFFFFFFFFFFFFFFFFFFF AND DUP2 JUMP JUMPDEST PUSH1 0x2 PUSH1 0x1 SLOAD SUB PUSH2 0x1E5D JUMPI PUSH1 0x40 MLOAD PUSH32 0x8C379A000000000000000000000000000000000000000000000000000000000 DUP2 MSTORE PUSH1 0x4 ADD PUSH2 0x1E54 SWAP1 PUSH2 0x3883 JUMP JUMPDEST PUSH1 0x40 MLOAD DUP1 SWAP2 SUB SWAP1 REVERT JUMPDEST PUSH1 0x2 PUSH1 0x1 DUP2 SWAP1 SSTORE POP PUSH0 PUSH20 0xFFFFFFFFFFFFFFFFFFFFFFFFFFFFFFFFFFFFFFFF AND PUSH1 0x4 PUSH0 SWAP1 SLOAD SWAP1 PUSH2 0x100 EXP SWAP1 DIV PUSH20 0xFFFFFFFFFFFFFFFFFFFFFFFFFFFFFFFFFFFFFFFF AND PUSH20 0xFFFFFFFFFFFFFFFFFFFFFFFFFFFFFFFFFFFFFFFF AND SUB PUSH2 0x1EF4 JUMPI PUSH1 0x40 MLOAD PUSH32 0x8C379A000000000000000000000000000000000000000000000000000000000 DUP2 MSTORE PUSH1 0x4 ADD PUSH2 0x1EEB SWAP1 PUSH2 0x3A3C JUMP JUMPDEST PUSH1 0x40 MLOAD DUP1 SWAP2 SUB SWAP1 REVERT JUMPDEST PUSH0 PUSH20 0xFFFFFFFFFFFFFFFFFFFFFFFFFFFFFFFFFFFFFFFF AND PUSH1 0x2 PUSH0 SWAP1 SLOAD SWAP1 PUSH2 0x100 EXP SWAP1 DIV PUSH20 0xFFFFFFFFFFFFFFFFFFFFFFFFFFFFFFFFFFFFFFFF AND PUSH20 0xFFFFFFFFFFFFFFFFFFFFFFFFFFFFFFFFFFFFFFFF AND SUB PUSH2 0x1F83 JUMPI PUSH1 0x40 MLOAD PUSH32 0x8C379A000000000000000000000000000000000000000000000000000000000 DUP2 MSTORE PUSH1 0x4 ADD PUSH2 0x1F7A SWAP1 PUSH2 0x3772 JUMP JUMPDEST PUSH1 0x40 MLOAD DUP1 SWAP2 SUB SWAP1 REVERT JUMPDEST PUSH0 PUSH1 0x2 PUSH0 SWAP1 SLOAD SWAP1 PUSH2 0x100 EXP SWAP1 DIV PUSH20 0xFFFFFFFFFFFFFFFFFFFFFFFFFFFFFFFFFFFFFFFF AND PUSH20 0xFFFFFFFFFFFFFFFFFFFFFFFFFFFFFFFFFFFFFFFF AND PUSH4 0xC4A909BA DUP4 PUSH1 0x40 MLOAD DUP3 PUSH4 0xFFFFFFFF AND PUSH1 0xE0 SHL DUP2 MSTORE PUSH1 0x4 ADD PUSH2 0x1FDE SWAP2 SWAP1 PUSH2 0x39D9 JUMP JUMPDEST PUSH1 0xE0 PUSH1 0x40 MLOAD DUP1 DUP4 SUB DUP2 DUP7 GAS STATICCALL ISZERO DUP1 ISZERO PUSH2 0x1FF9 JUMPI RETURNDATASIZE PUSH0 PUSH0 RETURNDATACOPY RETURNDATASIZE PUSH0 REVERT JUMPDEST POP POP POP POP PUSH1 0x40 MLOAD RETURNDATASIZE PUSH1 0x1F NOT PUSH1 0x1F DUP3 ADD AND DUP3 ADD DUP1 PUSH1 0x40 MSTORE POP DUP2 ADD SWAP1 PUSH2 0x201D SWAP2 SWAP1 PUSH2 0x3B35 JUMP JUMPDEST SWAP1 POP CALLER PUSH20 0xFFFFFFFFFFFFFFFFFFFFFFFFFFFFFFFFFFFFFFFF AND DUP2 PUSH1 0x20 ADD MLOAD PUSH20 0xFFFFFFFFFFFFFFFFFFFFFFFFFFFFFFFFFFFFFFFF AND EQ PUSH2 0x2091 JUMPI PUSH1 0x40 MLOAD PUSH32 0x8C379A000000000000000000000000000000000000000000000000000000000 DUP2 MSTORE PUSH1 0x4 ADD PUSH2 0x2088 SWAP1 PUSH2 0x3BAA JUMP JUMPDEST PUSH1 0x40 MLOAD DUP1 SWAP2 SUB SWAP1 REVERT JUMPDEST DUP1 PUSH1 0xA0 ADD MLOAD ISZERO PUSH2 0x20D6 JUMPI PUSH1 0x40 MLOAD PUSH32 0x8C379A000000000000000000000000000000000000000000000000000000000 DUP2 MSTORE PUSH1 0x4 ADD PUSH2 0x20CD SWAP1 PUSH2 0x3C12 JUMP JUMPDEST PUSH1 0x40 MLOAD DUP1 SWAP2 SUB SWAP1 REVERT JUMPDEST PUSH1 0x4 PUSH0 SWAP1 SLOAD SWAP1 PUSH2 0x100 EXP SWAP1 DIV PUSH20 0xFFFFFFFFFFFFFFFFFFFFFFFFFFFFFFFFFFFFFFFF AND PUSH20 0xFFFFFFFFFFFFFFFFFFFFFFFFFFFFFFFFFFFFFFFF AND PUSH4 0xD7098154 DUP4 PUSH1 0x40 MLOAD DUP3 PUSH4 0xFFFFFFFF AND PUSH1 0xE0 SHL DUP2 MSTORE PUSH1 0x4 ADD PUSH2 0x2130 SWAP2 SWAP1 PUSH2 0x39D9 JUMP JUMPDEST PUSH0 PUSH1 0x40 MLOAD DUP1 DUP4 SUB DUP2 PUSH0 DUP8 DUP1 EXTCODESIZE ISZERO DUP1 ISZERO PUSH2 0x2147 JUMPI PUSH0 PUSH0 REVERT JUMPDEST POP GAS CALL ISZERO DUP1 ISZERO PUSH2 0x2159 JUMPI RETURNDATASIZE PUSH0 PUSH0 RETURNDATACOPY RETURNDATASIZE PUSH0 REVERT JUMPDEST POP POP POP POP CALLER PUSH20 0xFFFFFFFFFFFFFFFFFFFFFFFFFFFFFFFFFFFFFFFF AND PUSH32 0xA9D775BB1156CF56920FBED972ACCB058FB34C77ED1D124565A2E23F5ECF30D3 DUP3 PUSH1 0x40 ADD MLOAD DUP5 PUSH1 0x40 MLOAD PUSH2 0x21A9 SWAP3 SWAP2 SWAP1 PUSH2 0x3C30 JUMP JUMPDEST PUSH1 0x40 MLOAD DUP1 SWAP2 SUB SWAP1 LOG2 POP PUSH1 0x1 DUP1 DUP2 SWAP1 SSTORE POP POP JUMP JUMPDEST PUSH2 0x21C4 PUSH2 0x270A JUMP JUMPDEST PUSH20 0xFFFFFFFFFFFFFFFFFFFFFFFFFFFFFFFFFFFFFFFF AND PUSH2 0x21E2 PUSH2 0x1984 JUMP JUMPDEST PUSH20 0xFFFFFFFFFFFFFFFFFFFFFFFFFFFFFFFFFFFFFFFF AND EQ PUSH2 0x2238 JUMPI PUSH1 0x40 MLOAD PUSH32 0x8C379A000000000000000000000000000000000000000000000000000000000 DUP2 MSTORE PUSH1 0x4 ADD PUSH2 0x222F SWAP1 PUSH2 0x3300 JUMP JUMPDEST PUSH1 0x40 MLOAD DUP1 SWAP2 SUB SWAP1 REVERT JUMPDEST PUSH0 PUSH20 0xFFFFFFFFFFFFFFFFFFFFFFFFFFFFFFFFFFFFFFFF AND DUP2 PUSH20 0xFFFFFFFFFFFFFFFFFFFFFFFFFFFFFFFFFFFFFFFF AND SUB PUSH2 0x22A6 JUMPI PUSH1 0x40 MLOAD PUSH32 0x8C379A000000000000000000000000000000000000000000000000000000000 DUP2 MSTORE PUSH1 0x4 ADD PUSH2 0x229D SWAP1 PUSH2 0x3CA1 JUMP JUMPDEST PUSH1 0x40 MLOAD DUP1 SWAP2 SUB SWAP1 REVERT JUMPDEST DUP1 PUSH1 0x2 PUSH0 PUSH2 0x100 EXP DUP2 SLOAD DUP2 PUSH20 0xFFFFFFFFFFFFFFFFFFFFFFFFFFFFFFFFFFFFFFFF MUL NOT AND SWAP1 DUP4 PUSH20 0xFFFFFFFFFFFFFFFFFFFFFFFFFFFFFFFFFFFFFFFF AND MUL OR SWAP1 SSTORE POP DUP1 PUSH20 0xFFFFFFFFFFFFFFFFFFFFFFFFFFFFFFFFFFFFFFFF AND PUSH1 0x40 MLOAD PUSH2 0x2309 SWAP1 PUSH2 0x3D09 JUMP JUMPDEST PUSH1 0x40 MLOAD DUP1 SWAP2 SUB SWAP1 KECCAK256 PUSH32 0xB66C2F14F9918A1CF623DBEEED97AC7A96ACE1FD080E5DC03DF1F8DA61068B88 PUSH1 0x40 MLOAD PUSH1 0x40 MLOAD DUP1 SWAP2 SUB SWAP1 LOG3 POP JUMP JUMPDEST PUSH2 0x2348 PUSH2 0x270A JUMP JUMPDEST PUSH20 0xFFFFFFFFFFFFFFFFFFFFFFFFFFFFFFFFFFFFFFFF AND PUSH2 0x2366 PUSH2 0x1984 JUMP JUMPDEST PUSH20 0xFFFFFFFFFFFFFFFFFFFFFFFFFFFFFFFFFFFFFFFF AND EQ PUSH2 0x23BC JUMPI PUSH1 0x40 MLOAD PUSH32 0x8C379A000000000000000000000000000000000000000000000000000000000 DUP2 MSTORE PUSH1 0x4 ADD PUSH2 0x23B3 SWAP1 PUSH2 0x3300 JUMP JUMPDEST PUSH1 0x40 MLOAD DUP1 SWAP2 SUB SWAP1 REVERT JUMPDEST PUSH0 PUSH20 0xFFFFFFFFFFFFFFFFFFFFFFFFFFFFFFFFFFFFFFFF AND DUP2 PUSH20 0xFFFFFFFFFFFFFFFFFFFFFFFFFFFFFFFFFFFFFFFF AND SUB PUSH2 0x242A JUMPI PUSH1 0x40 MLOAD PUSH32 0x8C379A000000000000000000000000000000000000000000000000000000000 DUP2 MSTORE PUSH1 0x4 ADD PUSH2 0x2421 SWAP1 PUSH2 0x3D8D JUMP JUMPDEST PUSH1 0x40 MLOAD DUP1 SWAP2 SUB SWAP1 REVERT JUMPDEST PUSH2 0x2433 DUP2 PUSH2 0x2711 JUMP JUMPDEST POP JUMP JUMPDEST PUSH1 0x3 PUSH0 SWAP1 SLOAD SWAP1 PUSH2 0x100 EXP SWAP1 DIV PUSH20 0xFFFFFFFFFFFFFFFFFFFFFFFFFFFFFFFFFFFFFFFF AND DUP2 JUMP JUMPDEST PUSH1 0x2 PUSH1 0x1 SLOAD SUB PUSH2 0x24A0 JUMPI PUSH1 0x40 MLOAD PUSH32 0x8C379A000000000000000000000000000000000000000000000000000000000 DUP2 MSTORE PUSH1 0x4 ADD PUSH2 0x2497 SWAP1 PUSH2 0x3883 JUMP JUMPDEST PUSH1 0x40 MLOAD DUP1 SWAP2 SUB SWAP1 REVERT JUMPDEST PUSH1 0x2 PUSH1 0x1 DUP2 SWAP1 SSTORE POP PUSH2 0x24F6 CALLER ADDRESS DUP5 PUSH1 0x5 PUSH0 SWAP1 SLOAD SWAP1 PUSH2 0x100 EXP SWAP1 DIV PUSH20 0xFFFFFFFFFFFFFFFFFFFFFFFFFFFFFFFFFFFFFFFF AND PUSH20 0xFFFFFFFFFFFFFFFFFFFFFFFFFFFFFFFFFFFFFFFF AND PUSH2 0x27D2 SWAP1 SWAP4 SWAP3 SWAP2 SWAP1 PUSH4 0xFFFFFFFF AND JUMP JUMPDEST PUSH2 0x2563 PUSH1 0x3 PUSH0 SWAP1 SLOAD SWAP1 PUSH2 0x100 EXP SWAP1 DIV PUSH20 0xFFFFFFFFFFFFFFFFFFFFFFFFFFFFFFFFFFFFFFFF AND DUP4 PUSH1 0x5 PUSH0 SWAP1 SLOAD SWAP1 PUSH2 0x100 EXP SWAP1 DIV PUSH20 0xFFFFFFFFFFFFFFFFFFFFFFFFFFFFFFFFFFFFFFFF AND PUSH20 0xFFFFFFFFFFFFFFFFFFFFFFFFFFFFFFFFFFFFFFFF AND PUSH2 0x285B SWAP1 SWAP3 SWAP2 SWAP1 PUSH4 0xFFFFFFFF AND JUMP JUMPDEST PUSH0 PUSH1 0x3 PUSH0 SWAP1 SLOAD SWAP1 PUSH2 0x100 EXP SWAP1 DIV PUSH20 0xFFFFFFFFFFFFFFFFFFFFFFFFFFFFFFFFFFFFFFFF AND PUSH20 0xFFFFFFFFFFFFFFFFFFFFFFFFFFFFFFFFFFFFFFFF AND DUP3 CALLER PUSH1 0x40 MLOAD PUSH1 0x24 ADD PUSH2 0x25AF SWAP3 SWAP2 SWAP1 PUSH2 0x3DAB JUMP JUMPDEST PUSH1 0x40 MLOAD PUSH1 0x20 DUP2 DUP4 SUB SUB DUP2 MSTORE SWAP1 PUSH1 0x40 MSTORE PUSH32 0x3576F6CC00000000000000000000000000000000000000000000000000000000 PUSH28 0xFFFFFFFFFFFFFFFFFFFFFFFFFFFFFFFFFFFFFFFFFFFFFFFFFFFFFFFF NOT AND PUSH1 0x20 DUP3 ADD DUP1 MLOAD PUSH28 0xFFFFFFFFFFFFFFFFFFFFFFFFFFFFFFFFFFFFFFFFFFFFFFFFFFFFFFFF DUP4 DUP2 DUP4 AND OR DUP4 MSTORE POP POP POP POP PUSH1 0x40 MLOAD PUSH2 0x2639 SWAP2 SWAP1 PUSH2 0x2FF9 JUMP JUMPDEST PUSH0 PUSH1 0x40 MLOAD DUP1 DUP4 SUB DUP2 PUSH0 DUP7 GAS CALL SWAP2 POP POP RETURNDATASIZE DUP1 PUSH0 DUP2 EQ PUSH2 0x2672 JUMPI PUSH1 0x40 MLOAD SWAP2 POP PUSH1 0x1F NOT PUSH1 0x3F RETURNDATASIZE ADD AND DUP3 ADD PUSH1 0x40 MSTORE RETURNDATASIZE DUP3 MSTORE RETURNDATASIZE PUSH0 PUSH1 0x20 DUP5 ADD RETURNDATACOPY PUSH2 0x2677 JUMP JUMPDEST PUSH1 0x60 SWAP2 POP JUMPDEST POP POP SWAP1 POP DUP1 PUSH2 0x26BB JUMPI PUSH1 0x40 MLOAD PUSH32 0x8C379A000000000000000000000000000000000000000000000000000000000 DUP2 MSTORE PUSH1 0x4 ADD PUSH2 0x26B2 SWAP1 PUSH2 0x3E1C JUMP JUMPDEST PUSH1 0x40 MLOAD DUP1 SWAP2 SUB SWAP1 REVERT JUMPDEST CALLER PUSH20 0xFFFFFFFFFFFFFFFFFFFFFFFFFFFFFFFFFFFFFFFF AND PUSH32 0x3E07C5771A8EB0C763DEA30D0752320B6EDC01ED74C334206E053BF7330C1479 PUSH1 0x40 MLOAD PUSH1 0x40 MLOAD DUP1 SWAP2 SUB SWAP1 LOG2 POP PUSH1 0x1 DUP1 DUP2 SWAP1 SSTORE POP POP POP JUMP JUMPDEST PUSH0 CALLER SWAP1 POP SWAP1 JUMP JUMPDEST PUSH0 PUSH0 PUSH0 SWAP1 SLOAD SWAP1 PUSH2 0x100 EXP SWAP1 DIV PUSH20 0xFFFFFFFFFFFFFFFFFFFFFFFFFFFFFFFFFFFFFFFF AND SWAP1 POP DUP2 PUSH0 PUSH0 PUSH2 0x100 EXP DUP2 SLOAD DUP2 PUSH20 0xFFFFFFFFFFFFFFFFFFFFFFFFFFFFFFFFFFFFFFFF MUL NOT AND SWAP1 DUP4 PUSH20 0xFFFFFFFFFFFFFFFFFFFFFFFFFFFFFFFFFFFFFFFF AND MUL OR SWAP1 SSTORE POP DUP2 PUSH20 0xFFFFFFFFFFFFFFFFFFFFFFFFFFFFFFFFFFFFFFFF AND DUP2 PUSH20 0xFFFFFFFFFFFFFFFFFFFFFFFFFFFFFFFFFFFFFFFF AND PUSH32 0x8BE0079C531659141344CD1FD0A4F28419497F9722A3DAAFE3B4186F6B6457E0 PUSH1 0x40 MLOAD PUSH1 0x40 MLOAD DUP1 SWAP2 SUB SWAP1 LOG3 POP POP JUMP JUMPDEST PUSH2 0x2855 DUP5 PUSH4 0x23B872DD PUSH1 0xE0 SHL DUP6 DUP6 DUP6 PUSH1 0x40 MLOAD PUSH1 0x24 ADD PUSH2 0x27F3 SWAP4 SWAP3 SWAP2 SWAP1 PUSH2 0x3E3A JUMP JUMPDEST PUSH1 0x40 MLOAD PUSH1 0x20 DUP2 DUP4 SUB SUB DUP2 MSTORE SWAP1 PUSH1 0x40 MSTORE SWAP1 PUSH28 0xFFFFFFFFFFFFFFFFFFFFFFFFFFFFFFFFFFFFFFFFFFFFFFFFFFFFFFFF NOT AND PUSH1 0x20 DUP3 ADD DUP1 MLOAD PUSH28 0xFFFFFFFFFFFFFFFFFFFFFFFFFFFFFFFFFFFFFFFFFFFFFFFFFFFFFFFF DUP4 DUP2 DUP4 AND OR DUP4 MSTORE POP POP POP POP PUSH2 0x28E1 JUMP JUMPDEST POP POP POP POP JUMP JUMPDEST PUSH2 0x28DC DUP4 PUSH4 0xA9059CBB PUSH1 0xE0 SHL DUP5 DUP5 PUSH1 0x40 MLOAD PUSH1 0x24 ADD PUSH2 0x287A SWAP3 SWAP2 SWAP1 PUSH2 0x2F80 JUMP JUMPDEST PUSH1 0x40 MLOAD PUSH1 0x20 DUP2 DUP4 SUB SUB DUP2 MSTORE SWAP1 PUSH1 0x40 MSTORE SWAP1 PUSH28 0xFFFFFFFFFFFFFFFFFFFFFFFFFFFFFFFFFFFFFFFFFFFFFFFFFFFFFFFF NOT AND PUSH1 0x20 DUP3 ADD DUP1 MLOAD PUSH28 0xFFFFFFFFFFFFFFFFFFFFFFFFFFFFFFFFFFFFFFFFFFFFFFFFFFFFFFFF DUP4 DUP2 DUP4 AND OR DUP4 MSTORE POP POP POP POP PUSH2 0x28E1 JUMP JUMPDEST POP POP POP JUMP JUMPDEST PUSH0 PUSH2 0x2942 DUP3 PUSH1 0x40 MLOAD DUP1 PUSH1 0x40 ADD PUSH1 0x40 MSTORE DUP1 PUSH1 0x20 DUP2 MSTORE PUSH1 0x20 ADD PUSH32 0x5361666545524332303A206C6F772D6C6576656C2063616C6C206661696C6564 DUP2 MSTORE POP DUP6 PUSH20 0xFFFFFFFFFFFFFFFFFFFFFFFFFFFFFFFFFFFFFFFF AND PUSH2 0x29A6 SWAP1 SWAP3 SWAP2 SWAP1 PUSH4 0xFFFFFFFF AND JUMP JUMPDEST SWAP1 POP PUSH0 DUP2 MLOAD GT ISZERO PUSH2 0x29A1 JUMPI DUP1 DUP1 PUSH1 0x20 ADD SWAP1 MLOAD DUP2 ADD SWAP1 PUSH2 0x2961 SWAP2 SWAP1 PUSH2 0x3E6F JUMP JUMPDEST PUSH2 0x29A0 JUMPI PUSH1 0x40 MLOAD PUSH32 0x8C379A000000000000000000000000000000000000000000000000000000000 DUP2 MSTORE PUSH1 0x4 ADD PUSH2 0x2997 SWAP1 PUSH2 0x3F0A JUMP JUMPDEST PUSH1 0x40 MLOAD DUP1 SWAP2 SUB SWAP1 REVERT JUMPDEST JUMPDEST POP POP POP JUMP JUMPDEST PUSH1 0x60 PUSH2 0x29B4 DUP5 DUP5 PUSH0 DUP6 PUSH2 0x29BD JUMP JUMPDEST SWAP1 POP SWAP4 SWAP3 POP POP POP JUMP JUMPDEST PUSH1 0x60 DUP3 SELFBALANCE LT ISZERO PUSH2 0x2A02 JUMPI PUSH1 0x40 MLOAD PUSH32 0x8C379A000000000000000000000000000000000000000000000000000000000 DUP2 MSTORE PUSH1 0x4 ADD PUSH2 0x29F9 SWAP1 PUSH2 0x3F98 JUMP JUMPDEST PUSH1 0x40 MLOAD DUP1 SWAP2 SUB SWAP1 REVERT JUMPDEST PUSH2 0x2A0B DUP6 PUSH2 0x2ACD JUMP JUMPDEST PUSH2 0x2A4A JUMPI PUSH1 0x40 MLOAD PUSH32 0x8C379A000000000000000000000000000000000000000000000000000000000 DUP2 MSTORE PUSH1 0x4 ADD PUSH2 0x2A41 SWAP1 PUSH2 0x4000 JUMP JUMPDEST PUSH1 0x40 MLOAD DUP1 SWAP2 SUB SWAP1 REVERT JUMPDEST PUSH0 PUSH0 DUP7 PUSH20 0xFFFFFFFFFFFFFFFFFFFFFFFFFFFFFFFFFFFFFFFF AND DUP6 DUP8 PUSH1 0x40 MLOAD PUSH2 0x2A72 SWAP2 SWAP1 PUSH2 0x2FF9 JUMP JUMPDEST PUSH0 PUSH1 0x40 MLOAD DUP1 DUP4 SUB DUP2 DUP6 DUP8 GAS CALL SWAP3 POP POP POP RETURNDATASIZE DUP1 PUSH0 DUP2 EQ PUSH2 0x2AAC JUMPI PUSH1 0x40 MLOAD SWAP2 POP PUSH1 0x1F NOT PUSH1 0x3F RETURNDATASIZE ADD AND DUP3 ADD PUSH1 0x40 MSTORE RETURNDATASIZE DUP3 MSTORE RETURNDATASIZE PUSH0 PUSH1 0x20 DUP5 ADD RETURNDATACOPY PUSH2 0x2AB1 JUMP JUMPDEST PUSH1 0x60 SWAP2 POP JUMPDEST POP SWAP2 POP SWAP2 POP PUSH2 0x2AC1 DUP3 DUP3 DUP7 PUSH2 0x2AEF JUMP JUMPDEST SWAP3 POP POP POP SWAP5 SWAP4 POP POP POP POP JUMP JUMPDEST PUSH0 PUSH0 DUP3 PUSH20 0xFFFFFFFFFFFFFFFFFFFFFFFFFFFFFFFFFFFFFFFF AND EXTCODESIZE GT SWAP1 POP SWAP2 SWAP1 POP JUMP JUMPDEST PUSH1 0x60 DUP4 ISZERO PUSH2 0x2AFF JUMPI DUP3 SWAP1 POP PUSH2 0x2B4E JUMP JUMPDEST PUSH0 DUP4 MLOAD GT ISZERO PUSH2 0x2B11 JUMPI DUP3 MLOAD DUP1 DUP5 PUSH1 0x20 ADD REVERT JUMPDEST DUP2 PUSH1 0x40 MLOAD PUSH32 0x8C379A000000000000000000000000000000000000000000000000000000000 DUP2 MSTORE PUSH1 0x4 ADD PUSH2 0x2B45 SWAP2 SWAP1 PUSH2 0x4060 JUMP JUMPDEST PUSH1 0x40 MLOAD DUP1 SWAP2 SUB SWAP1 REVERT JUMPDEST SWAP4 SWAP3 POP POP POP JUMP JUMPDEST PUSH1 0x40 MLOAD DUP1 PUSH1 0xC0 ADD PUSH1 0x40 MSTORE DUP1 PUSH0 DUP2 MSTORE PUSH1 0x20 ADD PUSH0 DUP2 MSTORE PUSH1 0x20 ADD PUSH0 DUP2 MSTORE PUSH1 0x20 ADD PUSH0 DUP2 MSTORE PUSH1 0x20 ADD PUSH0 DUP2 MSTORE PUSH1 0x20 ADD PUSH0 DUP2 MSTORE POP SWAP1 JUMP JUMPDEST PUSH1 0x40 MLOAD DUP1 PUSH1 0xA0 ADD PUSH1 0x40 MSTORE DUP1 PUSH0 DUP2 MSTORE PUSH1 0x20 ADD PUSH0 DUP2 MSTORE PUSH1 0x20 ADD PUSH0 DUP2 MSTORE PUSH1 0x20 ADD PUSH0 ISZERO ISZERO DUP2 MSTORE PUSH1 0x20 ADD PUSH0 DUP2 MSTORE POP SWAP1 JUMP JUMPDEST PUSH0 DUP3 DUP3 MSTORE PUSH1 0x20 DUP3 ADD SWAP1 POP SWAP3 SWAP2 POP POP JUMP JUMPDEST PUSH32 0x53797374656D206F6E6C792061636365707473205745544820746F6B656E732C PUSH0 DUP3 ADD MSTORE PUSH32 0x206E6F7420455448000000000000000000000000000000000000000000000000 PUSH1 0x20 DUP3 ADD MSTORE POP JUMP JUMPDEST PUSH0 PUSH2 0x2C1B PUSH1 0x28 DUP4 PUSH2 0x2BB1 JUMP JUMPDEST SWAP2 POP PUSH2 0x2C26 DUP3 PUSH2 0x2BC1 JUMP JUMPDEST PUSH1 0x40 DUP3 ADD SWAP1 POP SWAP2 SWAP1 POP JUMP JUMPDEST PUSH0 PUSH1 0x20 DUP3 ADD SWAP1 POP DUP2 DUP2 SUB PUSH0 DUP4 ADD MSTORE PUSH2 0x2C48 DUP2 PUSH2 0x2C0F JUMP JUMPDEST SWAP1 POP SWAP2 SWAP1 POP JUMP JUMPDEST PUSH0 PUSH1 0x40 MLOAD SWAP1 POP SWAP1 JUMP JUMPDEST PUSH0 PUSH0 REVERT JUMPDEST PUSH0 DUP2 SWAP1 POP SWAP2 SWAP1 POP JUMP JUMPDEST PUSH2 0x2C6E DUP2 PUSH2 0x2C5C JUMP JUMPDEST DUP2 EQ PUSH2 0x2C78 JUMPI PUSH0 PUSH0 REVERT JUMPDEST POP JUMP JUMPDEST PUSH0 DUP2 CALLDATALOAD SWAP1 POP PUSH2 0x2C89 DUP2 PUSH2 0x2C65 JUMP JUMPDEST SWAP3 SWAP2 POP POP JUMP JUMPDEST PUSH0 PUSH1 0x20 DUP3 DUP5 SUB SLT ISZERO PUSH2 0x2CA4 JUMPI PUSH2 0x2CA3 PUSH2 0x2C58 JUMP JUMPDEST JUMPDEST PUSH0 PUSH2 0x2CB1 DUP5 DUP3 DUP6 ADD PUSH2 0x2C7B JUMP JUMPDEST SWAP2 POP POP SWAP3 SWAP2 POP POP JUMP JUMPDEST PUSH0 PUSH20 0xFFFFFFFFFFFFFFFFFFFFFFFFFFFFFFFFFFFFFFFF DUP3 AND SWAP1 POP SWAP2 SWAP1 POP JUMP JUMPDEST PUSH0 PUSH2 0x2CE3 DUP3 PUSH2 0x2CBA JUMP JUMPDEST SWAP1 POP SWAP2 SWAP1 POP JUMP JUMPDEST PUSH2 0x2CF3 DUP2 PUSH2 0x2CD9 JUMP JUMPDEST DUP2 EQ PUSH2 0x2CFD JUMPI PUSH0 PUSH0 REVERT JUMPDEST POP JUMP JUMPDEST PUSH0 DUP2 CALLDATALOAD SWAP1 POP PUSH2 0x2D0E DUP2 PUSH2 0x2CEA JUMP JUMPDEST SWAP3 SWAP2 POP POP JUMP JUMPDEST PUSH0 PUSH1 0x20 DUP3 DUP5 SUB SLT ISZERO PUSH2 0x2D29 JUMPI PUSH2 0x2D28 PUSH2 0x2C58 JUMP JUMPDEST JUMPDEST PUSH0 PUSH2 0x2D36 DUP5 DUP3 DUP6 ADD PUSH2 0x2D00 JUMP JUMPDEST SWAP2 POP POP SWAP3 SWAP2 POP POP JUMP JUMPDEST PUSH2 0x2D48 DUP2 PUSH2 0x2C5C JUMP JUMPDEST DUP3 MSTORE POP POP JUMP JUMPDEST PUSH1 0xC0 DUP3 ADD PUSH0 DUP3 ADD MLOAD PUSH2 0x2D62 PUSH0 DUP6 ADD DUP3 PUSH2 0x2D3F JUMP JUMPDEST POP PUSH1 0x20 DUP3 ADD MLOAD PUSH2 0x2D75 PUSH1 0x20 DUP6 ADD DUP3 PUSH2 0x2D3F JUMP JUMPDEST POP PUSH1 0x40 DUP3 ADD MLOAD PUSH2 0x2D88 PUSH1 0x40 DUP6 ADD DUP3 PUSH2 0x2D3F JUMP JUMPDEST POP PUSH1 0x60 DUP3 ADD MLOAD PUSH2 0x2D9B PUSH1 0x60 DUP6 ADD DUP3 PUSH2 0x2D3F JUMP JUMPDEST POP PUSH1 0x80 DUP3 ADD MLOAD PUSH2 0x2DAE PUSH1 0x80 DUP6 ADD DUP3 PUSH2 0x2D3F JUMP JUMPDEST POP PUSH1 0xA0 DUP3 ADD MLOAD PUSH2 0x2DC1 PUSH1 0xA0 DUP6 ADD DUP3 PUSH2 0x2D3F JUMP JUMPDEST POP POP POP POP JUMP JUMPDEST PUSH0 PUSH1 0xC0 DUP3 ADD SWAP1 POP PUSH2 0x2DDA PUSH0 DUP4 ADD DUP5 PUSH2 0x2D4E JUMP JUMPDEST SWAP3 SWAP2 POP POP JUMP JUMPDEST PUSH0 DUP2 ISZERO ISZERO SWAP1 POP SWAP2 SWAP1 POP JUMP JUMPDEST PUSH2 0x2DF4 DUP2 PUSH2 0x2DE0 JUMP JUMPDEST DUP3 MSTORE POP POP JUMP JUMPDEST PUSH1 0xA0 DUP3 ADD PUSH0 DUP3 ADD MLOAD PUSH2 0x2E0E PUSH0 DUP6 ADD DUP3 PUSH2 0x2D3F JUMP JUMPDEST POP PUSH1 0x20 DUP3 ADD MLOAD PUSH2 0x2E21 PUSH1 0x20 DUP6 ADD DUP3 PUSH2 0x2D3F JUMP JUMPDEST POP PUSH1 0x40 DUP3 ADD MLOAD PUSH2 0x2E34 PUSH1 0x40 DUP6 ADD DUP3 PUSH2 0x2D3F JUMP JUMPDEST POP PUSH1 0x60 DUP3 ADD MLOAD PUSH2 0x2E47 PUSH1 0x60 DUP6 ADD DUP3 PUSH2 0x2DEB JUMP JUMPDEST POP PUSH1 0x80 DUP3 ADD MLOAD PUSH2 0x2E5A PUSH1 0x80 DUP6 ADD DUP3 PUSH2 0x2D3F JUMP JUMPDEST POP POP POP POP JUMP JUMPDEST PUSH0 PUSH1 0xA0 DUP3 ADD SWAP1 POP PUSH2 0x2E73 PUSH0 DUP4 ADD DUP5 PUSH2 0x2DFA JUMP JUMPDEST SWAP3 SWAP2 POP POP JUMP JUMPDEST PUSH2 0x2E82 DUP2 PUSH2 0x2CD9 JUMP JUMPDEST DUP3 MSTORE POP POP JUMP JUMPDEST PUSH0 PUSH1 0x20 DUP3 ADD SWAP1 POP PUSH2 0x2E9B PUSH0 DUP4 ADD DUP5 PUSH2 0x2E79 JUMP JUMPDEST SWAP3 SWAP2 POP POP JUMP JUMPDEST PUSH32 0x5661756C74206E6F7420636F6E66696775726564000000000000000000000000 PUSH0 DUP3 ADD MSTORE POP JUMP JUMPDEST PUSH0 PUSH2 0x2ED5 PUSH1 0x14 DUP4 PUSH2 0x2BB1 JUMP JUMPDEST SWAP2 POP PUSH2 0x2EE0 DUP3 PUSH2 0x2EA1 JUMP JUMPDEST PUSH1 0x20 DUP3 ADD SWAP1 POP SWAP2 SWAP1 POP JUMP JUMPDEST PUSH0 PUSH1 0x20 DUP3 ADD SWAP1 POP DUP2 DUP2 SUB PUSH0 DUP4 ADD MSTORE PUSH2 0x2F02 DUP2 PUSH2 0x2EC9 JUMP JUMPDEST SWAP1 POP SWAP2 SWAP1 POP JUMP JUMPDEST PUSH32 0x5368617265546F6B656E206E6F7420636F6E6669677572656400000000000000 PUSH0 DUP3 ADD MSTORE POP JUMP JUMPDEST PUSH0 PUSH2 0x2F3D PUSH1 0x19 DUP4 PUSH2 0x2BB1 JUMP JUMPDEST SWAP2 POP PUSH2 0x2F48 DUP3 PUSH2 0x2F09 JUMP JUMPDEST PUSH1 0x20 DUP3 ADD SWAP1 POP SWAP2 SWAP1 POP JUMP JUMPDEST PUSH0 PUSH1 0x20 DUP3 ADD SWAP1 POP DUP2 DUP2 SUB PUSH0 DUP4 ADD MSTORE PUSH2 0x2F6A DUP2 PUSH2 0x2F31 JUMP JUMPDEST SWAP1 POP SWAP2 SWAP1 POP JUMP JUMPDEST PUSH2 0x2F7A DUP2 PUSH2 0x2C5C JUMP JUMPDEST DUP3 MSTORE POP POP JUMP JUMPDEST PUSH0 PUSH1 0x40 DUP3 ADD SWAP1 POP PUSH2 0x2F93 PUSH0 DUP4 ADD DUP6 PUSH2 0x2E79 JUMP JUMPDEST PUSH2 0x2FA0 PUSH1 0x20 DUP4 ADD DUP5 PUSH2 0x2F71 JUMP JUMPDEST SWAP4 SWAP3 POP POP POP JUMP JUMPDEST PUSH0 DUP2 MLOAD SWAP1 POP SWAP2 SWAP1 POP JUMP JUMPDEST PUSH0 DUP2 SWAP1 POP SWAP3 SWAP2 POP POP JUMP JUMPDEST DUP3 DUP2 DUP4 MCOPY PUSH0 DUP4 DUP4 ADD MSTORE POP POP POP JUMP JUMPDEST PUSH0 PUSH2 0x2FD3 DUP3 PUSH2 0x2FA7 JUMP JUMPDEST PUSH2 0x2FDD DUP2 DUP6 PUSH2 0x2FB1 JUMP JUMPDEST SWAP4 POP PUSH2 0x2FED DUP2 DUP6 PUSH1 0x20 DUP7 ADD PUSH2 0x2FBB JUMP JUMPDEST DUP1 DUP5 ADD SWAP2 POP POP SWAP3 SWAP2 POP POP JUMP JUMPDEST PUSH0 PUSH2 0x3004 DUP3 DUP5 PUSH2 0x2FC9 JUMP JUMPDEST SWAP2 POP DUP2 SWAP1 POP SWAP3 SWAP2 POP POP JUMP JUMPDEST PUSH32 0x4661696C656420746F20676574206465706F73697420696E666F000000000000 PUSH0 DUP3 ADD MSTORE POP JUMP JUMPDEST PUSH0 PUSH2 0x3043 PUSH1 0x1A DUP4 PUSH2 0x2BB1 JUMP JUMPDEST SWAP2 POP PUSH2 0x304E DUP3 PUSH2 0x300F JUMP JUMPDEST PUSH1 0x20 DUP3 ADD SWAP1 POP SWAP2 SWAP1 POP JUMP JUMPDEST PUSH0 PUSH1 0x20 DUP3 ADD SWAP1 POP DUP2 DUP2 SUB PUSH0 DUP4 ADD MSTORE PUSH2 0x3070 DUP2 PUSH2 0x3037 JUMP JUMPDEST SWAP1 POP SWAP2 SWAP1 POP JUMP JUMPDEST PUSH0 PUSH0 REVERT JUMPDEST PUSH0 PUSH1 0x1F NOT PUSH1 0x1F DUP4 ADD AND SWAP1 POP SWAP2 SWAP1 POP JUMP JUMPDEST PUSH32 0x4E487B7100000000000000000000000000000000000000000000000000000000 PUSH0 MSTORE PUSH1 0x41 PUSH1 0x4 MSTORE PUSH1 0x24 PUSH0 REVERT JUMPDEST PUSH2 0x30C1 DUP3 PUSH2 0x307B JUMP JUMPDEST DUP2 ADD DUP2 DUP2 LT PUSH8 0xFFFFFFFFFFFFFFFF DUP3 GT OR ISZERO PUSH2 0x30E0 JUMPI PUSH2 0x30DF PUSH2 0x308B JUMP JUMPDEST JUMPDEST DUP1 PUSH1 0x40 MSTORE POP POP POP JUMP JUMPDEST PUSH0 PUSH2 0x30F2 PUSH2 0x2C4F JUMP JUMPDEST SWAP1 POP PUSH2 0x30FE DUP3 DUP3 PUSH2 0x30B8 JUMP JUMPDEST SWAP2 SWAP1 POP JUMP JUMPDEST PUSH0 PUSH16 0xFFFFFFFFFFFFFFFFFFFFFFFFFFFFFFFF DUP3 AND SWAP1 POP SWAP2 SWAP1 POP JUMP JUMPDEST PUSH2 0x3127 DUP2 PUSH2 0x3103 JUMP JUMPDEST DUP2 EQ PUSH2 0x3131 JUMPI PUSH0 PUSH0 REVERT JUMPDEST POP JUMP JUMPDEST PUSH0 DUP2 MLOAD SWAP1 POP PUSH2 0x3142 DUP2 PUSH2 0x311E JUMP JUMPDEST SWAP3 SWAP2 POP POP JUMP JUMPDEST PUSH0 PUSH4 0xFFFFFFFF DUP3 AND SWAP1 POP SWAP2 SWAP1 POP JUMP JUMPDEST PUSH2 0x3160 DUP2 PUSH2 0x3148 JUMP JUMPDEST DUP2 EQ PUSH2 0x316A JUMPI PUSH0 PUSH0 REVERT JUMPDEST POP JUMP JUMPDEST PUSH0 DUP2 MLOAD SWAP1 POP PUSH2 0x317B DUP2 PUSH2 0x3157 JUMP JUMPDEST SWAP3 SWAP2 POP POP JUMP JUMPDEST PUSH0 PUSH12 0xFFFFFFFFFFFFFFFFFFFFFFFF DUP3 AND SWAP1 POP SWAP2 SWAP1 POP JUMP JUMPDEST PUSH2 0x31A1 DUP2 PUSH2 0x3181 JUMP JUMPDEST DUP2 EQ PUSH2 0x31AB JUMPI PUSH0 PUSH0 REVERT JUMPDEST POP JUMP JUMPDEST PUSH0 DUP2 MLOAD SWAP1 POP PUSH2 0x31BC DUP2 PUSH2 0x3198 JUMP JUMPDEST SWAP3 SWAP2 POP POP JUMP JUMPDEST PUSH0 PUSH1 0x60 DUP3 DUP5 SUB SLT ISZERO PUSH2 0x31D7 JUMPI PUSH2 0x31D6 PUSH2 0x3077 JUMP JUMPDEST JUMPDEST PUSH2 0x31E1 PUSH1 0x60 PUSH2 0x30E9 JUMP JUMPDEST SWAP1 POP PUSH0 PUSH2 0x31F0 DUP5 DUP3 DUP6 ADD PUSH2 0x3134 JUMP JUMPDEST PUSH0 DUP4 ADD MSTORE POP PUSH1 0x20 PUSH2 0x3203 DUP5 DUP3 DUP6 ADD PUSH2 0x316D JUMP JUMPDEST PUSH1 0x20 DUP4 ADD MSTORE POP PUSH1 0x40 PUSH2 0x3217 DUP5 DUP3 DUP6 ADD PUSH2 0x31AE JUMP JUMPDEST PUSH1 0x40 DUP4 ADD MSTORE POP SWAP3 SWAP2 POP POP JUMP JUMPDEST PUSH0 PUSH1 0x60 DUP3 DUP5 SUB SLT ISZERO PUSH2 0x3238 JUMPI PUSH2 0x3237 PUSH2 0x2C58 JUMP JUMPDEST JUMPDEST PUSH0 PUSH2 0x3245 DUP5 DUP3 DUP6 ADD PUSH2 0x31C2 JUMP JUMPDEST SWAP2 POP POP SWAP3 SWAP2 POP POP JUMP JUMPDEST PUSH32 0x4E6F206465706F73697420696E207468697320726F756E640000000000000000 PUSH0 DUP3 ADD MSTORE POP JUMP JUMPDEST PUSH0 PUSH2 0x3282 PUSH1 0x18 DUP4 PUSH2 0x2BB1 JUMP JUMPDEST SWAP2 POP PUSH2 0x328D DUP3 PUSH2 0x324E JUMP JUMPDEST PUSH1 0x20 DUP3 ADD SWAP1 POP SWAP2 SWAP1 POP JUMP JUMPDEST PUSH0 PUSH1 0x20 DUP3 ADD SWAP1 POP DUP2 DUP2 SUB PUSH0 DUP4 ADD MSTORE PUSH2 0x32AF DUP2 PUSH2 0x3276 JUMP JUMPDEST SWAP1 POP SWAP2 SWAP1 POP JUMP JUMPDEST PUSH32 0x4F776E61626C653A2063616C6C6572206973206E6F7420746865206F776E6572 PUSH0 DUP3 ADD MSTORE POP JUMP JUMPDEST PUSH0 PUSH2 0x32EA PUSH1 0x20 DUP4 PUSH2 0x2BB1 JUMP JUMPDEST SWAP2 POP PUSH2 0x32F5 DUP3 PUSH2 0x32B6 JUMP JUMPDEST PUSH1 0x20 DUP3 ADD SWAP1 POP SWAP2 SWAP1 POP JUMP JUMPDEST PUSH0 PUSH1 0x20 DUP3 ADD SWAP1 POP DUP2 DUP2 SUB PUSH0 DUP4 ADD MSTORE PUSH2 0x3317 DUP2 PUSH2 0x32DE JUMP JUMPDEST SWAP1 POP SWAP2 SWAP1 POP JUMP JUMPDEST PUSH32 0x496E76616C6964207072697A65506F6F6C206164647265737300000000000000 PUSH0 DUP3 ADD MSTORE POP JUMP JUMPDEST PUSH0 PUSH2 0x3352 PUSH1 0x19 DUP4 PUSH2 0x2BB1 JUMP JUMPDEST SWAP2 POP PUSH2 0x335D DUP3 PUSH2 0x331E JUMP JUMPDEST PUSH1 0x20 DUP3 ADD SWAP1 POP SWAP2 SWAP1 POP JUMP JUMPDEST PUSH0 PUSH1 0x20 DUP3 ADD SWAP1 POP DUP2 DUP2 SUB PUSH0 DUP4 ADD MSTORE PUSH2 0x337F DUP2 PUSH2 0x3346 JUMP JUMPDEST SWAP1 POP SWAP2 SWAP1 POP JUMP JUMPDEST PUSH0 DUP2 SWAP1 POP SWAP3 SWAP2 POP POP JUMP JUMPDEST PUSH32 0x7072697A65506F6F6C0000000000000000000000000000000000000000000000 PUSH0 DUP3 ADD MSTORE POP JUMP JUMPDEST PUSH0 PUSH2 0x33C4 PUSH1 0x9 DUP4 PUSH2 0x3386 JUMP JUMPDEST SWAP2 POP PUSH2 0x33CF DUP3 PUSH2 0x3390 JUMP JUMPDEST PUSH1 0x9 DUP3 ADD SWAP1 POP SWAP2 SWAP1 POP JUMP JUMPDEST PUSH0 PUSH2 0x33E4 DUP3 PUSH2 0x33B8 JUMP JUMPDEST SWAP2 POP DUP2 SWAP1 POP SWAP2 SWAP1 POP JUMP JUMPDEST PUSH32 0x4E6F206465706F73697420746F20776974686472617700000000000000000000 PUSH0 DUP3 ADD MSTORE POP JUMP JUMPDEST PUSH0 PUSH2 0x3422 PUSH1 0x16 DUP4 PUSH2 0x2BB1 JUMP JUMPDEST SWAP2 POP PUSH2 0x342D DUP3 PUSH2 0x33EE JUMP JUMPDEST PUSH1 0x20 DUP3 ADD SWAP1 POP SWAP2 SWAP1 POP JUMP JUMPDEST PUSH0 PUSH1 0x20 DUP3 ADD SWAP1 POP DUP2 DUP2 SUB PUSH0 DUP4 ADD MSTORE PUSH2 0x344F DUP2 PUSH2 0x3416 JUMP JUMPDEST SWAP1 POP SWAP2 SWAP1 POP JUMP JUMPDEST PUSH0 DUP2 MLOAD SWAP1 POP PUSH2 0x3464 DUP2 PUSH2 0x2C65 JUMP JUMPDEST SWAP3 SWAP2 POP POP JUMP JUMPDEST PUSH0 PUSH1 0x20 DUP3 DUP5 SUB SLT ISZERO PUSH2 0x347F JUMPI PUSH2 0x347E PUSH2 0x2C58 JUMP JUMPDEST JUMPDEST PUSH0 PUSH2 0x348C DUP5 DUP3 DUP6 ADD PUSH2 0x3456 JUMP JUMPDEST SWAP2 POP POP SWAP3 SWAP2 POP POP JUMP JUMPDEST PUSH32 0x496E76616C6964207368617265546F6B656E2061646472657373000000000000 PUSH0 DUP3 ADD MSTORE POP JUMP JUMPDEST PUSH0 PUSH2 0x34C9 PUSH1 0x1A DUP4 PUSH2 0x2BB1 JUMP JUMPDEST SWAP2 POP PUSH2 0x34D4 DUP3 PUSH2 0x3495 JUMP JUMPDEST PUSH1 0x20 DUP3 ADD SWAP1 POP SWAP2 SWAP1 POP JUMP JUMPDEST PUSH0 PUSH1 0x20 DUP3 ADD SWAP1 POP DUP2 DUP2 SUB PUSH0 DUP4 ADD MSTORE PUSH2 0x34F6 DUP2 PUSH2 0x34BD JUMP JUMPDEST SWAP1 POP SWAP2 SWAP1 POP JUMP JUMPDEST PUSH32 0x7368617265546F6B656E00000000000000000000000000000000000000000000 PUSH0 DUP3 ADD MSTORE POP JUMP JUMPDEST PUSH0 PUSH2 0x3531 PUSH1 0xA DUP4 PUSH2 0x3386 JUMP JUMPDEST SWAP2 POP PUSH2 0x353C DUP3 PUSH2 0x34FD JUMP JUMPDEST PUSH1 0xA DUP3 ADD SWAP1 POP SWAP2 SWAP1 POP JUMP JUMPDEST PUSH0 PUSH2 0x3551 DUP3 PUSH2 0x3525 JUMP JUMPDEST SWAP2 POP DUP2 SWAP1 POP SWAP2 SWAP1 POP JUMP JUMPDEST PUSH32 0x53797374656D206E6F742066756C6C7920636F6E666967757265640000000000 PUSH0 DUP3 ADD MSTORE POP JUMP JUMPDEST PUSH0 PUSH2 0x358F PUSH1 0x1B DUP4 PUSH2 0x2BB1 JUMP JUMPDEST SWAP2 POP PUSH2 0x359A DUP3 PUSH2 0x355B JUMP JUMPDEST PUSH1 0x20 DUP3 ADD SWAP1 POP SWAP2 SWAP1 POP JUMP JUMPDEST PUSH0 PUSH1 0x20 DUP3 ADD SWAP1 POP DUP2 DUP2 SUB PUSH0 DUP4 ADD MSTORE PUSH2 0x35BC DUP2 PUSH2 0x3583 JUMP JUMPDEST SWAP1 POP SWAP2 SWAP1 POP JUMP JUMPDEST PUSH32 0x4E487B7100000000000000000000000000000000000000000000000000000000 PUSH0 MSTORE PUSH1 0x11 PUSH1 0x4 MSTORE PUSH1 0x24 PUSH0 REVERT JUMPDEST PUSH0 PUSH2 0x35FA DUP3 PUSH2 0x2C5C JUMP JUMPDEST SWAP2 POP PUSH2 0x3605 DUP4 PUSH2 0x2C5C JUMP JUMPDEST SWAP3 POP DUP3 DUP3 SUB SWAP1 POP DUP2 DUP2 GT ISZERO PUSH2 0x361D JUMPI PUSH2 0x361C PUSH2 0x35C3 JUMP JUMPDEST JUMPDEST SWAP3 SWAP2 POP POP JUMP JUMPDEST PUSH32 0x496E76616C6964207661756C7420616464726573730000000000000000000000 PUSH0 DUP3 ADD MSTORE POP JUMP JUMPDEST PUSH0 PUSH2 0x3657 PUSH1 0x15 DUP4 PUSH2 0x2BB1 JUMP JUMPDEST SWAP2 POP PUSH2 0x3662 DUP3 PUSH2 0x3623 JUMP JUMPDEST PUSH1 0x20 DUP3 ADD SWAP1 POP SWAP2 SWAP1 POP JUMP JUMPDEST PUSH0 PUSH1 0x20 DUP3 ADD SWAP1 POP DUP2 DUP2 SUB PUSH0 DUP4 ADD MSTORE PUSH2 0x3684 DUP2 PUSH2 0x364B JUMP JUMPDEST SWAP1 POP SWAP2 SWAP1 POP JUMP JUMPDEST PUSH0 DUP2 MLOAD SWAP1 POP PUSH2 0x3699 DUP2 PUSH2 0x2CEA JUMP JUMPDEST SWAP3 SWAP2 POP POP JUMP JUMPDEST PUSH0 PUSH1 0x20 DUP3 DUP5 SUB SLT ISZERO PUSH2 0x36B4 JUMPI PUSH2 0x36B3 PUSH2 0x2C58 JUMP JUMPDEST JUMPDEST PUSH0 PUSH2 0x36C1 DUP5 DUP3 DUP6 ADD PUSH2 0x368B JUMP JUMPDEST SWAP2 POP POP SWAP3 SWAP2 POP POP JUMP JUMPDEST PUSH32 0x7661756C74000000000000000000000000000000000000000000000000000000 PUSH0 DUP3 ADD MSTORE POP JUMP JUMPDEST PUSH0 PUSH2 0x36FE PUSH1 0x5 DUP4 PUSH2 0x3386 JUMP JUMPDEST SWAP2 POP PUSH2 0x3709 DUP3 PUSH2 0x36CA JUMP JUMPDEST PUSH1 0x5 DUP3 ADD SWAP1 POP SWAP2 SWAP1 POP JUMP JUMPDEST PUSH0 PUSH2 0x371E DUP3 PUSH2 0x36F2 JUMP JUMPDEST SWAP2 POP DUP2 SWAP1 POP SWAP2 SWAP1 POP JUMP JUMPDEST PUSH32 0x4C6F7474657279206E6F7420636F6E6669677572656400000000000000000000 PUSH0 DUP3 ADD MSTORE POP JUMP JUMPDEST PUSH0 PUSH2 0x375C PUSH1 0x16 DUP4 PUSH2 0x2BB1 JUMP JUMPDEST SWAP2 POP PUSH2 0x3767 DUP3 PUSH2 0x3728 JUMP JUMPDEST PUSH1 0x20 DUP3 ADD SWAP1 POP SWAP2 SWAP1 POP JUMP JUMPDEST PUSH0 PUSH1 0x20 DUP3 ADD SWAP1 POP DUP2 DUP2 SUB PUSH0 DUP4 ADD MSTORE PUSH2 0x3789 DUP2 PUSH2 0x3750 JUMP JUMPDEST SWAP1 POP SWAP2 SWAP1 POP JUMP JUMPDEST POP JUMP JUMPDEST PUSH0 PUSH2 0x379E PUSH0 DUP4 PUSH2 0x2BB1 JUMP JUMPDEST SWAP2 POP PUSH2 0x37A9 DUP3 PUSH2 0x3790 JUMP JUMPDEST PUSH0 DUP3 ADD SWAP1 POP SWAP2 SWAP1 POP JUMP JUMPDEST PUSH0 PUSH1 0x20 DUP3 ADD SWAP1 POP DUP2 DUP2 SUB PUSH0 DUP4 ADD MSTORE PUSH2 0x37CA DUP2 PUSH2 0x3793 JUMP JUMPDEST SWAP1 POP SWAP2 SWAP1 POP JUMP JUMPDEST PUSH32 0x547269676765722064726177206661696C656400000000000000000000000000 PUSH0 DUP3 ADD MSTORE POP JUMP JUMPDEST PUSH0 PUSH2 0x3805 PUSH1 0x13 DUP4 PUSH2 0x2BB1 JUMP JUMPDEST SWAP2 POP PUSH2 0x3810 DUP3 PUSH2 0x37D1 JUMP JUMPDEST PUSH1 0x20 DUP3 ADD SWAP1 POP SWAP2 SWAP1 POP JUMP JUMPDEST PUSH0 PUSH1 0x20 DUP3 ADD SWAP1 POP DUP2 DUP2 SUB PUSH0 DUP4 ADD MSTORE PUSH2 0x3832 DUP2 PUSH2 0x37F9 JUMP JUMPDEST SWAP1 POP SWAP2 SWAP1 POP JUMP JUMPDEST PUSH32 0x5265656E7472616E637947756172643A207265656E7472616E742063616C6C00 PUSH0 DUP3 ADD MSTORE POP JUMP JUMPDEST PUSH0 PUSH2 0x386D PUSH1 0x1F DUP4 PUSH2 0x2BB1 JUMP JUMPDEST SWAP2 POP PUSH2 0x3878 DUP3 PUSH2 0x3839 JUMP JUMPDEST PUSH1 0x20 DUP3 ADD SWAP1 POP SWAP2 SWAP1 POP JUMP JUMPDEST PUSH0 PUSH1 0x20 DUP3 ADD SWAP1 POP DUP2 DUP2 SUB PUSH0 DUP4 ADD MSTORE PUSH2 0x389A DUP2 PUSH2 0x3861 JUMP JUMPDEST SWAP1 POP SWAP2 SWAP1 POP JUMP JUMPDEST PUSH32 0x4D757374206465706F736974205745544820746F6B656E730000000000000000 PUSH0 DUP3 ADD MSTORE POP JUMP JUMPDEST PUSH0 PUSH2 0x38D5 PUSH1 0x18 DUP4 PUSH2 0x2BB1 JUMP JUMPDEST SWAP2 POP PUSH2 0x38E0 DUP3 PUSH2 0x38A1 JUMP JUMPDEST PUSH1 0x20 DUP3 ADD SWAP1 POP SWAP2 SWAP1 POP JUMP JUMPDEST PUSH0 PUSH1 0x20 DUP3 ADD SWAP1 POP DUP2 DUP2 SUB PUSH0 DUP4 ADD MSTORE PUSH2 0x3902 DUP2 PUSH2 0x38C9 JUMP JUMPDEST SWAP1 POP SWAP2 SWAP1 POP JUMP JUMPDEST PUSH32 0x57455448206E6F7420636F6E6669677572656400000000000000000000000000 PUSH0 DUP3 ADD MSTORE POP JUMP JUMPDEST PUSH0 PUSH2 0x393D PUSH1 0x13 DUP4 PUSH2 0x2BB1 JUMP JUMPDEST SWAP2 POP PUSH2 0x3948 DUP3 PUSH2 0x3909 JUMP JUMPDEST PUSH1 0x20 DUP3 ADD SWAP1 POP SWAP2 SWAP1 POP JUMP JUMPDEST PUSH0 PUSH1 0x20 DUP3 ADD SWAP1 POP DUP2 DUP2 SUB PUSH0 DUP4 ADD MSTORE PUSH2 0x396A DUP2 PUSH2 0x3931 JUMP JUMPDEST SWAP1 POP SWAP2 SWAP1 POP JUMP JUMPDEST PUSH32 0x57455448206465706F73697420666F7277617264696E67206661696C65640000 PUSH0 DUP3 ADD MSTORE POP JUMP JUMPDEST PUSH0 PUSH2 0x39A5 PUSH1 0x1E DUP4 PUSH2 0x2BB1 JUMP JUMPDEST SWAP2 POP PUSH2 0x39B0 DUP3 PUSH2 0x3971 JUMP JUMPDEST PUSH1 0x20 DUP3 ADD SWAP1 POP SWAP2 SWAP1 POP JUMP JUMPDEST PUSH0 PUSH1 0x20 DUP3 ADD SWAP1 POP DUP2 DUP2 SUB PUSH0 DUP4 ADD MSTORE PUSH2 0x39D2 DUP2 PUSH2 0x3999 JUMP JUMPDEST SWAP1 POP SWAP2 SWAP1 POP JUMP JUMPDEST PUSH0 PUSH1 0x20 DUP3 ADD SWAP1 POP PUSH2 0x39EC PUSH0 DUP4 ADD DUP5 PUSH2 0x2F71 JUMP JUMPDEST SWAP3 SWAP2 POP POP JUMP JUMPDEST PUSH32 0x5072697A65506F6F6C206E6F7420636F6E666967757265640000000000000000 PUSH0 DUP3 ADD MSTORE POP JUMP JUMPDEST PUSH0 PUSH2 0x3A26 PUSH1 0x18 DUP4 PUSH2 0x2BB1 JUMP JUMPDEST SWAP2 POP PUSH2 0x3A31 DUP3 PUSH2 0x39F2 JUMP JUMPDEST PUSH1 0x20 DUP3 ADD SWAP1 POP SWAP2 SWAP1 POP JUMP JUMPDEST PUSH0 PUSH1 0x20 DUP3 ADD SWAP1 POP DUP2 DUP2 SUB PUSH0 DUP4 ADD MSTORE PUSH2 0x3A53 DUP2 PUSH2 0x3A1A JUMP JUMPDEST SWAP1 POP SWAP2 SWAP1 POP JUMP JUMPDEST PUSH2 0x3A63 DUP2 PUSH2 0x2DE0 JUMP JUMPDEST DUP2 EQ PUSH2 0x3A6D JUMPI PUSH0 PUSH0 REVERT JUMPDEST POP JUMP JUMPDEST PUSH0 DUP2 MLOAD SWAP1 POP PUSH2 0x3A7E DUP2 PUSH2 0x3A5A JUMP JUMPDEST SWAP3 SWAP2 POP POP JUMP JUMPDEST PUSH0 PUSH1 0xE0 DUP3 DUP5 SUB SLT ISZERO PUSH2 0x3A99 JUMPI PUSH2 0x3A98 PUSH2 0x3077 JUMP JUMPDEST JUMPDEST PUSH2 0x3AA3 PUSH1 0xE0 PUSH2 0x30E9 JUMP JUMPDEST SWAP1 POP PUSH0 PUSH2 0x3AB2 DUP5 DUP3 DUP6 ADD PUSH2 0x3456 JUMP JUMPDEST PUSH0 DUP4 ADD MSTORE POP PUSH1 0x20 PUSH2 0x3AC5 DUP5 DUP3 DUP6 ADD PUSH2 0x368B JUMP JUMPDEST PUSH1 0x20 DUP4 ADD MSTORE POP PUSH1 0x40 PUSH2 0x3AD9 DUP5 DUP3 DUP6 ADD PUSH2 0x3456 JUMP JUMPDEST PUSH1 0x40 DUP4 ADD MSTORE POP PUSH1 0x60 PUSH2 0x3AED DUP5 DUP3 DUP6 ADD PUSH2 0x3456 JUMP JUMPDEST PUSH1 0x60 DUP4 ADD MSTORE POP PUSH1 0x80 PUSH2 0x3B01 DUP5 DUP3 DUP6 ADD PUSH2 0x3456 JUMP JUMPDEST PUSH1 0x80 DUP4 ADD MSTORE POP PUSH1 0xA0 PUSH2 0x3B15 DUP5 DUP3 DUP6 ADD PUSH2 0x3A70 JUMP JUMPDEST PUSH1 0xA0 DUP4 ADD MSTORE POP PUSH1 0xC0 PUSH2 0x3B29 DUP5 DUP3 DUP6 ADD PUSH2 0x3456 JUMP JUMPDEST PUSH1 0xC0 DUP4 ADD MSTORE POP SWAP3 SWAP2 POP POP JUMP JUMPDEST PUSH0 PUSH1 0xE0 DUP3 DUP5 SUB SLT ISZERO PUSH2 0x3B4A JUMPI PUSH2 0x3B49 PUSH2 0x2C58 JUMP JUMPDEST JUMPDEST PUSH0 PUSH2 0x3B57 DUP5 DUP3 DUP6 ADD PUSH2 0x3A84 JUMP JUMPDEST SWAP2 POP POP SWAP3 SWAP2 POP POP JUMP JUMPDEST PUSH32 0x4F6E6C792077696E6E65722063616E20636C61696D207072697A650000000000 PUSH0 DUP3 ADD MSTORE POP JUMP JUMPDEST PUSH0 PUSH2 0x3B94 PUSH1 0x1B DUP4 PUSH2 0x2BB1 JUMP JUMPDEST SWAP2 POP PUSH2 0x3B9F DUP3 PUSH2 0x3B60 JUMP JUMPDEST PUSH1 0x20 DUP3 ADD SWAP1 POP SWAP2 SWAP1 POP JUMP JUMPDEST PUSH0 PUSH1 0x20 DUP3 ADD SWAP1 POP DUP2 DUP2 SUB PUSH0 DUP4 ADD MSTORE PUSH2 0x3BC1 DUP2 PUSH2 0x3B88 JUMP JUMPDEST SWAP1 POP SWAP2 SWAP1 POP JUMP JUMPDEST PUSH32 0x5072697A6520616C726561647920636C61696D65640000000000000000000000 PUSH0 DUP3 ADD MSTORE POP JUMP JUMPDEST PUSH0 PUSH2 0x3BFC PUSH1 0x15 DUP4 PUSH2 0x2BB1 JUMP JUMPDEST SWAP2 POP PUSH2 0x3C07 DUP3 PUSH2 0x3BC8 JUMP JUMPDEST PUSH1 0x20 DUP3 ADD SWAP1 POP SWAP2 SWAP1 POP JUMP JUMPDEST PUSH0 PUSH1 0x20 DUP3 ADD SWAP1 POP DUP2 DUP2 SUB PUSH0 DUP4 ADD MSTORE PUSH2 0x3C29 DUP2 PUSH2 0x3BF0 JUMP JUMPDEST SWAP1 POP SWAP2 SWAP1 POP JUMP JUMPDEST PUSH0 PUSH1 0x40 DUP3 ADD SWAP1 POP PUSH2 0x3C43 PUSH0 DUP4 ADD DUP6 PUSH2 0x2F71 JUMP JUMPDEST PUSH2 0x3C50 PUSH1 0x20 DUP4 ADD DUP5 PUSH2 0x2F71 JUMP JUMPDEST SWAP4 SWAP3 POP POP POP JUMP JUMPDEST PUSH32 0x496E76616C6964206C6F74746572792061646472657373000000000000000000 PUSH0 DUP3 ADD MSTORE POP JUMP JUMPDEST PUSH0 PUSH2 0x3C8B PUSH1 0x17 DUP4 PUSH2 0x2BB1 JUMP JUMPDEST SWAP2 POP PUSH2 0x3C96 DUP3 PUSH2 0x3C57 JUMP JUMPDEST PUSH1 0x20 DUP3 ADD SWAP1 POP SWAP2 SWAP1 POP JUMP JUMPDEST PUSH0 PUSH1 0x20 DUP3 ADD SWAP1 POP DUP2 DUP2 SUB PUSH0 DUP4 ADD MSTORE PUSH2 0x3CB8 DUP2 PUSH2 0x3C7F JUMP JUMPDEST SWAP1 POP SWAP2 SWAP1 POP JUMP JUMPDEST PUSH32 0x6C6F747465727900000000000000000000000000000000000000000000000000 PUSH0 DUP3 ADD MSTORE POP JUMP JUMPDEST PUSH0 PUSH2 0x3CF3 PUSH1 0x7 DUP4 PUSH2 0x3386 JUMP JUMPDEST SWAP2 POP PUSH2 0x3CFE DUP3 PUSH2 0x3CBF JUMP JUMPDEST PUSH1 0x7 DUP3 ADD SWAP1 POP SWAP2 SWAP1 POP JUMP JUMPDEST PUSH0 PUSH2 0x3D13 DUP3 PUSH2 0x3CE7 JUMP JUMPDEST SWAP2 POP DUP2 SWAP1 POP SWAP2 SWAP1 POP JUMP JUMPDEST PUSH32 0x4F776E61626C653A206E6577206F776E657220697320746865207A65726F2061 PUSH0 DUP3 ADD MSTORE PUSH32 0x6464726573730000000000000000000000000000000000000000000000000000 PUSH1 0x20 DUP3 ADD MSTORE POP JUMP JUMPDEST PUSH0 PUSH2 0x3D77 PUSH1 0x26 DUP4 PUSH2 0x2BB1 JUMP JUMPDEST SWAP2 POP PUSH2 0x3D82 DUP3 PUSH2 0x3D1D JUMP JUMPDEST PUSH1 0x40 DUP3 ADD SWAP1 POP SWAP2 SWAP1 POP JUMP JUMPDEST PUSH0 PUSH1 0x20 DUP3 ADD SWAP1 POP DUP2 DUP2 SUB PUSH0 DUP4 ADD MSTORE PUSH2 0x3DA4 DUP2 PUSH2 0x3D6B JUMP JUMPDEST SWAP1 POP SWAP2 SWAP1 POP JUMP JUMPDEST PUSH0 PUSH1 0x40 DUP3 ADD SWAP1 POP PUSH2 0x3DBE PUSH0 DUP4 ADD DUP6 PUSH2 0x2F71 JUMP JUMPDEST PUSH2 0x3DCB PUSH1 0x20 DUP4 ADD DUP5 PUSH2 0x2E79 JUMP JUMPDEST SWAP4 SWAP3 POP POP POP JUMP JUMPDEST PUSH32 0x5769746864726177616C206661696C6564000000000000000000000000000000 PUSH0 DUP3 ADD MSTORE POP JUMP JUMPDEST PUSH0 PUSH2 0x3E06 PUSH1 0x11 DUP4 PUSH2 0x2BB1 JUMP JUMPDEST SWAP2 POP PUSH2 0x3E11 DUP3 PUSH2 0x3DD2 JUMP JUMPDEST PUSH1 0x20 DUP3 ADD SWAP1 POP SWAP2 SWAP1 POP JUMP JUMPDEST PUSH0 PUSH1 0x20 DUP3 ADD SWAP1 POP DUP2 DUP2 SUB PUSH0 DUP4 ADD MSTORE PUSH2 0x3E33 DUP2 PUSH2 0x3DFA JUMP JUMPDEST SWAP1 POP SWAP2 SWAP1 POP JUMP JUMPDEST PUSH0 PUSH1 0x60 DUP3 ADD SWAP1 POP PUSH2 0x3E4D PUSH0 DUP4 ADD DUP7 PUSH2 0x2E79 JUMP JUMPDEST PUSH2 0x3E5A PUSH1 0x20 DUP4 ADD DUP6 PUSH2 0x2E79 JUMP JUMPDEST PUSH2 0x3E67 PUSH1 0x40 DUP4 ADD DUP5 PUSH2 0x2F71 JUMP JUMPDEST SWAP5 SWAP4 POP POP POP POP JUMP JUMPDEST PUSH0 PUSH1 0x20 DUP3 DUP5 SUB SLT ISZERO PUSH2 0x3E84 JUMPI PUSH2 0x3E83 PUSH2 0x2C58 JUMP JUMPDEST JUMPDEST PUSH0 PUSH2 0x3E91 DUP5 DUP3 DUP6 ADD PUSH2 0x3A70 JUMP JUMPDEST SWAP2 POP POP SWAP3 SWAP2 POP POP JUMP JUMPDEST PUSH32 0x5361666545524332303A204552433230206F7065726174696F6E20646964206E PUSH0 DUP3 ADD MSTORE PUSH32 0x6F74207375636365656400000000000000000000000000000000000000000000 PUSH1 0x20 DUP3 ADD MSTORE POP JUMP JUMPDEST PUSH0 PUSH2 0x3EF4 PUSH1 0x2A DUP4 PUSH2 0x2BB1 JUMP JUMPDEST SWAP2 POP PUSH2 0x3EFF DUP3 PUSH2 0x3E9A JUMP JUMPDEST PUSH1 0x40 DUP3 ADD SWAP1 POP SWAP2 SWAP1 POP JUMP JUMPDEST PUSH0 PUSH1 0x20 DUP3 ADD SWAP1 POP DUP2 DUP2 SUB PUSH0 DUP4 ADD MSTORE PUSH2 0x3F21 DUP2 PUSH2 0x3EE8 JUMP JUMPDEST SWAP1 POP SWAP2 SWAP1 POP JUMP JUMPDEST PUSH32 0x416464726573733A20696E73756666696369656E742062616C616E636520666F PUSH0 DUP3 ADD MSTORE PUSH32 0x722063616C6C0000000000000000000000000000000000000000000000000000 PUSH1 0x20 DUP3 ADD MSTORE POP JUMP JUMPDEST PUSH0 PUSH2 0x3F82 PUSH1 0x26 DUP4 PUSH2 0x2BB1 JUMP JUMPDEST SWAP2 POP PUSH2 0x3F8D DUP3 PUSH2 0x3F28 JUMP JUMPDEST PUSH1 0x40 DUP3 ADD SWAP1 POP SWAP2 SWAP1 POP JUMP JUMPDEST PUSH0 PUSH1 0x20 DUP3 ADD SWAP1 POP DUP2 DUP2 SUB PUSH0 DUP4 ADD MSTORE PUSH2 0x3FAF DUP2 PUSH2 0x3F76 JUMP JUMPDEST SWAP1 POP SWAP2 SWAP1 POP JUMP JUMPDEST PUSH32 0x416464726573733A2063616C6C20746F206E6F6E2D636F6E7472616374000000 PUSH0 DUP3 ADD MSTORE POP JUMP JUMPDEST PUSH0 PUSH2 0x3FEA PUSH1 0x1D DUP4 PUSH2 0x2BB1 JUMP JUMPDEST SWAP2 POP PUSH2 0x3FF5 DUP3 PUSH2 0x3FB6 JUMP JUMPDEST PUSH1 0x20 DUP3 ADD SWAP1 POP SWAP2 SWAP1 POP JUMP JUMPDEST PUSH0 PUSH1 0x20 DUP3 ADD SWAP1 POP DUP2 DUP2 SUB PUSH0 DUP4 ADD MSTORE PUSH2 0x4017 DUP2 PUSH2 0x3FDE JUMP JUMPDEST SWAP1 POP SWAP2 SWAP1 POP JUMP JUMPDEST PUSH0 DUP2 MLOAD SWAP1 POP SWAP2 SWAP1 POP JUMP JUMPDEST PUSH0 PUSH2 0x4032 DUP3 PUSH2 0x401E JUMP JUMPDEST PUSH2 0x403C DUP2 DUP6 PUSH2 0x2BB1 JUMP JUMPDEST SWAP4 POP PUSH2 0x404C DUP2 DUP6 PUSH1 0x20 DUP7 ADD PUSH2 0x2FBB JUMP JUMPDEST PUSH2 0x4055 DUP2 PUSH2 0x307B JUMP JUMPDEST DUP5 ADD SWAP2 POP POP SWAP3 SWAP2 POP POP JUMP JUMPDEST PUSH0 PUSH1 0x20 DUP3 ADD SWAP1 POP DUP2 DUP2 SUB PUSH0 DUP4 ADD MSTORE PUSH2 0x4078 DUP2 DUP5 PUSH2 0x4028 JUMP JUMPDEST SWAP1 POP SWAP3 SWAP2 POP POP JUMP INVALID LOG2 PUSH5 0x6970667358 0x22 SLT KECCAK256 MUL 0xC2 EXTCODECOPY PUSH0 GT 0xA7 MSIZE SSTORE 0xD4 GAS 0xFC 0xBB DUP15 0x1E 0xFC BASEFEE SWAP3 DUP9 DUP7 0x25 DUP5 LOG4 BALANCE 0xAA KECCAK256 0xB4 0xEF SGT 0xB8 RJUMP 0x522 PUSH5 0x736F6C6343 STOP ADDMOD 0x1E STOP CALLER "
				},
				"gasEstimates": {
					"creation": {
						"codeDepositCost": "3313200",
						"executionCost": "infinite",
						"totalCost": "infinite"
					},
					"external": {
						"claimPrize(uint256)": "infinite",
						"deposit(uint256)": "infinite",
						"getSystemStatus()": "infinite",
						"getUserInfo(address)": "infinite",
						"lottery()": "2530",
						"owner()": "2581",
						"prizePool()": "2531",
						"renounceOwnership()": "30474",
						"setLottery(address)": "28852",
						"setPrizePool(address)": "28832",
						"setShareToken(address)": "28876",
						"setVault(address)": "infinite",
						"shareToken()": "2597",
						"transferOwnership(address)": "30792",
						"triggerDraw()": "infinite",
						"vault()": "2618",
						"withdraw()": "infinite",
						"withdrawFromRound(uint256)": "infinite"
					},
					"internal": {
						"_withdraw(uint256,uint256)": "infinite"
					}
				},
				"methodIdentifiers": {
					"claimPrize(uint256)": "d7098154",
					"deposit(uint256)": "b6b55f25",
					"getSystemStatus()": "50c1d19d",
					"getUserInfo(address)": "6386c1c7",
					"lottery()": "ba13a572",
					"owner()": "8da5cb5b",
					"prizePool()": "719ce73e",
					"renounceOwnership()": "715018a6",
					"setLottery(address)": "f298083b",
					"setPrizePool(address)": "336c6d39",
					"setShareToken(address)": "40f797bb",
					"setVault(address)": "6817031b",
					"shareToken()": "6c9fa59e",
					"transferOwnership(address)": "f2fde38b",
					"triggerDraw()": "825d2ab7",
					"vault()": "fbfa77cf",
					"withdraw()": "3ccfd60b",
					"withdrawFromRound(uint256)": "1f4609ea"
				}
			},
			"storageLayout": {
				"storage": [
					{
						"astId": 7,
						"contract": "contracts/LotteryRouter.sol:LotteryRouter",
						"label": "_owner",
						"offset": 0,
						"slot": "0",
						"type": "t_address"
					},
					{
						"astId": 115,
						"contract": "contracts/LotteryRouter.sol:LotteryRouter",
						"label": "_status",
						"offset": 0,
						"slot": "1",
						"type": "t_uint256"
					},
					{
						"astId": 787,
						"contract": "contracts/LotteryRouter.sol:LotteryRouter",
						"label": "lottery",
						"offset": 0,
						"slot": "2",
						"type": "t_address"
					},
					{
						"astId": 789,
						"contract": "contracts/LotteryRouter.sol:LotteryRouter",
						"label": "vault",
						"offset": 0,
						"slot": "3",
						"type": "t_address"
					},
					{
						"astId": 791,
						"contract": "contracts/LotteryRouter.sol:LotteryRouter",
						"label": "prizePool",
						"offset": 0,
						"slot": "4",
						"type": "t_address"
					},
					{
						"astId": 793,
						"contract": "contracts/LotteryRouter.sol:LotteryRouter",
						"label": "shareToken",
						"offset": 0,
						"slot": "5",
						"type": "t_address"
					}
				],
				"types": {
					"t_address": {
						"encoding": "inplace",
						"label": "address",
						"numberOfBytes": "20"
					},
					"t_uint256": {
						"encoding": "inplace",
						"label": "uint256",
						"numberOfBytes": "32"
					}
				}
			},
			"userdoc": {
				"kind": "user",
				"methods": {
					"claimPrize(uint256)": {
						"notice": "用户领取奖金入口"
					},
					"deposit(uint256)": {
						"notice": "WETH代币存款入口"
					},
					"getSystemStatus()": {
						"notice": "获取当前系统状态"
					},
					"getUserInfo(address)": {
						"notice": "获取用户信息"
					},
					"setLottery(address)": {
						"notice": "设置彩票合约地址"
					},
					"setPrizePool(address)": {
						"notice": "设置奖池合约地址"
					},
					"setShareToken(address)": {
						"notice": "手动设置shareToken地址（仅在无法通过Vault自动获取时使用）"
					},
					"setVault(address)": {
						"notice": "设置保险库合约地址"
					},
					"triggerDraw()": {
						"notice": "手动触发彩票抽奖（仅限所有者使用）"
					},
					"withdraw()": {
						"notice": "用户取款功能，直接调用Vault合约的withdraw方法"
					},
					"withdrawFromRound(uint256)": {
						"notice": "从特定轮次取款，直接调用Vault合约的withdraw(uint256)方法"
					}
				},
				"notice": "彩票系统的中央路由合约，处理用户交互和跨合约协调",
				"version": 1
			}
		}
	}
}