{
	"contracts/YieldAggregator.sol": {
		"YieldAggregator": {
			"abi": [
				{
					"inputs": [
						{
							"internalType": "address",
							"name": "_weth",
							"type": "address"
						},
						{
							"internalType": "address",
							"name": "_vault",
							"type": "address"
						},
						{
							"internalType": "address",
							"name": "_prizePool",
							"type": "address"
						},
						{
							"internalType": "address",
							"name": "_comet",
							"type": "address"
						}
					],
					"stateMutability": "nonpayable",
					"type": "constructor"
				},
				{
					"anonymous": false,
					"inputs": [
						{
							"indexed": true,
							"internalType": "address",
							"name": "user",
							"type": "address"
						},
						{
							"indexed": false,
							"internalType": "uint256",
							"name": "amount",
							"type": "uint256"
						},
						{
							"indexed": false,
							"internalType": "uint256",
							"name": "timestamp",
							"type": "uint256"
						}
					],
					"name": "Deposited",
					"type": "event"
				},
				{
					"anonymous": false,
					"inputs": [
						{
							"indexed": true,
							"internalType": "address",
							"name": "previousOwner",
							"type": "address"
						},
						{
							"indexed": true,
							"internalType": "address",
							"name": "newOwner",
							"type": "address"
						}
					],
					"name": "OwnershipTransferred",
					"type": "event"
				},
				{
					"anonymous": false,
					"inputs": [
						{
							"indexed": true,
							"internalType": "address",
							"name": "user",
							"type": "address"
						},
						{
							"indexed": false,
							"internalType": "uint256",
							"name": "amount",
							"type": "uint256"
						},
						{
							"indexed": false,
							"internalType": "uint256",
							"name": "timestamp",
							"type": "uint256"
						}
					],
					"name": "Withdrawn",
					"type": "event"
				},
				{
					"inputs": [],
					"name": "balanceOf",
					"outputs": [
						{
							"internalType": "uint256",
							"name": "",
							"type": "uint256"
						}
					],
					"stateMutability": "view",
					"type": "function"
				},
				{
					"inputs": [],
					"name": "comet",
					"outputs": [
						{
							"internalType": "contract IComet",
							"name": "",
							"type": "address"
						}
					],
					"stateMutability": "view",
					"type": "function"
				},
				{
					"inputs": [
						{
							"internalType": "uint256",
							"name": "amount",
							"type": "uint256"
						}
					],
					"name": "deposit",
					"outputs": [
						{
							"internalType": "bool",
							"name": "",
							"type": "bool"
						}
					],
					"stateMutability": "nonpayable",
					"type": "function"
				},
				{
					"inputs": [],
					"name": "owner",
					"outputs": [
						{
							"internalType": "address",
							"name": "",
							"type": "address"
						}
					],
					"stateMutability": "view",
					"type": "function"
				},
				{
					"inputs": [],
					"name": "prizePool",
					"outputs": [
						{
							"internalType": "contract IPrizePool",
							"name": "",
							"type": "address"
						}
					],
					"stateMutability": "view",
					"type": "function"
				},
				{
					"inputs": [],
					"name": "renounceOwnership",
					"outputs": [],
					"stateMutability": "nonpayable",
					"type": "function"
				},
				{
					"inputs": [
						{
							"internalType": "address",
							"name": "newOwner",
							"type": "address"
						}
					],
					"name": "transferOwnership",
					"outputs": [],
					"stateMutability": "nonpayable",
					"type": "function"
				},
				{
					"inputs": [],
					"name": "vault",
					"outputs": [
						{
							"internalType": "contract IVault",
							"name": "",
							"type": "address"
						}
					],
					"stateMutability": "view",
					"type": "function"
				},
				{
					"inputs": [],
					"name": "weth",
					"outputs": [
						{
							"internalType": "contract IERC20",
							"name": "",
							"type": "address"
						}
					],
					"stateMutability": "view",
					"type": "function"
				},
				{
					"inputs": [
						{
							"internalType": "uint256",
							"name": "amount",
							"type": "uint256"
						}
					],
					"name": "withdraw",
					"outputs": [
						{
							"internalType": "bool",
							"name": "",
							"type": "bool"
						}
					],
					"stateMutability": "nonpayable",
					"type": "function"
				}
			],
			"devdoc": {
				"details": "Implements ReentrancyGuard for security",
				"kind": "dev",
				"methods": {
					"balanceOf()": {
						"returns": {
							"_0": "The current balance in Compound"
						}
					},
					"deposit(uint256)": {
						"details": "Uses SafeERC20 for transferFrom and requires Vault authorization",
						"params": {
							"amount": "Amount of WETH to deposit"
						},
						"returns": {
							"_0": "success True if deposit was successful"
						}
					},
					"owner()": {
						"details": "Returns the address of the current owner."
					},
					"renounceOwnership()": {
						"details": "Leaves the contract without owner. It will not be possible to call `onlyOwner` functions anymore. Can only be called by the current owner. NOTE: Renouncing ownership will leave the contract without an owner, thereby removing any functionality that is only available to the owner."
					},
					"transferOwnership(address)": {
						"details": "Transfers ownership of the contract to a new account (`newOwner`). Can only be called by the current owner."
					},
					"withdraw(uint256)": {
						"details": "Can only be called by authorized contracts (PrizePool or Vault)",
						"params": {
							"amount": "Amount of WETH to withdraw"
						},
						"returns": {
							"_0": "success True if withdrawal was successful"
						}
					}
				},
				"title": "Yield Aggregator Contract",
				"version": 1
			},
			"evm": {
				"assembly": "    /* \"contracts/YieldAggregator.sol\":458:3510  contract YieldAggregator is Ownable {... */\n  mstore(0x40, 0xc0)\n    /* \"contracts/YieldAggregator.sol\":880:1303  constructor(address _weth, address _vault, address _prizePool, address _comet) {... */\n  callvalue\n  dup1\n  iszero\n  tag_1\n  jumpi\n  revert(0x00, 0x00)\ntag_1:\n  pop\n  mload(0x40)\n  sub(codesize, bytecodeSize)\n  dup1\n  bytecodeSize\n  dup4\n  codecopy\n  dup2\n  add\n  0x40\n  dup2\n  swap1\n  mstore\n  tag_2\n  swap2\n  tag_3\n  jump\t// in\ntag_2:\n    /* \"@openzeppelin/contracts/access/Ownable.sol\":921:953  _transferOwnership(_msgSender()) */\n  tag_7\n    /* \"@openzeppelin/contracts/utils/Context.sol\":719:729  msg.sender */\n  caller\n    /* \"@openzeppelin/contracts/access/Ownable.sol\":921:939  _transferOwnership */\n  tag_10\n    /* \"@openzeppelin/contracts/access/Ownable.sol\":921:953  _transferOwnership(_msgSender()) */\n  jump\t// in\ntag_7:\n  sub(shl(0xa0, 0x01), 0x01)\n    /* \"contracts/YieldAggregator.sol\":977:996  _weth != address(0) */\n  dup5\n  and\n    /* \"contracts/YieldAggregator.sol\":969:1021  require(_weth != address(0), \"Invalid WETH address\") */\n  tag_12\n  jumpi\n  mload(0x40)\n  shl(0xe5, 0x461bcd)\n  dup2\n  mstore\n    /* \"#utility.yul\":867:869   */\n  0x20\n    /* \"contracts/YieldAggregator.sol\":969:1021  require(_weth != address(0), \"Invalid WETH address\") */\n  0x04\n  dup3\n  add\n    /* \"#utility.yul\":849:870   */\n  mstore\n    /* \"#utility.yul\":906:908   */\n  0x14\n    /* \"#utility.yul\":886:904   */\n  0x24\n  dup3\n  add\n    /* \"#utility.yul\":879:909   */\n  mstore\n    /* \"#utility.yul\":945:967   */\n  0x496e76616c696420574554482061646472657373000000000000000000000000\n    /* \"#utility.yul\":925:943   */\n  0x44\n  dup3\n  add\n    /* \"#utility.yul\":918:968   */\n  mstore\n    /* \"#utility.yul\":985:1003   */\n  0x64\n  add\n    /* \"contracts/YieldAggregator.sol\":969:1021  require(_weth != address(0), \"Invalid WETH address\") */\ntag_13:\n  mload(0x40)\n  dup1\n  swap2\n  sub\n  swap1\n  revert\ntag_12:\n  sub(shl(0xa0, 0x01), 0x01)\n    /* \"contracts/YieldAggregator.sol\":1039:1059  _vault != address(0) */\n  dup4\n  and\n    /* \"contracts/YieldAggregator.sol\":1031:1085  require(_vault != address(0), \"Invalid Vault address\") */\n  tag_15\n  jumpi\n  mload(0x40)\n  shl(0xe5, 0x461bcd)\n  dup2\n  mstore\n    /* \"#utility.yul\":1216:1218   */\n  0x20\n    /* \"contracts/YieldAggregator.sol\":1031:1085  require(_vault != address(0), \"Invalid Vault address\") */\n  0x04\n  dup3\n  add\n    /* \"#utility.yul\":1198:1219   */\n  mstore\n    /* \"#utility.yul\":1255:1257   */\n  0x15\n    /* \"#utility.yul\":1235:1253   */\n  0x24\n  dup3\n  add\n    /* \"#utility.yul\":1228:1258   */\n  mstore\n    /* \"#utility.yul\":1294:1317   */\n  0x496e76616c6964205661756c7420616464726573730000000000000000000000\n    /* \"#utility.yul\":1274:1292   */\n  0x44\n  dup3\n  add\n    /* \"#utility.yul\":1267:1318   */\n  mstore\n    /* \"#utility.yul\":1335:1353   */\n  0x64\n  add\n    /* \"contracts/YieldAggregator.sol\":1031:1085  require(_vault != address(0), \"Invalid Vault address\") */\n  tag_13\n    /* \"#utility.yul\":1014:1359   */\n  jump\n    /* \"contracts/YieldAggregator.sol\":1031:1085  require(_vault != address(0), \"Invalid Vault address\") */\ntag_15:\n  sub(shl(0xa0, 0x01), 0x01)\n    /* \"contracts/YieldAggregator.sol\":1103:1127  _prizePool != address(0) */\n  dup3\n  and\n    /* \"contracts/YieldAggregator.sol\":1095:1157  require(_prizePool != address(0), \"Invalid PrizePool address\") */\n  tag_18\n  jumpi\n  mload(0x40)\n  shl(0xe5, 0x461bcd)\n  dup2\n  mstore\n    /* \"#utility.yul\":1566:1568   */\n  0x20\n    /* \"contracts/YieldAggregator.sol\":1095:1157  require(_prizePool != address(0), \"Invalid PrizePool address\") */\n  0x04\n  dup3\n  add\n    /* \"#utility.yul\":1548:1569   */\n  mstore\n    /* \"#utility.yul\":1605:1607   */\n  0x19\n    /* \"#utility.yul\":1585:1603   */\n  0x24\n  dup3\n  add\n    /* \"#utility.yul\":1578:1608   */\n  mstore\n    /* \"#utility.yul\":1644:1671   */\n  0x496e76616c6964205072697a65506f6f6c206164647265737300000000000000\n    /* \"#utility.yul\":1624:1642   */\n  0x44\n  dup3\n  add\n    /* \"#utility.yul\":1617:1672   */\n  mstore\n    /* \"#utility.yul\":1689:1707   */\n  0x64\n  add\n    /* \"contracts/YieldAggregator.sol\":1095:1157  require(_prizePool != address(0), \"Invalid PrizePool address\") */\n  tag_13\n    /* \"#utility.yul\":1364:1713   */\n  jump\n    /* \"contracts/YieldAggregator.sol\":1095:1157  require(_prizePool != address(0), \"Invalid PrizePool address\") */\ntag_18:\n  sub(shl(0xa0, 0x01), 0x01)\n    /* \"contracts/YieldAggregator.sol\":1168:1188  weth = IERC20(_weth) */\n  swap4\n  dup5\n  and\n  0xa0\n  mstore\n    /* \"contracts/YieldAggregator.sol\":1198:1203  vault */\n  0x01\n    /* \"contracts/YieldAggregator.sol\":1198:1220  vault = IVault(_vault) */\n  dup1\n  sload\n  swap4\n  dup6\n  and\n  not(sub(shl(0xa0, 0x01), 0x01))\n  swap5\n  dup6\n  and\n  or\n  swap1\n  sstore\n    /* \"contracts/YieldAggregator.sol\":1230:1239  prizePool */\n  0x02\n    /* \"contracts/YieldAggregator.sol\":1230:1264  prizePool = IPrizePool(_prizePool) */\n  dup1\n  sload\n  swap3\n  dup6\n  and\n  swap3\n  swap1\n  swap4\n  and\n  swap2\n  swap1\n  swap2\n  or\n  swap1\n  swap2\n  sstore\n    /* \"contracts/YieldAggregator.sol\":1274:1296  comet = IComet(_comet) */\n  and\n  0x80\n  mstore\n    /* \"contracts/YieldAggregator.sol\":458:3510  contract YieldAggregator is Ownable {... */\n  jump(tag_25)\n    /* \"@openzeppelin/contracts/access/Ownable.sol\":2270:2457  function _transferOwnership(address newOwner) internal virtual {... */\ntag_10:\n    /* \"@openzeppelin/contracts/access/Ownable.sol\":2343:2359  address oldOwner */\n  0x00\n    /* \"@openzeppelin/contracts/access/Ownable.sol\":2362:2368  _owner */\n  dup1\n  sload\n  sub(shl(0xa0, 0x01), 0x01)\n    /* \"@openzeppelin/contracts/access/Ownable.sol\":2378:2395  _owner = newOwner */\n  dup4\n  dup2\n  and\n  not(sub(shl(0xa0, 0x01), 0x01))\n  dup4\n  and\n  dup2\n  or\n  dup5\n  sstore\n    /* \"@openzeppelin/contracts/access/Ownable.sol\":2410:2450  OwnershipTransferred(oldOwner, newOwner) */\n  mload(0x40)\n    /* \"@openzeppelin/contracts/access/Ownable.sol\":2362:2368  _owner */\n  swap2\n  swap1\n  swap3\n  and\n  swap3\n  dup4\n  swap2\n    /* \"@openzeppelin/contracts/access/Ownable.sol\":2410:2450  OwnershipTransferred(oldOwner, newOwner) */\n  0x8be0079c531659141344cd1fd0a4f28419497f9722a3daafe3b4186f6b6457e0\n  swap2\n    /* \"@openzeppelin/contracts/access/Ownable.sol\":2343:2359  address oldOwner */\n  swap1\n    /* \"@openzeppelin/contracts/access/Ownable.sol\":2410:2450  OwnershipTransferred(oldOwner, newOwner) */\n  log3\n    /* \"@openzeppelin/contracts/access/Ownable.sol\":2333:2457  {... */\n  pop\n    /* \"@openzeppelin/contracts/access/Ownable.sol\":2270:2457  function _transferOwnership(address newOwner) internal virtual {... */\n  pop\n  jump\t// out\n    /* \"#utility.yul\":14:191   */\ntag_24:\n    /* \"#utility.yul\":93:106   */\n  dup1\n  mload\n  sub(shl(0xa0, 0x01), 0x01)\n    /* \"#utility.yul\":135:166   */\n  dup2\n  and\n    /* \"#utility.yul\":125:167   */\n  dup2\n  eq\n    /* \"#utility.yul\":115:185   */\n  tag_27\n  jumpi\n    /* \"#utility.yul\":181:182   */\n  0x00\n    /* \"#utility.yul\":178:179   */\n  0x00\n    /* \"#utility.yul\":171:183   */\n  revert\n    /* \"#utility.yul\":115:185   */\ntag_27:\n    /* \"#utility.yul\":14:191   */\n  swap2\n  swap1\n  pop\n  jump\t// out\n    /* \"#utility.yul\":196:660   */\ntag_3:\n    /* \"#utility.yul\":293:299   */\n  0x00\n    /* \"#utility.yul\":301:307   */\n  0x00\n    /* \"#utility.yul\":309:315   */\n  0x00\n    /* \"#utility.yul\":317:323   */\n  0x00\n    /* \"#utility.yul\":370:373   */\n  0x80\n    /* \"#utility.yul\":358:367   */\n  dup6\n    /* \"#utility.yul\":349:356   */\n  dup8\n    /* \"#utility.yul\":345:368   */\n  sub\n    /* \"#utility.yul\":341:374   */\n  slt\n    /* \"#utility.yul\":338:391   */\n  iszero\n  tag_29\n  jumpi\n    /* \"#utility.yul\":387:388   */\n  0x00\n    /* \"#utility.yul\":384:385   */\n  0x00\n    /* \"#utility.yul\":377:389   */\n  revert\n    /* \"#utility.yul\":338:391   */\ntag_29:\n    /* \"#utility.yul\":410:450   */\n  tag_30\n    /* \"#utility.yul\":440:449   */\n  dup6\n    /* \"#utility.yul\":410:450   */\n  tag_24\n  jump\t// in\ntag_30:\n    /* \"#utility.yul\":400:450   */\n  swap4\n  pop\n    /* \"#utility.yul\":469:518   */\n  tag_31\n    /* \"#utility.yul\":514:516   */\n  0x20\n    /* \"#utility.yul\":503:512   */\n  dup7\n    /* \"#utility.yul\":499:517   */\n  add\n    /* \"#utility.yul\":469:518   */\n  tag_24\n  jump\t// in\ntag_31:\n    /* \"#utility.yul\":459:518   */\n  swap3\n  pop\n    /* \"#utility.yul\":537:586   */\n  tag_32\n    /* \"#utility.yul\":582:584   */\n  0x40\n    /* \"#utility.yul\":571:580   */\n  dup7\n    /* \"#utility.yul\":567:585   */\n  add\n    /* \"#utility.yul\":537:586   */\n  tag_24\n  jump\t// in\ntag_32:\n    /* \"#utility.yul\":527:586   */\n  swap2\n  pop\n    /* \"#utility.yul\":605:654   */\n  tag_33\n    /* \"#utility.yul\":650:652   */\n  0x60\n    /* \"#utility.yul\":639:648   */\n  dup7\n    /* \"#utility.yul\":635:653   */\n  add\n    /* \"#utility.yul\":605:654   */\n  tag_24\n  jump\t// in\ntag_33:\n    /* \"#utility.yul\":595:654   */\n  swap1\n  pop\n    /* \"#utility.yul\":196:660   */\n  swap3\n  swap6\n  swap2\n  swap5\n  pop\n  swap3\n  pop\n  jump\t// out\n    /* \"#utility.yul\":1364:1713   */\ntag_25:\n    /* \"contracts/YieldAggregator.sol\":458:3510  contract YieldAggregator is Ownable {... */\n  mload(0x80)\n  mload(0xa0)\n  codecopy(0x00, dataOffset(sub_0), dataSize(sub_0))\n  0x00\n  assignImmutable(\"0xc54c5452b104751fde6e79369f1e7835722fc73c62bb7947ed8a0846a81f48b5\")\n  0x00\n  assignImmutable(\"0x6899d1fa68cf48634632762f4cd0ec59d591ccbdd349962c4ae5d93ddad42969\")\n  return(0x00, dataSize(sub_0))\nstop\n\nsub_0: assembly {\n        /* \"contracts/YieldAggregator.sol\":458:3510  contract YieldAggregator is Ownable {... */\n      mstore(0x40, 0x80)\n      callvalue\n      dup1\n      iszero\n      tag_1\n      jumpi\n      revert(0x00, 0x00)\n    tag_1:\n      pop\n      jumpi(tag_2, lt(calldatasize, 0x04))\n      shr(0xe0, calldataload(0x00))\n      dup1\n      0x8da5cb5b\n      gt\n      tag_13\n      jumpi\n      dup1\n      0x8da5cb5b\n      eq\n      tag_8\n      jumpi\n      dup1\n      0xb6b55f25\n      eq\n      tag_9\n      jumpi\n      dup1\n      0xba3e9c12\n      eq\n      tag_10\n      jumpi\n      dup1\n      0xf2fde38b\n      eq\n      tag_11\n      jumpi\n      dup1\n      0xfbfa77cf\n      eq\n      tag_12\n      jumpi\n      revert(0x00, 0x00)\n    tag_13:\n      dup1\n      0x2e1a7d4d\n      eq\n      tag_3\n      jumpi\n      dup1\n      0x3fc8cef3\n      eq\n      tag_4\n      jumpi\n      dup1\n      0x715018a6\n      eq\n      tag_5\n      jumpi\n      dup1\n      0x719ce73e\n      eq\n      tag_6\n      jumpi\n      dup1\n      0x722713f7\n      eq\n      tag_7\n      jumpi\n    tag_2:\n      revert(0x00, 0x00)\n        /* \"contracts/YieldAggregator.sol\":2837:3286  function withdraw(uint256 amount) external onlyPrizePoolOrVault returns (bool) {... */\n    tag_3:\n      tag_14\n      tag_15\n      calldatasize\n      0x04\n      tag_16\n      jump\t// in\n    tag_15:\n      tag_17\n      jump\t// in\n    tag_14:\n      mload(0x40)\n        /* \"#utility.yul\":364:378   */\n      swap1\n      iszero\n        /* \"#utility.yul\":357:379   */\n      iszero\n        /* \"#utility.yul\":339:380   */\n      dup2\n      mstore\n        /* \"#utility.yul\":327:329   */\n      0x20\n        /* \"#utility.yul\":312:330   */\n      add\n        /* \"contracts/YieldAggregator.sol\":2837:3286  function withdraw(uint256 amount) external onlyPrizePoolOrVault returns (bool) {... */\n    tag_18:\n      mload(0x40)\n      dup1\n      swap2\n      sub\n      swap1\n      return\n        /* \"contracts/YieldAggregator.sol\":569:597  IERC20 public immutable weth */\n    tag_4:\n      tag_20\n      immutable(\"0xc54c5452b104751fde6e79369f1e7835722fc73c62bb7947ed8a0846a81f48b5\")\n      dup2\n      jump\n    tag_20:\n      mload(0x40)\n      sub(shl(0xa0, 0x01), 0x01)\n        /* \"#utility.yul\":569:601   */\n      swap1\n      swap2\n      and\n        /* \"#utility.yul\":551:602   */\n      dup2\n      mstore\n        /* \"#utility.yul\":539:541   */\n      0x20\n        /* \"#utility.yul\":524:542   */\n      add\n        /* \"contracts/YieldAggregator.sol\":569:597  IERC20 public immutable weth */\n      tag_18\n        /* \"#utility.yul\":391:608   */\n      jump\n        /* \"@openzeppelin/contracts/access/Ownable.sol\":1668:1769  function renounceOwnership() public virtual onlyOwner {... */\n    tag_5:\n      tag_24\n      tag_25\n      jump\t// in\n    tag_24:\n      stop\n        /* \"contracts/YieldAggregator.sol\":628:655  IPrizePool public prizePool */\n    tag_6:\n      sload(0x02)\n      tag_20\n      swap1\n      sub(shl(0xa0, 0x01), 0x01)\n      and\n      dup2\n      jump\n        /* \"contracts/YieldAggregator.sol\":3401:3508  function balanceOf() external view returns (uint256) {... */\n    tag_7:\n      tag_30\n      tag_31\n      jump\t// in\n    tag_30:\n      mload(0x40)\n        /* \"#utility.yul\":986:1011   */\n      swap1\n      dup2\n      mstore\n        /* \"#utility.yul\":974:976   */\n      0x20\n        /* \"#utility.yul\":959:977   */\n      add\n        /* \"contracts/YieldAggregator.sol\":3401:3508  function balanceOf() external view returns (uint256) {... */\n      tag_18\n        /* \"#utility.yul\":840:1017   */\n      jump\n        /* \"@openzeppelin/contracts/access/Ownable.sol\":1036:1121  function owner() public view virtual returns (address) {... */\n    tag_8:\n        /* \"@openzeppelin/contracts/access/Ownable.sol\":1082:1089  address */\n      0x00\n        /* \"@openzeppelin/contracts/access/Ownable.sol\":1108:1114  _owner */\n      sload\n      sub(shl(0xa0, 0x01), 0x01)\n      and\n        /* \"@openzeppelin/contracts/access/Ownable.sol\":1036:1121  function owner() public view virtual returns (address) {... */\n      jump(tag_20)\n        /* \"contracts/YieldAggregator.sol\":2059:2602  function deposit(uint256 amount) external onlyVault returns (bool) {... */\n    tag_9:\n      tag_14\n      tag_39\n      calldatasize\n      0x04\n      tag_16\n      jump\t// in\n    tag_39:\n      tag_40\n      jump\t// in\n        /* \"contracts/YieldAggregator.sol\":533:562  IComet public immutable comet */\n    tag_10:\n      tag_20\n      immutable(\"0x6899d1fa68cf48634632762f4cd0ec59d591ccbdd349962c4ae5d93ddad42969\")\n      dup2\n      jump\n        /* \"@openzeppelin/contracts/access/Ownable.sol\":1918:2116  function transferOwnership(address newOwner) public virtual onlyOwner {... */\n    tag_11:\n      tag_24\n      tag_47\n      calldatasize\n      0x04\n      tag_48\n      jump\t// in\n    tag_47:\n      tag_49\n      jump\t// in\n        /* \"contracts/YieldAggregator.sol\":603:622  IVault public vault */\n    tag_12:\n      sload(0x01)\n      tag_20\n      swap1\n      sub(shl(0xa0, 0x01), 0x01)\n      and\n      dup2\n      jump\n        /* \"contracts/YieldAggregator.sol\":2837:3286  function withdraw(uint256 amount) external onlyPrizePoolOrVault returns (bool) {... */\n    tag_17:\n        /* \"contracts/YieldAggregator.sol\":1552:1561  prizePool */\n      sload(0x02)\n        /* \"contracts/YieldAggregator.sol\":2910:2914  bool */\n      0x00\n      swap1\n      sub(shl(0xa0, 0x01), 0x01)\n        /* \"contracts/YieldAggregator.sol\":1552:1561  prizePool */\n      and\n        /* \"contracts/YieldAggregator.sol\":1530:1540  msg.sender */\n      caller\n        /* \"contracts/YieldAggregator.sol\":1530:1562  msg.sender == address(prizePool) */\n      eq\n      dup1\n        /* \"contracts/YieldAggregator.sol\":1530:1594  msg.sender == address(prizePool) || msg.sender == address(vault) */\n      tag_55\n      jumpi\n      pop\n        /* \"contracts/YieldAggregator.sol\":1588:1593  vault */\n      and(sub(shl(0xa0, 0x01), 0x01), sload(0x01))\n        /* \"contracts/YieldAggregator.sol\":1566:1576  msg.sender */\n      caller\n        /* \"contracts/YieldAggregator.sol\":1566:1594  msg.sender == address(vault) */\n      eq\n        /* \"contracts/YieldAggregator.sol\":1530:1594  msg.sender == address(prizePool) || msg.sender == address(vault) */\n    tag_55:\n        /* \"contracts/YieldAggregator.sol\":1509:1665  require(... */\n      tag_56\n      jumpi\n      mload(0x40)\n      shl(0xe5, 0x461bcd)\n      dup2\n      mstore\n        /* \"#utility.yul\":2169:2171   */\n      0x20\n        /* \"contracts/YieldAggregator.sol\":1509:1665  require(... */\n      0x04\n      dup3\n      add\n        /* \"#utility.yul\":2151:2172   */\n      mstore\n        /* \"#utility.yul\":2208:2210   */\n      0x2d\n        /* \"#utility.yul\":2188:2206   */\n      0x24\n      dup3\n      add\n        /* \"#utility.yul\":2181:2211   */\n      mstore\n        /* \"#utility.yul\":2247:2281   */\n      0x43616c6c6572206973206e6f7420746865205072697a65506f6f6c206f722056\n        /* \"#utility.yul\":2227:2245   */\n      0x44\n      dup3\n      add\n        /* \"#utility.yul\":2220:2282   */\n      mstore\n      shl(0x9a, 0x185d5b1d0818dbdb9d1c9858dd)\n        /* \"#utility.yul\":2298:2316   */\n      0x64\n      dup3\n      add\n        /* \"#utility.yul\":2291:2334   */\n      mstore\n        /* \"#utility.yul\":2351:2370   */\n      0x84\n      add\n        /* \"contracts/YieldAggregator.sol\":1509:1665  require(... */\n    tag_57:\n      mload(0x40)\n      dup1\n      swap2\n      sub\n      swap1\n      revert\n    tag_56:\n        /* \"contracts/YieldAggregator.sol\":2943:2944  0 */\n      0x00\n        /* \"contracts/YieldAggregator.sol\":2934:2940  amount */\n      dup3\n        /* \"contracts/YieldAggregator.sol\":2934:2944  amount > 0 */\n      gt\n        /* \"contracts/YieldAggregator.sol\":2926:2981  require(amount > 0, \"Amount must be greater than zero\") */\n      tag_60\n      jumpi\n      mload(0x40)\n      shl(0xe5, 0x461bcd)\n      dup2\n      mstore\n        /* \"#utility.yul\":2583:2585   */\n      0x20\n        /* \"contracts/YieldAggregator.sol\":2926:2981  require(amount > 0, \"Amount must be greater than zero\") */\n      0x04\n      dup3\n      add\n        /* \"#utility.yul\":2565:2586   */\n      dup2\n      swap1\n      mstore\n        /* \"#utility.yul\":2602:2620   */\n      0x24\n      dup3\n      add\n        /* \"#utility.yul\":2595:2625   */\n      mstore\n        /* \"#utility.yul\":2661:2695   */\n      0x416d6f756e74206d7573742062652067726561746572207468616e207a65726f\n        /* \"#utility.yul\":2641:2659   */\n      0x44\n      dup3\n      add\n        /* \"#utility.yul\":2634:2696   */\n      mstore\n        /* \"#utility.yul\":2713:2731   */\n      0x64\n      add\n        /* \"contracts/YieldAggregator.sol\":2926:2981  require(amount > 0, \"Amount must be greater than zero\") */\n      tag_57\n        /* \"#utility.yul\":2381:2737   */\n      jump\n        /* \"contracts/YieldAggregator.sol\":2926:2981  require(amount > 0, \"Amount must be greater than zero\") */\n    tag_60:\n        /* \"contracts/YieldAggregator.sol\":3043:3080  comet.withdraw(address(weth), amount) */\n      mload(0x40)\n      shl(0xe0, 0xf3fef3a3)\n      dup2\n      mstore\n      sub(shl(0xa0, 0x01), 0x01)\n        /* \"contracts/YieldAggregator.sol\":3066:3070  weth */\n      immutable(\"0xc54c5452b104751fde6e79369f1e7835722fc73c62bb7947ed8a0846a81f48b5\")\n        /* \"#utility.yul\":2934:2966   */\n      dup2\n      and\n        /* \"contracts/YieldAggregator.sol\":3043:3080  comet.withdraw(address(weth), amount) */\n      0x04\n      dup4\n      add\n        /* \"#utility.yul\":2916:2967   */\n      mstore\n        /* \"#utility.yul\":2983:3001   */\n      0x24\n      dup3\n      add\n        /* \"#utility.yul\":2976:3010   */\n      dup5\n      swap1\n      mstore\n        /* \"contracts/YieldAggregator.sol\":3043:3048  comet */\n      immutable(\"0x6899d1fa68cf48634632762f4cd0ec59d591ccbdd349962c4ae5d93ddad42969\")\n        /* \"contracts/YieldAggregator.sol\":3043:3057  comet.withdraw */\n      and\n      swap1\n      0xf3fef3a3\n      swap1\n        /* \"#utility.yul\":2889:2907   */\n      0x44\n      add\n        /* \"contracts/YieldAggregator.sol\":3043:3080  comet.withdraw(address(weth), amount) */\n      0x00\n      mload(0x40)\n      dup1\n      dup4\n      sub\n      dup2\n      0x00\n      dup8\n      dup1\n      extcodesize\n      iszero\n      dup1\n      iszero\n      tag_65\n      jumpi\n      revert(0x00, 0x00)\n    tag_65:\n      pop\n      gas\n      call\n      iszero\n      dup1\n      iszero\n      tag_67\n      jumpi\n      returndatacopy(0x00, 0x00, returndatasize)\n      revert(0x00, returndatasize)\n    tag_67:\n      pop\n        /* \"contracts/YieldAggregator.sol\":3126:3163  weth.safeTransfer(msg.sender, amount) */\n      tag_68\n      swap3\n      pop\n      pop\n      sub(shl(0xa0, 0x01), 0x01)\n        /* \"contracts/YieldAggregator.sol\":3126:3130  weth */\n      immutable(\"0xc54c5452b104751fde6e79369f1e7835722fc73c62bb7947ed8a0846a81f48b5\")\n        /* \"contracts/YieldAggregator.sol\":3126:3143  weth.safeTransfer */\n      and\n      swap1\n      pop\n        /* \"contracts/YieldAggregator.sol\":3144:3154  msg.sender */\n      caller\n        /* \"contracts/YieldAggregator.sol\":3156:3162  amount */\n      dup5\n        /* \"contracts/YieldAggregator.sol\":3126:3143  weth.safeTransfer */\n      tag_69\n        /* \"contracts/YieldAggregator.sol\":3126:3163  weth.safeTransfer(msg.sender, amount) */\n      jump\t// in\n    tag_68:\n        /* \"contracts/YieldAggregator.sol\":3212:3258  Withdrawn(msg.sender, amount, block.timestamp) */\n      0x40\n      dup1\n      mload\n        /* \"#utility.yul\":3195:3220   */\n      dup4\n      dup2\n      mstore\n        /* \"contracts/YieldAggregator.sol\":3242:3257  block.timestamp */\n      timestamp\n        /* \"#utility.yul\":3251:3253   */\n      0x20\n        /* \"#utility.yul\":3236:3254   */\n      dup3\n      add\n        /* \"#utility.yul\":3229:3263   */\n      mstore\n        /* \"contracts/YieldAggregator.sol\":3222:3232  msg.sender */\n      caller\n      swap2\n        /* \"contracts/YieldAggregator.sol\":3212:3258  Withdrawn(msg.sender, amount, block.timestamp) */\n      0x92ccf450a286a957af52509bc1c9939d1a6a481783e142e41e2499f0bb66ebc6\n      swap2\n        /* \"#utility.yul\":3168:3186   */\n      add\n        /* \"contracts/YieldAggregator.sol\":3212:3258  Withdrawn(msg.sender, amount, block.timestamp) */\n    tag_70:\n      mload(0x40)\n      dup1\n      swap2\n      sub\n      swap1\n      log2\n      pop\n        /* \"contracts/YieldAggregator.sol\":3275:3279  true */\n      0x01\n        /* \"contracts/YieldAggregator.sol\":2837:3286  function withdraw(uint256 amount) external onlyPrizePoolOrVault returns (bool) {... */\n      swap2\n      swap1\n      pop\n      jump\t// out\n        /* \"@openzeppelin/contracts/access/Ownable.sol\":1668:1769  function renounceOwnership() public virtual onlyOwner {... */\n    tag_25:\n        /* \"@openzeppelin/contracts/access/Ownable.sol\":1082:1089  address */\n      0x00\n        /* \"@openzeppelin/contracts/access/Ownable.sol\":1108:1114  _owner */\n      sload\n      sub(shl(0xa0, 0x01), 0x01)\n      and\n        /* \"@openzeppelin/contracts/utils/Context.sol\":719:729  msg.sender */\n      caller\n        /* \"@openzeppelin/contracts/access/Ownable.sol\":1248:1271  owner() == _msgSender() */\n      eq\n        /* \"@openzeppelin/contracts/access/Ownable.sol\":1240:1308  require(owner() == _msgSender(), \"Ownable: caller is not the owner\") */\n      tag_76\n      jumpi\n      mload(0x40)\n      shl(0xe5, 0x461bcd)\n      dup2\n      mstore\n        /* \"#utility.yul\":3476:3478   */\n      0x20\n        /* \"@openzeppelin/contracts/access/Ownable.sol\":1240:1308  require(owner() == _msgSender(), \"Ownable: caller is not the owner\") */\n      0x04\n      dup3\n      add\n        /* \"#utility.yul\":3458:3479   */\n      dup2\n      swap1\n      mstore\n        /* \"#utility.yul\":3495:3513   */\n      0x24\n      dup3\n      add\n        /* \"#utility.yul\":3488:3518   */\n      mstore\n        /* \"#utility.yul\":3554:3588   */\n      0x4f776e61626c653a2063616c6c6572206973206e6f7420746865206f776e6572\n        /* \"#utility.yul\":3534:3552   */\n      0x44\n      dup3\n      add\n        /* \"#utility.yul\":3527:3589   */\n      mstore\n        /* \"#utility.yul\":3606:3624   */\n      0x64\n      add\n        /* \"@openzeppelin/contracts/access/Ownable.sol\":1240:1308  require(owner() == _msgSender(), \"Ownable: caller is not the owner\") */\n      tag_57\n        /* \"#utility.yul\":3274:3630   */\n      jump\n        /* \"@openzeppelin/contracts/access/Ownable.sol\":1240:1308  require(owner() == _msgSender(), \"Ownable: caller is not the owner\") */\n    tag_76:\n        /* \"@openzeppelin/contracts/access/Ownable.sol\":1732:1762  _transferOwnership(address(0)) */\n      tag_80\n        /* \"@openzeppelin/contracts/access/Ownable.sol\":1759:1760  0 */\n      0x00\n        /* \"@openzeppelin/contracts/access/Ownable.sol\":1732:1750  _transferOwnership */\n      tag_81\n        /* \"@openzeppelin/contracts/access/Ownable.sol\":1732:1762  _transferOwnership(address(0)) */\n      jump\t// in\n    tag_80:\n        /* \"@openzeppelin/contracts/access/Ownable.sol\":1668:1769  function renounceOwnership() public virtual onlyOwner {... */\n      jump\t// out\n        /* \"contracts/YieldAggregator.sol\":3401:3508  function balanceOf() external view returns (uint256) {... */\n    tag_31:\n        /* \"contracts/YieldAggregator.sol\":3471:3501  comet.balanceOf(address(this)) */\n      mload(0x40)\n      shl(0xe0, 0x70a08231)\n      dup2\n      mstore\n        /* \"contracts/YieldAggregator.sol\":3495:3499  this */\n      address\n        /* \"contracts/YieldAggregator.sol\":3471:3501  comet.balanceOf(address(this)) */\n      0x04\n      dup3\n      add\n        /* \"#utility.yul\":551:602   */\n      mstore\n        /* \"contracts/YieldAggregator.sol\":3445:3452  uint256 */\n      0x00\n      swap1\n        /* \"contracts/YieldAggregator.sol\":3471:3476  comet */\n      immutable(\"0x6899d1fa68cf48634632762f4cd0ec59d591ccbdd349962c4ae5d93ddad42969\")\n      sub(shl(0xa0, 0x01), 0x01)\n        /* \"contracts/YieldAggregator.sol\":3471:3486  comet.balanceOf */\n      and\n      swap1\n      0x70a08231\n      swap1\n        /* \"#utility.yul\":524:542   */\n      0x24\n      add\n        /* \"contracts/YieldAggregator.sol\":3471:3501  comet.balanceOf(address(this)) */\n      0x20\n      mload(0x40)\n      dup1\n      dup4\n      sub\n      dup2\n      dup7\n      gas\n      staticcall\n      iszero\n      dup1\n      iszero\n      tag_85\n      jumpi\n      returndatacopy(0x00, 0x00, returndatasize)\n      revert(0x00, returndatasize)\n    tag_85:\n      pop\n      pop\n      pop\n      pop\n      mload(0x40)\n      returndatasize\n      not(0x1f)\n      0x1f\n      dup3\n      add\n      and\n      dup3\n      add\n      dup1\n      0x40\n      mstore\n      pop\n      dup2\n      add\n      swap1\n      tag_86\n      swap2\n      swap1\n      tag_87\n      jump\t// in\n    tag_86:\n        /* \"contracts/YieldAggregator.sol\":3464:3501  return comet.balanceOf(address(this)) */\n      swap1\n      pop\n        /* \"contracts/YieldAggregator.sol\":3401:3508  function balanceOf() external view returns (uint256) {... */\n      swap1\n      jump\t// out\n        /* \"contracts/YieldAggregator.sol\":2059:2602  function deposit(uint256 amount) external onlyVault returns (bool) {... */\n    tag_40:\n        /* \"contracts/YieldAggregator.sol\":1750:1755  vault */\n      sload(0x01)\n        /* \"contracts/YieldAggregator.sol\":2120:2124  bool */\n      0x00\n      swap1\n      sub(shl(0xa0, 0x01), 0x01)\n        /* \"contracts/YieldAggregator.sol\":1750:1755  vault */\n      and\n        /* \"contracts/YieldAggregator.sol\":1728:1738  msg.sender */\n      caller\n        /* \"contracts/YieldAggregator.sol\":1728:1756  msg.sender == address(vault) */\n      eq\n        /* \"contracts/YieldAggregator.sol\":1720:1793  require(msg.sender == address(vault), \"Caller is not the Vault contract\") */\n      tag_90\n      jumpi\n      mload(0x40)\n      shl(0xe5, 0x461bcd)\n      dup2\n      mstore\n        /* \"#utility.yul\":4026:4028   */\n      0x20\n        /* \"contracts/YieldAggregator.sol\":1720:1793  require(msg.sender == address(vault), \"Caller is not the Vault contract\") */\n      0x04\n      dup3\n      add\n        /* \"#utility.yul\":4008:4029   */\n      dup2\n      swap1\n      mstore\n        /* \"#utility.yul\":4045:4063   */\n      0x24\n      dup3\n      add\n        /* \"#utility.yul\":4038:4068   */\n      mstore\n        /* \"#utility.yul\":4104:4138   */\n      0x43616c6c6572206973206e6f7420746865205661756c7420636f6e7472616374\n        /* \"#utility.yul\":4084:4102   */\n      0x44\n      dup3\n      add\n        /* \"#utility.yul\":4077:4139   */\n      mstore\n        /* \"#utility.yul\":4156:4174   */\n      0x64\n      add\n        /* \"contracts/YieldAggregator.sol\":1720:1793  require(msg.sender == address(vault), \"Caller is not the Vault contract\") */\n      tag_57\n        /* \"#utility.yul\":3824:4180   */\n      jump\n        /* \"contracts/YieldAggregator.sol\":1720:1793  require(msg.sender == address(vault), \"Caller is not the Vault contract\") */\n    tag_90:\n        /* \"contracts/YieldAggregator.sol\":2153:2154  0 */\n      0x00\n        /* \"contracts/YieldAggregator.sol\":2144:2150  amount */\n      dup3\n        /* \"contracts/YieldAggregator.sol\":2144:2154  amount > 0 */\n      gt\n        /* \"contracts/YieldAggregator.sol\":2136:2191  require(amount > 0, \"Amount must be greater than zero\") */\n      tag_94\n      jumpi\n      mload(0x40)\n      shl(0xe5, 0x461bcd)\n      dup2\n      mstore\n        /* \"#utility.yul\":2583:2585   */\n      0x20\n        /* \"contracts/YieldAggregator.sol\":2136:2191  require(amount > 0, \"Amount must be greater than zero\") */\n      0x04\n      dup3\n      add\n        /* \"#utility.yul\":2565:2586   */\n      dup2\n      swap1\n      mstore\n        /* \"#utility.yul\":2602:2620   */\n      0x24\n      dup3\n      add\n        /* \"#utility.yul\":2595:2625   */\n      mstore\n        /* \"#utility.yul\":2661:2695   */\n      0x416d6f756e74206d7573742062652067726561746572207468616e207a65726f\n        /* \"#utility.yul\":2641:2659   */\n      0x44\n      dup3\n      add\n        /* \"#utility.yul\":2634:2696   */\n      mstore\n        /* \"#utility.yul\":2713:2731   */\n      0x64\n      add\n        /* \"contracts/YieldAggregator.sol\":2136:2191  require(amount > 0, \"Amount must be greater than zero\") */\n      tag_57\n        /* \"#utility.yul\":2381:2737   */\n      jump\n        /* \"contracts/YieldAggregator.sol\":2136:2191  require(amount > 0, \"Amount must be greater than zero\") */\n    tag_94:\n        /* \"contracts/YieldAggregator.sol\":2255:2311  weth.safeTransferFrom(msg.sender, address(this), amount) */\n      tag_96\n      sub(shl(0xa0, 0x01), 0x01)\n        /* \"contracts/YieldAggregator.sol\":2255:2259  weth */\n      immutable(\"0xc54c5452b104751fde6e79369f1e7835722fc73c62bb7947ed8a0846a81f48b5\")\n        /* \"contracts/YieldAggregator.sol\":2255:2276  weth.safeTransferFrom */\n      and\n        /* \"contracts/YieldAggregator.sol\":2277:2287  msg.sender */\n      caller\n        /* \"contracts/YieldAggregator.sol\":2297:2301  this */\n      address\n        /* \"contracts/YieldAggregator.sol\":2304:2310  amount */\n      dup6\n        /* \"contracts/YieldAggregator.sol\":2255:2276  weth.safeTransferFrom */\n      tag_97\n        /* \"contracts/YieldAggregator.sol\":2255:2311  weth.safeTransferFrom(msg.sender, address(this), amount) */\n      jump\t// in\n    tag_96:\n        /* \"contracts/YieldAggregator.sol\":2358:2398  weth.safeApprove(address(comet), amount) */\n      tag_98\n      sub(shl(0xa0, 0x01), 0x01)\n        /* \"contracts/YieldAggregator.sol\":2358:2362  weth */\n      immutable(\"0xc54c5452b104751fde6e79369f1e7835722fc73c62bb7947ed8a0846a81f48b5\")\n        /* \"contracts/YieldAggregator.sol\":2358:2374  weth.safeApprove */\n      and\n        /* \"contracts/YieldAggregator.sol\":2383:2388  comet */\n      immutable(\"0x6899d1fa68cf48634632762f4cd0ec59d591ccbdd349962c4ae5d93ddad42969\")\n        /* \"contracts/YieldAggregator.sol\":2391:2397  amount */\n      dup5\n        /* \"contracts/YieldAggregator.sol\":2358:2374  weth.safeApprove */\n      tag_99\n        /* \"contracts/YieldAggregator.sol\":2358:2398  weth.safeApprove(address(comet), amount) */\n      jump\t// in\n    tag_98:\n        /* \"contracts/YieldAggregator.sol\":2447:2482  comet.supply(address(weth), amount) */\n      mload(0x40)\n      shl(0xe3, 0x1e573fb7)\n      dup2\n      mstore\n      sub(shl(0xa0, 0x01), 0x01)\n        /* \"contracts/YieldAggregator.sol\":2468:2472  weth */\n      immutable(\"0xc54c5452b104751fde6e79369f1e7835722fc73c62bb7947ed8a0846a81f48b5\")\n        /* \"#utility.yul\":2934:2966   */\n      dup2\n      and\n        /* \"contracts/YieldAggregator.sol\":2447:2482  comet.supply(address(weth), amount) */\n      0x04\n      dup4\n      add\n        /* \"#utility.yul\":2916:2967   */\n      mstore\n        /* \"#utility.yul\":2983:3001   */\n      0x24\n      dup3\n      add\n        /* \"#utility.yul\":2976:3010   */\n      dup5\n      swap1\n      mstore\n        /* \"contracts/YieldAggregator.sol\":2447:2452  comet */\n      immutable(\"0x6899d1fa68cf48634632762f4cd0ec59d591ccbdd349962c4ae5d93ddad42969\")\n        /* \"contracts/YieldAggregator.sol\":2447:2459  comet.supply */\n      and\n      swap1\n      0xf2b9fdb8\n      swap1\n        /* \"#utility.yul\":2889:2907   */\n      0x44\n      add\n        /* \"contracts/YieldAggregator.sol\":2447:2482  comet.supply(address(weth), amount) */\n      0x00\n      mload(0x40)\n      dup1\n      dup4\n      sub\n      dup2\n      0x00\n      dup8\n      dup1\n      extcodesize\n      iszero\n      dup1\n      iszero\n      tag_101\n      jumpi\n      revert(0x00, 0x00)\n    tag_101:\n      pop\n      gas\n      call\n      iszero\n      dup1\n      iszero\n      tag_103\n      jumpi\n      returndatacopy(0x00, 0x00, returndatasize)\n      revert(0x00, returndatasize)\n    tag_103:\n      pop\n      pop\n        /* \"contracts/YieldAggregator.sol\":2528:2574  Deposited(msg.sender, amount, block.timestamp) */\n      0x40\n      dup1\n      mload\n        /* \"#utility.yul\":3195:3220   */\n      dup6\n      dup2\n      mstore\n        /* \"contracts/YieldAggregator.sol\":2558:2573  block.timestamp */\n      timestamp\n        /* \"#utility.yul\":3251:3253   */\n      0x20\n        /* \"#utility.yul\":3236:3254   */\n      dup3\n      add\n        /* \"#utility.yul\":3229:3263   */\n      mstore\n        /* \"contracts/YieldAggregator.sol\":2538:2548  msg.sender */\n      caller\n      swap4\n      pop\n        /* \"contracts/YieldAggregator.sol\":2528:2574  Deposited(msg.sender, amount, block.timestamp) */\n      0x73a19dd210f1a7f902193214c0ee91dd35ee5b4d920cba8d519eca65a7b488ca\n      swap3\n      pop\n        /* \"#utility.yul\":3168:3186   */\n      add\n        /* \"contracts/YieldAggregator.sol\":2528:2574  Deposited(msg.sender, amount, block.timestamp) */\n      tag_70\n        /* \"#utility.yul\":3021:3269   */\n      jump\n        /* \"@openzeppelin/contracts/access/Ownable.sol\":1918:2116  function transferOwnership(address newOwner) public virtual onlyOwner {... */\n    tag_49:\n        /* \"@openzeppelin/contracts/access/Ownable.sol\":1082:1089  address */\n      0x00\n        /* \"@openzeppelin/contracts/access/Ownable.sol\":1108:1114  _owner */\n      sload\n      sub(shl(0xa0, 0x01), 0x01)\n      and\n        /* \"@openzeppelin/contracts/utils/Context.sol\":719:729  msg.sender */\n      caller\n        /* \"@openzeppelin/contracts/access/Ownable.sol\":1248:1271  owner() == _msgSender() */\n      eq\n        /* \"@openzeppelin/contracts/access/Ownable.sol\":1240:1308  require(owner() == _msgSender(), \"Ownable: caller is not the owner\") */\n      tag_108\n      jumpi\n      mload(0x40)\n      shl(0xe5, 0x461bcd)\n      dup2\n      mstore\n        /* \"#utility.yul\":3476:3478   */\n      0x20\n        /* \"@openzeppelin/contracts/access/Ownable.sol\":1240:1308  require(owner() == _msgSender(), \"Ownable: caller is not the owner\") */\n      0x04\n      dup3\n      add\n        /* \"#utility.yul\":3458:3479   */\n      dup2\n      swap1\n      mstore\n        /* \"#utility.yul\":3495:3513   */\n      0x24\n      dup3\n      add\n        /* \"#utility.yul\":3488:3518   */\n      mstore\n        /* \"#utility.yul\":3554:3588   */\n      0x4f776e61626c653a2063616c6c6572206973206e6f7420746865206f776e6572\n        /* \"#utility.yul\":3534:3552   */\n      0x44\n      dup3\n      add\n        /* \"#utility.yul\":3527:3589   */\n      mstore\n        /* \"#utility.yul\":3606:3624   */\n      0x64\n      add\n        /* \"@openzeppelin/contracts/access/Ownable.sol\":1240:1308  require(owner() == _msgSender(), \"Ownable: caller is not the owner\") */\n      tag_57\n        /* \"#utility.yul\":3274:3630   */\n      jump\n        /* \"@openzeppelin/contracts/access/Ownable.sol\":1240:1308  require(owner() == _msgSender(), \"Ownable: caller is not the owner\") */\n    tag_108:\n      sub(shl(0xa0, 0x01), 0x01)\n        /* \"@openzeppelin/contracts/access/Ownable.sol\":2006:2028  newOwner != address(0) */\n      dup2\n      and\n        /* \"@openzeppelin/contracts/access/Ownable.sol\":1998:2071  require(newOwner != address(0), \"Ownable: new owner is the zero address\") */\n      tag_111\n      jumpi\n      mload(0x40)\n      shl(0xe5, 0x461bcd)\n      dup2\n      mstore\n        /* \"#utility.yul\":4387:4389   */\n      0x20\n        /* \"@openzeppelin/contracts/access/Ownable.sol\":1998:2071  require(newOwner != address(0), \"Ownable: new owner is the zero address\") */\n      0x04\n      dup3\n      add\n        /* \"#utility.yul\":4369:4390   */\n      mstore\n        /* \"#utility.yul\":4426:4428   */\n      0x26\n        /* \"#utility.yul\":4406:4424   */\n      0x24\n      dup3\n      add\n        /* \"#utility.yul\":4399:4429   */\n      mstore\n        /* \"#utility.yul\":4465:4499   */\n      0x4f776e61626c653a206e6577206f776e657220697320746865207a65726f2061\n        /* \"#utility.yul\":4445:4463   */\n      0x44\n      dup3\n      add\n        /* \"#utility.yul\":4438:4500   */\n      mstore\n      shl(0xd0, 0x646472657373)\n        /* \"#utility.yul\":4516:4534   */\n      0x64\n      dup3\n      add\n        /* \"#utility.yul\":4509:4545   */\n      mstore\n        /* \"#utility.yul\":4562:4581   */\n      0x84\n      add\n        /* \"@openzeppelin/contracts/access/Ownable.sol\":1998:2071  require(newOwner != address(0), \"Ownable: new owner is the zero address\") */\n      tag_57\n        /* \"#utility.yul\":4185:4587   */\n      jump\n        /* \"@openzeppelin/contracts/access/Ownable.sol\":1998:2071  require(newOwner != address(0), \"Ownable: new owner is the zero address\") */\n    tag_111:\n        /* \"@openzeppelin/contracts/access/Ownable.sol\":2081:2109  _transferOwnership(newOwner) */\n      tag_114\n        /* \"@openzeppelin/contracts/access/Ownable.sol\":2100:2108  newOwner */\n      dup2\n        /* \"@openzeppelin/contracts/access/Ownable.sol\":2081:2099  _transferOwnership */\n      tag_81\n        /* \"@openzeppelin/contracts/access/Ownable.sol\":2081:2109  _transferOwnership(newOwner) */\n      jump\t// in\n    tag_114:\n        /* \"@openzeppelin/contracts/access/Ownable.sol\":1918:2116  function transferOwnership(address newOwner) public virtual onlyOwner {... */\n      pop\n      jump\t// out\n        /* \"@openzeppelin/contracts/token/ERC20/utils/SafeERC20.sol\":701:906  function safeTransfer(... */\n    tag_69:\n        /* \"@openzeppelin/contracts/token/ERC20/utils/SafeERC20.sol\":840:898  abi.encodeWithSelector(token.transfer.selector, to, value) */\n      mload(0x40)\n      sub(shl(0xa0, 0x01), 0x01)\n        /* \"#utility.yul\":2934:2966   */\n      dup4\n      and\n        /* \"@openzeppelin/contracts/token/ERC20/utils/SafeERC20.sol\":840:898  abi.encodeWithSelector(token.transfer.selector, to, value) */\n      0x24\n      dup3\n      add\n        /* \"#utility.yul\":2916:2967   */\n      mstore\n        /* \"#utility.yul\":2983:3001   */\n      0x44\n      dup2\n      add\n        /* \"#utility.yul\":2976:3010   */\n      dup3\n      swap1\n      mstore\n        /* \"@openzeppelin/contracts/token/ERC20/utils/SafeERC20.sol\":813:899  _callOptionalReturn(token, abi.encodeWithSelector(token.transfer.selector, to, value)) */\n      tag_116\n      swap1\n        /* \"@openzeppelin/contracts/token/ERC20/utils/SafeERC20.sol\":833:838  token */\n      dup5\n      swap1\n      shl(0xe0, 0xa9059cbb)\n        /* \"@openzeppelin/contracts/token/ERC20/utils/SafeERC20.sol\":863:886  token.transfer.selector */\n      swap1\n        /* \"#utility.yul\":2889:2907   */\n      0x64\n      add\n        /* \"@openzeppelin/contracts/token/ERC20/utils/SafeERC20.sol\":840:898  abi.encodeWithSelector(token.transfer.selector, to, value) */\n    tag_117:\n      0x40\n      dup1\n      mload\n      not(0x1f)\n      dup2\n      dup5\n      sub\n      add\n      dup2\n      mstore\n      swap2\n      swap1\n      mstore\n      0x20\n      dup2\n      add\n      dup1\n      mload\n      sub(shl(0xe0, 0x01), 0x01)\n      and\n      not(sub(shl(0xe0, 0x01), 0x01))\n      swap1\n      swap4\n      and\n      swap3\n      swap1\n      swap3\n      or\n      swap1\n      swap2\n      mstore\n        /* \"@openzeppelin/contracts/token/ERC20/utils/SafeERC20.sol\":813:832  _callOptionalReturn */\n      tag_118\n        /* \"@openzeppelin/contracts/token/ERC20/utils/SafeERC20.sol\":813:899  _callOptionalReturn(token, abi.encodeWithSelector(token.transfer.selector, to, value)) */\n      jump\t// in\n    tag_116:\n        /* \"@openzeppelin/contracts/token/ERC20/utils/SafeERC20.sol\":701:906  function safeTransfer(... */\n      pop\n      pop\n      pop\n      jump\t// out\n        /* \"@openzeppelin/contracts/access/Ownable.sol\":2270:2457  function _transferOwnership(address newOwner) internal virtual {... */\n    tag_81:\n        /* \"@openzeppelin/contracts/access/Ownable.sol\":2343:2359  address oldOwner */\n      0x00\n        /* \"@openzeppelin/contracts/access/Ownable.sol\":2362:2368  _owner */\n      dup1\n      sload\n      sub(shl(0xa0, 0x01), 0x01)\n        /* \"@openzeppelin/contracts/access/Ownable.sol\":2378:2395  _owner = newOwner */\n      dup4\n      dup2\n      and\n      not(sub(shl(0xa0, 0x01), 0x01))\n      dup4\n      and\n      dup2\n      or\n      dup5\n      sstore\n        /* \"@openzeppelin/contracts/access/Ownable.sol\":2410:2450  OwnershipTransferred(oldOwner, newOwner) */\n      mload(0x40)\n        /* \"@openzeppelin/contracts/access/Ownable.sol\":2362:2368  _owner */\n      swap2\n      swap1\n      swap3\n      and\n      swap3\n      dup4\n      swap2\n        /* \"@openzeppelin/contracts/access/Ownable.sol\":2410:2450  OwnershipTransferred(oldOwner, newOwner) */\n      0x8be0079c531659141344cd1fd0a4f28419497f9722a3daafe3b4186f6b6457e0\n      swap2\n        /* \"@openzeppelin/contracts/access/Ownable.sol\":2343:2359  address oldOwner */\n      swap1\n        /* \"@openzeppelin/contracts/access/Ownable.sol\":2410:2450  OwnershipTransferred(oldOwner, newOwner) */\n      log3\n        /* \"@openzeppelin/contracts/access/Ownable.sol\":2333:2457  {... */\n      pop\n        /* \"@openzeppelin/contracts/access/Ownable.sol\":2270:2457  function _transferOwnership(address newOwner) internal virtual {... */\n      pop\n      jump\t// out\n        /* \"@openzeppelin/contracts/token/ERC20/utils/SafeERC20.sol\":912:1153  function safeTransferFrom(... */\n    tag_97:\n        /* \"@openzeppelin/contracts/token/ERC20/utils/SafeERC20.sol\":1077:1145  abi.encodeWithSelector(token.transferFrom.selector, from, to, value) */\n      mload(0x40)\n      sub(shl(0xa0, 0x01), 0x01)\n        /* \"#utility.yul\":4812:4844   */\n      dup1\n      dup6\n      and\n        /* \"@openzeppelin/contracts/token/ERC20/utils/SafeERC20.sol\":1077:1145  abi.encodeWithSelector(token.transferFrom.selector, from, to, value) */\n      0x24\n      dup4\n      add\n        /* \"#utility.yul\":4794:4845   */\n      mstore\n        /* \"#utility.yul\":4881:4913   */\n      dup4\n      and\n        /* \"#utility.yul\":4861:4879   */\n      0x44\n      dup3\n      add\n        /* \"#utility.yul\":4854:4914   */\n      mstore\n        /* \"#utility.yul\":4930:4948   */\n      0x64\n      dup2\n      add\n        /* \"#utility.yul\":4923:4957   */\n      dup3\n      swap1\n      mstore\n        /* \"@openzeppelin/contracts/token/ERC20/utils/SafeERC20.sol\":1050:1146  _callOptionalReturn(token, abi.encodeWithSelector(token.transferFrom.selector, from, to, value)) */\n      tag_122\n      swap1\n        /* \"@openzeppelin/contracts/token/ERC20/utils/SafeERC20.sol\":1070:1075  token */\n      dup6\n      swap1\n      shl(0xe0, 0x23b872dd)\n        /* \"@openzeppelin/contracts/token/ERC20/utils/SafeERC20.sol\":1100:1127  token.transferFrom.selector */\n      swap1\n        /* \"#utility.yul\":4767:4785   */\n      0x84\n      add\n        /* \"@openzeppelin/contracts/token/ERC20/utils/SafeERC20.sol\":1077:1145  abi.encodeWithSelector(token.transferFrom.selector, from, to, value) */\n      tag_117\n        /* \"#utility.yul\":4592:4963   */\n      jump\n        /* \"@openzeppelin/contracts/token/ERC20/utils/SafeERC20.sol\":1050:1146  _callOptionalReturn(token, abi.encodeWithSelector(token.transferFrom.selector, from, to, value)) */\n    tag_122:\n        /* \"@openzeppelin/contracts/token/ERC20/utils/SafeERC20.sol\":912:1153  function safeTransferFrom(... */\n      pop\n      pop\n      pop\n      pop\n      jump\t// out\n        /* \"@openzeppelin/contracts/token/ERC20/utils/SafeERC20.sol\":1413:2016  function safeApprove(... */\n    tag_99:\n        /* \"@openzeppelin/contracts/token/ERC20/utils/SafeERC20.sol\":1768:1778  value == 0 */\n      dup1\n      iszero\n      dup1\n        /* \"@openzeppelin/contracts/token/ERC20/utils/SafeERC20.sol\":1767:1829  (value == 0) || (token.allowance(address(this), spender) == 0) */\n      tag_126\n      jumpi\n      pop\n        /* \"@openzeppelin/contracts/token/ERC20/utils/SafeERC20.sol\":1784:1823  token.allowance(address(this), spender) */\n      mload(0x40)\n      shl(0xe1, 0x6eb1769f)\n      dup2\n      mstore\n        /* \"@openzeppelin/contracts/token/ERC20/utils/SafeERC20.sol\":1808:1812  this */\n      address\n        /* \"@openzeppelin/contracts/token/ERC20/utils/SafeERC20.sol\":1784:1823  token.allowance(address(this), spender) */\n      0x04\n      dup3\n      add\n        /* \"#utility.yul\":5142:5193   */\n      mstore\n      sub(shl(0xa0, 0x01), 0x01)\n        /* \"#utility.yul\":5229:5261   */\n      dup4\n      dup2\n      and\n        /* \"#utility.yul\":5209:5227   */\n      0x24\n      dup4\n      add\n        /* \"#utility.yul\":5202:5262   */\n      mstore\n        /* \"@openzeppelin/contracts/token/ERC20/utils/SafeERC20.sol\":1784:1799  token.allowance */\n      dup5\n      and\n      swap1\n      0xdd62ed3e\n      swap1\n        /* \"#utility.yul\":5115:5133   */\n      0x44\n      add\n        /* \"@openzeppelin/contracts/token/ERC20/utils/SafeERC20.sol\":1784:1823  token.allowance(address(this), spender) */\n      0x20\n      mload(0x40)\n      dup1\n      dup4\n      sub\n      dup2\n      dup7\n      gas\n      staticcall\n      iszero\n      dup1\n      iszero\n      tag_130\n      jumpi\n      returndatacopy(0x00, 0x00, returndatasize)\n      revert(0x00, returndatasize)\n    tag_130:\n      pop\n      pop\n      pop\n      pop\n      mload(0x40)\n      returndatasize\n      not(0x1f)\n      0x1f\n      dup3\n      add\n      and\n      dup3\n      add\n      dup1\n      0x40\n      mstore\n      pop\n      dup2\n      add\n      swap1\n      tag_131\n      swap2\n      swap1\n      tag_87\n      jump\t// in\n    tag_131:\n        /* \"@openzeppelin/contracts/token/ERC20/utils/SafeERC20.sol\":1784:1828  token.allowance(address(this), spender) == 0 */\n      iszero\n        /* \"@openzeppelin/contracts/token/ERC20/utils/SafeERC20.sol\":1767:1829  (value == 0) || (token.allowance(address(this), spender) == 0) */\n    tag_126:\n        /* \"@openzeppelin/contracts/token/ERC20/utils/SafeERC20.sol\":1746:1909  require(... */\n      tag_132\n      jumpi\n      mload(0x40)\n      shl(0xe5, 0x461bcd)\n      dup2\n      mstore\n        /* \"#utility.yul\":5475:5477   */\n      0x20\n        /* \"@openzeppelin/contracts/token/ERC20/utils/SafeERC20.sol\":1746:1909  require(... */\n      0x04\n      dup3\n      add\n        /* \"#utility.yul\":5457:5478   */\n      mstore\n        /* \"#utility.yul\":5514:5516   */\n      0x36\n        /* \"#utility.yul\":5494:5512   */\n      0x24\n      dup3\n      add\n        /* \"#utility.yul\":5487:5517   */\n      mstore\n        /* \"#utility.yul\":5553:5587   */\n      0x5361666545524332303a20617070726f76652066726f6d206e6f6e2d7a65726f\n        /* \"#utility.yul\":5533:5551   */\n      0x44\n      dup3\n      add\n        /* \"#utility.yul\":5526:5588   */\n      mstore\n      shl(0x50, 0x20746f206e6f6e2d7a65726f20616c6c6f77616e6365)\n        /* \"#utility.yul\":5604:5622   */\n      0x64\n      dup3\n      add\n        /* \"#utility.yul\":5597:5649   */\n      mstore\n        /* \"#utility.yul\":5666:5685   */\n      0x84\n      add\n        /* \"@openzeppelin/contracts/token/ERC20/utils/SafeERC20.sol\":1746:1909  require(... */\n      tag_57\n        /* \"#utility.yul\":5273:5691   */\n      jump\n        /* \"@openzeppelin/contracts/token/ERC20/utils/SafeERC20.sol\":1746:1909  require(... */\n    tag_132:\n        /* \"@openzeppelin/contracts/token/ERC20/utils/SafeERC20.sol\":1946:2008  abi.encodeWithSelector(token.approve.selector, spender, value) */\n      mload(0x40)\n      sub(shl(0xa0, 0x01), 0x01)\n        /* \"#utility.yul\":2934:2966   */\n      dup4\n      and\n        /* \"@openzeppelin/contracts/token/ERC20/utils/SafeERC20.sol\":1946:2008  abi.encodeWithSelector(token.approve.selector, spender, value) */\n      0x24\n      dup3\n      add\n        /* \"#utility.yul\":2916:2967   */\n      mstore\n        /* \"#utility.yul\":2983:3001   */\n      0x44\n      dup2\n      add\n        /* \"#utility.yul\":2976:3010   */\n      dup3\n      swap1\n      mstore\n        /* \"@openzeppelin/contracts/token/ERC20/utils/SafeERC20.sol\":1919:2009  _callOptionalReturn(token, abi.encodeWithSelector(token.approve.selector, spender, value)) */\n      tag_116\n      swap1\n        /* \"@openzeppelin/contracts/token/ERC20/utils/SafeERC20.sol\":1939:1944  token */\n      dup5\n      swap1\n      shl(0xe0, 0x095ea7b3)\n        /* \"@openzeppelin/contracts/token/ERC20/utils/SafeERC20.sol\":1969:1991  token.approve.selector */\n      swap1\n        /* \"#utility.yul\":2889:2907   */\n      0x64\n      add\n        /* \"@openzeppelin/contracts/token/ERC20/utils/SafeERC20.sol\":1946:2008  abi.encodeWithSelector(token.approve.selector, spender, value) */\n      tag_117\n        /* \"#utility.yul\":2742:3016   */\n      jump\n        /* \"@openzeppelin/contracts/token/ERC20/utils/SafeERC20.sol\":3207:3913  function _callOptionalReturn(IERC20 token, bytes memory data) private {... */\n    tag_118:\n        /* \"@openzeppelin/contracts/token/ERC20/utils/SafeERC20.sol\":3626:3649  bytes memory returndata */\n      0x00\n        /* \"@openzeppelin/contracts/token/ERC20/utils/SafeERC20.sol\":3652:3721  address(token).functionCall(data, \"SafeERC20: low-level call failed\") */\n      tag_138\n        /* \"@openzeppelin/contracts/token/ERC20/utils/SafeERC20.sol\":3680:3684  data */\n      dup3\n        /* \"@openzeppelin/contracts/token/ERC20/utils/SafeERC20.sol\":3652:3721  address(token).functionCall(data, \"SafeERC20: low-level call failed\") */\n      mload(0x40)\n      dup1\n      0x40\n      add\n      0x40\n      mstore\n      dup1\n      0x20\n      dup2\n      mstore\n      0x20\n      add\n      0x5361666545524332303a206c6f772d6c6576656c2063616c6c206661696c6564\n      dup2\n      mstore\n      pop\n        /* \"@openzeppelin/contracts/token/ERC20/utils/SafeERC20.sol\":3660:3665  token */\n      dup6\n      sub(shl(0xa0, 0x01), 0x01)\n        /* \"@openzeppelin/contracts/token/ERC20/utils/SafeERC20.sol\":3652:3679  address(token).functionCall */\n      and\n      tag_139\n      swap1\n        /* \"@openzeppelin/contracts/token/ERC20/utils/SafeERC20.sol\":3652:3721  address(token).functionCall(data, \"SafeERC20: low-level call failed\") */\n      swap3\n      swap2\n      swap1\n      0xffffffff\n      and\n      jump\t// in\n    tag_138:\n        /* \"@openzeppelin/contracts/token/ERC20/utils/SafeERC20.sol\":3735:3752  returndata.length */\n      dup1\n      mload\n        /* \"@openzeppelin/contracts/token/ERC20/utils/SafeERC20.sol\":3626:3721  bytes memory returndata = address(token).functionCall(data, \"SafeERC20: low-level call failed\") */\n      swap1\n      swap2\n      pop\n        /* \"@openzeppelin/contracts/token/ERC20/utils/SafeERC20.sol\":3735:3756  returndata.length > 0 */\n      iszero\n        /* \"@openzeppelin/contracts/token/ERC20/utils/SafeERC20.sol\":3731:3907  if (returndata.length > 0) {... */\n      tag_116\n      jumpi\n        /* \"@openzeppelin/contracts/token/ERC20/utils/SafeERC20.sol\":3830:3840  returndata */\n      dup1\n        /* \"@openzeppelin/contracts/token/ERC20/utils/SafeERC20.sol\":3819:3849  abi.decode(returndata, (bool)) */\n      dup1\n      0x20\n      add\n      swap1\n      mload\n      dup2\n      add\n      swap1\n      tag_141\n      swap2\n      swap1\n      tag_142\n      jump\t// in\n    tag_141:\n        /* \"@openzeppelin/contracts/token/ERC20/utils/SafeERC20.sol\":3811:3896  require(abi.decode(returndata, (bool)), \"SafeERC20: ERC20 operation did not succeed\") */\n      tag_116\n      jumpi\n      mload(0x40)\n      shl(0xe5, 0x461bcd)\n      dup2\n      mstore\n        /* \"#utility.yul\":6180:6182   */\n      0x20\n        /* \"@openzeppelin/contracts/token/ERC20/utils/SafeERC20.sol\":3811:3896  require(abi.decode(returndata, (bool)), \"SafeERC20: ERC20 operation did not succeed\") */\n      0x04\n      dup3\n      add\n        /* \"#utility.yul\":6162:6183   */\n      mstore\n        /* \"#utility.yul\":6219:6221   */\n      0x2a\n        /* \"#utility.yul\":6199:6217   */\n      0x24\n      dup3\n      add\n        /* \"#utility.yul\":6192:6222   */\n      mstore\n        /* \"#utility.yul\":6258:6292   */\n      0x5361666545524332303a204552433230206f7065726174696f6e20646964206e\n        /* \"#utility.yul\":6238:6256   */\n      0x44\n      dup3\n      add\n        /* \"#utility.yul\":6231:6293   */\n      mstore\n      shl(0xb2, 0x1bdd081cdd58d8d95959)\n        /* \"#utility.yul\":6309:6327   */\n      0x64\n      dup3\n      add\n        /* \"#utility.yul\":6302:6342   */\n      mstore\n        /* \"#utility.yul\":6359:6378   */\n      0x84\n      add\n        /* \"@openzeppelin/contracts/token/ERC20/utils/SafeERC20.sol\":3811:3896  require(abi.decode(returndata, (bool)), \"SafeERC20: ERC20 operation did not succeed\") */\n      tag_57\n        /* \"#utility.yul\":5978:6384   */\n      jump\n        /* \"@openzeppelin/contracts/utils/Address.sol\":3861:4084  function functionCall(... */\n    tag_139:\n        /* \"@openzeppelin/contracts/utils/Address.sol\":3994:4006  bytes memory */\n      0x60\n        /* \"@openzeppelin/contracts/utils/Address.sol\":4025:4077  functionCallWithValue(target, data, 0, errorMessage) */\n      tag_147\n        /* \"@openzeppelin/contracts/utils/Address.sol\":4047:4053  target */\n      dup5\n        /* \"@openzeppelin/contracts/utils/Address.sol\":4055:4059  data */\n      dup5\n        /* \"@openzeppelin/contracts/utils/Address.sol\":4061:4062  0 */\n      0x00\n        /* \"@openzeppelin/contracts/utils/Address.sol\":4064:4076  errorMessage */\n      dup6\n        /* \"@openzeppelin/contracts/utils/Address.sol\":4025:4046  functionCallWithValue */\n      tag_148\n        /* \"@openzeppelin/contracts/utils/Address.sol\":4025:4077  functionCallWithValue(target, data, 0, errorMessage) */\n      jump\t// in\n    tag_147:\n        /* \"@openzeppelin/contracts/utils/Address.sol\":4018:4077  return functionCallWithValue(target, data, 0, errorMessage) */\n      swap1\n      pop\n        /* \"@openzeppelin/contracts/utils/Address.sol\":3861:4084  function functionCall(... */\n    tag_146:\n      swap4\n      swap3\n      pop\n      pop\n      pop\n      jump\t// out\n        /* \"@openzeppelin/contracts/utils/Address.sol\":4948:5447  function functionCallWithValue(... */\n    tag_148:\n        /* \"@openzeppelin/contracts/utils/Address.sol\":5113:5125  bytes memory */\n      0x60\n        /* \"@openzeppelin/contracts/utils/Address.sol\":5170:5175  value */\n      dup3\n        /* \"@openzeppelin/contracts/utils/Address.sol\":5145:5166  address(this).balance */\n      selfbalance\n        /* \"@openzeppelin/contracts/utils/Address.sol\":5145:5175  address(this).balance >= value */\n      lt\n      iszero\n        /* \"@openzeppelin/contracts/utils/Address.sol\":5137:5218  require(address(this).balance >= value, \"Address: insufficient balance for call\") */\n      tag_150\n      jumpi\n      mload(0x40)\n      shl(0xe5, 0x461bcd)\n      dup2\n      mstore\n        /* \"#utility.yul\":6591:6593   */\n      0x20\n        /* \"@openzeppelin/contracts/utils/Address.sol\":5137:5218  require(address(this).balance >= value, \"Address: insufficient balance for call\") */\n      0x04\n      dup3\n      add\n        /* \"#utility.yul\":6573:6594   */\n      mstore\n        /* \"#utility.yul\":6630:6632   */\n      0x26\n        /* \"#utility.yul\":6610:6628   */\n      0x24\n      dup3\n      add\n        /* \"#utility.yul\":6603:6633   */\n      mstore\n        /* \"#utility.yul\":6669:6703   */\n      0x416464726573733a20696e73756666696369656e742062616c616e636520666f\n        /* \"#utility.yul\":6649:6667   */\n      0x44\n      dup3\n      add\n        /* \"#utility.yul\":6642:6704   */\n      mstore\n      shl(0xd2, 0x1c8818d85b1b)\n        /* \"#utility.yul\":6720:6738   */\n      0x64\n      dup3\n      add\n        /* \"#utility.yul\":6713:6749   */\n      mstore\n        /* \"#utility.yul\":6766:6785   */\n      0x84\n      add\n        /* \"@openzeppelin/contracts/utils/Address.sol\":5137:5218  require(address(this).balance >= value, \"Address: insufficient balance for call\") */\n      tag_57\n        /* \"#utility.yul\":6389:6791   */\n      jump\n        /* \"@openzeppelin/contracts/utils/Address.sol\":5137:5218  require(address(this).balance >= value, \"Address: insufficient balance for call\") */\n    tag_150:\n      sub(shl(0xa0, 0x01), 0x01)\n        /* \"@openzeppelin/contracts/utils/Address.sol\":1465:1484  account.code.length */\n      dup6\n      and\n      extcodesize\n        /* \"@openzeppelin/contracts/utils/Address.sol\":5228:5288  require(isContract(target), \"Address: call to non-contract\") */\n      tag_155\n      jumpi\n      mload(0x40)\n      shl(0xe5, 0x461bcd)\n      dup2\n      mstore\n        /* \"#utility.yul\":6998:7000   */\n      0x20\n        /* \"@openzeppelin/contracts/utils/Address.sol\":5228:5288  require(isContract(target), \"Address: call to non-contract\") */\n      0x04\n      dup3\n      add\n        /* \"#utility.yul\":6980:7001   */\n      mstore\n        /* \"#utility.yul\":7037:7039   */\n      0x1d\n        /* \"#utility.yul\":7017:7035   */\n      0x24\n      dup3\n      add\n        /* \"#utility.yul\":7010:7040   */\n      mstore\n        /* \"#utility.yul\":7076:7107   */\n      0x416464726573733a2063616c6c20746f206e6f6e2d636f6e7472616374000000\n        /* \"#utility.yul\":7056:7074   */\n      0x44\n      dup3\n      add\n        /* \"#utility.yul\":7049:7108   */\n      mstore\n        /* \"#utility.yul\":7125:7143   */\n      0x64\n      add\n        /* \"@openzeppelin/contracts/utils/Address.sol\":5228:5288  require(isContract(target), \"Address: call to non-contract\") */\n      tag_57\n        /* \"#utility.yul\":6796:7149   */\n      jump\n        /* \"@openzeppelin/contracts/utils/Address.sol\":5228:5288  require(isContract(target), \"Address: call to non-contract\") */\n    tag_155:\n        /* \"@openzeppelin/contracts/utils/Address.sol\":5300:5312  bool success */\n      0x00\n        /* \"@openzeppelin/contracts/utils/Address.sol\":5314:5337  bytes memory returndata */\n      0x00\n        /* \"@openzeppelin/contracts/utils/Address.sol\":5341:5347  target */\n      dup7\n      sub(shl(0xa0, 0x01), 0x01)\n        /* \"@openzeppelin/contracts/utils/Address.sol\":5341:5352  target.call */\n      and\n        /* \"@openzeppelin/contracts/utils/Address.sol\":5360:5365  value */\n      dup6\n        /* \"@openzeppelin/contracts/utils/Address.sol\":5367:5371  data */\n      dup8\n        /* \"@openzeppelin/contracts/utils/Address.sol\":5341:5372  target.call{value: value}(data) */\n      mload(0x40)\n      tag_158\n      swap2\n      swap1\n      tag_159\n      jump\t// in\n    tag_158:\n      0x00\n      mload(0x40)\n      dup1\n      dup4\n      sub\n      dup2\n      dup6\n      dup8\n      gas\n      call\n      swap3\n      pop\n      pop\n      pop\n      returndatasize\n      dup1\n      0x00\n      dup2\n      eq\n      tag_162\n      jumpi\n      mload(0x40)\n      swap2\n      pop\n      and(add(returndatasize, 0x3f), not(0x1f))\n      dup3\n      add\n      0x40\n      mstore\n      returndatasize\n      dup3\n      mstore\n      returndatasize\n      0x00\n      0x20\n      dup5\n      add\n      returndatacopy\n      jump(tag_161)\n    tag_162:\n      0x60\n      swap2\n      pop\n    tag_161:\n      pop\n        /* \"@openzeppelin/contracts/utils/Address.sol\":5299:5372  (bool success, bytes memory returndata) = target.call{value: value}(data) */\n      swap2\n      pop\n      swap2\n      pop\n        /* \"@openzeppelin/contracts/utils/Address.sol\":5389:5440  verifyCallResult(success, returndata, errorMessage) */\n      tag_163\n        /* \"@openzeppelin/contracts/utils/Address.sol\":5406:5413  success */\n      dup3\n        /* \"@openzeppelin/contracts/utils/Address.sol\":5415:5425  returndata */\n      dup3\n        /* \"@openzeppelin/contracts/utils/Address.sol\":5427:5439  errorMessage */\n      dup7\n        /* \"@openzeppelin/contracts/utils/Address.sol\":5389:5405  verifyCallResult */\n      tag_164\n        /* \"@openzeppelin/contracts/utils/Address.sol\":5389:5440  verifyCallResult(success, returndata, errorMessage) */\n      jump\t// in\n    tag_163:\n        /* \"@openzeppelin/contracts/utils/Address.sol\":5382:5440  return verifyCallResult(success, returndata, errorMessage) */\n      swap8\n        /* \"@openzeppelin/contracts/utils/Address.sol\":4948:5447  function functionCallWithValue(... */\n      swap7\n      pop\n      pop\n      pop\n      pop\n      pop\n      pop\n      pop\n      jump\t// out\n        /* \"@openzeppelin/contracts/utils/Address.sol\":7561:8253  function verifyCallResult(... */\n    tag_164:\n        /* \"@openzeppelin/contracts/utils/Address.sol\":7707:7719  bytes memory */\n      0x60\n        /* \"@openzeppelin/contracts/utils/Address.sol\":7735:7742  success */\n      dup4\n        /* \"@openzeppelin/contracts/utils/Address.sol\":7731:8247  if (success) {... */\n      iszero\n      tag_167\n      jumpi\n      pop\n        /* \"@openzeppelin/contracts/utils/Address.sol\":7765:7775  returndata */\n      dup2\n        /* \"@openzeppelin/contracts/utils/Address.sol\":7758:7775  return returndata */\n      jump(tag_146)\n        /* \"@openzeppelin/contracts/utils/Address.sol\":7731:8247  if (success) {... */\n    tag_167:\n        /* \"@openzeppelin/contracts/utils/Address.sol\":7876:7893  returndata.length */\n      dup3\n      mload\n        /* \"@openzeppelin/contracts/utils/Address.sol\":7876:7897  returndata.length > 0 */\n      iszero\n        /* \"@openzeppelin/contracts/utils/Address.sol\":7872:8237  if (returndata.length > 0) {... */\n      tag_169\n      jumpi\n        /* \"@openzeppelin/contracts/utils/Address.sol\":8070:8080  returndata */\n      dup3\n        /* \"@openzeppelin/contracts/utils/Address.sol\":8064:8081  mload(returndata) */\n      mload\n        /* \"@openzeppelin/contracts/utils/Address.sol\":8130:8145  returndata_size */\n      dup1\n        /* \"@openzeppelin/contracts/utils/Address.sol\":8117:8127  returndata */\n      dup5\n        /* \"@openzeppelin/contracts/utils/Address.sol\":8113:8115  32 */\n      0x20\n        /* \"@openzeppelin/contracts/utils/Address.sol\":8109:8128  add(32, returndata) */\n      add\n        /* \"@openzeppelin/contracts/utils/Address.sol\":8102:8146  revert(add(32, returndata), returndata_size) */\n      revert\n        /* \"@openzeppelin/contracts/utils/Address.sol\":7872:8237  if (returndata.length > 0) {... */\n    tag_169:\n        /* \"@openzeppelin/contracts/utils/Address.sol\":8209:8221  errorMessage */\n      dup2\n        /* \"@openzeppelin/contracts/utils/Address.sol\":8202:8222  revert(errorMessage) */\n      mload(0x40)\n      shl(0xe5, 0x461bcd)\n      dup2\n      mstore\n      0x04\n      add\n      tag_57\n      swap2\n      swap1\n      tag_172\n      jump\t// in\n        /* \"#utility.yul\":14:194   */\n    tag_16:\n        /* \"#utility.yul\":73:79   */\n      0x00\n        /* \"#utility.yul\":126:128   */\n      0x20\n        /* \"#utility.yul\":114:123   */\n      dup3\n        /* \"#utility.yul\":105:112   */\n      dup5\n        /* \"#utility.yul\":101:124   */\n      sub\n        /* \"#utility.yul\":97:129   */\n      slt\n        /* \"#utility.yul\":94:146   */\n      iszero\n      tag_175\n      jumpi\n        /* \"#utility.yul\":142:143   */\n      0x00\n        /* \"#utility.yul\":139:140   */\n      0x00\n        /* \"#utility.yul\":132:144   */\n      revert\n        /* \"#utility.yul\":94:146   */\n    tag_175:\n      pop\n        /* \"#utility.yul\":165:188   */\n      calldataload\n      swap2\n        /* \"#utility.yul\":14:194   */\n      swap1\n      pop\n      jump\t// out\n        /* \"#utility.yul\":1453:1739   */\n    tag_48:\n        /* \"#utility.yul\":1512:1518   */\n      0x00\n        /* \"#utility.yul\":1565:1567   */\n      0x20\n        /* \"#utility.yul\":1553:1562   */\n      dup3\n        /* \"#utility.yul\":1544:1551   */\n      dup5\n        /* \"#utility.yul\":1540:1563   */\n      sub\n        /* \"#utility.yul\":1536:1568   */\n      slt\n        /* \"#utility.yul\":1533:1585   */\n      iszero\n      tag_183\n      jumpi\n        /* \"#utility.yul\":1581:1582   */\n      0x00\n        /* \"#utility.yul\":1578:1579   */\n      0x00\n        /* \"#utility.yul\":1571:1583   */\n      revert\n        /* \"#utility.yul\":1533:1585   */\n    tag_183:\n        /* \"#utility.yul\":1607:1630   */\n      dup2\n      calldataload\n      sub(shl(0xa0, 0x01), 0x01)\n        /* \"#utility.yul\":1659:1690   */\n      dup2\n      and\n        /* \"#utility.yul\":1649:1691   */\n      dup2\n      eq\n        /* \"#utility.yul\":1639:1709   */\n      tag_146\n      jumpi\n        /* \"#utility.yul\":1705:1706   */\n      0x00\n        /* \"#utility.yul\":1702:1703   */\n      0x00\n        /* \"#utility.yul\":1695:1707   */\n      revert\n        /* \"#utility.yul\":3635:3819   */\n    tag_87:\n        /* \"#utility.yul\":3705:3711   */\n      0x00\n        /* \"#utility.yul\":3758:3760   */\n      0x20\n        /* \"#utility.yul\":3746:3755   */\n      dup3\n        /* \"#utility.yul\":3737:3744   */\n      dup5\n        /* \"#utility.yul\":3733:3756   */\n      sub\n        /* \"#utility.yul\":3729:3761   */\n      slt\n        /* \"#utility.yul\":3726:3778   */\n      iszero\n      tag_192\n      jumpi\n        /* \"#utility.yul\":3774:3775   */\n      0x00\n        /* \"#utility.yul\":3771:3772   */\n      0x00\n        /* \"#utility.yul\":3764:3776   */\n      revert\n        /* \"#utility.yul\":3726:3778   */\n    tag_192:\n      pop\n        /* \"#utility.yul\":3797:3813   */\n      mload\n      swap2\n        /* \"#utility.yul\":3635:3819   */\n      swap1\n      pop\n      jump\t// out\n        /* \"#utility.yul\":5696:5973   */\n    tag_142:\n        /* \"#utility.yul\":5763:5769   */\n      0x00\n        /* \"#utility.yul\":5816:5818   */\n      0x20\n        /* \"#utility.yul\":5804:5813   */\n      dup3\n        /* \"#utility.yul\":5795:5802   */\n      dup5\n        /* \"#utility.yul\":5791:5814   */\n      sub\n        /* \"#utility.yul\":5787:5819   */\n      slt\n        /* \"#utility.yul\":5784:5836   */\n      iszero\n      tag_199\n      jumpi\n        /* \"#utility.yul\":5832:5833   */\n      0x00\n        /* \"#utility.yul\":5829:5830   */\n      0x00\n        /* \"#utility.yul\":5822:5834   */\n      revert\n        /* \"#utility.yul\":5784:5836   */\n    tag_199:\n        /* \"#utility.yul\":5864:5873   */\n      dup2\n        /* \"#utility.yul\":5858:5874   */\n      mload\n        /* \"#utility.yul\":5917:5922   */\n      dup1\n        /* \"#utility.yul\":5910:5923   */\n      iszero\n        /* \"#utility.yul\":5903:5924   */\n      iszero\n        /* \"#utility.yul\":5896:5901   */\n      dup2\n        /* \"#utility.yul\":5893:5925   */\n      eq\n        /* \"#utility.yul\":5883:5943   */\n      tag_146\n      jumpi\n        /* \"#utility.yul\":5939:5940   */\n      0x00\n        /* \"#utility.yul\":5936:5937   */\n      0x00\n        /* \"#utility.yul\":5929:5941   */\n      revert\n        /* \"#utility.yul\":7154:7455   */\n    tag_159:\n        /* \"#utility.yul\":7283:7286   */\n      0x00\n        /* \"#utility.yul\":7321:7327   */\n      dup3\n        /* \"#utility.yul\":7315:7328   */\n      mload\n        /* \"#utility.yul\":7367:7373   */\n      dup1\n        /* \"#utility.yul\":7360:7364   */\n      0x20\n        /* \"#utility.yul\":7352:7358   */\n      dup6\n        /* \"#utility.yul\":7348:7365   */\n      add\n        /* \"#utility.yul\":7343:7346   */\n      dup5\n        /* \"#utility.yul\":7337:7374   */\n      mcopy\n        /* \"#utility.yul\":7429:7430   */\n      0x00\n        /* \"#utility.yul\":7393:7409   */\n      swap3\n      add\n        /* \"#utility.yul\":7418:7431   */\n      swap2\n      dup3\n      mstore\n      pop\n        /* \"#utility.yul\":7393:7409   */\n      swap2\n        /* \"#utility.yul\":7154:7455   */\n      swap1\n      pop\n      jump\t// out\n        /* \"#utility.yul\":7460:7878   */\n    tag_172:\n        /* \"#utility.yul\":7609:7611   */\n      0x20\n        /* \"#utility.yul\":7598:7607   */\n      dup2\n        /* \"#utility.yul\":7591:7612   */\n      mstore\n        /* \"#utility.yul\":7572:7576   */\n      0x00\n        /* \"#utility.yul\":7641:7647   */\n      dup3\n        /* \"#utility.yul\":7635:7648   */\n      mload\n        /* \"#utility.yul\":7684:7690   */\n      dup1\n        /* \"#utility.yul\":7679:7681   */\n      0x20\n        /* \"#utility.yul\":7668:7677   */\n      dup5\n        /* \"#utility.yul\":7664:7682   */\n      add\n        /* \"#utility.yul\":7657:7691   */\n      mstore\n        /* \"#utility.yul\":7743:7749   */\n      dup1\n        /* \"#utility.yul\":7738:7740   */\n      0x20\n        /* \"#utility.yul\":7730:7736   */\n      dup6\n        /* \"#utility.yul\":7726:7741   */\n      add\n        /* \"#utility.yul\":7721:7723   */\n      0x40\n        /* \"#utility.yul\":7710:7719   */\n      dup6\n        /* \"#utility.yul\":7706:7724   */\n      add\n        /* \"#utility.yul\":7700:7750   */\n      mcopy\n        /* \"#utility.yul\":7799:7800   */\n      0x00\n        /* \"#utility.yul\":7794:7796   */\n      0x40\n        /* \"#utility.yul\":7785:7791   */\n      dup3\n        /* \"#utility.yul\":7774:7783   */\n      dup6\n        /* \"#utility.yul\":7770:7792   */\n      add\n        /* \"#utility.yul\":7766:7797   */\n      add\n        /* \"#utility.yul\":7759:7801   */\n      mstore\n        /* \"#utility.yul\":7869:7871   */\n      0x40\n        /* \"#utility.yul\":7862:7864   */\n      0x1f\n        /* \"#utility.yul\":7858:7865   */\n      not\n        /* \"#utility.yul\":7853:7855   */\n      0x1f\n        /* \"#utility.yul\":7845:7851   */\n      dup4\n        /* \"#utility.yul\":7841:7856   */\n      add\n        /* \"#utility.yul\":7837:7866   */\n      and\n        /* \"#utility.yul\":7826:7835   */\n      dup5\n        /* \"#utility.yul\":7822:7867   */\n      add\n        /* \"#utility.yul\":7818:7872   */\n      add\n        /* \"#utility.yul\":7810:7872   */\n      swap2\n      pop\n      pop\n        /* \"#utility.yul\":7460:7878   */\n      swap3\n      swap2\n      pop\n      pop\n      jump\t// out\n\n    auxdata: 0xa2646970667358221220734905556dc60f0ec2eef996fa6c99c0c6c1d272fc8deaf82632cba51dab9ecd64736f6c634300081e0033\n}\n",
				"bytecode": {
					"linkReferences": {},
					"object": "60c060405234801561000f575f5ffd5b50604051610f3f380380610f3f83398101604081905261002e916101e7565b6100373361017d565b6001600160a01b0384166100925760405162461bcd60e51b815260206004820152601460248201527f496e76616c69642057455448206164647265737300000000000000000000000060448201526064015b60405180910390fd5b6001600160a01b0383166100e85760405162461bcd60e51b815260206004820152601560248201527f496e76616c6964205661756c74206164647265737300000000000000000000006044820152606401610089565b6001600160a01b03821661013e5760405162461bcd60e51b815260206004820152601960248201527f496e76616c6964205072697a65506f6f6c2061646472657373000000000000006044820152606401610089565b6001600160a01b0393841660a052600180549385166001600160a01b031994851617905560028054928516929093169190911790915516608052610238565b5f80546001600160a01b038381166001600160a01b0319831681178455604051919092169283917f8be0079c531659141344cd1fd0a4f28419497f9722a3daafe3b4186f6b6457e09190a35050565b80516001600160a01b03811681146101e2575f5ffd5b919050565b5f5f5f5f608085870312156101fa575f5ffd5b610203856101cc565b9350610211602086016101cc565b925061021f604086016101cc565b915061022d606086016101cc565b905092959194509250565b60805160a051610ca86102975f395f818160cc0152818161029b0152818161032e015281816105430152818161057801526105d601525f8181610161015281816102ca015281816104150152818161059a01526106050152610ca85ff3fe608060405234801561000f575f5ffd5b506004361061009b575f3560e01c80638da5cb5b116100635780638da5cb5b14610139578063b6b55f2514610149578063ba3e9c121461015c578063f2fde38b14610183578063fbfa77cf14610196575f5ffd5b80632e1a7d4d1461009f5780633fc8cef3146100c7578063715018a614610106578063719ce73e14610110578063722713f714610123575b5f5ffd5b6100b26100ad366004610bb4565b6101a9565b60405190151581526020015b60405180910390f35b6100ee7f000000000000000000000000000000000000000000000000000000000000000081565b6040516001600160a01b0390911681526020016100be565b61010e61039a565b005b6002546100ee906001600160a01b031681565b61012b6103fe565b6040519081526020016100be565b5f546001600160a01b03166100ee565b6100b2610157366004610bb4565b61048b565b6100ee7f000000000000000000000000000000000000000000000000000000000000000081565b61010e610191366004610bcb565b610693565b6001546100ee906001600160a01b031681565b6002545f906001600160a01b03163314806101ce57506001546001600160a01b031633145b6102355760405162461bcd60e51b815260206004820152602d60248201527f43616c6c6572206973206e6f7420746865205072697a65506f6f6c206f72205660448201526c185d5b1d0818dbdb9d1c9858dd609a1b60648201526084015b60405180910390fd5b5f82116102845760405162461bcd60e51b815260206004820181905260248201527f416d6f756e74206d7573742062652067726561746572207468616e207a65726f604482015260640161022c565b60405163f3fef3a360e01b81526001600160a01b037f000000000000000000000000000000000000000000000000000000000000000081166004830152602482018490527f0000000000000000000000000000000000000000000000000000000000000000169063f3fef3a3906044015f604051808303815f87803b15801561030b575f5ffd5b505af115801561031d573d5f5f3e3d5ffd5b506103579250506001600160a01b037f0000000000000000000000000000000000000000000000000000000000000000169050338461075d565b6040805183815242602082015233917f92ccf450a286a957af52509bc1c9939d1a6a481783e142e41e2499f0bb66ebc691015b60405180910390a2506001919050565b5f546001600160a01b031633146103f35760405162461bcd60e51b815260206004820181905260248201527f4f776e61626c653a2063616c6c6572206973206e6f7420746865206f776e6572604482015260640161022c565b6103fc5f6107c5565b565b6040516370a0823160e01b81523060048201525f907f00000000000000000000000000000000000000000000000000000000000000006001600160a01b0316906370a0823190602401602060405180830381865afa158015610462573d5f5f3e3d5ffd5b505050506040513d601f19601f820116820180604052508101906104869190610bf1565b905090565b6001545f906001600160a01b031633146104e75760405162461bcd60e51b815260206004820181905260248201527f43616c6c6572206973206e6f7420746865205661756c7420636f6e7472616374604482015260640161022c565b5f82116105365760405162461bcd60e51b815260206004820181905260248201527f416d6f756e74206d7573742062652067726561746572207468616e207a65726f604482015260640161022c565b61056b6001600160a01b037f000000000000000000000000000000000000000000000000000000000000000016333085610814565b6105bf6001600160a01b037f0000000000000000000000000000000000000000000000000000000000000000167f000000000000000000000000000000000000000000000000000000000000000084610852565b604051631e573fb760e31b81526001600160a01b037f000000000000000000000000000000000000000000000000000000000000000081166004830152602482018490527f0000000000000000000000000000000000000000000000000000000000000000169063f2b9fdb8906044015f604051808303815f87803b158015610646575f5ffd5b505af1158015610658573d5f5f3e3d5ffd5b5050604080518581524260208201523393507f73a19dd210f1a7f902193214c0ee91dd35ee5b4d920cba8d519eca65a7b488ca92500161038a565b5f546001600160a01b031633146106ec5760405162461bcd60e51b815260206004820181905260248201527f4f776e61626c653a2063616c6c6572206973206e6f7420746865206f776e6572604482015260640161022c565b6001600160a01b0381166107515760405162461bcd60e51b815260206004820152602660248201527f4f776e61626c653a206e6577206f776e657220697320746865207a65726f206160448201526564647265737360d01b606482015260840161022c565b61075a816107c5565b50565b6040516001600160a01b0383166024820152604481018290526107c090849063a9059cbb60e01b906064015b60408051601f198184030181529190526020810180516001600160e01b03166001600160e01b031990931692909217909152610965565b505050565b5f80546001600160a01b038381166001600160a01b0319831681178455604051919092169283917f8be0079c531659141344cd1fd0a4f28419497f9722a3daafe3b4186f6b6457e09190a35050565b6040516001600160a01b038085166024830152831660448201526064810182905261084c9085906323b872dd60e01b90608401610789565b50505050565b8015806108ca5750604051636eb1769f60e11b81523060048201526001600160a01b03838116602483015284169063dd62ed3e90604401602060405180830381865afa1580156108a4573d5f5f3e3d5ffd5b505050506040513d601f19601f820116820180604052508101906108c89190610bf1565b155b6109355760405162461bcd60e51b815260206004820152603660248201527f5361666545524332303a20617070726f76652066726f6d206e6f6e2d7a65726f60448201527520746f206e6f6e2d7a65726f20616c6c6f77616e636560501b606482015260840161022c565b6040516001600160a01b0383166024820152604481018290526107c090849063095ea7b360e01b90606401610789565b5f6109b9826040518060400160405280602081526020017f5361666545524332303a206c6f772d6c6576656c2063616c6c206661696c6564815250856001600160a01b0316610a369092919063ffffffff16565b8051909150156107c057808060200190518101906109d79190610c08565b6107c05760405162461bcd60e51b815260206004820152602a60248201527f5361666545524332303a204552433230206f7065726174696f6e20646964206e6044820152691bdd081cdd58d8d9595960b21b606482015260840161022c565b6060610a4484845f85610a4e565b90505b9392505050565b606082471015610aaf5760405162461bcd60e51b815260206004820152602660248201527f416464726573733a20696e73756666696369656e742062616c616e636520666f6044820152651c8818d85b1b60d21b606482015260840161022c565b6001600160a01b0385163b610b065760405162461bcd60e51b815260206004820152601d60248201527f416464726573733a2063616c6c20746f206e6f6e2d636f6e7472616374000000604482015260640161022c565b5f5f866001600160a01b03168587604051610b219190610c27565b5f6040518083038185875af1925050503d805f8114610b5b576040519150601f19603f3d011682016040523d82523d5f602084013e610b60565b606091505b5091509150610b70828286610b7b565b979650505050505050565b60608315610b8a575081610a47565b825115610b9a5782518084602001fd5b8160405162461bcd60e51b815260040161022c9190610c3d565b5f60208284031215610bc4575f5ffd5b5035919050565b5f60208284031215610bdb575f5ffd5b81356001600160a01b0381168114610a47575f5ffd5b5f60208284031215610c01575f5ffd5b5051919050565b5f60208284031215610c18575f5ffd5b81518015158114610a47575f5ffd5b5f82518060208501845e5f920191825250919050565b602081525f82518060208401528060208501604085015e5f604082850101526040601f19601f8301168401019150509291505056fea2646970667358221220734905556dc60f0ec2eef996fa6c99c0c6c1d272fc8deaf82632cba51dab9ecd64736f6c634300081e0033",
					"opcodes": "PUSH1 0xC0 PUSH1 0x40 MSTORE CALLVALUE DUP1 ISZERO PUSH2 0xF JUMPI PUSH0 PUSH0 REVERT JUMPDEST POP PUSH1 0x40 MLOAD PUSH2 0xF3F CODESIZE SUB DUP1 PUSH2 0xF3F DUP4 CODECOPY DUP2 ADD PUSH1 0x40 DUP2 SWAP1 MSTORE PUSH2 0x2E SWAP2 PUSH2 0x1E7 JUMP JUMPDEST PUSH2 0x37 CALLER PUSH2 0x17D JUMP JUMPDEST PUSH1 0x1 PUSH1 0x1 PUSH1 0xA0 SHL SUB DUP5 AND PUSH2 0x92 JUMPI PUSH1 0x40 MLOAD PUSH3 0x461BCD PUSH1 0xE5 SHL DUP2 MSTORE PUSH1 0x20 PUSH1 0x4 DUP3 ADD MSTORE PUSH1 0x14 PUSH1 0x24 DUP3 ADD MSTORE PUSH32 0x496E76616C696420574554482061646472657373000000000000000000000000 PUSH1 0x44 DUP3 ADD MSTORE PUSH1 0x64 ADD JUMPDEST PUSH1 0x40 MLOAD DUP1 SWAP2 SUB SWAP1 REVERT JUMPDEST PUSH1 0x1 PUSH1 0x1 PUSH1 0xA0 SHL SUB DUP4 AND PUSH2 0xE8 JUMPI PUSH1 0x40 MLOAD PUSH3 0x461BCD PUSH1 0xE5 SHL DUP2 MSTORE PUSH1 0x20 PUSH1 0x4 DUP3 ADD MSTORE PUSH1 0x15 PUSH1 0x24 DUP3 ADD MSTORE PUSH32 0x496E76616C6964205661756C7420616464726573730000000000000000000000 PUSH1 0x44 DUP3 ADD MSTORE PUSH1 0x64 ADD PUSH2 0x89 JUMP JUMPDEST PUSH1 0x1 PUSH1 0x1 PUSH1 0xA0 SHL SUB DUP3 AND PUSH2 0x13E JUMPI PUSH1 0x40 MLOAD PUSH3 0x461BCD PUSH1 0xE5 SHL DUP2 MSTORE PUSH1 0x20 PUSH1 0x4 DUP3 ADD MSTORE PUSH1 0x19 PUSH1 0x24 DUP3 ADD MSTORE PUSH32 0x496E76616C6964205072697A65506F6F6C206164647265737300000000000000 PUSH1 0x44 DUP3 ADD MSTORE PUSH1 0x64 ADD PUSH2 0x89 JUMP JUMPDEST PUSH1 0x1 PUSH1 0x1 PUSH1 0xA0 SHL SUB SWAP4 DUP5 AND PUSH1 0xA0 MSTORE PUSH1 0x1 DUP1 SLOAD SWAP4 DUP6 AND PUSH1 0x1 PUSH1 0x1 PUSH1 0xA0 SHL SUB NOT SWAP5 DUP6 AND OR SWAP1 SSTORE PUSH1 0x2 DUP1 SLOAD SWAP3 DUP6 AND SWAP3 SWAP1 SWAP4 AND SWAP2 SWAP1 SWAP2 OR SWAP1 SWAP2 SSTORE AND PUSH1 0x80 MSTORE PUSH2 0x238 JUMP JUMPDEST PUSH0 DUP1 SLOAD PUSH1 0x1 PUSH1 0x1 PUSH1 0xA0 SHL SUB DUP4 DUP2 AND PUSH1 0x1 PUSH1 0x1 PUSH1 0xA0 SHL SUB NOT DUP4 AND DUP2 OR DUP5 SSTORE PUSH1 0x40 MLOAD SWAP2 SWAP1 SWAP3 AND SWAP3 DUP4 SWAP2 PUSH32 0x8BE0079C531659141344CD1FD0A4F28419497F9722A3DAAFE3B4186F6B6457E0 SWAP2 SWAP1 LOG3 POP POP JUMP JUMPDEST DUP1 MLOAD PUSH1 0x1 PUSH1 0x1 PUSH1 0xA0 SHL SUB DUP2 AND DUP2 EQ PUSH2 0x1E2 JUMPI PUSH0 PUSH0 REVERT JUMPDEST SWAP2 SWAP1 POP JUMP JUMPDEST PUSH0 PUSH0 PUSH0 PUSH0 PUSH1 0x80 DUP6 DUP8 SUB SLT ISZERO PUSH2 0x1FA JUMPI PUSH0 PUSH0 REVERT JUMPDEST PUSH2 0x203 DUP6 PUSH2 0x1CC JUMP JUMPDEST SWAP4 POP PUSH2 0x211 PUSH1 0x20 DUP7 ADD PUSH2 0x1CC JUMP JUMPDEST SWAP3 POP PUSH2 0x21F PUSH1 0x40 DUP7 ADD PUSH2 0x1CC JUMP JUMPDEST SWAP2 POP PUSH2 0x22D PUSH1 0x60 DUP7 ADD PUSH2 0x1CC JUMP JUMPDEST SWAP1 POP SWAP3 SWAP6 SWAP2 SWAP5 POP SWAP3 POP JUMP JUMPDEST PUSH1 0x80 MLOAD PUSH1 0xA0 MLOAD PUSH2 0xCA8 PUSH2 0x297 PUSH0 CODECOPY PUSH0 DUP2 DUP2 PUSH1 0xCC ADD MSTORE DUP2 DUP2 PUSH2 0x29B ADD MSTORE DUP2 DUP2 PUSH2 0x32E ADD MSTORE DUP2 DUP2 PUSH2 0x543 ADD MSTORE DUP2 DUP2 PUSH2 0x578 ADD MSTORE PUSH2 0x5D6 ADD MSTORE PUSH0 DUP2 DUP2 PUSH2 0x161 ADD MSTORE DUP2 DUP2 PUSH2 0x2CA ADD MSTORE DUP2 DUP2 PUSH2 0x415 ADD MSTORE DUP2 DUP2 PUSH2 0x59A ADD MSTORE PUSH2 0x605 ADD MSTORE PUSH2 0xCA8 PUSH0 RETURN INVALID PUSH1 0x80 PUSH1 0x40 MSTORE CALLVALUE DUP1 ISZERO PUSH2 0xF JUMPI PUSH0 PUSH0 REVERT JUMPDEST POP PUSH1 0x4 CALLDATASIZE LT PUSH2 0x9B JUMPI PUSH0 CALLDATALOAD PUSH1 0xE0 SHR DUP1 PUSH4 0x8DA5CB5B GT PUSH2 0x63 JUMPI DUP1 PUSH4 0x8DA5CB5B EQ PUSH2 0x139 JUMPI DUP1 PUSH4 0xB6B55F25 EQ PUSH2 0x149 JUMPI DUP1 PUSH4 0xBA3E9C12 EQ PUSH2 0x15C JUMPI DUP1 PUSH4 0xF2FDE38B EQ PUSH2 0x183 JUMPI DUP1 PUSH4 0xFBFA77CF EQ PUSH2 0x196 JUMPI PUSH0 PUSH0 REVERT JUMPDEST DUP1 PUSH4 0x2E1A7D4D EQ PUSH2 0x9F JUMPI DUP1 PUSH4 0x3FC8CEF3 EQ PUSH2 0xC7 JUMPI DUP1 PUSH4 0x715018A6 EQ PUSH2 0x106 JUMPI DUP1 PUSH4 0x719CE73E EQ PUSH2 0x110 JUMPI DUP1 PUSH4 0x722713F7 EQ PUSH2 0x123 JUMPI JUMPDEST PUSH0 PUSH0 REVERT JUMPDEST PUSH2 0xB2 PUSH2 0xAD CALLDATASIZE PUSH1 0x4 PUSH2 0xBB4 JUMP JUMPDEST PUSH2 0x1A9 JUMP JUMPDEST PUSH1 0x40 MLOAD SWAP1 ISZERO ISZERO DUP2 MSTORE PUSH1 0x20 ADD JUMPDEST PUSH1 0x40 MLOAD DUP1 SWAP2 SUB SWAP1 RETURN JUMPDEST PUSH2 0xEE PUSH32 0x0 DUP2 JUMP JUMPDEST PUSH1 0x40 MLOAD PUSH1 0x1 PUSH1 0x1 PUSH1 0xA0 SHL SUB SWAP1 SWAP2 AND DUP2 MSTORE PUSH1 0x20 ADD PUSH2 0xBE JUMP JUMPDEST PUSH2 0x10E PUSH2 0x39A JUMP JUMPDEST STOP JUMPDEST PUSH1 0x2 SLOAD PUSH2 0xEE SWAP1 PUSH1 0x1 PUSH1 0x1 PUSH1 0xA0 SHL SUB AND DUP2 JUMP JUMPDEST PUSH2 0x12B PUSH2 0x3FE JUMP JUMPDEST PUSH1 0x40 MLOAD SWAP1 DUP2 MSTORE PUSH1 0x20 ADD PUSH2 0xBE JUMP JUMPDEST PUSH0 SLOAD PUSH1 0x1 PUSH1 0x1 PUSH1 0xA0 SHL SUB AND PUSH2 0xEE JUMP JUMPDEST PUSH2 0xB2 PUSH2 0x157 CALLDATASIZE PUSH1 0x4 PUSH2 0xBB4 JUMP JUMPDEST PUSH2 0x48B JUMP JUMPDEST PUSH2 0xEE PUSH32 0x0 DUP2 JUMP JUMPDEST PUSH2 0x10E PUSH2 0x191 CALLDATASIZE PUSH1 0x4 PUSH2 0xBCB JUMP JUMPDEST PUSH2 0x693 JUMP JUMPDEST PUSH1 0x1 SLOAD PUSH2 0xEE SWAP1 PUSH1 0x1 PUSH1 0x1 PUSH1 0xA0 SHL SUB AND DUP2 JUMP JUMPDEST PUSH1 0x2 SLOAD PUSH0 SWAP1 PUSH1 0x1 PUSH1 0x1 PUSH1 0xA0 SHL SUB AND CALLER EQ DUP1 PUSH2 0x1CE JUMPI POP PUSH1 0x1 SLOAD PUSH1 0x1 PUSH1 0x1 PUSH1 0xA0 SHL SUB AND CALLER EQ JUMPDEST PUSH2 0x235 JUMPI PUSH1 0x40 MLOAD PUSH3 0x461BCD PUSH1 0xE5 SHL DUP2 MSTORE PUSH1 0x20 PUSH1 0x4 DUP3 ADD MSTORE PUSH1 0x2D PUSH1 0x24 DUP3 ADD MSTORE PUSH32 0x43616C6C6572206973206E6F7420746865205072697A65506F6F6C206F722056 PUSH1 0x44 DUP3 ADD MSTORE PUSH13 0x185D5B1D0818DBDB9D1C9858DD PUSH1 0x9A SHL PUSH1 0x64 DUP3 ADD MSTORE PUSH1 0x84 ADD JUMPDEST PUSH1 0x40 MLOAD DUP1 SWAP2 SUB SWAP1 REVERT JUMPDEST PUSH0 DUP3 GT PUSH2 0x284 JUMPI PUSH1 0x40 MLOAD PUSH3 0x461BCD PUSH1 0xE5 SHL DUP2 MSTORE PUSH1 0x20 PUSH1 0x4 DUP3 ADD DUP2 SWAP1 MSTORE PUSH1 0x24 DUP3 ADD MSTORE PUSH32 0x416D6F756E74206D7573742062652067726561746572207468616E207A65726F PUSH1 0x44 DUP3 ADD MSTORE PUSH1 0x64 ADD PUSH2 0x22C JUMP JUMPDEST PUSH1 0x40 MLOAD PUSH4 0xF3FEF3A3 PUSH1 0xE0 SHL DUP2 MSTORE PUSH1 0x1 PUSH1 0x1 PUSH1 0xA0 SHL SUB PUSH32 0x0 DUP2 AND PUSH1 0x4 DUP4 ADD MSTORE PUSH1 0x24 DUP3 ADD DUP5 SWAP1 MSTORE PUSH32 0x0 AND SWAP1 PUSH4 0xF3FEF3A3 SWAP1 PUSH1 0x44 ADD PUSH0 PUSH1 0x40 MLOAD DUP1 DUP4 SUB DUP2 PUSH0 DUP8 DUP1 EXTCODESIZE ISZERO DUP1 ISZERO PUSH2 0x30B JUMPI PUSH0 PUSH0 REVERT JUMPDEST POP GAS CALL ISZERO DUP1 ISZERO PUSH2 0x31D JUMPI RETURNDATASIZE PUSH0 PUSH0 RETURNDATACOPY RETURNDATASIZE PUSH0 REVERT JUMPDEST POP PUSH2 0x357 SWAP3 POP POP PUSH1 0x1 PUSH1 0x1 PUSH1 0xA0 SHL SUB PUSH32 0x0 AND SWAP1 POP CALLER DUP5 PUSH2 0x75D JUMP JUMPDEST PUSH1 0x40 DUP1 MLOAD DUP4 DUP2 MSTORE TIMESTAMP PUSH1 0x20 DUP3 ADD MSTORE CALLER SWAP2 PUSH32 0x92CCF450A286A957AF52509BC1C9939D1A6A481783E142E41E2499F0BB66EBC6 SWAP2 ADD JUMPDEST PUSH1 0x40 MLOAD DUP1 SWAP2 SUB SWAP1 LOG2 POP PUSH1 0x1 SWAP2 SWAP1 POP JUMP JUMPDEST PUSH0 SLOAD PUSH1 0x1 PUSH1 0x1 PUSH1 0xA0 SHL SUB AND CALLER EQ PUSH2 0x3F3 JUMPI PUSH1 0x40 MLOAD PUSH3 0x461BCD PUSH1 0xE5 SHL DUP2 MSTORE PUSH1 0x20 PUSH1 0x4 DUP3 ADD DUP2 SWAP1 MSTORE PUSH1 0x24 DUP3 ADD MSTORE PUSH32 0x4F776E61626C653A2063616C6C6572206973206E6F7420746865206F776E6572 PUSH1 0x44 DUP3 ADD MSTORE PUSH1 0x64 ADD PUSH2 0x22C JUMP JUMPDEST PUSH2 0x3FC PUSH0 PUSH2 0x7C5 JUMP JUMPDEST JUMP JUMPDEST PUSH1 0x40 MLOAD PUSH4 0x70A08231 PUSH1 0xE0 SHL DUP2 MSTORE ADDRESS PUSH1 0x4 DUP3 ADD MSTORE PUSH0 SWAP1 PUSH32 0x0 PUSH1 0x1 PUSH1 0x1 PUSH1 0xA0 SHL SUB AND SWAP1 PUSH4 0x70A08231 SWAP1 PUSH1 0x24 ADD PUSH1 0x20 PUSH1 0x40 MLOAD DUP1 DUP4 SUB DUP2 DUP7 GAS STATICCALL ISZERO DUP1 ISZERO PUSH2 0x462 JUMPI RETURNDATASIZE PUSH0 PUSH0 RETURNDATACOPY RETURNDATASIZE PUSH0 REVERT JUMPDEST POP POP POP POP PUSH1 0x40 MLOAD RETURNDATASIZE PUSH1 0x1F NOT PUSH1 0x1F DUP3 ADD AND DUP3 ADD DUP1 PUSH1 0x40 MSTORE POP DUP2 ADD SWAP1 PUSH2 0x486 SWAP2 SWAP1 PUSH2 0xBF1 JUMP JUMPDEST SWAP1 POP SWAP1 JUMP JUMPDEST PUSH1 0x1 SLOAD PUSH0 SWAP1 PUSH1 0x1 PUSH1 0x1 PUSH1 0xA0 SHL SUB AND CALLER EQ PUSH2 0x4E7 JUMPI PUSH1 0x40 MLOAD PUSH3 0x461BCD PUSH1 0xE5 SHL DUP2 MSTORE PUSH1 0x20 PUSH1 0x4 DUP3 ADD DUP2 SWAP1 MSTORE PUSH1 0x24 DUP3 ADD MSTORE PUSH32 0x43616C6C6572206973206E6F7420746865205661756C7420636F6E7472616374 PUSH1 0x44 DUP3 ADD MSTORE PUSH1 0x64 ADD PUSH2 0x22C JUMP JUMPDEST PUSH0 DUP3 GT PUSH2 0x536 JUMPI PUSH1 0x40 MLOAD PUSH3 0x461BCD PUSH1 0xE5 SHL DUP2 MSTORE PUSH1 0x20 PUSH1 0x4 DUP3 ADD DUP2 SWAP1 MSTORE PUSH1 0x24 DUP3 ADD MSTORE PUSH32 0x416D6F756E74206D7573742062652067726561746572207468616E207A65726F PUSH1 0x44 DUP3 ADD MSTORE PUSH1 0x64 ADD PUSH2 0x22C JUMP JUMPDEST PUSH2 0x56B PUSH1 0x1 PUSH1 0x1 PUSH1 0xA0 SHL SUB PUSH32 0x0 AND CALLER ADDRESS DUP6 PUSH2 0x814 JUMP JUMPDEST PUSH2 0x5BF PUSH1 0x1 PUSH1 0x1 PUSH1 0xA0 SHL SUB PUSH32 0x0 AND PUSH32 0x0 DUP5 PUSH2 0x852 JUMP JUMPDEST PUSH1 0x40 MLOAD PUSH4 0x1E573FB7 PUSH1 0xE3 SHL DUP2 MSTORE PUSH1 0x1 PUSH1 0x1 PUSH1 0xA0 SHL SUB PUSH32 0x0 DUP2 AND PUSH1 0x4 DUP4 ADD MSTORE PUSH1 0x24 DUP3 ADD DUP5 SWAP1 MSTORE PUSH32 0x0 AND SWAP1 PUSH4 0xF2B9FDB8 SWAP1 PUSH1 0x44 ADD PUSH0 PUSH1 0x40 MLOAD DUP1 DUP4 SUB DUP2 PUSH0 DUP8 DUP1 EXTCODESIZE ISZERO DUP1 ISZERO PUSH2 0x646 JUMPI PUSH0 PUSH0 REVERT JUMPDEST POP GAS CALL ISZERO DUP1 ISZERO PUSH2 0x658 JUMPI RETURNDATASIZE PUSH0 PUSH0 RETURNDATACOPY RETURNDATASIZE PUSH0 REVERT JUMPDEST POP POP PUSH1 0x40 DUP1 MLOAD DUP6 DUP2 MSTORE TIMESTAMP PUSH1 0x20 DUP3 ADD MSTORE CALLER SWAP4 POP PUSH32 0x73A19DD210F1A7F902193214C0EE91DD35EE5B4D920CBA8D519ECA65A7B488CA SWAP3 POP ADD PUSH2 0x38A JUMP JUMPDEST PUSH0 SLOAD PUSH1 0x1 PUSH1 0x1 PUSH1 0xA0 SHL SUB AND CALLER EQ PUSH2 0x6EC JUMPI PUSH1 0x40 MLOAD PUSH3 0x461BCD PUSH1 0xE5 SHL DUP2 MSTORE PUSH1 0x20 PUSH1 0x4 DUP3 ADD DUP2 SWAP1 MSTORE PUSH1 0x24 DUP3 ADD MSTORE PUSH32 0x4F776E61626C653A2063616C6C6572206973206E6F7420746865206F776E6572 PUSH1 0x44 DUP3 ADD MSTORE PUSH1 0x64 ADD PUSH2 0x22C JUMP JUMPDEST PUSH1 0x1 PUSH1 0x1 PUSH1 0xA0 SHL SUB DUP2 AND PUSH2 0x751 JUMPI PUSH1 0x40 MLOAD PUSH3 0x461BCD PUSH1 0xE5 SHL DUP2 MSTORE PUSH1 0x20 PUSH1 0x4 DUP3 ADD MSTORE PUSH1 0x26 PUSH1 0x24 DUP3 ADD MSTORE PUSH32 0x4F776E61626C653A206E6577206F776E657220697320746865207A65726F2061 PUSH1 0x44 DUP3 ADD MSTORE PUSH6 0x646472657373 PUSH1 0xD0 SHL PUSH1 0x64 DUP3 ADD MSTORE PUSH1 0x84 ADD PUSH2 0x22C JUMP JUMPDEST PUSH2 0x75A DUP2 PUSH2 0x7C5 JUMP JUMPDEST POP JUMP JUMPDEST PUSH1 0x40 MLOAD PUSH1 0x1 PUSH1 0x1 PUSH1 0xA0 SHL SUB DUP4 AND PUSH1 0x24 DUP3 ADD MSTORE PUSH1 0x44 DUP2 ADD DUP3 SWAP1 MSTORE PUSH2 0x7C0 SWAP1 DUP5 SWAP1 PUSH4 0xA9059CBB PUSH1 0xE0 SHL SWAP1 PUSH1 0x64 ADD JUMPDEST PUSH1 0x40 DUP1 MLOAD PUSH1 0x1F NOT DUP2 DUP5 SUB ADD DUP2 MSTORE SWAP2 SWAP1 MSTORE PUSH1 0x20 DUP2 ADD DUP1 MLOAD PUSH1 0x1 PUSH1 0x1 PUSH1 0xE0 SHL SUB AND PUSH1 0x1 PUSH1 0x1 PUSH1 0xE0 SHL SUB NOT SWAP1 SWAP4 AND SWAP3 SWAP1 SWAP3 OR SWAP1 SWAP2 MSTORE PUSH2 0x965 JUMP JUMPDEST POP POP POP JUMP JUMPDEST PUSH0 DUP1 SLOAD PUSH1 0x1 PUSH1 0x1 PUSH1 0xA0 SHL SUB DUP4 DUP2 AND PUSH1 0x1 PUSH1 0x1 PUSH1 0xA0 SHL SUB NOT DUP4 AND DUP2 OR DUP5 SSTORE PUSH1 0x40 MLOAD SWAP2 SWAP1 SWAP3 AND SWAP3 DUP4 SWAP2 PUSH32 0x8BE0079C531659141344CD1FD0A4F28419497F9722A3DAAFE3B4186F6B6457E0 SWAP2 SWAP1 LOG3 POP POP JUMP JUMPDEST PUSH1 0x40 MLOAD PUSH1 0x1 PUSH1 0x1 PUSH1 0xA0 SHL SUB DUP1 DUP6 AND PUSH1 0x24 DUP4 ADD MSTORE DUP4 AND PUSH1 0x44 DUP3 ADD MSTORE PUSH1 0x64 DUP2 ADD DUP3 SWAP1 MSTORE PUSH2 0x84C SWAP1 DUP6 SWAP1 PUSH4 0x23B872DD PUSH1 0xE0 SHL SWAP1 PUSH1 0x84 ADD PUSH2 0x789 JUMP JUMPDEST POP POP POP POP JUMP JUMPDEST DUP1 ISZERO DUP1 PUSH2 0x8CA JUMPI POP PUSH1 0x40 MLOAD PUSH4 0x6EB1769F PUSH1 0xE1 SHL DUP2 MSTORE ADDRESS PUSH1 0x4 DUP3 ADD MSTORE PUSH1 0x1 PUSH1 0x1 PUSH1 0xA0 SHL SUB DUP4 DUP2 AND PUSH1 0x24 DUP4 ADD MSTORE DUP5 AND SWAP1 PUSH4 0xDD62ED3E SWAP1 PUSH1 0x44 ADD PUSH1 0x20 PUSH1 0x40 MLOAD DUP1 DUP4 SUB DUP2 DUP7 GAS STATICCALL ISZERO DUP1 ISZERO PUSH2 0x8A4 JUMPI RETURNDATASIZE PUSH0 PUSH0 RETURNDATACOPY RETURNDATASIZE PUSH0 REVERT JUMPDEST POP POP POP POP PUSH1 0x40 MLOAD RETURNDATASIZE PUSH1 0x1F NOT PUSH1 0x1F DUP3 ADD AND DUP3 ADD DUP1 PUSH1 0x40 MSTORE POP DUP2 ADD SWAP1 PUSH2 0x8C8 SWAP2 SWAP1 PUSH2 0xBF1 JUMP JUMPDEST ISZERO JUMPDEST PUSH2 0x935 JUMPI PUSH1 0x40 MLOAD PUSH3 0x461BCD PUSH1 0xE5 SHL DUP2 MSTORE PUSH1 0x20 PUSH1 0x4 DUP3 ADD MSTORE PUSH1 0x36 PUSH1 0x24 DUP3 ADD MSTORE PUSH32 0x5361666545524332303A20617070726F76652066726F6D206E6F6E2D7A65726F PUSH1 0x44 DUP3 ADD MSTORE PUSH22 0x20746F206E6F6E2D7A65726F20616C6C6F77616E6365 PUSH1 0x50 SHL PUSH1 0x64 DUP3 ADD MSTORE PUSH1 0x84 ADD PUSH2 0x22C JUMP JUMPDEST PUSH1 0x40 MLOAD PUSH1 0x1 PUSH1 0x1 PUSH1 0xA0 SHL SUB DUP4 AND PUSH1 0x24 DUP3 ADD MSTORE PUSH1 0x44 DUP2 ADD DUP3 SWAP1 MSTORE PUSH2 0x7C0 SWAP1 DUP5 SWAP1 PUSH4 0x95EA7B3 PUSH1 0xE0 SHL SWAP1 PUSH1 0x64 ADD PUSH2 0x789 JUMP JUMPDEST PUSH0 PUSH2 0x9B9 DUP3 PUSH1 0x40 MLOAD DUP1 PUSH1 0x40 ADD PUSH1 0x40 MSTORE DUP1 PUSH1 0x20 DUP2 MSTORE PUSH1 0x20 ADD PUSH32 0x5361666545524332303A206C6F772D6C6576656C2063616C6C206661696C6564 DUP2 MSTORE POP DUP6 PUSH1 0x1 PUSH1 0x1 PUSH1 0xA0 SHL SUB AND PUSH2 0xA36 SWAP1 SWAP3 SWAP2 SWAP1 PUSH4 0xFFFFFFFF AND JUMP JUMPDEST DUP1 MLOAD SWAP1 SWAP2 POP ISZERO PUSH2 0x7C0 JUMPI DUP1 DUP1 PUSH1 0x20 ADD SWAP1 MLOAD DUP2 ADD SWAP1 PUSH2 0x9D7 SWAP2 SWAP1 PUSH2 0xC08 JUMP JUMPDEST PUSH2 0x7C0 JUMPI PUSH1 0x40 MLOAD PUSH3 0x461BCD PUSH1 0xE5 SHL DUP2 MSTORE PUSH1 0x20 PUSH1 0x4 DUP3 ADD MSTORE PUSH1 0x2A PUSH1 0x24 DUP3 ADD MSTORE PUSH32 0x5361666545524332303A204552433230206F7065726174696F6E20646964206E PUSH1 0x44 DUP3 ADD MSTORE PUSH10 0x1BDD081CDD58D8D95959 PUSH1 0xB2 SHL PUSH1 0x64 DUP3 ADD MSTORE PUSH1 0x84 ADD PUSH2 0x22C JUMP JUMPDEST PUSH1 0x60 PUSH2 0xA44 DUP5 DUP5 PUSH0 DUP6 PUSH2 0xA4E JUMP JUMPDEST SWAP1 POP JUMPDEST SWAP4 SWAP3 POP POP POP JUMP JUMPDEST PUSH1 0x60 DUP3 SELFBALANCE LT ISZERO PUSH2 0xAAF JUMPI PUSH1 0x40 MLOAD PUSH3 0x461BCD PUSH1 0xE5 SHL DUP2 MSTORE PUSH1 0x20 PUSH1 0x4 DUP3 ADD MSTORE PUSH1 0x26 PUSH1 0x24 DUP3 ADD MSTORE PUSH32 0x416464726573733A20696E73756666696369656E742062616C616E636520666F PUSH1 0x44 DUP3 ADD MSTORE PUSH6 0x1C8818D85B1B PUSH1 0xD2 SHL PUSH1 0x64 DUP3 ADD MSTORE PUSH1 0x84 ADD PUSH2 0x22C JUMP JUMPDEST PUSH1 0x1 PUSH1 0x1 PUSH1 0xA0 SHL SUB DUP6 AND EXTCODESIZE PUSH2 0xB06 JUMPI PUSH1 0x40 MLOAD PUSH3 0x461BCD PUSH1 0xE5 SHL DUP2 MSTORE PUSH1 0x20 PUSH1 0x4 DUP3 ADD MSTORE PUSH1 0x1D PUSH1 0x24 DUP3 ADD MSTORE PUSH32 0x416464726573733A2063616C6C20746F206E6F6E2D636F6E7472616374000000 PUSH1 0x44 DUP3 ADD MSTORE PUSH1 0x64 ADD PUSH2 0x22C JUMP JUMPDEST PUSH0 PUSH0 DUP7 PUSH1 0x1 PUSH1 0x1 PUSH1 0xA0 SHL SUB AND DUP6 DUP8 PUSH1 0x40 MLOAD PUSH2 0xB21 SWAP2 SWAP1 PUSH2 0xC27 JUMP JUMPDEST PUSH0 PUSH1 0x40 MLOAD DUP1 DUP4 SUB DUP2 DUP6 DUP8 GAS CALL SWAP3 POP POP POP RETURNDATASIZE DUP1 PUSH0 DUP2 EQ PUSH2 0xB5B JUMPI PUSH1 0x40 MLOAD SWAP2 POP PUSH1 0x1F NOT PUSH1 0x3F RETURNDATASIZE ADD AND DUP3 ADD PUSH1 0x40 MSTORE RETURNDATASIZE DUP3 MSTORE RETURNDATASIZE PUSH0 PUSH1 0x20 DUP5 ADD RETURNDATACOPY PUSH2 0xB60 JUMP JUMPDEST PUSH1 0x60 SWAP2 POP JUMPDEST POP SWAP2 POP SWAP2 POP PUSH2 0xB70 DUP3 DUP3 DUP7 PUSH2 0xB7B JUMP JUMPDEST SWAP8 SWAP7 POP POP POP POP POP POP POP JUMP JUMPDEST PUSH1 0x60 DUP4 ISZERO PUSH2 0xB8A JUMPI POP DUP2 PUSH2 0xA47 JUMP JUMPDEST DUP3 MLOAD ISZERO PUSH2 0xB9A JUMPI DUP3 MLOAD DUP1 DUP5 PUSH1 0x20 ADD REVERT JUMPDEST DUP2 PUSH1 0x40 MLOAD PUSH3 0x461BCD PUSH1 0xE5 SHL DUP2 MSTORE PUSH1 0x4 ADD PUSH2 0x22C SWAP2 SWAP1 PUSH2 0xC3D JUMP JUMPDEST PUSH0 PUSH1 0x20 DUP3 DUP5 SUB SLT ISZERO PUSH2 0xBC4 JUMPI PUSH0 PUSH0 REVERT JUMPDEST POP CALLDATALOAD SWAP2 SWAP1 POP JUMP JUMPDEST PUSH0 PUSH1 0x20 DUP3 DUP5 SUB SLT ISZERO PUSH2 0xBDB JUMPI PUSH0 PUSH0 REVERT JUMPDEST DUP2 CALLDATALOAD PUSH1 0x1 PUSH1 0x1 PUSH1 0xA0 SHL SUB DUP2 AND DUP2 EQ PUSH2 0xA47 JUMPI PUSH0 PUSH0 REVERT JUMPDEST PUSH0 PUSH1 0x20 DUP3 DUP5 SUB SLT ISZERO PUSH2 0xC01 JUMPI PUSH0 PUSH0 REVERT JUMPDEST POP MLOAD SWAP2 SWAP1 POP JUMP JUMPDEST PUSH0 PUSH1 0x20 DUP3 DUP5 SUB SLT ISZERO PUSH2 0xC18 JUMPI PUSH0 PUSH0 REVERT JUMPDEST DUP2 MLOAD DUP1 ISZERO ISZERO DUP2 EQ PUSH2 0xA47 JUMPI PUSH0 PUSH0 REVERT JUMPDEST PUSH0 DUP3 MLOAD DUP1 PUSH1 0x20 DUP6 ADD DUP5 MCOPY PUSH0 SWAP3 ADD SWAP2 DUP3 MSTORE POP SWAP2 SWAP1 POP JUMP JUMPDEST PUSH1 0x20 DUP2 MSTORE PUSH0 DUP3 MLOAD DUP1 PUSH1 0x20 DUP5 ADD MSTORE DUP1 PUSH1 0x20 DUP6 ADD PUSH1 0x40 DUP6 ADD MCOPY PUSH0 PUSH1 0x40 DUP3 DUP6 ADD ADD MSTORE PUSH1 0x40 PUSH1 0x1F NOT PUSH1 0x1F DUP4 ADD AND DUP5 ADD ADD SWAP2 POP POP SWAP3 SWAP2 POP POP JUMP INVALID LOG2 PUSH5 0x6970667358 0x22 SLT KECCAK256 PUSH20 0x4905556DC60F0EC2EEF996FA6C99C0C6C1D272FC DUP14 0xEA EXTCALL 0x26 ORIGIN 0xCB 0xA5 SAR 0xAB SWAP15 0xCD PUSH5 0x736F6C6343 STOP ADDMOD 0x1E STOP CALLER "
				},
				"gasEstimates": {
					"creation": {
						"codeDepositCost": "648000",
						"executionCost": "infinite",
						"totalCost": "infinite"
					},
					"external": {
						"balanceOf()": "infinite",
						"comet()": "infinite",
						"deposit(uint256)": "infinite",
						"owner()": "2329",
						"prizePool()": "2403",
						"renounceOwnership()": "28155",
						"transferOwnership(address)": "28336",
						"vault()": "2424",
						"weth()": "infinite",
						"withdraw(uint256)": "infinite"
					}
				},
				"methodIdentifiers": {
					"balanceOf()": "722713f7",
					"comet()": "ba3e9c12",
					"deposit(uint256)": "b6b55f25",
					"owner()": "8da5cb5b",
					"prizePool()": "719ce73e",
					"renounceOwnership()": "715018a6",
					"transferOwnership(address)": "f2fde38b",
					"vault()": "fbfa77cf",
					"weth()": "3fc8cef3",
					"withdraw(uint256)": "2e1a7d4d"
				}
			},
			"storageLayout": {
				"storage": [
					{
						"astId": 7,
						"contract": "contracts/YieldAggregator.sol:YieldAggregator",
						"label": "_owner",
						"offset": 0,
						"slot": "0",
						"type": "t_address"
					},
					{
						"astId": 746,
						"contract": "contracts/YieldAggregator.sol:YieldAggregator",
						"label": "vault",
						"offset": 0,
						"slot": "1",
						"type": "t_contract(IVault)1389"
					},
					{
						"astId": 749,
						"contract": "contracts/YieldAggregator.sol:YieldAggregator",
						"label": "prizePool",
						"offset": 0,
						"slot": "2",
						"type": "t_contract(IPrizePool)1125"
					}
				],
				"types": {
					"t_address": {
						"encoding": "inplace",
						"label": "address",
						"numberOfBytes": "20"
					},
					"t_contract(IPrizePool)1125": {
						"encoding": "inplace",
						"label": "contract IPrizePool",
						"numberOfBytes": "20"
					},
					"t_contract(IVault)1389": {
						"encoding": "inplace",
						"label": "contract IVault",
						"numberOfBytes": "20"
					}
				}
			},
			"userdoc": {
				"events": {
					"Deposited(address,uint256,uint256)": {
						"notice": "Events for tracking deposits and withdrawals"
					}
				},
				"kind": "user",
				"methods": {
					"balanceOf()": {
						"notice": "Gets the current balance of WETH in Compound"
					},
					"deposit(uint256)": {
						"notice": "Deposits WETH into Compound to earn interest"
					},
					"withdraw(uint256)": {
						"notice": "Withdraws WETH from Compound"
					}
				},
				"notice": "Manages deposits and withdrawals to Compound protocol for yield generation",
				"version": 1
			}
		}
	}
}