{
	"data": {
		"bytecode": {
			"linkReferences": {},
			"object": "608060405234801561000f575f5ffd5b5060015f819055506100336100286100b760201b60201c565b6100be60201b60201c565b600160075f5f81526020019081526020015f206006015f6101000a81548160ff0219169083151502179055505f60075f5f81526020019081526020015f20600801819055505f7fb0b0c60f0267584d50a65485b5eff6babad43c5727703515fde33bb545b19114425f6040516100aa9291906101db565b60405180910390a2610202565b5f33905090565b5f60015f9054906101000a900473ffffffffffffffffffffffffffffffffffffffff1690508160015f6101000a81548173ffffffffffffffffffffffffffffffffffffffff021916908373ffffffffffffffffffffffffffffffffffffffff1602179055508173ffffffffffffffffffffffffffffffffffffffff168173ffffffffffffffffffffffffffffffffffffffff167f8be0079c531659141344cd1fd0a4f28419497f9722a3daafe3b4186f6b6457e060405160405180910390a35050565b5f819050919050565b61019381610181565b82525050565b5f819050919050565b5f819050919050565b5f6101c56101c06101bb84610199565b6101a2565b610181565b9050919050565b6101d5816101ab565b82525050565b5f6040820190506101ee5f83018561018a565b6101fb60208301846101cc565b9392505050565b6157f98061020f5f395ff3fe608060405260043610610207575f3560e01c80635b769f3c11610117578063b6b55f251161009f578063e1e158a51161006e578063e1e158a514610769578063ef6f156e14610793578063f298083b146107cf578063f2fde38b146107f7578063fbee60a01461081f57610247565b8063b6b55f25146106b1578063ba13a572146106d9578063c75cd70a14610703578063dd5967c31461073f57610247565b8063719ce73e116100e6578063719ce73e146105cf5780638da5cb5b146105f9578063992b48de14610623578063b0467deb1461064b578063b5cb15f71461068757610247565b80635b769f3c1461053d5780635eefdd2b146105655780636c9fa59e1461058f578063715018a6146105b957610247565b80632f4f21e21161019a5780633ccfd60b116101695780633ccfd60b146104835780633fc8cef31461049957806340f797bb146104c35780634615102c146104eb5780635727e25d1461051357610247565b80632f4f21e2146103e1578063336c6d39146104095780633576f6cc14610431578063362b51981461045957610247565b80632434c5bd116101d65780632434c5bd146103295780632a194b6d146103655780632bdb0d921461038f5780632e1a7d4d146103b957610247565b806306aba0e11461024b57806308f43333146102755780630ba36dcd146102b1578063111663e8146102ed57610247565b36610247576040517f08c379a000000000000000000000000000000000000000000000000000000000815260040161023e906141b6565b60405180910390fd5b5f5ffd5b348015610256575f5ffd5b5061025f61085b565b60405161026c91906141ec565b60405180910390f35b348015610280575f5ffd5b5061029b6004803603810190610296919061428d565b610908565b6040516102a89190614379565b60405180910390f35b3480156102bc575f5ffd5b506102d760048036038101906102d29190614392565b610a1c565b6040516102e49190614379565b60405180910390f35b3480156102f8575f5ffd5b50610313600480360381019061030e91906143bd565b610bc1565b6040516103209190614402565b60405180910390f35b348015610334575f5ffd5b5061034f600480360381019061034a91906143bd565b610fdd565b60405161035c91906141ec565b60405180910390f35b348015610370575f5ffd5b50610379610ffa565b604051610386919061442a565b60405180910390f35b34801561039a575f5ffd5b506103a361101f565b6040516103b0919061442a565b60405180910390f35b3480156103c4575f5ffd5b506103df60048036038101906103da91906143bd565b611047565b005b3480156103ec575f5ffd5b506104076004803603810190610402919061428d565b6110a6565b005b348015610414575f5ffd5b5061042f600480360381019061042a9190614392565b611106565b005b34801561043c575f5ffd5b5061045760048036038101906104529190614443565b6112b3565b005b348015610464575f5ffd5b5061046d611313565b60405161047a91906141ec565b60405180910390f35b34801561048e575f5ffd5b5061049761131c565b005b3480156104a4575f5ffd5b506104ad61140c565b6040516104ba919061442a565b60405180910390f35b3480156104ce575f5ffd5b506104e960048036038101906104e49190614392565b611434565b005b3480156104f6575f5ffd5b50610511600480360381019061050c91906143bd565b6115e1565b005b34801561051e575f5ffd5b5061052761185a565b60405161053491906141ec565b60405180910390f35b348015610548575f5ffd5b50610563600480360381019061055e9190614392565b6118ee565b005b348015610570575f5ffd5b50610579611a9b565b60405161058691906141ec565b60405180910390f35b34801561059a575f5ffd5b506105a3611b47565b6040516105b0919061442a565b60405180910390f35b3480156105c4575f5ffd5b506105cd611b6c565b005b3480156105da575f5ffd5b506105e3611bf3565b6040516105f0919061442a565b60405180910390f35b348015610604575f5ffd5b5061060d611c18565b60405161061a919061442a565b60405180910390f35b34801561062e575f5ffd5b5061064960048036038101906106449190614392565b611c40565b005b348015610656575f5ffd5b50610671600480360381019061066c91906143bd565b611ded565b60405161067e919061442a565b60405180910390f35b348015610692575f5ffd5b5061069b611f2e565b6040516106a891906141ec565b60405180910390f35b3480156106bc575f5ffd5b506106d760048036038101906106d291906143bd565b611fdb565b005b3480156106e4575f5ffd5b506106ed61203a565b6040516106fa919061442a565b60405180910390f35b34801561070e575f5ffd5b5061072960048036038101906107249190614481565b61205f565b604051610736919061442a565b60405180910390f35b34801561074a575f5ffd5b5061075361210f565b60405161076091906141ec565b60405180910390f35b348015610774575f5ffd5b5061077d61211b565b60405161078a91906141ec565b60405180910390f35b34801561079e575f5ffd5b506107b960048036038101906107b491906143bd565b612127565b6040516107c691906141ec565b60405180910390f35b3480156107da575f5ffd5b506107f560048036038101906107f09190614392565b612144565b005b348015610802575f5ffd5b5061081d60048036038101906108189190614392565b6122f1565b005b34801561082a575f5ffd5b50610845600480360381019061084091906143bd565b6123e7565b60405161085291906141ec565b60405180910390f35b5f5f60025f9054906101000a900473ffffffffffffffffffffffffffffffffffffffff1673ffffffffffffffffffffffffffffffffffffffff16635727e25d6040518163ffffffff1660e01b8152600401602060405180830381865afa1580156108c7573d5f5f3e3d5ffd5b505050506040513d601f19601f820116820180604052508101906108eb91906144d3565b905060075f8281526020019081526020015f206008015491505090565b6109106140a6565b60075f8381526020019081526020015f206003015f8473ffffffffffffffffffffffffffffffffffffffff1673ffffffffffffffffffffffffffffffffffffffff1681526020019081526020015f206040518060600160405290815f82015f9054906101000a90046fffffffffffffffffffffffffffffffff166fffffffffffffffffffffffffffffffff166fffffffffffffffffffffffffffffffff1681526020015f820160109054906101000a900463ffffffff1663ffffffff1663ffffffff1681526020015f820160149054906101000a90046bffffffffffffffffffffffff166bffffffffffffffffffffffff166bffffffffffffffffffffffff1681525050905092915050565b610a246140a6565b5f60025f9054906101000a900473ffffffffffffffffffffffffffffffffffffffff1673ffffffffffffffffffffffffffffffffffffffff16635727e25d6040518163ffffffff1660e01b8152600401602060405180830381865afa158015610a8f573d5f5f3e3d5ffd5b505050506040513d601f19601f82011682018060405250810190610ab391906144d3565b905060075f8281526020019081526020015f206003015f8473ffffffffffffffffffffffffffffffffffffffff1673ffffffffffffffffffffffffffffffffffffffff1681526020019081526020015f206040518060600160405290815f82015f9054906101000a90046fffffffffffffffffffffffffffffffff166fffffffffffffffffffffffffffffffff166fffffffffffffffffffffffffffffffff1681526020015f820160109054906101000a900463ffffffff1663ffffffff1663ffffffff1681526020015f820160149054906101000a90046bffffffffffffffffffffffff166bffffffffffffffffffffffff166bffffffffffffffffffffffff1681525050915050919050565b5f60035f9054906101000a900473ffffffffffffffffffffffffffffffffffffffff1673ffffffffffffffffffffffffffffffffffffffff163373ffffffffffffffffffffffffffffffffffffffff1614610c51576040517f08c379a0000000000000000000000000000000000000000000000000000000008152600401610c489061456e565b60405180910390fd5b5f8211610c93576040517f08c379a0000000000000000000000000000000000000000000000000000000008152600401610c8a906145d6565b60405180910390fd5b5f73ffffffffffffffffffffffffffffffffffffffff1660065f9054906101000a900473ffffffffffffffffffffffffffffffffffffffff1673ffffffffffffffffffffffffffffffffffffffff1603610d22576040517f08c379a0000000000000000000000000000000000000000000000000000000008152600401610d199061463e565b60405180910390fd5b5f73ffffffffffffffffffffffffffffffffffffffff1660045f9054906101000a900473ffffffffffffffffffffffffffffffffffffffff1673ffffffffffffffffffffffffffffffffffffffff1603610db1576040517f08c379a0000000000000000000000000000000000000000000000000000000008152600401610da8906146a6565b60405180910390fd5b610dff33308460045f9054906101000a900473ffffffffffffffffffffffffffffffffffffffff1673ffffffffffffffffffffffffffffffffffffffff16612403909392919063ffffffff16565b60045f9054906101000a900473ffffffffffffffffffffffffffffffffffffffff1673ffffffffffffffffffffffffffffffffffffffff1663095ea7b360065f9054906101000a900473ffffffffffffffffffffffffffffffffffffffff16846040518363ffffffff1660e01b8152600401610e7c9291906146c4565b6020604051808303815f875af1158015610e98573d5f5f3e3d5ffd5b505050506040513d601f19601f82011682018060405250810190610ebc9190614715565b505f60065f9054906101000a900473ffffffffffffffffffffffffffffffffffffffff1673ffffffffffffffffffffffffffffffffffffffff1663b6b55f25846040518263ffffffff1660e01b8152600401610f1891906141ec565b6020604051808303815f875af1158015610f34573d5f5f3e3d5ffd5b505050506040513d601f19601f82011682018060405250810190610f589190614715565b905080610f9a576040517f08c379a0000000000000000000000000000000000000000000000000000000008152600401610f91906147b0565b60405180910390fd5b7f438640be9558058e47957699bdabaefce31bf0b8662a30791d4fb0e8c76df7238342604051610fcb9291906147ce565b60405180910390a16001915050919050565b5f60075f8381526020019081526020015f20600801549050919050565b60065f9054906101000a900473ffffffffffffffffffffffffffffffffffffffff1681565b5f60055f9054906101000a900473ffffffffffffffffffffffffffffffffffffffff16905090565b60025f540361108b576040517f08c379a00000000000000000000000000000000000000000000000000000000081526004016110829061483f565b60405180910390fd5b60025f8190555061109c338261248c565b60015f8190555050565b60025f54036110ea576040517f08c379a00000000000000000000000000000000000000000000000000000000081526004016110e19061483f565b60405180910390fd5b60025f819055506110fb8282612eb7565b60015f819055505050565b61110e61397c565b73ffffffffffffffffffffffffffffffffffffffff1661112c611c18565b73ffffffffffffffffffffffffffffffffffffffff1614611182576040517f08c379a0000000000000000000000000000000000000000000000000000000008152600401611179906148a7565b60405180910390fd5b5f73ffffffffffffffffffffffffffffffffffffffff168173ffffffffffffffffffffffffffffffffffffffff16036111f0576040517f08c379a00000000000000000000000000000000000000000000000000000000081526004016111e79061490f565b60405180910390fd5b5f60035f9054906101000a900473ffffffffffffffffffffffffffffffffffffffff1690508160035f6101000a81548173ffffffffffffffffffffffffffffffffffffffff021916908373ffffffffffffffffffffffffffffffffffffffff1602179055508173ffffffffffffffffffffffffffffffffffffffff168173ffffffffffffffffffffffffffffffffffffffff167feb499a54e73d68286a7989029bbbe28ebf38d0f770d0a85caabc5ad5d392b3c060405160405180910390a35050565b60025f54036112f7576040517f08c379a00000000000000000000000000000000000000000000000000000000081526004016112ee9061483f565b60405180910390fd5b60025f81905550611308818361248c565b60015f819055505050565b5f600854905090565b60025f5403611360576040517f08c379a00000000000000000000000000000000000000000000000000000000081526004016113579061483f565b60405180910390fd5b60025f819055505f60025f9054906101000a900473ffffffffffffffffffffffffffffffffffffffff1673ffffffffffffffffffffffffffffffffffffffff16635727e25d6040518163ffffffff1660e01b8152600401602060405180830381865afa1580156113d2573d5f5f3e3d5ffd5b505050506040513d601f19601f820116820180604052508101906113f691906144d3565b9050611402338261248c565b5060015f81905550565b5f60045f9054906101000a900473ffffffffffffffffffffffffffffffffffffffff16905090565b61143c61397c565b73ffffffffffffffffffffffffffffffffffffffff1661145a611c18565b73ffffffffffffffffffffffffffffffffffffffff16146114b0576040517f08c379a00000000000000000000000000000000000000000000000000000000081526004016114a7906148a7565b60405180910390fd5b5f73ffffffffffffffffffffffffffffffffffffffff168173ffffffffffffffffffffffffffffffffffffffff160361151e576040517f08c379a000000000000000000000000000000000000000000000000000000000815260040161151590614977565b60405180910390fd5b5f60055f9054906101000a900473ffffffffffffffffffffffffffffffffffffffff1690508160055f6101000a81548173ffffffffffffffffffffffffffffffffffffffff021916908373ffffffffffffffffffffffffffffffffffffffff1602179055508173ffffffffffffffffffffffffffffffffffffffff168173ffffffffffffffffffffffffffffffffffffffff167f57bc6d6b665d72c5dc5d954b9ad0f23e034670fd43f0ffa65bb8a9a8ad3c03a460405160405180910390a35050565b60025f9054906101000a900473ffffffffffffffffffffffffffffffffffffffff1673ffffffffffffffffffffffffffffffffffffffff163373ffffffffffffffffffffffffffffffffffffffff1614611670576040517f08c379a000000000000000000000000000000000000000000000000000000000815260040161166790614a05565b60405180910390fd5b5f60025f9054906101000a900473ffffffffffffffffffffffffffffffffffffffff1673ffffffffffffffffffffffffffffffffffffffff1663b675b3326040518163ffffffff1660e01b8152600401602060405180830381865afa1580156116db573d5f5f3e3d5ffd5b505050506040513d601f19601f820116820180604052508101906116ff91906144d3565b90505f60025f9054906101000a900473ffffffffffffffffffffffffffffffffffffffff1673ffffffffffffffffffffffffffffffffffffffff16635727e25d6040518163ffffffff1660e01b8152600401602060405180830381865afa15801561176c573d5f5f3e3d5ffd5b505050506040513d601f19601f8201168201806040525081019061179091906144d3565b90505f60075f8381526020019081526020015f206006015f6101000a81548160ff021916908315150217905550600160075f8581526020019081526020015f206006015f6101000a81548160ff0219169083151502179055508160075f8581526020019081526020015f20600701819055505f60075f8581526020019081526020015f2060080181905550827fb0b0c60f0267584d50a65485b5eff6babad43c5727703515fde33bb545b19114428460405161184d9291906147ce565b60405180910390a2505050565b5f60025f9054906101000a900473ffffffffffffffffffffffffffffffffffffffff1673ffffffffffffffffffffffffffffffffffffffff16635727e25d6040518163ffffffff1660e01b8152600401602060405180830381865afa1580156118c5573d5f5f3e3d5ffd5b505050506040513d601f19601f820116820180604052508101906118e991906144d3565b905090565b6118f661397c565b73ffffffffffffffffffffffffffffffffffffffff16611914611c18565b73ffffffffffffffffffffffffffffffffffffffff161461196a576040517f08c379a0000000000000000000000000000000000000000000000000000000008152600401611961906148a7565b60405180910390fd5b5f73ffffffffffffffffffffffffffffffffffffffff168173ffffffffffffffffffffffffffffffffffffffff16036119d8576040517f08c379a00000000000000000000000000000000000000000000000000000000081526004016119cf90614a6d565b60405180910390fd5b5f60045f9054906101000a900473ffffffffffffffffffffffffffffffffffffffff1690508160045f6101000a81548173ffffffffffffffffffffffffffffffffffffffff021916908373ffffffffffffffffffffffffffffffffffffffff1602179055508173ffffffffffffffffffffffffffffffffffffffff168173ffffffffffffffffffffffffffffffffffffffff167f9cfa0588ff5ff3789d20735024d004bfb8db496d5117712e136adbfe97af41d760405160405180910390a35050565b5f5f60025f9054906101000a900473ffffffffffffffffffffffffffffffffffffffff1673ffffffffffffffffffffffffffffffffffffffff16635727e25d6040518163ffffffff1660e01b8152600401602060405180830381865afa158015611b07573d5f5f3e3d5ffd5b505050506040513d601f19601f82011682018060405250810190611b2b91906144d3565b905060075f8281526020019081526020015f205f015491505090565b60055f9054906101000a900473ffffffffffffffffffffffffffffffffffffffff1681565b611b7461397c565b73ffffffffffffffffffffffffffffffffffffffff16611b92611c18565b73ffffffffffffffffffffffffffffffffffffffff1614611be8576040517f08c379a0000000000000000000000000000000000000000000000000000000008152600401611bdf906148a7565b60405180910390fd5b611bf15f613983565b565b60035f9054906101000a900473ffffffffffffffffffffffffffffffffffffffff1681565b5f60015f9054906101000a900473ffffffffffffffffffffffffffffffffffffffff16905090565b611c4861397c565b73ffffffffffffffffffffffffffffffffffffffff16611c66611c18565b73ffffffffffffffffffffffffffffffffffffffff1614611cbc576040517f08c379a0000000000000000000000000000000000000000000000000000000008152600401611cb3906148a7565b60405180910390fd5b5f73ffffffffffffffffffffffffffffffffffffffff168173ffffffffffffffffffffffffffffffffffffffff1603611d2a576040517f08c379a0000000000000000000000000000000000000000000000000000000008152600401611d2190614ad5565b60405180910390fd5b5f60065f9054906101000a900473ffffffffffffffffffffffffffffffffffffffff1690508160065f6101000a81548173ffffffffffffffffffffffffffffffffffffffff021916908373ffffffffffffffffffffffffffffffffffffffff1602179055508173ffffffffffffffffffffffffffffffffffffffff168173ffffffffffffffffffffffffffffffffffffffff167fc50d8ef9b57c270b939cf88365a0e6c8dcf9b867c2b1fe31ec181897e3d6a4db60405160405180910390a35050565b5f5f60025f9054906101000a900473ffffffffffffffffffffffffffffffffffffffff1673ffffffffffffffffffffffffffffffffffffffff16635727e25d6040518163ffffffff1660e01b8152600401602060405180830381865afa158015611e59573d5f5f3e3d5ffd5b505050506040513d601f19601f82011682018060405250810190611e7d91906144d3565b905060075f8281526020019081526020015f20600201805490508310611ed8576040517f08c379a0000000000000000000000000000000000000000000000000000000008152600401611ecf90614b3d565b60405180910390fd5b60075f8281526020019081526020015f206002018381548110611efe57611efd614b5b565b5b905f5260205f20015f9054906101000a900473ffffffffffffffffffffffffffffffffffffffff16915050919050565b5f5f60025f9054906101000a900473ffffffffffffffffffffffffffffffffffffffff1673ffffffffffffffffffffffffffffffffffffffff16635727e25d6040518163ffffffff1660e01b8152600401602060405180830381865afa158015611f9a573d5f5f3e3d5ffd5b505050506040513d601f19601f82011682018060405250810190611fbe91906144d3565b905060075f8281526020019081526020015f206001015491505090565b60025f540361201f576040517f08c379a00000000000000000000000000000000000000000000000000000000081526004016120169061483f565b60405180910390fd5b60025f819055506120303382612eb7565b60015f8190555050565b60025f9054906101000a900473ffffffffffffffffffffffffffffffffffffffff1681565b5f60075f8381526020019081526020015f206002018054905083106120b9576040517f08c379a00000000000000000000000000000000000000000000000000000000081526004016120b090614b3d565b60405180910390fd5b60075f8381526020019081526020015f2060020183815481106120df576120de614b5b565b5b905f5260205f20015f9054906101000a900473ffffffffffffffffffffffffffffffffffffffff16905092915050565b670de0b6b3a764000081565b67016345785d8a000081565b5f60075f8381526020019081526020015f20600101549050919050565b61214c61397c565b73ffffffffffffffffffffffffffffffffffffffff1661216a611c18565b73ffffffffffffffffffffffffffffffffffffffff16146121c0576040517f08c379a00000000000000000000000000000000000000000000000000000000081526004016121b7906148a7565b60405180910390fd5b5f73ffffffffffffffffffffffffffffffffffffffff168173ffffffffffffffffffffffffffffffffffffffff160361222e576040517f08c379a000000000000000000000000000000000000000000000000000000000815260040161222590614bd2565b60405180910390fd5b5f60025f9054906101000a900473ffffffffffffffffffffffffffffffffffffffff1690508160025f6101000a81548173ffffffffffffffffffffffffffffffffffffffff021916908373ffffffffffffffffffffffffffffffffffffffff1602179055508173ffffffffffffffffffffffffffffffffffffffff168173ffffffffffffffffffffffffffffffffffffffff167f5340385bf4bd47f7d3c34e143c07ceb660e339e03c1a1a4cb12a49e2a876e01d60405160405180910390a35050565b6122f961397c565b73ffffffffffffffffffffffffffffffffffffffff16612317611c18565b73ffffffffffffffffffffffffffffffffffffffff161461236d576040517f08c379a0000000000000000000000000000000000000000000000000000000008152600401612364906148a7565b60405180910390fd5b5f73ffffffffffffffffffffffffffffffffffffffff168173ffffffffffffffffffffffffffffffffffffffff16036123db576040517f08c379a00000000000000000000000000000000000000000000000000000000081526004016123d290614c60565b60405180910390fd5b6123e481613983565b50565b5f60075f8381526020019081526020015f205f01549050919050565b612486846323b872dd60e01b85858560405160240161242493929190614c7e565b604051602081830303815290604052907bffffffffffffffffffffffffffffffffffffffffffffffffffffffff19166020820180517bffffffffffffffffffffffffffffffffffffffffffffffffffffffff8381831617835250505050613a46565b50505050565b5f73ffffffffffffffffffffffffffffffffffffffff1660055f9054906101000a900473ffffffffffffffffffffffffffffffffffffffff1673ffffffffffffffffffffffffffffffffffffffff160361251b576040517f08c379a000000000000000000000000000000000000000000000000000000000815260040161251290614cfd565b60405180910390fd5b5f60075f8381526020019081526020015f206003015f8473ffffffffffffffffffffffffffffffffffffffff1673ffffffffffffffffffffffffffffffffffffffff1681526020019081526020015f2090505f815f015f9054906101000a90046fffffffffffffffffffffffffffffffff166fffffffffffffffffffffffffffffffff1690505f81116125e3576040517f08c379a00000000000000000000000000000000000000000000000000000000081526004016125da90614d65565b60405180910390fd5b8060055f9054906101000a900473ffffffffffffffffffffffffffffffffffffffff1673ffffffffffffffffffffffffffffffffffffffff166370a08231306040518263ffffffff1660e01b815260040161263e919061442a565b602060405180830381865afa158015612659573d5f5f3e3d5ffd5b505050506040513d601f19601f8201168201806040525081019061267d91906144d3565b10156126be576040517f08c379a00000000000000000000000000000000000000000000000000000000081526004016126b590614dcd565b60405180910390fd5b5f60025f9054906101000a900473ffffffffffffffffffffffffffffffffffffffff1673ffffffffffffffffffffffffffffffffffffffff16635727e25d6040518163ffffffff1660e01b8152600401602060405180830381865afa158015612729573d5f5f3e3d5ffd5b505050506040513d601f19601f8201168201806040525081019061274d91906144d3565b905080841115612792576040517f08c379a000000000000000000000000000000000000000000000000000000000815260040161278990614e35565b60405180910390fd5b5f73ffffffffffffffffffffffffffffffffffffffff1660045f9054906101000a900473ffffffffffffffffffffffffffffffffffffffff1673ffffffffffffffffffffffffffffffffffffffff1603612821576040517f08c379a0000000000000000000000000000000000000000000000000000000008152600401612818906146a6565b60405180910390fd5b5f73ffffffffffffffffffffffffffffffffffffffff1660055f9054906101000a900473ffffffffffffffffffffffffffffffffffffffff1673ffffffffffffffffffffffffffffffffffffffff16036128b0576040517f08c379a00000000000000000000000000000000000000000000000000000000081526004016128a790614cfd565b60405180910390fd5b5f73ffffffffffffffffffffffffffffffffffffffff1660065f9054906101000a900473ffffffffffffffffffffffffffffffffffffffff1673ffffffffffffffffffffffffffffffffffffffff160361293f576040517f08c379a00000000000000000000000000000000000000000000000000000000081526004016129369061463e565b60405180910390fd5b5f60075f8681526020019081526020015f209050806004015f8773ffffffffffffffffffffffffffffffffffffffff1673ffffffffffffffffffffffffffffffffffffffff1681526020019081526020015f205f9054906101000a900460ff166129de576040517f08c379a00000000000000000000000000000000000000000000000000000000081526004016129d590614e9d565b60405180910390fd5b5f845f015f9054906101000a90046fffffffffffffffffffffffffffffffff166fffffffffffffffffffffffffffffffff1611612a50576040517f08c379a0000000000000000000000000000000000000000000000000000000008152600401612a4790614f05565b60405180910390fd5b5f83905060055f9054906101000a900473ffffffffffffffffffffffffffffffffffffffff1673ffffffffffffffffffffffffffffffffffffffff166342966c68826040518263ffffffff1660e01b8152600401612aae91906141ec565b5f604051808303815f87803b158015612ac5575f5ffd5b505af1158015612ad7573d5f5f3e3d5ffd5b505050507fdf8087f44f1f81d8269ba11060b035cb41da0a16c24252a0eb34592a0dba9e538142604051612b0c9291906147ce565b60405180910390a15f855f0160149054906101000a90046bffffffffffffffffffffffff166bffffffffffffffffffffffff1690505f811115612c745780836008015411612b5a575f612b6b565b808360080154612b6a9190614f50565b5b83600801819055508387148015612bcf57505f73ffffffffffffffffffffffffffffffffffffffff1660025f9054906101000a900473ffffffffffffffffffffffffffffffffffffffff1673ffffffffffffffffffffffffffffffffffffffff1614155b15612c735760025f9054906101000a900473ffffffffffffffffffffffffffffffffffffffff1673ffffffffffffffffffffffffffffffffffffffff1663fccfe94c895f6040518363ffffffff1660e01b8152600401612c30929190614fc5565b6020604051808303815f875af1925050508015612c6b57506040513d601f19601f82011682018060405250810190612c689190614715565b60015b15612c7257505b5b5b5f865f015f6101000a8154816fffffffffffffffffffffffffffffffff02191690836fffffffffffffffffffffffffffffffff1602179055505f865f0160146101000a8154816bffffffffffffffffffffffff02191690836bffffffffffffffffffffffff160217905550826006015f9054906101000a900460ff1615612d0057612cff8888613b0b565b5b81835f015f828254612d129190614f50565b925050819055508160085f828254612d2a9190614f50565b925050819055505f60065f9054906101000a900473ffffffffffffffffffffffffffffffffffffffff1673ffffffffffffffffffffffffffffffffffffffff16632e1a7d4d846040518263ffffffff1660e01b8152600401612d8c91906141ec565b6020604051808303815f875af1158015612da8573d5f5f3e3d5ffd5b505050506040513d601f19601f82011682018060405250810190612dcc9190614715565b905080612e0e576040517f08c379a0000000000000000000000000000000000000000000000000000000008152600401612e059061505c565b60405180910390fd5b612e5a898460045f9054906101000a900473ffffffffffffffffffffffffffffffffffffffff1673ffffffffffffffffffffffffffffffffffffffff16613d619092919063ffffffff16565b8873ffffffffffffffffffffffffffffffffffffffff167f75e161b3e824b114fc1a33274bd7091918dd4e639cede50b78b15a4eea956a2184428b604051612ea49392919061507a565b60405180910390a2505050505050505050565b5f73ffffffffffffffffffffffffffffffffffffffff168273ffffffffffffffffffffffffffffffffffffffff1603612f25576040517f08c379a0000000000000000000000000000000000000000000000000000000008152600401612f1c906150f9565b60405180910390fd5b5f73ffffffffffffffffffffffffffffffffffffffff1660045f9054906101000a900473ffffffffffffffffffffffffffffffffffffffff1673ffffffffffffffffffffffffffffffffffffffff1603612fb4576040517f08c379a0000000000000000000000000000000000000000000000000000000008152600401612fab906146a6565b60405180910390fd5b67016345785d8a0000811015612fff576040517f08c379a0000000000000000000000000000000000000000000000000000000008152600401612ff690615187565b60405180910390fd5b670de0b6b3a764000081111561304a576040517f08c379a000000000000000000000000000000000000000000000000000000000815260040161304190615215565b60405180910390fd5b5f60045f9054906101000a900473ffffffffffffffffffffffffffffffffffffffff1673ffffffffffffffffffffffffffffffffffffffff166370a08231306040518263ffffffff1660e01b81526004016130a5919061442a565b602060405180830381865afa1580156130c0573d5f5f3e3d5ffd5b505050506040513d601f19601f820116820180604052508101906130e491906144d3565b905081811015613129576040517f08c379a00000000000000000000000000000000000000000000000000000000081526004016131209061527d565b60405180910390fd5b5f60025f9054906101000a900473ffffffffffffffffffffffffffffffffffffffff1673ffffffffffffffffffffffffffffffffffffffff16635727e25d6040518163ffffffff1660e01b8152600401602060405180830381865afa158015613194573d5f5f3e3d5ffd5b505050506040513d601f19601f820116820180604052508101906131b891906144d3565b90505f60075f8381526020019081526020015f209050806004015f8673ffffffffffffffffffffffffffffffffffffffff1673ffffffffffffffffffffffffffffffffffffffff1681526020019081526020015f205f9054906101000a900460ff161561325a576040517f08c379a00000000000000000000000000000000000000000000000000000000081526004016132519061530b565b60405180910390fd5b5f816003015f8773ffffffffffffffffffffffffffffffffffffffff1673ffffffffffffffffffffffffffffffffffffffff1681526020019081526020015f2090508160020180549050826005015f8873ffffffffffffffffffffffffffffffffffffffff1673ffffffffffffffffffffffffffffffffffffffff1681526020019081526020015f20819055508160020186908060018154018082558091505060019003905f5260205f20015f9091909190916101000a81548173ffffffffffffffffffffffffffffffffffffffff021916908373ffffffffffffffffffffffffffffffffffffffff1602179055506001826004015f8873ffffffffffffffffffffffffffffffffffffffff1673ffffffffffffffffffffffffffffffffffffffff1681526020019081526020015f205f6101000a81548160ff021916908315150217905550816001015f8154809291906133b490615329565b919050555084815f015f6101000a8154816fffffffffffffffffffffffffffffffff02191690836fffffffffffffffffffffffffffffffff16021790555042815f0160106101000a81548163ffffffff021916908363ffffffff1602179055505f826007015490505f81036134bd5760025f9054906101000a900473ffffffffffffffffffffffffffffffffffffffff1673ffffffffffffffffffffffffffffffffffffffff1663b675b3326040518163ffffffff1660e01b8152600401602060405180830381865afa15801561348d573d5f5f3e3d5ffd5b505050506040513d601f19601f820116820180604052508101906134b191906144d3565b90508083600701819055505b5f5f9050428211156134d85742826134d59190614f50565b90505b5f6134e38883613de7565b905080845f0160146101000a8154816bffffffffffffffffffffffff02191690836bffffffffffffffffffffffff16021790555080856008015f82825461352a9190615370565b9250508190555087855f015f8282546135439190615370565b925050819055508760085f82825461355b9190615370565b9250508190555060045f9054906101000a900473ffffffffffffffffffffffffffffffffffffffff1673ffffffffffffffffffffffffffffffffffffffff1663095ea7b360065f9054906101000a900473ffffffffffffffffffffffffffffffffffffffff168a6040518363ffffffff1660e01b81526004016135df9291906146c4565b6020604051808303815f875af11580156135fb573d5f5f3e3d5ffd5b505050506040513d601f19601f8201168201806040525081019061361f9190614715565b505f60065f9054906101000a900473ffffffffffffffffffffffffffffffffffffffff1673ffffffffffffffffffffffffffffffffffffffff1663b6b55f258a6040518263ffffffff1660e01b815260040161367b91906141ec565b6020604051808303815f875af1158015613697573d5f5f3e3d5ffd5b505050506040513d601f19601f820116820180604052508101906136bb9190614715565b9050806136fd576040517f08c379a00000000000000000000000000000000000000000000000000000000081526004016136f4906147b0565b60405180910390fd5b5f73ffffffffffffffffffffffffffffffffffffffff1660025f9054906101000a900473ffffffffffffffffffffffffffffffffffffffff1673ffffffffffffffffffffffffffffffffffffffff16146137f05760025f9054906101000a900473ffffffffffffffffffffffffffffffffffffffff1673ffffffffffffffffffffffffffffffffffffffff1663fccfe94c8b846040518363ffffffff1660e01b81526004016137ad9291906146c4565b6020604051808303815f875af19250505080156137e857506040513d601f19601f820116820180604052508101906137e59190614715565b60015b156137ef57505b5b5f73ffffffffffffffffffffffffffffffffffffffff1660055f9054906101000a900473ffffffffffffffffffffffffffffffffffffffff1673ffffffffffffffffffffffffffffffffffffffff161461391e5760055f9054906101000a900473ffffffffffffffffffffffffffffffffffffffff1673ffffffffffffffffffffffffffffffffffffffff166340c10f198b8b6040518363ffffffff1660e01b81526004016138a09291906146c4565b5f604051808303815f87803b1580156138b7575f5ffd5b505af11580156138c9573d5f5f3e3d5ffd5b505050508973ffffffffffffffffffffffffffffffffffffffff167f54cd8e1de57960308b5925f1da718aab59a6f6a6b5162f568d15678ffd323dda8a426040516139159291906147ce565b60405180910390a25b8973ffffffffffffffffffffffffffffffffffffffff167f91ede45f04a37a7c170f5c1207df3b6bc748dc1e04ad5e917a241d0f52feada38a428a6040516139689392919061507a565b60405180910390a250505050505050505050565b5f33905090565b5f60015f9054906101000a900473ffffffffffffffffffffffffffffffffffffffff1690508160015f6101000a81548173ffffffffffffffffffffffffffffffffffffffff021916908373ffffffffffffffffffffffffffffffffffffffff1602179055508173ffffffffffffffffffffffffffffffffffffffff168173ffffffffffffffffffffffffffffffffffffffff167f8be0079c531659141344cd1fd0a4f28419497f9722a3daafe3b4186f6b6457e060405160405180910390a35050565b5f613aa7826040518060400160405280602081526020017f5361666545524332303a206c6f772d6c6576656c2063616c6c206661696c65648152508573ffffffffffffffffffffffffffffffffffffffff16613ef79092919063ffffffff16565b90505f81511115613b065780806020019051810190613ac69190614715565b613b05576040517f08c379a0000000000000000000000000000000000000000000000000000000008152600401613afc90615413565b60405180910390fd5b5b505050565b5f60075f8381526020019081526020015f2090505f816005015f8573ffffffffffffffffffffffffffffffffffffffff1673ffffffffffffffffffffffffffffffffffffffff1681526020019081526020015f205490505f60018360020180549050613b779190614f50565b9050808214613c63575f836002018281548110613b9757613b96614b5b565b5b905f5260205f20015f9054906101000a900473ffffffffffffffffffffffffffffffffffffffff16905080846002018481548110613bd857613bd7614b5b565b5b905f5260205f20015f6101000a81548173ffffffffffffffffffffffffffffffffffffffff021916908373ffffffffffffffffffffffffffffffffffffffff16021790555082846005015f8373ffffffffffffffffffffffffffffffffffffffff1673ffffffffffffffffffffffffffffffffffffffff1681526020019081526020015f2081905550505b82600201805480613c7757613c76615431565b5b600190038181905f5260205f20015f6101000a81549073ffffffffffffffffffffffffffffffffffffffff02191690559055826005015f8673ffffffffffffffffffffffffffffffffffffffff1673ffffffffffffffffffffffffffffffffffffffff1681526020019081526020015f205f90555f836004015f8773ffffffffffffffffffffffffffffffffffffffff1673ffffffffffffffffffffffffffffffffffffffff1681526020019081526020015f205f6101000a81548160ff021916908315150217905550826001015f815480929190613d559061545e565b91905055505050505050565b613de28363a9059cbb60e01b8484604051602401613d809291906146c4565b604051602081830303815290604052907bffffffffffffffffffffffffffffffffffffffffffffffffffffffff19166020820180517bffffffffffffffffffffffffffffffffffffffffffffffffffffffff8381831617835250505050613a46565b505050565b5f5f8311613e2a576040517f08c379a0000000000000000000000000000000000000000000000000000000008152600401613e21906154cf565b60405180910390fd5b5f8211613e6c576040517f08c379a0000000000000000000000000000000000000000000000000000000008152600401613e6390615537565b60405180910390fd5b5f6127106107d063ffffffff1684613e849190615555565b613e8e91906155c3565b90505f612710611f4063ffffffff1686613ea89190615555565b613eb291906155c3565b9050670de0b6b3a764000077ffffffffffffffffffffffffffffffffffffffffffffffff168183613ee39190615370565b613eed9190615555565b9250505092915050565b6060613f0584845f85613f0e565b90509392505050565b606082471015613f53576040517f08c379a0000000000000000000000000000000000000000000000000000000008152600401613f4a90615663565b60405180910390fd5b613f5c8561401e565b613f9b576040517f08c379a0000000000000000000000000000000000000000000000000000000008152600401613f92906156cb565b60405180910390fd5b5f5f8673ffffffffffffffffffffffffffffffffffffffff168587604051613fc3919061573b565b5f6040518083038185875af1925050503d805f8114613ffd576040519150601f19603f3d011682016040523d82523d5f602084013e614002565b606091505b5091509150614012828286614040565b92505050949350505050565b5f5f8273ffffffffffffffffffffffffffffffffffffffff163b119050919050565b606083156140505782905061409f565b5f835111156140625782518084602001fd5b816040517f08c379a000000000000000000000000000000000000000000000000000000000815260040161409691906157a3565b60405180910390fd5b9392505050565b60405180606001604052805f6fffffffffffffffffffffffffffffffff1681526020015f63ffffffff1681526020015f6bffffffffffffffffffffffff1681525090565b5f82825260208201905092915050565b7f5468697320636f6e747261637420646f6573206e6f74206163636570742045545f8201527f482e20506c6561736520757365205745544820746f6b656e7320696e7374656160208201527f6420616e642063616c6c20746865206465706f736974206f72206465706f736960408201527f74466f722066756e6374696f6e732e0000000000000000000000000000000000606082015250565b5f6141a0606f836140ea565b91506141ab826140fa565b608082019050919050565b5f6020820190508181035f8301526141cd81614194565b9050919050565b5f819050919050565b6141e6816141d4565b82525050565b5f6020820190506141ff5f8301846141dd565b92915050565b5f5ffd5b5f73ffffffffffffffffffffffffffffffffffffffff82169050919050565b5f61423282614209565b9050919050565b61424281614228565b811461424c575f5ffd5b50565b5f8135905061425d81614239565b92915050565b61426c816141d4565b8114614276575f5ffd5b50565b5f8135905061428781614263565b92915050565b5f5f604083850312156142a3576142a2614205565b5b5f6142b08582860161424f565b92505060206142c185828601614279565b9150509250929050565b5f6fffffffffffffffffffffffffffffffff82169050919050565b6142ef816142cb565b82525050565b5f63ffffffff82169050919050565b61430d816142f5565b82525050565b5f6bffffffffffffffffffffffff82169050919050565b61433381614313565b82525050565b606082015f82015161434d5f8501826142e6565b5060208201516143606020850182614304565b506040820151614373604085018261432a565b50505050565b5f60608201905061438c5f830184614339565b92915050565b5f602082840312156143a7576143a6614205565b5b5f6143b48482850161424f565b91505092915050565b5f602082840312156143d2576143d1614205565b5b5f6143df84828501614279565b91505092915050565b5f8115159050919050565b6143fc816143e8565b82525050565b5f6020820190506144155f8301846143f3565b92915050565b61442481614228565b82525050565b5f60208201905061443d5f83018461441b565b92915050565b5f5f6040838503121561445957614458614205565b5b5f61446685828601614279565b92505060206144778582860161424f565b9150509250929050565b5f5f6040838503121561449757614496614205565b5b5f6144a485828601614279565b92505060206144b585828601614279565b9150509250929050565b5f815190506144cd81614263565b92915050565b5f602082840312156144e8576144e7614205565b5b5f6144f5848285016144bf565b91505092915050565b7f4f6e6c79205072697a65506f6f6c2063616e2063616c6c20746869732066756e5f8201527f6374696f6e000000000000000000000000000000000000000000000000000000602082015250565b5f6145586025836140ea565b9150614563826144fe565b604082019050919050565b5f6020820190508181035f8301526145858161454c565b9050919050565b7f416d6f756e74206d7573742062652067726561746572207468616e20300000005f82015250565b5f6145c0601d836140ea565b91506145cb8261458c565b602082019050919050565b5f6020820190508181035f8301526145ed816145b4565b9050919050565b7f5969656c6441676772656761746f72206e6f74207365740000000000000000005f82015250565b5f6146286017836140ea565b9150614633826145f4565b602082019050919050565b5f6020820190508181035f8301526146558161461c565b9050919050565b7f57455448206e6f742073657400000000000000000000000000000000000000005f82015250565b5f614690600c836140ea565b915061469b8261465c565b602082019050919050565b5f6020820190508181035f8301526146bd81614684565b9050919050565b5f6040820190506146d75f83018561441b565b6146e460208301846141dd565b9392505050565b6146f4816143e8565b81146146fe575f5ffd5b50565b5f8151905061470f816146eb565b92915050565b5f6020828403121561472a57614729614205565b5b5f61473784828501614701565b91505092915050565b7f4465706f73697420746f207969656c642061676772656761746f72206661696c5f8201527f6564000000000000000000000000000000000000000000000000000000000000602082015250565b5f61479a6022836140ea565b91506147a582614740565b604082019050919050565b5f6020820190508181035f8301526147c78161478e565b9050919050565b5f6040820190506147e15f8301856141dd565b6147ee60208301846141dd565b9392505050565b7f5265656e7472616e637947756172643a207265656e7472616e742063616c6c005f82015250565b5f614829601f836140ea565b9150614834826147f5565b602082019050919050565b5f6020820190508181035f8301526148568161481d565b9050919050565b7f4f776e61626c653a2063616c6c6572206973206e6f7420746865206f776e65725f82015250565b5f6148916020836140ea565b915061489c8261485d565b602082019050919050565b5f6020820190508181035f8301526148be81614885565b9050919050565b7f496e76616c6964207072697a65506f6f6c2061646472657373000000000000005f82015250565b5f6148f96019836140ea565b9150614904826148c5565b602082019050919050565b5f6020820190508181035f830152614926816148ed565b9050919050565b7f496e76616c6964207368617265546f6b656e20616464726573730000000000005f82015250565b5f614961601a836140ea565b915061496c8261492d565b602082019050919050565b5f6020820190508181035f83015261498e81614955565b9050919050565b7f4f6e6c79206c6f747465727920636f6e74726163742063616e207374617274205f8201527f6e657720726f756e640000000000000000000000000000000000000000000000602082015250565b5f6149ef6029836140ea565b91506149fa82614995565b604082019050919050565b5f6020820190508181035f830152614a1c816149e3565b9050919050565b7f496e76616c6964205745544820616464726573730000000000000000000000005f82015250565b5f614a576014836140ea565b9150614a6282614a23565b602082019050919050565b5f6020820190508181035f830152614a8481614a4b565b9050919050565b7f496e76616c6964205969656c6441676772656761746f722061646472657373005f82015250565b5f614abf601f836140ea565b9150614aca82614a8b565b602082019050919050565b5f6020820190508181035f830152614aec81614ab3565b9050919050565b7f496e646578206f7574206f6620626f756e6473000000000000000000000000005f82015250565b5f614b276013836140ea565b9150614b3282614af3565b602082019050919050565b5f6020820190508181035f830152614b5481614b1b565b9050919050565b7f4e487b71000000000000000000000000000000000000000000000000000000005f52603260045260245ffd5b7f496e76616c6964206c6f747465727920616464726573730000000000000000005f82015250565b5f614bbc6017836140ea565b9150614bc782614b88565b602082019050919050565b5f6020820190508181035f830152614be981614bb0565b9050919050565b7f4f776e61626c653a206e6577206f776e657220697320746865207a65726f20615f8201527f6464726573730000000000000000000000000000000000000000000000000000602082015250565b5f614c4a6026836140ea565b9150614c5582614bf0565b604082019050919050565b5f6020820190508181035f830152614c7781614c3e565b9050919050565b5f606082019050614c915f83018661441b565b614c9e602083018561441b565b614cab60408301846141dd565b949350505050565b7f5368617265546f6b656e206e6f742073657400000000000000000000000000005f82015250565b5f614ce76012836140ea565b9150614cf282614cb3565b602082019050919050565b5f6020820190508181035f830152614d1481614cdb565b9050919050565b7f4e6f206465706f73697420746f207769746864726177000000000000000000005f82015250565b5f614d4f6016836140ea565b9150614d5a82614d1b565b602082019050919050565b5f6020820190508181035f830152614d7c81614d43565b9050919050565b7f496e73756666696369656e7420736861726520746f6b656e73000000000000005f82015250565b5f614db76019836140ea565b9150614dc282614d83565b602082019050919050565b5f6020820190508181035f830152614de481614dab565b9050919050565b7f496e76616c696420726f756e64204944000000000000000000000000000000005f82015250565b5f614e1f6010836140ea565b9150614e2a82614deb565b602082019050919050565b5f6020820190508181035f830152614e4c81614e13565b9050919050565b7f4e6f2070617274696369706174696f6e20696e207468697320726f756e6400005f82015250565b5f614e87601e836140ea565b9150614e9282614e53565b602082019050919050565b5f6020820190508181035f830152614eb481614e7b565b9050919050565b7f4e6f206465706f736974000000000000000000000000000000000000000000005f82015250565b5f614eef600a836140ea565b9150614efa82614ebb565b602082019050919050565b5f6020820190508181035f830152614f1c81614ee3565b9050919050565b7f4e487b71000000000000000000000000000000000000000000000000000000005f52601160045260245ffd5b5f614f5a826141d4565b9150614f65836141d4565b9250828203905081811115614f7d57614f7c614f23565b5b92915050565b5f819050919050565b5f819050919050565b5f614faf614faa614fa584614f83565b614f8c565b6141d4565b9050919050565b614fbf81614f95565b82525050565b5f604082019050614fd85f83018561441b565b614fe56020830184614fb6565b9392505050565b7f5769746864726177616c2066726f6d207969656c642061676772656761746f725f8201527f206661696c656400000000000000000000000000000000000000000000000000602082015250565b5f6150466027836140ea565b915061505182614fec565b604082019050919050565b5f6020820190508181035f8301526150738161503a565b9050919050565b5f60608201905061508d5f8301866141dd565b61509a60208301856141dd565b6150a760408301846141dd565b949350505050565b7f496e76616c6964207573657220616464726573730000000000000000000000005f82015250565b5f6150e36014836140ea565b91506150ee826150af565b602082019050919050565b5f6020820190508181035f830152615110816150d7565b9050919050565b7f4d757374206465706f736974206174206c6561737420302e312045544820776f5f8201527f727468206f662057455448000000000000000000000000000000000000000000602082015250565b5f615171602b836140ea565b915061517c82615117565b604082019050919050565b5f6020820190508181035f83015261519e81615165565b9050919050565b7f4d757374206465706f736974206174206d6f737420312045544820776f7274685f8201527f206f662057455448000000000000000000000000000000000000000000000000602082015250565b5f6151ff6028836140ea565b915061520a826151a5565b604082019050919050565b5f6020820190508181035f83015261522c816151f3565b9050919050565b7f496e73756666696369656e7420574554482062616c616e6365000000000000005f82015250565b5f6152676019836140ea565b915061527282615233565b602082019050919050565b5f6020820190508181035f8301526152948161525b565b9050919050565b7f557365722063616e206f6e6c79206465706f736974206f6e63652070657220725f8201527f6f756e6400000000000000000000000000000000000000000000000000000000602082015250565b5f6152f56024836140ea565b91506153008261529b565b604082019050919050565b5f6020820190508181035f830152615322816152e9565b9050919050565b5f615333826141d4565b91507fffffffffffffffffffffffffffffffffffffffffffffffffffffffffffffffff820361536557615364614f23565b5b600182019050919050565b5f61537a826141d4565b9150615385836141d4565b925082820190508082111561539d5761539c614f23565b5b92915050565b7f5361666545524332303a204552433230206f7065726174696f6e20646964206e5f8201527f6f74207375636365656400000000000000000000000000000000000000000000602082015250565b5f6153fd602a836140ea565b9150615408826153a3565b604082019050919050565b5f6020820190508181035f83015261542a816153f1565b9050919050565b7f4e487b71000000000000000000000000000000000000000000000000000000005f52603160045260245ffd5b5f615468826141d4565b91505f820361547a57615479614f23565b5b600182039050919050565b7f416d6f756e74206d75737420626520706f7369746976650000000000000000005f82015250565b5f6154b96017836140ea565b91506154c482615485565b602082019050919050565b5f6020820190508181035f8301526154e6816154ad565b9050919050565b7f54696d6520656c6170736564206d75737420626520706f7369746976650000005f82015250565b5f615521601d836140ea565b915061552c826154ed565b602082019050919050565b5f6020820190508181035f83015261554e81615515565b9050919050565b5f61555f826141d4565b915061556a836141d4565b9250828202615578816141d4565b9150828204841483151761558f5761558e614f23565b5b5092915050565b7f4e487b71000000000000000000000000000000000000000000000000000000005f52601260045260245ffd5b5f6155cd826141d4565b91506155d8836141d4565b9250826155e8576155e7615596565b5b828204905092915050565b7f416464726573733a20696e73756666696369656e742062616c616e636520666f5f8201527f722063616c6c0000000000000000000000000000000000000000000000000000602082015250565b5f61564d6026836140ea565b9150615658826155f3565b604082019050919050565b5f6020820190508181035f83015261567a81615641565b9050919050565b7f416464726573733a2063616c6c20746f206e6f6e2d636f6e74726163740000005f82015250565b5f6156b5601d836140ea565b91506156c082615681565b602082019050919050565b5f6020820190508181035f8301526156e2816156a9565b9050919050565b5f81519050919050565b5f81905092915050565b8281835e5f83830152505050565b5f615715826156e9565b61571f81856156f3565b935061572f8185602086016156fd565b80840191505092915050565b5f615746828461570b565b915081905092915050565b5f81519050919050565b5f601f19601f8301169050919050565b5f61577582615751565b61577f81856140ea565b935061578f8185602086016156fd565b6157988161575b565b840191505092915050565b5f6020820190508181035f8301526157bb818461576b565b90509291505056fea2646970667358221220afee15d97ef90764b500c5fce9447dd3b74ed4eb738478dae90bdb720fd2299164736f6c634300081e0033",
			"opcodes": "PUSH1 0x80 PUSH1 0x40 MSTORE CALLVALUE DUP1 ISZERO PUSH2 0xF JUMPI PUSH0 PUSH0 REVERT JUMPDEST POP PUSH1 0x1 PUSH0 DUP2 SWAP1 SSTORE POP PUSH2 0x33 PUSH2 0x28 PUSH2 0xB7 PUSH1 0x20 SHL PUSH1 0x20 SHR JUMP JUMPDEST PUSH2 0xBE PUSH1 0x20 SHL PUSH1 0x20 SHR JUMP JUMPDEST PUSH1 0x1 PUSH1 0x7 PUSH0 PUSH0 DUP2 MSTORE PUSH1 0x20 ADD SWAP1 DUP2 MSTORE PUSH1 0x20 ADD PUSH0 KECCAK256 PUSH1 0x6 ADD PUSH0 PUSH2 0x100 EXP DUP2 SLOAD DUP2 PUSH1 0xFF MUL NOT AND SWAP1 DUP4 ISZERO ISZERO MUL OR SWAP1 SSTORE POP PUSH0 PUSH1 0x7 PUSH0 PUSH0 DUP2 MSTORE PUSH1 0x20 ADD SWAP1 DUP2 MSTORE PUSH1 0x20 ADD PUSH0 KECCAK256 PUSH1 0x8 ADD DUP2 SWAP1 SSTORE POP PUSH0 PUSH32 0xB0B0C60F0267584D50A65485B5EFF6BABAD43C5727703515FDE33BB545B19114 TIMESTAMP PUSH0 PUSH1 0x40 MLOAD PUSH2 0xAA SWAP3 SWAP2 SWAP1 PUSH2 0x1DB JUMP JUMPDEST PUSH1 0x40 MLOAD DUP1 SWAP2 SUB SWAP1 LOG2 PUSH2 0x202 JUMP JUMPDEST PUSH0 CALLER SWAP1 POP SWAP1 JUMP JUMPDEST PUSH0 PUSH1 0x1 PUSH0 SWAP1 SLOAD SWAP1 PUSH2 0x100 EXP SWAP1 DIV PUSH20 0xFFFFFFFFFFFFFFFFFFFFFFFFFFFFFFFFFFFFFFFF AND SWAP1 POP DUP2 PUSH1 0x1 PUSH0 PUSH2 0x100 EXP DUP2 SLOAD DUP2 PUSH20 0xFFFFFFFFFFFFFFFFFFFFFFFFFFFFFFFFFFFFFFFF MUL NOT AND SWAP1 DUP4 PUSH20 0xFFFFFFFFFFFFFFFFFFFFFFFFFFFFFFFFFFFFFFFF AND MUL OR SWAP1 SSTORE POP DUP2 PUSH20 0xFFFFFFFFFFFFFFFFFFFFFFFFFFFFFFFFFFFFFFFF AND DUP2 PUSH20 0xFFFFFFFFFFFFFFFFFFFFFFFFFFFFFFFFFFFFFFFF AND PUSH32 0x8BE0079C531659141344CD1FD0A4F28419497F9722A3DAAFE3B4186F6B6457E0 PUSH1 0x40 MLOAD PUSH1 0x40 MLOAD DUP1 SWAP2 SUB SWAP1 LOG3 POP POP JUMP JUMPDEST PUSH0 DUP2 SWAP1 POP SWAP2 SWAP1 POP JUMP JUMPDEST PUSH2 0x193 DUP2 PUSH2 0x181 JUMP JUMPDEST DUP3 MSTORE POP POP JUMP JUMPDEST PUSH0 DUP2 SWAP1 POP SWAP2 SWAP1 POP JUMP JUMPDEST PUSH0 DUP2 SWAP1 POP SWAP2 SWAP1 POP JUMP JUMPDEST PUSH0 PUSH2 0x1C5 PUSH2 0x1C0 PUSH2 0x1BB DUP5 PUSH2 0x199 JUMP JUMPDEST PUSH2 0x1A2 JUMP JUMPDEST PUSH2 0x181 JUMP JUMPDEST SWAP1 POP SWAP2 SWAP1 POP JUMP JUMPDEST PUSH2 0x1D5 DUP2 PUSH2 0x1AB JUMP JUMPDEST DUP3 MSTORE POP POP JUMP JUMPDEST PUSH0 PUSH1 0x40 DUP3 ADD SWAP1 POP PUSH2 0x1EE PUSH0 DUP4 ADD DUP6 PUSH2 0x18A JUMP JUMPDEST PUSH2 0x1FB PUSH1 0x20 DUP4 ADD DUP5 PUSH2 0x1CC JUMP JUMPDEST SWAP4 SWAP3 POP POP POP JUMP JUMPDEST PUSH2 0x57F9 DUP1 PUSH2 0x20F PUSH0 CODECOPY PUSH0 RETURN INVALID PUSH1 0x80 PUSH1 0x40 MSTORE PUSH1 0x4 CALLDATASIZE LT PUSH2 0x207 JUMPI PUSH0 CALLDATALOAD PUSH1 0xE0 SHR DUP1 PUSH4 0x5B769F3C GT PUSH2 0x117 JUMPI DUP1 PUSH4 0xB6B55F25 GT PUSH2 0x9F JUMPI DUP1 PUSH4 0xE1E158A5 GT PUSH2 0x6E JUMPI DUP1 PUSH4 0xE1E158A5 EQ PUSH2 0x769 JUMPI DUP1 PUSH4 0xEF6F156E EQ PUSH2 0x793 JUMPI DUP1 PUSH4 0xF298083B EQ PUSH2 0x7CF JUMPI DUP1 PUSH4 0xF2FDE38B EQ PUSH2 0x7F7 JUMPI DUP1 PUSH4 0xFBEE60A0 EQ PUSH2 0x81F JUMPI PUSH2 0x247 JUMP JUMPDEST DUP1 PUSH4 0xB6B55F25 EQ PUSH2 0x6B1 JUMPI DUP1 PUSH4 0xBA13A572 EQ PUSH2 0x6D9 JUMPI DUP1 PUSH4 0xC75CD70A EQ PUSH2 0x703 JUMPI DUP1 PUSH4 0xDD5967C3 EQ PUSH2 0x73F JUMPI PUSH2 0x247 JUMP JUMPDEST DUP1 PUSH4 0x719CE73E GT PUSH2 0xE6 JUMPI DUP1 PUSH4 0x719CE73E EQ PUSH2 0x5CF JUMPI DUP1 PUSH4 0x8DA5CB5B EQ PUSH2 0x5F9 JUMPI DUP1 PUSH4 0x992B48DE EQ PUSH2 0x623 JUMPI DUP1 PUSH4 0xB0467DEB EQ PUSH2 0x64B JUMPI DUP1 PUSH4 0xB5CB15F7 EQ PUSH2 0x687 JUMPI PUSH2 0x247 JUMP JUMPDEST DUP1 PUSH4 0x5B769F3C EQ PUSH2 0x53D JUMPI DUP1 PUSH4 0x5EEFDD2B EQ PUSH2 0x565 JUMPI DUP1 PUSH4 0x6C9FA59E EQ PUSH2 0x58F JUMPI DUP1 PUSH4 0x715018A6 EQ PUSH2 0x5B9 JUMPI PUSH2 0x247 JUMP JUMPDEST DUP1 PUSH4 0x2F4F21E2 GT PUSH2 0x19A JUMPI DUP1 PUSH4 0x3CCFD60B GT PUSH2 0x169 JUMPI DUP1 PUSH4 0x3CCFD60B EQ PUSH2 0x483 JUMPI DUP1 PUSH4 0x3FC8CEF3 EQ PUSH2 0x499 JUMPI DUP1 PUSH4 0x40F797BB EQ PUSH2 0x4C3 JUMPI DUP1 PUSH4 0x4615102C EQ PUSH2 0x4EB JUMPI DUP1 PUSH4 0x5727E25D EQ PUSH2 0x513 JUMPI PUSH2 0x247 JUMP JUMPDEST DUP1 PUSH4 0x2F4F21E2 EQ PUSH2 0x3E1 JUMPI DUP1 PUSH4 0x336C6D39 EQ PUSH2 0x409 JUMPI DUP1 PUSH4 0x3576F6CC EQ PUSH2 0x431 JUMPI DUP1 PUSH4 0x362B5198 EQ PUSH2 0x459 JUMPI PUSH2 0x247 JUMP JUMPDEST DUP1 PUSH4 0x2434C5BD GT PUSH2 0x1D6 JUMPI DUP1 PUSH4 0x2434C5BD EQ PUSH2 0x329 JUMPI DUP1 PUSH4 0x2A194B6D EQ PUSH2 0x365 JUMPI DUP1 PUSH4 0x2BDB0D92 EQ PUSH2 0x38F JUMPI DUP1 PUSH4 0x2E1A7D4D EQ PUSH2 0x3B9 JUMPI PUSH2 0x247 JUMP JUMPDEST DUP1 PUSH4 0x6ABA0E1 EQ PUSH2 0x24B JUMPI DUP1 PUSH4 0x8F43333 EQ PUSH2 0x275 JUMPI DUP1 PUSH4 0xBA36DCD EQ PUSH2 0x2B1 JUMPI DUP1 PUSH4 0x111663E8 EQ PUSH2 0x2ED JUMPI PUSH2 0x247 JUMP JUMPDEST CALLDATASIZE PUSH2 0x247 JUMPI PUSH1 0x40 MLOAD PUSH32 0x8C379A000000000000000000000000000000000000000000000000000000000 DUP2 MSTORE PUSH1 0x4 ADD PUSH2 0x23E SWAP1 PUSH2 0x41B6 JUMP JUMPDEST PUSH1 0x40 MLOAD DUP1 SWAP2 SUB SWAP1 REVERT JUMPDEST PUSH0 PUSH0 REVERT JUMPDEST CALLVALUE DUP1 ISZERO PUSH2 0x256 JUMPI PUSH0 PUSH0 REVERT JUMPDEST POP PUSH2 0x25F PUSH2 0x85B JUMP JUMPDEST PUSH1 0x40 MLOAD PUSH2 0x26C SWAP2 SWAP1 PUSH2 0x41EC JUMP JUMPDEST PUSH1 0x40 MLOAD DUP1 SWAP2 SUB SWAP1 RETURN JUMPDEST CALLVALUE DUP1 ISZERO PUSH2 0x280 JUMPI PUSH0 PUSH0 REVERT JUMPDEST POP PUSH2 0x29B PUSH1 0x4 DUP1 CALLDATASIZE SUB DUP2 ADD SWAP1 PUSH2 0x296 SWAP2 SWAP1 PUSH2 0x428D JUMP JUMPDEST PUSH2 0x908 JUMP JUMPDEST PUSH1 0x40 MLOAD PUSH2 0x2A8 SWAP2 SWAP1 PUSH2 0x4379 JUMP JUMPDEST PUSH1 0x40 MLOAD DUP1 SWAP2 SUB SWAP1 RETURN JUMPDEST CALLVALUE DUP1 ISZERO PUSH2 0x2BC JUMPI PUSH0 PUSH0 REVERT JUMPDEST POP PUSH2 0x2D7 PUSH1 0x4 DUP1 CALLDATASIZE SUB DUP2 ADD SWAP1 PUSH2 0x2D2 SWAP2 SWAP1 PUSH2 0x4392 JUMP JUMPDEST PUSH2 0xA1C JUMP JUMPDEST PUSH1 0x40 MLOAD PUSH2 0x2E4 SWAP2 SWAP1 PUSH2 0x4379 JUMP JUMPDEST PUSH1 0x40 MLOAD DUP1 SWAP2 SUB SWAP1 RETURN JUMPDEST CALLVALUE DUP1 ISZERO PUSH2 0x2F8 JUMPI PUSH0 PUSH0 REVERT JUMPDEST POP PUSH2 0x313 PUSH1 0x4 DUP1 CALLDATASIZE SUB DUP2 ADD SWAP1 PUSH2 0x30E SWAP2 SWAP1 PUSH2 0x43BD JUMP JUMPDEST PUSH2 0xBC1 JUMP JUMPDEST PUSH1 0x40 MLOAD PUSH2 0x320 SWAP2 SWAP1 PUSH2 0x4402 JUMP JUMPDEST PUSH1 0x40 MLOAD DUP1 SWAP2 SUB SWAP1 RETURN JUMPDEST CALLVALUE DUP1 ISZERO PUSH2 0x334 JUMPI PUSH0 PUSH0 REVERT JUMPDEST POP PUSH2 0x34F PUSH1 0x4 DUP1 CALLDATASIZE SUB DUP2 ADD SWAP1 PUSH2 0x34A SWAP2 SWAP1 PUSH2 0x43BD JUMP JUMPDEST PUSH2 0xFDD JUMP JUMPDEST PUSH1 0x40 MLOAD PUSH2 0x35C SWAP2 SWAP1 PUSH2 0x41EC JUMP JUMPDEST PUSH1 0x40 MLOAD DUP1 SWAP2 SUB SWAP1 RETURN JUMPDEST CALLVALUE DUP1 ISZERO PUSH2 0x370 JUMPI PUSH0 PUSH0 REVERT JUMPDEST POP PUSH2 0x379 PUSH2 0xFFA JUMP JUMPDEST PUSH1 0x40 MLOAD PUSH2 0x386 SWAP2 SWAP1 PUSH2 0x442A JUMP JUMPDEST PUSH1 0x40 MLOAD DUP1 SWAP2 SUB SWAP1 RETURN JUMPDEST CALLVALUE DUP1 ISZERO PUSH2 0x39A JUMPI PUSH0 PUSH0 REVERT JUMPDEST POP PUSH2 0x3A3 PUSH2 0x101F JUMP JUMPDEST PUSH1 0x40 MLOAD PUSH2 0x3B0 SWAP2 SWAP1 PUSH2 0x442A JUMP JUMPDEST PUSH1 0x40 MLOAD DUP1 SWAP2 SUB SWAP1 RETURN JUMPDEST CALLVALUE DUP1 ISZERO PUSH2 0x3C4 JUMPI PUSH0 PUSH0 REVERT JUMPDEST POP PUSH2 0x3DF PUSH1 0x4 DUP1 CALLDATASIZE SUB DUP2 ADD SWAP1 PUSH2 0x3DA SWAP2 SWAP1 PUSH2 0x43BD JUMP JUMPDEST PUSH2 0x1047 JUMP JUMPDEST STOP JUMPDEST CALLVALUE DUP1 ISZERO PUSH2 0x3EC JUMPI PUSH0 PUSH0 REVERT JUMPDEST POP PUSH2 0x407 PUSH1 0x4 DUP1 CALLDATASIZE SUB DUP2 ADD SWAP1 PUSH2 0x402 SWAP2 SWAP1 PUSH2 0x428D JUMP JUMPDEST PUSH2 0x10A6 JUMP JUMPDEST STOP JUMPDEST CALLVALUE DUP1 ISZERO PUSH2 0x414 JUMPI PUSH0 PUSH0 REVERT JUMPDEST POP PUSH2 0x42F PUSH1 0x4 DUP1 CALLDATASIZE SUB DUP2 ADD SWAP1 PUSH2 0x42A SWAP2 SWAP1 PUSH2 0x4392 JUMP JUMPDEST PUSH2 0x1106 JUMP JUMPDEST STOP JUMPDEST CALLVALUE DUP1 ISZERO PUSH2 0x43C JUMPI PUSH0 PUSH0 REVERT JUMPDEST POP PUSH2 0x457 PUSH1 0x4 DUP1 CALLDATASIZE SUB DUP2 ADD SWAP1 PUSH2 0x452 SWAP2 SWAP1 PUSH2 0x4443 JUMP JUMPDEST PUSH2 0x12B3 JUMP JUMPDEST STOP JUMPDEST CALLVALUE DUP1 ISZERO PUSH2 0x464 JUMPI PUSH0 PUSH0 REVERT JUMPDEST POP PUSH2 0x46D PUSH2 0x1313 JUMP JUMPDEST PUSH1 0x40 MLOAD PUSH2 0x47A SWAP2 SWAP1 PUSH2 0x41EC JUMP JUMPDEST PUSH1 0x40 MLOAD DUP1 SWAP2 SUB SWAP1 RETURN JUMPDEST CALLVALUE DUP1 ISZERO PUSH2 0x48E JUMPI PUSH0 PUSH0 REVERT JUMPDEST POP PUSH2 0x497 PUSH2 0x131C JUMP JUMPDEST STOP JUMPDEST CALLVALUE DUP1 ISZERO PUSH2 0x4A4 JUMPI PUSH0 PUSH0 REVERT JUMPDEST POP PUSH2 0x4AD PUSH2 0x140C JUMP JUMPDEST PUSH1 0x40 MLOAD PUSH2 0x4BA SWAP2 SWAP1 PUSH2 0x442A JUMP JUMPDEST PUSH1 0x40 MLOAD DUP1 SWAP2 SUB SWAP1 RETURN JUMPDEST CALLVALUE DUP1 ISZERO PUSH2 0x4CE JUMPI PUSH0 PUSH0 REVERT JUMPDEST POP PUSH2 0x4E9 PUSH1 0x4 DUP1 CALLDATASIZE SUB DUP2 ADD SWAP1 PUSH2 0x4E4 SWAP2 SWAP1 PUSH2 0x4392 JUMP JUMPDEST PUSH2 0x1434 JUMP JUMPDEST STOP JUMPDEST CALLVALUE DUP1 ISZERO PUSH2 0x4F6 JUMPI PUSH0 PUSH0 REVERT JUMPDEST POP PUSH2 0x511 PUSH1 0x4 DUP1 CALLDATASIZE SUB DUP2 ADD SWAP1 PUSH2 0x50C SWAP2 SWAP1 PUSH2 0x43BD JUMP JUMPDEST PUSH2 0x15E1 JUMP JUMPDEST STOP JUMPDEST CALLVALUE DUP1 ISZERO PUSH2 0x51E JUMPI PUSH0 PUSH0 REVERT JUMPDEST POP PUSH2 0x527 PUSH2 0x185A JUMP JUMPDEST PUSH1 0x40 MLOAD PUSH2 0x534 SWAP2 SWAP1 PUSH2 0x41EC JUMP JUMPDEST PUSH1 0x40 MLOAD DUP1 SWAP2 SUB SWAP1 RETURN JUMPDEST CALLVALUE DUP1 ISZERO PUSH2 0x548 JUMPI PUSH0 PUSH0 REVERT JUMPDEST POP PUSH2 0x563 PUSH1 0x4 DUP1 CALLDATASIZE SUB DUP2 ADD SWAP1 PUSH2 0x55E SWAP2 SWAP1 PUSH2 0x4392 JUMP JUMPDEST PUSH2 0x18EE JUMP JUMPDEST STOP JUMPDEST CALLVALUE DUP1 ISZERO PUSH2 0x570 JUMPI PUSH0 PUSH0 REVERT JUMPDEST POP PUSH2 0x579 PUSH2 0x1A9B JUMP JUMPDEST PUSH1 0x40 MLOAD PUSH2 0x586 SWAP2 SWAP1 PUSH2 0x41EC JUMP JUMPDEST PUSH1 0x40 MLOAD DUP1 SWAP2 SUB SWAP1 RETURN JUMPDEST CALLVALUE DUP1 ISZERO PUSH2 0x59A JUMPI PUSH0 PUSH0 REVERT JUMPDEST POP PUSH2 0x5A3 PUSH2 0x1B47 JUMP JUMPDEST PUSH1 0x40 MLOAD PUSH2 0x5B0 SWAP2 SWAP1 PUSH2 0x442A JUMP JUMPDEST PUSH1 0x40 MLOAD DUP1 SWAP2 SUB SWAP1 RETURN JUMPDEST CALLVALUE DUP1 ISZERO PUSH2 0x5C4 JUMPI PUSH0 PUSH0 REVERT JUMPDEST POP PUSH2 0x5CD PUSH2 0x1B6C JUMP JUMPDEST STOP JUMPDEST CALLVALUE DUP1 ISZERO PUSH2 0x5DA JUMPI PUSH0 PUSH0 REVERT JUMPDEST POP PUSH2 0x5E3 PUSH2 0x1BF3 JUMP JUMPDEST PUSH1 0x40 MLOAD PUSH2 0x5F0 SWAP2 SWAP1 PUSH2 0x442A JUMP JUMPDEST PUSH1 0x40 MLOAD DUP1 SWAP2 SUB SWAP1 RETURN JUMPDEST CALLVALUE DUP1 ISZERO PUSH2 0x604 JUMPI PUSH0 PUSH0 REVERT JUMPDEST POP PUSH2 0x60D PUSH2 0x1C18 JUMP JUMPDEST PUSH1 0x40 MLOAD PUSH2 0x61A SWAP2 SWAP1 PUSH2 0x442A JUMP JUMPDEST PUSH1 0x40 MLOAD DUP1 SWAP2 SUB SWAP1 RETURN JUMPDEST CALLVALUE DUP1 ISZERO PUSH2 0x62E JUMPI PUSH0 PUSH0 REVERT JUMPDEST POP PUSH2 0x649 PUSH1 0x4 DUP1 CALLDATASIZE SUB DUP2 ADD SWAP1 PUSH2 0x644 SWAP2 SWAP1 PUSH2 0x4392 JUMP JUMPDEST PUSH2 0x1C40 JUMP JUMPDEST STOP JUMPDEST CALLVALUE DUP1 ISZERO PUSH2 0x656 JUMPI PUSH0 PUSH0 REVERT JUMPDEST POP PUSH2 0x671 PUSH1 0x4 DUP1 CALLDATASIZE SUB DUP2 ADD SWAP1 PUSH2 0x66C SWAP2 SWAP1 PUSH2 0x43BD JUMP JUMPDEST PUSH2 0x1DED JUMP JUMPDEST PUSH1 0x40 MLOAD PUSH2 0x67E SWAP2 SWAP1 PUSH2 0x442A JUMP JUMPDEST PUSH1 0x40 MLOAD DUP1 SWAP2 SUB SWAP1 RETURN JUMPDEST CALLVALUE DUP1 ISZERO PUSH2 0x692 JUMPI PUSH0 PUSH0 REVERT JUMPDEST POP PUSH2 0x69B PUSH2 0x1F2E JUMP JUMPDEST PUSH1 0x40 MLOAD PUSH2 0x6A8 SWAP2 SWAP1 PUSH2 0x41EC JUMP JUMPDEST PUSH1 0x40 MLOAD DUP1 SWAP2 SUB SWAP1 RETURN JUMPDEST CALLVALUE DUP1 ISZERO PUSH2 0x6BC JUMPI PUSH0 PUSH0 REVERT JUMPDEST POP PUSH2 0x6D7 PUSH1 0x4 DUP1 CALLDATASIZE SUB DUP2 ADD SWAP1 PUSH2 0x6D2 SWAP2 SWAP1 PUSH2 0x43BD JUMP JUMPDEST PUSH2 0x1FDB JUMP JUMPDEST STOP JUMPDEST CALLVALUE DUP1 ISZERO PUSH2 0x6E4 JUMPI PUSH0 PUSH0 REVERT JUMPDEST POP PUSH2 0x6ED PUSH2 0x203A JUMP JUMPDEST PUSH1 0x40 MLOAD PUSH2 0x6FA SWAP2 SWAP1 PUSH2 0x442A JUMP JUMPDEST PUSH1 0x40 MLOAD DUP1 SWAP2 SUB SWAP1 RETURN JUMPDEST CALLVALUE DUP1 ISZERO PUSH2 0x70E JUMPI PUSH0 PUSH0 REVERT JUMPDEST POP PUSH2 0x729 PUSH1 0x4 DUP1 CALLDATASIZE SUB DUP2 ADD SWAP1 PUSH2 0x724 SWAP2 SWAP1 PUSH2 0x4481 JUMP JUMPDEST PUSH2 0x205F JUMP JUMPDEST PUSH1 0x40 MLOAD PUSH2 0x736 SWAP2 SWAP1 PUSH2 0x442A JUMP JUMPDEST PUSH1 0x40 MLOAD DUP1 SWAP2 SUB SWAP1 RETURN JUMPDEST CALLVALUE DUP1 ISZERO PUSH2 0x74A JUMPI PUSH0 PUSH0 REVERT JUMPDEST POP PUSH2 0x753 PUSH2 0x210F JUMP JUMPDEST PUSH1 0x40 MLOAD PUSH2 0x760 SWAP2 SWAP1 PUSH2 0x41EC JUMP JUMPDEST PUSH1 0x40 MLOAD DUP1 SWAP2 SUB SWAP1 RETURN JUMPDEST CALLVALUE DUP1 ISZERO PUSH2 0x774 JUMPI PUSH0 PUSH0 REVERT JUMPDEST POP PUSH2 0x77D PUSH2 0x211B JUMP JUMPDEST PUSH1 0x40 MLOAD PUSH2 0x78A SWAP2 SWAP1 PUSH2 0x41EC JUMP JUMPDEST PUSH1 0x40 MLOAD DUP1 SWAP2 SUB SWAP1 RETURN JUMPDEST CALLVALUE DUP1 ISZERO PUSH2 0x79E JUMPI PUSH0 PUSH0 REVERT JUMPDEST POP PUSH2 0x7B9 PUSH1 0x4 DUP1 CALLDATASIZE SUB DUP2 ADD SWAP1 PUSH2 0x7B4 SWAP2 SWAP1 PUSH2 0x43BD JUMP JUMPDEST PUSH2 0x2127 JUMP JUMPDEST PUSH1 0x40 MLOAD PUSH2 0x7C6 SWAP2 SWAP1 PUSH2 0x41EC JUMP JUMPDEST PUSH1 0x40 MLOAD DUP1 SWAP2 SUB SWAP1 RETURN JUMPDEST CALLVALUE DUP1 ISZERO PUSH2 0x7DA JUMPI PUSH0 PUSH0 REVERT JUMPDEST POP PUSH2 0x7F5 PUSH1 0x4 DUP1 CALLDATASIZE SUB DUP2 ADD SWAP1 PUSH2 0x7F0 SWAP2 SWAP1 PUSH2 0x4392 JUMP JUMPDEST PUSH2 0x2144 JUMP JUMPDEST STOP JUMPDEST CALLVALUE DUP1 ISZERO PUSH2 0x802 JUMPI PUSH0 PUSH0 REVERT JUMPDEST POP PUSH2 0x81D PUSH1 0x4 DUP1 CALLDATASIZE SUB DUP2 ADD SWAP1 PUSH2 0x818 SWAP2 SWAP1 PUSH2 0x4392 JUMP JUMPDEST PUSH2 0x22F1 JUMP JUMPDEST STOP JUMPDEST CALLVALUE DUP1 ISZERO PUSH2 0x82A JUMPI PUSH0 PUSH0 REVERT JUMPDEST POP PUSH2 0x845 PUSH1 0x4 DUP1 CALLDATASIZE SUB DUP2 ADD SWAP1 PUSH2 0x840 SWAP2 SWAP1 PUSH2 0x43BD JUMP JUMPDEST PUSH2 0x23E7 JUMP JUMPDEST PUSH1 0x40 MLOAD PUSH2 0x852 SWAP2 SWAP1 PUSH2 0x41EC JUMP JUMPDEST PUSH1 0x40 MLOAD DUP1 SWAP2 SUB SWAP1 RETURN JUMPDEST PUSH0 PUSH0 PUSH1 0x2 PUSH0 SWAP1 SLOAD SWAP1 PUSH2 0x100 EXP SWAP1 DIV PUSH20 0xFFFFFFFFFFFFFFFFFFFFFFFFFFFFFFFFFFFFFFFF AND PUSH20 0xFFFFFFFFFFFFFFFFFFFFFFFFFFFFFFFFFFFFFFFF AND PUSH4 0x5727E25D PUSH1 0x40 MLOAD DUP2 PUSH4 0xFFFFFFFF AND PUSH1 0xE0 SHL DUP2 MSTORE PUSH1 0x4 ADD PUSH1 0x20 PUSH1 0x40 MLOAD DUP1 DUP4 SUB DUP2 DUP7 GAS STATICCALL ISZERO DUP1 ISZERO PUSH2 0x8C7 JUMPI RETURNDATASIZE PUSH0 PUSH0 RETURNDATACOPY RETURNDATASIZE PUSH0 REVERT JUMPDEST POP POP POP POP PUSH1 0x40 MLOAD RETURNDATASIZE PUSH1 0x1F NOT PUSH1 0x1F DUP3 ADD AND DUP3 ADD DUP1 PUSH1 0x40 MSTORE POP DUP2 ADD SWAP1 PUSH2 0x8EB SWAP2 SWAP1 PUSH2 0x44D3 JUMP JUMPDEST SWAP1 POP PUSH1 0x7 PUSH0 DUP3 DUP2 MSTORE PUSH1 0x20 ADD SWAP1 DUP2 MSTORE PUSH1 0x20 ADD PUSH0 KECCAK256 PUSH1 0x8 ADD SLOAD SWAP2 POP POP SWAP1 JUMP JUMPDEST PUSH2 0x910 PUSH2 0x40A6 JUMP JUMPDEST PUSH1 0x7 PUSH0 DUP4 DUP2 MSTORE PUSH1 0x20 ADD SWAP1 DUP2 MSTORE PUSH1 0x20 ADD PUSH0 KECCAK256 PUSH1 0x3 ADD PUSH0 DUP5 PUSH20 0xFFFFFFFFFFFFFFFFFFFFFFFFFFFFFFFFFFFFFFFF AND PUSH20 0xFFFFFFFFFFFFFFFFFFFFFFFFFFFFFFFFFFFFFFFF AND DUP2 MSTORE PUSH1 0x20 ADD SWAP1 DUP2 MSTORE PUSH1 0x20 ADD PUSH0 KECCAK256 PUSH1 0x40 MLOAD DUP1 PUSH1 0x60 ADD PUSH1 0x40 MSTORE SWAP1 DUP2 PUSH0 DUP3 ADD PUSH0 SWAP1 SLOAD SWAP1 PUSH2 0x100 EXP SWAP1 DIV PUSH16 0xFFFFFFFFFFFFFFFFFFFFFFFFFFFFFFFF AND PUSH16 0xFFFFFFFFFFFFFFFFFFFFFFFFFFFFFFFF AND PUSH16 0xFFFFFFFFFFFFFFFFFFFFFFFFFFFFFFFF AND DUP2 MSTORE PUSH1 0x20 ADD PUSH0 DUP3 ADD PUSH1 0x10 SWAP1 SLOAD SWAP1 PUSH2 0x100 EXP SWAP1 DIV PUSH4 0xFFFFFFFF AND PUSH4 0xFFFFFFFF AND PUSH4 0xFFFFFFFF AND DUP2 MSTORE PUSH1 0x20 ADD PUSH0 DUP3 ADD PUSH1 0x14 SWAP1 SLOAD SWAP1 PUSH2 0x100 EXP SWAP1 DIV PUSH12 0xFFFFFFFFFFFFFFFFFFFFFFFF AND PUSH12 0xFFFFFFFFFFFFFFFFFFFFFFFF AND PUSH12 0xFFFFFFFFFFFFFFFFFFFFFFFF AND DUP2 MSTORE POP POP SWAP1 POP SWAP3 SWAP2 POP POP JUMP JUMPDEST PUSH2 0xA24 PUSH2 0x40A6 JUMP JUMPDEST PUSH0 PUSH1 0x2 PUSH0 SWAP1 SLOAD SWAP1 PUSH2 0x100 EXP SWAP1 DIV PUSH20 0xFFFFFFFFFFFFFFFFFFFFFFFFFFFFFFFFFFFFFFFF AND PUSH20 0xFFFFFFFFFFFFFFFFFFFFFFFFFFFFFFFFFFFFFFFF AND PUSH4 0x5727E25D PUSH1 0x40 MLOAD DUP2 PUSH4 0xFFFFFFFF AND PUSH1 0xE0 SHL DUP2 MSTORE PUSH1 0x4 ADD PUSH1 0x20 PUSH1 0x40 MLOAD DUP1 DUP4 SUB DUP2 DUP7 GAS STATICCALL ISZERO DUP1 ISZERO PUSH2 0xA8F JUMPI RETURNDATASIZE PUSH0 PUSH0 RETURNDATACOPY RETURNDATASIZE PUSH0 REVERT JUMPDEST POP POP POP POP PUSH1 0x40 MLOAD RETURNDATASIZE PUSH1 0x1F NOT PUSH1 0x1F DUP3 ADD AND DUP3 ADD DUP1 PUSH1 0x40 MSTORE POP DUP2 ADD SWAP1 PUSH2 0xAB3 SWAP2 SWAP1 PUSH2 0x44D3 JUMP JUMPDEST SWAP1 POP PUSH1 0x7 PUSH0 DUP3 DUP2 MSTORE PUSH1 0x20 ADD SWAP1 DUP2 MSTORE PUSH1 0x20 ADD PUSH0 KECCAK256 PUSH1 0x3 ADD PUSH0 DUP5 PUSH20 0xFFFFFFFFFFFFFFFFFFFFFFFFFFFFFFFFFFFFFFFF AND PUSH20 0xFFFFFFFFFFFFFFFFFFFFFFFFFFFFFFFFFFFFFFFF AND DUP2 MSTORE PUSH1 0x20 ADD SWAP1 DUP2 MSTORE PUSH1 0x20 ADD PUSH0 KECCAK256 PUSH1 0x40 MLOAD DUP1 PUSH1 0x60 ADD PUSH1 0x40 MSTORE SWAP1 DUP2 PUSH0 DUP3 ADD PUSH0 SWAP1 SLOAD SWAP1 PUSH2 0x100 EXP SWAP1 DIV PUSH16 0xFFFFFFFFFFFFFFFFFFFFFFFFFFFFFFFF AND PUSH16 0xFFFFFFFFFFFFFFFFFFFFFFFFFFFFFFFF AND PUSH16 0xFFFFFFFFFFFFFFFFFFFFFFFFFFFFFFFF AND DUP2 MSTORE PUSH1 0x20 ADD PUSH0 DUP3 ADD PUSH1 0x10 SWAP1 SLOAD SWAP1 PUSH2 0x100 EXP SWAP1 DIV PUSH4 0xFFFFFFFF AND PUSH4 0xFFFFFFFF AND PUSH4 0xFFFFFFFF AND DUP2 MSTORE PUSH1 0x20 ADD PUSH0 DUP3 ADD PUSH1 0x14 SWAP1 SLOAD SWAP1 PUSH2 0x100 EXP SWAP1 DIV PUSH12 0xFFFFFFFFFFFFFFFFFFFFFFFF AND PUSH12 0xFFFFFFFFFFFFFFFFFFFFFFFF AND PUSH12 0xFFFFFFFFFFFFFFFFFFFFFFFF AND DUP2 MSTORE POP POP SWAP2 POP POP SWAP2 SWAP1 POP JUMP JUMPDEST PUSH0 PUSH1 0x3 PUSH0 SWAP1 SLOAD SWAP1 PUSH2 0x100 EXP SWAP1 DIV PUSH20 0xFFFFFFFFFFFFFFFFFFFFFFFFFFFFFFFFFFFFFFFF AND PUSH20 0xFFFFFFFFFFFFFFFFFFFFFFFFFFFFFFFFFFFFFFFF AND CALLER PUSH20 0xFFFFFFFFFFFFFFFFFFFFFFFFFFFFFFFFFFFFFFFF AND EQ PUSH2 0xC51 JUMPI PUSH1 0x40 MLOAD PUSH32 0x8C379A000000000000000000000000000000000000000000000000000000000 DUP2 MSTORE PUSH1 0x4 ADD PUSH2 0xC48 SWAP1 PUSH2 0x456E JUMP JUMPDEST PUSH1 0x40 MLOAD DUP1 SWAP2 SUB SWAP1 REVERT JUMPDEST PUSH0 DUP3 GT PUSH2 0xC93 JUMPI PUSH1 0x40 MLOAD PUSH32 0x8C379A000000000000000000000000000000000000000000000000000000000 DUP2 MSTORE PUSH1 0x4 ADD PUSH2 0xC8A SWAP1 PUSH2 0x45D6 JUMP JUMPDEST PUSH1 0x40 MLOAD DUP1 SWAP2 SUB SWAP1 REVERT JUMPDEST PUSH0 PUSH20 0xFFFFFFFFFFFFFFFFFFFFFFFFFFFFFFFFFFFFFFFF AND PUSH1 0x6 PUSH0 SWAP1 SLOAD SWAP1 PUSH2 0x100 EXP SWAP1 DIV PUSH20 0xFFFFFFFFFFFFFFFFFFFFFFFFFFFFFFFFFFFFFFFF AND PUSH20 0xFFFFFFFFFFFFFFFFFFFFFFFFFFFFFFFFFFFFFFFF AND SUB PUSH2 0xD22 JUMPI PUSH1 0x40 MLOAD PUSH32 0x8C379A000000000000000000000000000000000000000000000000000000000 DUP2 MSTORE PUSH1 0x4 ADD PUSH2 0xD19 SWAP1 PUSH2 0x463E JUMP JUMPDEST PUSH1 0x40 MLOAD DUP1 SWAP2 SUB SWAP1 REVERT JUMPDEST PUSH0 PUSH20 0xFFFFFFFFFFFFFFFFFFFFFFFFFFFFFFFFFFFFFFFF AND PUSH1 0x4 PUSH0 SWAP1 SLOAD SWAP1 PUSH2 0x100 EXP SWAP1 DIV PUSH20 0xFFFFFFFFFFFFFFFFFFFFFFFFFFFFFFFFFFFFFFFF AND PUSH20 0xFFFFFFFFFFFFFFFFFFFFFFFFFFFFFFFFFFFFFFFF AND SUB PUSH2 0xDB1 JUMPI PUSH1 0x40 MLOAD PUSH32 0x8C379A000000000000000000000000000000000000000000000000000000000 DUP2 MSTORE PUSH1 0x4 ADD PUSH2 0xDA8 SWAP1 PUSH2 0x46A6 JUMP JUMPDEST PUSH1 0x40 MLOAD DUP1 SWAP2 SUB SWAP1 REVERT JUMPDEST PUSH2 0xDFF CALLER ADDRESS DUP5 PUSH1 0x4 PUSH0 SWAP1 SLOAD SWAP1 PUSH2 0x100 EXP SWAP1 DIV PUSH20 0xFFFFFFFFFFFFFFFFFFFFFFFFFFFFFFFFFFFFFFFF AND PUSH20 0xFFFFFFFFFFFFFFFFFFFFFFFFFFFFFFFFFFFFFFFF AND PUSH2 0x2403 SWAP1 SWAP4 SWAP3 SWAP2 SWAP1 PUSH4 0xFFFFFFFF AND JUMP JUMPDEST PUSH1 0x4 PUSH0 SWAP1 SLOAD SWAP1 PUSH2 0x100 EXP SWAP1 DIV PUSH20 0xFFFFFFFFFFFFFFFFFFFFFFFFFFFFFFFFFFFFFFFF AND PUSH20 0xFFFFFFFFFFFFFFFFFFFFFFFFFFFFFFFFFFFFFFFF AND PUSH4 0x95EA7B3 PUSH1 0x6 PUSH0 SWAP1 SLOAD SWAP1 PUSH2 0x100 EXP SWAP1 DIV PUSH20 0xFFFFFFFFFFFFFFFFFFFFFFFFFFFFFFFFFFFFFFFF AND DUP5 PUSH1 0x40 MLOAD DUP4 PUSH4 0xFFFFFFFF AND PUSH1 0xE0 SHL DUP2 MSTORE PUSH1 0x4 ADD PUSH2 0xE7C SWAP3 SWAP2 SWAP1 PUSH2 0x46C4 JUMP JUMPDEST PUSH1 0x20 PUSH1 0x40 MLOAD DUP1 DUP4 SUB DUP2 PUSH0 DUP8 GAS CALL ISZERO DUP1 ISZERO PUSH2 0xE98 JUMPI RETURNDATASIZE PUSH0 PUSH0 RETURNDATACOPY RETURNDATASIZE PUSH0 REVERT JUMPDEST POP POP POP POP PUSH1 0x40 MLOAD RETURNDATASIZE PUSH1 0x1F NOT PUSH1 0x1F DUP3 ADD AND DUP3 ADD DUP1 PUSH1 0x40 MSTORE POP DUP2 ADD SWAP1 PUSH2 0xEBC SWAP2 SWAP1 PUSH2 0x4715 JUMP JUMPDEST POP PUSH0 PUSH1 0x6 PUSH0 SWAP1 SLOAD SWAP1 PUSH2 0x100 EXP SWAP1 DIV PUSH20 0xFFFFFFFFFFFFFFFFFFFFFFFFFFFFFFFFFFFFFFFF AND PUSH20 0xFFFFFFFFFFFFFFFFFFFFFFFFFFFFFFFFFFFFFFFF AND PUSH4 0xB6B55F25 DUP5 PUSH1 0x40 MLOAD DUP3 PUSH4 0xFFFFFFFF AND PUSH1 0xE0 SHL DUP2 MSTORE PUSH1 0x4 ADD PUSH2 0xF18 SWAP2 SWAP1 PUSH2 0x41EC JUMP JUMPDEST PUSH1 0x20 PUSH1 0x40 MLOAD DUP1 DUP4 SUB DUP2 PUSH0 DUP8 GAS CALL ISZERO DUP1 ISZERO PUSH2 0xF34 JUMPI RETURNDATASIZE PUSH0 PUSH0 RETURNDATACOPY RETURNDATASIZE PUSH0 REVERT JUMPDEST POP POP POP POP PUSH1 0x40 MLOAD RETURNDATASIZE PUSH1 0x1F NOT PUSH1 0x1F DUP3 ADD AND DUP3 ADD DUP1 PUSH1 0x40 MSTORE POP DUP2 ADD SWAP1 PUSH2 0xF58 SWAP2 SWAP1 PUSH2 0x4715 JUMP JUMPDEST SWAP1 POP DUP1 PUSH2 0xF9A JUMPI PUSH1 0x40 MLOAD PUSH32 0x8C379A000000000000000000000000000000000000000000000000000000000 DUP2 MSTORE PUSH1 0x4 ADD PUSH2 0xF91 SWAP1 PUSH2 0x47B0 JUMP JUMPDEST PUSH1 0x40 MLOAD DUP1 SWAP2 SUB SWAP1 REVERT JUMPDEST PUSH32 0x438640BE9558058E47957699BDABAEFCE31BF0B8662A30791D4FB0E8C76DF723 DUP4 TIMESTAMP PUSH1 0x40 MLOAD PUSH2 0xFCB SWAP3 SWAP2 SWAP1 PUSH2 0x47CE JUMP JUMPDEST PUSH1 0x40 MLOAD DUP1 SWAP2 SUB SWAP1 LOG1 PUSH1 0x1 SWAP2 POP POP SWAP2 SWAP1 POP JUMP JUMPDEST PUSH0 PUSH1 0x7 PUSH0 DUP4 DUP2 MSTORE PUSH1 0x20 ADD SWAP1 DUP2 MSTORE PUSH1 0x20 ADD PUSH0 KECCAK256 PUSH1 0x8 ADD SLOAD SWAP1 POP SWAP2 SWAP1 POP JUMP JUMPDEST PUSH1 0x6 PUSH0 SWAP1 SLOAD SWAP1 PUSH2 0x100 EXP SWAP1 DIV PUSH20 0xFFFFFFFFFFFFFFFFFFFFFFFFFFFFFFFFFFFFFFFF AND DUP2 JUMP JUMPDEST PUSH0 PUSH1 0x5 PUSH0 SWAP1 SLOAD SWAP1 PUSH2 0x100 EXP SWAP1 DIV PUSH20 0xFFFFFFFFFFFFFFFFFFFFFFFFFFFFFFFFFFFFFFFF AND SWAP1 POP SWAP1 JUMP JUMPDEST PUSH1 0x2 PUSH0 SLOAD SUB PUSH2 0x108B JUMPI PUSH1 0x40 MLOAD PUSH32 0x8C379A000000000000000000000000000000000000000000000000000000000 DUP2 MSTORE PUSH1 0x4 ADD PUSH2 0x1082 SWAP1 PUSH2 0x483F JUMP JUMPDEST PUSH1 0x40 MLOAD DUP1 SWAP2 SUB SWAP1 REVERT JUMPDEST PUSH1 0x2 PUSH0 DUP2 SWAP1 SSTORE POP PUSH2 0x109C CALLER DUP3 PUSH2 0x248C JUMP JUMPDEST PUSH1 0x1 PUSH0 DUP2 SWAP1 SSTORE POP POP JUMP JUMPDEST PUSH1 0x2 PUSH0 SLOAD SUB PUSH2 0x10EA JUMPI PUSH1 0x40 MLOAD PUSH32 0x8C379A000000000000000000000000000000000000000000000000000000000 DUP2 MSTORE PUSH1 0x4 ADD PUSH2 0x10E1 SWAP1 PUSH2 0x483F JUMP JUMPDEST PUSH1 0x40 MLOAD DUP1 SWAP2 SUB SWAP1 REVERT JUMPDEST PUSH1 0x2 PUSH0 DUP2 SWAP1 SSTORE POP PUSH2 0x10FB DUP3 DUP3 PUSH2 0x2EB7 JUMP JUMPDEST PUSH1 0x1 PUSH0 DUP2 SWAP1 SSTORE POP POP POP JUMP JUMPDEST PUSH2 0x110E PUSH2 0x397C JUMP JUMPDEST PUSH20 0xFFFFFFFFFFFFFFFFFFFFFFFFFFFFFFFFFFFFFFFF AND PUSH2 0x112C PUSH2 0x1C18 JUMP JUMPDEST PUSH20 0xFFFFFFFFFFFFFFFFFFFFFFFFFFFFFFFFFFFFFFFF AND EQ PUSH2 0x1182 JUMPI PUSH1 0x40 MLOAD PUSH32 0x8C379A000000000000000000000000000000000000000000000000000000000 DUP2 MSTORE PUSH1 0x4 ADD PUSH2 0x1179 SWAP1 PUSH2 0x48A7 JUMP JUMPDEST PUSH1 0x40 MLOAD DUP1 SWAP2 SUB SWAP1 REVERT JUMPDEST PUSH0 PUSH20 0xFFFFFFFFFFFFFFFFFFFFFFFFFFFFFFFFFFFFFFFF AND DUP2 PUSH20 0xFFFFFFFFFFFFFFFFFFFFFFFFFFFFFFFFFFFFFFFF AND SUB PUSH2 0x11F0 JUMPI PUSH1 0x40 MLOAD PUSH32 0x8C379A000000000000000000000000000000000000000000000000000000000 DUP2 MSTORE PUSH1 0x4 ADD PUSH2 0x11E7 SWAP1 PUSH2 0x490F JUMP JUMPDEST PUSH1 0x40 MLOAD DUP1 SWAP2 SUB SWAP1 REVERT JUMPDEST PUSH0 PUSH1 0x3 PUSH0 SWAP1 SLOAD SWAP1 PUSH2 0x100 EXP SWAP1 DIV PUSH20 0xFFFFFFFFFFFFFFFFFFFFFFFFFFFFFFFFFFFFFFFF AND SWAP1 POP DUP2 PUSH1 0x3 PUSH0 PUSH2 0x100 EXP DUP2 SLOAD DUP2 PUSH20 0xFFFFFFFFFFFFFFFFFFFFFFFFFFFFFFFFFFFFFFFF MUL NOT AND SWAP1 DUP4 PUSH20 0xFFFFFFFFFFFFFFFFFFFFFFFFFFFFFFFFFFFFFFFF AND MUL OR SWAP1 SSTORE POP DUP2 PUSH20 0xFFFFFFFFFFFFFFFFFFFFFFFFFFFFFFFFFFFFFFFF AND DUP2 PUSH20 0xFFFFFFFFFFFFFFFFFFFFFFFFFFFFFFFFFFFFFFFF AND PUSH32 0xEB499A54E73D68286A7989029BBBE28EBF38D0F770D0A85CAABC5AD5D392B3C0 PUSH1 0x40 MLOAD PUSH1 0x40 MLOAD DUP1 SWAP2 SUB SWAP1 LOG3 POP POP JUMP JUMPDEST PUSH1 0x2 PUSH0 SLOAD SUB PUSH2 0x12F7 JUMPI PUSH1 0x40 MLOAD PUSH32 0x8C379A000000000000000000000000000000000000000000000000000000000 DUP2 MSTORE PUSH1 0x4 ADD PUSH2 0x12EE SWAP1 PUSH2 0x483F JUMP JUMPDEST PUSH1 0x40 MLOAD DUP1 SWAP2 SUB SWAP1 REVERT JUMPDEST PUSH1 0x2 PUSH0 DUP2 SWAP1 SSTORE POP PUSH2 0x1308 DUP2 DUP4 PUSH2 0x248C JUMP JUMPDEST PUSH1 0x1 PUSH0 DUP2 SWAP1 SSTORE POP POP POP JUMP JUMPDEST PUSH0 PUSH1 0x8 SLOAD SWAP1 POP SWAP1 JUMP JUMPDEST PUSH1 0x2 PUSH0 SLOAD SUB PUSH2 0x1360 JUMPI PUSH1 0x40 MLOAD PUSH32 0x8C379A000000000000000000000000000000000000000000000000000000000 DUP2 MSTORE PUSH1 0x4 ADD PUSH2 0x1357 SWAP1 PUSH2 0x483F JUMP JUMPDEST PUSH1 0x40 MLOAD DUP1 SWAP2 SUB SWAP1 REVERT JUMPDEST PUSH1 0x2 PUSH0 DUP2 SWAP1 SSTORE POP PUSH0 PUSH1 0x2 PUSH0 SWAP1 SLOAD SWAP1 PUSH2 0x100 EXP SWAP1 DIV PUSH20 0xFFFFFFFFFFFFFFFFFFFFFFFFFFFFFFFFFFFFFFFF AND PUSH20 0xFFFFFFFFFFFFFFFFFFFFFFFFFFFFFFFFFFFFFFFF AND PUSH4 0x5727E25D PUSH1 0x40 MLOAD DUP2 PUSH4 0xFFFFFFFF AND PUSH1 0xE0 SHL DUP2 MSTORE PUSH1 0x4 ADD PUSH1 0x20 PUSH1 0x40 MLOAD DUP1 DUP4 SUB DUP2 DUP7 GAS STATICCALL ISZERO DUP1 ISZERO PUSH2 0x13D2 JUMPI RETURNDATASIZE PUSH0 PUSH0 RETURNDATACOPY RETURNDATASIZE PUSH0 REVERT JUMPDEST POP POP POP POP PUSH1 0x40 MLOAD RETURNDATASIZE PUSH1 0x1F NOT PUSH1 0x1F DUP3 ADD AND DUP3 ADD DUP1 PUSH1 0x40 MSTORE POP DUP2 ADD SWAP1 PUSH2 0x13F6 SWAP2 SWAP1 PUSH2 0x44D3 JUMP JUMPDEST SWAP1 POP PUSH2 0x1402 CALLER DUP3 PUSH2 0x248C JUMP JUMPDEST POP PUSH1 0x1 PUSH0 DUP2 SWAP1 SSTORE POP JUMP JUMPDEST PUSH0 PUSH1 0x4 PUSH0 SWAP1 SLOAD SWAP1 PUSH2 0x100 EXP SWAP1 DIV PUSH20 0xFFFFFFFFFFFFFFFFFFFFFFFFFFFFFFFFFFFFFFFF AND SWAP1 POP SWAP1 JUMP JUMPDEST PUSH2 0x143C PUSH2 0x397C JUMP JUMPDEST PUSH20 0xFFFFFFFFFFFFFFFFFFFFFFFFFFFFFFFFFFFFFFFF AND PUSH2 0x145A PUSH2 0x1C18 JUMP JUMPDEST PUSH20 0xFFFFFFFFFFFFFFFFFFFFFFFFFFFFFFFFFFFFFFFF AND EQ PUSH2 0x14B0 JUMPI PUSH1 0x40 MLOAD PUSH32 0x8C379A000000000000000000000000000000000000000000000000000000000 DUP2 MSTORE PUSH1 0x4 ADD PUSH2 0x14A7 SWAP1 PUSH2 0x48A7 JUMP JUMPDEST PUSH1 0x40 MLOAD DUP1 SWAP2 SUB SWAP1 REVERT JUMPDEST PUSH0 PUSH20 0xFFFFFFFFFFFFFFFFFFFFFFFFFFFFFFFFFFFFFFFF AND DUP2 PUSH20 0xFFFFFFFFFFFFFFFFFFFFFFFFFFFFFFFFFFFFFFFF AND SUB PUSH2 0x151E JUMPI PUSH1 0x40 MLOAD PUSH32 0x8C379A000000000000000000000000000000000000000000000000000000000 DUP2 MSTORE PUSH1 0x4 ADD PUSH2 0x1515 SWAP1 PUSH2 0x4977 JUMP JUMPDEST PUSH1 0x40 MLOAD DUP1 SWAP2 SUB SWAP1 REVERT JUMPDEST PUSH0 PUSH1 0x5 PUSH0 SWAP1 SLOAD SWAP1 PUSH2 0x100 EXP SWAP1 DIV PUSH20 0xFFFFFFFFFFFFFFFFFFFFFFFFFFFFFFFFFFFFFFFF AND SWAP1 POP DUP2 PUSH1 0x5 PUSH0 PUSH2 0x100 EXP DUP2 SLOAD DUP2 PUSH20 0xFFFFFFFFFFFFFFFFFFFFFFFFFFFFFFFFFFFFFFFF MUL NOT AND SWAP1 DUP4 PUSH20 0xFFFFFFFFFFFFFFFFFFFFFFFFFFFFFFFFFFFFFFFF AND MUL OR SWAP1 SSTORE POP DUP2 PUSH20 0xFFFFFFFFFFFFFFFFFFFFFFFFFFFFFFFFFFFFFFFF AND DUP2 PUSH20 0xFFFFFFFFFFFFFFFFFFFFFFFFFFFFFFFFFFFFFFFF AND PUSH32 0x57BC6D6B665D72C5DC5D954B9AD0F23E034670FD43F0FFA65BB8A9A8AD3C03A4 PUSH1 0x40 MLOAD PUSH1 0x40 MLOAD DUP1 SWAP2 SUB SWAP1 LOG3 POP POP JUMP JUMPDEST PUSH1 0x2 PUSH0 SWAP1 SLOAD SWAP1 PUSH2 0x100 EXP SWAP1 DIV PUSH20 0xFFFFFFFFFFFFFFFFFFFFFFFFFFFFFFFFFFFFFFFF AND PUSH20 0xFFFFFFFFFFFFFFFFFFFFFFFFFFFFFFFFFFFFFFFF AND CALLER PUSH20 0xFFFFFFFFFFFFFFFFFFFFFFFFFFFFFFFFFFFFFFFF AND EQ PUSH2 0x1670 JUMPI PUSH1 0x40 MLOAD PUSH32 0x8C379A000000000000000000000000000000000000000000000000000000000 DUP2 MSTORE PUSH1 0x4 ADD PUSH2 0x1667 SWAP1 PUSH2 0x4A05 JUMP JUMPDEST PUSH1 0x40 MLOAD DUP1 SWAP2 SUB SWAP1 REVERT JUMPDEST PUSH0 PUSH1 0x2 PUSH0 SWAP1 SLOAD SWAP1 PUSH2 0x100 EXP SWAP1 DIV PUSH20 0xFFFFFFFFFFFFFFFFFFFFFFFFFFFFFFFFFFFFFFFF AND PUSH20 0xFFFFFFFFFFFFFFFFFFFFFFFFFFFFFFFFFFFFFFFF AND PUSH4 0xB675B332 PUSH1 0x40 MLOAD DUP2 PUSH4 0xFFFFFFFF AND PUSH1 0xE0 SHL DUP2 MSTORE PUSH1 0x4 ADD PUSH1 0x20 PUSH1 0x40 MLOAD DUP1 DUP4 SUB DUP2 DUP7 GAS STATICCALL ISZERO DUP1 ISZERO PUSH2 0x16DB JUMPI RETURNDATASIZE PUSH0 PUSH0 RETURNDATACOPY RETURNDATASIZE PUSH0 REVERT JUMPDEST POP POP POP POP PUSH1 0x40 MLOAD RETURNDATASIZE PUSH1 0x1F NOT PUSH1 0x1F DUP3 ADD AND DUP3 ADD DUP1 PUSH1 0x40 MSTORE POP DUP2 ADD SWAP1 PUSH2 0x16FF SWAP2 SWAP1 PUSH2 0x44D3 JUMP JUMPDEST SWAP1 POP PUSH0 PUSH1 0x2 PUSH0 SWAP1 SLOAD SWAP1 PUSH2 0x100 EXP SWAP1 DIV PUSH20 0xFFFFFFFFFFFFFFFFFFFFFFFFFFFFFFFFFFFFFFFF AND PUSH20 0xFFFFFFFFFFFFFFFFFFFFFFFFFFFFFFFFFFFFFFFF AND PUSH4 0x5727E25D PUSH1 0x40 MLOAD DUP2 PUSH4 0xFFFFFFFF AND PUSH1 0xE0 SHL DUP2 MSTORE PUSH1 0x4 ADD PUSH1 0x20 PUSH1 0x40 MLOAD DUP1 DUP4 SUB DUP2 DUP7 GAS STATICCALL ISZERO DUP1 ISZERO PUSH2 0x176C JUMPI RETURNDATASIZE PUSH0 PUSH0 RETURNDATACOPY RETURNDATASIZE PUSH0 REVERT JUMPDEST POP POP POP POP PUSH1 0x40 MLOAD RETURNDATASIZE PUSH1 0x1F NOT PUSH1 0x1F DUP3 ADD AND DUP3 ADD DUP1 PUSH1 0x40 MSTORE POP DUP2 ADD SWAP1 PUSH2 0x1790 SWAP2 SWAP1 PUSH2 0x44D3 JUMP JUMPDEST SWAP1 POP PUSH0 PUSH1 0x7 PUSH0 DUP4 DUP2 MSTORE PUSH1 0x20 ADD SWAP1 DUP2 MSTORE PUSH1 0x20 ADD PUSH0 KECCAK256 PUSH1 0x6 ADD PUSH0 PUSH2 0x100 EXP DUP2 SLOAD DUP2 PUSH1 0xFF MUL NOT AND SWAP1 DUP4 ISZERO ISZERO MUL OR SWAP1 SSTORE POP PUSH1 0x1 PUSH1 0x7 PUSH0 DUP6 DUP2 MSTORE PUSH1 0x20 ADD SWAP1 DUP2 MSTORE PUSH1 0x20 ADD PUSH0 KECCAK256 PUSH1 0x6 ADD PUSH0 PUSH2 0x100 EXP DUP2 SLOAD DUP2 PUSH1 0xFF MUL NOT AND SWAP1 DUP4 ISZERO ISZERO MUL OR SWAP1 SSTORE POP DUP2 PUSH1 0x7 PUSH0 DUP6 DUP2 MSTORE PUSH1 0x20 ADD SWAP1 DUP2 MSTORE PUSH1 0x20 ADD PUSH0 KECCAK256 PUSH1 0x7 ADD DUP2 SWAP1 SSTORE POP PUSH0 PUSH1 0x7 PUSH0 DUP6 DUP2 MSTORE PUSH1 0x20 ADD SWAP1 DUP2 MSTORE PUSH1 0x20 ADD PUSH0 KECCAK256 PUSH1 0x8 ADD DUP2 SWAP1 SSTORE POP DUP3 PUSH32 0xB0B0C60F0267584D50A65485B5EFF6BABAD43C5727703515FDE33BB545B19114 TIMESTAMP DUP5 PUSH1 0x40 MLOAD PUSH2 0x184D SWAP3 SWAP2 SWAP1 PUSH2 0x47CE JUMP JUMPDEST PUSH1 0x40 MLOAD DUP1 SWAP2 SUB SWAP1 LOG2 POP POP POP JUMP JUMPDEST PUSH0 PUSH1 0x2 PUSH0 SWAP1 SLOAD SWAP1 PUSH2 0x100 EXP SWAP1 DIV PUSH20 0xFFFFFFFFFFFFFFFFFFFFFFFFFFFFFFFFFFFFFFFF AND PUSH20 0xFFFFFFFFFFFFFFFFFFFFFFFFFFFFFFFFFFFFFFFF AND PUSH4 0x5727E25D PUSH1 0x40 MLOAD DUP2 PUSH4 0xFFFFFFFF AND PUSH1 0xE0 SHL DUP2 MSTORE PUSH1 0x4 ADD PUSH1 0x20 PUSH1 0x40 MLOAD DUP1 DUP4 SUB DUP2 DUP7 GAS STATICCALL ISZERO DUP1 ISZERO PUSH2 0x18C5 JUMPI RETURNDATASIZE PUSH0 PUSH0 RETURNDATACOPY RETURNDATASIZE PUSH0 REVERT JUMPDEST POP POP POP POP PUSH1 0x40 MLOAD RETURNDATASIZE PUSH1 0x1F NOT PUSH1 0x1F DUP3 ADD AND DUP3 ADD DUP1 PUSH1 0x40 MSTORE POP DUP2 ADD SWAP1 PUSH2 0x18E9 SWAP2 SWAP1 PUSH2 0x44D3 JUMP JUMPDEST SWAP1 POP SWAP1 JUMP JUMPDEST PUSH2 0x18F6 PUSH2 0x397C JUMP JUMPDEST PUSH20 0xFFFFFFFFFFFFFFFFFFFFFFFFFFFFFFFFFFFFFFFF AND PUSH2 0x1914 PUSH2 0x1C18 JUMP JUMPDEST PUSH20 0xFFFFFFFFFFFFFFFFFFFFFFFFFFFFFFFFFFFFFFFF AND EQ PUSH2 0x196A JUMPI PUSH1 0x40 MLOAD PUSH32 0x8C379A000000000000000000000000000000000000000000000000000000000 DUP2 MSTORE PUSH1 0x4 ADD PUSH2 0x1961 SWAP1 PUSH2 0x48A7 JUMP JUMPDEST PUSH1 0x40 MLOAD DUP1 SWAP2 SUB SWAP1 REVERT JUMPDEST PUSH0 PUSH20 0xFFFFFFFFFFFFFFFFFFFFFFFFFFFFFFFFFFFFFFFF AND DUP2 PUSH20 0xFFFFFFFFFFFFFFFFFFFFFFFFFFFFFFFFFFFFFFFF AND SUB PUSH2 0x19D8 JUMPI PUSH1 0x40 MLOAD PUSH32 0x8C379A000000000000000000000000000000000000000000000000000000000 DUP2 MSTORE PUSH1 0x4 ADD PUSH2 0x19CF SWAP1 PUSH2 0x4A6D JUMP JUMPDEST PUSH1 0x40 MLOAD DUP1 SWAP2 SUB SWAP1 REVERT JUMPDEST PUSH0 PUSH1 0x4 PUSH0 SWAP1 SLOAD SWAP1 PUSH2 0x100 EXP SWAP1 DIV PUSH20 0xFFFFFFFFFFFFFFFFFFFFFFFFFFFFFFFFFFFFFFFF AND SWAP1 POP DUP2 PUSH1 0x4 PUSH0 PUSH2 0x100 EXP DUP2 SLOAD DUP2 PUSH20 0xFFFFFFFFFFFFFFFFFFFFFFFFFFFFFFFFFFFFFFFF MUL NOT AND SWAP1 DUP4 PUSH20 0xFFFFFFFFFFFFFFFFFFFFFFFFFFFFFFFFFFFFFFFF AND MUL OR SWAP1 SSTORE POP DUP2 PUSH20 0xFFFFFFFFFFFFFFFFFFFFFFFFFFFFFFFFFFFFFFFF AND DUP2 PUSH20 0xFFFFFFFFFFFFFFFFFFFFFFFFFFFFFFFFFFFFFFFF AND PUSH32 0x9CFA0588FF5FF3789D20735024D004BFB8DB496D5117712E136ADBFE97AF41D7 PUSH1 0x40 MLOAD PUSH1 0x40 MLOAD DUP1 SWAP2 SUB SWAP1 LOG3 POP POP JUMP JUMPDEST PUSH0 PUSH0 PUSH1 0x2 PUSH0 SWAP1 SLOAD SWAP1 PUSH2 0x100 EXP SWAP1 DIV PUSH20 0xFFFFFFFFFFFFFFFFFFFFFFFFFFFFFFFFFFFFFFFF AND PUSH20 0xFFFFFFFFFFFFFFFFFFFFFFFFFFFFFFFFFFFFFFFF AND PUSH4 0x5727E25D PUSH1 0x40 MLOAD DUP2 PUSH4 0xFFFFFFFF AND PUSH1 0xE0 SHL DUP2 MSTORE PUSH1 0x4 ADD PUSH1 0x20 PUSH1 0x40 MLOAD DUP1 DUP4 SUB DUP2 DUP7 GAS STATICCALL ISZERO DUP1 ISZERO PUSH2 0x1B07 JUMPI RETURNDATASIZE PUSH0 PUSH0 RETURNDATACOPY RETURNDATASIZE PUSH0 REVERT JUMPDEST POP POP POP POP PUSH1 0x40 MLOAD RETURNDATASIZE PUSH1 0x1F NOT PUSH1 0x1F DUP3 ADD AND DUP3 ADD DUP1 PUSH1 0x40 MSTORE POP DUP2 ADD SWAP1 PUSH2 0x1B2B SWAP2 SWAP1 PUSH2 0x44D3 JUMP JUMPDEST SWAP1 POP PUSH1 0x7 PUSH0 DUP3 DUP2 MSTORE PUSH1 0x20 ADD SWAP1 DUP2 MSTORE PUSH1 0x20 ADD PUSH0 KECCAK256 PUSH0 ADD SLOAD SWAP2 POP POP SWAP1 JUMP JUMPDEST PUSH1 0x5 PUSH0 SWAP1 SLOAD SWAP1 PUSH2 0x100 EXP SWAP1 DIV PUSH20 0xFFFFFFFFFFFFFFFFFFFFFFFFFFFFFFFFFFFFFFFF AND DUP2 JUMP JUMPDEST PUSH2 0x1B74 PUSH2 0x397C JUMP JUMPDEST PUSH20 0xFFFFFFFFFFFFFFFFFFFFFFFFFFFFFFFFFFFFFFFF AND PUSH2 0x1B92 PUSH2 0x1C18 JUMP JUMPDEST PUSH20 0xFFFFFFFFFFFFFFFFFFFFFFFFFFFFFFFFFFFFFFFF AND EQ PUSH2 0x1BE8 JUMPI PUSH1 0x40 MLOAD PUSH32 0x8C379A000000000000000000000000000000000000000000000000000000000 DUP2 MSTORE PUSH1 0x4 ADD PUSH2 0x1BDF SWAP1 PUSH2 0x48A7 JUMP JUMPDEST PUSH1 0x40 MLOAD DUP1 SWAP2 SUB SWAP1 REVERT JUMPDEST PUSH2 0x1BF1 PUSH0 PUSH2 0x3983 JUMP JUMPDEST JUMP JUMPDEST PUSH1 0x3 PUSH0 SWAP1 SLOAD SWAP1 PUSH2 0x100 EXP SWAP1 DIV PUSH20 0xFFFFFFFFFFFFFFFFFFFFFFFFFFFFFFFFFFFFFFFF AND DUP2 JUMP JUMPDEST PUSH0 PUSH1 0x1 PUSH0 SWAP1 SLOAD SWAP1 PUSH2 0x100 EXP SWAP1 DIV PUSH20 0xFFFFFFFFFFFFFFFFFFFFFFFFFFFFFFFFFFFFFFFF AND SWAP1 POP SWAP1 JUMP JUMPDEST PUSH2 0x1C48 PUSH2 0x397C JUMP JUMPDEST PUSH20 0xFFFFFFFFFFFFFFFFFFFFFFFFFFFFFFFFFFFFFFFF AND PUSH2 0x1C66 PUSH2 0x1C18 JUMP JUMPDEST PUSH20 0xFFFFFFFFFFFFFFFFFFFFFFFFFFFFFFFFFFFFFFFF AND EQ PUSH2 0x1CBC JUMPI PUSH1 0x40 MLOAD PUSH32 0x8C379A000000000000000000000000000000000000000000000000000000000 DUP2 MSTORE PUSH1 0x4 ADD PUSH2 0x1CB3 SWAP1 PUSH2 0x48A7 JUMP JUMPDEST PUSH1 0x40 MLOAD DUP1 SWAP2 SUB SWAP1 REVERT JUMPDEST PUSH0 PUSH20 0xFFFFFFFFFFFFFFFFFFFFFFFFFFFFFFFFFFFFFFFF AND DUP2 PUSH20 0xFFFFFFFFFFFFFFFFFFFFFFFFFFFFFFFFFFFFFFFF AND SUB PUSH2 0x1D2A JUMPI PUSH1 0x40 MLOAD PUSH32 0x8C379A000000000000000000000000000000000000000000000000000000000 DUP2 MSTORE PUSH1 0x4 ADD PUSH2 0x1D21 SWAP1 PUSH2 0x4AD5 JUMP JUMPDEST PUSH1 0x40 MLOAD DUP1 SWAP2 SUB SWAP1 REVERT JUMPDEST PUSH0 PUSH1 0x6 PUSH0 SWAP1 SLOAD SWAP1 PUSH2 0x100 EXP SWAP1 DIV PUSH20 0xFFFFFFFFFFFFFFFFFFFFFFFFFFFFFFFFFFFFFFFF AND SWAP1 POP DUP2 PUSH1 0x6 PUSH0 PUSH2 0x100 EXP DUP2 SLOAD DUP2 PUSH20 0xFFFFFFFFFFFFFFFFFFFFFFFFFFFFFFFFFFFFFFFF MUL NOT AND SWAP1 DUP4 PUSH20 0xFFFFFFFFFFFFFFFFFFFFFFFFFFFFFFFFFFFFFFFF AND MUL OR SWAP1 SSTORE POP DUP2 PUSH20 0xFFFFFFFFFFFFFFFFFFFFFFFFFFFFFFFFFFFFFFFF AND DUP2 PUSH20 0xFFFFFFFFFFFFFFFFFFFFFFFFFFFFFFFFFFFFFFFF AND PUSH32 0xC50D8EF9B57C270B939CF88365A0E6C8DCF9B867C2B1FE31EC181897E3D6A4DB PUSH1 0x40 MLOAD PUSH1 0x40 MLOAD DUP1 SWAP2 SUB SWAP1 LOG3 POP POP JUMP JUMPDEST PUSH0 PUSH0 PUSH1 0x2 PUSH0 SWAP1 SLOAD SWAP1 PUSH2 0x100 EXP SWAP1 DIV PUSH20 0xFFFFFFFFFFFFFFFFFFFFFFFFFFFFFFFFFFFFFFFF AND PUSH20 0xFFFFFFFFFFFFFFFFFFFFFFFFFFFFFFFFFFFFFFFF AND PUSH4 0x5727E25D PUSH1 0x40 MLOAD DUP2 PUSH4 0xFFFFFFFF AND PUSH1 0xE0 SHL DUP2 MSTORE PUSH1 0x4 ADD PUSH1 0x20 PUSH1 0x40 MLOAD DUP1 DUP4 SUB DUP2 DUP7 GAS STATICCALL ISZERO DUP1 ISZERO PUSH2 0x1E59 JUMPI RETURNDATASIZE PUSH0 PUSH0 RETURNDATACOPY RETURNDATASIZE PUSH0 REVERT JUMPDEST POP POP POP POP PUSH1 0x40 MLOAD RETURNDATASIZE PUSH1 0x1F NOT PUSH1 0x1F DUP3 ADD AND DUP3 ADD DUP1 PUSH1 0x40 MSTORE POP DUP2 ADD SWAP1 PUSH2 0x1E7D SWAP2 SWAP1 PUSH2 0x44D3 JUMP JUMPDEST SWAP1 POP PUSH1 0x7 PUSH0 DUP3 DUP2 MSTORE PUSH1 0x20 ADD SWAP1 DUP2 MSTORE PUSH1 0x20 ADD PUSH0 KECCAK256 PUSH1 0x2 ADD DUP1 SLOAD SWAP1 POP DUP4 LT PUSH2 0x1ED8 JUMPI PUSH1 0x40 MLOAD PUSH32 0x8C379A000000000000000000000000000000000000000000000000000000000 DUP2 MSTORE PUSH1 0x4 ADD PUSH2 0x1ECF SWAP1 PUSH2 0x4B3D JUMP JUMPDEST PUSH1 0x40 MLOAD DUP1 SWAP2 SUB SWAP1 REVERT JUMPDEST PUSH1 0x7 PUSH0 DUP3 DUP2 MSTORE PUSH1 0x20 ADD SWAP1 DUP2 MSTORE PUSH1 0x20 ADD PUSH0 KECCAK256 PUSH1 0x2 ADD DUP4 DUP2 SLOAD DUP2 LT PUSH2 0x1EFE JUMPI PUSH2 0x1EFD PUSH2 0x4B5B JUMP JUMPDEST JUMPDEST SWAP1 PUSH0 MSTORE PUSH1 0x20 PUSH0 KECCAK256 ADD PUSH0 SWAP1 SLOAD SWAP1 PUSH2 0x100 EXP SWAP1 DIV PUSH20 0xFFFFFFFFFFFFFFFFFFFFFFFFFFFFFFFFFFFFFFFF AND SWAP2 POP POP SWAP2 SWAP1 POP JUMP JUMPDEST PUSH0 PUSH0 PUSH1 0x2 PUSH0 SWAP1 SLOAD SWAP1 PUSH2 0x100 EXP SWAP1 DIV PUSH20 0xFFFFFFFFFFFFFFFFFFFFFFFFFFFFFFFFFFFFFFFF AND PUSH20 0xFFFFFFFFFFFFFFFFFFFFFFFFFFFFFFFFFFFFFFFF AND PUSH4 0x5727E25D PUSH1 0x40 MLOAD DUP2 PUSH4 0xFFFFFFFF AND PUSH1 0xE0 SHL DUP2 MSTORE PUSH1 0x4 ADD PUSH1 0x20 PUSH1 0x40 MLOAD DUP1 DUP4 SUB DUP2 DUP7 GAS STATICCALL ISZERO DUP1 ISZERO PUSH2 0x1F9A JUMPI RETURNDATASIZE PUSH0 PUSH0 RETURNDATACOPY RETURNDATASIZE PUSH0 REVERT JUMPDEST POP POP POP POP PUSH1 0x40 MLOAD RETURNDATASIZE PUSH1 0x1F NOT PUSH1 0x1F DUP3 ADD AND DUP3 ADD DUP1 PUSH1 0x40 MSTORE POP DUP2 ADD SWAP1 PUSH2 0x1FBE SWAP2 SWAP1 PUSH2 0x44D3 JUMP JUMPDEST SWAP1 POP PUSH1 0x7 PUSH0 DUP3 DUP2 MSTORE PUSH1 0x20 ADD SWAP1 DUP2 MSTORE PUSH1 0x20 ADD PUSH0 KECCAK256 PUSH1 0x1 ADD SLOAD SWAP2 POP POP SWAP1 JUMP JUMPDEST PUSH1 0x2 PUSH0 SLOAD SUB PUSH2 0x201F JUMPI PUSH1 0x40 MLOAD PUSH32 0x8C379A000000000000000000000000000000000000000000000000000000000 DUP2 MSTORE PUSH1 0x4 ADD PUSH2 0x2016 SWAP1 PUSH2 0x483F JUMP JUMPDEST PUSH1 0x40 MLOAD DUP1 SWAP2 SUB SWAP1 REVERT JUMPDEST PUSH1 0x2 PUSH0 DUP2 SWAP1 SSTORE POP PUSH2 0x2030 CALLER DUP3 PUSH2 0x2EB7 JUMP JUMPDEST PUSH1 0x1 PUSH0 DUP2 SWAP1 SSTORE POP POP JUMP JUMPDEST PUSH1 0x2 PUSH0 SWAP1 SLOAD SWAP1 PUSH2 0x100 EXP SWAP1 DIV PUSH20 0xFFFFFFFFFFFFFFFFFFFFFFFFFFFFFFFFFFFFFFFF AND DUP2 JUMP JUMPDEST PUSH0 PUSH1 0x7 PUSH0 DUP4 DUP2 MSTORE PUSH1 0x20 ADD SWAP1 DUP2 MSTORE PUSH1 0x20 ADD PUSH0 KECCAK256 PUSH1 0x2 ADD DUP1 SLOAD SWAP1 POP DUP4 LT PUSH2 0x20B9 JUMPI PUSH1 0x40 MLOAD PUSH32 0x8C379A000000000000000000000000000000000000000000000000000000000 DUP2 MSTORE PUSH1 0x4 ADD PUSH2 0x20B0 SWAP1 PUSH2 0x4B3D JUMP JUMPDEST PUSH1 0x40 MLOAD DUP1 SWAP2 SUB SWAP1 REVERT JUMPDEST PUSH1 0x7 PUSH0 DUP4 DUP2 MSTORE PUSH1 0x20 ADD SWAP1 DUP2 MSTORE PUSH1 0x20 ADD PUSH0 KECCAK256 PUSH1 0x2 ADD DUP4 DUP2 SLOAD DUP2 LT PUSH2 0x20DF JUMPI PUSH2 0x20DE PUSH2 0x4B5B JUMP JUMPDEST JUMPDEST SWAP1 PUSH0 MSTORE PUSH1 0x20 PUSH0 KECCAK256 ADD PUSH0 SWAP1 SLOAD SWAP1 PUSH2 0x100 EXP SWAP1 DIV PUSH20 0xFFFFFFFFFFFFFFFFFFFFFFFFFFFFFFFFFFFFFFFF AND SWAP1 POP SWAP3 SWAP2 POP POP JUMP JUMPDEST PUSH8 0xDE0B6B3A7640000 DUP2 JUMP JUMPDEST PUSH8 0x16345785D8A0000 DUP2 JUMP JUMPDEST PUSH0 PUSH1 0x7 PUSH0 DUP4 DUP2 MSTORE PUSH1 0x20 ADD SWAP1 DUP2 MSTORE PUSH1 0x20 ADD PUSH0 KECCAK256 PUSH1 0x1 ADD SLOAD SWAP1 POP SWAP2 SWAP1 POP JUMP JUMPDEST PUSH2 0x214C PUSH2 0x397C JUMP JUMPDEST PUSH20 0xFFFFFFFFFFFFFFFFFFFFFFFFFFFFFFFFFFFFFFFF AND PUSH2 0x216A PUSH2 0x1C18 JUMP JUMPDEST PUSH20 0xFFFFFFFFFFFFFFFFFFFFFFFFFFFFFFFFFFFFFFFF AND EQ PUSH2 0x21C0 JUMPI PUSH1 0x40 MLOAD PUSH32 0x8C379A000000000000000000000000000000000000000000000000000000000 DUP2 MSTORE PUSH1 0x4 ADD PUSH2 0x21B7 SWAP1 PUSH2 0x48A7 JUMP JUMPDEST PUSH1 0x40 MLOAD DUP1 SWAP2 SUB SWAP1 REVERT JUMPDEST PUSH0 PUSH20 0xFFFFFFFFFFFFFFFFFFFFFFFFFFFFFFFFFFFFFFFF AND DUP2 PUSH20 0xFFFFFFFFFFFFFFFFFFFFFFFFFFFFFFFFFFFFFFFF AND SUB PUSH2 0x222E JUMPI PUSH1 0x40 MLOAD PUSH32 0x8C379A000000000000000000000000000000000000000000000000000000000 DUP2 MSTORE PUSH1 0x4 ADD PUSH2 0x2225 SWAP1 PUSH2 0x4BD2 JUMP JUMPDEST PUSH1 0x40 MLOAD DUP1 SWAP2 SUB SWAP1 REVERT JUMPDEST PUSH0 PUSH1 0x2 PUSH0 SWAP1 SLOAD SWAP1 PUSH2 0x100 EXP SWAP1 DIV PUSH20 0xFFFFFFFFFFFFFFFFFFFFFFFFFFFFFFFFFFFFFFFF AND SWAP1 POP DUP2 PUSH1 0x2 PUSH0 PUSH2 0x100 EXP DUP2 SLOAD DUP2 PUSH20 0xFFFFFFFFFFFFFFFFFFFFFFFFFFFFFFFFFFFFFFFF MUL NOT AND SWAP1 DUP4 PUSH20 0xFFFFFFFFFFFFFFFFFFFFFFFFFFFFFFFFFFFFFFFF AND MUL OR SWAP1 SSTORE POP DUP2 PUSH20 0xFFFFFFFFFFFFFFFFFFFFFFFFFFFFFFFFFFFFFFFF AND DUP2 PUSH20 0xFFFFFFFFFFFFFFFFFFFFFFFFFFFFFFFFFFFFFFFF AND PUSH32 0x5340385BF4BD47F7D3C34E143C07CEB660E339E03C1A1A4CB12A49E2A876E01D PUSH1 0x40 MLOAD PUSH1 0x40 MLOAD DUP1 SWAP2 SUB SWAP1 LOG3 POP POP JUMP JUMPDEST PUSH2 0x22F9 PUSH2 0x397C JUMP JUMPDEST PUSH20 0xFFFFFFFFFFFFFFFFFFFFFFFFFFFFFFFFFFFFFFFF AND PUSH2 0x2317 PUSH2 0x1C18 JUMP JUMPDEST PUSH20 0xFFFFFFFFFFFFFFFFFFFFFFFFFFFFFFFFFFFFFFFF AND EQ PUSH2 0x236D JUMPI PUSH1 0x40 MLOAD PUSH32 0x8C379A000000000000000000000000000000000000000000000000000000000 DUP2 MSTORE PUSH1 0x4 ADD PUSH2 0x2364 SWAP1 PUSH2 0x48A7 JUMP JUMPDEST PUSH1 0x40 MLOAD DUP1 SWAP2 SUB SWAP1 REVERT JUMPDEST PUSH0 PUSH20 0xFFFFFFFFFFFFFFFFFFFFFFFFFFFFFFFFFFFFFFFF AND DUP2 PUSH20 0xFFFFFFFFFFFFFFFFFFFFFFFFFFFFFFFFFFFFFFFF AND SUB PUSH2 0x23DB JUMPI PUSH1 0x40 MLOAD PUSH32 0x8C379A000000000000000000000000000000000000000000000000000000000 DUP2 MSTORE PUSH1 0x4 ADD PUSH2 0x23D2 SWAP1 PUSH2 0x4C60 JUMP JUMPDEST PUSH1 0x40 MLOAD DUP1 SWAP2 SUB SWAP1 REVERT JUMPDEST PUSH2 0x23E4 DUP2 PUSH2 0x3983 JUMP JUMPDEST POP JUMP JUMPDEST PUSH0 PUSH1 0x7 PUSH0 DUP4 DUP2 MSTORE PUSH1 0x20 ADD SWAP1 DUP2 MSTORE PUSH1 0x20 ADD PUSH0 KECCAK256 PUSH0 ADD SLOAD SWAP1 POP SWAP2 SWAP1 POP JUMP JUMPDEST PUSH2 0x2486 DUP5 PUSH4 0x23B872DD PUSH1 0xE0 SHL DUP6 DUP6 DUP6 PUSH1 0x40 MLOAD PUSH1 0x24 ADD PUSH2 0x2424 SWAP4 SWAP3 SWAP2 SWAP1 PUSH2 0x4C7E JUMP JUMPDEST PUSH1 0x40 MLOAD PUSH1 0x20 DUP2 DUP4 SUB SUB DUP2 MSTORE SWAP1 PUSH1 0x40 MSTORE SWAP1 PUSH28 0xFFFFFFFFFFFFFFFFFFFFFFFFFFFFFFFFFFFFFFFFFFFFFFFFFFFFFFFF NOT AND PUSH1 0x20 DUP3 ADD DUP1 MLOAD PUSH28 0xFFFFFFFFFFFFFFFFFFFFFFFFFFFFFFFFFFFFFFFFFFFFFFFFFFFFFFFF DUP4 DUP2 DUP4 AND OR DUP4 MSTORE POP POP POP POP PUSH2 0x3A46 JUMP JUMPDEST POP POP POP POP JUMP JUMPDEST PUSH0 PUSH20 0xFFFFFFFFFFFFFFFFFFFFFFFFFFFFFFFFFFFFFFFF AND PUSH1 0x5 PUSH0 SWAP1 SLOAD SWAP1 PUSH2 0x100 EXP SWAP1 DIV PUSH20 0xFFFFFFFFFFFFFFFFFFFFFFFFFFFFFFFFFFFFFFFF AND PUSH20 0xFFFFFFFFFFFFFFFFFFFFFFFFFFFFFFFFFFFFFFFF AND SUB PUSH2 0x251B JUMPI PUSH1 0x40 MLOAD PUSH32 0x8C379A000000000000000000000000000000000000000000000000000000000 DUP2 MSTORE PUSH1 0x4 ADD PUSH2 0x2512 SWAP1 PUSH2 0x4CFD JUMP JUMPDEST PUSH1 0x40 MLOAD DUP1 SWAP2 SUB SWAP1 REVERT JUMPDEST PUSH0 PUSH1 0x7 PUSH0 DUP4 DUP2 MSTORE PUSH1 0x20 ADD SWAP1 DUP2 MSTORE PUSH1 0x20 ADD PUSH0 KECCAK256 PUSH1 0x3 ADD PUSH0 DUP5 PUSH20 0xFFFFFFFFFFFFFFFFFFFFFFFFFFFFFFFFFFFFFFFF AND PUSH20 0xFFFFFFFFFFFFFFFFFFFFFFFFFFFFFFFFFFFFFFFF AND DUP2 MSTORE PUSH1 0x20 ADD SWAP1 DUP2 MSTORE PUSH1 0x20 ADD PUSH0 KECCAK256 SWAP1 POP PUSH0 DUP2 PUSH0 ADD PUSH0 SWAP1 SLOAD SWAP1 PUSH2 0x100 EXP SWAP1 DIV PUSH16 0xFFFFFFFFFFFFFFFFFFFFFFFFFFFFFFFF AND PUSH16 0xFFFFFFFFFFFFFFFFFFFFFFFFFFFFFFFF AND SWAP1 POP PUSH0 DUP2 GT PUSH2 0x25E3 JUMPI PUSH1 0x40 MLOAD PUSH32 0x8C379A000000000000000000000000000000000000000000000000000000000 DUP2 MSTORE PUSH1 0x4 ADD PUSH2 0x25DA SWAP1 PUSH2 0x4D65 JUMP JUMPDEST PUSH1 0x40 MLOAD DUP1 SWAP2 SUB SWAP1 REVERT JUMPDEST DUP1 PUSH1 0x5 PUSH0 SWAP1 SLOAD SWAP1 PUSH2 0x100 EXP SWAP1 DIV PUSH20 0xFFFFFFFFFFFFFFFFFFFFFFFFFFFFFFFFFFFFFFFF AND PUSH20 0xFFFFFFFFFFFFFFFFFFFFFFFFFFFFFFFFFFFFFFFF AND PUSH4 0x70A08231 ADDRESS PUSH1 0x40 MLOAD DUP3 PUSH4 0xFFFFFFFF AND PUSH1 0xE0 SHL DUP2 MSTORE PUSH1 0x4 ADD PUSH2 0x263E SWAP2 SWAP1 PUSH2 0x442A JUMP JUMPDEST PUSH1 0x20 PUSH1 0x40 MLOAD DUP1 DUP4 SUB DUP2 DUP7 GAS STATICCALL ISZERO DUP1 ISZERO PUSH2 0x2659 JUMPI RETURNDATASIZE PUSH0 PUSH0 RETURNDATACOPY RETURNDATASIZE PUSH0 REVERT JUMPDEST POP POP POP POP PUSH1 0x40 MLOAD RETURNDATASIZE PUSH1 0x1F NOT PUSH1 0x1F DUP3 ADD AND DUP3 ADD DUP1 PUSH1 0x40 MSTORE POP DUP2 ADD SWAP1 PUSH2 0x267D SWAP2 SWAP1 PUSH2 0x44D3 JUMP JUMPDEST LT ISZERO PUSH2 0x26BE JUMPI PUSH1 0x40 MLOAD PUSH32 0x8C379A000000000000000000000000000000000000000000000000000000000 DUP2 MSTORE PUSH1 0x4 ADD PUSH2 0x26B5 SWAP1 PUSH2 0x4DCD JUMP JUMPDEST PUSH1 0x40 MLOAD DUP1 SWAP2 SUB SWAP1 REVERT JUMPDEST PUSH0 PUSH1 0x2 PUSH0 SWAP1 SLOAD SWAP1 PUSH2 0x100 EXP SWAP1 DIV PUSH20 0xFFFFFFFFFFFFFFFFFFFFFFFFFFFFFFFFFFFFFFFF AND PUSH20 0xFFFFFFFFFFFFFFFFFFFFFFFFFFFFFFFFFFFFFFFF AND PUSH4 0x5727E25D PUSH1 0x40 MLOAD DUP2 PUSH4 0xFFFFFFFF AND PUSH1 0xE0 SHL DUP2 MSTORE PUSH1 0x4 ADD PUSH1 0x20 PUSH1 0x40 MLOAD DUP1 DUP4 SUB DUP2 DUP7 GAS STATICCALL ISZERO DUP1 ISZERO PUSH2 0x2729 JUMPI RETURNDATASIZE PUSH0 PUSH0 RETURNDATACOPY RETURNDATASIZE PUSH0 REVERT JUMPDEST POP POP POP POP PUSH1 0x40 MLOAD RETURNDATASIZE PUSH1 0x1F NOT PUSH1 0x1F DUP3 ADD AND DUP3 ADD DUP1 PUSH1 0x40 MSTORE POP DUP2 ADD SWAP1 PUSH2 0x274D SWAP2 SWAP1 PUSH2 0x44D3 JUMP JUMPDEST SWAP1 POP DUP1 DUP5 GT ISZERO PUSH2 0x2792 JUMPI PUSH1 0x40 MLOAD PUSH32 0x8C379A000000000000000000000000000000000000000000000000000000000 DUP2 MSTORE PUSH1 0x4 ADD PUSH2 0x2789 SWAP1 PUSH2 0x4E35 JUMP JUMPDEST PUSH1 0x40 MLOAD DUP1 SWAP2 SUB SWAP1 REVERT JUMPDEST PUSH0 PUSH20 0xFFFFFFFFFFFFFFFFFFFFFFFFFFFFFFFFFFFFFFFF AND PUSH1 0x4 PUSH0 SWAP1 SLOAD SWAP1 PUSH2 0x100 EXP SWAP1 DIV PUSH20 0xFFFFFFFFFFFFFFFFFFFFFFFFFFFFFFFFFFFFFFFF AND PUSH20 0xFFFFFFFFFFFFFFFFFFFFFFFFFFFFFFFFFFFFFFFF AND SUB PUSH2 0x2821 JUMPI PUSH1 0x40 MLOAD PUSH32 0x8C379A000000000000000000000000000000000000000000000000000000000 DUP2 MSTORE PUSH1 0x4 ADD PUSH2 0x2818 SWAP1 PUSH2 0x46A6 JUMP JUMPDEST PUSH1 0x40 MLOAD DUP1 SWAP2 SUB SWAP1 REVERT JUMPDEST PUSH0 PUSH20 0xFFFFFFFFFFFFFFFFFFFFFFFFFFFFFFFFFFFFFFFF AND PUSH1 0x5 PUSH0 SWAP1 SLOAD SWAP1 PUSH2 0x100 EXP SWAP1 DIV PUSH20 0xFFFFFFFFFFFFFFFFFFFFFFFFFFFFFFFFFFFFFFFF AND PUSH20 0xFFFFFFFFFFFFFFFFFFFFFFFFFFFFFFFFFFFFFFFF AND SUB PUSH2 0x28B0 JUMPI PUSH1 0x40 MLOAD PUSH32 0x8C379A000000000000000000000000000000000000000000000000000000000 DUP2 MSTORE PUSH1 0x4 ADD PUSH2 0x28A7 SWAP1 PUSH2 0x4CFD JUMP JUMPDEST PUSH1 0x40 MLOAD DUP1 SWAP2 SUB SWAP1 REVERT JUMPDEST PUSH0 PUSH20 0xFFFFFFFFFFFFFFFFFFFFFFFFFFFFFFFFFFFFFFFF AND PUSH1 0x6 PUSH0 SWAP1 SLOAD SWAP1 PUSH2 0x100 EXP SWAP1 DIV PUSH20 0xFFFFFFFFFFFFFFFFFFFFFFFFFFFFFFFFFFFFFFFF AND PUSH20 0xFFFFFFFFFFFFFFFFFFFFFFFFFFFFFFFFFFFFFFFF AND SUB PUSH2 0x293F JUMPI PUSH1 0x40 MLOAD PUSH32 0x8C379A000000000000000000000000000000000000000000000000000000000 DUP2 MSTORE PUSH1 0x4 ADD PUSH2 0x2936 SWAP1 PUSH2 0x463E JUMP JUMPDEST PUSH1 0x40 MLOAD DUP1 SWAP2 SUB SWAP1 REVERT JUMPDEST PUSH0 PUSH1 0x7 PUSH0 DUP7 DUP2 MSTORE PUSH1 0x20 ADD SWAP1 DUP2 MSTORE PUSH1 0x20 ADD PUSH0 KECCAK256 SWAP1 POP DUP1 PUSH1 0x4 ADD PUSH0 DUP8 PUSH20 0xFFFFFFFFFFFFFFFFFFFFFFFFFFFFFFFFFFFFFFFF AND PUSH20 0xFFFFFFFFFFFFFFFFFFFFFFFFFFFFFFFFFFFFFFFF AND DUP2 MSTORE PUSH1 0x20 ADD SWAP1 DUP2 MSTORE PUSH1 0x20 ADD PUSH0 KECCAK256 PUSH0 SWAP1 SLOAD SWAP1 PUSH2 0x100 EXP SWAP1 DIV PUSH1 0xFF AND PUSH2 0x29DE JUMPI PUSH1 0x40 MLOAD PUSH32 0x8C379A000000000000000000000000000000000000000000000000000000000 DUP2 MSTORE PUSH1 0x4 ADD PUSH2 0x29D5 SWAP1 PUSH2 0x4E9D JUMP JUMPDEST PUSH1 0x40 MLOAD DUP1 SWAP2 SUB SWAP1 REVERT JUMPDEST PUSH0 DUP5 PUSH0 ADD PUSH0 SWAP1 SLOAD SWAP1 PUSH2 0x100 EXP SWAP1 DIV PUSH16 0xFFFFFFFFFFFFFFFFFFFFFFFFFFFFFFFF AND PUSH16 0xFFFFFFFFFFFFFFFFFFFFFFFFFFFFFFFF AND GT PUSH2 0x2A50 JUMPI PUSH1 0x40 MLOAD PUSH32 0x8C379A000000000000000000000000000000000000000000000000000000000 DUP2 MSTORE PUSH1 0x4 ADD PUSH2 0x2A47 SWAP1 PUSH2 0x4F05 JUMP JUMPDEST PUSH1 0x40 MLOAD DUP1 SWAP2 SUB SWAP1 REVERT JUMPDEST PUSH0 DUP4 SWAP1 POP PUSH1 0x5 PUSH0 SWAP1 SLOAD SWAP1 PUSH2 0x100 EXP SWAP1 DIV PUSH20 0xFFFFFFFFFFFFFFFFFFFFFFFFFFFFFFFFFFFFFFFF AND PUSH20 0xFFFFFFFFFFFFFFFFFFFFFFFFFFFFFFFFFFFFFFFF AND PUSH4 0x42966C68 DUP3 PUSH1 0x40 MLOAD DUP3 PUSH4 0xFFFFFFFF AND PUSH1 0xE0 SHL DUP2 MSTORE PUSH1 0x4 ADD PUSH2 0x2AAE SWAP2 SWAP1 PUSH2 0x41EC JUMP JUMPDEST PUSH0 PUSH1 0x40 MLOAD DUP1 DUP4 SUB DUP2 PUSH0 DUP8 DUP1 EXTCODESIZE ISZERO DUP1 ISZERO PUSH2 0x2AC5 JUMPI PUSH0 PUSH0 REVERT JUMPDEST POP GAS CALL ISZERO DUP1 ISZERO PUSH2 0x2AD7 JUMPI RETURNDATASIZE PUSH0 PUSH0 RETURNDATACOPY RETURNDATASIZE PUSH0 REVERT JUMPDEST POP POP POP POP PUSH32 0xDF8087F44F1F81D8269BA11060B035CB41DA0A16C24252A0EB34592A0DBA9E53 DUP2 TIMESTAMP PUSH1 0x40 MLOAD PUSH2 0x2B0C SWAP3 SWAP2 SWAP1 PUSH2 0x47CE JUMP JUMPDEST PUSH1 0x40 MLOAD DUP1 SWAP2 SUB SWAP1 LOG1 PUSH0 DUP6 PUSH0 ADD PUSH1 0x14 SWAP1 SLOAD SWAP1 PUSH2 0x100 EXP SWAP1 DIV PUSH12 0xFFFFFFFFFFFFFFFFFFFFFFFF AND PUSH12 0xFFFFFFFFFFFFFFFFFFFFFFFF AND SWAP1 POP PUSH0 DUP2 GT ISZERO PUSH2 0x2C74 JUMPI DUP1 DUP4 PUSH1 0x8 ADD SLOAD GT PUSH2 0x2B5A JUMPI PUSH0 PUSH2 0x2B6B JUMP JUMPDEST DUP1 DUP4 PUSH1 0x8 ADD SLOAD PUSH2 0x2B6A SWAP2 SWAP1 PUSH2 0x4F50 JUMP JUMPDEST JUMPDEST DUP4 PUSH1 0x8 ADD DUP2 SWAP1 SSTORE POP DUP4 DUP8 EQ DUP1 ISZERO PUSH2 0x2BCF JUMPI POP PUSH0 PUSH20 0xFFFFFFFFFFFFFFFFFFFFFFFFFFFFFFFFFFFFFFFF AND PUSH1 0x2 PUSH0 SWAP1 SLOAD SWAP1 PUSH2 0x100 EXP SWAP1 DIV PUSH20 0xFFFFFFFFFFFFFFFFFFFFFFFFFFFFFFFFFFFFFFFF AND PUSH20 0xFFFFFFFFFFFFFFFFFFFFFFFFFFFFFFFFFFFFFFFF AND EQ ISZERO JUMPDEST ISZERO PUSH2 0x2C73 JUMPI PUSH1 0x2 PUSH0 SWAP1 SLOAD SWAP1 PUSH2 0x100 EXP SWAP1 DIV PUSH20 0xFFFFFFFFFFFFFFFFFFFFFFFFFFFFFFFFFFFFFFFF AND PUSH20 0xFFFFFFFFFFFFFFFFFFFFFFFFFFFFFFFFFFFFFFFF AND PUSH4 0xFCCFE94C DUP10 PUSH0 PUSH1 0x40 MLOAD DUP4 PUSH4 0xFFFFFFFF AND PUSH1 0xE0 SHL DUP2 MSTORE PUSH1 0x4 ADD PUSH2 0x2C30 SWAP3 SWAP2 SWAP1 PUSH2 0x4FC5 JUMP JUMPDEST PUSH1 0x20 PUSH1 0x40 MLOAD DUP1 DUP4 SUB DUP2 PUSH0 DUP8 GAS CALL SWAP3 POP POP POP DUP1 ISZERO PUSH2 0x2C6B JUMPI POP PUSH1 0x40 MLOAD RETURNDATASIZE PUSH1 0x1F NOT PUSH1 0x1F DUP3 ADD AND DUP3 ADD DUP1 PUSH1 0x40 MSTORE POP DUP2 ADD SWAP1 PUSH2 0x2C68 SWAP2 SWAP1 PUSH2 0x4715 JUMP JUMPDEST PUSH1 0x1 JUMPDEST ISZERO PUSH2 0x2C72 JUMPI POP JUMPDEST JUMPDEST JUMPDEST PUSH0 DUP7 PUSH0 ADD PUSH0 PUSH2 0x100 EXP DUP2 SLOAD DUP2 PUSH16 0xFFFFFFFFFFFFFFFFFFFFFFFFFFFFFFFF MUL NOT AND SWAP1 DUP4 PUSH16 0xFFFFFFFFFFFFFFFFFFFFFFFFFFFFFFFF AND MUL OR SWAP1 SSTORE POP PUSH0 DUP7 PUSH0 ADD PUSH1 0x14 PUSH2 0x100 EXP DUP2 SLOAD DUP2 PUSH12 0xFFFFFFFFFFFFFFFFFFFFFFFF MUL NOT AND SWAP1 DUP4 PUSH12 0xFFFFFFFFFFFFFFFFFFFFFFFF AND MUL OR SWAP1 SSTORE POP DUP3 PUSH1 0x6 ADD PUSH0 SWAP1 SLOAD SWAP1 PUSH2 0x100 EXP SWAP1 DIV PUSH1 0xFF AND ISZERO PUSH2 0x2D00 JUMPI PUSH2 0x2CFF DUP9 DUP9 PUSH2 0x3B0B JUMP JUMPDEST JUMPDEST DUP2 DUP4 PUSH0 ADD PUSH0 DUP3 DUP3 SLOAD PUSH2 0x2D12 SWAP2 SWAP1 PUSH2 0x4F50 JUMP JUMPDEST SWAP3 POP POP DUP2 SWAP1 SSTORE POP DUP2 PUSH1 0x8 PUSH0 DUP3 DUP3 SLOAD PUSH2 0x2D2A SWAP2 SWAP1 PUSH2 0x4F50 JUMP JUMPDEST SWAP3 POP POP DUP2 SWAP1 SSTORE POP PUSH0 PUSH1 0x6 PUSH0 SWAP1 SLOAD SWAP1 PUSH2 0x100 EXP SWAP1 DIV PUSH20 0xFFFFFFFFFFFFFFFFFFFFFFFFFFFFFFFFFFFFFFFF AND PUSH20 0xFFFFFFFFFFFFFFFFFFFFFFFFFFFFFFFFFFFFFFFF AND PUSH4 0x2E1A7D4D DUP5 PUSH1 0x40 MLOAD DUP3 PUSH4 0xFFFFFFFF AND PUSH1 0xE0 SHL DUP2 MSTORE PUSH1 0x4 ADD PUSH2 0x2D8C SWAP2 SWAP1 PUSH2 0x41EC JUMP JUMPDEST PUSH1 0x20 PUSH1 0x40 MLOAD DUP1 DUP4 SUB DUP2 PUSH0 DUP8 GAS CALL ISZERO DUP1 ISZERO PUSH2 0x2DA8 JUMPI RETURNDATASIZE PUSH0 PUSH0 RETURNDATACOPY RETURNDATASIZE PUSH0 REVERT JUMPDEST POP POP POP POP PUSH1 0x40 MLOAD RETURNDATASIZE PUSH1 0x1F NOT PUSH1 0x1F DUP3 ADD AND DUP3 ADD DUP1 PUSH1 0x40 MSTORE POP DUP2 ADD SWAP1 PUSH2 0x2DCC SWAP2 SWAP1 PUSH2 0x4715 JUMP JUMPDEST SWAP1 POP DUP1 PUSH2 0x2E0E JUMPI PUSH1 0x40 MLOAD PUSH32 0x8C379A000000000000000000000000000000000000000000000000000000000 DUP2 MSTORE PUSH1 0x4 ADD PUSH2 0x2E05 SWAP1 PUSH2 0x505C JUMP JUMPDEST PUSH1 0x40 MLOAD DUP1 SWAP2 SUB SWAP1 REVERT JUMPDEST PUSH2 0x2E5A DUP10 DUP5 PUSH1 0x4 PUSH0 SWAP1 SLOAD SWAP1 PUSH2 0x100 EXP SWAP1 DIV PUSH20 0xFFFFFFFFFFFFFFFFFFFFFFFFFFFFFFFFFFFFFFFF AND PUSH20 0xFFFFFFFFFFFFFFFFFFFFFFFFFFFFFFFFFFFFFFFF AND PUSH2 0x3D61 SWAP1 SWAP3 SWAP2 SWAP1 PUSH4 0xFFFFFFFF AND JUMP JUMPDEST DUP9 PUSH20 0xFFFFFFFFFFFFFFFFFFFFFFFFFFFFFFFFFFFFFFFF AND PUSH32 0x75E161B3E824B114FC1A33274BD7091918DD4E639CEDE50B78B15A4EEA956A21 DUP5 TIMESTAMP DUP12 PUSH1 0x40 MLOAD PUSH2 0x2EA4 SWAP4 SWAP3 SWAP2 SWAP1 PUSH2 0x507A JUMP JUMPDEST PUSH1 0x40 MLOAD DUP1 SWAP2 SUB SWAP1 LOG2 POP POP POP POP POP POP POP POP POP JUMP JUMPDEST PUSH0 PUSH20 0xFFFFFFFFFFFFFFFFFFFFFFFFFFFFFFFFFFFFFFFF AND DUP3 PUSH20 0xFFFFFFFFFFFFFFFFFFFFFFFFFFFFFFFFFFFFFFFF AND SUB PUSH2 0x2F25 JUMPI PUSH1 0x40 MLOAD PUSH32 0x8C379A000000000000000000000000000000000000000000000000000000000 DUP2 MSTORE PUSH1 0x4 ADD PUSH2 0x2F1C SWAP1 PUSH2 0x50F9 JUMP JUMPDEST PUSH1 0x40 MLOAD DUP1 SWAP2 SUB SWAP1 REVERT JUMPDEST PUSH0 PUSH20 0xFFFFFFFFFFFFFFFFFFFFFFFFFFFFFFFFFFFFFFFF AND PUSH1 0x4 PUSH0 SWAP1 SLOAD SWAP1 PUSH2 0x100 EXP SWAP1 DIV PUSH20 0xFFFFFFFFFFFFFFFFFFFFFFFFFFFFFFFFFFFFFFFF AND PUSH20 0xFFFFFFFFFFFFFFFFFFFFFFFFFFFFFFFFFFFFFFFF AND SUB PUSH2 0x2FB4 JUMPI PUSH1 0x40 MLOAD PUSH32 0x8C379A000000000000000000000000000000000000000000000000000000000 DUP2 MSTORE PUSH1 0x4 ADD PUSH2 0x2FAB SWAP1 PUSH2 0x46A6 JUMP JUMPDEST PUSH1 0x40 MLOAD DUP1 SWAP2 SUB SWAP1 REVERT JUMPDEST PUSH8 0x16345785D8A0000 DUP2 LT ISZERO PUSH2 0x2FFF JUMPI PUSH1 0x40 MLOAD PUSH32 0x8C379A000000000000000000000000000000000000000000000000000000000 DUP2 MSTORE PUSH1 0x4 ADD PUSH2 0x2FF6 SWAP1 PUSH2 0x5187 JUMP JUMPDEST PUSH1 0x40 MLOAD DUP1 SWAP2 SUB SWAP1 REVERT JUMPDEST PUSH8 0xDE0B6B3A7640000 DUP2 GT ISZERO PUSH2 0x304A JUMPI PUSH1 0x40 MLOAD PUSH32 0x8C379A000000000000000000000000000000000000000000000000000000000 DUP2 MSTORE PUSH1 0x4 ADD PUSH2 0x3041 SWAP1 PUSH2 0x5215 JUMP JUMPDEST PUSH1 0x40 MLOAD DUP1 SWAP2 SUB SWAP1 REVERT JUMPDEST PUSH0 PUSH1 0x4 PUSH0 SWAP1 SLOAD SWAP1 PUSH2 0x100 EXP SWAP1 DIV PUSH20 0xFFFFFFFFFFFFFFFFFFFFFFFFFFFFFFFFFFFFFFFF AND PUSH20 0xFFFFFFFFFFFFFFFFFFFFFFFFFFFFFFFFFFFFFFFF AND PUSH4 0x70A08231 ADDRESS PUSH1 0x40 MLOAD DUP3 PUSH4 0xFFFFFFFF AND PUSH1 0xE0 SHL DUP2 MSTORE PUSH1 0x4 ADD PUSH2 0x30A5 SWAP2 SWAP1 PUSH2 0x442A JUMP JUMPDEST PUSH1 0x20 PUSH1 0x40 MLOAD DUP1 DUP4 SUB DUP2 DUP7 GAS STATICCALL ISZERO DUP1 ISZERO PUSH2 0x30C0 JUMPI RETURNDATASIZE PUSH0 PUSH0 RETURNDATACOPY RETURNDATASIZE PUSH0 REVERT JUMPDEST POP POP POP POP PUSH1 0x40 MLOAD RETURNDATASIZE PUSH1 0x1F NOT PUSH1 0x1F DUP3 ADD AND DUP3 ADD DUP1 PUSH1 0x40 MSTORE POP DUP2 ADD SWAP1 PUSH2 0x30E4 SWAP2 SWAP1 PUSH2 0x44D3 JUMP JUMPDEST SWAP1 POP DUP2 DUP2 LT ISZERO PUSH2 0x3129 JUMPI PUSH1 0x40 MLOAD PUSH32 0x8C379A000000000000000000000000000000000000000000000000000000000 DUP2 MSTORE PUSH1 0x4 ADD PUSH2 0x3120 SWAP1 PUSH2 0x527D JUMP JUMPDEST PUSH1 0x40 MLOAD DUP1 SWAP2 SUB SWAP1 REVERT JUMPDEST PUSH0 PUSH1 0x2 PUSH0 SWAP1 SLOAD SWAP1 PUSH2 0x100 EXP SWAP1 DIV PUSH20 0xFFFFFFFFFFFFFFFFFFFFFFFFFFFFFFFFFFFFFFFF AND PUSH20 0xFFFFFFFFFFFFFFFFFFFFFFFFFFFFFFFFFFFFFFFF AND PUSH4 0x5727E25D PUSH1 0x40 MLOAD DUP2 PUSH4 0xFFFFFFFF AND PUSH1 0xE0 SHL DUP2 MSTORE PUSH1 0x4 ADD PUSH1 0x20 PUSH1 0x40 MLOAD DUP1 DUP4 SUB DUP2 DUP7 GAS STATICCALL ISZERO DUP1 ISZERO PUSH2 0x3194 JUMPI RETURNDATASIZE PUSH0 PUSH0 RETURNDATACOPY RETURNDATASIZE PUSH0 REVERT JUMPDEST POP POP POP POP PUSH1 0x40 MLOAD RETURNDATASIZE PUSH1 0x1F NOT PUSH1 0x1F DUP3 ADD AND DUP3 ADD DUP1 PUSH1 0x40 MSTORE POP DUP2 ADD SWAP1 PUSH2 0x31B8 SWAP2 SWAP1 PUSH2 0x44D3 JUMP JUMPDEST SWAP1 POP PUSH0 PUSH1 0x7 PUSH0 DUP4 DUP2 MSTORE PUSH1 0x20 ADD SWAP1 DUP2 MSTORE PUSH1 0x20 ADD PUSH0 KECCAK256 SWAP1 POP DUP1 PUSH1 0x4 ADD PUSH0 DUP7 PUSH20 0xFFFFFFFFFFFFFFFFFFFFFFFFFFFFFFFFFFFFFFFF AND PUSH20 0xFFFFFFFFFFFFFFFFFFFFFFFFFFFFFFFFFFFFFFFF AND DUP2 MSTORE PUSH1 0x20 ADD SWAP1 DUP2 MSTORE PUSH1 0x20 ADD PUSH0 KECCAK256 PUSH0 SWAP1 SLOAD SWAP1 PUSH2 0x100 EXP SWAP1 DIV PUSH1 0xFF AND ISZERO PUSH2 0x325A JUMPI PUSH1 0x40 MLOAD PUSH32 0x8C379A000000000000000000000000000000000000000000000000000000000 DUP2 MSTORE PUSH1 0x4 ADD PUSH2 0x3251 SWAP1 PUSH2 0x530B JUMP JUMPDEST PUSH1 0x40 MLOAD DUP1 SWAP2 SUB SWAP1 REVERT JUMPDEST PUSH0 DUP2 PUSH1 0x3 ADD PUSH0 DUP8 PUSH20 0xFFFFFFFFFFFFFFFFFFFFFFFFFFFFFFFFFFFFFFFF AND PUSH20 0xFFFFFFFFFFFFFFFFFFFFFFFFFFFFFFFFFFFFFFFF AND DUP2 MSTORE PUSH1 0x20 ADD SWAP1 DUP2 MSTORE PUSH1 0x20 ADD PUSH0 KECCAK256 SWAP1 POP DUP2 PUSH1 0x2 ADD DUP1 SLOAD SWAP1 POP DUP3 PUSH1 0x5 ADD PUSH0 DUP9 PUSH20 0xFFFFFFFFFFFFFFFFFFFFFFFFFFFFFFFFFFFFFFFF AND PUSH20 0xFFFFFFFFFFFFFFFFFFFFFFFFFFFFFFFFFFFFFFFF AND DUP2 MSTORE PUSH1 0x20 ADD SWAP1 DUP2 MSTORE PUSH1 0x20 ADD PUSH0 KECCAK256 DUP2 SWAP1 SSTORE POP DUP2 PUSH1 0x2 ADD DUP7 SWAP1 DUP1 PUSH1 0x1 DUP2 SLOAD ADD DUP1 DUP3 SSTORE DUP1 SWAP2 POP POP PUSH1 0x1 SWAP1 SUB SWAP1 PUSH0 MSTORE PUSH1 0x20 PUSH0 KECCAK256 ADD PUSH0 SWAP1 SWAP2 SWAP1 SWAP2 SWAP1 SWAP2 PUSH2 0x100 EXP DUP2 SLOAD DUP2 PUSH20 0xFFFFFFFFFFFFFFFFFFFFFFFFFFFFFFFFFFFFFFFF MUL NOT AND SWAP1 DUP4 PUSH20 0xFFFFFFFFFFFFFFFFFFFFFFFFFFFFFFFFFFFFFFFF AND MUL OR SWAP1 SSTORE POP PUSH1 0x1 DUP3 PUSH1 0x4 ADD PUSH0 DUP9 PUSH20 0xFFFFFFFFFFFFFFFFFFFFFFFFFFFFFFFFFFFFFFFF AND PUSH20 0xFFFFFFFFFFFFFFFFFFFFFFFFFFFFFFFFFFFFFFFF AND DUP2 MSTORE PUSH1 0x20 ADD SWAP1 DUP2 MSTORE PUSH1 0x20 ADD PUSH0 KECCAK256 PUSH0 PUSH2 0x100 EXP DUP2 SLOAD DUP2 PUSH1 0xFF MUL NOT AND SWAP1 DUP4 ISZERO ISZERO MUL OR SWAP1 SSTORE POP DUP2 PUSH1 0x1 ADD PUSH0 DUP2 SLOAD DUP1 SWAP3 SWAP2 SWAP1 PUSH2 0x33B4 SWAP1 PUSH2 0x5329 JUMP JUMPDEST SWAP2 SWAP1 POP SSTORE POP DUP5 DUP2 PUSH0 ADD PUSH0 PUSH2 0x100 EXP DUP2 SLOAD DUP2 PUSH16 0xFFFFFFFFFFFFFFFFFFFFFFFFFFFFFFFF MUL NOT AND SWAP1 DUP4 PUSH16 0xFFFFFFFFFFFFFFFFFFFFFFFFFFFFFFFF AND MUL OR SWAP1 SSTORE POP TIMESTAMP DUP2 PUSH0 ADD PUSH1 0x10 PUSH2 0x100 EXP DUP2 SLOAD DUP2 PUSH4 0xFFFFFFFF MUL NOT AND SWAP1 DUP4 PUSH4 0xFFFFFFFF AND MUL OR SWAP1 SSTORE POP PUSH0 DUP3 PUSH1 0x7 ADD SLOAD SWAP1 POP PUSH0 DUP2 SUB PUSH2 0x34BD JUMPI PUSH1 0x2 PUSH0 SWAP1 SLOAD SWAP1 PUSH2 0x100 EXP SWAP1 DIV PUSH20 0xFFFFFFFFFFFFFFFFFFFFFFFFFFFFFFFFFFFFFFFF AND PUSH20 0xFFFFFFFFFFFFFFFFFFFFFFFFFFFFFFFFFFFFFFFF AND PUSH4 0xB675B332 PUSH1 0x40 MLOAD DUP2 PUSH4 0xFFFFFFFF AND PUSH1 0xE0 SHL DUP2 MSTORE PUSH1 0x4 ADD PUSH1 0x20 PUSH1 0x40 MLOAD DUP1 DUP4 SUB DUP2 DUP7 GAS STATICCALL ISZERO DUP1 ISZERO PUSH2 0x348D JUMPI RETURNDATASIZE PUSH0 PUSH0 RETURNDATACOPY RETURNDATASIZE PUSH0 REVERT JUMPDEST POP POP POP POP PUSH1 0x40 MLOAD RETURNDATASIZE PUSH1 0x1F NOT PUSH1 0x1F DUP3 ADD AND DUP3 ADD DUP1 PUSH1 0x40 MSTORE POP DUP2 ADD SWAP1 PUSH2 0x34B1 SWAP2 SWAP1 PUSH2 0x44D3 JUMP JUMPDEST SWAP1 POP DUP1 DUP4 PUSH1 0x7 ADD DUP2 SWAP1 SSTORE POP JUMPDEST PUSH0 PUSH0 SWAP1 POP TIMESTAMP DUP3 GT ISZERO PUSH2 0x34D8 JUMPI TIMESTAMP DUP3 PUSH2 0x34D5 SWAP2 SWAP1 PUSH2 0x4F50 JUMP JUMPDEST SWAP1 POP JUMPDEST PUSH0 PUSH2 0x34E3 DUP9 DUP4 PUSH2 0x3DE7 JUMP JUMPDEST SWAP1 POP DUP1 DUP5 PUSH0 ADD PUSH1 0x14 PUSH2 0x100 EXP DUP2 SLOAD DUP2 PUSH12 0xFFFFFFFFFFFFFFFFFFFFFFFF MUL NOT AND SWAP1 DUP4 PUSH12 0xFFFFFFFFFFFFFFFFFFFFFFFF AND MUL OR SWAP1 SSTORE POP DUP1 DUP6 PUSH1 0x8 ADD PUSH0 DUP3 DUP3 SLOAD PUSH2 0x352A SWAP2 SWAP1 PUSH2 0x5370 JUMP JUMPDEST SWAP3 POP POP DUP2 SWAP1 SSTORE POP DUP8 DUP6 PUSH0 ADD PUSH0 DUP3 DUP3 SLOAD PUSH2 0x3543 SWAP2 SWAP1 PUSH2 0x5370 JUMP JUMPDEST SWAP3 POP POP DUP2 SWAP1 SSTORE POP DUP8 PUSH1 0x8 PUSH0 DUP3 DUP3 SLOAD PUSH2 0x355B SWAP2 SWAP1 PUSH2 0x5370 JUMP JUMPDEST SWAP3 POP POP DUP2 SWAP1 SSTORE POP PUSH1 0x4 PUSH0 SWAP1 SLOAD SWAP1 PUSH2 0x100 EXP SWAP1 DIV PUSH20 0xFFFFFFFFFFFFFFFFFFFFFFFFFFFFFFFFFFFFFFFF AND PUSH20 0xFFFFFFFFFFFFFFFFFFFFFFFFFFFFFFFFFFFFFFFF AND PUSH4 0x95EA7B3 PUSH1 0x6 PUSH0 SWAP1 SLOAD SWAP1 PUSH2 0x100 EXP SWAP1 DIV PUSH20 0xFFFFFFFFFFFFFFFFFFFFFFFFFFFFFFFFFFFFFFFF AND DUP11 PUSH1 0x40 MLOAD DUP4 PUSH4 0xFFFFFFFF AND PUSH1 0xE0 SHL DUP2 MSTORE PUSH1 0x4 ADD PUSH2 0x35DF SWAP3 SWAP2 SWAP1 PUSH2 0x46C4 JUMP JUMPDEST PUSH1 0x20 PUSH1 0x40 MLOAD DUP1 DUP4 SUB DUP2 PUSH0 DUP8 GAS CALL ISZERO DUP1 ISZERO PUSH2 0x35FB JUMPI RETURNDATASIZE PUSH0 PUSH0 RETURNDATACOPY RETURNDATASIZE PUSH0 REVERT JUMPDEST POP POP POP POP PUSH1 0x40 MLOAD RETURNDATASIZE PUSH1 0x1F NOT PUSH1 0x1F DUP3 ADD AND DUP3 ADD DUP1 PUSH1 0x40 MSTORE POP DUP2 ADD SWAP1 PUSH2 0x361F SWAP2 SWAP1 PUSH2 0x4715 JUMP JUMPDEST POP PUSH0 PUSH1 0x6 PUSH0 SWAP1 SLOAD SWAP1 PUSH2 0x100 EXP SWAP1 DIV PUSH20 0xFFFFFFFFFFFFFFFFFFFFFFFFFFFFFFFFFFFFFFFF AND PUSH20 0xFFFFFFFFFFFFFFFFFFFFFFFFFFFFFFFFFFFFFFFF AND PUSH4 0xB6B55F25 DUP11 PUSH1 0x40 MLOAD DUP3 PUSH4 0xFFFFFFFF AND PUSH1 0xE0 SHL DUP2 MSTORE PUSH1 0x4 ADD PUSH2 0x367B SWAP2 SWAP1 PUSH2 0x41EC JUMP JUMPDEST PUSH1 0x20 PUSH1 0x40 MLOAD DUP1 DUP4 SUB DUP2 PUSH0 DUP8 GAS CALL ISZERO DUP1 ISZERO PUSH2 0x3697 JUMPI RETURNDATASIZE PUSH0 PUSH0 RETURNDATACOPY RETURNDATASIZE PUSH0 REVERT JUMPDEST POP POP POP POP PUSH1 0x40 MLOAD RETURNDATASIZE PUSH1 0x1F NOT PUSH1 0x1F DUP3 ADD AND DUP3 ADD DUP1 PUSH1 0x40 MSTORE POP DUP2 ADD SWAP1 PUSH2 0x36BB SWAP2 SWAP1 PUSH2 0x4715 JUMP JUMPDEST SWAP1 POP DUP1 PUSH2 0x36FD JUMPI PUSH1 0x40 MLOAD PUSH32 0x8C379A000000000000000000000000000000000000000000000000000000000 DUP2 MSTORE PUSH1 0x4 ADD PUSH2 0x36F4 SWAP1 PUSH2 0x47B0 JUMP JUMPDEST PUSH1 0x40 MLOAD DUP1 SWAP2 SUB SWAP1 REVERT JUMPDEST PUSH0 PUSH20 0xFFFFFFFFFFFFFFFFFFFFFFFFFFFFFFFFFFFFFFFF AND PUSH1 0x2 PUSH0 SWAP1 SLOAD SWAP1 PUSH2 0x100 EXP SWAP1 DIV PUSH20 0xFFFFFFFFFFFFFFFFFFFFFFFFFFFFFFFFFFFFFFFF AND PUSH20 0xFFFFFFFFFFFFFFFFFFFFFFFFFFFFFFFFFFFFFFFF AND EQ PUSH2 0x37F0 JUMPI PUSH1 0x2 PUSH0 SWAP1 SLOAD SWAP1 PUSH2 0x100 EXP SWAP1 DIV PUSH20 0xFFFFFFFFFFFFFFFFFFFFFFFFFFFFFFFFFFFFFFFF AND PUSH20 0xFFFFFFFFFFFFFFFFFFFFFFFFFFFFFFFFFFFFFFFF AND PUSH4 0xFCCFE94C DUP12 DUP5 PUSH1 0x40 MLOAD DUP4 PUSH4 0xFFFFFFFF AND PUSH1 0xE0 SHL DUP2 MSTORE PUSH1 0x4 ADD PUSH2 0x37AD SWAP3 SWAP2 SWAP1 PUSH2 0x46C4 JUMP JUMPDEST PUSH1 0x20 PUSH1 0x40 MLOAD DUP1 DUP4 SUB DUP2 PUSH0 DUP8 GAS CALL SWAP3 POP POP POP DUP1 ISZERO PUSH2 0x37E8 JUMPI POP PUSH1 0x40 MLOAD RETURNDATASIZE PUSH1 0x1F NOT PUSH1 0x1F DUP3 ADD AND DUP3 ADD DUP1 PUSH1 0x40 MSTORE POP DUP2 ADD SWAP1 PUSH2 0x37E5 SWAP2 SWAP1 PUSH2 0x4715 JUMP JUMPDEST PUSH1 0x1 JUMPDEST ISZERO PUSH2 0x37EF JUMPI POP JUMPDEST JUMPDEST PUSH0 PUSH20 0xFFFFFFFFFFFFFFFFFFFFFFFFFFFFFFFFFFFFFFFF AND PUSH1 0x5 PUSH0 SWAP1 SLOAD SWAP1 PUSH2 0x100 EXP SWAP1 DIV PUSH20 0xFFFFFFFFFFFFFFFFFFFFFFFFFFFFFFFFFFFFFFFF AND PUSH20 0xFFFFFFFFFFFFFFFFFFFFFFFFFFFFFFFFFFFFFFFF AND EQ PUSH2 0x391E JUMPI PUSH1 0x5 PUSH0 SWAP1 SLOAD SWAP1 PUSH2 0x100 EXP SWAP1 DIV PUSH20 0xFFFFFFFFFFFFFFFFFFFFFFFFFFFFFFFFFFFFFFFF AND PUSH20 0xFFFFFFFFFFFFFFFFFFFFFFFFFFFFFFFFFFFFFFFF AND PUSH4 0x40C10F19 DUP12 DUP12 PUSH1 0x40 MLOAD DUP4 PUSH4 0xFFFFFFFF AND PUSH1 0xE0 SHL DUP2 MSTORE PUSH1 0x4 ADD PUSH2 0x38A0 SWAP3 SWAP2 SWAP1 PUSH2 0x46C4 JUMP JUMPDEST PUSH0 PUSH1 0x40 MLOAD DUP1 DUP4 SUB DUP2 PUSH0 DUP8 DUP1 EXTCODESIZE ISZERO DUP1 ISZERO PUSH2 0x38B7 JUMPI PUSH0 PUSH0 REVERT JUMPDEST POP GAS CALL ISZERO DUP1 ISZERO PUSH2 0x38C9 JUMPI RETURNDATASIZE PUSH0 PUSH0 RETURNDATACOPY RETURNDATASIZE PUSH0 REVERT JUMPDEST POP POP POP POP DUP10 PUSH20 0xFFFFFFFFFFFFFFFFFFFFFFFFFFFFFFFFFFFFFFFF AND PUSH32 0x54CD8E1DE57960308B5925F1DA718AAB59A6F6A6B5162F568D15678FFD323DDA DUP11 TIMESTAMP PUSH1 0x40 MLOAD PUSH2 0x3915 SWAP3 SWAP2 SWAP1 PUSH2 0x47CE JUMP JUMPDEST PUSH1 0x40 MLOAD DUP1 SWAP2 SUB SWAP1 LOG2 JUMPDEST DUP10 PUSH20 0xFFFFFFFFFFFFFFFFFFFFFFFFFFFFFFFFFFFFFFFF AND PUSH32 0x91EDE45F04A37A7C170F5C1207DF3B6BC748DC1E04AD5E917A241D0F52FEADA3 DUP11 TIMESTAMP DUP11 PUSH1 0x40 MLOAD PUSH2 0x3968 SWAP4 SWAP3 SWAP2 SWAP1 PUSH2 0x507A JUMP JUMPDEST PUSH1 0x40 MLOAD DUP1 SWAP2 SUB SWAP1 LOG2 POP POP POP POP POP POP POP POP POP POP JUMP JUMPDEST PUSH0 CALLER SWAP1 POP SWAP1 JUMP JUMPDEST PUSH0 PUSH1 0x1 PUSH0 SWAP1 SLOAD SWAP1 PUSH2 0x100 EXP SWAP1 DIV PUSH20 0xFFFFFFFFFFFFFFFFFFFFFFFFFFFFFFFFFFFFFFFF AND SWAP1 POP DUP2 PUSH1 0x1 PUSH0 PUSH2 0x100 EXP DUP2 SLOAD DUP2 PUSH20 0xFFFFFFFFFFFFFFFFFFFFFFFFFFFFFFFFFFFFFFFF MUL NOT AND SWAP1 DUP4 PUSH20 0xFFFFFFFFFFFFFFFFFFFFFFFFFFFFFFFFFFFFFFFF AND MUL OR SWAP1 SSTORE POP DUP2 PUSH20 0xFFFFFFFFFFFFFFFFFFFFFFFFFFFFFFFFFFFFFFFF AND DUP2 PUSH20 0xFFFFFFFFFFFFFFFFFFFFFFFFFFFFFFFFFFFFFFFF AND PUSH32 0x8BE0079C531659141344CD1FD0A4F28419497F9722A3DAAFE3B4186F6B6457E0 PUSH1 0x40 MLOAD PUSH1 0x40 MLOAD DUP1 SWAP2 SUB SWAP1 LOG3 POP POP JUMP JUMPDEST PUSH0 PUSH2 0x3AA7 DUP3 PUSH1 0x40 MLOAD DUP1 PUSH1 0x40 ADD PUSH1 0x40 MSTORE DUP1 PUSH1 0x20 DUP2 MSTORE PUSH1 0x20 ADD PUSH32 0x5361666545524332303A206C6F772D6C6576656C2063616C6C206661696C6564 DUP2 MSTORE POP DUP6 PUSH20 0xFFFFFFFFFFFFFFFFFFFFFFFFFFFFFFFFFFFFFFFF AND PUSH2 0x3EF7 SWAP1 SWAP3 SWAP2 SWAP1 PUSH4 0xFFFFFFFF AND JUMP JUMPDEST SWAP1 POP PUSH0 DUP2 MLOAD GT ISZERO PUSH2 0x3B06 JUMPI DUP1 DUP1 PUSH1 0x20 ADD SWAP1 MLOAD DUP2 ADD SWAP1 PUSH2 0x3AC6 SWAP2 SWAP1 PUSH2 0x4715 JUMP JUMPDEST PUSH2 0x3B05 JUMPI PUSH1 0x40 MLOAD PUSH32 0x8C379A000000000000000000000000000000000000000000000000000000000 DUP2 MSTORE PUSH1 0x4 ADD PUSH2 0x3AFC SWAP1 PUSH2 0x5413 JUMP JUMPDEST PUSH1 0x40 MLOAD DUP1 SWAP2 SUB SWAP1 REVERT JUMPDEST JUMPDEST POP POP POP JUMP JUMPDEST PUSH0 PUSH1 0x7 PUSH0 DUP4 DUP2 MSTORE PUSH1 0x20 ADD SWAP1 DUP2 MSTORE PUSH1 0x20 ADD PUSH0 KECCAK256 SWAP1 POP PUSH0 DUP2 PUSH1 0x5 ADD PUSH0 DUP6 PUSH20 0xFFFFFFFFFFFFFFFFFFFFFFFFFFFFFFFFFFFFFFFF AND PUSH20 0xFFFFFFFFFFFFFFFFFFFFFFFFFFFFFFFFFFFFFFFF AND DUP2 MSTORE PUSH1 0x20 ADD SWAP1 DUP2 MSTORE PUSH1 0x20 ADD PUSH0 KECCAK256 SLOAD SWAP1 POP PUSH0 PUSH1 0x1 DUP4 PUSH1 0x2 ADD DUP1 SLOAD SWAP1 POP PUSH2 0x3B77 SWAP2 SWAP1 PUSH2 0x4F50 JUMP JUMPDEST SWAP1 POP DUP1 DUP3 EQ PUSH2 0x3C63 JUMPI PUSH0 DUP4 PUSH1 0x2 ADD DUP3 DUP2 SLOAD DUP2 LT PUSH2 0x3B97 JUMPI PUSH2 0x3B96 PUSH2 0x4B5B JUMP JUMPDEST JUMPDEST SWAP1 PUSH0 MSTORE PUSH1 0x20 PUSH0 KECCAK256 ADD PUSH0 SWAP1 SLOAD SWAP1 PUSH2 0x100 EXP SWAP1 DIV PUSH20 0xFFFFFFFFFFFFFFFFFFFFFFFFFFFFFFFFFFFFFFFF AND SWAP1 POP DUP1 DUP5 PUSH1 0x2 ADD DUP5 DUP2 SLOAD DUP2 LT PUSH2 0x3BD8 JUMPI PUSH2 0x3BD7 PUSH2 0x4B5B JUMP JUMPDEST JUMPDEST SWAP1 PUSH0 MSTORE PUSH1 0x20 PUSH0 KECCAK256 ADD PUSH0 PUSH2 0x100 EXP DUP2 SLOAD DUP2 PUSH20 0xFFFFFFFFFFFFFFFFFFFFFFFFFFFFFFFFFFFFFFFF MUL NOT AND SWAP1 DUP4 PUSH20 0xFFFFFFFFFFFFFFFFFFFFFFFFFFFFFFFFFFFFFFFF AND MUL OR SWAP1 SSTORE POP DUP3 DUP5 PUSH1 0x5 ADD PUSH0 DUP4 PUSH20 0xFFFFFFFFFFFFFFFFFFFFFFFFFFFFFFFFFFFFFFFF AND PUSH20 0xFFFFFFFFFFFFFFFFFFFFFFFFFFFFFFFFFFFFFFFF AND DUP2 MSTORE PUSH1 0x20 ADD SWAP1 DUP2 MSTORE PUSH1 0x20 ADD PUSH0 KECCAK256 DUP2 SWAP1 SSTORE POP POP JUMPDEST DUP3 PUSH1 0x2 ADD DUP1 SLOAD DUP1 PUSH2 0x3C77 JUMPI PUSH2 0x3C76 PUSH2 0x5431 JUMP JUMPDEST JUMPDEST PUSH1 0x1 SWAP1 SUB DUP2 DUP2 SWAP1 PUSH0 MSTORE PUSH1 0x20 PUSH0 KECCAK256 ADD PUSH0 PUSH2 0x100 EXP DUP2 SLOAD SWAP1 PUSH20 0xFFFFFFFFFFFFFFFFFFFFFFFFFFFFFFFFFFFFFFFF MUL NOT AND SWAP1 SSTORE SWAP1 SSTORE DUP3 PUSH1 0x5 ADD PUSH0 DUP7 PUSH20 0xFFFFFFFFFFFFFFFFFFFFFFFFFFFFFFFFFFFFFFFF AND PUSH20 0xFFFFFFFFFFFFFFFFFFFFFFFFFFFFFFFFFFFFFFFF AND DUP2 MSTORE PUSH1 0x20 ADD SWAP1 DUP2 MSTORE PUSH1 0x20 ADD PUSH0 KECCAK256 PUSH0 SWAP1 SSTORE PUSH0 DUP4 PUSH1 0x4 ADD PUSH0 DUP8 PUSH20 0xFFFFFFFFFFFFFFFFFFFFFFFFFFFFFFFFFFFFFFFF AND PUSH20 0xFFFFFFFFFFFFFFFFFFFFFFFFFFFFFFFFFFFFFFFF AND DUP2 MSTORE PUSH1 0x20 ADD SWAP1 DUP2 MSTORE PUSH1 0x20 ADD PUSH0 KECCAK256 PUSH0 PUSH2 0x100 EXP DUP2 SLOAD DUP2 PUSH1 0xFF MUL NOT AND SWAP1 DUP4 ISZERO ISZERO MUL OR SWAP1 SSTORE POP DUP3 PUSH1 0x1 ADD PUSH0 DUP2 SLOAD DUP1 SWAP3 SWAP2 SWAP1 PUSH2 0x3D55 SWAP1 PUSH2 0x545E JUMP JUMPDEST SWAP2 SWAP1 POP SSTORE POP POP POP POP POP POP JUMP JUMPDEST PUSH2 0x3DE2 DUP4 PUSH4 0xA9059CBB PUSH1 0xE0 SHL DUP5 DUP5 PUSH1 0x40 MLOAD PUSH1 0x24 ADD PUSH2 0x3D80 SWAP3 SWAP2 SWAP1 PUSH2 0x46C4 JUMP JUMPDEST PUSH1 0x40 MLOAD PUSH1 0x20 DUP2 DUP4 SUB SUB DUP2 MSTORE SWAP1 PUSH1 0x40 MSTORE SWAP1 PUSH28 0xFFFFFFFFFFFFFFFFFFFFFFFFFFFFFFFFFFFFFFFFFFFFFFFFFFFFFFFF NOT AND PUSH1 0x20 DUP3 ADD DUP1 MLOAD PUSH28 0xFFFFFFFFFFFFFFFFFFFFFFFFFFFFFFFFFFFFFFFFFFFFFFFFFFFFFFFF DUP4 DUP2 DUP4 AND OR DUP4 MSTORE POP POP POP POP PUSH2 0x3A46 JUMP JUMPDEST POP POP POP JUMP JUMPDEST PUSH0 PUSH0 DUP4 GT PUSH2 0x3E2A JUMPI PUSH1 0x40 MLOAD PUSH32 0x8C379A000000000000000000000000000000000000000000000000000000000 DUP2 MSTORE PUSH1 0x4 ADD PUSH2 0x3E21 SWAP1 PUSH2 0x54CF JUMP JUMPDEST PUSH1 0x40 MLOAD DUP1 SWAP2 SUB SWAP1 REVERT JUMPDEST PUSH0 DUP3 GT PUSH2 0x3E6C JUMPI PUSH1 0x40 MLOAD PUSH32 0x8C379A000000000000000000000000000000000000000000000000000000000 DUP2 MSTORE PUSH1 0x4 ADD PUSH2 0x3E63 SWAP1 PUSH2 0x5537 JUMP JUMPDEST PUSH1 0x40 MLOAD DUP1 SWAP2 SUB SWAP1 REVERT JUMPDEST PUSH0 PUSH2 0x2710 PUSH2 0x7D0 PUSH4 0xFFFFFFFF AND DUP5 PUSH2 0x3E84 SWAP2 SWAP1 PUSH2 0x5555 JUMP JUMPDEST PUSH2 0x3E8E SWAP2 SWAP1 PUSH2 0x55C3 JUMP JUMPDEST SWAP1 POP PUSH0 PUSH2 0x2710 PUSH2 0x1F40 PUSH4 0xFFFFFFFF AND DUP7 PUSH2 0x3EA8 SWAP2 SWAP1 PUSH2 0x5555 JUMP JUMPDEST PUSH2 0x3EB2 SWAP2 SWAP1 PUSH2 0x55C3 JUMP JUMPDEST SWAP1 POP PUSH8 0xDE0B6B3A7640000 PUSH24 0xFFFFFFFFFFFFFFFFFFFFFFFFFFFFFFFFFFFFFFFFFFFFFFFF AND DUP2 DUP4 PUSH2 0x3EE3 SWAP2 SWAP1 PUSH2 0x5370 JUMP JUMPDEST PUSH2 0x3EED SWAP2 SWAP1 PUSH2 0x5555 JUMP JUMPDEST SWAP3 POP POP POP SWAP3 SWAP2 POP POP JUMP JUMPDEST PUSH1 0x60 PUSH2 0x3F05 DUP5 DUP5 PUSH0 DUP6 PUSH2 0x3F0E JUMP JUMPDEST SWAP1 POP SWAP4 SWAP3 POP POP POP JUMP JUMPDEST PUSH1 0x60 DUP3 SELFBALANCE LT ISZERO PUSH2 0x3F53 JUMPI PUSH1 0x40 MLOAD PUSH32 0x8C379A000000000000000000000000000000000000000000000000000000000 DUP2 MSTORE PUSH1 0x4 ADD PUSH2 0x3F4A SWAP1 PUSH2 0x5663 JUMP JUMPDEST PUSH1 0x40 MLOAD DUP1 SWAP2 SUB SWAP1 REVERT JUMPDEST PUSH2 0x3F5C DUP6 PUSH2 0x401E JUMP JUMPDEST PUSH2 0x3F9B JUMPI PUSH1 0x40 MLOAD PUSH32 0x8C379A000000000000000000000000000000000000000000000000000000000 DUP2 MSTORE PUSH1 0x4 ADD PUSH2 0x3F92 SWAP1 PUSH2 0x56CB JUMP JUMPDEST PUSH1 0x40 MLOAD DUP1 SWAP2 SUB SWAP1 REVERT JUMPDEST PUSH0 PUSH0 DUP7 PUSH20 0xFFFFFFFFFFFFFFFFFFFFFFFFFFFFFFFFFFFFFFFF AND DUP6 DUP8 PUSH1 0x40 MLOAD PUSH2 0x3FC3 SWAP2 SWAP1 PUSH2 0x573B JUMP JUMPDEST PUSH0 PUSH1 0x40 MLOAD DUP1 DUP4 SUB DUP2 DUP6 DUP8 GAS CALL SWAP3 POP POP POP RETURNDATASIZE DUP1 PUSH0 DUP2 EQ PUSH2 0x3FFD JUMPI PUSH1 0x40 MLOAD SWAP2 POP PUSH1 0x1F NOT PUSH1 0x3F RETURNDATASIZE ADD AND DUP3 ADD PUSH1 0x40 MSTORE RETURNDATASIZE DUP3 MSTORE RETURNDATASIZE PUSH0 PUSH1 0x20 DUP5 ADD RETURNDATACOPY PUSH2 0x4002 JUMP JUMPDEST PUSH1 0x60 SWAP2 POP JUMPDEST POP SWAP2 POP SWAP2 POP PUSH2 0x4012 DUP3 DUP3 DUP7 PUSH2 0x4040 JUMP JUMPDEST SWAP3 POP POP POP SWAP5 SWAP4 POP POP POP POP JUMP JUMPDEST PUSH0 PUSH0 DUP3 PUSH20 0xFFFFFFFFFFFFFFFFFFFFFFFFFFFFFFFFFFFFFFFF AND EXTCODESIZE GT SWAP1 POP SWAP2 SWAP1 POP JUMP JUMPDEST PUSH1 0x60 DUP4 ISZERO PUSH2 0x4050 JUMPI DUP3 SWAP1 POP PUSH2 0x409F JUMP JUMPDEST PUSH0 DUP4 MLOAD GT ISZERO PUSH2 0x4062 JUMPI DUP3 MLOAD DUP1 DUP5 PUSH1 0x20 ADD REVERT JUMPDEST DUP2 PUSH1 0x40 MLOAD PUSH32 0x8C379A000000000000000000000000000000000000000000000000000000000 DUP2 MSTORE PUSH1 0x4 ADD PUSH2 0x4096 SWAP2 SWAP1 PUSH2 0x57A3 JUMP JUMPDEST PUSH1 0x40 MLOAD DUP1 SWAP2 SUB SWAP1 REVERT JUMPDEST SWAP4 SWAP3 POP POP POP JUMP JUMPDEST PUSH1 0x40 MLOAD DUP1 PUSH1 0x60 ADD PUSH1 0x40 MSTORE DUP1 PUSH0 PUSH16 0xFFFFFFFFFFFFFFFFFFFFFFFFFFFFFFFF AND DUP2 MSTORE PUSH1 0x20 ADD PUSH0 PUSH4 0xFFFFFFFF AND DUP2 MSTORE PUSH1 0x20 ADD PUSH0 PUSH12 0xFFFFFFFFFFFFFFFFFFFFFFFF AND DUP2 MSTORE POP SWAP1 JUMP JUMPDEST PUSH0 DUP3 DUP3 MSTORE PUSH1 0x20 DUP3 ADD SWAP1 POP SWAP3 SWAP2 POP POP JUMP JUMPDEST PUSH32 0x5468697320636F6E747261637420646F6573206E6F7420616363657074204554 PUSH0 DUP3 ADD MSTORE PUSH32 0x482E20506C6561736520757365205745544820746F6B656E7320696E73746561 PUSH1 0x20 DUP3 ADD MSTORE PUSH32 0x6420616E642063616C6C20746865206465706F736974206F72206465706F7369 PUSH1 0x40 DUP3 ADD MSTORE PUSH32 0x74466F722066756E6374696F6E732E0000000000000000000000000000000000 PUSH1 0x60 DUP3 ADD MSTORE POP JUMP JUMPDEST PUSH0 PUSH2 0x41A0 PUSH1 0x6F DUP4 PUSH2 0x40EA JUMP JUMPDEST SWAP2 POP PUSH2 0x41AB DUP3 PUSH2 0x40FA JUMP JUMPDEST PUSH1 0x80 DUP3 ADD SWAP1 POP SWAP2 SWAP1 POP JUMP JUMPDEST PUSH0 PUSH1 0x20 DUP3 ADD SWAP1 POP DUP2 DUP2 SUB PUSH0 DUP4 ADD MSTORE PUSH2 0x41CD DUP2 PUSH2 0x4194 JUMP JUMPDEST SWAP1 POP SWAP2 SWAP1 POP JUMP JUMPDEST PUSH0 DUP2 SWAP1 POP SWAP2 SWAP1 POP JUMP JUMPDEST PUSH2 0x41E6 DUP2 PUSH2 0x41D4 JUMP JUMPDEST DUP3 MSTORE POP POP JUMP JUMPDEST PUSH0 PUSH1 0x20 DUP3 ADD SWAP1 POP PUSH2 0x41FF PUSH0 DUP4 ADD DUP5 PUSH2 0x41DD JUMP JUMPDEST SWAP3 SWAP2 POP POP JUMP JUMPDEST PUSH0 PUSH0 REVERT JUMPDEST PUSH0 PUSH20 0xFFFFFFFFFFFFFFFFFFFFFFFFFFFFFFFFFFFFFFFF DUP3 AND SWAP1 POP SWAP2 SWAP1 POP JUMP JUMPDEST PUSH0 PUSH2 0x4232 DUP3 PUSH2 0x4209 JUMP JUMPDEST SWAP1 POP SWAP2 SWAP1 POP JUMP JUMPDEST PUSH2 0x4242 DUP2 PUSH2 0x4228 JUMP JUMPDEST DUP2 EQ PUSH2 0x424C JUMPI PUSH0 PUSH0 REVERT JUMPDEST POP JUMP JUMPDEST PUSH0 DUP2 CALLDATALOAD SWAP1 POP PUSH2 0x425D DUP2 PUSH2 0x4239 JUMP JUMPDEST SWAP3 SWAP2 POP POP JUMP JUMPDEST PUSH2 0x426C DUP2 PUSH2 0x41D4 JUMP JUMPDEST DUP2 EQ PUSH2 0x4276 JUMPI PUSH0 PUSH0 REVERT JUMPDEST POP JUMP JUMPDEST PUSH0 DUP2 CALLDATALOAD SWAP1 POP PUSH2 0x4287 DUP2 PUSH2 0x4263 JUMP JUMPDEST SWAP3 SWAP2 POP POP JUMP JUMPDEST PUSH0 PUSH0 PUSH1 0x40 DUP4 DUP6 SUB SLT ISZERO PUSH2 0x42A3 JUMPI PUSH2 0x42A2 PUSH2 0x4205 JUMP JUMPDEST JUMPDEST PUSH0 PUSH2 0x42B0 DUP6 DUP3 DUP7 ADD PUSH2 0x424F JUMP JUMPDEST SWAP3 POP POP PUSH1 0x20 PUSH2 0x42C1 DUP6 DUP3 DUP7 ADD PUSH2 0x4279 JUMP JUMPDEST SWAP2 POP POP SWAP3 POP SWAP3 SWAP1 POP JUMP JUMPDEST PUSH0 PUSH16 0xFFFFFFFFFFFFFFFFFFFFFFFFFFFFFFFF DUP3 AND SWAP1 POP SWAP2 SWAP1 POP JUMP JUMPDEST PUSH2 0x42EF DUP2 PUSH2 0x42CB JUMP JUMPDEST DUP3 MSTORE POP POP JUMP JUMPDEST PUSH0 PUSH4 0xFFFFFFFF DUP3 AND SWAP1 POP SWAP2 SWAP1 POP JUMP JUMPDEST PUSH2 0x430D DUP2 PUSH2 0x42F5 JUMP JUMPDEST DUP3 MSTORE POP POP JUMP JUMPDEST PUSH0 PUSH12 0xFFFFFFFFFFFFFFFFFFFFFFFF DUP3 AND SWAP1 POP SWAP2 SWAP1 POP JUMP JUMPDEST PUSH2 0x4333 DUP2 PUSH2 0x4313 JUMP JUMPDEST DUP3 MSTORE POP POP JUMP JUMPDEST PUSH1 0x60 DUP3 ADD PUSH0 DUP3 ADD MLOAD PUSH2 0x434D PUSH0 DUP6 ADD DUP3 PUSH2 0x42E6 JUMP JUMPDEST POP PUSH1 0x20 DUP3 ADD MLOAD PUSH2 0x4360 PUSH1 0x20 DUP6 ADD DUP3 PUSH2 0x4304 JUMP JUMPDEST POP PUSH1 0x40 DUP3 ADD MLOAD PUSH2 0x4373 PUSH1 0x40 DUP6 ADD DUP3 PUSH2 0x432A JUMP JUMPDEST POP POP POP POP JUMP JUMPDEST PUSH0 PUSH1 0x60 DUP3 ADD SWAP1 POP PUSH2 0x438C PUSH0 DUP4 ADD DUP5 PUSH2 0x4339 JUMP JUMPDEST SWAP3 SWAP2 POP POP JUMP JUMPDEST PUSH0 PUSH1 0x20 DUP3 DUP5 SUB SLT ISZERO PUSH2 0x43A7 JUMPI PUSH2 0x43A6 PUSH2 0x4205 JUMP JUMPDEST JUMPDEST PUSH0 PUSH2 0x43B4 DUP5 DUP3 DUP6 ADD PUSH2 0x424F JUMP JUMPDEST SWAP2 POP POP SWAP3 SWAP2 POP POP JUMP JUMPDEST PUSH0 PUSH1 0x20 DUP3 DUP5 SUB SLT ISZERO PUSH2 0x43D2 JUMPI PUSH2 0x43D1 PUSH2 0x4205 JUMP JUMPDEST JUMPDEST PUSH0 PUSH2 0x43DF DUP5 DUP3 DUP6 ADD PUSH2 0x4279 JUMP JUMPDEST SWAP2 POP POP SWAP3 SWAP2 POP POP JUMP JUMPDEST PUSH0 DUP2 ISZERO ISZERO SWAP1 POP SWAP2 SWAP1 POP JUMP JUMPDEST PUSH2 0x43FC DUP2 PUSH2 0x43E8 JUMP JUMPDEST DUP3 MSTORE POP POP JUMP JUMPDEST PUSH0 PUSH1 0x20 DUP3 ADD SWAP1 POP PUSH2 0x4415 PUSH0 DUP4 ADD DUP5 PUSH2 0x43F3 JUMP JUMPDEST SWAP3 SWAP2 POP POP JUMP JUMPDEST PUSH2 0x4424 DUP2 PUSH2 0x4228 JUMP JUMPDEST DUP3 MSTORE POP POP JUMP JUMPDEST PUSH0 PUSH1 0x20 DUP3 ADD SWAP1 POP PUSH2 0x443D PUSH0 DUP4 ADD DUP5 PUSH2 0x441B JUMP JUMPDEST SWAP3 SWAP2 POP POP JUMP JUMPDEST PUSH0 PUSH0 PUSH1 0x40 DUP4 DUP6 SUB SLT ISZERO PUSH2 0x4459 JUMPI PUSH2 0x4458 PUSH2 0x4205 JUMP JUMPDEST JUMPDEST PUSH0 PUSH2 0x4466 DUP6 DUP3 DUP7 ADD PUSH2 0x4279 JUMP JUMPDEST SWAP3 POP POP PUSH1 0x20 PUSH2 0x4477 DUP6 DUP3 DUP7 ADD PUSH2 0x424F JUMP JUMPDEST SWAP2 POP POP SWAP3 POP SWAP3 SWAP1 POP JUMP JUMPDEST PUSH0 PUSH0 PUSH1 0x40 DUP4 DUP6 SUB SLT ISZERO PUSH2 0x4497 JUMPI PUSH2 0x4496 PUSH2 0x4205 JUMP JUMPDEST JUMPDEST PUSH0 PUSH2 0x44A4 DUP6 DUP3 DUP7 ADD PUSH2 0x4279 JUMP JUMPDEST SWAP3 POP POP PUSH1 0x20 PUSH2 0x44B5 DUP6 DUP3 DUP7 ADD PUSH2 0x4279 JUMP JUMPDEST SWAP2 POP POP SWAP3 POP SWAP3 SWAP1 POP JUMP JUMPDEST PUSH0 DUP2 MLOAD SWAP1 POP PUSH2 0x44CD DUP2 PUSH2 0x4263 JUMP JUMPDEST SWAP3 SWAP2 POP POP JUMP JUMPDEST PUSH0 PUSH1 0x20 DUP3 DUP5 SUB SLT ISZERO PUSH2 0x44E8 JUMPI PUSH2 0x44E7 PUSH2 0x4205 JUMP JUMPDEST JUMPDEST PUSH0 PUSH2 0x44F5 DUP5 DUP3 DUP6 ADD PUSH2 0x44BF JUMP JUMPDEST SWAP2 POP POP SWAP3 SWAP2 POP POP JUMP JUMPDEST PUSH32 0x4F6E6C79205072697A65506F6F6C2063616E2063616C6C20746869732066756E PUSH0 DUP3 ADD MSTORE PUSH32 0x6374696F6E000000000000000000000000000000000000000000000000000000 PUSH1 0x20 DUP3 ADD MSTORE POP JUMP JUMPDEST PUSH0 PUSH2 0x4558 PUSH1 0x25 DUP4 PUSH2 0x40EA JUMP JUMPDEST SWAP2 POP PUSH2 0x4563 DUP3 PUSH2 0x44FE JUMP JUMPDEST PUSH1 0x40 DUP3 ADD SWAP1 POP SWAP2 SWAP1 POP JUMP JUMPDEST PUSH0 PUSH1 0x20 DUP3 ADD SWAP1 POP DUP2 DUP2 SUB PUSH0 DUP4 ADD MSTORE PUSH2 0x4585 DUP2 PUSH2 0x454C JUMP JUMPDEST SWAP1 POP SWAP2 SWAP1 POP JUMP JUMPDEST PUSH32 0x416D6F756E74206D7573742062652067726561746572207468616E2030000000 PUSH0 DUP3 ADD MSTORE POP JUMP JUMPDEST PUSH0 PUSH2 0x45C0 PUSH1 0x1D DUP4 PUSH2 0x40EA JUMP JUMPDEST SWAP2 POP PUSH2 0x45CB DUP3 PUSH2 0x458C JUMP JUMPDEST PUSH1 0x20 DUP3 ADD SWAP1 POP SWAP2 SWAP1 POP JUMP JUMPDEST PUSH0 PUSH1 0x20 DUP3 ADD SWAP1 POP DUP2 DUP2 SUB PUSH0 DUP4 ADD MSTORE PUSH2 0x45ED DUP2 PUSH2 0x45B4 JUMP JUMPDEST SWAP1 POP SWAP2 SWAP1 POP JUMP JUMPDEST PUSH32 0x5969656C6441676772656761746F72206E6F7420736574000000000000000000 PUSH0 DUP3 ADD MSTORE POP JUMP JUMPDEST PUSH0 PUSH2 0x4628 PUSH1 0x17 DUP4 PUSH2 0x40EA JUMP JUMPDEST SWAP2 POP PUSH2 0x4633 DUP3 PUSH2 0x45F4 JUMP JUMPDEST PUSH1 0x20 DUP3 ADD SWAP1 POP SWAP2 SWAP1 POP JUMP JUMPDEST PUSH0 PUSH1 0x20 DUP3 ADD SWAP1 POP DUP2 DUP2 SUB PUSH0 DUP4 ADD MSTORE PUSH2 0x4655 DUP2 PUSH2 0x461C JUMP JUMPDEST SWAP1 POP SWAP2 SWAP1 POP JUMP JUMPDEST PUSH32 0x57455448206E6F74207365740000000000000000000000000000000000000000 PUSH0 DUP3 ADD MSTORE POP JUMP JUMPDEST PUSH0 PUSH2 0x4690 PUSH1 0xC DUP4 PUSH2 0x40EA JUMP JUMPDEST SWAP2 POP PUSH2 0x469B DUP3 PUSH2 0x465C JUMP JUMPDEST PUSH1 0x20 DUP3 ADD SWAP1 POP SWAP2 SWAP1 POP JUMP JUMPDEST PUSH0 PUSH1 0x20 DUP3 ADD SWAP1 POP DUP2 DUP2 SUB PUSH0 DUP4 ADD MSTORE PUSH2 0x46BD DUP2 PUSH2 0x4684 JUMP JUMPDEST SWAP1 POP SWAP2 SWAP1 POP JUMP JUMPDEST PUSH0 PUSH1 0x40 DUP3 ADD SWAP1 POP PUSH2 0x46D7 PUSH0 DUP4 ADD DUP6 PUSH2 0x441B JUMP JUMPDEST PUSH2 0x46E4 PUSH1 0x20 DUP4 ADD DUP5 PUSH2 0x41DD JUMP JUMPDEST SWAP4 SWAP3 POP POP POP JUMP JUMPDEST PUSH2 0x46F4 DUP2 PUSH2 0x43E8 JUMP JUMPDEST DUP2 EQ PUSH2 0x46FE JUMPI PUSH0 PUSH0 REVERT JUMPDEST POP JUMP JUMPDEST PUSH0 DUP2 MLOAD SWAP1 POP PUSH2 0x470F DUP2 PUSH2 0x46EB JUMP JUMPDEST SWAP3 SWAP2 POP POP JUMP JUMPDEST PUSH0 PUSH1 0x20 DUP3 DUP5 SUB SLT ISZERO PUSH2 0x472A JUMPI PUSH2 0x4729 PUSH2 0x4205 JUMP JUMPDEST JUMPDEST PUSH0 PUSH2 0x4737 DUP5 DUP3 DUP6 ADD PUSH2 0x4701 JUMP JUMPDEST SWAP2 POP POP SWAP3 SWAP2 POP POP JUMP JUMPDEST PUSH32 0x4465706F73697420746F207969656C642061676772656761746F72206661696C PUSH0 DUP3 ADD MSTORE PUSH32 0x6564000000000000000000000000000000000000000000000000000000000000 PUSH1 0x20 DUP3 ADD MSTORE POP JUMP JUMPDEST PUSH0 PUSH2 0x479A PUSH1 0x22 DUP4 PUSH2 0x40EA JUMP JUMPDEST SWAP2 POP PUSH2 0x47A5 DUP3 PUSH2 0x4740 JUMP JUMPDEST PUSH1 0x40 DUP3 ADD SWAP1 POP SWAP2 SWAP1 POP JUMP JUMPDEST PUSH0 PUSH1 0x20 DUP3 ADD SWAP1 POP DUP2 DUP2 SUB PUSH0 DUP4 ADD MSTORE PUSH2 0x47C7 DUP2 PUSH2 0x478E JUMP JUMPDEST SWAP1 POP SWAP2 SWAP1 POP JUMP JUMPDEST PUSH0 PUSH1 0x40 DUP3 ADD SWAP1 POP PUSH2 0x47E1 PUSH0 DUP4 ADD DUP6 PUSH2 0x41DD JUMP JUMPDEST PUSH2 0x47EE PUSH1 0x20 DUP4 ADD DUP5 PUSH2 0x41DD JUMP JUMPDEST SWAP4 SWAP3 POP POP POP JUMP JUMPDEST PUSH32 0x5265656E7472616E637947756172643A207265656E7472616E742063616C6C00 PUSH0 DUP3 ADD MSTORE POP JUMP JUMPDEST PUSH0 PUSH2 0x4829 PUSH1 0x1F DUP4 PUSH2 0x40EA JUMP JUMPDEST SWAP2 POP PUSH2 0x4834 DUP3 PUSH2 0x47F5 JUMP JUMPDEST PUSH1 0x20 DUP3 ADD SWAP1 POP SWAP2 SWAP1 POP JUMP JUMPDEST PUSH0 PUSH1 0x20 DUP3 ADD SWAP1 POP DUP2 DUP2 SUB PUSH0 DUP4 ADD MSTORE PUSH2 0x4856 DUP2 PUSH2 0x481D JUMP JUMPDEST SWAP1 POP SWAP2 SWAP1 POP JUMP JUMPDEST PUSH32 0x4F776E61626C653A2063616C6C6572206973206E6F7420746865206F776E6572 PUSH0 DUP3 ADD MSTORE POP JUMP JUMPDEST PUSH0 PUSH2 0x4891 PUSH1 0x20 DUP4 PUSH2 0x40EA JUMP JUMPDEST SWAP2 POP PUSH2 0x489C DUP3 PUSH2 0x485D JUMP JUMPDEST PUSH1 0x20 DUP3 ADD SWAP1 POP SWAP2 SWAP1 POP JUMP JUMPDEST PUSH0 PUSH1 0x20 DUP3 ADD SWAP1 POP DUP2 DUP2 SUB PUSH0 DUP4 ADD MSTORE PUSH2 0x48BE DUP2 PUSH2 0x4885 JUMP JUMPDEST SWAP1 POP SWAP2 SWAP1 POP JUMP JUMPDEST PUSH32 0x496E76616C6964207072697A65506F6F6C206164647265737300000000000000 PUSH0 DUP3 ADD MSTORE POP JUMP JUMPDEST PUSH0 PUSH2 0x48F9 PUSH1 0x19 DUP4 PUSH2 0x40EA JUMP JUMPDEST SWAP2 POP PUSH2 0x4904 DUP3 PUSH2 0x48C5 JUMP JUMPDEST PUSH1 0x20 DUP3 ADD SWAP1 POP SWAP2 SWAP1 POP JUMP JUMPDEST PUSH0 PUSH1 0x20 DUP3 ADD SWAP1 POP DUP2 DUP2 SUB PUSH0 DUP4 ADD MSTORE PUSH2 0x4926 DUP2 PUSH2 0x48ED JUMP JUMPDEST SWAP1 POP SWAP2 SWAP1 POP JUMP JUMPDEST PUSH32 0x496E76616C6964207368617265546F6B656E2061646472657373000000000000 PUSH0 DUP3 ADD MSTORE POP JUMP JUMPDEST PUSH0 PUSH2 0x4961 PUSH1 0x1A DUP4 PUSH2 0x40EA JUMP JUMPDEST SWAP2 POP PUSH2 0x496C DUP3 PUSH2 0x492D JUMP JUMPDEST PUSH1 0x20 DUP3 ADD SWAP1 POP SWAP2 SWAP1 POP JUMP JUMPDEST PUSH0 PUSH1 0x20 DUP3 ADD SWAP1 POP DUP2 DUP2 SUB PUSH0 DUP4 ADD MSTORE PUSH2 0x498E DUP2 PUSH2 0x4955 JUMP JUMPDEST SWAP1 POP SWAP2 SWAP1 POP JUMP JUMPDEST PUSH32 0x4F6E6C79206C6F747465727920636F6E74726163742063616E20737461727420 PUSH0 DUP3 ADD MSTORE PUSH32 0x6E657720726F756E640000000000000000000000000000000000000000000000 PUSH1 0x20 DUP3 ADD MSTORE POP JUMP JUMPDEST PUSH0 PUSH2 0x49EF PUSH1 0x29 DUP4 PUSH2 0x40EA JUMP JUMPDEST SWAP2 POP PUSH2 0x49FA DUP3 PUSH2 0x4995 JUMP JUMPDEST PUSH1 0x40 DUP3 ADD SWAP1 POP SWAP2 SWAP1 POP JUMP JUMPDEST PUSH0 PUSH1 0x20 DUP3 ADD SWAP1 POP DUP2 DUP2 SUB PUSH0 DUP4 ADD MSTORE PUSH2 0x4A1C DUP2 PUSH2 0x49E3 JUMP JUMPDEST SWAP1 POP SWAP2 SWAP1 POP JUMP JUMPDEST PUSH32 0x496E76616C696420574554482061646472657373000000000000000000000000 PUSH0 DUP3 ADD MSTORE POP JUMP JUMPDEST PUSH0 PUSH2 0x4A57 PUSH1 0x14 DUP4 PUSH2 0x40EA JUMP JUMPDEST SWAP2 POP PUSH2 0x4A62 DUP3 PUSH2 0x4A23 JUMP JUMPDEST PUSH1 0x20 DUP3 ADD SWAP1 POP SWAP2 SWAP1 POP JUMP JUMPDEST PUSH0 PUSH1 0x20 DUP3 ADD SWAP1 POP DUP2 DUP2 SUB PUSH0 DUP4 ADD MSTORE PUSH2 0x4A84 DUP2 PUSH2 0x4A4B JUMP JUMPDEST SWAP1 POP SWAP2 SWAP1 POP JUMP JUMPDEST PUSH32 0x496E76616C6964205969656C6441676772656761746F72206164647265737300 PUSH0 DUP3 ADD MSTORE POP JUMP JUMPDEST PUSH0 PUSH2 0x4ABF PUSH1 0x1F DUP4 PUSH2 0x40EA JUMP JUMPDEST SWAP2 POP PUSH2 0x4ACA DUP3 PUSH2 0x4A8B JUMP JUMPDEST PUSH1 0x20 DUP3 ADD SWAP1 POP SWAP2 SWAP1 POP JUMP JUMPDEST PUSH0 PUSH1 0x20 DUP3 ADD SWAP1 POP DUP2 DUP2 SUB PUSH0 DUP4 ADD MSTORE PUSH2 0x4AEC DUP2 PUSH2 0x4AB3 JUMP JUMPDEST SWAP1 POP SWAP2 SWAP1 POP JUMP JUMPDEST PUSH32 0x496E646578206F7574206F6620626F756E647300000000000000000000000000 PUSH0 DUP3 ADD MSTORE POP JUMP JUMPDEST PUSH0 PUSH2 0x4B27 PUSH1 0x13 DUP4 PUSH2 0x40EA JUMP JUMPDEST SWAP2 POP PUSH2 0x4B32 DUP3 PUSH2 0x4AF3 JUMP JUMPDEST PUSH1 0x20 DUP3 ADD SWAP1 POP SWAP2 SWAP1 POP JUMP JUMPDEST PUSH0 PUSH1 0x20 DUP3 ADD SWAP1 POP DUP2 DUP2 SUB PUSH0 DUP4 ADD MSTORE PUSH2 0x4B54 DUP2 PUSH2 0x4B1B JUMP JUMPDEST SWAP1 POP SWAP2 SWAP1 POP JUMP JUMPDEST PUSH32 0x4E487B7100000000000000000000000000000000000000000000000000000000 PUSH0 MSTORE PUSH1 0x32 PUSH1 0x4 MSTORE PUSH1 0x24 PUSH0 REVERT JUMPDEST PUSH32 0x496E76616C6964206C6F74746572792061646472657373000000000000000000 PUSH0 DUP3 ADD MSTORE POP JUMP JUMPDEST PUSH0 PUSH2 0x4BBC PUSH1 0x17 DUP4 PUSH2 0x40EA JUMP JUMPDEST SWAP2 POP PUSH2 0x4BC7 DUP3 PUSH2 0x4B88 JUMP JUMPDEST PUSH1 0x20 DUP3 ADD SWAP1 POP SWAP2 SWAP1 POP JUMP JUMPDEST PUSH0 PUSH1 0x20 DUP3 ADD SWAP1 POP DUP2 DUP2 SUB PUSH0 DUP4 ADD MSTORE PUSH2 0x4BE9 DUP2 PUSH2 0x4BB0 JUMP JUMPDEST SWAP1 POP SWAP2 SWAP1 POP JUMP JUMPDEST PUSH32 0x4F776E61626C653A206E6577206F776E657220697320746865207A65726F2061 PUSH0 DUP3 ADD MSTORE PUSH32 0x6464726573730000000000000000000000000000000000000000000000000000 PUSH1 0x20 DUP3 ADD MSTORE POP JUMP JUMPDEST PUSH0 PUSH2 0x4C4A PUSH1 0x26 DUP4 PUSH2 0x40EA JUMP JUMPDEST SWAP2 POP PUSH2 0x4C55 DUP3 PUSH2 0x4BF0 JUMP JUMPDEST PUSH1 0x40 DUP3 ADD SWAP1 POP SWAP2 SWAP1 POP JUMP JUMPDEST PUSH0 PUSH1 0x20 DUP3 ADD SWAP1 POP DUP2 DUP2 SUB PUSH0 DUP4 ADD MSTORE PUSH2 0x4C77 DUP2 PUSH2 0x4C3E JUMP JUMPDEST SWAP1 POP SWAP2 SWAP1 POP JUMP JUMPDEST PUSH0 PUSH1 0x60 DUP3 ADD SWAP1 POP PUSH2 0x4C91 PUSH0 DUP4 ADD DUP7 PUSH2 0x441B JUMP JUMPDEST PUSH2 0x4C9E PUSH1 0x20 DUP4 ADD DUP6 PUSH2 0x441B JUMP JUMPDEST PUSH2 0x4CAB PUSH1 0x40 DUP4 ADD DUP5 PUSH2 0x41DD JUMP JUMPDEST SWAP5 SWAP4 POP POP POP POP JUMP JUMPDEST PUSH32 0x5368617265546F6B656E206E6F74207365740000000000000000000000000000 PUSH0 DUP3 ADD MSTORE POP JUMP JUMPDEST PUSH0 PUSH2 0x4CE7 PUSH1 0x12 DUP4 PUSH2 0x40EA JUMP JUMPDEST SWAP2 POP PUSH2 0x4CF2 DUP3 PUSH2 0x4CB3 JUMP JUMPDEST PUSH1 0x20 DUP3 ADD SWAP1 POP SWAP2 SWAP1 POP JUMP JUMPDEST PUSH0 PUSH1 0x20 DUP3 ADD SWAP1 POP DUP2 DUP2 SUB PUSH0 DUP4 ADD MSTORE PUSH2 0x4D14 DUP2 PUSH2 0x4CDB JUMP JUMPDEST SWAP1 POP SWAP2 SWAP1 POP JUMP JUMPDEST PUSH32 0x4E6F206465706F73697420746F20776974686472617700000000000000000000 PUSH0 DUP3 ADD MSTORE POP JUMP JUMPDEST PUSH0 PUSH2 0x4D4F PUSH1 0x16 DUP4 PUSH2 0x40EA JUMP JUMPDEST SWAP2 POP PUSH2 0x4D5A DUP3 PUSH2 0x4D1B JUMP JUMPDEST PUSH1 0x20 DUP3 ADD SWAP1 POP SWAP2 SWAP1 POP JUMP JUMPDEST PUSH0 PUSH1 0x20 DUP3 ADD SWAP1 POP DUP2 DUP2 SUB PUSH0 DUP4 ADD MSTORE PUSH2 0x4D7C DUP2 PUSH2 0x4D43 JUMP JUMPDEST SWAP1 POP SWAP2 SWAP1 POP JUMP JUMPDEST PUSH32 0x496E73756666696369656E7420736861726520746F6B656E7300000000000000 PUSH0 DUP3 ADD MSTORE POP JUMP JUMPDEST PUSH0 PUSH2 0x4DB7 PUSH1 0x19 DUP4 PUSH2 0x40EA JUMP JUMPDEST SWAP2 POP PUSH2 0x4DC2 DUP3 PUSH2 0x4D83 JUMP JUMPDEST PUSH1 0x20 DUP3 ADD SWAP1 POP SWAP2 SWAP1 POP JUMP JUMPDEST PUSH0 PUSH1 0x20 DUP3 ADD SWAP1 POP DUP2 DUP2 SUB PUSH0 DUP4 ADD MSTORE PUSH2 0x4DE4 DUP2 PUSH2 0x4DAB JUMP JUMPDEST SWAP1 POP SWAP2 SWAP1 POP JUMP JUMPDEST PUSH32 0x496E76616C696420726F756E6420494400000000000000000000000000000000 PUSH0 DUP3 ADD MSTORE POP JUMP JUMPDEST PUSH0 PUSH2 0x4E1F PUSH1 0x10 DUP4 PUSH2 0x40EA JUMP JUMPDEST SWAP2 POP PUSH2 0x4E2A DUP3 PUSH2 0x4DEB JUMP JUMPDEST PUSH1 0x20 DUP3 ADD SWAP1 POP SWAP2 SWAP1 POP JUMP JUMPDEST PUSH0 PUSH1 0x20 DUP3 ADD SWAP1 POP DUP2 DUP2 SUB PUSH0 DUP4 ADD MSTORE PUSH2 0x4E4C DUP2 PUSH2 0x4E13 JUMP JUMPDEST SWAP1 POP SWAP2 SWAP1 POP JUMP JUMPDEST PUSH32 0x4E6F2070617274696369706174696F6E20696E207468697320726F756E640000 PUSH0 DUP3 ADD MSTORE POP JUMP JUMPDEST PUSH0 PUSH2 0x4E87 PUSH1 0x1E DUP4 PUSH2 0x40EA JUMP JUMPDEST SWAP2 POP PUSH2 0x4E92 DUP3 PUSH2 0x4E53 JUMP JUMPDEST PUSH1 0x20 DUP3 ADD SWAP1 POP SWAP2 SWAP1 POP JUMP JUMPDEST PUSH0 PUSH1 0x20 DUP3 ADD SWAP1 POP DUP2 DUP2 SUB PUSH0 DUP4 ADD MSTORE PUSH2 0x4EB4 DUP2 PUSH2 0x4E7B JUMP JUMPDEST SWAP1 POP SWAP2 SWAP1 POP JUMP JUMPDEST PUSH32 0x4E6F206465706F73697400000000000000000000000000000000000000000000 PUSH0 DUP3 ADD MSTORE POP JUMP JUMPDEST PUSH0 PUSH2 0x4EEF PUSH1 0xA DUP4 PUSH2 0x40EA JUMP JUMPDEST SWAP2 POP PUSH2 0x4EFA DUP3 PUSH2 0x4EBB JUMP JUMPDEST PUSH1 0x20 DUP3 ADD SWAP1 POP SWAP2 SWAP1 POP JUMP JUMPDEST PUSH0 PUSH1 0x20 DUP3 ADD SWAP1 POP DUP2 DUP2 SUB PUSH0 DUP4 ADD MSTORE PUSH2 0x4F1C DUP2 PUSH2 0x4EE3 JUMP JUMPDEST SWAP1 POP SWAP2 SWAP1 POP JUMP JUMPDEST PUSH32 0x4E487B7100000000000000000000000000000000000000000000000000000000 PUSH0 MSTORE PUSH1 0x11 PUSH1 0x4 MSTORE PUSH1 0x24 PUSH0 REVERT JUMPDEST PUSH0 PUSH2 0x4F5A DUP3 PUSH2 0x41D4 JUMP JUMPDEST SWAP2 POP PUSH2 0x4F65 DUP4 PUSH2 0x41D4 JUMP JUMPDEST SWAP3 POP DUP3 DUP3 SUB SWAP1 POP DUP2 DUP2 GT ISZERO PUSH2 0x4F7D JUMPI PUSH2 0x4F7C PUSH2 0x4F23 JUMP JUMPDEST JUMPDEST SWAP3 SWAP2 POP POP JUMP JUMPDEST PUSH0 DUP2 SWAP1 POP SWAP2 SWAP1 POP JUMP JUMPDEST PUSH0 DUP2 SWAP1 POP SWAP2 SWAP1 POP JUMP JUMPDEST PUSH0 PUSH2 0x4FAF PUSH2 0x4FAA PUSH2 0x4FA5 DUP5 PUSH2 0x4F83 JUMP JUMPDEST PUSH2 0x4F8C JUMP JUMPDEST PUSH2 0x41D4 JUMP JUMPDEST SWAP1 POP SWAP2 SWAP1 POP JUMP JUMPDEST PUSH2 0x4FBF DUP2 PUSH2 0x4F95 JUMP JUMPDEST DUP3 MSTORE POP POP JUMP JUMPDEST PUSH0 PUSH1 0x40 DUP3 ADD SWAP1 POP PUSH2 0x4FD8 PUSH0 DUP4 ADD DUP6 PUSH2 0x441B JUMP JUMPDEST PUSH2 0x4FE5 PUSH1 0x20 DUP4 ADD DUP5 PUSH2 0x4FB6 JUMP JUMPDEST SWAP4 SWAP3 POP POP POP JUMP JUMPDEST PUSH32 0x5769746864726177616C2066726F6D207969656C642061676772656761746F72 PUSH0 DUP3 ADD MSTORE PUSH32 0x206661696C656400000000000000000000000000000000000000000000000000 PUSH1 0x20 DUP3 ADD MSTORE POP JUMP JUMPDEST PUSH0 PUSH2 0x5046 PUSH1 0x27 DUP4 PUSH2 0x40EA JUMP JUMPDEST SWAP2 POP PUSH2 0x5051 DUP3 PUSH2 0x4FEC JUMP JUMPDEST PUSH1 0x40 DUP3 ADD SWAP1 POP SWAP2 SWAP1 POP JUMP JUMPDEST PUSH0 PUSH1 0x20 DUP3 ADD SWAP1 POP DUP2 DUP2 SUB PUSH0 DUP4 ADD MSTORE PUSH2 0x5073 DUP2 PUSH2 0x503A JUMP JUMPDEST SWAP1 POP SWAP2 SWAP1 POP JUMP JUMPDEST PUSH0 PUSH1 0x60 DUP3 ADD SWAP1 POP PUSH2 0x508D PUSH0 DUP4 ADD DUP7 PUSH2 0x41DD JUMP JUMPDEST PUSH2 0x509A PUSH1 0x20 DUP4 ADD DUP6 PUSH2 0x41DD JUMP JUMPDEST PUSH2 0x50A7 PUSH1 0x40 DUP4 ADD DUP5 PUSH2 0x41DD JUMP JUMPDEST SWAP5 SWAP4 POP POP POP POP JUMP JUMPDEST PUSH32 0x496E76616C696420757365722061646472657373000000000000000000000000 PUSH0 DUP3 ADD MSTORE POP JUMP JUMPDEST PUSH0 PUSH2 0x50E3 PUSH1 0x14 DUP4 PUSH2 0x40EA JUMP JUMPDEST SWAP2 POP PUSH2 0x50EE DUP3 PUSH2 0x50AF JUMP JUMPDEST PUSH1 0x20 DUP3 ADD SWAP1 POP SWAP2 SWAP1 POP JUMP JUMPDEST PUSH0 PUSH1 0x20 DUP3 ADD SWAP1 POP DUP2 DUP2 SUB PUSH0 DUP4 ADD MSTORE PUSH2 0x5110 DUP2 PUSH2 0x50D7 JUMP JUMPDEST SWAP1 POP SWAP2 SWAP1 POP JUMP JUMPDEST PUSH32 0x4D757374206465706F736974206174206C6561737420302E312045544820776F PUSH0 DUP3 ADD MSTORE PUSH32 0x727468206F662057455448000000000000000000000000000000000000000000 PUSH1 0x20 DUP3 ADD MSTORE POP JUMP JUMPDEST PUSH0 PUSH2 0x5171 PUSH1 0x2B DUP4 PUSH2 0x40EA JUMP JUMPDEST SWAP2 POP PUSH2 0x517C DUP3 PUSH2 0x5117 JUMP JUMPDEST PUSH1 0x40 DUP3 ADD SWAP1 POP SWAP2 SWAP1 POP JUMP JUMPDEST PUSH0 PUSH1 0x20 DUP3 ADD SWAP1 POP DUP2 DUP2 SUB PUSH0 DUP4 ADD MSTORE PUSH2 0x519E DUP2 PUSH2 0x5165 JUMP JUMPDEST SWAP1 POP SWAP2 SWAP1 POP JUMP JUMPDEST PUSH32 0x4D757374206465706F736974206174206D6F737420312045544820776F727468 PUSH0 DUP3 ADD MSTORE PUSH32 0x206F662057455448000000000000000000000000000000000000000000000000 PUSH1 0x20 DUP3 ADD MSTORE POP JUMP JUMPDEST PUSH0 PUSH2 0x51FF PUSH1 0x28 DUP4 PUSH2 0x40EA JUMP JUMPDEST SWAP2 POP PUSH2 0x520A DUP3 PUSH2 0x51A5 JUMP JUMPDEST PUSH1 0x40 DUP3 ADD SWAP1 POP SWAP2 SWAP1 POP JUMP JUMPDEST PUSH0 PUSH1 0x20 DUP3 ADD SWAP1 POP DUP2 DUP2 SUB PUSH0 DUP4 ADD MSTORE PUSH2 0x522C DUP2 PUSH2 0x51F3 JUMP JUMPDEST SWAP1 POP SWAP2 SWAP1 POP JUMP JUMPDEST PUSH32 0x496E73756666696369656E7420574554482062616C616E636500000000000000 PUSH0 DUP3 ADD MSTORE POP JUMP JUMPDEST PUSH0 PUSH2 0x5267 PUSH1 0x19 DUP4 PUSH2 0x40EA JUMP JUMPDEST SWAP2 POP PUSH2 0x5272 DUP3 PUSH2 0x5233 JUMP JUMPDEST PUSH1 0x20 DUP3 ADD SWAP1 POP SWAP2 SWAP1 POP JUMP JUMPDEST PUSH0 PUSH1 0x20 DUP3 ADD SWAP1 POP DUP2 DUP2 SUB PUSH0 DUP4 ADD MSTORE PUSH2 0x5294 DUP2 PUSH2 0x525B JUMP JUMPDEST SWAP1 POP SWAP2 SWAP1 POP JUMP JUMPDEST PUSH32 0x557365722063616E206F6E6C79206465706F736974206F6E6365207065722072 PUSH0 DUP3 ADD MSTORE PUSH32 0x6F756E6400000000000000000000000000000000000000000000000000000000 PUSH1 0x20 DUP3 ADD MSTORE POP JUMP JUMPDEST PUSH0 PUSH2 0x52F5 PUSH1 0x24 DUP4 PUSH2 0x40EA JUMP JUMPDEST SWAP2 POP PUSH2 0x5300 DUP3 PUSH2 0x529B JUMP JUMPDEST PUSH1 0x40 DUP3 ADD SWAP1 POP SWAP2 SWAP1 POP JUMP JUMPDEST PUSH0 PUSH1 0x20 DUP3 ADD SWAP1 POP DUP2 DUP2 SUB PUSH0 DUP4 ADD MSTORE PUSH2 0x5322 DUP2 PUSH2 0x52E9 JUMP JUMPDEST SWAP1 POP SWAP2 SWAP1 POP JUMP JUMPDEST PUSH0 PUSH2 0x5333 DUP3 PUSH2 0x41D4 JUMP JUMPDEST SWAP2 POP PUSH32 0xFFFFFFFFFFFFFFFFFFFFFFFFFFFFFFFFFFFFFFFFFFFFFFFFFFFFFFFFFFFFFFFF DUP3 SUB PUSH2 0x5365 JUMPI PUSH2 0x5364 PUSH2 0x4F23 JUMP JUMPDEST JUMPDEST PUSH1 0x1 DUP3 ADD SWAP1 POP SWAP2 SWAP1 POP JUMP JUMPDEST PUSH0 PUSH2 0x537A DUP3 PUSH2 0x41D4 JUMP JUMPDEST SWAP2 POP PUSH2 0x5385 DUP4 PUSH2 0x41D4 JUMP JUMPDEST SWAP3 POP DUP3 DUP3 ADD SWAP1 POP DUP1 DUP3 GT ISZERO PUSH2 0x539D JUMPI PUSH2 0x539C PUSH2 0x4F23 JUMP JUMPDEST JUMPDEST SWAP3 SWAP2 POP POP JUMP JUMPDEST PUSH32 0x5361666545524332303A204552433230206F7065726174696F6E20646964206E PUSH0 DUP3 ADD MSTORE PUSH32 0x6F74207375636365656400000000000000000000000000000000000000000000 PUSH1 0x20 DUP3 ADD MSTORE POP JUMP JUMPDEST PUSH0 PUSH2 0x53FD PUSH1 0x2A DUP4 PUSH2 0x40EA JUMP JUMPDEST SWAP2 POP PUSH2 0x5408 DUP3 PUSH2 0x53A3 JUMP JUMPDEST PUSH1 0x40 DUP3 ADD SWAP1 POP SWAP2 SWAP1 POP JUMP JUMPDEST PUSH0 PUSH1 0x20 DUP3 ADD SWAP1 POP DUP2 DUP2 SUB PUSH0 DUP4 ADD MSTORE PUSH2 0x542A DUP2 PUSH2 0x53F1 JUMP JUMPDEST SWAP1 POP SWAP2 SWAP1 POP JUMP JUMPDEST PUSH32 0x4E487B7100000000000000000000000000000000000000000000000000000000 PUSH0 MSTORE PUSH1 0x31 PUSH1 0x4 MSTORE PUSH1 0x24 PUSH0 REVERT JUMPDEST PUSH0 PUSH2 0x5468 DUP3 PUSH2 0x41D4 JUMP JUMPDEST SWAP2 POP PUSH0 DUP3 SUB PUSH2 0x547A JUMPI PUSH2 0x5479 PUSH2 0x4F23 JUMP JUMPDEST JUMPDEST PUSH1 0x1 DUP3 SUB SWAP1 POP SWAP2 SWAP1 POP JUMP JUMPDEST PUSH32 0x416D6F756E74206D75737420626520706F736974697665000000000000000000 PUSH0 DUP3 ADD MSTORE POP JUMP JUMPDEST PUSH0 PUSH2 0x54B9 PUSH1 0x17 DUP4 PUSH2 0x40EA JUMP JUMPDEST SWAP2 POP PUSH2 0x54C4 DUP3 PUSH2 0x5485 JUMP JUMPDEST PUSH1 0x20 DUP3 ADD SWAP1 POP SWAP2 SWAP1 POP JUMP JUMPDEST PUSH0 PUSH1 0x20 DUP3 ADD SWAP1 POP DUP2 DUP2 SUB PUSH0 DUP4 ADD MSTORE PUSH2 0x54E6 DUP2 PUSH2 0x54AD JUMP JUMPDEST SWAP1 POP SWAP2 SWAP1 POP JUMP JUMPDEST PUSH32 0x54696D6520656C6170736564206D75737420626520706F736974697665000000 PUSH0 DUP3 ADD MSTORE POP JUMP JUMPDEST PUSH0 PUSH2 0x5521 PUSH1 0x1D DUP4 PUSH2 0x40EA JUMP JUMPDEST SWAP2 POP PUSH2 0x552C DUP3 PUSH2 0x54ED JUMP JUMPDEST PUSH1 0x20 DUP3 ADD SWAP1 POP SWAP2 SWAP1 POP JUMP JUMPDEST PUSH0 PUSH1 0x20 DUP3 ADD SWAP1 POP DUP2 DUP2 SUB PUSH0 DUP4 ADD MSTORE PUSH2 0x554E DUP2 PUSH2 0x5515 JUMP JUMPDEST SWAP1 POP SWAP2 SWAP1 POP JUMP JUMPDEST PUSH0 PUSH2 0x555F DUP3 PUSH2 0x41D4 JUMP JUMPDEST SWAP2 POP PUSH2 0x556A DUP4 PUSH2 0x41D4 JUMP JUMPDEST SWAP3 POP DUP3 DUP3 MUL PUSH2 0x5578 DUP2 PUSH2 0x41D4 JUMP JUMPDEST SWAP2 POP DUP3 DUP3 DIV DUP5 EQ DUP4 ISZERO OR PUSH2 0x558F JUMPI PUSH2 0x558E PUSH2 0x4F23 JUMP JUMPDEST JUMPDEST POP SWAP3 SWAP2 POP POP JUMP JUMPDEST PUSH32 0x4E487B7100000000000000000000000000000000000000000000000000000000 PUSH0 MSTORE PUSH1 0x12 PUSH1 0x4 MSTORE PUSH1 0x24 PUSH0 REVERT JUMPDEST PUSH0 PUSH2 0x55CD DUP3 PUSH2 0x41D4 JUMP JUMPDEST SWAP2 POP PUSH2 0x55D8 DUP4 PUSH2 0x41D4 JUMP JUMPDEST SWAP3 POP DUP3 PUSH2 0x55E8 JUMPI PUSH2 0x55E7 PUSH2 0x5596 JUMP JUMPDEST JUMPDEST DUP3 DUP3 DIV SWAP1 POP SWAP3 SWAP2 POP POP JUMP JUMPDEST PUSH32 0x416464726573733A20696E73756666696369656E742062616C616E636520666F PUSH0 DUP3 ADD MSTORE PUSH32 0x722063616C6C0000000000000000000000000000000000000000000000000000 PUSH1 0x20 DUP3 ADD MSTORE POP JUMP JUMPDEST PUSH0 PUSH2 0x564D PUSH1 0x26 DUP4 PUSH2 0x40EA JUMP JUMPDEST SWAP2 POP PUSH2 0x5658 DUP3 PUSH2 0x55F3 JUMP JUMPDEST PUSH1 0x40 DUP3 ADD SWAP1 POP SWAP2 SWAP1 POP JUMP JUMPDEST PUSH0 PUSH1 0x20 DUP3 ADD SWAP1 POP DUP2 DUP2 SUB PUSH0 DUP4 ADD MSTORE PUSH2 0x567A DUP2 PUSH2 0x5641 JUMP JUMPDEST SWAP1 POP SWAP2 SWAP1 POP JUMP JUMPDEST PUSH32 0x416464726573733A2063616C6C20746F206E6F6E2D636F6E7472616374000000 PUSH0 DUP3 ADD MSTORE POP JUMP JUMPDEST PUSH0 PUSH2 0x56B5 PUSH1 0x1D DUP4 PUSH2 0x40EA JUMP JUMPDEST SWAP2 POP PUSH2 0x56C0 DUP3 PUSH2 0x5681 JUMP JUMPDEST PUSH1 0x20 DUP3 ADD SWAP1 POP SWAP2 SWAP1 POP JUMP JUMPDEST PUSH0 PUSH1 0x20 DUP3 ADD SWAP1 POP DUP2 DUP2 SUB PUSH0 DUP4 ADD MSTORE PUSH2 0x56E2 DUP2 PUSH2 0x56A9 JUMP JUMPDEST SWAP1 POP SWAP2 SWAP1 POP JUMP JUMPDEST PUSH0 DUP2 MLOAD SWAP1 POP SWAP2 SWAP1 POP JUMP JUMPDEST PUSH0 DUP2 SWAP1 POP SWAP3 SWAP2 POP POP JUMP JUMPDEST DUP3 DUP2 DUP4 MCOPY PUSH0 DUP4 DUP4 ADD MSTORE POP POP POP JUMP JUMPDEST PUSH0 PUSH2 0x5715 DUP3 PUSH2 0x56E9 JUMP JUMPDEST PUSH2 0x571F DUP2 DUP6 PUSH2 0x56F3 JUMP JUMPDEST SWAP4 POP PUSH2 0x572F DUP2 DUP6 PUSH1 0x20 DUP7 ADD PUSH2 0x56FD JUMP JUMPDEST DUP1 DUP5 ADD SWAP2 POP POP SWAP3 SWAP2 POP POP JUMP JUMPDEST PUSH0 PUSH2 0x5746 DUP3 DUP5 PUSH2 0x570B JUMP JUMPDEST SWAP2 POP DUP2 SWAP1 POP SWAP3 SWAP2 POP POP JUMP JUMPDEST PUSH0 DUP2 MLOAD SWAP1 POP SWAP2 SWAP1 POP JUMP JUMPDEST PUSH0 PUSH1 0x1F NOT PUSH1 0x1F DUP4 ADD AND SWAP1 POP SWAP2 SWAP1 POP JUMP JUMPDEST PUSH0 PUSH2 0x5775 DUP3 PUSH2 0x5751 JUMP JUMPDEST PUSH2 0x577F DUP2 DUP6 PUSH2 0x40EA JUMP JUMPDEST SWAP4 POP PUSH2 0x578F DUP2 DUP6 PUSH1 0x20 DUP7 ADD PUSH2 0x56FD JUMP JUMPDEST PUSH2 0x5798 DUP2 PUSH2 0x575B JUMP JUMPDEST DUP5 ADD SWAP2 POP POP SWAP3 SWAP2 POP POP JUMP JUMPDEST PUSH0 PUSH1 0x20 DUP3 ADD SWAP1 POP DUP2 DUP2 SUB PUSH0 DUP4 ADD MSTORE PUSH2 0x57BB DUP2 DUP5 PUSH2 0x576B JUMP JUMPDEST SWAP1 POP SWAP3 SWAP2 POP POP JUMP INVALID LOG2 PUSH5 0x6970667358 0x22 SLT KECCAK256 0xAF RETURNCONTRACT 0x15 0xD9 PUSH31 0xF90764B500C5FCE9447DD3B74ED4EB738478DAE90BDB720FD2299164736F6C PUSH4 0x4300081E STOP CALLER "
		},
		"gasEstimates": {
			"creation": {
				"codeDepositCost": "4504200",
				"executionCost": "infinite",
				"totalCost": "infinite"
			},
			"external": {
				"MAX_DEPOSIT()": "436",
				"MIN_DEPOSIT()": "369",
				"deposit(uint256)": "infinite",
				"depositFeeToYieldAggregator(uint256)": "infinite",
				"depositFor(address,uint256)": "infinite",
				"getAllDepositsTotal()": "2544",
				"getCurrentRoundId()": "infinite",
				"getDepositTotal()": "infinite",
				"getDepositTotal(uint256)": "infinite",
				"getShareToken()": "2605",
				"getTotalWeight()": "infinite",
				"getTotalWeight(uint256)": "infinite",
				"getUser(uint256)": "infinite",
				"getUser(uint256,uint256)": "infinite",
				"getUserCount()": "infinite",
				"getUserCount(uint256)": "infinite",
				"lottery()": "2575",
				"owner()": "2582",
				"prizePool()": "2553",
				"renounceOwnership()": "30478",
				"setLottery(address)": "30766",
				"setPrizePool(address)": "30746",
				"setShareToken(address)": "30767",
				"setWETH(address)": "30724",
				"setYieldAggregator(address)": "30767",
				"shareToken()": "2598",
				"startNewRound(uint256)": "infinite",
				"transferOwnership(address)": "30817",
				"userDeposits(address)": "infinite",
				"userDeposits(address,uint256)": "8098",
				"weth()": "2582",
				"withdraw()": "infinite",
				"withdraw(uint256)": "infinite",
				"withdrawFor(uint256,address)": "infinite",
				"yieldAggregator()": "2576"
			},
			"internal": {
				"_depositCommon(address,uint256)": "infinite",
				"_removeParticipant(address,uint256)": "infinite",
				"_withdrawFromRound(address,uint256)": "infinite"
			}
		},
		"methodIdentifiers": {
			"MAX_DEPOSIT()": "dd5967c3",
			"MIN_DEPOSIT()": "e1e158a5",
			"deposit(uint256)": "b6b55f25",
			"depositFeeToYieldAggregator(uint256)": "111663e8",
			"depositFor(address,uint256)": "2f4f21e2",
			"getAllDepositsTotal()": "362b5198",
			"getCurrentRoundId()": "5727e25d",
			"getDepositTotal()": "5eefdd2b",
			"getDepositTotal(uint256)": "fbee60a0",
			"getShareToken()": "2bdb0d92",
			"getTotalWeight()": "06aba0e1",
			"getTotalWeight(uint256)": "2434c5bd",
			"getUser(uint256)": "b0467deb",
			"getUser(uint256,uint256)": "c75cd70a",
			"getUserCount()": "b5cb15f7",
			"getUserCount(uint256)": "ef6f156e",
			"lottery()": "ba13a572",
			"owner()": "8da5cb5b",
			"prizePool()": "719ce73e",
			"renounceOwnership()": "715018a6",
			"setLottery(address)": "f298083b",
			"setPrizePool(address)": "336c6d39",
			"setShareToken(address)": "40f797bb",
			"setWETH(address)": "5b769f3c",
			"setYieldAggregator(address)": "992b48de",
			"shareToken()": "6c9fa59e",
			"startNewRound(uint256)": "4615102c",
			"transferOwnership(address)": "f2fde38b",
			"userDeposits(address)": "0ba36dcd",
			"userDeposits(address,uint256)": "08f43333",
			"weth()": "3fc8cef3",
			"withdraw()": "3ccfd60b",
			"withdraw(uint256)": "2e1a7d4d",
			"withdrawFor(uint256,address)": "3576f6cc",
			"yieldAggregator()": "2a194b6d"
		}
	},
	"abi": [
		{
			"inputs": [],
			"stateMutability": "nonpayable",
			"type": "constructor"
		},
		{
			"anonymous": false,
			"inputs": [
				{
					"indexed": true,
					"internalType": "address",
					"name": "user",
					"type": "address"
				},
				{
					"indexed": false,
					"internalType": "uint256",
					"name": "amount",
					"type": "uint256"
				},
				{
					"indexed": false,
					"internalType": "uint256",
					"name": "timestamp",
					"type": "uint256"
				},
				{
					"indexed": false,
					"internalType": "uint256",
					"name": "roundId",
					"type": "uint256"
				}
			],
			"name": "Deposited",
			"type": "event"
		},
		{
			"anonymous": false,
			"inputs": [
				{
					"indexed": false,
					"internalType": "uint256",
					"name": "amount",
					"type": "uint256"
				},
				{
					"indexed": false,
					"internalType": "uint256",
					"name": "timestamp",
					"type": "uint256"
				}
			],
			"name": "FeeDeposited",
			"type": "event"
		},
		{
			"anonymous": false,
			"inputs": [
				{
					"indexed": true,
					"internalType": "address",
					"name": "previousLottery",
					"type": "address"
				},
				{
					"indexed": true,
					"internalType": "address",
					"name": "newLottery",
					"type": "address"
				}
			],
			"name": "LotterySet",
			"type": "event"
		},
		{
			"anonymous": false,
			"inputs": [
				{
					"indexed": true,
					"internalType": "uint256",
					"name": "roundId",
					"type": "uint256"
				},
				{
					"indexed": false,
					"internalType": "uint256",
					"name": "timestamp",
					"type": "uint256"
				},
				{
					"indexed": false,
					"internalType": "uint256",
					"name": "drawTimestamp",
					"type": "uint256"
				}
			],
			"name": "NewRoundStarted",
			"type": "event"
		},
		{
			"anonymous": false,
			"inputs": [
				{
					"indexed": true,
					"internalType": "address",
					"name": "previousOwner",
					"type": "address"
				},
				{
					"indexed": true,
					"internalType": "address",
					"name": "newOwner",
					"type": "address"
				}
			],
			"name": "OwnershipTransferred",
			"type": "event"
		},
		{
			"anonymous": false,
			"inputs": [
				{
					"indexed": true,
					"internalType": "address",
					"name": "previousPrizePool",
					"type": "address"
				},
				{
					"indexed": true,
					"internalType": "address",
					"name": "newPrizePool",
					"type": "address"
				}
			],
			"name": "PrizePoolSet",
			"type": "event"
		},
		{
			"anonymous": false,
			"inputs": [
				{
					"indexed": false,
					"internalType": "uint256",
					"name": "amount",
					"type": "uint256"
				},
				{
					"indexed": false,
					"internalType": "uint256",
					"name": "timestamp",
					"type": "uint256"
				}
			],
			"name": "ShareTokenBurned",
			"type": "event"
		},
		{
			"anonymous": false,
			"inputs": [
				{
					"indexed": true,
					"internalType": "address",
					"name": "user",
					"type": "address"
				},
				{
					"indexed": false,
					"internalType": "uint256",
					"name": "amount",
					"type": "uint256"
				},
				{
					"indexed": false,
					"internalType": "uint256",
					"name": "timestamp",
					"type": "uint256"
				}
			],
			"name": "ShareTokenMinted",
			"type": "event"
		},
		{
			"anonymous": false,
			"inputs": [
				{
					"indexed": true,
					"internalType": "address",
					"name": "previousShareToken",
					"type": "address"
				},
				{
					"indexed": true,
					"internalType": "address",
					"name": "newShareToken",
					"type": "address"
				}
			],
			"name": "ShareTokenSet",
			"type": "event"
		},
		{
			"anonymous": false,
			"inputs": [
				{
					"indexed": true,
					"internalType": "address",
					"name": "user",
					"type": "address"
				},
				{
					"indexed": false,
					"internalType": "uint256",
					"name": "amount",
					"type": "uint256"
				},
				{
					"indexed": false,
					"internalType": "uint256",
					"name": "roundId",
					"type": "uint256"
				}
			],
			"name": "ShortfallCovered",
			"type": "event"
		},
		{
			"anonymous": false,
			"inputs": [
				{
					"indexed": false,
					"internalType": "uint256",
					"name": "amount",
					"type": "uint256"
				},
				{
					"indexed": false,
					"internalType": "uint256",
					"name": "timestamp",
					"type": "uint256"
				}
			],
			"name": "WETHDeposited",
			"type": "event"
		},
		{
			"anonymous": false,
			"inputs": [
				{
					"indexed": true,
					"internalType": "address",
					"name": "previousWETH",
					"type": "address"
				},
				{
					"indexed": true,
					"internalType": "address",
					"name": "newWETH",
					"type": "address"
				}
			],
			"name": "WETHSet",
			"type": "event"
		},
		{
			"anonymous": false,
			"inputs": [
				{
					"indexed": false,
					"internalType": "uint256",
					"name": "amount",
					"type": "uint256"
				},
				{
					"indexed": false,
					"internalType": "uint256",
					"name": "timestamp",
					"type": "uint256"
				}
			],
			"name": "WETHWithdrawn",
			"type": "event"
		},
		{
			"anonymous": false,
			"inputs": [
				{
					"indexed": true,
					"internalType": "address",
					"name": "user",
					"type": "address"
				},
				{
					"indexed": false,
					"internalType": "uint256",
					"name": "amount",
					"type": "uint256"
				},
				{
					"indexed": false,
					"internalType": "uint256",
					"name": "timestamp",
					"type": "uint256"
				},
				{
					"indexed": false,
					"internalType": "uint256",
					"name": "roundId",
					"type": "uint256"
				}
			],
			"name": "Withdrawn",
			"type": "event"
		},
		{
			"anonymous": false,
			"inputs": [
				{
					"indexed": true,
					"internalType": "address",
					"name": "oldYieldAggregator",
					"type": "address"
				},
				{
					"indexed": true,
					"internalType": "address",
					"name": "newYieldAggregator",
					"type": "address"
				}
			],
			"name": "YieldAggregatorSet",
			"type": "event"
		},
		{
			"inputs": [],
			"name": "MAX_DEPOSIT",
			"outputs": [
				{
					"internalType": "uint256",
					"name": "",
					"type": "uint256"
				}
			],
			"stateMutability": "view",
			"type": "function"
		},
		{
			"inputs": [],
			"name": "MIN_DEPOSIT",
			"outputs": [
				{
					"internalType": "uint256",
					"name": "",
					"type": "uint256"
				}
			],
			"stateMutability": "view",
			"type": "function"
		},
		{
			"inputs": [
				{
					"internalType": "uint256",
					"name": "amount",
					"type": "uint256"
				}
			],
			"name": "deposit",
			"outputs": [],
			"stateMutability": "nonpayable",
			"type": "function"
		},
		{
			"inputs": [
				{
					"internalType": "uint256",
					"name": "amount",
					"type": "uint256"
				}
			],
			"name": "depositFeeToYieldAggregator",
			"outputs": [
				{
					"internalType": "bool",
					"name": "",
					"type": "bool"
				}
			],
			"stateMutability": "nonpayable",
			"type": "function"
		},
		{
			"inputs": [
				{
					"internalType": "address",
					"name": "user",
					"type": "address"
				},
				{
					"internalType": "uint256",
					"name": "amount",
					"type": "uint256"
				}
			],
			"name": "depositFor",
			"outputs": [],
			"stateMutability": "nonpayable",
			"type": "function"
		},
		{
			"inputs": [],
			"name": "getAllDepositsTotal",
			"outputs": [
				{
					"internalType": "uint256",
					"name": "",
					"type": "uint256"
				}
			],
			"stateMutability": "view",
			"type": "function"
		},
		{
			"inputs": [],
			"name": "getCurrentRoundId",
			"outputs": [
				{
					"internalType": "uint256",
					"name": "",
					"type": "uint256"
				}
			],
			"stateMutability": "view",
			"type": "function"
		},
		{
			"inputs": [],
			"name": "getDepositTotal",
			"outputs": [
				{
					"internalType": "uint256",
					"name": "",
					"type": "uint256"
				}
			],
			"stateMutability": "view",
			"type": "function"
		},
		{
			"inputs": [
				{
					"internalType": "uint256",
					"name": "roundId",
					"type": "uint256"
				}
			],
			"name": "getDepositTotal",
			"outputs": [
				{
					"internalType": "uint256",
					"name": "",
					"type": "uint256"
				}
			],
			"stateMutability": "view",
			"type": "function"
		},
		{
			"inputs": [],
			"name": "getShareToken",
			"outputs": [
				{
					"internalType": "address",
					"name": "",
					"type": "address"
				}
			],
			"stateMutability": "view",
			"type": "function"
		},
		{
			"inputs": [],
			"name": "getTotalWeight",
			"outputs": [
				{
					"internalType": "uint256",
					"name": "",
					"type": "uint256"
				}
			],
			"stateMutability": "view",
			"type": "function"
		},
		{
			"inputs": [
				{
					"internalType": "uint256",
					"name": "roundId",
					"type": "uint256"
				}
			],
			"name": "getTotalWeight",
			"outputs": [
				{
					"internalType": "uint256",
					"name": "",
					"type": "uint256"
				}
			],
			"stateMutability": "view",
			"type": "function"
		},
		{
			"inputs": [
				{
					"internalType": "uint256",
					"name": "index",
					"type": "uint256"
				}
			],
			"name": "getUser",
			"outputs": [
				{
					"internalType": "address",
					"name": "",
					"type": "address"
				}
			],
			"stateMutability": "view",
			"type": "function"
		},
		{
			"inputs": [
				{
					"internalType": "uint256",
					"name": "index",
					"type": "uint256"
				},
				{
					"internalType": "uint256",
					"name": "roundId",
					"type": "uint256"
				}
			],
			"name": "getUser",
			"outputs": [
				{
					"internalType": "address",
					"name": "",
					"type": "address"
				}
			],
			"stateMutability": "view",
			"type": "function"
		},
		{
			"inputs": [],
			"name": "getUserCount",
			"outputs": [
				{
					"internalType": "uint256",
					"name": "",
					"type": "uint256"
				}
			],
			"stateMutability": "view",
			"type": "function"
		},
		{
			"inputs": [
				{
					"internalType": "uint256",
					"name": "roundId",
					"type": "uint256"
				}
			],
			"name": "getUserCount",
			"outputs": [
				{
					"internalType": "uint256",
					"name": "",
					"type": "uint256"
				}
			],
			"stateMutability": "view",
			"type": "function"
		},
		{
			"inputs": [],
			"name": "lottery",
			"outputs": [
				{
					"internalType": "address",
					"name": "",
					"type": "address"
				}
			],
			"stateMutability": "view",
			"type": "function"
		},
		{
			"inputs": [],
			"name": "owner",
			"outputs": [
				{
					"internalType": "address",
					"name": "",
					"type": "address"
				}
			],
			"stateMutability": "view",
			"type": "function"
		},
		{
			"inputs": [],
			"name": "prizePool",
			"outputs": [
				{
					"internalType": "address",
					"name": "",
					"type": "address"
				}
			],
			"stateMutability": "view",
			"type": "function"
		},
		{
			"inputs": [],
			"name": "renounceOwnership",
			"outputs": [],
			"stateMutability": "nonpayable",
			"type": "function"
		},
		{
			"inputs": [
				{
					"internalType": "address",
					"name": "_lottery",
					"type": "address"
				}
			],
			"name": "setLottery",
			"outputs": [],
			"stateMutability": "nonpayable",
			"type": "function"
		},
		{
			"inputs": [
				{
					"internalType": "address",
					"name": "_prizePool",
					"type": "address"
				}
			],
			"name": "setPrizePool",
			"outputs": [],
			"stateMutability": "nonpayable",
			"type": "function"
		},
		{
			"inputs": [
				{
					"internalType": "address",
					"name": "_shareToken",
					"type": "address"
				}
			],
			"name": "setShareToken",
			"outputs": [],
			"stateMutability": "nonpayable",
			"type": "function"
		},
		{
			"inputs": [
				{
					"internalType": "address",
					"name": "_weth",
					"type": "address"
				}
			],
			"name": "setWETH",
			"outputs": [],
			"stateMutability": "nonpayable",
			"type": "function"
		},
		{
			"inputs": [
				{
					"internalType": "address",
					"name": "_yieldAggregator",
					"type": "address"
				}
			],
			"name": "setYieldAggregator",
			"outputs": [],
			"stateMutability": "nonpayable",
			"type": "function"
		},
		{
			"inputs": [],
			"name": "shareToken",
			"outputs": [
				{
					"internalType": "address",
					"name": "",
					"type": "address"
				}
			],
			"stateMutability": "view",
			"type": "function"
		},
		{
			"inputs": [
				{
					"internalType": "uint256",
					"name": "newRoundId",
					"type": "uint256"
				}
			],
			"name": "startNewRound",
			"outputs": [],
			"stateMutability": "nonpayable",
			"type": "function"
		},
		{
			"inputs": [
				{
					"internalType": "address",
					"name": "newOwner",
					"type": "address"
				}
			],
			"name": "transferOwnership",
			"outputs": [],
			"stateMutability": "nonpayable",
			"type": "function"
		},
		{
			"inputs": [
				{
					"internalType": "address",
					"name": "user",
					"type": "address"
				},
				{
					"internalType": "uint256",
					"name": "roundId",
					"type": "uint256"
				}
			],
			"name": "userDeposits",
			"outputs": [
				{
					"components": [
						{
							"internalType": "uint128",
							"name": "amount",
							"type": "uint128"
						},
						{
							"internalType": "uint32",
							"name": "timestamp",
							"type": "uint32"
						},
						{
							"internalType": "uint96",
							"name": "weight",
							"type": "uint96"
						}
					],
					"internalType": "struct IVault.Deposit",
					"name": "",
					"type": "tuple"
				}
			],
			"stateMutability": "view",
			"type": "function"
		},
		{
			"inputs": [
				{
					"internalType": "address",
					"name": "user",
					"type": "address"
				}
			],
			"name": "userDeposits",
			"outputs": [
				{
					"components": [
						{
							"internalType": "uint128",
							"name": "amount",
							"type": "uint128"
						},
						{
							"internalType": "uint32",
							"name": "timestamp",
							"type": "uint32"
						},
						{
							"internalType": "uint96",
							"name": "weight",
							"type": "uint96"
						}
					],
					"internalType": "struct IVault.Deposit",
					"name": "",
					"type": "tuple"
				}
			],
			"stateMutability": "view",
			"type": "function"
		},
		{
			"inputs": [],
			"name": "weth",
			"outputs": [
				{
					"internalType": "address",
					"name": "",
					"type": "address"
				}
			],
			"stateMutability": "view",
			"type": "function"
		},
		{
			"inputs": [
				{
					"internalType": "uint256",
					"name": "roundId",
					"type": "uint256"
				}
			],
			"name": "withdraw",
			"outputs": [],
			"stateMutability": "nonpayable",
			"type": "function"
		},
		{
			"inputs": [],
			"name": "withdraw",
			"outputs": [],
			"stateMutability": "nonpayable",
			"type": "function"
		},
		{
			"inputs": [
				{
					"internalType": "uint256",
					"name": "roundId",
					"type": "uint256"
				},
				{
					"internalType": "address",
					"name": "to",
					"type": "address"
				}
			],
			"name": "withdrawFor",
			"outputs": [],
			"stateMutability": "nonpayable",
			"type": "function"
		},
		{
			"inputs": [],
			"name": "yieldAggregator",
			"outputs": [
				{
					"internalType": "address",
					"name": "",
					"type": "address"
				}
			],
			"stateMutability": "view",
			"type": "function"
		},
		{
			"stateMutability": "payable",
			"type": "receive"
		}
	]
}